:1040000088D3012055BD020047BD020049BD020012
:104010004BBD02004DBD02004FBD0200000000007C
:10402000000000000000000000000000115002002D
:1040300051BD02000000000041500200A5500200E6
:1040400045BD020045BD020045BD020045BD020060
:1040500045BD020045BD020045BD020045BD020050
:1040600045BD020045BD020045BD0200018C0200B5
:1040700045BD020045BD020045BD020045BD020030
:1040800045BD020045BD020045BD020045BD020020
:1040900045BD020045BD020045BD020045BD020010
:1040A00045BD020045BD020045BD020045BD020000
:1040B00045BD0200655D0200915D02007D74020055
:1040C000857402008D740200957402009D740200D4
:1040D00045BD020045BD020045BD020045BD0200D0
:1040E00045BD020045BD02000000000000000000C8
:1040F00000000000F56F020071A4020081A402001C
:1041000089A4020091A4020099A40200A9A40200BB
:10411000B1A40200B9A4020045BD020045BD0200E1
:1041200045BD020045BD0200C1A4020005A5020074
:104130000DA5020015A502001DA502002DA5020077
:1041400035A502003DA5020045A50200D5A5020047
:10415000DDA50200E5A50200EDA50200FDA5020017
:1041600005A602000DA6020045BD020045BD0200E5
:1041700045BD020045BD0200000000000000000037
:10418000256F02002D6F0200356F02003D6F0200A7
:104190000000000045BD020045BD020045BD020013
:1041A00045BD020045BD020045BD020045BD0200FF
:1041B00045BD020045BD020045BD020045BD0200EF
:1041C00045BD020045BD020045BD020045BD0200DF
:1041D00045BD020045BD020045BD020045BD0200CF
:1041E00045BD020045BD020045BD020025C70200D5
:1041F00035C7020045C7020055C7020045BD020091
:1042000045BD020045BD020045BD020045BD02009E
:1042100045BD020045BD020015BD020025BD0200DE
:104220002DBD02003DBD020045BD020045BD02009E
:1042300045BD020045BD020045BD020045BD02006E
:1042400045BD020045BD020045BD020045BD02005E
:1042500045BD020045BD020045BD020045BD02004E
:1042600045BD020010B5054C237833B9044B13B19A
:104270000448AFF300800123237010BDD008002054
:1042800000000000D0EB030008B5034B1BB103494D
:104290000348AFF3008008BD00000000D4080020F0
:1042A000D0EB030010B40B78812B10D11A4B8A8805
:1042B00019799142194602D05B79934228D1096855
:1042C0000A780023154CA4465DF8044B6047C3F3FD
:1042D0004113012B1CD1104B8A881C7994421C4637
:1042E00002D05B79934213D14B78032B06D00B2B72
:1042F00008D06FF00C005DF8044B704708490023AC
:104300000122DFE74B88237200231A461946D9E7BA
:104310006FF00900EFE700BFEC08002055BF020076
:10432000F408002001292DE9F74F0D46144670D0FE
:10433000022900F09280002940F092808668DFF820
:1043400048811068DFF84491371D20B96FF00900EB
:1043500003B0BDE8F08F4379827803F0FD03012BB1
:10436000F4D13B789A427ED0FF2B7FD1012D07F804
:10437000012B09D023686168187804221844C047CB
:10438000012D42D00125E0E76168DFF804A1052294
:10439000C0478346BBF1000FECD09BF802208DF89C
:1043A00002209BF803208DF803209BF805109BF852
:1043B0000420314B02EB012292B2ADF80420BDF88B
:1043C0000420D2B289F80420012289F800209DF847
:1043D00002009DF80310BDF8042092B2984700280F
:1043E00047D19DF802209DF802001306C0B24CBFD1
:1043F000B071F071D047C4F800B09BF8000061685C
:104400001E4B584498478346C4E71D4B00205D74FB
:104410009EE785682AB113685B7903F0FD03012BE1
:1044200094D12B79A879FF2B1CBFFF232B716B79BB
:10443000FF2B1CBFFF236B71FF2803D0114B984744
:10444000FF23AB71E879FF2803D00E4B9847FF2379
:10445000EB710B4B002058747AE76FF01A0077E786
:104460006FF00C0074E76FF0110071E76FF01B0044
:104470006EE76FF013006BE709870200D35202006A
:10448000EC0800206D870200B9520200401900209C
:104490009987020008B50A4B984701280CD80948AB
:1044A000094BC0E90630094B1430984701200849F0
:1044B000084B9847002008BD6FF01000FBE700BFD5
:1044C0008DC30200EC0800202543000035C3020024
:1044D00000000020ADC2020010B4074C6072A1724F
:1044E000E2722373A07904F10901044C0023A4466D
:1044F00004225DF8044B6047EC08002055BF020021
:104500001FB5044B01A99879034B984705B05DF896
:1045100004FB00BFEC080020C188020010B40A466A
:10452000044C01460448A446C0795DF8044B0023BE
:10453000604700BF55BF0200EC08002010B50A46D6
:1045400020B1012809D06FF00C0010BD054BD879BF
:104550000221054B98470020F7E7024B022198798A
:10456000F7E700BFEC0800208189020070B5002445
:104570000A4B01710546448148000E469847234680
:1045800028602246D9B28E4203D8AA812A8100200F
:1045900070BD20F813200133F4E700BF2D2F030076
:1045A0002DE9F0410A4B0B4EDFF82C800546000147
:1045B0000F46984700243060A54202D10020BDE894
:1045C000F0813068394600EB0410C0470134F3E74E
:1045D0002D2F03000C3400206D4500002B4B2DE9DE
:1045E000F0470D461968040101EB00130E5993F8CA
:1045F000048000242746A446A2464FF6FF792046B1
:104600005FFA84FEF04532D82918B0FBF8F080B28A
:10461000A84234BF0FFA8CF43CB2C2F1100236F853
:10462000140026F81450081A5D891979B0FBF1F0CE
:10463000D1B284B244FA01F22D1B92B201248A4015
:1046400004FA01F11C89002D96B2B8BF6D42B44244
:104650001AD08D4205DCC1F57F41FF31B14200DB4C
:1046600096B9588101201E819881BDE8F08736F8FF
:1046700014108A453CBF77468A468945084484BF62
:10468000F44689460134BBE70020EEE70C340020F5
:10469000044B1B6803EB00108089003818BF012011
:1046A000704700BF0C340020034B1B6803EB001065
:1046B00000238381008970470C340020264B9842E8
:1046C000F7B5044602D1254B2A209847244B606851
:1046D000244E984741F66B130025E55441F65117D7
:1046E00041F65213FF2204F5CA50E2540221E2556A
:1046F0001B30B04704F5CA50E25D02211930B047C3
:1047000041F6671304F5CA561336E15C164B019166
:10471000304698470199154B024630469847144B4E
:10472000E56120469847C4E9095504F5DE7304F5B0
:104730008A521C32194603F8015B9342FBD104F103
:104740002C03002203F8012B8B42FBD16068094B3C
:1047500003B0BDE8F0401847ECB10020653D030010
:10476000C999020005970000499800007D98000053
:10477000ED9300009D99020038B541F66B130025BA
:10478000C55404460A4BC561C0E90955984704F56C
:10479000DE7304F58A521C32194603F8015B93421A
:1047A000FBD12C34002304F8013B8C42FBD138BDF3
:1047B000ED9300000F4A002310B502301370A0F8EB
:1047C000EE3320F8021CA0F8E833A0F8EA33A0F892
:1047D000EC33A0F8F033A0F8F233A0F8F4331C4621
:1047E0009AB2914201D8012010BD00F8014B01336B
:1047F000F6E700BFBD320020B0F8EA33B0F8F2238C
:1048000093429BBF0088C018981A801A80B27047E4
:1048100010B50C4B0446984788420BD9B4F8F233D4
:1048200020880B44B3FBF0F200FB1233A4F8F433FE
:10483000084610BD044A13780133DBB2137000211F
:10484000F6E700BFF9470000BD320020B0F8F633AC
:10485000C2180133917001889BB2B3FBF1F201FBE6
:104860001233A0F8F633012070470000B0F8F4339B
:10487000B0F8F623934217BF054AA0F8F233137835
:10488000013317BFDBB2012013700020704700BF57
:10489000BD3200202DE9F04F2DED028B02F108030F
:1048A0008FB09046DB086A46A2EBC30302AF9D4679
:1048B0000023826A04460DF108094FF47A601E460F
:1048C00099B2884500F24981002309F808304D4625
:1048D0004FF47A609C4699B2884500F24C8142447C
:1048E000B2FBF0F300FB1322C4E909220023DFF836
:1048F00030A3DFF804B323620126B04519D919F8B3
:104900000630012B07D1A8EB060850461FFA88F89D
:1049100009EB0605D84719F806300A2B40F0358117
:1049200008F1FF339E4280F23081B248B24B984783
:10493000B0462B783B61012B414640F0CB8205EB22
:10494000080313F801ACBAF10A0F40F0C382AB4B75
:10495000AB4E28469847414678622846B0477A6A67
:104960008242834640F0AB826B780F2B40F05E8131
:104970004FF00003DFF8ACB287F82F30022207F1C6
:104980002F0306212846D84707F12F03F86002229B
:1049900008212846D84707F12F03B86002221421C6
:1049A0002846D847C3B27B60022207F12F030E21AD
:1049B0002846D847C3B23B62A3F17F06022207F123
:1049C0002F0310212846D847C3B2FB617F3B5146D5
:1049D00002224FFA83F9284607F12F03D847C3B2C2
:1049E000BB617F3B5BB27B62022207F12F030C218C
:1049F0002846D847C3B23A697B61A3F17F0A1221E6
:104A000007F12F032846D84741F6501376B2E35CEE
:104A1000184400F0030208EE102A4FFA8AFA73B124
:104A2000012B40F0B5807A69FB69D7F824A0C2F168
:104A30007F02C3F17F0352B2B1467A625EB241F6A1
:104A4000691341F66A12E15CA25C786A7F327F31B9
:104A50005AFA82FA56FA81F359FA82F950FA81F138
:104A60007A68C9B279625FFA8AFB02F1010AD7E972
:104A700007120A43DBB25FFA89F95FFA8AFA0FD0AC
:104A800007F12F023A620E2100925E4E0222284662
:104A9000B0473B6A009302224B4610212846B0479C
:104AA000D7E9052313430FD007F12F0600967B6A41
:104AB000DFF8509102220A212846C84700965B463B
:104AC00002220C212846C84707F12F06DFF834914F
:104AD00000965346022214212846C84718EE103A81
:104AE0000096012212212846C84741F6501300962D
:104AF000E35C132101222846C8477B6A3E7B42487B
:104B000003EB06260BEB06233E7A06EB0326314623
:104B10003E4B9847002840F0CB80394B4146284611
:104B2000984704F5AA543A4B0246414628461434A5
:104B30009847384B414620469847002800F0B880F7
:104B4000DFF8E490A844A8454FD1334B204698475E
:104B50002D48324B31469847AAE09D18B5FBF0F13D
:104B600000FB1151214491F8BC5109F8035081F820
:104B7000BC610133A4E69E18B6FBF0F100FB1161A5
:104B80002144013381F8BCC1A5E60136B6B2B4E6D2
:104B9000022B13D13B6AC3F17F06FB69C3F17F0986
:104BA000BB69C3F17F035BB27B627B69C3F17F0AA0
:104BB00076B24FFA89F94FFA8AFA40E7032B0DD102
:104BC0003B6AC7F824A0C3F17F02BB69C3F17F032E
:104BD0004E464FFA83FA4FFA82F930E74FF0000A57
:104BE000C7F824A0D146564629E715F8011B2046F0
:104BF000C847A8E7FF8903004993000061980000B7
:104C000049980000A5980000944D0020B998000034
:104C10007D980000114800006D480000D398000006
:104C2000EC8903008D9800004D4800000E2B40F0E9
:104C30004281AB78182B3BD8AA4ADA40D20737D446
:104C4000072B3ED141F66B1614F806A0BAF1000FFF
:104C500034D1637AE978C91A06314B4203F0030371
:104C600001F0030158BF594241F65013A8F10A0060
:104C7000E154524602219C4B2844984741F64C137C
:104C8000E0503B69A3559948994BC4F81CA098473C
:104C9000322398480093FF2253465146964CA04732
:104CA0009448964BFE2198479248954B642198472B
:104CB0003437BD46BDEC028BBDE8F08F0023E361C5
:104CC000F6E7082BF4D1DFF820920022022105F14B
:104CD0000800C84700225FFA80FA0221A81DC847D1
:104CE00041F66B135FFA80FBE35C002B40F0898098
:104CF00041F65113E25CFF2A4DD1824A8248904727
:104D0000824A8348904741F6511300F07F0204F530
:104D1000CA50E25402217F4B1930984741F667127E
:104D200004F5CA531333A15C396218467B62B0475D
:104D3000D7E9081302461846774B984741F65213B5
:104D4000E25C5A451AD004F5CA505A4604F803B03A
:104D50000221704B1B30984704F5CA5B41F667137C
:104D60000BF1130BE15C79625846B0476A4B796AE4
:104D70000246584698476948624B984741F6511396
:104D8000E35C53450ED066485E4B984741F6681386
:104D90000122E2548CE7BBF1FF0FCFD1594B6148A0
:104DA0009847CBE7627AEB789B1A06335A4202F0B7
:104DB000030203F0030358BF534241F65012A8F117
:104DC0000A00A354022100222844C84741F64C138C
:104DD0000122E05041F66B134448E254444B464DE7
:104DE0009847322300930023FF2219464148A847E1
:104DF0004048424BFE2198473E48414B642198472A
:104E0000C4E7627AEB7841F651119B1A0633605C75
:104E10005A4241F6521102F00302615C03F00303AF
:104E200058BF534241F65012504508BF5945A25C45
:104E30000CBF4FF0010A4FF0000A934214BF4FF02D
:104E4000000A0AF0010AA8F10A0041F64C130022F8
:104E50000221284454F803B0C847584503D1BAF199
:104E6000000F7FF425AF41F66B130022E25441F6A8
:104E7000511841F65213FF2204F5CA50E254254D51
:104E800004F8082002211B30A84704F5CA5014F882
:104E9000082002211930A84741F6671304F5CA55C6
:104EA0001335E15C79622846B047796A1A4B0246AD
:104EB00028469847FCE61C480D4B9847F8E62946DB
:104EC0001A4B1B487A6298477A6A1A48084B594627
:104ED0009847EDE61848064B98471848134B294663
:104EE00039E600BF40002001DD960000108A030073
:104EF00049930000C8CB0020C9700000616E00001B
:104F0000056E0000693E0300188A03009B960000AE
:104F1000944D0020059700007D980000288A03002A
:104F2000308A0300208A0300388A0300A53C03006E
:104F30004F8A0300568A0300718A0300808A0300A7
:104F4000F7B5037E012B044616D100250576564B96
:104F500098475648564B984732232A46554800935F
:104F6000FF212B46544DA8475248544BFE219847E9
:104F70005048534B64219847266A002E32D163680B
:104F8000F3B1E269B2F57A7F3ED941F66B134D4D2C
:104F9000E35C012B2DD1464B4B4898472046A84750
:104FA00032234448009332463346FF21424DA847FE
:104FB0004048424BFE2198473E48414B6421984768
:104FC0004FF4F57040F69F774FF47A6640F69E7C7A
:104FD000626AA31893F8BC310A2B18D1002301226E
:104FE000C4E90732D4E90921914253D302F6A172F0
:104FF00051E0A36A23B9636A13B92046A847DFE7E3
:1050000032482B4B9847F8E70132E261D8E7002B92
:105010003BD0A16ABA4208BFB1FA81F301F1FF3E69
:1050200001F69F71B1FBF6F506FB151121440CBF8B
:105030005B090023724591F8BC1101D003B9C1B1DD
:105040002046194B1C4C9847214B22489847322345
:10505000009300231A461748FF21A0471548174B15
:10506000FE2198471348164B642103B0BDE8F04079
:105070001847624500F1FF3098BF013280B2E3610A
:1050800094BF626263620028A2D1236A002BA9D177
:1050900003B0F0BD0132521A0F4B92B289B22046D2
:1050A000984700232362F3E7BD4600008B8A030084
:1050B00049930000C8CB0020C9700000616E000059
:1050C000056E000079470000988A0300AD8A03004E
:1050D000693E0300C28A030095480000B0F8EC1353
:1050E000B0F8EE338B42F0B5024600D0FEE7B0F8E0
:1050F000EA63B34200D0FEE7B0F8F273BE4216D0C6
:1051000005880024A3B29D4200D8FEE73019B0FB09
:10511000F5F105FB110188B2874208D01144013333
:1051200098B28B780A2B04F10104EBD1F0BD00207A
:10513000FCE7B0F8EC23B0F8EE339342F0B500D0C2
:10514000FEE7B0F8EA53AB4200D0FEE7B0F8F263F6
:10515000B54220D001880024A3B2994200D8FEE7CE
:105160002F19B7FBF1F201FB127297B2BE4212D0B7
:1051700087180133BF780A2F9BB204F10104EBD1E9
:105180000132B2FBF1F401FB1422A0F8EC23A0F8E9
:10519000F0331846F0BD0023FBE7B0F8EE33B0F86B
:1051A000EC13994210B502460BD01488C118013394
:1051B0009BB28878B3FBF4F104FB1133A2F8EE3311
:1051C00010BDFEE7B0F8EC23B0F8EE33934200D008
:1051D000FEE7A0F8EA330120704700002DE9F04314
:1051E000044600F58A5087B0DFF84C810D461C302C
:1051F0004FF47A711F461646C04704F5AA504FF483
:105200007A711430C04700209DF838302060014684
:10521000A3726772034665602672A0812062E2185D
:105220000133B3F5C87F82F82C10F8D100231D4656
:10523000E2180133B3F57A6F82F8BC51F8D141F628
:105240004C1341F6501141F651106554E55041F6AA
:105250006B130122FF27E254275441F65210964265
:10526000275441F66810255457D1E55465542C4B0A
:105270002C4894F80990984704F5CA58042308F17B
:105280001308CDE904735FFA89F9072332462649EA
:10529000CDF80490CDE90207DFF8A09000934046D6
:1052A0000E23C847214B4046984741F66713C0B2CA
:1052B000E054404614F80390E15C1D4B98475FFAB8
:1052C00089F91C4B0246494640469847637A112BA0
:1052D00008D141F66913E55441F66A13E65407B064
:1052E000BDE8F083637A122B06D141F66913E654C8
:1052F00041F66A13E554F2E7637A132B06D141F6BF
:105300006913E55441F66A13E754E8E7637A142B0E
:10531000E5D141F66913E754EAE7E254DFE700BF5D
:1053200069970000944D0020CB8A03003953030095
:10533000499800007D980000B547000061430300D4
:105340002DE9F34700261C4D1C491D4800960124F9
:1053500011230122A8474FF00209224619491A4891
:1053600000941223A8470327224618491848CDF86D
:1053700000901323A847DFF868800097224615495C
:1053800015481423A8474FF0FF0A3A46134FCDF8AB
:1053900000A0334631464046A8473346CDF800A02A
:1053A0004A4631463846A84741F66B1308F8034091
:1053B000FC5402B0BDE8F087DD510000A4D100200C
:1053C0005019002050D10020ECB10020A8D20020BC
:1053D0006C7E002058D200204C5C0020E09700201A
:1053E000143400202DE9F04F00F5AA5891B008F1CF
:1053F000140802AF5C4B7960064640469847054664
:10540000002800F0AF80594BBB60594BFB60594BF3
:105410003B61594B7B61594BBB61594BFB61EB467F
:1054200007F108034FF00609002441F66B1153F809
:10543000042B505C38B107F1380000EB84000134D4
:1054400040F8182CE4B209F1FF3919F0FF09EED148
:105450004C4A494607F1200A41F25C1CC8B284421A
:1054600005D8494B40469847A84247D0FEE75AF82E
:105470002100B04201D17B68B3B160449047A8429B
:10548000404A41F25C1C0FD2404B4148414C984786
:10549000FF230022404800931146A047DD464846BE
:1054A0003C37BD46BDE8F08F0131D7E75AF82900F7
:1054B000B04201D1796829B1184429469047374A4A
:1054C00041F25C1309F101095FFA89F18C42EDD8D0
:1054D0004FF0000A1FFA8AF39D42404616D8304B1F
:1054E000DFF8C890984707F12005002141F25C18C9
:1054F000CBB29C422CD84FF00109CFE7274A4FF09E
:10550000000907F1200A41F25C13DDE7254B9847BB
:105510004FF00009014607F1200341F25C1C5FFADD
:1055200089F0844202D80AF1010AD3E753F829002E
:10553000B04201D17A6842B11B4B39606044984750
:10554000396807F1200341F25C1C09F10109E6E723
:1055500055F82100B04201D17B680BB14044C847E7
:105560000131C5E781469AE7DD500000501900205F
:10557000ECB100206C7E00204C5C00201434002034
:10558000E0970020F947000033510000693E030016
:10559000E58A0300C9700000C8CB00201148000054
:1055A000C55100009B5100004D4800006D480000AF
:1055B0002DE9F04F00F58A551C35824BEFB00646B9
:1055C00028469847044610B96FB0BDE8F08F06F141
:1055D0002C0301931A4606F5DE71002302F8013B05
:1055E0008A42FBD1CDE96A33CDE96C332846764B4C
:1055F000DFF800B2DFF800929847DDF804A04FF022
:1056000000081FFA88F39C42284619D86F4B704D4A
:1056100098474FF0000844466B9A1FFA88F39A4265
:1056200018D86C4B6C4F06A8984700240546AC422E
:10563000214640F0BF80694B06F12C009847C3E734
:10564000D8470746014606A8C84708F101080AF8E6
:10565000017BD6E706AA13449B7E022B04D15FFA96
:1056600088F408F10108D7E7032BFAD10CB900241C
:10567000F7E70122214606A8A84701235FFA80F92F
:105680000422214606A8A847C0B2B9F1000F2AD1CA
:105690000E28ECD121460223052206A8A847214660
:1056A00083460223072206A8A8472146C7B2022341
:1056B000092206A8A8470B2282462146022306A8F3
:1056C000A8473B0947EA0B078DF810308DF8117099
:1056D0008DF812A08DF813000498414B9847049858
:1056E000404B9847C3E7B9F1910FC0D10E28BED106
:1056F00002230722214606A8A84702235FFA80FB5F
:105700000522214606A8A847002702905F45AED291
:10571000E1190123092206A80391A84703995FFA1A
:1057200080FA01230A2206A8A8470399814602238A
:105730000B2206A8A847BAF1010F039920D85FFAF7
:1057400089F39DF808208DF811A0022B0DF11009A6
:10575000DFF894A089F8023089F80000C9F8042025
:1057600008D1012389F8023099E80300D0470023CB
:1057700089F8023099E80300D0470437FFB2C5E743
:10578000BAF10F0F12D103230A2206A8A8474FF43B
:105790007062ADF8102080B2002204AB8DF81220A8
:1057A000059093E80300104B9847E6E70F4B10482D
:1057B0009847E2E706A8B847019B03F8010B0134BC
:1057C000019334E7DD50000033510000C551000063
:1057D0004D840000958300001B8500001D580200C9
:1057E00045A900006DA9000055AA0000693E03000C
:1057F000F28A03009B510000CD8400002DE9F04F98
:105800002DED028B00F58A54ADF5737D1C34964B5B
:105810004FF0000A2046CDF814A098470C9028B904
:105820000DF5737DBDEC028BBDE8F08F8F4BCDF88D
:1058300098A04FF4C672514627A898478C4B8D4FBD
:105840002046984726AE55460C9AABB29A4220465F
:1058500049D8894B894E984700240DF15203022202
:10586000062126A88DF85240B0470F909DF83C3095
:105870000B9302220DF152030E2126A8B047C3B2AA
:10588000049302220DF15203102126A8B0470DF116
:10589000520302220A21C5B226A8B047C3B2109310
:1058A00002220DF152030C2126A8B047C3B2119376
:1058B00001220DF15203122126A8B047C3B213935F
:1058C00001220DF15203132126A8B047C3B20A9357
:1058D000049B7F2B0BD1A5F17F014B424B410493DD
:1058E0000794254609E0B84770550135ACE7049B9D
:1058F0004BBBB5FA85F56D0907930023CDE90D3350
:105900008DF8533006931C46049B43EA050B079B16
:1059100043EA0B03DBB20893069B0DF1980813F8DA
:1059200008300993022B17D10D9B9DF818400133C5
:10593000DBB20D93069B0C9A01330693BDF8183029
:105940009A42E9D86CE7049B04942B40A3F1FF0230
:10595000534253410793C4E7099B032BEAD1002C20
:10596000E8D0DDE90D329B1A012B08EE103AE1D1A7
:1059700013460133601CDBB20999DFF818910E93CE
:105980000DF153024044C847C5B2201D18EE101A4D
:105990000DF153024044C847302D2746C6B225D1E9
:1059A000601D0DF1530202214044C8470E2EC4B2BF
:1059B0000DD13348C379012B07D13249324B2246EE
:1059C00098473248324B214698470024B2E70D2EC3
:1059D000FBD1109B7F2B02D1119B7F2BF5D0284848
:1059E000037A002BF1D101230372E6E7002D57D093
:1059F000312D00F0A980852D00F0D580102D00F00C
:105A00001781402D40F06F810E2EDED1049B079A46
:105A100053EA02048ED026AB781D1E4E0DF15302C0
:105A200002211844B04726ABC4B2F81D0DF1530251
:105A300002211844B04726ABC5B207F109000DF1A9
:105A4000530202211844B04783B25B00FF2BDCBF36
:105A5000400000F0FE03104E1048C8BFFF232A4646
:105A60002146B047B1E700BFDD50000049300300D8
:105A7000335100009B510000C55100008D9800007B
:105A8000804D0020B8570020A1990000944D0020BF
:105A900051960000DD960000E96D0000C8CB0020A3
:105AA0000D2E92D1601D0DF1530202214044C847D2
:105AB0000746E01D0DF1530202214044C8470990FA
:105AC00004F109000DF1530202214044C847064683
:105AD00004F10B000DF1530202214044C847044673
:105AE000A24B8A954FF4C6722946E4B28BA8F6B24F
:105AF0009847FAB29DF824309D49019400969D4C38
:105B00008AA8A0479C4BDA68587A2C2303FB002014
:105B100005219A4B2C389847074600283FF455AF8B
:105B2000974E8AA8B0478AAB9649184407F11102EC
:105B3000A0478AA8B0478AAB1844194600F8035C0E
:105B4000914B9248984740E71BF0FF043FF4F2AEB8
:105B50000F2E7FF43AAF0022114600248C4B8AA806
:105B60009847824B19942E2221461AA89847099BE0
:105B7000884ACDE9005329460223874D19A8A84732
:105B8000864B874D19A98AA898470D2300930422B4
:105B900018EE103A21468AA8A847774B9B790093C4
:105BA0000522022362E10E2E7FF40FAF089C002C29
:105BB0003FF4C0AE26AB781D0DF15302042118440A
:105BC000784B98470021694B8A910446C4228BA8E0
:105BD0009847A4B226AB07F1090119442246724B3B
:105BE0008AA898477149724B06228AA898470546A9
:105BF000C0B9E61E8AAB9B5D202B13D18AAB234430
:105C000013F8022C3F2A0DD113F8013C3E2B09D189
:105C1000684B694821468AAA98478AAB0DF22E2123
:105C20009D558DE7634B65488AAA21469847CCE687
:105C3000601D0DF1530202214044C84710F0FF04DB
:105C40003FF478AE012C36D1109B119A0A997F3B14
:105C50007F3ADBB2D2B289B9AAEB03034FFA83FAD7
:105C6000059B9A1A53B20593554B059A83F839A0B0
:105C700083F83A20139A83F83B20A6E60A99012973
:105C800007D1AAEB02024FFA82FA059A13445BB2DB
:105C9000E9E70A99022905D153444FFA83FA059B93
:105CA0001A44DFE70A990329DED152444FFA82FAF7
:105CB000059AD31AEBE703067FF587AE404D6B7963
:105CC00023B901236B713F483F4B98473F4B3C48FA
:105CD0009847FF2C284BA8604FF0000406BF012214
:105CE000DA71DC7126E6412D76D10E2E7FF46DAE91
:105CF000049B079A53EA02043FF41CAE26AB781DBE
:105D0000284D0DF1530202211844A84726AB064640
:105D1000F81D0DF1530202211844A84726AB804616
:105D200007F109000DF1530202211844A84726ABE0
:105D3000814607F10B000DF1530202211844A847D8
:105D400026AB044607F10D000DF153020221184461
:105D5000A847E4B2C0B2019000941D481D4C5FFA00
:105D600089F35FFA88F2F1B2A0472EE649300300CA
:105D7000148B030061430300804D0020FD9D000053
:105D800039530300528A030081B90000C832002051
:105D9000858400004F8B0300C1420300A9830000EB
:105DA00069840000DD9600006D5303005B8B0300E7
:105DB00049530300A53C0300628B0300748B03006E
:105DC000944D00208D8B0300693E03009B960000DC
:105DD000C8CB0020696D0000112D4BD10F2E7FF430
:105DE000F4AD1BF0FF043FF4A5AD9C4E1022002142
:105DF00015A8B0479A4B15A8984700220024994B44
:105E000011468AA898472E2221461AA81994B0470D
:105E10000323CDE90053944A944D0223312119A85C
:105E2000A8470D26924B934D19A98AA8984701239C
:105E3000042221468AA80096A847159B00930522B4
:105E4000082321468AA8A847169B009332460823B8
:105E500021468AA8A847179B0093152208232146AC
:105E60008AA8A847189B00931D22082321468AA8C8
:105E7000A84735E0142D3AD10F2E7FF4A6AD1BF0C4
:105E8000FF0F3FF4A2AD002200241146754B794E5E
:105E90008AA89847714B19942E2221461AA8984730
:105EA0000323CDE90053744A704D0223312119A810
:105EB000A8476F4B714D19A98AA898470D230093E5
:105EC0000422012321468AA8B0472B6800930522AB
:105ED000082321468AA8B0472B682B682B682B68BB
:105EE000674B8AA89847674B8AA8984722E5122DE6
:105EF0002AD10F2E7FF469AD1BF0FF043FF41AADD9
:105F0000002211460024574B8AA89847534B1994F6
:105F10002E2221461AA898470323CDE900535A4A56
:105F2000524D0223312119A8A847514B514D19A9AF
:105F30008AA898470D2300930422012321468AA8AA
:105F4000A8474E4B1B792AE6132D13D10E2E7FF452
:105F50003CAD049B002B3FF438ADBFF34F8F4B4952
:105F60004B4BCA6802F4E0621343CB60BFF34F8F20
:105F700000BFFDE7632D31D10E2E0DD11BF0FF04C4
:105F80003FF4D8AC3D4B43494348FF229A740B9AE7
:105F9000DA74424B984718E50C2E7FF416AD1BF0CF
:105FA000FF043FF4C7AC002211462E4B3C4C8AA89C
:105FB0009847032300932B46304D334902228AA889
:105FC000A047EB7C374C022205218AA8A047AB7C76
:105FD0000A23012204218AA8A0475BE1612D2BD16D
:105FE0000E2E0CD11BF0FF043FF4A4AC234B294927
:105FF0002948FF229A730B9ADA732B4BCAE70C2EAF
:106000007FF4E3AC1BF0FF043FF494AC0022114694
:10601000144B1A4D224C8AA8984703231A4900931F
:10602000022261238AA8A047EB7B1E4C0222052195
:106030008AA8A047AB7BCBE7622D56D10E2E37D175
:106040001BF0FF043FF476AC0C4B12491248FF22C0
:106050001A740B9A5A74154B9CE700BF4930030021
:106060003D970000858400009D8B0300C142030022
:10607000A983000069840000C78B0300944D0020B1
:1060800051850000318600004F8B030000ED00E0D9
:106090000400FA05804D0020B85700200D8E000046
:1060A000E183000025840000E18F0000759100006D
:1060B0000C2E7FF48AAC1BF0FF043FF43BAC0022B3
:1060C0001146A04BA04DA14C8AA898470323A04994
:1060D0000093022262238AA8A0476B7C9D4C022277
:1060E00005218AA8A0472B7C72E7602D40F06081D3
:1060F0000F2E2DD11BF0FF033FF467AC04F10B0111
:10610000954F00230222C9B226A8B84704F10D0119
:10611000C6B200230222C9B226A8B8470F34C5B2BE
:106120000023E1B2022226A8B847FF2D08BF8B4BFF
:106130008B4908BF5D7A8B4C08BF05F1FF35C0B2B3
:1061400008BFEDB200902B4632468448A0473CE49D
:106150000E2E40F0D980089F4FF00009002F3FF429
:1061600034AC814BDFF8F08183F84590611D4B46DC
:106170000222C9B226A8C047E11D06464B460222AC
:10618000C9B226A8C04704F109014B4605460222C0
:10619000C9B226A8F6B2C047012E744B40F08280E7
:1061A000EDB2022D7ED1C0B201287BD17048DFF85C
:1061B000A891984704F10B0100230222C9B226A836
:1061C000C84704F10D01099000230222C9B226A894
:1061D000C84704F10F01C5B200230222C9B226A8A4
:1061E000C84704F11101002312900422C9B226A865
:1061F000C847FF2D04BF594B5D7AF2AB1C44A4F293
:106200001B341FFA80F908BF05F1FF3514F8093077
:1062100008BFEDB2032B61D1B9F5967F4FF00008AE
:1062200057D2402304F809800093FF231A46514EA9
:1062300051481946B047494A9DF824605379B34202
:1062400032D00027032304F80930002211463D4BC9
:106250003E4C8AA8984703233D49009302226023BD
:106260008AA8A0479DF83C503A4C2B4602220521B3
:106270008AA8A047012F3ED1334B00221A730B9AF4
:106280005A7304210A238AA83A46A0473B483C4B4C
:10629000294698473B4B8AA898473B4B8AA8984782
:1062A000FFF793BB394882E7D3689DF848102C204C
:1062B00005FB0030364B984705460028C1D0274AD9
:1062C000344B82F8078021469847334B284698473D
:1062D000B8E732482A4B98470027B6E7CDE90134A2
:1062E0009DF824109DF848302D4CCDF800902A469A
:1062F0002C48A047F0E78AA80B2301220421A047DD
:1063000029481F4B9847C5E70C2E7FF45EAB1BF066
:10631000FF043FF40FAB002211460A4B0A4D0B4C11
:106320008AA89847032321490093022260238AA860
:10633000A0476B7B074C022205218AA8A0472B7B34
:1063400046E600BF85840000944D0020E1830000F4
:106350004F8B0300258400008D980000804D0020A5
:10636000B8570020259E0000DC5B0020693E03003A
:10637000D98B0300C9700000C8CB0020478C0300F4
:10638000499300005185000031860000E58B030031
:10639000FD9D0000319A0000FD9F0000088C030065
:1063A000A53C0300188C0300518C03005E8C030095
:1063B000902D7FF40AAB0E2E7FF407AB1BF0FF0489
:1063C0003FF4B8AAF2ABD8190DF153020E4B0F4CA3
:1063D0000F4D0221A0F22B309847002284F845008F
:1063E00011468AA80B4B9847032300938AA80A49B1
:1063F00090230222A84794F84530084C0222052138
:106400008AA8A047E4E500BFDD960000DC5B002021
:10641000E1830000858400004F8B03002584000089
:106420002DE9F047878905461FBB00F58A561C36C3
:10643000114B304698470446A0B1104BDFF848A0F6
:10644000304605F12C089847C146AC81BBB29C424E
:10645000304609D80A4B9847AA896868094B4946CB
:1064600098470120BDE8F087D047013708F8010BB5
:10647000ECE70020F6E700BFDD50000033510000DC
:10648000C5510000794F02009B51000037B50E4BFB
:10649000054601A898470D4A6B09D90102EBC313C1
:1064A00051581A6A1C690A4B54400C4001A85440C8
:1064B00005F01F059847012000FA05F5254208BFA1
:1064C000002003B030BD00BFF1AC020000800041ED
:1064D000FFAC020000F01F0330B501259D404009CC
:1064E0000F4BC0010129ACB24FEA1542034408D05A
:1064F000022944F0804442F040420ED05D609C622C
:1065000009E044F0804444F4003442F040425D60CD
:1065100042F400329C629A6230BD9D60EFE700BF9A
:106520000080004100F01F0201294FEA5010144B77
:106530004FEAC0100AD0022914D00344134493F840
:10654000402002F0FB0283F8402070470344914052
:106550001A44596092F8400040F0040082F840006C
:10656000996170470344012191401A44596092F89F
:10657000400040F0040082F840005961704700BFBD
:10658000008000412DE9F04F0021A5B0C0E90011C5
:10659000C0E90211A34BA44CA44DA54F10220646FE
:1065A00007A89847A34BA44AA449A548DFF8C4C24A
:1065B000DFF8C4E2CDE90B23A24B0D9303F128537E
:1065C00003F5003303F2FA230E939F4BCDE90F132B
:1065D0009E4BCDE911039E4BCDE913439D4BCDE975
:1065E00015539D4B179303F1A85303F5A01303F222
:1065F0000223189303F140331993984B984DCDE93A
:106600001A7303F1614303F5620303F204431C931D
:1066100003F1806303F5783303F5F1731D93914B18
:10662000914FCDE91EC303F1424303F5842303F2E6
:10663000222320938D4BCDE921E303F1644303F53D
:10664000003303F5A17323930BAB03930123039A48
:1066500012F8014B0392EF2C41D8642003F162023F
:10666000B2FBF0F100FB112124AA11440193B3FB0A
:10667000F0F200FB123224AB1A4411F864BC12F899
:1066800064AC01212046A84702212046B847784B38
:1066900020469847002181462046A84700212046F1
:1066A000B847019BB9F1000F1FD019219C1E24A8E7
:1066B00094FBF1F200EB820001FB1242D2B2012105
:1066C00001FA02F250F8741C0A4340F8742C079A3D
:1066D0003260089A7260099AB2600A9AF2600133D5
:1066E000652BB4D125B0BDE8F08F0121204602937F
:1066F000A84701212046B8475D4B204698474946A8
:1067000001902046A8472046B847DDE90123002A2A
:10671000CBD0BBF1EF0F41D9BAF1EF0FDFD8012198
:1067200020464FEA5A1802934FEAC818A847022198
:106730002046B84708F1824802215046A84708F58C
:10674000004801210AF01F0B01FA0BFB484AC8F868
:1067500018B020469047012181462046A8470121D4
:106760002046B84702215046A847414AC8F814B00D
:1067700020469047019B0021002808BF99462046EB
:10678000A84700215046A84700212046B847029B51
:10679000C8F814B0B9F1000FA1D086E70121204656
:1067A0004FEA5B1805934FEAC818A8470221204614
:1067B000B84708F1824802215846A84708F5004822
:1067C00001210BF01F0201FA02F2C8F81820284B31
:1067D000049220469847012102902046A8470121B3
:1067E0002046B84702215846A847049AC8F8142002
:1067F0001F4B049220469847DDE9012349460028B3
:1068000008BF134620460293A8475846A84720468B
:10681000B847049AC8F81420029A059B002A3FF44E
:106820007BAF42E7493003002A2B2C2D4A4B4C4DBD
:106830005455FEFD41424302230001402904050650
:10684000FEFD0809032425FE074546470A0BFDFE09
:106850002E2FFEFD4E4F0C0D0E0FFEFD303132334C
:10686000D56400003839585925650000FD1E1F3ECB
:106870008D640000FEFD3637FCF8FEF72DE9F04F81
:10688000214F224DDFF8ACA0DFF8AC8087B0044682
:106890001F48B8471F484FF0FF3343631E4B9847CC
:1068A00001461E48A847102200211D4B02A8984708
:1068B0001C4B02A89847059B009302991A48DDE9F2
:1068C0000323A8470026194B0A2098473146504613
:1068D000A8474FF000094FF0010B21680BFA09F2AD
:1068E0000A4214BF3120302009F10109C047B9F133
:1068F000200FF2D10E480136B847042E04F10404EB
:10690000E1D107B0BDE8F08F693E0300A53C03006C
:10691000D38C0300944D002069970000EA8C03009B
:10692000493003003D970000FA8C0300756F0200A8
:10693000BED703001E8D0300653D030008490B68A8
:1069400013B90848084B18470848026842F080729B
:106950000260074A002043F0010310600B6070479B
:10696000001000E0308D0300693E0300FCED00E004
:10697000041000E0004B18473D690000014B186807
:10698000704700BF041000E0F0B51D4D1D4B85B0F1
:10699000012422214FF400622846ADF800409847B8
:1069A000AB8FADF8043002940023174CADF80630DD
:1069B00001A92846CDF80CD0A04710B11348144BBC
:1069C0009847144E37686B88DA05FCD448F2010307
:1069D0000B48ADF8063001A9A04710B10B480C4B8D
:1069E00098476B88DB05FCD433689DF800100A4893
:1069F000DB1B7822B3FBF2F2084B984705B0F0BDE1
:106A0000D0D000201152020041520200568D0300E6
:106A1000693E0300041000E0618D0300A53C030003
:106A2000F0B51E4D1E4C85B00323ADF800304A2151
:106A30001C4B4FF4006228469847AB8FADF80430EA
:106A40000123029301A900232846ADF80630CDF8B2
:106A50000CD0A04710B11448144B9847144E376817
:106A60006B88DA05FCD448F201030C48ADF8063017
:106A700001A9A04710B10C480C4B98476B88DB0567
:106A8000FCD433689DF800100A48DB1B7822B3FB66
:106A9000F2F2094B984705B0F0BD00BFD0D00020FE
:106AA0004152020011520200568D0300693E03005C
:106AB000041000E0618D0300A53C030058B1837A07
:106AC000013383720023C372037C0BB90123037467
:106AD000014B1B68C3607047041000E030B5F0B193
:106AE0000F49C3680A68C47AD21A00EB84035D6E4A
:106AF00015445D665D69954200D805B95A61DD6B44
:106B0000954238BFDA63082C9CBF0134C472037C01
:106B1000C27A9A4224BF013303740B68C36030BD4C
:106B2000041000E090B10A4BC2681B689B1AC27A3D
:106B300000EB8200426E1A44426642699A4200D8D3
:106B400002B94361C26B9A4238BFC363704700BF4A
:106B5000041000E060B100F1140200F13C010023D8
:106B600042F8043B8A425362D364F9D14381C36043
:106B70007047000010B5044648B1054B09229847FC
:106B8000002323742046034BBDE81040184710BD76
:106B90006D530300556B0000002380F8FE30021D8A
:106BA000FE3002F8013B8242FBD17047002380F89F
:106BB000FA3100F1FF0200F2F91002F8013B8242C3
:106BC000FBD1704710B500230360044B0146984782
:106BD000BDE81040024B0846184700BF996B000003
:106BE000AD6B0000014B01221A7070474C19002058
:106BF000F0B5047A8C423FD9FF2B4FF00C04466964
:106C00001E4D28BFFF234C43375955F82360B74228
:106C100008D0866901277754066A735455F82360B3
:106C200043691E51FF2A466928BFFF22231DF758DA
:106C300055F82260B74208D0866901277754C669A3
:106C4000725455F822604269D650BDF8143042693A
:106C5000FF2B28BFFF230834165955F823209642EE
:106C600008D0826901265654426A535455F82320AD
:106C700043691A51002000E0FF20F0BDD8570020E2
:106C800010B5064C064B00F12C01204698472046D3
:106C9000044A054BBDE8104000211847F4D10020FC
:106CA000CD540200E56B000099540200F0B5067A5D
:106CB000C6EBC6035D0000240E27E3B29E4200D857
:106CC000F0BD836A032107FB04339A8922B1013A9C
:106CD00092B29A8102B99A725A7A93F80AC06244BF
:106CE0005A724A1E12F0FF012B44EED10134E4E740
:106CF00010B5047A8C420ED9022A0CD8806A04FBA3
:106D000002110E224A43811883549DF808304B70BB
:106D10009DF80C308B7010BD10B5047A8C420ED9E2
:106D2000022A0CD804FB0211826A0E2000FB012209
:106D3000D3709DF8083013719DF80C30537110BD5D
:106D400010B5047A8C420ED9022A0CD804FB021129
:106D5000826A0E2000FB012293719DF80830D371E6
:106D60009DF80C30137210BD2DE9F3471F46037ACE
:106D70009DF828809DF82C908B4204460D461646BF
:106D800028D9022A26D81423DFF854A0B9FBF3FC33
:106D9000CDF804C0B8FBF3FCB7FBF3F3CDF800C0AB
:106DA000D0474FEA590301934FEA58030093324604
:106DB0007B0829462046DFF82CA0D0472046074C08
:106DC0003B4632462946A446CDE90A8902B0BDE8D1
:106DD000F047604702B0BDE8F08700BF416D00009A
:106DE000F16C0000196D000010B5047A8C4208D9CE
:106DF000022A06D804FB0211826A0E2000FB01223F
:106E0000537210BD70B5074E04460B460025227A1A
:106E1000E9B28A4200D870BD00222046B047013551
:106E2000F5E700BFE96D0000037A8B4209D9022A19
:106E300007D803FB0211826A0E2303FB0122507A5A
:106E40007047704710B5047A8C4208D9022A06D8D8
:106E500004FB0211826A0E2000FB0122937210BD16
:106E600070B5074E04460B460025227AE9B28A42E5
:106E700000D870BD00222046B0470135F5E700BFBD
:106E8000456E000010B5047A8C4208D9022A06D853
:106E900004FB0211826A0E2000FB0122D37210BD96
:106EA00010B5047A8C4208D9022A06D804FB0211D4
:106EB000826A0E2000FB0122938110BD2DE9F04F64
:106EC00004460172CDB20C2068439030484EE06019
:106ED00085B0B04700F19003206107462A20636126
:106EE0006843B047A06207B100B9FEE72846B04743
:106EF000E06181462846B047206280462846B04778
:106F0000606207462846B047A06130B1B9F1000F72
:106F100003D0B8F1000F00D007B9FEE700231946EF
:106F20002269D1540133902BFAD10021314E0D4604
:106F3000237A8B4213D800221146207AD3B298428A
:106F400014D8DFF8B4B0DFF8B4A0DFF8B4800027BD
:106F5000237AFDB2AB4213D805B0BDE8F08F002311
:106F600000951A462046B0470131E1E7A069C154B7
:106F7000E069C154206AC154606A0132C154DCE73F
:106F800000260023F2B2CDE90033294620460392C1
:106F9000D8470023CDE90033039ADFF868902946EB
:106FA0002046D0470023CDE90033039A29462046E6
:106FB000C047039A002329462046C847039ADFF8B2
:106FC0004890002329462046C847039ADFF83C90A2
:106FD000002329462046C8470136039ADFF830903F
:106FE000002329462046C847032ECAD10137AFE700
:106FF0002D2F0300F16B0000F16C0000196D0000F3
:10700000416D0000456E0000E96D0000856E0000D6
:10701000A16E0000F7B5294E00234FF0006713F072
:10702000020F0CBF4FF000454FF0604513F0040F06
:107030000CBF4FF400244FF4602413F0080F45EA0E
:1070400004050CBF4FF400044FF4600413F0100F5C
:1070500045EA04050CBF4FF400644FF4606413F07C
:10706000200F0CBF4FF400424FF460422C4313F04A
:10707000400F44EA02040CBF08220E221443DA092E
:1070800014BFE0228022013322439BB23A43B3F57E
:10709000807F46F8042B08D1094B0190984701984E
:1070A000084B9847002003B0F0BD13F0010F14BF48
:1070B0004FF060674FF00067B1E700BFD85700207E
:1070C000BD6E0000816C00002DE9F04F87B0CDE966
:1070D0000323BDF84070DFF878B0DFF878A0DFF860
:1070E000788004460E460025237AE9B28B4202D806
:1070F00007B0BDE8F08F049B0193039B009300222F
:10710000334620460591D84700221346CDE9002298
:107110000599DFF848902046D0470022134605998C
:107120002046C04705993B4600222046C84705999E
:10713000DFF82C90FBB200222046C8470599DFF803
:107140002490FF2300222046C8470135CCE700BF2A
:10715000696D0000F16C0000856E0000A16E0000FA
:10716000E96D0000456E00002DE9F74F077A836A4C
:10717000DFF8CCC00026C7EBC7070E2505FB01359D
:107180007F004FF0030E3346324695F80B806C7A41
:10719000B8F1000F04D0B8F1010F41D1E443E4B2DB
:1071A000644495F803B094F8009294F8008195F83F
:1071B00000A094F800431BFB09FB0AFB08BB95F8F1
:1071C00006A00AFB04BA95F804B0524495F801A051
:1071D0001BFB09FB0AFB08BB95F807A00AFB04BAD6
:1071E00095F805B0534495F802A01BFB09F90AFB7A
:1071F000089895F8089009FB048426440EF1FF34A2
:1072000014F0FF0E3D44C0D1C6F34F260B4C009640
:10721000C3F34F23C2F34F22A04703B0BDE8F08F62
:10722000B8F1020F03D1E44344F3C014B7E7B8F157
:10723000030F08BF1CF80440B2E700BFF16B000069
:107240000800002038B5054D04460021237A8B4202
:1072500000D838BD2046A8470131F7E76971000022
:1072600010B5074B044600221A700648064B984793
:10727000A2892169E06A054BBDE81040184700BFAC
:107280004C190020F4D1002071540200794F020003
:1072900070B52D482D4E2E4C2E4DB0472E4B2F48FD
:1072A0004FF48042C3F81821A047E0B92C48A84702
:1072B0002C4B98472C48B0472C482D4B417A01392C
:1072C0000022C9B298472B4B98472B4B98472B4B22
:1072D000984722482A4B00219847BDE87040294929
:1072E00029482A4B18471D48A0470828DED01B48CC
:1072F000A047802803D12648A847264BD9E717483E
:10730000A0478828F7D01548A047402803D1224835
:10731000A847224BCDE71148A047C02803D12048F9
:10732000A847204BC5E70D48A047C128F7D00B4818
:10733000A047C82801D11C48F2E70848A047C9283F
:10734000F9D01A48A847B5E7798D0300693E0300D4
:1073500069970000A53C030000800041944D002087
:107360008B8D030099820000048E0300804D002065
:10737000AD9C0000415300004D9400006D9500004D
:107380005196000098D00020B85700208D8600004C
:107390009D8D0300C5760000AF8D03004D7F00007A
:1073A000C18D0300A57A0000D38D0300E88D030092
:1073B00002688368127A7F20C3E900220721002235
:1073C000C3E90222C3E90401C3E906227047026847
:1073D0008368127A7F21C3E900220022C3E90222D6
:1073E000C3E90412C3E90622704702688368117A70
:1073F0007F200022C3E90222C3E90402C3E9062276
:10740000C3E90812C3E90A20C3E90C224022C3E9F8
:1074100000119A6370477047704743689A69402328
:107420009363136B012B08D1D36A916A01335B1A02
:1074300003EBD3735B1053627047022BFCD1002324
:10744000F9E770477047704710B5044C0448A047EF
:1074500023460448BDE81040184700BFDD7702000E
:1074600024D10020F8D200202DE9F04F764A13787D
:107470008BB0144633B913780133DBB213700BB001
:10748000BDE8F08F0023ADF82430ADF826305378F6
:107490006E4A6F4F6F4808330021D65C6378DBB2C9
:1074A000F6B2D55C63780133DBB26370637803F0C6
:1074B00007036370637813F0010F674B4FF40022EA
:1074C00014BFC3F81821C3F81421637813F0020F16
:1074D000614B4FF4801214BFC3F81821C3F8142174
:1074E000637813F0040F5C4B4FF4001214BFC3F821
:1074F0001821C3F81421022309AAB84702230DF169
:10750000260256480021B8470023BDF82420ADF8D4
:107510001C30ADF820304EF66023EDB29A428DF863
:1075200018608DF819504FF0010305D97F228DF8AE
:107530001C208DF8203001E0C72AFAD9BDF826308A
:107540004EF66022934266D97F238DF81D300123C9
:107550008DF8213006AB039307AB0193404EDFF863
:1075600010B100230DF1200A0293039B3D4A13F84A
:10757000019B03931AF8013B0493019B04EB8908D8
:1075800013F8017BD8F80410019330464FEA8903C1
:1075900005939047334AD8F8041005463046904783
:1075A000314A90420AD93149304688472E4AA0F5DF
:1075B0001C30A0F58070C8F8040015462C4B4FF025
:1075C0002C08DB6819FB08F843449A69D3699F4289
:1075D0001AD0049B012B17D1244BD761304604925B
:1075E0009847059B049A23442D0958609561516979
:1075F000204B214D1FBB1769A1B99760DBF80C0028
:10760000032140449847A847029B43B100232370BD
:107610001A4B984733E7C72B9CD8002395E70123E3
:107620000293A2E7D2F80CC0A7EB0C0090FBF1F09C
:1076300091680144B942C8BF61469160DEE7002904
:10764000DCD1D168F9E700BF0C0900200804002054
:107650002177020024D1002000800041F8D20020D0
:10766000944D00209F960000007102009B96000040
:10767000804D0020FD9D0000F59F00004974000032
:1076800070B50B4C0B4E0C4D0C4B00221146204696
:10769000B0470022094B11462846B0472046084C07
:1076A0000021A047284623460021BDE87040184726
:1076B00024D10020A9760200F8D2002069740000CD
:1076C0006976020070B50C4B0C480D4E0D4D102123
:1076D00098470B480C4B112198470024E1B2022235
:1076E00030460134A847102CF8D1084B9847BDE824
:1076F0007040074B184700BF15700000C8CB002032
:10770000804D0020AD9C0000E998000081760000CB
:107710004974000010B5084B0848094C4FF400129A
:107720009A61084B9847084A0448A4460823BDE8D4
:10773000104002F10E0160470080004110D000208F
:10774000A583020005830200500900202DE9F04FB7
:10775000AC4BAD4F87B04FF400125A614FF00008A8
:10776000AA4B03934646F3B20593C6F34602A84BD1
:107770009C5C06F0010292001441E2B204929A1954
:10778000384692F81CA0039A12F8015B039203EBAF
:10779000850BA04BDBF82C1098479E4B0290DBF832
:1077A0002C10384698479C4B9842994B019304F013
:1077B0000F045FFA8AFA4FEA85090AD9974B3846CF
:1077C0009847A0F51C30944B0293A0F58070CBF83D
:1077D0002C00019B99443846D9F86C108D4B984782
:1077E0008C4B0090D9F86C10384698478A4B9842D9
:1077F0000AD98A4B38469847A0F51C30864B00932F
:10780000A0F58070C9F86C00544500F0A780019B7A
:10781000059A8349334414F0020F1C77814B1A7088
:10782000049BC4F3800E03F00102C4F340004FF048
:107830000A0300F0E080002A00F0E18003FB05135A
:1078400093F80890B9F1000F40F0948093F809C0C4
:10785000BCF1000F05D14FF0010C83F809C04FF0C7
:10786000FF394FF00A0B0BFB051B9BF801308BF81F
:10787000070073458BF808202AD001238BF80230CB
:10788000694B4FF02C0ADA6815FB0AFAA408524437
:107890008BF801409469614A38469047019B6169C1
:1078A00003EB8502029BD0621809A0619BF80100DE
:1078B0005E4ADFF87CB15C4B002878D17F20E06124
:1078C000002967D1A060D868032150449047D84769
:1078D000B9F1000F42D0DFF850B14FF02C0ADBF8BD
:1078E0000C3015FB0AFA534438469C694B4B9847B9
:1078F000474B009A03EB8505009BE8661B09B2F530
:10790000D07F636358D2012B38BF012340F271222C
:1079100003FB13239622B3FBF2F301334FF0FF3145
:10792000DBB201EB4303A26BE56A09FB03F9236BAE
:107930004A44D4E90910A263002B3FD18944814510
:1079400003DBA9454846A8BF28466062DBF80C0067
:10795000364B022150449847354B98470136102E3C
:107960007FF401AF334B00221A70334B07B0BDE8F0
:10797000F04F184793F80790B9F1000F3FD193F8F3
:1079800009C0BCF1000F7FF46CAF4FF0010983F820
:10799000099066E7D4E903CEAEEB0C0090FBF1F161
:1079A000A06801448E45B8BF6146A1608BE7002006
:1079B000E061002987D1F8E71923A7E7012BBDD0A3
:1079C000022BC3D17F2910DC002911DB3F2901DD07
:1079D00088F080084FFA88F3A3EB090303F306034A
:1079E0005B4203F07F036362B0E74FF07F08EFE78D
:1079F0004FF00008EEE712B903FB05135A724FF07F
:107A000000092EE700800041944D0020280400204A
:107A1000500900209F960000007102009B96000014
:107A20004CB10020BE320020804D0020FD9D0000A2
:107A3000F59F0000DC970020157700000F4B4FF4F6
:107A4000001210B55A610E4C9A604FF080429A6253
:107A50000C4A9A6203210C4B204698470B490C4B69
:107A6000204698470B490C4B2046984720460B4A26
:107A70000B4BBDE810400021184700BF00800041BB
:107A800010D00020200000C06983020040420F0097
:107A90002D830200C03200204D8402004D7700008B
:107AA0000984020070B5154B1548164E164D10216D
:107AB00098471448154B112198470024E1B203223E
:107AC00030460134A847102CF8D10022104B012079
:107AD00011461A700132102A58709970D9701871B5
:107AE00059719971D8711872597203F10A03F0D162
:107AF000084B9847BDE87040074B184715700000C9
:107B0000C8CB0020804D0020AD9C0000E99800000B
:107B10004CB100203D7A00001577000010B5044CF0
:107B20000448A04723460448BDE81040184700BF5A
:107B3000DD77020024D10020F8D2002000000000F0
:107B40002DE9F04F8E4A137889B033B91378013399
:107B5000DBB2137009B0BDE8F08F0023ADF81C3024
:107B6000ADF81E30874B88491A78884D8848DFF871
:107B70004CB2DFF84CA2DFF84C9208328E5C1A78D7
:107B8000D2B2F6B28C5C1A780132D2B21A701A787C
:107B900002F007021A701A7812F0010F7D4A4FF4B2
:107BA000002114BFC2F81811C2F814111A7812F08B
:107BB000020F784A4FF4801114BFC2F81811C2F8AE
:107BC00014111B7813F0040F724B4FF4001214BF02
:107BD000C3F81821C3F814210021022307AAA847DB
:107BE00002230DF11E0200216B48A847BDF81C00BE
:107BF000D84761A3D3E90023D047C8474FF6FF75A4
:107C0000A842074628BF2F46BFB28046ADF81C7079
:107C1000BDF81E00D84758A3D3E90023D047C84772
:107C2000E4B2854228BF0546A4F10803ADB2012B9A
:107C3000ADF81E5040F282800D2EDFF88CA140F28C
:107C4000C5800023ADF81430ADF818304EF660232F
:107C5000043E043C98458DF810608DF811404FF0BB
:107C6000010305D97F228DF814208DF8183002E029
:107C7000B8F1C70FF9D94EF66023984264D97F2333
:107C80008DF8153001238DF8193006AB0193434E62
:107C9000DFF8189105AB0DF1100B00934FF00208BF
:107CA000019B1BF8015B1A465AF8251012F8013B9C
:107CB0000293009B019213F8017B00933046384BEE
:107CC0009847374B5AF82510044630469847354BAD
:107CD00098420AD9344A30469047A0F51C30314BBF
:107CE000A0F580704AF825001C46304BDA682C233A
:107CF00015FB03F31A449169CA6997421BD0029A93
:107D0000012A18D1284ACF61304603930291904747
:107D100002994AF8250024098C614869244A254CB7
:107D2000039B2FBB0F69B0B98F60D9F80C000321FA
:107D300018449047A047B8F1010F09D1104A002319
:107D400013701D4B984705E7C7289ED8002397E777
:107D50004FF00108A4E7D1F80CC0A7EB0C0595FB88
:107D6000F0F588682844B842C8BF60468860DCE700
:107D70000028DAD1C868F9E77B14AE47E17AF03F12
:107D80001034002059CB0020490400202177020044
:107D900024D1002000800041F8D20020944D002022
:107DA0009F960000007102009B960000804D00200D
:107DB000FD9D0000F59F00001D7B0000210F0300CA
:107DC000F50F0300A5150300000A0020012C9CBF3D
:107DD000ED43ADF81E50424DE968EA684FF02C03C0
:107DE00004FB032206FB031392699B6992F814803B
:107DF0001A7D9CBFFF43ADF81C70BDF81C10394FB5
:107E00003046B847BDF81E1042462046B84706AB7C
:107E1000354F8DF818608DF8194000934FF0020926
:107E2000009B13F8014B00935AF824102F4B38464F
:107E300098472E4B5AF824100646384698472C4B44
:107E4000984209D92B4B2A4E38469847A0F51C304A
:107E5000A0F580704AF82400EB684FF02C0814FB62
:107E600008F843442046D3F818B0234B984780B312
:107E7000204B360938469847CBF81860DBF8146079
:107E80004AF824000C2EA8BF0C261C4B204698470D
:107E9000012EB8BF0126DBF80C20DBF810400121D1
:107EA000C6F1100301FA03F3A41ADB439BB2444367
:107EB000C0EBC01094FBF3F4B0FBF3F3E868CBF82D
:107EC0001C3014440E4BCBF80840404498470D4BEF
:107ED0009847B9F1010F3FF431AF4FF001099FE727
:107EE000804D0020DD450000944D00209F9600004D
:107EF000007102009B96000091460000A946000018
:107F0000FD9D0000F59F000070B50B4C0B4E0C4D15
:107F10000C4B002211462046B0470022094B114667
:107F20002846B0472046084C0021A0472846234653
:107F30000021BDE87040184724D10020A976020036
:107F4000F8D20020417B0000697602002DE9F04163
:107F5000124B134D134F052110209847124B134815
:107F60000C2198470F48124B0D21984700242E46AC
:107F7000E1B2012238460134A847082CF8D1094D56
:107F80002146013402222846E4B2B0470C2CF7D136
:107F9000084B9847BDE8F041074B1847A145000042
:107FA000AD9C0000804D002015700000C8CB002063
:107FB000E9980000097F00001D7B000010B5044C0B
:107FC0000448A04723460448BDE81040184700BFB6
:107FD000DD77020024D10020F8D20020000000004C
:107FE0002DE9F04F864A137885B0144633B91378DB
:107FF0000133DBB2137005B0BDE8F08F0023ADF89C
:108000000C30ADF80E3053787E4A7F4D7F48DFF854
:1080100034A2DFF83492DFF8348208330021D75CD1
:108020006378DBB2FFB2D65C63780133DBB2637096
:10803000637803F007036370637813F0010F744BE8
:108040004FF4002214BFC3F81821C3F81421637839
:1080500013F0020F6E4B4FF4801214BFC3F81821B7
:10806000C3F81421637813F0040F694B4FF4001226
:1080700014BFC3F81821C3F81421022303AAA84788
:1080800002230DF10E0200216248A847BDF80C0042
:10809000D04759A3D3E90023C847C0474FF6FF751F
:1080A000A84228BF2846ADF80C00BDF80E00D04706
:1080B00051A3D3E90023C847C047A84228BF284698
:1080C000ADF80E00544B554898470828F6B209D130
:1080D000BDF80C30DB43ADF80C30BDF80E30DB439F
:1080E000ADF80E304E4DDFF86881E968EA682C2360
:1080F00006FB032207FB031392699B6992F8149015
:10810000BDF80C101A7D3846C047BDF80E104A461F
:108110003046C0470023DFF804818DF808708DF8E1
:1081200009600DF1080A00931AF8017B04EB870936
:10813000BB00D9F80410019340463A4B9847394B9D
:10814000D9F80410064640469847374B984209D95B
:10815000364B354E40469847A0F51C30A0F5807050
:10816000C9F80400EB684FF02C0917FB09F94B44E0
:108170003846D3F818B02E4B984788B32B4B3609A6
:1081800040469847BB00CBF81860DBF814602344E6
:108190000C2EA8BF0C265860264B38469847012E57
:1081A000B8BF0126DBF80C70C6F110030121DBF823
:1081B000106001FA03F3F61BDB439BB24643C0EBAE
:1081C000C01096FBF3F6B0FBF3F3E868CBF81C3075
:1081D0003744194BCBF8087048449847174B9847D9
:1081E000009B23B100232370154B984703E701231D
:1081F000009399E7AFF300807B14AE47E17AF03F3C
:10820000440A0020690400202177020024D10020C4
:1082100000800041F8D2002069970000944D0020B2
:10822000804D00209F960000007102009B96000088
:1082300091460000A9460000FD9D0000F59F00004A
:10824000BD7F0000210F0300F50F0300A5150300FB
:10825000DD45000070B50B4C0B4E0C4D0C4B002255
:1082600011462046B0470022094B11462846B04728
:108270002046084C0021A047284623460021BDE89F
:108280007040184724D10020A9760200F8D20020BF
:10829000E17F00006976020070B50E4B0E4E0F4D67
:1082A0000521102098470E4B0E48102198470A4888
:1082B0000D4B112198470024E1B2012230460134D0
:1082C000A847102CF8D1094B9847BDE87040084BDF
:1082D000184700BFA1450000804D0020AD9C000064
:1082E00015700000C8CB0020E998000055820000FE
:1082F000BD7F00001FB500228DF80F200DF10F0289
:108300000B460092024C04220221A04704B010BD8B
:10831000A59800001FB500228DF80F200DF10F0267
:108320000B460092024C02220621A04704B010BD69
:10833000A59800001FB500228DF80F200DF10F0247
:108340000B460092024C02220A21A04704B010BD45
:10835000A59800001FB500228DF80F200DF10F0227
:108360000B460092024C02220C21A04704B010BD23
:10837000A59800001FB500228DF80F200DF10F0207
:108380000B460092024C02220821A04704B010BD07
:10839000A5980000D0E96432D0F89801134418443D
:1083A0007047D0F89401704770B504460B4B0846EF
:1083B0000D469847D4F894210023834208D11A44EB
:1083C000C4F89421D4F89C211344C4F89C3170BDA6
:1083D000E1181144EE5C8E760133EEE73953030069
:1083E0000EB433B5044605AAD0F8940152F8041B24
:1083F00001921A30094B20449847D4F89451084B05
:1084000005F11A0020449847C4F89C012844C4F898
:10841000940102B0BDE8304003B07047F569030035
:108420003953030070B4D0F89441D0F89C51651BC7
:1084300001F11A04164654FA85F41A4631462044CE
:10844000014B70BC184700BF0597000020B401F134
:108450001A05154419462844024B5DF8045B0022B6
:10846000184700BFDD96000020B401F11A0515443D
:108470001946019A024B28445DF8045B184700BF77
:108480000597000030B50023C0E96433C0E96633C6
:108490000A4B1B7D85B01725CDE90225CDE90031BA
:1084A00004460749074D01220F23A847064B2046E3
:1084B0009847C4F8900105B030BD00BF944D00202E
:1084C000158E03006143030039530300D0F8942153
:1084D0006AB9172915BFD0F890318176C1540123AC
:1084E0001ABF0133C0F89031C0F894317047D0F80A
:1084F00098316BB9042905D0831801329976C0F8F8
:108500009421704780F88B110123C0F8983170478F
:10851000C218013382F88B11F7E7D0F890218A4214
:1085200001D9405C7047D0F8943113448B4203D991
:10853000891A0844807E7047D0F898211A448A42EC
:1085400083BFC91A401890F88B01FF2070470000C4
:10855000F8B50446D0F898012D492E4D2E4E00F264
:108560008B1004222044A847D4F8987107F28B108E
:108570002044B047D4E9643138440B44274FC4F851
:108580009801191889B2264B20469847397D254B0A
:108590002046984797F8BD10234B2046984797F8F8
:1085A000BD300133DBB287F8BD30D4F890312146BD
:1085B0002344002299421FD1D4F89431234404F17A
:1085C0001A011A3399421BD1D4F89801231804F2E6
:1085D0008B1103F28B13994216D100F28B101349C1
:1085E0002044A847D4F8985105F28B102044B04796
:1085F0002844C4F89801F8BD11F8010B4240D9E7AE
:1086000011F8010B4240DDE711F8017B7A40E2E707
:10861000C48B03006143030039530300944D0020D1
:10862000F58200007583000015830000368E03007C
:108630002DE9F8430F4B064698470F4B044681B28D
:108640000E48984778B9BDE8F88329463046B847C0
:1086500001464046C8470135A542F6D10748084BB8
:1086600098470120EFE7074FDFF81080DFF81890F8
:108670000025F1E7958300001148000068490020BB
:108680006D4800001B8500004D48000000230122BA
:10869000C0E90533838301608280037203747047ED
:1086A0002DE9F04F544204F00704224494B287B0FD
:1086B000E31DDB086A46A2EBC302A2EBC30300AFD3
:1086C0009546EA469D4600238146EB461A4698B2F7
:1086D00084421AD801F51023FB60F9682D4DD9F8B2
:1086E000000023465246A847F968D9F800002A4DF1
:1086F00023465A46A8474FF000081FFA88F5AC42B7
:1087000009D81C37BD46BDE8F08F0AF803200BF8E6
:1087100003200133DBE71BF80830002B36D0F96863
:108720001AF808201D481E4E4144B0471D4B1E48F4
:108730009847FB68E90803EBC1010A23BB60154EAB
:10874000D9F800007960082307F110020025C7E975
:108750000455B0477968D9F800000F4E082307F197
:108760001002B047796807F11003082213F8010BD3
:1087700008B10135EDB2013A12F0FF02F6D12DB188
:10878000BB68013B13F0FF03BB60D8D108F10108BF
:10879000B3E700BFC97F02005D7F02003C8E03008B
:1087A000A53C030049930000728E03002DE9F047B9
:1087B0009A46130203EB01438469064688469146B4
:1087C0005344002744B3A57862782D0205EB024597
:1087D000E2781544AB421FD31CD02746E468F1E78A
:1087E000B38B0133C0E90347B3838FB9B06104B1E0
:1087F000206101230370089B8360BDF8243080F85A
:10880000018080F8029080F803A08380BDE8F087A3
:10881000F860ECE72046ECE7044B1420984700286A
:10882000DED10348034B9847FF20EFE72D2F0300CD
:10883000A18E0300693E03002DE9F04FADF50F7DD9
:108840000EADFF2304902B604FF4FE72684BDFF8EF
:10885000C081684E00210FA898470024A2464746D1
:1088600061020123D8F800002A4601F51021B04723
:108870002B78FF2B07D0631CB3F5607FA24640F036
:10888000B58040F27F3A0AF590614C024FF40073D4
:1088900038682A462146B0470023E95CFF29A3F146
:1088A000080205D00833B3F5007FF6D14FF4FC720F
:1088B000A4F50F21049B504C504EA1F6F8711144C1
:1088C00059616023002500934D4A07950223052135
:1088D00007A8ADF82050A0474FF4007303934FF45E
:1088E000102B0498434C00684FF400730EAA5946AD
:1088F000A0470EAB6F020293029B029C1B7822469C
:108900000132022B029260D1394B002110220AA8B9
:1089100009919847A7EB0B039BB2B3F5F67F08D9F3
:108920000498344C0068132309AA07F51021A047C6
:1089300009AC344B042207A9204698470346002877
:1089400043D10590022205212046B047059B814670
:10895000022207212046B0475FFA89F9059B80462D
:10896000022209212046B047B9F1010F07D15FFA71
:1089700088F8B8F1020F02D1C0B2012802D0224813
:10898000224B9847002302220B212046B0470023A8
:10899000059002220D212046B04700238046022286
:1089A0000F212046B0470023814604221121204692
:1089B000B04780B2CDE900709DF814101448154CF2
:1089C0005FFA89F35FFA88F2A047039B0137BB4245
:1089D00092D1013503F50073AA450BF5007B039393
:1089E000BFF47FAF0DF50F7DBDE8F08F1C4637E774
:1089F000493003005D7F0200C14203008D980000F2
:108A0000BA8E030049530300D28E0300499300003D
:108A1000B8570020AD87000010B5806900B910BDBF
:108A200044788C4205D18478944202D1C4789C4227
:108A3000F5D0C068F2E7836903B97047DB68FBE7EC
:108A40002DE9F04FADF5005D85B0074604A8002480
:108A500040F8044B494BDFF844B1DFF844A141F63C
:108A6000FC7221469847BE6925464FEA453804EB1B
:108A70004530002E2BD0F378B27871780190B06831
:108A800000903F48D847B388191904AAB1F5005F90
:108A9000224432D2B168386801F51021D047B3883A
:108AA0001C44B388E31A03EB4533B360F668002E29
:108AB000DBD105F148014903324B3868039110229C
:108AC0009847314E03993868234604AAB04704EB0F
:108AD00045312E487961D84701352A4CADB205F1B0
:108AE00048014903B1F5801F42DB3846284B9847BF
:108AF0000DF5005D05B0BDE8F08FA4B2C4F50059D6
:108B00001C44A4F50054A4B2B4F5005F1FFA89F91F
:108B100004D92048204B03929847039AB1683868DB
:108B20004B4601F51021D04708F51021154B386848
:108B3000039110229847DFF85080039938684FF46A
:108B4000005304AAC04701350023ADB204AA194658
:108B500001339BB2B3F5005F02F8011BF8D1B16895
:108B6000386801F51021234604AA4944D04798E704
:108B7000386810220135A047ADB2B0E74930030094
:108B8000F68E030049800200C97F0200518F030066
:108B9000378A00001E8F0300693E0300A53C0300D6
:108BA0005D7F02002DE9F04F544204F007041444A5
:108BB00085B004F1070805464FEAD8036846A0EBE4
:108BC000C30302AF9D4602AB7B6000239E461FFAA3
:108BD00083FC6445604638D86B692344B3F5805FF5
:108BE00002D92C4B284698476969DFF8B4907A6817
:108BF0002868234601F51021C8474FEAD8086B467C
:108C0000A3EBC8039D460DF108090023FF215A1C60
:108C10009BB29C4226D86969DFF888802868DFF813
:108C200088A0DFF888B023464A4601F51021C047E6
:108C30004FF000081FFA88F18C42686916D8044486
:108C40000C376C61BD46BDE8F08F944537BF7E6838
:108C50007E6811F800C006F800C028BF06F800E0E2
:108C60000133B4E709F803101346D0E77A6819F81E
:108C70000130525C93420AD000F51020009201446A
:108C8000054E22465046B047044B5846984708F1D7
:108C90000108CFE7418A0000A53C0300499300008A
:108CA000C97F02005D7F0200768F0300AC8F030056
:108CB0002DE9F04F0024E7B006460F46904699464E
:108CC0002146394BDFF808B102944FF4C67203A86D
:108CD00098473649364DDFF8FCA06023022202A8EF
:108CE000D847009401230222052102A8A8470223A5
:108CF0001A460094072102A8A847009401230222E3
:108D0000092102A8A84700943B4602220B2102A891
:108D1000A8470094434602220D2102A8A847022238
:108D20004B460F21009402A8A84702A8D04702ABE7
:108D300070991844D84702A8D04702AB1D490322B6
:108D40001844D84702A8D0470422034611211FFA2D
:108D500080FA009402A8A8473046174D174CA84740
:108D60004B46424639461648A047164B04465246E3
:108D700002A930469847834664B9CDE9000A124CEF
:108D80000F484B4642463946A0473046A84767B091
:108D9000BDE8F08FA288A1680C4B30469847C4F814
:108DA00008B0A4F804A0F0E749300300BA8E03002D
:108DB000A5980000C48B0300378A0000198A0000C0
:108DC000B8570020A58B0000AD870000A1860000E9
:108DD000614303003953030070B58B88094E006866
:108DE0000C46896801F51021163B15311546B04730
:108DF000A3882B44002203F8152C2846024BBDE81B
:108E0000704018475D7F020039530300012343710E
:108E10004FF47F43C3807047407970472DE9F04F8E
:108E20004379EFB005468946002B45D0554B564C4B
:108E30001868564B02219847A047EB7995F80680B1
:108E400004900133DBB203930594012399F80920C0
:108E5000424534D828230093FF231A4619464C482C
:108E60004C4C4D4FDFF87481A0474C484C4B984711
:108E70004C4B0024012683F8456022464A4BBC74C3
:108E8000214606A8984703234849009302226323FA
:108E900006A8C04732460A23454E042106A8B0471B
:108EA00002220521FB7C06A8B047424B06A8984742
:108EB000414B06A898476C716FB0BDE8F08FD9F8A8
:108EC0000C204FF02C0A08FB0A2A00269AF82420CE
:108ED000B24204D808F101085FFA88F8B6E71BB17E
:108EE000039B9A424CD91E46059B9847049BC01A87
:108EF000324B9842E0D8DAF82830314F9AF80820FF
:108F000099F805102F484FF49E7404FB0634A37A99
:108F1000B847074610B38388A3B14FF0000B2A4B24
:108F2000CDF818B04FF4C672594607A89847274B9A
:108F300006AA394628469847254B06A92046984751
:108F400084F837B1A37A13B9224B20469847EE71C3
:108F5000013685F80680F6B20023B7E74FF4C672F3
:108F60000146194B069007A898471B4B06A92046B7
:108F70009847174B06A92046984784F83771E1E7D0
:108F80000023A7E7C83200207D6900008DCD0000D6
:108F9000C8CB0020C9700000944D0020C18F030091
:108FA00049930000DC5B0020858400004F8B0300A8
:108FB000258400005185000031860000C02709008B
:108FC000198A0000B857002049300300D98D0000ED
:108FD000319A0000FD9F0000B19B0000E18300007A
:108FE000F7B5012303747F224FF6FF7311460D4836
:108FF0000D4C00930023A0470A480C4B094D0C4F21
:10900000F8219847002426462B7AE1B28B4201D8FA
:1090100003B0F0BD7F230196009300222846B84795
:109020000134F1E7C8CB0020C9700000616E000078
:10903000F16C0000007C70472DE9F04FEDB0037C2F
:1090400002900F46002B41D0394CDFF8E8A0A04732
:109050004FF00008834603947B7A5FFA88F4A342BA
:1090600037D83448344B354C354D9847002211469B
:10907000344B04A898470323334900930222612309
:1090800004A8A047314C0A230122042104A8A847C0
:1090900002220521E37B04A8A8472D4B04A898478A
:1090A0002C4B04A89847029B2B4800251D742B4B82
:1090B00098472B4BA573012283F845207F2300930B
:1090C000FF232848284C1A461946A0476DB0BDE832
:1090D000F08FFB682C2202FB04344FF0000994F857
:1090E00024305FFA89F5AB4202D808F10108B3E7F2
:1090F000A36A4FF49E7202FB0535039B98471B4BF6
:10910000A0EB0B009842E1D895F8373163B1616864
:10911000AB7A227A4979164E05F10B000090504641
:10912000B047002385F8373109F10109D7E700BFBF
:109130007D690000B8570020378A0000E1830000F5
:1091400025840000858400004F8B0300944D00208F
:109150005185000031860000CF8F03004993000045
:10916000DC5B0020C8CB0020C9700000C0270900CC
:10917000B18C00002DE9F3414FF41023C3607F222E
:109180004FF6FF731146104D0093044600230F481D
:109190000E4EDFF84080A8470C480D4BF821984749
:1091A00000252F46337AE9B28B4204D8012323727B
:1091B00002B0BDE8F0817F23019700930022304682
:1091C000C0470135EEE700BFC9700000C8CB0020E2
:1091D000616E0000F16C0000007A70472DE9F043E9
:1091E000264DDFF8C480DFF8C490EBB004460E468D
:1091F000A8470746E368B3F5801F31D30025204B0D
:1092000025722A46294602A8984703231D491E4F66
:1092100000930222622302A8B8471C4FDFF8908017
:109220000A230122042102A8C047022205217B7CD7
:1092300002A8C047164B02A89847164B02A89847A9
:109240007279154B214630469847144B144898477D
:10925000144B3D74012283F845206BB0BDE8F083C8
:10926000A847C01B4045F8D8206810224FF41021B1
:10927000C847E36803F50053E360BBE77D6900007E
:10928000858400004F8B0300E1830000944D002093
:109290005185000031860000A1990000499300002B
:1092A000DE8F0300DC5B0020C0D401004980020097
:1092B00025840000C00100F1824000F50040012338
:1092C0008B400144436091F8402042F0040281F851
:1092D000402083617047437800EB8300436801338B
:1092E0004360704770B50022E8B0054611466846F5
:1092F0000E4B0F4C0F4E984768460F492023022211
:10930000A0470E23012268460421B047294668463B
:10931000A0470A4903226846A047094B6846984778
:10932000084B6846984768B070BD00BF8584000050
:10933000E183000025840000ED8F0300C48B03004F
:1093400051850000318600000FB430B59BB01EACD3
:10935000002154F8045B0A4B0191602202A898474F
:10936000009423462A466321064C01A8A047064BD9
:1093700001A898471BB0BDE8304004B0704700BF5B
:1093800049300300AD690300E592000030B56FF08D
:109390002B05848900F12C032D1A0022E9188C4238
:1093A00001D8828130BD03F8012BF7E70148024B59
:1093B000184700BF4C5C00208D9300000148024B11
:1093C000184700BF6C7E00208D9300000148024BBF
:1093D000184700BFECB100208D9300000148024BFC
:1093E000184700BF501900208D930000807A0301B8
:1093F00003F1824303F5204300211A6C22F002029C
:109400001A64014B184700BF2D7402000148024B3B
:10941000184700BF50190020ED9300000148024B8F
:10942000184700BFECB10020ED9300000148024B4B
:10943000184700BF6C7E0020ED9300000148024BEE
:10944000184700BF4C5C0020ED9300002DE9F0416F
:109450001C211D4CDFF8AC801C4F1D4E1D4D022001
:10946000A04710210220A0470C210220A04709217B
:109470000120A047184C194A01214046A047184A2C
:1094800001213846A047174A01213046A047164A15
:1094900001212846A047154C15494046A0471549CB
:1094A0003846A04714493046A04714492846A047EB
:1094B000134C4046A0473846A0473046A0472846B0
:1094C0002346BDE8F0411847B592000050D1002076
:1094D000A8D2002058D20020199A0200DD93000083
:1094E000CD930000BD930000AD930000F5990200FC
:1094F000904D0020687C0020D8970020F8CB0020F9
:109500009D990200A4D10020F7B54368847A0F46E4
:10951000196A104B0546283120461646984705F52E
:10952000DE710D4B2046984739460C4B2046984734
:1095300021460B4B01A89847019B01221E60204643
:10954000084B00219847084B00212046984703B05C
:10955000F0BD00BFBD730200AD730200E9730200ED
:1095600069740200857302002D74020010B5104A60
:10957000104C11484FF47A61A047104A10484FF43C
:109580007A61A0470F4A10484FF47A61A0470F4A0A
:109590000F484FF47A61A0470E4B002283F81F2337
:1095A00083F8202383F8212383F8222310BD00BFF2
:1095B0000D94000009950000501900201D94000032
:1095C000ECB100202D9400006C7E00203D94000042
:1095D0004C5C002000E100E0154B70B51B78154E87
:1095E000037100254FF0FF33FF2204468273C0E968
:1095F0000D3503730374837405600F4B3046984731
:109600000E4B3046984701230D4AE3820D4B0E491D
:109610002075C4E906230D4B6585C4E90813C823EA
:10962000A585657584F828306571A56070BD00BF9B
:10963000000C00401CD10020757902009D790200C9
:10964000000101010100C832646464C800C800322E
:10965000FF290BD10123C375002380F8293047F679
:109660007F7343857F2380F82C3070470329FCD813
:10967000012380F82D3043185A7E012AF5D1417517
:1096800080F82920C2755A7F80F82A2093F821207B
:1096900080F82B2093F82530E5E7006B7047006BCE
:1096A000401A7047036B0133036303685A1C1CBFE5
:1096B000013303607047A0F13003DBB2092B05D9F9
:1096C000A0F16103052B03D85738C3B21846704781
:1096D00011B108700023F9E70B46F7E7F8B5084F1A
:1096E000451E8C000026043C231D01D13046F8BDE8
:1096F00015F8010F1146B847A0400644F3E700BF34
:10970000B796000030B585B00A4B0C4605460A49AD
:1097100001A8984701AAC4F1080313440022D1B25A
:109720008C4201D805B030BD13F8011BA954013299
:10973000F5E700BF61430300F58F0300064B1B688C
:109740000360064B1B684360054B1B688360054B39
:109750001B68C36001207047FC61800010608000BE
:109760001460800018608000436B01332DE9F74FCF
:10977000064658D12E4C2F4B2F4FDFF8C8904FF490
:109780000055C4F888504FF48042C4F8A8304FF018
:109790004043C4F8A830C4F888204FF04022C4F8F1
:1097A000A820C4F8A8304FF40043C4F88430234BF9
:1097B000C4F8A830A3F18023C4F8A8300120C4F86D
:1097C0009450B8474FF0000AD346A8460120C4F889
:1097D0009880B84701A8C847D4F88020D4F8A030B2
:1097E000D4F890505D4015405D4001A8144B984757
:1097F0002B0441BF012303FA0AF343EA0B0B5FFA80
:109800008BFBBAF1070F07D04FF48045C4F898508E
:109810000120B847C4F894500AF1010ABAF1080FC0
:10982000D4D1C6F834B0706B03B0BDE8F08F00BF80
:109830000080004100200040756F0200008002405F
:10984000FFAC0200F1AC020010B500230246033960
:109850001846994200D810BDD45C01336040F8E747
:1098600007B5CB1E0DF1070202211844024B9847A1
:10987000C0B203B05DF804FBDD960000CB1E1844B7
:109880000221014B184700BF0597000010B40C4699
:10989000204411465DF8044B1A46014B184700BF9F
:1098A000DD96000010B50C46204411461A46014BC7
:1098B000984710BD0597000000F13C03BC3053F8F9
:1098C000042B8A4203D08342F9D100207047012043
:1098D000704790F8BC30013303F01F0380F8BC30B0
:1098E00000EB8300C163704738B5084B4360044602
:1098F0004172074B07480D4698472C20064B68439A
:1099000098470023E060237238BD00BF01000401C6
:10991000A53C03009D9003002D2F0300F8B50669B8
:10992000134F05461020B847044628B91148124B7A
:10993000984700242046F8BD0023C360838005605B
:10994000287D8000B847A0600028EFD0EB680BB1FD
:109950002046984736B923681C61EBE72379013329
:1099600023711646F268002AF8D1F460E2E700BFDE
:109970002D2F0300B1900300693E0300036900220C
:10998000D0B2013203B97047DB68F9E70069002300
:1099900000B97047DAB29142FBD0C0680133F7E7F3
:1099A0002DE9F84FDFF88090DFF880A090F805B03F
:1099B000427106460F4615464FF0000899F80930E7
:1099C0005FFA88F4A34205D83846124B31469847CF
:1099D000BDE8F88FD9F80C302C2202FB0434204665
:1099E000D047A8420C4B0FD90C4B2946204698472C
:1099F00068B90B480B4B9847E36913B129465846A1
:109A0000984708F10108D9E720469847E7E78368B7
:109A1000A361F1E70D8E00001D9900008D990000F3
:109A2000C8900300693E0300804D00207D9900002E
:109A30002DE9F0470B78E6B005460C46002B79D0AF
:109A4000837AD0F804A04F4E022B00F10B0722D1ED
:109A50004FF000094FF4C67249464B4BCDF80890C1
:109A600003A89847494B20469847A0F10308A21D38
:109A700004F808906B6846491B7A009202A81A46BF
:109A8000B047202304F8083002A94248424B9847C7
:109A900021463846B047AB7A012B4ED14FF0000932
:109AA0004FF4C6724946384BCDF8089003A8984742
:109AB000364B20469847A0F10308A21D04F80890F1
:109AC0006B6836491B7A00921A4602A8B0472023D9
:109AD00004F8083002A92F482F4B984721463846F2
