:10400000C856022099C502008BC502008DC502006A
:104010008FC5020091C5020093C502000000000098
:104020000000000000000000000000000156020037
:1040300095C50200000000003156020095560200AE
:1040400089C5020089C5020089C5020089C5020030
:1040500089C5020089C5020089C5020089C5020020
:1040600089C5020089C5020089C50200F1910200DC
:1040700089C5020089C5020089C5020089C5020000
:1040800089C5020089C5020089C5020089C50200F0
:1040900089C5020089C5020089C5020089C50200E0
:1040A00089C5020089C5020089C5020089C50200D0
:1040B00089C5020055630200816302006D7A020027
:1040C000757A02007D7A0200857A02008D7A0200FC
:1040D00089C5020089C5020089C5020089C50200A0
:1040E00089C5020089C50200000000000000000030
:1040F00000000000E575020035AB020045AB020090
:104100004DAB020055AB02005DAB02006DAB02008F
:1041100075AB02007DAB020089C5020089C50200B3
:1041200089C5020089C5020085AB0200C9AB020047
:10413000D1AB0200D9AB0200E1AB0200F1AB02004F
:10414000F9AB020001AC020009AC020099AC02001C
:10415000A1AC0200A9AC0200B1AC0200C1AC0200EB
:10416000C9AC0200D1AC020089C5020089C50200B9
:1041700089C5020089C5020000000000000000009F
:10418000157502001D750200257502002D750200CF
:104190000000000089C5020089C5020089C502002F
:1041A00089C5020089C5020089C5020089C50200CF
:1041B00089C5020089C5020089C5020089C50200BF
:1041C00089C5020089C5020089C5020089C50200AF
:1041D00089C5020089C5020089C5020089C502009F
:1041E00089C5020089C5020089C5020069CF0200A5
:1041F00079CF020089CF020099CF020089C5020061
:1042000089C5020089C5020089C5020089C502006E
:1042100089C5020089C5020059C5020069C50200AE
:1042200071C5020081C5020089C5020089C502006E
:1042300089C5020089C5020089C5020089C502003E
:1042400089C5020089C5020089C5020089C502002E
:1042500089C5020089C5020089C5020089C502001E
:1042600089C5020010B5054C237833B9044B13B14E
:104270000448AFF300800123237010BDD008002054
:1042800000000000C0F1030008B5034B1BB1034957
:104290000348AFF3008008BD00000000D4080020F0
:1042A000C0F1030010B40B78812B10D11A4B8A880F
:1042B00019799142194602D05B79934228D1096855
:1042C0000A780023154CA4465DF8044B6047C3F3FD
:1042D0004113012B1CD1104B8A881C7994421C4637
:1042E00002D05B79934213D14B78032B06D00B2B72
:1042F00008D06FF00C005DF8044B704708490023AC
:104300000122DFE74B88237200231A461946D9E7BA
:104310006FF00900EFE700BFEC08002099C702002A
:10432000F408002001292DE9F74F0D46144670D0FE
:10433000022900F09280002940F092808668DFF820
:1043400048811068DFF84491371D20B96FF00900EB
:1043500003B0BDE8F08F4379827803F0FD03012BB1
:10436000F4D13B789A427ED0FF2B7FD1012D07F804
:10437000012B09D023686168187804221844C047CB
:10438000012D42D00125E0E76168DFF804A1052294
:10439000C0478346BBF1000FECD09BF802208DF89C
:1043A00002209BF803208DF803209BF805109BF852
:1043B0000420314B02EB012292B2ADF80420BDF88B
:1043C0000420D2B289F80420012289F800209DF847
:1043D00002009DF80310BDF8042092B2984700280F
:1043E00047D19DF802209DF802001306C0B24CBFD1
:1043F000B071F071D047C4F800B09BF8000061685C
:104400001E4B584498478346C4E71D4B00205D74FB
:104410009EE785682AB113685B7903F0FD03012BE1
:1044200094D12B79A879FF2B1CBFFF232B716B79BB
:10443000FF2B1CBFFF236B71FF2803D0114B984744
:10444000FF23AB71E879FF2803D00E4B9847FF2379
:10445000EB710B4B002058747AE76FF01A0077E786
:104460006FF00C0074E76FF0110071E76FF01B0044
:104470006EE76FF013006BE7F98C0200C35802007F
:10448000EC0800205D8D0200A958020040190020B0
:10449000898D020008B50A4B984701280CD80948B5
:1044A000094BC0E90630094B1430984701200849F0
:1044B000084B9847002008BD6FF01000FBE700BFD5
:1044C000D1CB0200EC0800202543000079CB02008C
:1044D00000000020F1CA020010B4074C6072A17203
:1044E000E2722373A07904F10901044C0023A4466D
:1044F00004225DF8044B6047EC08002099C70200D5
:104500001FB5044B01A99879034B984705B05DF896
:1045100004FB00BFEC080020B18E020010B40A4674
:10452000044C01460448A446C0795DF8044B0023BE
:10453000604700BF99C70200EC08002010B50A468A
:1045400020B1012809D06FF00C0010BD054BD879BF
:104550000221054B98470020F7E7024B022198798A
:10456000F7E700BFEC080020718F020070B500244F
:104570000A4B01710546448148000E469847234680
:1045800028602246D9B28E4203D8AA812A8100200F
:1045900070BD20F813200133F4E700BF7537030026
:1045A0002DE9F0410A4B0B4EDFF82C800546000147
:1045B0000F46984700243060A54202D10020BDE894
:1045C000F0813068394600EB0410C0470134F3E74E
:1045D00075370300EC4900206D4500002B4B2DE999
:1045E000F0470D461968040101EB00130E5993F8CA
:1045F000048000242746A446A2464FF6FF792046B1
:104600005FFA84FEF04532D82918B0FBF8F080B28A
:10461000A84234BF0FFA8CF43CB2C2F1100236F853
:10462000140026F81450081A5D891979B0FBF1F0CE
:10463000D1B284B244FA01F22D1B92B201248A4015
:1046400004FA01F11C89002D96B2B8BF6D42B44244
:104650001AD08D4205DCC1F57F41FF31B14200DB4C
:1046600096B9588101201E819881BDE8F08736F8FF
:1046700014108A453CBF77468A468945084484BF62
:10468000F44689460134BBE70020EEE7EC49002000
:10469000044B1B6803EB00108089003818BF012011
:1046A000704700BFEC490020034B1B6803EB001070
:1046B0000023838100897047EC490020F7B5244B23
:1046C000244E04464068984742F64B730025C4E9DF
:1046D000095542F63177E55442F63273FF2204F56C
:1046E0003C50E2540221E2553B30B04704F53C50C7
:1046F000E25D02213930B04742F6477304F53C567B
:104700003336E15C144B0191304698470199134BC5
:10471000024630469847124BE5612046984704F51B
:104720009D53143304F51C523C32194603F8015BC7
:104730009342FBD104F12C03002203F8012B8B429E
:10474000FBD16068074B03B0BDE8F040184700BFDD
:10475000B99F0200199D00005D9E0000919E00001F
:10476000759900008D9F02000F4A002310B502309A
:104770001370A0F8EE3320F8021CA0F8E833A0F87C
:10478000EA33A0F8EC33A0F8F033A0F8F233A0F845
:10479000F4331C469AB2914201D8012010BD00F8B2
:1047A000014B0133F6E700BF9D480020B0F8EA3323
:1047B000B0F8F22393429BBF0088C018981A801A61
:1047C00080B2704710B50C4B0446984788420BD90D
:1047D000B4F8F23320880B44B3FBF0F200FB123341
:1047E000A4F8F433084610BD044A13780133DBB251
:1047F00013700021F6E700BFAD4700009D48002080
:10480000B0F8F633C2180133917001889BB2B3FB44
:10481000F1F201FB1233A0F8F633012070470000DB
:10482000B0F8F433B0F8F623934217BF054AA0F866
:10483000F2331378013317BFDBB20120137000206D
:10484000704700BF9D4800202DE9F04F2DED048BEF
:1048500002F108038FB09046DB086A46A2EBC3035F
:1048600002AF04469D460022806A0DF1080941F21C
:10487000883341F2B435944691B2884500F25581AF
:10488000002309F808304D4641F2883641F2B43C25
:104890009E469AB2904500F2558108EB0003B3FBA7
:1048A000F6F206FB1233C4E90933DFF844A3DFF85C
:1048B00018B3002323620126B04519D919F8063030
:1048C000012B07D1A8EB060850461FFA88F809EB20
:1048D0000605D84719F806300A2B40F03D8108F14B
:1048E000FF339E4280F23881B648B74B9847B046B6
:1048F0002B78012B414640F0798205EB080313F831
:10490000019CB9F10A0F40F07182B04BB04E2846BD
:104910009847414683462846B0478345824640F043
:104920005B826B780F2B40F069814FF00003A94E3A
:1049300087F82F30022207F12F0306212846B047BF
:1049400007F12F03F860022208212846B04707F13B
:104950002F03B860022214212846B047C3B27B60FF
:10496000022207F12F030E212846B047C3B23B6253
:10497000A3F17F0B022207F12F0310212846B04735
:10498000C3B2FB617F3B5BB249467B62022207F107
:104990002F032846B047C3B2BB61A3F17F0A0222AE
:1049A00007F12F030C212846B047C3B27B61A3F166
:1049B0007F09022207F12F0312212846B04742F651
:1049C00030734FFA8BFBE35C184400F0030208EEEF
:1049D000102A4FFA8AFA4FFA89F97BB1012B40F07D
:1049E000BE80FB697A69C7F824B0C3F17F03C2F1C6
:1049F0007F02D1464FFA83FB4FFA82FA42F649739F
:104A0000796AE25C7F325BFA82FB5FFA8BF308EE35
:104A1000903A42F64A735AFA82FAE35C7F3359FAC3
:104A200083F951FA83F65FFA89F33B617B6803F1FE
:104A3000010B5FFA8BF35FFA8AF209EE103A7A62A1
:104A4000D7E90723134397F80CB0F6B229D007F142
:104A50002F0ADFF8A091CDF800A05B4602220621C4
:104A60002846C84718EE903A02220E21CDF800A041
:104A70002846C847334602221021CDF800A0284618
:104A8000C84719EE103A02221421CDF800A028469A
:104A9000C84718EE103ACDF800A00222122128468D
:104AA000C847D7E9052313430FD007F12F06009617
:104AB0007B6ADFF8409102220A212846C847009607
:104AC0003B6902220C212846C8477B6A3A69397A39
:104AD000414803EB0B2302EB032301EB0326314692
:104AE0003E4B9847002840F01381394B41462846F9
:104AF000984704F52C543A4B024641462846343434
:104B00009847384B414620469847002800F00081DE
:104B1000DFF8E490A844A8454FD1334B204698478E
:104B20002D48324B31469847F2E01618B6FBF3F1A8
:104B300003FB116121444E5D09F8026001F805C0D4
:104B4000013299E61918B1FBF6F206FB1212224463
:104B5000013302F80CE09CE60136B6B2ACE6022B5B
:104B600014D13B6AC3F17F0BFB69C3F17F0673B2BB
:104B70007B62BB69C3F17F0A7B69C3F17F094FFA8E
:104B80008BFB4FFA8AFA4FFA89F937E7032B0DD1DD
:104B90003B6AD7F824B0C3F17F06BB69C3F17F033A
:104BA000CA464FFA83F973B27B6227E74FF00009D8
:104BB000CA46C7F82490CB4620E715F8011B2046CB
:104BC000C847A8E74F92030081980000759E000037
:104BD0005D9E0000A19E000054790020CD9E000043
:104BE000919E0000C547000021480000E79E00009C
:104BF0003C920300B99E0000014800000E2B40F0DB
:104C0000E780AB78072B40F08380DFF800B200220A
:104C1000022105F10800D84700225FFA80FA02213C
:104C2000A81DD84742F64B725FFA80F9A25C002AB1
:104C300074D142F6317B14F80B20FF2A1BD16F4A46
:104C40006F48904700F07F0204F53C5004F80B20B9
:104C50006C4B02213930984704F53C5B42F64772B1
:104C60000BF1330BA15C79625846B047796A664B09
:104C700002465846984742F63273E25C4A4517D0DE
:104C800004F53C504A4604F8039002215D4B3B304A
:104C9000984704F53C5942F6477309F13309E15C42
:104CA00079624846B047796A574B0246484698476A
:104CB00042F63173E35C534526D1627AEB789B1A56
:104CC00006335A4202F0030203F0030358BF534273
:104CD00042F63072A8F10A00A35402214B4B002285
:104CE0002844984742F62C730122E05042F64B7359
:104CF0004748E254474B484D984780230093002390
:104D00004648FF221946A84742F648730122E2545A
:104D10003437BD46BDEC048BBDE8F08F617AEA788C
:104D2000521A0632514242F6317042F6327C01F09C
:104D30000301205C14F80CC002F0030258BF4A4281
:104D400042F63071504508BFCC45615C0CBF4FF056
:104D500001094FF000098A4214BF4FF0000909F021
:104D6000010942F62C72A8F10A0054F802A00221AF
:104D700000222844D847504502D1B9F1000FC7D1CD
:104D800042F64B730022E25442F6317842F6327317
:104D9000FF2204F53C50E2541A4D04F80820022189
:104DA0003B30A84704F53C5014F808200221393064
:104DB000A84742F6477304F53C553335E15C796208
:104DC0002846B047796A104B0246284698479FE725
:104DD0001348144B98479BE729460E4B12489847B7
:104DE0001248104B5A465146984791E710480D4BD0
:104DF00098471048074B294695E600BFAF9C000036
:104E000054790020199D0000919E0000F19C000043
:104E100060920300F544030005760000084F01206E
:104E200068920300819800007F920300869203003D
:104E3000A1920300B0920300F7B5037E012B044654
:104E40000BD100230376454B454D984740230093F3
:104E5000FF2344481A461946A847236A63BB636880
:104E6000B3B1E369B3F57A7F3AD942F64B73E35CA9
:104E7000012B29D13C4B3D48394D9847374B2046B3
:104E8000984740230093FF2336481A461946A847FF
:104E900041F287364FF4F57141F2B435B44641F230
:104EA000883741F2863E636AE218525D0A2A1AD1B7
:104EB00000230122C4E90732D4E90921914242D3F7
:104EC00002F59C5209323FE0A36A13B9636A002BD2
:104ED000DED0254B26489847204B20469847D7E7F9
:104EE0000133E361D4E722B9236A002BE4D103B094
:104EF000F0BDA26A501E83420BD12046174B184CBE
:104F0000984740230093002316481A46FF21A047E4
:104F1000EDE7B34201D1002AEFD06244B2FBF7F0D3
:104F200007FB10222244525D002AE6D1734501F1AD
:104F3000FF3198BF013389B2E26194BF636262625C
:104F40000029B0D1D0E70132521A0A4B92B289B28D
:104F50002046984700232362C9E700BFBD460000F2
:104F600005760000084F0120F5440300BB920300C2
:104F7000DF92030049480000B0F8EC13B0F8EE33BC
:104F80008B42F0B5024600D0FEE7B0F8EA63B342C8
:104F900000D0FEE7B0F8F273BE4216D005880024B8
:104FA000A3B29D4200D8FEE73019B0FBF5F105FB36
:104FB000110188B2874208D01144013398B28B782E
:104FC0000A2B04F10104EBD1F0BD0020FCE7B0F89E
:104FD000EC23B0F8EE339342F0B500D0FEE7B0F822
:104FE000EA53AB4200D0FEE7B0F8F263B54220D0FE
:104FF00001880024A3B2994200D8FEE72F19B7FB1D
:10500000F1F201FB127297B2BE4212D0871801333F
:10501000BF780A2F9BB204F10104EBD10132B2FB3D
:10502000F1F401FB1422A0F8EC23A0F8F0331846A9
:10503000F0BD0023FBE7B0F8EE33B0F8EC13994273
:1050400010B502460BD01488C11801339BB2887882
:10505000B3FBF4F104FB1133A2F8EE3310BDFEE70D
:10506000B0F8EC23B0F8EE33934200D0FEE7A0F89E
:10507000EA330120704700002DE9F043044600F5B3
:105080001C5087B0DFF850810D463C304FF47A71E8
:1050900016461F46C04704F52C504FF47A71343041
:1050A000C04700209DF83830206041F28832A3725A
:1050B0006772034665602672A0812062E1180133A1
:1050C000934281F82C00F9D1002341F2B4311D46FE
:1050D00041F28832E018013393424554FAD142F646
:1050E0002C7342F6307142F631706554E55042F649
:1050F0004B730122FF27E254275442F63270964246
:10510000275442F64870255457D1E55465542C4B2A
:105110002C4894F80990984704F53C58042308F16A
:105120003308CDE904735FFA89F90723324626492B
:10513000CDF80490CDE90207DFF8A0900093404637
:105140000E23C847214B4046984742F64773C0B2EA
:10515000E054404614F80390E15C1D4B98475FFA19
:1051600089F91C4B0246494640469847637A112B01
:1051700008D142F64973E55442F64A73E65407B043
:10518000BDE8F083637A122B06D142F64973E654E8
:1051900042F64A73E554F2E7637A132B06D142F6DE
:1051A0004973E55442F64A73E754E8E7637A142BEF
:1051B000E5D142F64973E754EAE7E254DFE700BF7E
:1051C0007D9D000054790020F8920300895B030064
:1051D0005D9E0000919E000069470000B14B0300F6
:1051E0002DE9F34700261C4D1C491D48009601245B
:1051F00011230122A8474FF00209224619491A48F3
:1052000000941223A8470327224618491848CDF8CE
:1052100000901323A847DFF86880009722461549BD
:1052200015481423A8474FF0FF0A3A46134FCDF80C
:1052300000A0334631464046A8473346CDF800A08B
:105240004A4631463846A84742F64B7308F80340B1
:10525000FC5402B0BDE8F08779500000E45401200E
:1052600050190020905401204C1F0120E8550120C6
:105270000CC00020985501200C88002060EF002011
:10528000F44900202DE9F04F00F52C5891B008F1B9
:10529000340802AF5C4B79600646404698470546A5
:1052A000002800F0AF80594BBB60594BFB60594B55
:1052B0003B61594B7B61594BBB61594BFB61EB46E1
:1052C00007F108034FF00609002442F64B7153F82A
:1052D000042B505C38B107F1380000EB8400013436
:1052E00040F8182CE4B209F1FF3919F0FF09EED1AA
:1052F0004C4A494607F1200A42F23C7CC8B284423B
:1053000005D8494B40469847A84247D0FEE75AF88F
:105310002100B04201D17B68B3B160449047A842FC
:10532000404A42F23C7C0FD2404B4148414C9847A6
:10533000FF224148009200231146A047DD4648461F
:105340003C37BD46BDE8F08F0131D7E75AF8290058
:10535000B04201D1796829B1184429469047374AAB
:1053600042F23C7309F101095FFA89F18C42EDD8F0
:105370004FF0000A1FFA8AF39D42404616D8304B80
:10538000DFF8C890984707F12005002142F23C78E9
:10539000CBB29C422CD84FF00109CFE7274A4FF0FF
:1053A000000907F1200A42F23C73DDE7254B9847DC
:1053B0004FF00009014607F1200342F23C7C5FFAFE
:1053C00089F0844202D80AF1010AD3E753F8290090
:1053D000B04201D17A6842B11B4B396060449847B2
:1053E000396807F1200342F23C7C09F10109E6E744
:1053F00055F82100B04201D17B680BB14044C84749
:105400000131C5E781469AE7794F00005019002025
:105410004C1F01200CC000200C880020F449002003
:1054200060EF0020AD470000CF4F0000B9460300F9
:105430001293030005760000084F0120C5470000C5
:105440006150000037500000014800002148000072
:105450002DE9F04F00F51C553C35834BEFB0064667
:1054600028469847044610B96FB0BDE8F08F06F1A2
:105470002C0306F59D52019319461432002301F8BE
:10548000013B9142FBD1CDE96A33CDE96C3328462B
:10549000764BDFF804B2DFF804929847DDF804A0F9
:1054A0004FF000081FFA88F39C42284619D8704B29
:1054B000704D98474FF0000844466B9A1FFA88F3E6
:1054C0009A4218D86C4B6D4F06A8984700240546A1
:1054D000AC42214640F0BF80694B06F12C00984752
:1054E000C2E7D8470746014606A8C84708F10108A1
:1054F0000AF8017BD6E706AA13449B7E022B04D14F
:105500005FFA88F408F10108D7E7032BFAD10CB948
:105510000024F7E70122214606A8A84701235FFAE5
:1055200080F90422214606A8A847C0B2B9F1000FAD
:105530002AD10E28ECD121460223052206A8A8472D
:10554000214683460223072206A8A8472146C7B260
:105550000223092206A8A8470B22824621460223DD
:1055600006A8A8473B0947EA0B078DF810308DF8CD
:1055700011708DF812A08DF813000498414B9847D4
:105580000498414B9847C3E7B9F1910FC0D10E2859
:10559000BED102230722214606A8A84702235FFAAC
:1055A00080FB0522214606A8A847002702905F45F8
:1055B000AED2E1190123092206A80391A847039955
:1055C0005FFA80FA01230A2206A8A84703998146B8
:1055D00002230B2206A8A847BAF1010F039920D88D
:1055E0005FFA89F39DF808208DF811A0022B0DF1C8
:1055F0001009DFF898A089F8023089F80000C9F88E
:10560000042008D1012389F8023099E80300D0472B
:10561000002389F8023099E80300D0470437FFB22D
:10562000C5E7BAF10F0F12D103230A2206A8A84733
:105630004FF47062ADF8102080B2002204AB8DF8F8
:105640001220059093E80300104B9847E6E7104BB3
:1056500010489847E2E706A8B847019B03F8010BFA
:105660000134019334E700BF794F0000CF4F0000B1
:10567000615000009D880000E58700006B890000F4
:105680000D5E02000DB0000035B000001DB100003D
:10569000B946030020930300375000001D89000025
:1056A0002DE9F04F00F51C553C35ADF5737D8E4B63
:1056B0002846984700260C9018B90DF5737DBDE873
:1056C000F08F8A4B26964FF4C672314627A898472A
:1056D000874B884F2846984726AC0C9AB3B29A421B
:1056E000284667D8844B854D98474FF000090DF147
:1056F00052030222062120468DF85290A8470F90AF
:105700009DF83C300B9302220DF152030E212046EE
:10571000A847C3B2079302220DF15203102120467D
:10572000A847C3B20A9302220DF152030A21204670
:10573000A847C3B2119302220DF152030C21204657
:10574000A847C3B2129302220DF152031221204640
:10575000A847C3B21093079B7F2B2FD10A9BCDF88C
:105760002090A3F17F014B424B4106930023CDE9EA
:105770000D338DF8533005931C46069B43EA090907
:10578000089B43EA09030993059B0DF1980813F858
:105790000830022B28D10E9B9DF814400133DBB258
:1057A0000E93059B0C9A01330593BDF814309A4271
:1057B000EAD882E7B847A05501368EE7079B43B980
:1057C0000A9BB3FA83F9079B08934FEA591906938A
:1057D000CCE7079A0A9BCDF818901340A3F1FF027B
:1057E000534253410893C1E7032BDAD1002CD8D0A0
:1057F000DDE90D12A2EB010BBBF1010FD1D10A467D
:105800000132D2B2601C1946DFF824A10D92404447
:105810000DF153021393D047C5B2201D0DF1530271
:1058200059464044D047302D139B2746C6B229D154
:10583000601D0DF1530202214044D0470E2EC4B228
:1058400011D12F48C379012B09D12E492E4B224665
:1058500098472E482E4B214698470024A1E72D4813
:105860002D4B9847F9E70D2EF7D1119B7F2B02D1D5
:10587000129B7F2BF1D02248037A002BEDD101231C
:105880000372E2E7312D55D109F0FF04B9F1000FA1
:1058900087D00F2EE1D100221146204C13938AA805
:1058A000A04700242E222146104E19941AA8B04772
:1058B000139B1B4ACDE9005329460223194D19A811
:1058C000A847194B194D19A98AA898470D23009389
:1058D00004225B4621468AA8A847094B9B7900937E
:1058E0000522022330E100BF794F00009938030000
:1058F000CF4F00003750000061500000A19E000013
:105900004079002078830020B59F00005479002062
:10591000659C000042930300B9460300D58800004F
:1059200058930300114B0300F9870000B988000069
:10593000F19C0000852D40F0DB830E2E8DD1099C5B
:10594000002C3FF42EAF781D0DF15302042140448A
:10595000D04700219D4B8A910446C4228BA89847CA
:10596000A4B207F109019A4B224641448AA89847FC
:105970009849994B06228AA89847E0B9E51E8AAB58
:105980005B5D202B17D18AAB234413F8022C3F2AEE
:1059900011D113F8013C3E2B0DD18AAA21468F4B21
:1059A0008F4898478AAA002353550DF22E218D4B1C
:1059B0008D48984751E7894B8C488AAA21469847D9
:1059C0004BE7601D0DF1530202214044D04710F017
:1059D000FF043FF4E6AE012C0FD1079BA3F17F0239
:1059E000834B52B283F839200A9A7F3A52B283F835
:1059F0003A20109A83F83B202FE703067FF52DAF5E
:105A00007B4D6B7923B901236B717A487A4B9847A8
:105A10007A4B77489847FF2C794BA8604FF00004E9
:105A200006BF0122DA71DC71BBE6412D40D10E2E9A
:105A30007FF413AF069B089A53EA02043FF4B1AE19
:105A400026AB781D6F4D0DF1530202211844A84773
:105A500026AB0646F81D0DF1530202211844A84753
:105A600026AB804607F109000DF1530202211844CC
:105A7000A84726AB824607F10B000DF15302022125
:105A80001844A84726AB044607F10D000DF1530258
:105A900002211844A847E4B2C0B2019000945A48C9
:105AA0005A4C5FFA8AF35FFA88F2F1B2A047D4E663
:105AB000112D4DD10F2E7FF4D0AE09F0FF04B9F1B6
:105AC000000F3FF46EAE414E1022002115A8B047E2
:105AD0004F4B15A89847002200244E4B11468AA828
:105AE00098472E2221461AA81994B0470323CDE9DE
:105AF0000053494A494D0223312119A8A8470D26D0
:105B0000474B484D19A98AA89847012304222146EA
:105B10008AA80096A847159B0093052208232146D2
:105B20008AA8A847169B00933246082321468AA8D4
:105B3000A847179B00931522082321468AA8A84747
:105B4000189B00931D22082321468AA8A84735E008
:105B5000142D6FD10F2E7FF480AEB9F1000F3FF4FA
:105B60007CAE0022002411462A4B2E4E8AA898476C
:105B7000164B19942E2221461AA898470323CDE9E3
:105B80000053294A254D0223312119A8A847244B47
:105B9000174D19A98AA898470D23009304220123C1
:105BA00021468AA8B0472B68009305220823214686
:105BB0008AA8B0472B682B682B682B681B4B8AA8D8
:105BC00098471B4B8AA89847EBE500BF993803001C
:105BD000BD5B030064930300995B0300F54403007D
:105BE0006B930300BDBF0000A84800207D93030015
:105BF0005479002096930300B9460300AF9C00003F
:105C000040790020F19C0000084F0120097300003A
:105C1000519D0000D5880000A6930300114B03009E
:105C2000F9870000B9880000D0930300A189000023
:105C3000818A0000122D2CD10F2E7FF40EAE09F0B8
:105C4000FF04B9F1000F3FF4ACAD0022114600246F
:105C5000834B8AA89847834B19942E2221461AA871
:105C600098470323CDE900537F4A804D0223312119
:105C700019A8A8477E4B7F4D19A98AA898470D23DC
:105C800000930422012321468AA8A8477A4B1B7956
:105C900025E6132D13D10E2E7FF4DFAD069B002BCE
:105CA0003FF4DBADBFF34F8F7449754BCA6802F404
:105CB000E0621343CB60BFF34F8F00BFFDE7632D5E
:105CC00035D10E2E0FD109F0FF04B9F1000F3FF4CA
:105CD00068AD694B6B496C48FF229A740B9ADA7471
:105CE0006A4B9847B9E50C2E7FF4B7AD09F0FF0475
:105CF000B9F1000F3FF455AD00221146584B644CEA
:105D00008AA89847032300932B465B4D56490222ED
:105D10008AA8A047EB7C5F4C022205218AA8A047F5
:105D2000AB7C0A23012204218AA8A0475DE1612DF2
:105D30002FD10E2E0ED109F0FF04B9F1000F3FF460
:105D400030AD4D4B4F495048FF229A730B9ADA738E
:105D5000514BC6E70C2E7FF480AD09F0FF04B9F17A
:105D6000000F3FF41EAD002211463D4B484C8AA85F
:105D70009847032300932B463F4D3B4902228AA8B4
:105D8000A047EB7B434C022205218AA8A047AB7BAE
:105D9000C7E7622D2FD10E2E0ED109F0FF04B9F105
:105DA000000F3FF4FEAC344B36493748FF221A74DB
:105DB0000B9A5A74394B94E70C2E7FF44EAD09F0D0
:105DC000FF04B9F1000F3FF4ECAC00221146244B64
:105DD000294D2F4C8AA89847032323490093022278
:105DE00062238AA8A0476B7C2A4C022205218AA83C
:105DF000A0472B7C95E7602D40F04D810F2E53D1AD
:105E0000B9F1000F3FF429AD04F10B01244F002339
:105E10000222C9B226A8B84704F10D01C6B2002378
:105E20000222C9B226A8B84704F10F01C5B2002367
:105E30000222C9B226A8B847FF2D08BF114B12494C
:105E400008BF5D7A174C08BF05F1FF35C0B208BF27
:105E5000EDB200902B4632460A48A047FDE400BF51
:105E6000D58800009938030058930300114B0300B4
:105E7000F9870000B98800005479002000ED00E0A7
:105E80000400FA054079002078830020C1930000C7
:105E9000318800007588000095950000DD960000AF
:105EA000A19E00002DA400000E2E40F0D580099F79
:105EB0004FF0000A002F3FF4D0ACA94BDFF8088365
:105EC00083F845A0611D53460222C9B226A8C047E7
:105ED000E11D064653460222C9B226A8C04704F176
:105EE0000901534605460222C9B226A8F6B2C047A8
:105EF000012E9C4B7FD1EDB2012D7CD1C0B209287F
:105F000079D19948DFF8C0A2984704F10B0100232A
:105F10000222C9B226A8D04704F10D0100230222B3
:105F2000C9B2064626A8D04704F10F01C5B2002326
:105F30000222C9B226A8D04704F1110100238046ED
:105F40000422C9B226A8D047FF2D04BF874B5D7A33
:105F5000F2AB1C44A4F21B341FFA80FA08BF05F10F
:105F6000FF3514F80A3008BFEDB2032B5FD1BAF544
:105F7000967F4FF0000B55D2402304F80AB00093EF
:105F8000FF231A4619467A48DFF840B2D847774BC4
:105F90005A79F6B2B24230D00027032304F80A300F
:105FA00000221146734B744C8AA898470323734907
:105FB0000093022260238AA8A0479DF83C50704CB1
:105FC0002B46022205218AA8A047012F3BD16D4B09
:105FD00000221A730B9A5A7304210A238AA83A469C
:105FE000A0476948694B29469847694B8AA8984752
:105FF000684B8AA835E4684884E7DB682C2005FBF9
:1060000000305FFA88F1654B984705460028C3D0F9
:106010002146634B9847534B62489847624B28464A
:106020009847BAE76148594B98470027B8E7CDE948
:106030000134CDF800A05E4C5E485FFA88F32A4632
:10604000F1B2A047F1E78AA80B2301220421A0475F
:1060500059484E4B9847C8E70C2E7FF4FEAB09F029
:10606000FF04B9F1000F3FF49CAB00221146414BF5
:10607000444D414C8AA8984703235049009302227B
:1060800060238AA8A0476B7B3D4C022205218AA889
:10609000A0472B7B45E6902D7FF4DFAB0E2E7FF4DF
:1060A000DCAB09F0FF04B9F1000F3FF47AABF2ABBF
:1060B000D8190DF15302424B294C2F4D0221A0F269
:1060C0002B309847002284F8450011468AA8294BB6
:1060D0009847032300938AA8284990230222A847BF
:1060E00094F84530264C022205218AA8A04718E6DC
:1060F000102D3FF466AC402D7FF497AC0E2E7FF44C
:10610000ACAB069B089A53EA02043FF44AAB26ABB9
:10611000781D2B4E0DF1530202211844B04726ABD7
:10612000C4B2F81D0DF1530202211844B04726AB4A
:10613000C5B207F109000DF1530202211844B0471E
:1061400083B25B00FF2BDCBF400000F0FE031D4E5E
:106150000748C8BFFF232A462146B047FFF77DBB4B
:106160009C870020B9460300E29303004079002099
:10617000084F0120D58800003188000058930300A3
:1061800075880000547900205C9403008198000019
:10619000A1890000818A0000EE93030005A400009D
:1061A0008DA000001194030005A600001D940300BB
:1061B000F54403002D9403006694030073940300D8
:1061C000F19C000089730000A19E0000057600008C
:1061D0002DE9F047878905461FBB00F51C563C3664
:1061E000114B304698470446A0B1104BDFF848A049
:1061F000304605F12C089847C146AC81BBB29C42A1
:10620000304609D80A4B9847AA896868094B49461D
:1062100098470120BDE8F087D047013708F8010B07
:10622000ECE70020F6E700BF794F0000CF4F0000F9
:1062300061500000615502003750000037B50E4B29
:10624000054601A898470D4A6B09D90102EBC31313
:1062500051581A6A1C690A4B54400C4001A854401A
:1062600005F01F059847012000FA05F5254208BFF3
:10627000002003B030BD00BFB5B302000080004174
:10628000C3B3020000F01F0330B501259D40400953
:106290000F4BC0010129ACB24FEA1542034408D0AC
:1062A000022944F0804442F040420ED05D609C627E
:1062B00009E044F0804444F4003442F040425D6020
:1062C00042F400329C629A6230BD9D60EFE700BFED
:1062D0000080004100F01F0201294FEA5010144BCA
:1062E0004FEAC0100AD0022914D00344134493F893
:1062F000402002F0FB0283F84020704703449140A5
:106300001A44596092F8400040F0040082F84000BE
:10631000996170470344012191401A44596092F8F1
:10632000400040F0040082F840005961704700BF0F
:10633000008000412DE9F04F0021A5B0C0E9001117
:10634000C0E90211A34BA44CA44DA54F1022064650
:1063500007A89847A34BA44AA449A548DFF8C4C29C
:10636000DFF8C4E2CDE90B23A24B0D9303F12853D0
:1063700003F5003303F2FA230E939F4BCDE90F137D
:106380009E4BCDE911039E4BCDE913439D4BCDE9C7
:1063900015539D4B179303F1A85303F5A01303F274
:1063A0000223189303F140331993984B984DCDE98C
:1063B0001A7303F1614303F5620303F204431C9370
:1063C00003F1806303F5783303F5F1731D93914B6B
:1063D000914FCDE91EC303F1424303F5842303F239
:1063E000222320938D4BCDE921E303F1644303F590
:1063F000003303F5A17323930BAB03930123039A9B
:1064000012F8014B0392EF2C41D8642003F1620291
:10641000B2FBF0F100FB112124AA11440193B3FB5C
:10642000F0F200FB123224AB1A4411F864BC12F8EB
:1064300064AC01212046A84702212046B847784B8A
:1064400020469847002181462046A8470021204643
:10645000B847019BB9F1000F1FD019219C1E24A839
:1064600094FBF1F200EB820001FB1242D2B2012157
:1064700001FA02F250F8741C0A4340F8742C079A8F
:106480003260089A7260099AB2600A9AF260013327
:10649000652BB4D125B0BDE8F08F012120460293D1
:1064A000A84701212046B8475D4B204698474946FA
:1064B00001902046A8472046B847DDE90123002A7D
:1064C000CBD0BBF1EF0F41D9BAF1EF0FDFD80121EB
:1064D00020464FEA5A1802934FEAC818A8470221EB
:1064E0002046B84708F1824802215046A84708F5DF
:1064F000004801210AF01F0B01FA0BFB484AC8F8BB
:1065000018B020469047012181462046A847012126
:106510002046B84702215046A847414AC8F814B05F
:1065200020469047019B0021002808BF994620463D
:10653000A84700215046A84700212046B847029BA3
:10654000C8F814B0B9F1000FA1D086E701212046A8
:106550004FEA5B1805934FEAC818A8470221204666
:10656000B84708F1824802215846A84708F5004874
:1065700001210BF01F0201FA02F2C8F81820284B83
:10658000049220469847012102902046A847012105
:106590002046B84702215846A847049AC8F8142054
:1065A0001F4B049220469847DDE901234946002805
:1065B00008BF134620460293A8475846A8472046DE
:1065C000B847049AC8F81420029A059B002A3FF4A1
:1065D0007BAF42E7993803002A2B2C2D4A4B4C4DB8
:1065E0005455FEFD414243022300014029040506A3
:1065F000FEFD0809032425FE074546470A0BFDFE5C
:106600002E2FFEFD4E4F0C0D0E0FFEFD303132339E
:106610008562000038395859D5620000FD1E1F3EC2
:106620003D620000FEFD3637FCF8FEF72DE9F04F25
:10663000214F224DDFF8ACA0DFF8AC8087B00446D4
:106640001F48B8471F484FF0FF3343631E4B98471E
:1066500001461E48A847102200211D4B02A898475A
:106660001C4B02A89847059B009302991A48DDE944
:106670000323A8470026194B0A2098473146504665
:10668000A8474FF000094FF0010B21680BFA09F2FF
:106690000A4214BF3120302009F10109C047B9F185
:1066A000200FF2D10E480136B847042E04F104043D
:1066B000E1D107B0BDE8F08FB9460300F54403000F
:1066C000E8940300547900207D9D0000FF940300AE
:1066D00099380300519D00000F9503006575020075
:1066E00078DD030033950300B545030008490B68C6
:1066F00013B90848084B18470848026842F08072EE
:106700000260074A002043F0010310600B607047ED
:10671000001000E045950300B9460300FCED00E0E1
:10672000041000E0004B1847ED660000014B1868AC
:10673000704700BF041000E0F0B51D4D1D4B85B043
:10674000012422214FF400622846ADF8004098470A
:10675000AB8FADF8043002940023174CADF806302F
:1067600001A92846CDF80CD0A04710B11348144B0E
:106770009847144E37686B88DA05FCD448F2010359
:106780000B48ADF8063001A9A04710B10B480C4BDF
:1067900098476B88DB05FCD433689DF800100A48E5
:1067A000DB1B7822B3FBF2F2084B984705B0F0BD33
:1067B0001054012001580200315802006B9503006B
:1067C000B9460300041000E076950300F544030089
:1067D000F0B51E4D1E4C85B00323ADF800304A21A4
:1067E0001C4B4FF4006228469847AB8FADF804303D
:1067F0000123029301A900232846ADF80630CDF805
:106800000CD0A04710B11448144B9847144E376869
:106810006B88DA05FCD448F201030C48ADF8063069
:1068200001A9A04710B10C480C4B98476B88DB05B9
:10683000FCD433689DF800100A48DB1B7822B3FBB8
:10684000F2F2094B984705B0F0BD00BF105401208B
:1068500031580200015802006B950300B94603004D
:10686000041000E076950300F544030058B1837AE4
:10687000013383720023C372037C0BB901230374B9
:10688000014B1B68C3607047041000E030B5F0B1E5
:106890000F49C3680A68C47AD21A00EB84035D6E9C
:1068A00015445D665D69954200D805B95A61DD6B96
:1068B000954238BFDA63082C9CBF0134C472037C54
:1068C000C27A9A4224BF013303740B68C36030BD9F
:1068D000041000E090B10A4BC2681B689B1AC27A90
:1068E00000EB8200426E1A44426642699A4200D826
:1068F00002B94361C26B9A4238BFC363704700BF9D
:10690000041000E060B100F1140200F13C0100232A
:1069100042F8043B8A425362D364F9D14381C36095
:106920007047000010B5044648B1054B092298474E
:10693000002323742046034BBDE81040184710BDC8
:10694000BD5B030005690000002380F8FE30021DD6
:10695000FE3002F8013B8242FBD17047002380F8F1
:10696000FA3100F1FF0200F2F91002F8013B824215
:10697000FBD1704710B500230360044B01469847D4
:10698000BDE81040024B0846184700BF49690000A7
:106990005D690000016070470268034612F8010B50
:1069A0001A60704730B5016811F8013B016002467A
:1069B0000A25A3F1300011680B78A3F13004092CEB
:1069C00000D930BD013105FB00331160A3F1300067
:1069D000F1E70000F8B52A4E2A4F0546B0470446B5
:1069E0002A68137803F0FD013C2904D03D2B43D1E4
:1069F00051783D2942D1511C29603E2B527808D153
:106A00003D2A284628D0B047A042ACBF002401242C
:106A1000E6E73C2B08D13D2A284625D0B047A042C6
:106A2000D4BF00240124DBE73D2B09D13D2AD7D177
:106A30002846B8472846B047031B5C425C41CFE775
:106A4000212BCDD13D2ACBD12846B8472846B04787
:106A5000041B18BF0124C3E7B8472846B047A0422B
:106A6000CCBF00240124BBE7B8472846B047A0426A
:106A7000B4BF00240124B3E7212BB9D02046F8BDD0
:106A8000416B000099690000134970B50446012567
:106A900023681B782F2B08D9392B18D80F4B204689
:106AA0009847014605FB01F070BD282B09D10A4E1D
:106AB0002046B0470A4B2046984701462046B0473B
:106AC000F0E72D2B03D1204688476D42E0E70548CB
:106AD000054B98470021E5E799690000A56900008A
:106AE000D56900008E950300B9460300F8B5134E32
:106AF0000546B04740F2214704462A681178A1F1C3
:106B00002503DBB20A2B03D827FA03F3DB0701D4F2
:106B10002046F8BD01322A292A60284602D1B04712
:106B20004443EAE7252905D1B04794FBF0F303FB82
:106B30001044E2E7B04794FBF0F4DEE7896A000016
:106B400070B50B4E0546B04704462B681A782B2AC1
:106B500003D02D2A01D0204670BD01332B2A2B6093
:106B6000284602D1B0470444EFE7B047241AECE7C7
:106B7000ED6A000070B59AB004460B4B15460E4600
:106B80006022002102A801919847A11901A8074E8F
:106B9000B04729462046B047054B2846984701A9EB
:106BA0002044B0471AB070BD99380300CB4C0300A5
:106BB000895B0300002330B51A461C468B420CDA71
:106BC000C55C282D03F1010301D10132F6E7292D1F
:106BD000F4D10134A242F1D1184630BD2DE9F04F75
:106BE000824BABB0282180469847A0EB0802814633
:106BF000002300920099DAB28A4203F10103F9DB23
:106C00007B4B7C4F484698477B4B0146484698470C
:106C10002822861E002107A8B84700252C46B54229
:106C20002ADA09EB050A5246AB4612F8011FCDF8E5
:106C300004B02C290BF1010B00F0CC805E45F4DC94
:106C40004FF000094946102212A8CDF84490751B58
:106C5000B847494611AB03E01AF8012F5A540131E5
:106C60008D42F9DC049304A8644B98472AAB03EBEC
:106C70008403013443F88C0C002304AACDE90433C7
:106C8000ADF8183008F1080008F1FF33934613F807
:106C9000011F282927D15A495A4DDFF89CA158468F
:106CA000A8470DF1440918B357495846A84700288A
:106CB00000F08E8055495846A847002830D1DDE9BC
:106CC00007531D4418E01AF8010F88540132954209
:106CD000F9DC4A4B049104A8984707AB5D4643F89A
:106CE000240001349BE7834202F8011BCFD1D2E795
:106CF000079D002DB8BF6D420021602212A811919E
:106D0000B8472A4642494846D047009B3344194673
:106D10004A46404B0231404698472BB0BDE8F08FC1
:106D20003D495846A84720B13C495846A847002845
:106D30003ED13B4B012C18681B7902908DF80C302A
:106D40000ADD2AAB03EB840353F8903C082BD4BF35
:106D5000303338238DF80A300021102212A8119107
:106D6000B847079D02A92A464846D047012C2D4A1C
:106D7000C4BF2AAB03EB840492F8FA31C8BF14F8FD
:106D8000901CD8B2C3F5FC73D8BF022101335B1A43
:106D9000134400245FFA84FC8C4503D3014482F839
:106DA000FA11A9E719F804C003F801CB0134F1E79F
:106DB0001D495846A84728B9079B0BB1089D9BE77A
:106DC000099D99E719481A4B59469847002593E7BA
:106DD000184D91E70023194611931022054B12A874
:106DE0009847019B00225D1B11A970E7994C030095
:106DF000895B030099380300B56B0000D56900007A
:106E0000A6950300B34C0300AA9503008CC50300AC
:106E1000CE950300756B0000AE95030068B40300C7
:106E20009C92030058B7002022CF0300B4950300C2
:106E3000F54403002A2C0A00B14B0300A0F13003F3
:106E4000092B09D920F02003413B192B04D9A0F1CB
:106E50005F03584258417047012070472DE9F04FB9
:106E60002DED028B0022A1B0CDE90122DFF83CA27A
:106E7000ADF80C200D4646184FF0FF3B11469146E9
:106E8000002D04DA21B0BDEC028BBDE8F08F08EED6
:106E9000106A16F801492046D047B9F1000F11D009
:106EA000B0F1000918BF4FF00109002944D10023B7
:106EB00001AA194601330A2B02F8011BFAD100225C
:106EC00011464CE0002937D10028F0D0B378282BA8
:106ED00000F0CD80A4F13003092B88BF0122AB461E
:106EE000ABEB050320A90B4403F87C4C303C092C88
:106EF00024D925B13078D047002840F0B6805E4BC9
:106F000001A898470023CDE9043301AA8046024432
:106F1000ADF8183004A91846434502F1FF3220DBD2
:106F2000A8F10203012B64D89DF81030542B5ED1D8
:106F30000123002218462DE00028D1D1002AD8D103
:106F400001247078D0470146002840F0938001AAC0
:106F5000034601330A2B02F8010BFAD10022013D4E
:106F60008EE714780C70013301F8010FD4E720A9E3
:106F70001944013311F8701CA1F13004092C9FBF92
:106F800002EB820201EB4202303A02F0FF0288BFBC
:106F90000020DBB24345EADB58B3384B1B685B6823
:106FA0009B6953F82240364B00276022394608A8D7
:106FB000079798473349344B224607A89847334BE5
:106FC00007AA414618EE100A984701AB1A463946FF
:106FD00001370A2F02F8011BFAD1002211460132B3
:106FE0000A2A03F8011BFAD100221446A9E75A2BFA
:106FF0001ED00124D7E720A91144013211F8701CDA
:10700000A1F13004092C9FBF03EB830301EB430381
:10701000303B03F0FF0388BF0020D2B24245EADBD9
:107020000028E6D043B91A481A4B98470446BAE7F5
:10703000012200231046F1E7012B02D11448164B20
:10704000F3E7022B02D11248144BEEE7032B02D1D7
:107050000F48134BE9E7042B02D10D48114BE4E72D
:10706000052BC6D10A48104BDFE70122BDE74FF0E0
:1070700001091CE7214672E7895B030058B700202D
:10708000993803003E9A0300B14B0300756B000072
:1070900054790020299C00002D9C0000339C0000A6
:1070A000399C00003F9C0000439C00003D6E0000A6
:1070B0002DE9F0470022DFF86880184F4418054694
:1070C0001146B4EB050A01D5BDE8F0872678282ED5
:1070D00000D1E2B1C9B13046C047814658B1303E17
:1070E000092E16D8BAF1000F0FD172B12046B84759
:1070F0000022114609E0002AFBD0601CB847217825
:10710000A1F12803594259414A46013CD9E70121DE
:10711000FBE7BAF1000FE9D00A46F6E7DD6B0000A5
:107120003D6E000073B5124B04460E46114698475B
:10713000104B20469847221D00231546994211D82E
:1071400084F8FE100C4B2846984794F8FE100B4B21
:10715000284698470A4B019501A89847C4F8FC01B6
:1071600002B070BDF05C02F8010B0133E6E700BF2E
:10717000496900005D6900005D6E0000B1700000AB
:10718000D5690000014B01221A7070474C1900208C
:10719000F0B5047A8C423FD9FF2B4FF00C044669BE
:1071A0001E4D28BFFF234C43375955F82360B74283
:1071B00008D0866901277754066A735455F823600E
:1071C00043691E51FF2A466928BFFF22231DF75835
:1071D00055F82260B74208D0866901277754C669FE
:1071E000725455F822604269D650BDF81430426995
:1071F000FF2B28BFFF230834165955F82320964249
:1072000008D0826901265654426A535455F8232007
:1072100043691A51002000E0FF20F0BD9883002050
:1072200010B5064C064B00F12C012046984720462D
:10723000044A054BBDE81040002118473455012091
:10724000BD5A020085710000895A0200F0B5067A25
:10725000C6EBC6035D0000240E27E3B29E4200D8B1
:10726000F0BD836A032107FB04339A8922B1013AF6
:1072700092B29A8102B99A725A7A93F80AC0624419
:107280005A724A1E12F0FF012B44EED10134E4E79A
:1072900010B5047A8C420ED9022A0CD8806A04FBFD
:1072A00002110E224A43811883549DF808304B7016
:1072B0009DF80C308B7010BD10B5047A8C420ED93D
:1072C000022A0CD804FB0211826A0E2000FB012264
:1072D000D3709DF8083013719DF80C30537110BDB8
:1072E00010B5047A8C420ED9022A0CD804FB021184
:1072F000826A0E2000FB012293719DF80830D37141
:107300009DF80C30137210BD2DE9F3471F46037A28
:107310009DF828809DF82C908B4204460D46164619
:1073200028D9022A26D81423DFF854A0B9FBF3FC8D
:10733000CDF804C0B8FBF3FCB7FBF3F3CDF800C005
:10734000D0474FEA590301934FEA5803009332465E
:107350007B0829462046DFF82CA0D0472046074C62
:107360003B4632462946A446CDE90A8902B0BDE82B
:10737000F047604702B0BDE8F08700BFE17200004F
:1073800091720000B972000010B5047A8C4208D9DD
:10739000022A06D804FB0211826A0E2000FB012299
:1073A000537210BD10B5047A8C4208D9022A06D84F
:1073B00004FB0211826A0E2000FB0122937210BDB1
:1073C00010B5047A8C4208D9022A06D804FB0211AF
:1073D000826A0E2000FB0122D37210BD10B5047A20
:1073E0008C4208D9022A06D804FB0211826A0E20B8
:1073F00000FB0122938110BD2DE9F04F044601727C
:10740000CDB20C2068439030484EE06085B0B04764
:1074100000F19003206107462A2063616843B0476A
:10742000A06207B100B9FEE72846B047E061814697
:107430002846B047206280462846B047606207462B
:107440002846B047A06130B1B9F1000F03D0B8F1C0
:10745000000F00D007B9FEE7002319462269D15476
:107460000133902BFAD10021314E0D46237A8B4205
:1074700013D800221146207AD3B2984214D8DFF8EC
:10748000B4B0DFF8B4A0DFF8B4800027237AFDB2EF
:10749000AB4213D805B0BDE8F08F002300951A4623
:1074A0002046B0470131E1E7A069C154E069C15409
:1074B000206AC154606A0132C154DCE7002600230F
:1074C000F2B2CDE90033294620460392D847002383
:1074D000CDE90033039ADFF8689029462046D0476B
:1074E0000023CDE90033039A29462046C047039A7A
:1074F000002329462046C847039ADFF84890002316
:1075000029462046C847039ADFF83C9000232946C5
:107510002046C8470136039ADFF8309000232946F9
:107520002046C847032ECAD10137AFE7753703009D
:107530009171000091720000B9720000E1720000C8
:10754000A573000089730000C1730000DD730000A3
:10755000F7B5294E00234FF0006713F0020F0CBF60
:107560004FF000454FF0604513F0040F0CBF4FF48F
:1075700000244FF4602413F0080F45EA04050CBF03
:107580004FF400044FF4600413F0100F45EA0405B3
:107590000CBF4FF400644FF4606413F0200F0CBF75
:1075A0004FF400424FF460422C4313F0400F44EA82
:1075B00002040CBF08220E221443DA0914BFE02291
:1075C0008022013322439BB23A43B3F5807F46F8D1
:1075D000042B08D1094B019098470198084B984714
:1075E000002003B0F0BD13F0010F14BF4FF060672F
:1075F0004FF00067B1E700BF98830020F9730000E7
:10760000217200002DE9F04F87B0DFF85C80BDF8F3
:107610004070DFF85890DFF858A003920D461E46E0
:107620000024037AE1B28B4202D807B0BDE8F08FA4
:10763000039B009300222B460196CDE90401C0472D
:10764000DDE904013B460022C847DDE90401FBB245
:107650000022D047DFF81CB0DDE90401FF2300223F
:10766000D84701340498DCE709730000DD7300009B
:1076700089730000A57300002DE9F74F077A836A2C
:10768000DFF8CCC00026C7EBC7070E2505FB013588
:107690007F004FF0030E3346324695F80B806C7A2C
:1076A000B8F1000F04D0B8F1010F41D1E443E4B2C6
:1076B000644495F803B094F8009294F8008195F82A
:1076C00000A094F800431BFB09FB0AFB08BB95F8DC
:1076D00006A00AFB04BA95F804B0524495F801A03C
:1076E0001BFB09FB0AFB08BB95F807A00AFB04BAC1
:1076F00095F805B0534495F802A01BFB09F90AFB65
:10770000089895F8089009FB048426440EF1FF348C
:1077100014F0FF0E3D44C0D1C6F34F260B4C00962B
:10772000C3F34F23C2F34F22A04703B0BDE8F08F4D
:10773000B8F1020F03D1E44344F3C014B7E7B8F142
:10774000030F08BF1CF80440B2E700BF91710000AE
:107750000800002038B5054D04460021237A8B42ED
:1077600000D838BD2046A8470131F7E779760000F8
:1077700010B5074B044600221A700648064B98477E
:10778000A2892169E06A054BBDE81040184700BF97
:107790004C19002034550120615A02006155020045
:1077A0002DE9F0413048314F314C324D324EB8471F
:1077B000324B33484FF48042C3F81821A04720B918
:1077C0003048A847304B98470FE02D48A04708287D
:1077D000F6D02B48A047802820D12C48A8472C4B16
:1077E0009847F3682B48597AA8472B48B847717ACD
:1077F00021482A4B01390022C9B29847284B9847A3
:10780000284B9847284B98471D48284B00219847FC
:10781000BDE8F04126492748274B18471848A0479C
:107820008828DAD01648A047402803D12348A84723
:10783000234BC8E71248A047C02803D12148A847D6
:10784000214BC0E70E48A047C128F7D00C48A047FD
:10785000C82801D11D48F2E70948A047C928F9D036
:107860001B48A847C1E700BFD3950300B9460300F2
:107870007D9D0000F5440300407900200080004118
:1078800054790020E595030029870000F79503004F
:10789000E17B00000996030073960300BDA200007F
:1078A000E1510000D5990000459B0000659C000057
:1078B000D853012078830020DD8A00001E96030043
:1078C000DD83000030960300357F00004296030000
:1078D0005796030002688368127A7F20C3E900226A
:1078E00007210022C3E90222C3E90401C3E90622F9
:1078F000704702688368127A7F21C3E90022002260
:10790000C3E90222C3E90412C3E9062270470268F0
:107910008368117A7F200022C3E90222C3E90402AE
:10792000C3E90622C3E90812C3E90A20C3E90C220D
:107930004022C3E900119A6370477047704743685B
:107940009A6940239363136B3BB1D36A916A013305
:107950005B1A03EBD3735B10536270477047704739
:107960007047000010B5044C0448A0472346044863
:10797000BDE81040184700BFCD7D020064540120CF
:10798000385601202DE9F04F764A13788BB0144613
:1079900033B913780133DBB213700BB0BDE8F08F4D
:1079A0000023ADF82430ADF8263053786E4A6F4F7F
:1079B0006F4808330021D65C6378DBB2F6B2D55C41
:1079C00063780133DBB26370637803F0070363709D
:1079D000637813F0010F674B4FF4002214BFC3F814
:1079E0001821C3F81421637813F0020F614B4FF490
:1079F000801214BFC3F81821C3F81421637813F060
:107A0000040F5C4B4FF4001214BFC3F81821C3F8E5
:107A10001421022309AAB84702230DF12602564871
:107A20000021B8470023BDF82420ADF81C30ADF884
:107A300020304EF66023EDB29A428DF818608DF832
:107A400019504FF0010305D97F228DF81C208DF8C5
:107A5000203001E0C72AFAD9BDF826304EF6602260
:107A6000934266D97F238DF81D3001238DF8213094
:107A700006AB039307AB0193404EDFF810B1002330
:107A80000DF1200A0293039B3D4A13F8019B0393D7
:107A90001AF8013B0493019B04EB890813F8017B5E
:107AA000D8F80410019330464FEA890305939047B4
:107AB000334AD8F80410054630469047314A904280
:107AC0000AD93149304688472E4AA0F51C30A0F526
:107AD0008070C8F8040015462C4B4FF02C08DB686A
:107AE00019FB08F843449A69D3699F421AD0049B52
:107AF000012B17D1244BD761304604929847059B40
:107B0000049A23442D09586095615169204B214DF9
:107B10001FBB1769A1B99760DBF80C000321404433
:107B20009847A847029B43B1002323701A4B9847FC
:107B300033E7C72B9CD8002395E701230293A2E7E4
:107B4000D2F80CC0A7EB0C0090FBF1F09168014457
:107B5000B942C8BF61469160DEE70029DCD1D16837
:107B6000F9E700BF0C09002008040020117D020085
:107B700064540120008000413856012054790020CF
:107B8000B39C000000710200AF9C0000407900200F
:107B900005A40000FDA500006579000070B50B4C40
:107BA0000B4E0C4D0C4B002211462046B0470022D4
:107BB000094B11462846B0472046084C0021A047F3
:107BC000284623460021BDE8704018476454012030
:107BD000997C02003856012085790000597C02000A
:107BE00070B50C4B0C480D4E0D4D102198470B48AD
:107BF0000C4B112198470024E1B202223046013497
:107C0000A847102CF8D1084B9847BDE87040074BA7
:107C1000184700BF51750000084F0120407900202F
:107C2000BDA20000FD9E00009D7B00006579000064
:107C300010B5084B0848094C4FF400129A61084BE4
:107C40009847084A0448A4460823BDE8104002F1BA
:107C50000E016047008000415053012095890200C9
:107C6000F5880200500900202DE9F04F894BDFF81C
:107C70005092DFF8508287B04FF400125A61864B61
:107C800002930027FBB20593C7F34603834C19F810
:107C9000035007F001039B001D41EBB2039309EB76
:107CA000070340461B7FDBB20493029B13F8016B72
:107CB000029309EB860A05F00F05DAF82C10A047AD
:107CC000DAF82C1001904046A047754B98424FEAD5
:107CD000860B0AD9734B40469847A0F51C30704B71
:107CE0000193A0F58070CAF82C00CB444046DBF825
:107CF0006C10A047DBF86C1082464046A047684BEA
:107D000098420AD9674BDFF898A140469847A0F5FA
:107D10001C30A0F58070CBF86C00049B9D4200F0F5
:107D2000988009EB0703059A1D775F4BDFF898C130
:107D30001A70039B15F0020F03F00102C5F38000D7
:107D4000C5F340014FF00A0300F09E80002A00F0C6
:107D50009F8003FB06C31C7A002C40F0868093F8BA
:107D600009E0BEF1000F03D101245C724FF0FF3433
:107D70004FF00A0B0BFB06CB9BF801308BF807107A
:107D800083428BF8082027D04849464A0123AD0892
:107D90008BF802308BF80150CB682C2516FB05F5CB
:107DA0002B4440469B6903939047019B3F4909EB55
:107DB0008602D0621809039B3D4A98619BF8010036
:107DC000DFF8F0B000285BD17F20D8619860C868E8
:107DD000032128449047D847002C3AD0334A4FF02B
:107DE0002C0BD36816FB0BFB5B4440469D692D4B67
:107DF000984709EB86064FEA1A13BAF5D07F2B4A4B
:107E0000F0666B633ED2012B38BF012340F2712133
:107E100003FB13139621B3FBF1F30133DBB24FF0F5
:107E2000FF3101EB43014C43D5E90910AB6BEE6A1E
:107E3000214423448142AB6303DBB142A8BF3146F6
:107E400008466862D0681A4B022158449847194B7B
:107E500098470137102F7FF415AF174B00221A7087
:107E6000164B07B0BDE8F04F1847DC7984B993F89A
:107E700009E0BEF1000F7FF47BAF01245C7277E76D
:107E80000020A2E71923C1E712B903FB06C35A7207
:107E900000246DE70080004128040020B39C00000E
:107EA00000710200AF9C00009E4800204079002035
:107EB00005A40000FDA500005CEF0020317C00005F
:107EC0005009002054790020AC1E01200F4B4FF4C4
:107ED000001210B55A610E4C9A604FF080429A62BF
:107EE0000C4A9A6203210C4B204698470B490C4BD5
:107EF000204698470B490C4B2046984720460B4A92
:107F00000B4BBDE810400021184700BF0080004126
:107F100050530120200000C05989020040420F0048
:107F20001D890200A04800203D8A0200697C0000F3
:107F3000F989020070B5154B1548164E164D1021E3
:107F400098471448154B112198470024E1B20322A9
:107F500030460134A847102CF8D10022104B0120E4
:107F600011461A700132102A58709970D970187120
:107F700059719971D8711872597203F10A03F0D1CD
:107F8000084B9847BDE87040074B184751750000F3
:107F9000084F012040790020BDA20000FD9E000096
:107FA000AC1E0120CD7E0000317C000010B5044CD9
:107FB0000448A04723460448BDE81040184700BFC6
:107FC000CD7D0200645401203856012000000000DD
:107FD0002DE9F04F8E4A137889B033B91378013305
:107FE000DBB2137009B0BDE8F08F0023ADF81C3090
:107FF000ADF81E30874B88491A78884D8848DFF8DD
:108000004CB2DFF84CA2DFF84C9208328E5C1A7842
:10801000D2B2F6B28C5C1A780132D2B21A701A78E7
:1080200002F007021A701A7812F0010F7D4A4FF41D
:10803000002114BFC2F81811C2F814111A7812F0F6
:10804000020F784A4FF4801114BFC2F81811C2F819
:1080500014111B7813F0040F724B4FF4001214BF6D
:10806000C3F81821C3F814210021022307AAA84746
:1080700002230DF11E0200216B48A847BDF81C0029
:10808000D84761A3D3E90023D047C8474FF6FF750F
:10809000A842074628BF2F46BFB28046ADF81C70E5
:1080A000BDF81E00D84758A3D3E90023D047C847DE
:1080B000E4B2854228BF0546A4F10803ADB2012B06
:1080C000ADF81E5040F282800D2EDFF88CA140F2F8
:1080D000C5800023ADF81430ADF818304EF660239B
:1080E000043E043C98458DF810608DF811404FF027
:1080F000010305D97F228DF814208DF8183002E095
:10810000B8F1C70FF9D94EF66023984264D97F239E
:108110008DF8153001238DF8193006AB0193434ECD
:10812000DFF8189105AB0DF1100B00934FF002082A
:10813000019B1BF8015B1A465AF8251012F8013B07
:108140000293009B019213F8017B00933046384B59
:108150009847374B5AF82510044630469847354B18
:1081600098420AD9344A30469047A0F51C30314B2A
:10817000A0F580704AF825001C46304BDA682C23A5
:1081800015FB03F31A449169CA6997421BD0029AFE
:10819000012A18D1284ACF613046039302919047B3
:1081A00002994AF8250024098C614869244A254C23
:1081B000039B2FBB0F69B0B98F60D9F80C00032166
:1081C00018449047A047B8F1010F09D1104A002385
:1081D00013701D4B984705E7C7289ED8002397E7E3
:1081E0004FF00108A4E7D1F80CC0A7EB0C0595FBF4
:1081F000F0F588682844B842C8BF60468860DCE76C
:108200000028DAD1C868F9E77B14AE47E17AF03F7D
:10821000F0490020994E012049040020117D020000
:108220006454012000800041385601205479002018
:10823000B39C000000710200AF9C00004079002058
:1082400005A40000FDA50000AD7F00006917030034
:108250003D180300ED1D0300000A0020012C9CBF07
:10826000ED43ADF81E50424DE968EA684FF02C032B
:1082700004FB032206FB031392699B6992F81480A6
:108280001A7D9CBFFF43ADF81C70BDF81C10394F20
:108290003046B847BDF81E1042462046B84706ABE8
:1082A000354F8DF818608DF8194000934FF0020992
:1082B000009B13F8014B00935AF824102F4B3846BB
:1082C00098472E4B5AF824100646384698472C4BB0
:1082D000984209D92B4B2A4E38469847A0F51C30B6
:1082E000A0F580704AF82400EB684FF02C0814FBCE
:1082F00008F843442046D3F818B0234B984780B37E
:10830000204B360938469847CBF81860DBF81460E4
:108310004AF824000C2EA8BF0C261C4B2046984778
:10832000012EB8BF0126DBF80C20DBF8104001213C
:10833000C6F1100301FA03F3A41ADB439BB24443D2
:10834000C0EBC01094FBF3F4B0FBF3F3E868CBF898
:108350001C3014440E4BCBF80840404498470D4B5A
:108360009847B9F1010F3FF431AF4FF001099FE792
:1083700040790020DD45000054790020B39C0000C6
:1083800000710200AF9C000091460000A946000069
:1083900005A40000FDA5000070B50B4C0B4E0C4D64
:1083A0000C4B002211462046B0470022094B1146D3
:1083B0002846B0472046084C0021A04728462346BF
:1083C0000021BDE87040184764540120997C0200E8
:1083D00038560120D17F0000597C02002DE9F04180
:1083E000124B134D134F052110209847124B134881
:1083F0000C2198470F48124B0D21984700242E4618
:10840000E1B2012238460134A847082CF8D1094DC1
:108410002146013402222846E4B2B0470C2CF7D1A1
:10842000084B9847BDE8F041074B1847A1450000AD
:10843000BDA200004079002051750000084F0120C6
:10844000FD9E000099830000AD7F000010B5044C34
:108450000448A04723460448BDE81040184700BF21
:10846000CD7D020064540120385601200000000038
:108470002DE9F04F864A137885B0144633B9137846
:108480000133DBB2137005B0BDE8F08F0023ADF807
:108490000C30ADF80E3053787E4A7F4D7F48DFF8C0
:1084A00034A2DFF83492DFF8348208330021D75C3D
:1084B0006378DBB2FFB2D65C63780133DBB2637002
:1084C000637803F007036370637813F0010F744B54
:1084D0004FF4002214BFC3F81821C3F814216378A5
:1084E00013F0020F6E4B4FF4801214BFC3F8182123
:1084F000C3F81421637813F0040F694B4FF4001292
:1085000014BFC3F81821C3F81421022303AAA847F3
:1085100002230DF10E0200216248A847BDF80C00AD
:10852000D04759A3D3E90023C847C0474FF6FF758A
:10853000A84228BF2846ADF80C00BDF80E00D04771
:1085400051A3D3E90023C847C047A84228BF284603
:10855000ADF80E00544B554898470828F6B209D19B
:10856000BDF80C30DB43ADF80C30BDF80E30DB430A
:10857000ADF80E304E4DDFF86881E968EA682C23CB
:1085800006FB032207FB031392699B6992F8149080
:10859000BDF80C101A7D3846C047BDF80E104A468B
:1085A0003046C0470023DFF804818DF808708DF84D
:1085B00009600DF1080A00931AF8017B04EB8709A2
:1085C000BB00D9F80410019340463A4B9847394B09
:1085D000D9F80410064640469847374B984209D9C7
:1085E000364B354E40469847A0F51C30A0F58070BC
:1085F000C9F80400EB684FF02C0917FB09F94B444C
:108600003846D3F818B02E4B984788B32B4B360911
:1086100040469847BB00CBF81860DBF81460234451
:108620000C2EA8BF0C265860264B38469847012EC2
:10863000B8BF0126DBF80C70C6F110030121DBF88E
:10864000106001FA03F3F61BDB439BB24643C0EB19
:10865000C01096FBF3F6B0FBF3F3E868CBF81C30E0
:108660003744194BCBF8087048449847174B984744
:10867000009B23B100232370154B984703E7012388
:10868000009399E7AFF300807B14AE47E17AF03FA7
:10869000440A002069040020117D02006454012076
:1086A00000800041385601207D9D00005479002053
:1086B00040790020B39C000000710200AF9C0000D4
:1086C00091460000A946000005A40000FDA5000099
:1086D0004D840000691703003D180300ED1D0300E1
:1086E000DD45000070B50B4C0B4E0C4D0C4B0022C1
:1086F00011462046B0470022094B11462846B04794
:108700002046084C0021A047284623460021BDE80A
:108710007040184764540120997C020038560120AB
:1087200071840000597C020070B50E4B0E4E0F4D47
:108730000521102098470E4B0E48102198470A48F3
:108740000D4B112198470024E1B20122304601343B
:10875000A847102CF8D1094B9847BDE87040084B4A
:10876000184700BFA145000040790020BDA20000CD
:1087700051750000084F0120FD9E0000E5860000B5
:108780004D8400001FB500228DF80F200DF10F025F
:108790000B460092024C04220221A04704B010BDF7
:1087A000B99E00001FB500228DF80F200DF10F02B9
:1087B0000B460092024C02220621A04704B010BDD5
:1087C000B99E00001FB500228DF80F200DF10F0299
:1087D0000B460092024C02220821A04704B010BDB3
:1087E000B99E0000D0E96432D0F8980113441844CF
:1087F0007047D0F89401704770B504460B4B08469B
:108800000D469847D4F894210023834208D11A4496
:10881000C4F89421D4F89C211344C4F89C3170BD51
:10882000E1181144EE5C8E760133EEE7895B0300BC
:108830000EB433B5044605AAD0F8940152F8041BCF
:1088400001921A30094B20449847D4F89451084BB0
:1088500005F11A0020449847C4F89C012844C4F844
:10886000940102B0BDE8304003B070474572030088
:10887000895B030070B4D0F89441D0F89C51651B1B
:1088800001F11A04164654FA85F41A46314620447A
:10889000014B70BC184700BF199D000020B401F1C6
:1088A0001A05154419462844024B5DF8045B002262
:1088B000184700BFF19C000020B401F11A051544CF
:1088C0001946019A024B28445DF8045B184700BF23
:1088D000199D000030B50023C0E96433C0E9663358
:1088E0000A4B1B7D85B01725CDE90225CDE9003166
:1088F00004460749074D01220F23A847064B20468F
:108900009847C4F8900105B030BD00BF54790020ED
:1089100084960300B14B0300895B0300D0F89421D7
:108920006AB9172915BFD0F890318176C154012357
:108930001ABF0133C0F89031C0F894317047D0F8B5
:1089400098316BB9042905D0831801329976C0F8A3
:108950009421704780F88B110123C0F8983170473B
:10896000C218013382F88B11F7E7D0F890218A42C0
:1089700001D9405C7047D0F8943113448B4203D93D
:10898000891A0844807E7047D0F898211A448A4298
:1089900083BFC91A401890F88B01FF207047000070
:1089A000F8B50446D0F898012D492E4D2E4E00F210
:1089B0008B1004222044A847D4F8987107F28B103A
:1089C0002044B047D4E9643138440B44274FC4F8FD
:1089D0009801191889B2264B20469847397D254BB6
:1089E0002046984797F8BD10234B2046984797F8A4
:1089F000BD300133DBB287F8BD30D4F89031214669
:108A00002344002299421FD1D4F89431234404F125
:108A10001A011A3399421BD1D4F89801231804F291
:108A20008B1103F28B13994216D100F28B1013496C
:108A30002044A847D4F8985105F28B102044B04741
:108A40002844C4F89801F8BD11F8010B4240D9E759
:108A500011F8010B4240DDE711F8017B7A40E2E7B3
:108A6000CD930300B14B0300895B030054790020D0
:108A700085870000C5870000A58700008FDD030003
:108A80002DE9F8430F4B064698470F4B044681B239
:108A90000E48984778B9BDE8F88329463046B8476C
:108AA00001464046C8470135A542F6D10748084B64
:108AB00098470120EFE7074FDFF81080DFF81890A4
:108AC0000025F1E7E5870000C54700002875002074
:108AD000214800006B8900000148000000230122AA
:108AE000C0E9053383830160828003720374704799
:108AF0002DE9F04F544204F00704224494B287B0A9
:108B0000E31DDB086A46A2EBC302A2EBC30300AF7E
:108B10009546EA469D46002381460D46EB461A4699
:108B200099B28C4222D8334E3348DFF8DC802A4693
:108B30002146B04705F51023FB60F968D9F800001D
:108B400023465246C047DFF8C480F968D9F80000D0
:108B500023465A46C0474FF000087E601FFA88F649
:108B6000B44209D81C37BD46BDE8F08F0AF803208F
:108B70000BF803200133D3E71BF80830002B36D065
:108B8000F9681AF808201D487D684144A8471C4B25
:108B90001C489847FB68F10803EBC1010A23BB603E
:108BA000194DD9F800003960082307F1100200269A
:108BB000C7E90466A8473968D9F80000134D0823AF
:108BC00007F11002A847396807F11003082213F8CB
:108BD000010B08B10136F6B2013A12F0FF02F6D1EC
:108BE0002EB1BB68013B13F0FF03BB60D8D108F185
:108BF0000108B3E7F5440300A5960300C3960300FC
:108C000081980000F9960300B98502004D850200A5
:108C10002DE9F04F85B09846130203EB01430E4651
:108C2000BDF83CB0D0F818A02E4C2F490546174689
:108C300043444FF00009BAF1000F50D09AF80200F7
:108C40009AF801C0000200EB0C409AF803C060449F
:108C500083421AD22548A047254B14209847034643
:108C6000002838D0A98B0131C0E903A9A983B9F143
:108C7000000F2DD1A86103901E48A047039BBAF1B5
:108C8000000F06D0CAF8103003E018D11A48A047E8
:108C9000534601221A700E9A9A605E709F7083F894
:108CA0000380A3F804B015480092154CCDF804B029
:108CB00043463A463146A04705B0BDE8F08F084626
:108CC0000393D146A047DAF80CA00749039BB2E70B
:108CD000C9F80C00D3E70B48A047FF20ECE70A488F
:108CE000B9E700BFB94603007C97030074970300FF
:108CF0007537030083970300789703008D9703006F
:108D0000F5440300B7970300D09703002DE9F04F17
:108D1000ADF50F7D0EADFF2304902B604FF4FE7276
:108D2000684BDFF8C081684E00210FA898470024E7
:108D3000A246474661020123D8F800002A4601F501
:108D40001021B0472B78FF2B07D0631CB3F5607F51
:108D5000A24640F0B58040F27F3A0AF590614C029D
:108D60004FF4007338682A462146B0470023E95C77
:108D7000FF29A3F1080205D00833B3F5007FF6D12F
:108D80004FF4FC72A4F50F21049B504C504EA1F6F9
:108D9000F871114459616023002500934D4A0795ED
:108DA0000223052107A8ADF82050A0474FF4007317
:108DB00003934FF4102B0498434C00684FF4007356
:108DC0000EAA5946A0470EAB6F020293029B029C6B
:108DD0001B7822460132022B029260D1394B0021CE
:108DE00010220AA809919847A7EB0B039BB2B3F591
:108DF000F67F08D90498344C0068132309AA07F5B4
:108E00001021A04709AC344B042207A920469847FB
:108E10000346002843D10590022205212046B04791
:108E2000059B8146022207212046B0475FFA89F957
:108E3000059B8046022209212046B047B9F1010F67
:108E400007D15FFA88F8B8F1010F02D1C0B2092842
:108E500002D02248224B9847002302220B212046B1
:108E6000B0470023059002220D212046B047002381
:108E7000804602220F212046B0470023814604226B
:108E800011212046B04780B2CDE900709DF8141042
:108E90001448154C5FFA89F35FFA88F2A047039BE8
:108EA0000137BB4292D1013503F50073AA450BF59A
:108EB000007B0393BFF47FAF0DF50F7DBDE8F08F0E
:108EC0001C4637E7993803004D850200114B03001B
:108ED000A19E0000D4970300995B0300EC97030068
:108EE000B946030078830020118C000010B580691A
:108EF00000B910BD44788C4205D18478944202D1E7
:108F0000C4789C42F5D0C068F2E7000070B5044612
:108F10000D461646034B0A46816803489847A560EC
:108F2000A68070BDF54403000F980300F7B584696F
:108F30000B4D0C480C4E0D4FA8472CB90C482B4636
:108F400003B0BDE8F0401847A088E378A2786178C4
:108F50000190A06800903046B847E468EDE700BF94
:108F6000B9460300229803002E980300F54403003D
:108F70004F9803002DE9F04FADF5005D85B0074631
:108F800004A8002440F8044B494BDFF844B1DFF853
:108F900044A141F6FC7221469847BE6925464FEA36
:108FA000453804EB4530002E2BD0F378B278717839
:108FB0000190B06800903F48D847B388191904AAB7
:108FC000B1F5005F224432D2B168386801F5102152
:108FD000D047B3881C44B388E31A03EB4533B3602E
:108FE000F668002EDBD105F148014903324B3868A1
:108FF000039110229847314E03993868234604AAFA
:10900000B04704EB45312E487961D84701352A4CE9
:10901000ADB205F148014903B1F5801F42DB384686
:10902000284B98470DF5005D05B0BDE8F08FA4B260
:10903000C4F500591C44A4F50054A4B2B4F5005F73
:109040001FFA89F904D92048204B03929847039AC4
:10905000B16838684B4601F51021D04708F510215A
:10906000154B3868039110229847DFF85080039918
:1090700038684FF4005304AAC04701350023ADB24D
:1090800004AA194601339BB2B3F5005F02F8011B35
:10909000F8D1B168386801F51021234604AA494483
:1090A000D04798E7386810220135A047ADB2B0E745
:1090B000993803005A98030039860200B9850200E6
:1090C000B59803002D8F000082980300B946030075
:1090D000F54403004D8502002DE9F04F9046C8F19C
:1090E000000404F0070485B04444DFF80CB102AF7B
:1090F00005468A463B48114604F10709D8476A46A7
:109100004FEAD903A2EBC3039D4602AB7B60002369
:10911000C7F800B0184699B28C420A463DD86B6930
:109120002344B3F5805F02D92F4B284698476969DD
:109130007A682868DFF8C480234601F51021C0470B
:109140004FEAD9096B46A3EBC9039D460DF1080907
:109150000023FF215A1C9BB29C4229D86969DFF881
:10916000A0802868DFF89CA0DFF89CB023464A4620
:1091700001F51021C0474FF000081FFA88F0844223
:109180006A6919D82244194B6A6119489847686975
:109190000C37001BBD46BDE8F08F414537BF7E68E8
:1091A00079681AF80210B15428BF88540133B2E725
:1091B00009F803101346CDE7796819F8003011F863
:1091C00000C063450BD002F51021CDF800C001446A
:1091D0003E6822465046B047064B5846984708F12D
:1091E0000108CAE7DA980300758F0000B94603004A
:1091F0003C99030081980000F5440300B985020002
:109200004D850200F1980300279903002DE9F04FE6
:109210000024EBB00546884691469A462146444BC9
:10922000DFF850B106944FF4C67207A89847414939
:10923000414F424E6023022206A8D84700940123E2
:109240000222052106A8B847009401230222072123
:1092500006A8B847092319460094022206A8B84771
:109260000094434602220B2106A8B84700944B46BF
:1092700002220D2106A8B847022253460F2100946E
:1092800006A8B84706A8B04706AB74991844D84753
:1092900006A8B04706AB2A4903221844D84706A8B7
:1092A000B0470094034606461FFA80FB04221121B2
:1092B00006A8B84706AA3146224B2348234C9847B4
:1092C000234B2846984753464A4641462148A047E3
:1092D000214B04465A4606A9284698471C4B05933D
:1092E000074684B91D4B1E481E4C9847CDE9007BAC
:1092F000184853464A464146A0472846144B9847CB
:109300006BB0BDE8F08FE378A2786178CDE9010613
:10931000A06800900B4E1448B047A288A168134B78
:1093200028469847124B5A46394620469847E4E764
:1093300099380300D4970300B99E0000895B0300AD
:10934000CD930300F544030047990300ED8E000020
:109350002D8F000078830020D9900000B9460300CB
:1093600064990300118C000069990300F18A0000E0
:109370000D8F0000B14B030070B58B880C4E006858
:109380000C46896801F51021163B15311546B0478A
:10939000A38808482B44002203F8152CA188064B0B
:1093A0002A4698472846054BBDE87040184700BF3D
:1093B0004D8502008E990300F5440300895B03008C
:1093C000012343714FF47F43C38070474079704756
:1093D0002DE9F04F4379EFB005468946002B45D083
:1093E000554CA047EB7904900133DBB20393534B08
:1093F00095F806801868524B02219847012305947E
:1094000099F80920424534D8402300930023194697
:10941000FF224C484C4C4D4FDFF87481A0474C481C
:109420004C4B98474C4B0024012683F8456022465C
:109430004A4BBC74214606A8984703234849009329
:109440000222632306A8C04732460A23454E042160
:1094500006A8B04702220521FB7C06A8B047424B74
:1094600006A89847414B06A898476C716FB0BDE8B5
:10947000F08FD9F80C204FF02C0A08FB0A2A00269E
:109480009AF82420B24204D808F101085FFA88F85B
:10949000B6E71BB1039B9A424CD91E46059B9847E1
:1094A000049BC01A324B9842E0D8DAF82830314F8A
:1094B0009AF8082099F805102F484FF49E7404FB81
:1094C0000634A37AB847074610B38388A3B14FF098
:1094D000000B2A4BCDF818B04FF4C672594607A8B6
:1094E0009847274B06AA394628469847254B06A990
:1094F0002046984784F837B1A37A13B9224B204607
:109500009847EE71013685F80680F6B20023B7E77A
:109510004FF4C6720146194B069007A898471B4B9B
:1095200006A920469847174B06A92046984784F875
:109530003771E1E70023A7E72D670000A848002066
:1095400079D30000084F01200576000054790020EF
:109550009E990300819800009C870020D588000018
:109560005893030075880000A1890000818A0000DB
:10957000C0270900ED8E0000788300209938030091
:10958000799300008DA0000005A60000CDA1000089
:1095900031880000012303747047007C704700008D
:1095A0002DE9F04FEDB0037C02900F46002B41D027
:1095B000394CDFF8E8A0A0474FF000088346039439
:1095C0007B7A5FFA88F4A34237D83448344B354C61
:1095D000354D984700221146344B04A89847032381
:1095E000334900930222612304A8A047314C0A2387
:1095F0000122042104A8A04702220521EB7B04A834
:10960000A0472D4B04A898472C4B04A89847029BD1
:109610002B4800241C742B4B98472B4BAC73012216
:1096200083F8452040230093214623462748284CB1
:10963000FF22A0476DB0BDE8F08FFB682C2202FB33
:1096400004344FF0000994F824305FFA89F5AB42F6
:1096500002D808F10108B3E7A36A4FF49E7202FB37
:109660000535039B98471B4BA0EB0B009842E1D8B4
:1096700095F8373163B16168AB7A227A4979164E31
:1096800005F10B0000905046B047002385F83731B4
:1096900009F10109D7E700BF2D670000788300209A
:1096A0002D8F00003188000054790020D5880000FB
:1096B0005893030075880000A1890000818A00008A
:1096C000AC990300819800009C870020084F01207E
:1096D00005760000C02709000D92000001230372E7
:1096E0007047007A704700002DE9F0432A4DDFF8FB
:1096F000DC80DFF8DC90EBB004460E46A847074656
:10970000E368B3F5801F39D30025244B25722A4620
:10971000294602A8984703232149224F0093022299
:10972000622302A8B847204FDFF8A8800A2301224D
:10973000042102A8C047022205217B7C02A8C04761
:109740001A4B02A898471A4B02A8984721467279EB
:10975000184B194C304698471848194B9847194BE5
:109760003D74012283F845204023009316482B4680
:10977000FF222946A0476BB0BDE8F083A847C01B75
:109780004045F8D8206810224FF41021C847E368FC
:1097900003F50053E360B3E72D670000D5880000B0
:1097A000589303003188000054790020A1890000FB
:1097B000818A0000B59F000005760000BB99030078
:1097C000819800009C870020084F0120C0D4010030
:1097D0003986020075880000C00100F1824000F562
:1097E000004001238B400144436091F8402042F047
:1097F000040281F840208361704710B5029C401A32
:10980000E41A4443511A94FBF1F4E01810BD437874
:1098100000EB8300436801334360704770B500225A
:10982000E8B00546114668460E4B0F4C0F4E984760
:1098300068460F4920230222A0470E2301226846D2
:109840000421B04729466846A0470A4903226846D2
:10985000A047094B68469847084B6846984768B048
:1098600070BD00BFD58800003188000075880000F9
:10987000CA990300CD930300A1890000818A0000EA
:109880000FB430B59BB01EAC002154F8045B0A4BFA
:109890000191602202A89847009423462A4663213A
:1098A000064C01A8A047064B01A898471BB0BDE88D
:1098B000304004B0704700BF99380300FD710300C9
:1098C0001D98000030B56FF02B05848900F12C0342
:1098D0002D1A0022E9188C4201D8828130BD03F88C
:1098E000012BF7E70148024B184700BF0C88002006
:1098F000C59800000148024B184700BF0CC000206B
:10990000C59800000148024B184700BF4C1F0120BA
:10991000C59800000148024B184700BF50190020AD
:10992000C5980000012303764068014B184700BF2B
:10993000B99F02000148024B184700BF0C88002065
:10994000259900000148024B184700BF0CC00020B9
:10995000259900000148024B184700BF4C1F012009
:10996000259900000148024B184700BF50190020FC
:1099700025990000807A030103F1824303F5204317
:1099800000211A6C22F002021A64014B184700BF32
:109990001D7A02000148024B184700BF50190020F1
:1099A000759900000148024B184700BF4C1F012069
:1099B000759900000148024B184700BF0CC00020F9
:1099C000759900000148024B184700BF0C88002021
:1099D000759900002DE9F0471C212C4CDFF8F88028
:1099E0002B4F2C4E2C4DDFF8F4900220A047102175
:1099F0000220A0470C210220A04709210120A047F6
:109A0000264C274A01214046A047264A01213846D4
:109A1000A047254A01213046A047244A0121284673
:109A2000A04701214046C84701213846C8470121C7
:109A30003046C84701212846C8471D4A02214046F2
:109A4000A0471C4A02213846A0471B4A0221304643
:109A5000A0471A4A02212846A047194C19494046F6
:109A6000A04719493846A04718493046A047184929
:109A70002846A047174C4046A0473846A0473046E6
:109A8000A04728462346BDE8F0471847D99700006D
:109A900090540120E85501209855012009A00200AA
:109AA0001599000005990000F5980000E598000060
:109AB000659900005599000045990000359900000E
:109AC000E59F02005079002008BE002058EF0020DA
:109AD000384F01208D9F0200E454012069A002004C
