:10400000D853022091C0020083C0020085C0020084
:1040100087C0020089C002008BC0020000000000BF
:10402000000000000000000000000000015002003D
:104030008DC00200000000003150020095500200C7
:1040400081C0020081C0020081C0020081C0020064
:1040500081C0020081C0020081C0020081C0020054
:1040600081C0020081C0020081C00200F18B020009
:1040700081C0020081C0020081C0020081C0020034
:1040800081C0020081C0020081C0020081C0020024
:1040900081C0020081C0020081C0020081C0020014
:1040A00081C0020081C0020081C0020081C0020004
:1040B00081C00200555D0200815D02006D74020046
:1040C000757402007D740200857402008D74020014
:1040D00081C0020081C0020081C0020081C00200D4
:1040E00081C0020081C0020000000000000000004A
:1040F00000000000E56F020035A5020045A50200A2
:104100004DA5020055A502005DA502006DA50200A7
:1041100075A502007DA5020081C0020081C00200D9
:1041200081C0020081C0020085A50200C9A502006D
:10413000D1A50200D9A50200E1A50200F1A5020067
:10414000F9A5020001A6020009A6020099A6020034
:10415000A1A60200A9A60200B1A60200C1A6020003
:10416000C9A60200D1A6020081C0020081C00200DF
:1041700081C0020081C002000000000000000000B9
:10418000156F02001D6F0200256F02002D6F0200E7
:104190000000000081C0020081C0020081C0020056
:1041A00081C0020081C0020081C0020081C0020003
:1041B00081C0020081C0020081C0020081C00200F3
:1041C00081C0020081C0020081C0020081C00200E3
:1041D00081C0020081C0020081C0020081C00200D3
:1041E00081C0020081C0020081C0020061CA0200D9
:1041F00071CA020081CA020091CA020081C0020095
:1042000081C0020081C0020081C0020081C00200A2
:1042100081C0020081C0020051C0020061C00200E2
:1042200069C0020079C0020081C0020081C00200A2
:1042300081C0020081C0020081C0020081C0020072
:1042400081C0020081C0020081C0020081C0020062
:1042500081C0020081C0020081C0020081C0020052
:1042600081C0020010B5054C237833B9044B13B15B
:104270000448AFF300800123237010BDD008002054
:104280000000000090EA030008B5034B1BB103498E
:104290000348AFF3008008BD00000000D4080020F0
:1042A00090EA030010B40B78812B10D11A4B8A8846
:1042B00019799142194602D05B79934228D1096855
:1042C0000A780023154CA4465DF8044B6047C3F3FD
:1042D0004113012B1CD1104B8A881C7994421C4637
:1042E00002D05B79934213D14B78032B06D00B2B72
:1042F00008D06FF00C005DF8044B704708490023AC
:104300000122DFE74B88237200231A461946D9E7BA
:104310006FF00900EFE700BFEC08002091C2020037
:10432000F408002001292DE9F74F0D46144670D0FE
:10433000022900F09280002940F092808668DFF820
:1043400048811068DFF84491371D20B96FF00900EB
:1043500003B0BDE8F08F4379827803F0FD03012BB1
:10436000F4D13B789A427ED0FF2B7FD1012D07F804
:10437000012B09D023686168187804221844C047CB
:10438000012D42D00125E0E76168DFF804A1052294
:10439000C0478346BBF1000FECD09BF802208DF89C
:1043A00002209BF803208DF803209BF805109BF852
:1043B0000420314B02EB012292B2ADF80420BDF88B
:1043C0000420D2B289F80420012289F800209DF847
:1043D00002009DF80310BDF8042092B2984700280F
:1043E00047D19DF802209DF802001306C0B24CBFD1
:1043F000B071F071D047C4F800B09BF8000061685C
:104400001E4B584498478346C4E71D4B00205D74FB
:104410009EE785682AB113685B7903F0FD03012BE1
:1044200094D12B79A879FF2B1CBFFF232B716B79BB
:10443000FF2B1CBFFF236B71FF2803D0114B984744
:10444000FF23AB71E879FF2803D00E4B9847FF2379
:10445000EB710B4B002058747AE76FF01A0077E786
:104460006FF00C0074E76FF0110071E76FF01B0044
:104470006EE76FF013006BE7F9860200C35202008B
:10448000EC0800205D870200A9520200F817002006
:104490008987020008B50A4B984701280CD80948BB
:1044A000094BC0E90630094B1430984701200849F0
:1044B000084B9847002008BD6FF01000FBE700BFD5
:1044C000C9C60200EC0800202543000071C60200A6
:1044D00000000020E9C5020010B4074C6072A17210
:1044E000E2722373A07904F10901044C0023A4466D
:1044F00004225DF8044B6047EC08002091C20200E2
:104500001FB5044B01A99879034B984705B05DF896
:1045100004FB00BFEC080020B188020010B40A467A
:10452000044C01460448A446C0795DF8044B0023BE
:10453000604700BF91C20200EC08002010B50A4697
:1045400020B1012809D06FF00C0010BD054BD879BF
:104550000221054B98470020F7E7024B022198798A
:10456000F7E700BFEC0800207189020070B5002455
:104570000A4B01710546448148000E469847234680
:1045800028602246D9B28E4203D8AA812A8100200F
:1045900070BD20F813200133F4E700BF6D32030033
:1045A0002DE9F0410A4B0B4EDFF82C800546000147
:1045B0000F46984700243060A54202D10020BDE894
:1045C000F0813068394600EB0410C0470134F3E74E
:1045D0006D320300A04800206D4500002B4B2DE9F3
:1045E000F0470D461968040101EB00130E5993F8CA
:1045F000048000242746A446A2464FF6FF792046B1
:104600005FFA84FEF04532D82918B0FBF8F080B28A
:10461000A84234BF0FFA8CF43CB2C2F1100236F853
:10462000140026F81450081A5D891979B0FBF1F0CE
:10463000D1B284B244FA01F22D1B92B201248A4015
:1046400004FA01F11C89002D96B2B8BF6D42B44244
:104650001AD08D4205DCC1F57F41FF31B14200DB4C
:1046600096B9588101201E819881BDE8F08736F8FF
:1046700014108A453CBF77468A468945084484BF62
:10468000F44689460134BBE70020EEE7A04800204D
:10469000044B1B6803EB00108089003818BF012011
:1046A000704700BFA0480020034B1B6803EB0010BD
:1046B0000023838100897047A0480020F7B5244B70
:1046C000244E04464068984742F64B730025C4E9DF
:1046D000095542F63177E55442F63273FF2204F56C
:1046E0003C50E2540221E2553B30B04704F53C50C7
:1046F000E25D02213930B04742F6477304F53C567B
:104700003336E15C144B0191304698470199134BC5
:10471000024630469847124BE5612046984704F51B
:104720009D53143304F51C523C32194603F8015BC7
:104730009342FBD104F12C03002203F8012B8B429E
:10474000FBD16068074B03B0BDE8F040184700BFDD
:10475000B9990200DD980000219A0000559A0000E6
:10476000D99400008D9902000F4A002310B5023041
:104770001370A0F8EE3320F8021CA0F8E833A0F87C
:10478000EA33A0F8EC33A0F8F033A0F8F233A0F845
:10479000F4331C469AB2914201D8012010BD00F8B2
:1047A000014B0133F6E700BF54470020B0F8EA336D
:1047B000B0F8F22393429BBF0088C018981A801A61
:1047C00080B2704710B50C4B0446984788420BD90D
:1047D000B4F8F23320880B44B3FBF0F200FB123341
:1047E000A4F8F433084610BD044A13780133DBB251
:1047F00013700021F6E700BFAD47000054470020CA
:10480000B0F8F633C2180133917001889BB2B3FB44
:10481000F1F201FB1233A0F8F633012070470000DB
:10482000B0F8F433B0F8F623934217BF054AA0F866
:10483000F2331378013317BFDBB20120137000206D
:10484000704700BF544700202DE9F04F2DED028B3B
:10485000D31D8BB09046DB086A46A2EBC30300224F
:1048600002AF9D460446836A0DF1080941F2883083
:1048700041F2B435944691B2884500F2E3800022BB
:104880004D4641F2883041F2B43C964691B288459B
:1048900000F2E5804344B3FBF0F200FB1233C4E9BD
:1048A000093300232362DFF850A2DFF850B2884BAF
:1048B0000126B04500F2DD802B78012B40F0BC8052
:1048C00005EB080313F8019CB9F10A0F40F0B4801E
:1048D000804B814E414628469847414682462846AD
:1048E000B047824540F0FC816B780F2B40F00C8183
:1048F00007F11F064FF00003DFF804B2FB77022236
:10490000334604212846D847494678603346022278
:104910002846D84733463860022206212846D84721
:10492000C3B27B61A3F17F0A0222334608212846E5
:10493000D847C3B23B61A3F17F09022233460C2161
:104940002846D84742F630734FFA8AFAE35C184497
:1049500000F0030208EE102A4FFA89F943B1012B47
:1049600040F098803B69C3F17F03D1464FFA83FA48
:1049700042F6497397F800B0E35C7F339A445FFADC
:104980008AF3FB6042F64A7314F803A00AF17F0A27
:10499000D1445FFA89F3BB60D7E90423134397F846
:1049A00004A020D0DFF85C91009653460222042137
:1049B0002846C8470096FB68022206212846C847B9
:1049C0000096BB68022208212846C8475B4602229F
:1049D0000A2100962846C84718EE103A009602228F
:1049E0000C212846C847FB683C4803EB0A2ABB68F1
:1049F00003EB0A2A0BEB0A2A394B51469847D8B9E0
:104A0000354B41462846984704F52C54354B024611
:104A10004146284634349847334B41462046984710
:104A200050B1324EA844A8454DD1314B204698474D
:104A30002A48304B514698472437BD46BDEC028B7F
:104A4000BDE8F08FD618B6FBF0F100FB11612144F0
:104A50004E5D09F8026001F805C001320BE7D61877
:104A6000B6FBF0F100FB11612144013201F80CE0CA
:104A70000CE719F80620012A09D1514658469847F3
:104A8000A8EB0608124B1FFA88F809EB0605013659
:104A9000B6B20EE7022B0AD17B69C3F17F0A3B69EC
:104AA0004FFA8AFAC3F17F094FFA89F960E7032BBD
:104AB00005D17B69C3F17F03CA469946F4E74FF0FD
:104AC0000009CA4654E715F8011B2046B047AAE77B
:104AD000E53F0300399A0000219A00000478002085
:104AE000919A0000559A0000C54700000148000057
:104AF00021480000AB9A0000788C03008B8C0300E7
:104B0000659A00007D9A00000E2B40F0E580AB789E
:104B1000072B91D1DFF8DC910022022105F108007A
:104B2000C84700225FFA80FA0221A81DC84742F652
:104B30004B725FFA80FBA25C002A72D142F6317997
:104B400014F80920FF2A1BD1664A6748904700F0F5
:104B50007F0204F53C5004F80920644B02213930EF
:104B6000984704F53C5942F6477209F13309A15CB4
:104B700079614846B04779695D4B02464846984797
:104B800042F63272A15C594517D004F53C5004F846
:104B900002B0564B5A4602213B30984704F53C5927
:104BA00042F6477309F13309E15C79614846B04741
:104BB00079694F4B02464846984742F63173E35CA9
:104BC000534529D1627AEB789B1A06335A4202F098
:104BD000030203F0030358BF534242F63072A8F1B8
:104BE0000A00A3540221434B00222844984742F66E
:104BF0002C730122E05042F64B733F49E2543F4888
:104C00003F4B404D984700234FF4FA72CDE90032F4
:104C10003548FF221946A84742F648730122E2545C
:104C20000AE7617AEA78521A0632514242F6317046
:104C300042F6327C01F00301205C14F80CC002F053
:104C4000030258BF4A4242F63071504508BFDC4566
:104C5000615C0CBF4FF0010A4FF0000A42F62C7362
:104C6000A8F10A008A4214BF4FF0000A0AF0010AB4
:104C700028440022022154F803B0C847584503D104
:104C8000BAF1000F7FF4D8AE42F64B730022E25423
:104C900042F6317842F63273FF2204F53C50E2547A
:104CA000124D04F8082002213B30A84704F53C507F
:104CB00014F8082002213930A84742F6477304F55A
:104CC0003C553335E15C79612846B0477969084B3A
:104CD000024628469847AFE60B480C4B9847ABE690
:104CE0000B48FAE7FF97000004780020DD980000E9
:104CF000559A0000B5980000B08C03008B8C03001F
:104D0000E53F030069980000B88C0300A941030047
:104D1000EE8C0300F7B5037E012B04460DD1002570
:104D20000576534B98474FF4FA73CDE90053FF23B0
:104D30005048514D1A461946A847256A7DBB6368FD
:104D4000CBB1E369B3F57A7F3ED942F64B73E35CAE
:104D5000012B2CD149494A4B4A489847444B20469D
:104D600098474FF4FA73CDE90053FF234148424D71
:104D70001A461946A84741F287364FF4F57141F2B9
:104D8000B430B44641F2883741F2863E626AA318D5
:104D90001B5C0A2B1BD100230125C4E90735D4E98C
:104DA0000921914259D302F59C52093256E0A36A77
:104DB00013B9636A002BDED03349314B3148984731
:104DC0002B4B20469847D6E70133E361D3E723B95D
:104DD000236A002BE3D103B0F0BDA56A6B1E9A4293
:104DE0000DD1234B204698470223C820CDE900303F
:104DF00000231A46FF211F481F4CA047EBE7B24291
:104E00000BD155B91A4B204698470223C821CDE94A
:104E10000031FF222B462946EDE76544B5FBF7F349
:104E200007FB135525442B5C53B1114B2046984783
:104E30000223C822CDE900320022FF231146DAE71F
:104E4000724501F1FF3198BF013289B2E36194BF2D
:104E500062626362002999D1BAE70132521A0B4BA0
:104E600092B289B22046984700232362B3E700BF7D
:104E7000BD4600000478002069980000218D0300E1
:104E8000E53F03008B8C0300458D0300494800007B
:104E9000B0F8EC13B0F8EE338B42F0B5024600D018
:104EA000FEE7B0F8EA63B34200D0FEE7B0F8F27371
:104EB000BE4216D005880024A3B29D4200D8FEE76A
:104EC0003019B0FBF5F105FB110188B2874208D01B
:104ED0001144013398B28B780A2B04F10104EBD111
:104EE000F0BD0020FCE7B0F8EC23B0F8EE339342BD
:104EF000F0B500D0FEE7B0F8EA53AB4200D0FEE7D1
:104F0000B0F8F263B54220D001880024A3B29942E0
:104F100000D8FEE72F19B7FBF1F201FB127297B22E
:104F2000BE4212D087180133BF780A2F9BB204F11A
:104F30000104EBD10132B2FBF1F401FB1422A0F821
:104F4000EC23A0F8F0331846F0BD0023FBE7B0F8DF
:104F5000EE33B0F8EC13994210B502460BD014882A
:104F6000C11801339BB28878B3FBF4F104FB113311
:104F7000A2F8EE3310BDFEE7B0F8EC23B0F8EE3344
:104F8000934200D0FEE7A0F8EA330120704700000A
:104F90002DE9F043044600F51C5087B0DFF850813E
:104FA0000D463C304FF47A7116461F46C04704F553
:104FB0002C504FF47A713430C04700209DF83830BF
:104FC000206041F28832A3726772034665602672E0
:104FD000A0812062E1180133934281F82C00F9D1BD
:104FE000002341F2B4311D4641F28832E01801330A
:104FF00093424554FAD142F62C7342F6307142F690
:1050000031706554E55042F64B730122FF27E2549C
:10501000275442F632709642275442F6487025547F
:1050200057D1E55465542C4B2C4894F80990984777
:1050300004F53C58042308F13308CDE904735FFA02
:1050400089F9072332462649CDF80490CDE90207B5
:10505000DFF8A090009340460E23C847214B4046FE
:10506000984742F64773C0B2E054404614F80390A4
:10507000E15C1D4B98475FFA89F91C4B0246494693
:1050800040469847637A112B08D142F64973E5549C
:1050900042F64A73E65407B0BDE8F083637A122BF8
:1050A00006D142F64973E65442F64A73E554F2E7F4
:1050B000637A132B06D142F64973E55442F64A73DC
:1050C000E754E8E7637A142BE5D142F64973E754D5
:1050D000EAE7E254DFE700BF4199000004780020CE
:1050E0005E8D030079560300219A0000559A000056
:1050F00069470000A14603002DE9F34700261C4D37
:105100001C491D480096012411230122A8474FF095
:105110000209224619491A4800941223A847032776
:10512000224618491848CDF800901323A847DFF805
:10513000688000972246154915481423A8474FF068
:10514000FF0A3A46134FCDF800A033463146404699
:10515000A8473346CDF800A04A4631463846A8470E
:1051600042F64B7308F80340FC5402B0BDE8F087E8
:10517000914F0000F451012008180020A051012097
:10518000541C0120F8520120B4BC0020A852012078
:10519000B486002008EC0020A84800202DE9F04F3C
:1051A00000F52C5891B008F1340802AF5C4B7960DF
:1051B0000646404698470546002800F0AF80594B08
:1051C000BB60594BFB60594B3B61594B7B61594B61
:1051D000BB61594BFB61EB4607F108034FF0060931
:1051E000002442F64B7153F8042B505C38B107F1A0
:1051F000380000EB8400013440F8182CE4B209F1C7
:10520000FF3919F0FF09EED14C4A494607F1200A4F
:1052100042F23C7CC8B2844205D8494B404698478C
:10522000A84247D0FEE75AF82100B04201D17B687E
:10523000B3B160449047A842404A42F23C7C0FD24E
:105240000223C822CDE9003264223E483E4C0023AE
:105250001146A047DD4648463C37BD46BDE8F08FC5
:105260000131D7E75AF82900B04201D1796829B154
:10527000184429469047354A42F23C7309F1010926
:105280005FFA89F18C42EDD84FF0000A1FFA8AF3D9
:105290009D42404616D82E4BDFF8C090984707F144
:1052A0002005002142F23C78CBB29C422CD84FF032
:1052B0000109CFE7254A4FF0000907F1200A42F221
:1052C0003C73DDE7234B98474FF00009014607F197
:1052D000200342F23C7C5FFA89F0844202D80AF152
:1052E000010AD3E753F82900B04201D17A6842B1EC
:1052F000194B396060449847396807F1200342F23E
:105300003C7C09F10109E6E755F82100B04201D1E2
:105310007B680BB14044C8470131C5E781469AE735
:10532000914E000008180020541C0120B4BC00203D
:10533000B4860020A848002008EC0020AD470000FB
:10534000E74E00000478002069980000C54700007F
:10535000794F00004F4F0000014800002148000035
:105360002DE9F04F00F51C563C36604BEDB004467D
:1053700030469847054610B96DB0BDE8F08F04F18E
:105380002C0804F59D5414344346C346002203F808
:10539000012BA342FBD105AC554B20469847554BFA
:1053A00030469847C2464FF000091FFA89F18D42F6
:1053B000514A30461ED8514B514E9847514B2046CA
:1053C0009847514B204698474FF000094D46D4F876
:1053D00094211FFA89F39A4217D84C4B4C4F204620
:1053E000984700250646B542294678D1494B58468C
:1053F0009847C1E79047484B0746014620469847E3
:1054000009F101090AF8017BCFE723441B7D022B38
:1054100004D15FFA89F509F10109D8E7032BFAD124
:105420000DB90025F7E72946012220460095B0472F
:105430000099C5B2012304222046B0470099C0B2AA
:1054400055BB0E28EDD10223052220460191B0471D
:1054500001990090022307222046B0470199C7B264
:10546000022309222046B047019982460B220223DB
:105470002046B0473B098DF80C30009B8DF80EA0FC
:105480001F438DF80D708DF80F000398234B98473C
:105490000398234B9847BEE7912DC2D10E28C0D167
:1054A0000123052220460091B047009907460123B9
:1054B00006222046B04700990546022307222046CF
:1054C000B0470A2203AB8DF80D708DF80C008DF8F3
:1054D0000E50049293E80300124B9847A1E7204630
:1054E000B847013508F8010B7DE700BF914E000079
:1054F000BD850000E74E00004F4F0000794F0000CF
:1055000085850000A1840000E18400004185000041
:10551000B38600000D5802006586000079AC0000DB
:10552000A1AC000089AD00002DE9F04F2DED028BFC
:1055300000F51C543C34ADF2B44D8E4B20469847D8
:105540000025099028B90DF2B44DBDEC028BBDE8E1
:10555000F08F894B61954FF4C672294662A898472F
:10556000864B874F2046984761AE099AABB293426B
:1055700020464CD3834B844D984700240DF14603BD
:105580000222062130468DF84640A847C3B2079351
:1055900002220DF1460308213046A847C3B20A9300
:1055A00002220DF146030C213046A847C3B20D93E9
:1055B000079B7F2B2FD10A9BA3F17F056B426B4189
:1055C000CDE9053423460022CDE90B228DF8472092
:1055D00004921446059A42EA030B069B43EA0B0326
:1055E0000893049B0DF5C27813F80810022927D1FF
:1055F0000B9B9DF810400133DBB20B93049B099A7F
:1056000001330493BDF810309342EAD39BE7B847C7
:1056100070550135A9E7079B3BB90A9B079AB3FA76
:1056200083F3CDE905225B09CDE7079B0A9A059430
:105630001340A3F1FF014B424B4106932346C2E7BF
:105640000329DBD1002CD9D0DDE90B329F1A012FC1
:10565000D4D113460133601CDBB2DFF864910C93A4
:105660000DF147024044C847C6B2201D39460DF12E
:1056700047024044C847302E2546C7B214D10534EE
:105680000DF14702022108EB0400C8470E2F09D193
:10569000C4B23E493E4B3F48224698473E483F4BA6
:1056A000214698470024A9E7852E42D10E2FF9D133
:1056B000089C002CA2D0681D0DF147020421404433
:1056C000C84700212C4BC5910446C422C6A8984760
:1056D000A4B205F10901324B22464144C5A89847BE
:1056E0003049314B0622C5A89847E0B9E51EC5AB45
:1056F0005B5D202B17D1C5AB234413F8022C3F2A46
:1057000011D113F8013C3E2B0DD1C5AA2146274BE0
:1057100027489847C5AA002353550DF21A31254B47
:1057200025489847BEE7214B2448C5AA21469847FB
:10573000B8E7102E40F02781053408EB04000DF186
:1057400047020221C84710F0FF043FF457AF012C75
:1057500038D1079BA3F17F020F4B52B283F831205F
:105760000A9A7F3A52B283F832200D9A83F8332096
:1057700098E700BF914E000089330300E74E000018
:105780004F4F0000794F0000659A000020820020F2
:10579000719B0000F477002004780020B997000086
:1057A000AD560300788D030089560300E53F0300E2
:1057B0007F8D0300C9B9000060470020918D030070
:1057C000B5980000FF2C7FF46DAFAA48AA4BAB4DF3
:1057D000AB4FDFF8D8829847002634466B78F1B299
:1057E0008B4200F29680A74BA74DA84EDFF8D882D7
:1057F000DFF8D892DFF8B4A2C5A898477F221146F7
:105800000023C5A8A8470025A14B16954FF4947214
:10581000294617A8984751239E4A009340F22B111E
:10582000022316A8B0479C4B16A8984786B298F852
:105830000620EBB2AF009A42BFB279D816AB032272
:105840009649DFF88C92964DDFF888A29819954B0F
:1058500098474FF00D0816A9C5A8C8470123042290
:105860000021C5A8CDF80080A84705220021042307
:105870000097C5A8A847C5A8D0478B4B7E4FC5A8A1
:1058800098478A4BCAA898478948B847002C3FF4E4
:10589000B5AEC5A87B4B7C4C7C4E98477F22114609
:1058A000C5A80023A04700242146794B16944FF445
:1058B000947217A898474223764A009340F22B111E
:1058C000022316A8B047744B16A8984716AB1A18AF
:1058D0004FF6FF71774B6948984716A90646C5A849
:1058E000C8472146C5A8CDF8008001230422A84757
:1058F000052221460423C5A80096A847C5A8D0477D
:10590000694BC5A89847694BCAA898476848B847E3
:1059100074E62B695B5C4BB1E869AB696A69405C12
:105920005B5C525C00903846C0470124013655E765
:10593000D8F808202C2101FB03235A7A197A012A6E
:105940001AD19B691B7A574F1A464846CDE90E1368
:10595000D04716AB334408EE103ADDE90E1318EECB
:10596000100A0A465449B84718EE100A4A4B98479D
:10597000304486B201355AE7032A0ABF9B690023E7
:1059800093F82430DFE7402E30D10E2F7FF48AAE1B
:10599000DDE9053253EA02043FF430AE61AB681D25
:1059A000464F0DF1470202211844B84761ABC4B21B
:1059B000E81D0DF1470202211844B84761ABC6B299
:1059C00005F109000DF1470202211844B84783B2DE
:1059D0005B00FF2BDCBF400000F0FE03384D274882
:1059E000C8BFFF2332462146A8475BE6412E73D14C
:1059F0000E2F7FF457AEDDE9053253EA02043FF47F
:105A0000FDAD61AB681D2D4E0DF14702022118441A
:105A1000B04761AB0746E81D0DF14702022118446B
:105A2000B04761AB804605F109000DF14702022144
:105A30001844B04761AB814605F10B000DF14702F8
:105A400002211844B04761AB044605F10D000DF189
:105A5000470202211844B047E4B2C0B2019000945A
:105A60000648184C5FFA89F35FFA88F2F9B2A0474A
:105A700018E600BFAA8D0300A94103001C4C0120B9
:105A8000BC8D0300BD850000F185000001460300C8
:105A900089330300CF8D0300795603001C8E030069
:105AA000A1850000A1460300BD870000E53F03007B
:105AB000CB910300F1750000EC8D0300B598000058
:105AC0000972000099710000F4770020DB8D03005B
:105AD00055850000E9860000112E52D10F2F7FF46A
:105AE000E1AD0BF0FF04BBF1000F3FF487AD1022D6
:105AF00000218D4D8D4C12A8A8478D4B12A89847B8
:105B00008C4BC5A898477F2200231146C5A8A04703
:105B100000242E22214617A81694A84711230322F9
:105B2000CDE90032844D854A0223312116A8A847C9
:105B30000D26834B834D16A9C5A89847012304223F
:105B40002146C5A80096A847129B0093052208236A
:105B50002146C5A8A847139B009332460823214637
:105B6000C5A8A847149B0093152208232146C5A861
:105B7000A847159B00931D2208232146C5A8A847C6
:105B800039E0142E3ED10F2F7FF48CADBBF1000F06
:105B90003FF488AD674B654C674DC5A898477F2299
:105BA00011460023C5A8A04700245F4B16942E225F
:105BB000214617A898470323CDE90063624A614E46
:105BC0000223312116A8A8475D4B604D16A9C5A830
:105BD00098470D230093042201232146C5A8B0470E
:105BE0002B680093052208232146C5A8B0472B68DF
:105BF0002B682B682B68564BC5A89847554BC5A8F2
:105C00009847FBE4122E33D10F2F7FF44BAD0BF0EE
:105C1000FF04BBF1000F3FF4F1AC464B434C464D43
:105C2000C5A898477F2211460023C5A8A047002495
:105C30003D4B16942E22214617A898470323464A27
:105C4000CDE900633121022316A8A8473C4B3D4D06
:105C500016A9C5A898470D230093042201232146C5
:105C6000C5A8A847394B1B7900930522022384E776
:105C7000132E13D10E2F7FF415AD059B002B3FF48F
:105C800011ADBFF34F8F3549354BCA6802F4E0625E
:105C90001343CB60BFF34F8F00BFFDE7612E0BD1E5
:105CA0000E2F7FF4FFACBBF1000F3FF4FBAC2D498E
:105CB0002D482E4B9847F5E4622E0CD10E2F7FF421
:105CC000F1AC0BF0FF04BBF1000F3FF497AC25499A
:105CD0002548274BEEE7602E40F043810F2F4DD132
:105CE000BBF1000F3FF4DEAC04F10B01214F0023A8
:105CF0000222C9B261A8B84704F10D01054600238C
:105D00000222C9B261A8B8470F340646E1B20023A7
:105D1000022261A8B847C0B200901249164C12483E
:105D2000F3B2EAB2A047BDE489330300F185000075
:105D300015990000BD85000001460300F58D0300A4
:105D400055850000A18500001F8E03000478002007
:105D5000E9860000BD870000318E030000ED00E001
:105D60000400FA0520820020F47700204991000009
:105D700015920000659A00006D9F00000E2F7FF4C1
:105D800091ACDDF8208043464FF00009002B3FF432
:105D900089AC944B944F83F84590611D4B46022289
:105DA000C9B261A8B847E11D06464B460222C9B2F6
:105DB00061A8B84704F109014B4605460222C9B261
:105DC00061A8F6B2B847012E884B40F0A880EDB22A
:105DD000012D40F0A480C0B2092840F0A080844882
:105DE000814D984704F10B0100230222C9B261A83A
:105DF000A84704F10D01814600230222C9B261A81F
:105E0000A84704F10F01074600230222C9B261A886
:105E1000A84704F11101064600230422C9B261A873
:105E2000A847153461AB1C4485B25FFA89F9635DFC
:105E3000032BFFB2F6B240F08880002363553A4648
:105E40003346CDE900546B48DFF8E8A14946D04716
:105E5000694B5A794A4564D04FF0000803236355D3
:105E6000C5A8664B664C674D98477F221146C5A86A
:105E70000023A04703230024009302226249ADF8C7
:105E80006040602316A84FF0010ACDE91644A847E8
:105E900016A9C5A85D4B5E4D98472146C5A8CDF80B
:105EA00000A002230522A8472146C5A8CDF800A0DE
:105EB00002230722A847092200922146C5A80223EF
:105EC000A8472146C5A8CDF8009002230B22A84779
:105ED0002146C5A8009702230D22A8472146C5A840
:105EE000009602230F22A84704232146C5A8009448
:105EF0001122A847D0450BBF0A230B230093009320
:105F00000CBF4346534604222146C5A8A847414B2F
:105F1000C5A89847404BC5A89847FFF7C3BB3F4863
:105F20005EE79B682C2000FB073031463C4B9847CE
:105F30008246002890D021463A4B98472B4B3A484E
:105F400098473A4B5046984788E7CDE9013438489E
:105F5000384C009533463A464946A0474FF0000872
:105F60007EE7902E7FF49EAB0E2F7FF49BAB0BF061
:105F7000FF04BBF1000F3FF441AB0DF596635819D8
:105F80000DF1470202212C4B164D1D4CA0F227307B
:105F900098471A4B85F84500C5A898477F221146B7
:105FA0000023C5A8A047032300240222234900930D
:105FB00016A83346134EADF86040CDE91644B047FD
:105FC000124B16A9C5A8984795F8453000930522AD
:105FD00002230F4D2146C5A8A8470A230093042297
:105FE0000123CAE544860020659A0000A941030008
:105FF0003D8E03006C8E0300F4770020BD85000009
:10600000F1850000A1460300C38E03005585000002
:10601000A1850000E9860000BD870000498E0300CD
:10602000459F0000499C0000888E0300E1A100000C
:10603000948E0300E53F0300B5980000318E030005
:106040002DE9F047878905461FBB00F51C563C36F5
:10605000114B304698470446A0B1104BDFF848A0DA
:10606000304605F12C089847C146AC81BBB29C4232
:10607000304609D80A4B9847AA896868094B4946AF
:1060800098470120BDE8F087D047013708F8010B99
:10609000ECE70020F6E700BF914E0000E74E00005D
:1060A000794F0000694F02004F4F000037B50E4B8B
:1060B000054601A898470D4A6B09D90102EBC313A5
:1060C00051581A6A1C690A4B54400C4001A85440AC
:1060D00005F01F059847012000FA05F5254208BF85
:1060E000002003B030BD00BFB5AD0200008000410C
:1060F000C3AD020000F01F0330B501259D404009EB
:106100000F4BC0010129ACB24FEA1542034408D03D
:10611000022944F0804442F040420ED05D609C620F
:1061200009E044F0804444F4003442F040425D60B1
:1061300042F400329C629A6230BD9D60EFE700BF7E
:106140000080004100F01F0201294FEA5010144B5B
:106150004FEAC0100AD0022914D00344134493F824
:10616000402002F0FB0283F8402070470344914036
:106170001A44596092F8400040F0040082F8400050
:10618000996170470344012191401A44596092F883
:10619000400040F0040082F840005961704700BFA1
:1061A000008000412DE9F04F0021A5B0C0E90011A9
:1061B000C0E90211A34BA44CA44DA54F10220646E2
:1061C00007A89847A34BA44AA449A548DFF8C4C22E
:1061D000DFF8C4E2CDE90B23A24B0D9303F1285362
:1061E00003F5003303F2FA230E939F4BCDE90F130F
:1061F0009E4BCDE911039E4BCDE913439D4BCDE959
:1062000015539D4B179303F1A85303F5A01303F205
:106210000223189303F140331993984B984DCDE91D
:106220001A7303F1614303F5620303F204431C9301
:1062300003F1806303F5783303F5F1731D93914BFC
:10624000914FCDE91EC303F1424303F5842303F2CA
:10625000222320938D4BCDE921E303F1644303F521
:10626000003303F5A17323930BAB03930123039A2C
:1062700012F8014B0392EF2C41D8642003F1620223
:10628000B2FBF0F100FB112124AA11440193B3FBEE
:10629000F0F200FB123224AB1A4411F864BC12F87D
:1062A00064AC01212046A84702212046B847784B1C
:1062B00020469847002181462046A84700212046D5
:1062C000B847019BB9F1000F1FD019219C1E24A8CB
:1062D00094FBF1F200EB820001FB1242D2B20121E9
:1062E00001FA02F250F8741C0A4340F8742C079A21
:1062F0003260089A7260099AB2600A9AF2600133B9
:10630000652BB4D125B0BDE8F08F01212046029362
:10631000A84701212046B8475D4B2046984749468B
:1063200001902046A8472046B847DDE90123002A0E
:10633000CBD0BBF1EF0F41D9BAF1EF0FDFD801217C
:1063400020464FEA5A1802934FEAC818A84702217C
:106350002046B84708F1824802215046A84708F570
:10636000004801210AF01F0B01FA0BFB484AC8F84C
:1063700018B020469047012181462046A8470121B8
:106380002046B84702215046A847414AC8F814B0F1
:1063900020469047019B0021002808BF99462046CF
:1063A000A84700215046A84700212046B847029B35
:1063B000C8F814B0B9F1000FA1D086E7012120463A
:1063C0004FEA5B1805934FEAC818A84702212046F8
:1063D000B84708F1824802215846A84708F5004806
:1063E00001210BF01F0201FA02F2C8F81820284B15
:1063F000049220469847012102902046A847012197
:106400002046B84702215846A847049AC8F81420E5
:106410001F4B049220469847DDE901234946002896
:1064200008BF134620460293A8475846A84720466F
:10643000B847049AC8F81420029A059B002A3FF432
:106440007BAF42E7893303002A2B2C2D4A4B4C4D5E
:106450005455FEFD41424302230001402904050634
:10646000FEFD0809032425FE074546470A0BFDFEED
:106470002E2FFEFD4E4F0C0D0E0FFEFD3031323330
:10648000F56000003839585945610000FD1E1F3E77
:10649000AD600000FEFD3637FCF8FEF72DE9F04F49
:1064A000214F224DDFF8ACA0DFF8AC8087B0044666
:1064B0001F48B8471F484FF0FF33C3621E4B984731
:1064C00001461E48A847102200211D4B02A89847EC
:1064D0001C4B02A89847059B009302991A48DDE9D6
:1064E0000323A8470026194B0A20984731465046F7
:1064F000A8474FF000094FF0010B21680BFA09F291
:106500000A4214BF3120302009F10109C047B9F116
:10651000200FF2D10E480136B847042E04F10404CE
:10652000E1D107B0BDE8F08FA9410300E53F0300CA
:10653000548F030004780020419900006B8F030002
:1065400089330300159900007B8F0300656F0200FB
:10655000CB9103009F8F0300A54003000A480B491D
:10656000036810B473B10A4C226842F08072226052
:10657000084A002443F001031460036006485DF8F4
:10658000044B08470548FAE7001000E0A941030062
:10659000FCED00E0041000E0B18F0300D18F030098
:1065A00070B5084D084B094C984709492846A04743
:1065B00008492846A047284623460749BDE87040B9
:1065C000184700BF8B8C03005D650000E53F0300AA
:1065D000F78F03000A90030017900300014B18681F
:1065E000704700BF041000E0F0B51D4D1D4B85B095
:1065F000012422214FF400622846ADF8004098475C
:10660000AB8FADF8043002940023174CADF8063080
:1066100001A92846CDF80CD0A04710B11348144B5F
:106620009847144E37686B88DA05FCD448F20103AA
:106630000B48ADF8063001A9A04710B10B480C4B30
:1066400098476B88DB05FCD433689DF800100A4836
:10665000DB1B7822B3FBF2F2084B984705B0F0BD84
:106660002051012001520200315202002890030003
:10667000A9410300041000E033900300E53F03004C
:10668000F0B51E4D1E4C85B00323ADF800304A21F5
:106690001C4B4FF4006228469847AB8FADF804308E
:1066A0000123029301A900232846ADF80630CDF856
:1066B0000CD0A04710B11448144B9847144E3768BB
:1066C0006B88DA05FCD448F201030C48ADF80630BB
:1066D00001A9A04710B10C480C4B98476B88DB050B
:1066E000FCD433689DF800100A48DB1B7822B3FB0A
:1066F000F2F2094B984705B0F0BD00BF20510120D0
:10670000315202000152020028900300A941030007
:10671000041000E033900300E53F030058B1837A92
:10672000013383720023C372037C0BB9012303740A
:10673000014B1B68C3607047041000E030B5F0B136
:106740000F49C3680A68C47AD21A00EB84035D6EED
:1067500015445D665D69954200D805B95A61DD6BE7
:10676000954238BFDA63082C9CBF0134C472037CA5
:10677000C27A9A4224BF013303740B68C36030BDF0
:10678000041000E090B10A4BC2681B689B1AC27AE1
:1067900000EB8200426E1A44426642699A4200D877
:1067A00002B94361C26B9A4238BFC363704700BFEE
:1067B000041000E060B100F1140200F13C0100237C
:1067C00042F8043B8A425362D364F9D14381C360E7
:1067D0007047000010B5044648B1054B09229847A0
:1067E000002323742046034BBDE81040184710BD1A
:1067F000AD560300B5670000002380F8FE30021D8F
:10680000FE3002F8013B8242FBD17047002380F842
:10681000FA3100F1FF0200F2F91002F8013B824266
:10682000FBD1704710B500230360044B0146984725
:10683000BDE81040024B0846184700BFF96700004A
:106840000D680000016070470268034612F8010BF2
:106850001A60704730B5016811F8013B01600246CB
:106860000A25A3F1300011680B78A3F13004092C3C
:1068700000D930BD013105FB00331160A3F13000B8
:10688000F1E70000F8B52A4E2A4F0546B047044606
:106890002A68137803F0FD013C2904D03D2B43D135
:1068A00051783D2942D1511C29603E2B527808D1A4
:1068B0003D2A284628D0B047A042ACBF002401247E
:1068C000E6E73C2B08D13D2A284625D0B047A04218
:1068D000D4BF00240124DBE73D2B09D13D2AD7D1C9
:1068E0002846B8472846B047031B5C425C41CFE7C7
:1068F000212BCDD13D2ACBD12846B8472846B047D9
:10690000041B18BF0124C3E7B8472846B047A0427C
:10691000CCBF00240124BBE7B8472846B047A042BB
:10692000B4BF00240124B3E7212BB9D02046F8BD21
:10693000F169000049680000134970B5044601255B
:1069400023681B782F2B08D9392B18D80F4B2046DA
:106950009847014605FB01F070BD282B09D10A4E6E
:106960002046B0470A4B2046984701462046B0478C
:10697000F0E72D2B03D1204688476D42E0E705481C
:10698000054B98470021E5E749680000556800007D
:10699000856800004B900300A9410300F8B5134E31
:1069A0000546B04740F2214704462A681178A1F114
:1069B0002503DBB20A2B03D827FA03F3DB0701D444
:1069C0002046F8BD01322A292A60284602D1B04764
:1069D0004443EAE7252905D1B04794FBF0F303FBD4
:1069E0001044E2E7B04794FBF0F4DEE739690000B9
:1069F00070B50B4E0546B04704462B681A782B2A13
:106A000003D02D2A01D0204670BD01332B2A2B60E4
:106A1000284602D1B0470444EFE7B047241AECE718
:106A20009D69000070B59AB004460B4B15460E46A2
:106A30006022002102A801919847A11901A8074EE0
:106A4000B04729462046B047054B2846984701A93C
:106A50002044B0471AB070BD89330300BB47030020
:106A600079560300002330B51A461C468B420CDAD7
:106A7000C55C282D03F1010301D10132F6E7292D70
:106A8000F4D10134A242F1D1184630BD2DE9F04FC6
:106A9000824BABB0282180469847A0EB0802814684
:106AA000002300920099DAB28A4203F10103F9DB74
:106AB0007B4B7C4F484698477B4B0146484698475E
:106AC0002822861E002107A8B84700252C46B5427B
:106AD0002ADA09EB050A5246AB4612F8011FCDF837
:106AE00004B02C290BF1010B00F0CC805E45F4DCE6
:106AF0004FF000094946102212A8CDF84490751BAA
:106B0000B847494611AB03E01AF8012F5A54013136
:106B10008D42F9DC049304A8644B98472AAB03EB3D
:106B20008403013443F88C0C002304AACDE9043318
:106B3000ADF8183008F1080008F1FF33934613F858
:106B4000011F282927D15A495A4DDFF89CA15846E0
:106B5000A8470DF1440918B357495846A8470028DB
:106B600000F08E8055495846A847002830D1DDE90D
:106B700007531D4418E01AF8010F8854013295425A
:106B8000F9DC4A4B049104A8984707AB5D4643F8EB
:106B9000240001349BE7834202F8011BCFD1D2E7E6
:106BA000079D002DB8BF6D420021602212A81191EF
:106BB000B8472A4642494846D047009B33441946C5
:106BC0004A46404B0231404698472BB0BDE8F08F13
:106BD0003D495846A84720B13C495846A847002897
:106BE0003ED13B4B012C18681B7902908DF80C307C
:106BF0000ADD2AAB03EB840353F8903C082BD4BF87
:106C0000303338238DF80A300021102212A8119158
:106C1000B847079D02A92A464846D047012C2D4A6D
:106C2000C4BF2AAB03EB840492F8FA31C8BF14F84E
:106C3000901CD8B2C3F5FC73D8BF022101335B1A94
:106C4000134400245FFA84FC8C4503D3014482F88A
:106C5000FA11A9E719F804C003F801CB0134F1E7F0
:106C60001D495846A84728B9079B0BB1089D9BE7CB
:106C7000099D99E719481A4B59469847002593E70B
:106C8000184D91E70023194611931022054B12A8C5
:106C90009847019B00225D1B11A970E789470300FB
:106CA0007956030089330300656A00008568000097
:106CB00063900300A347030067900300E4BD030053
:106CC0008B900300256A00006B900300C0AC0300AA
:106CD000F08D030000B600207AC703007190030016
:106CE000E53F03002A2C0A00A1460300A0F130036F
:106CF000092B09D920F02003413B192B04D9A0F11D
:106D00005F03584258417047012070472DE9F04F0A
:106D10002DED028B0022A1B0CDE90122DFF83CA2CB
:106D2000ADF80C200D4646184FF0FF3B114691463A
:106D3000002D04DA21B0BDEC028BBDE8F08F08EE27
:106D4000106A16F801492046D047B9F1000F11D05A
:106D5000B0F1000918BF4FF00109002944D1002308
:106D600001AA194601330A2B02F8011BFAD10022AD
:106D700011464CE0002937D10028F0D0B378282BF9
:106D800000F0CD80A4F13003092B88BF0122AB466F
:106D9000ABEB050320A90B4403F87C4C303C092CD9
:106DA00024D925B13078D047002840F0B6805E4B1A
:106DB00001A898470023CDE9043301AA8046024484
:106DC000ADF8183004A91846434502F1FF3220DB24
:106DD000A8F10203012B64D89DF81030542B5ED12A
:106DE0000123002218462DE00028D1D1002AD8D155
:106DF00001247078D0470146002840F0938001AA12
:106E0000034601330A2B02F8010BFAD10022013D9F
:106E10008EE714780C70013301F8010FD4E720A934
:106E20001944013311F8701CA1F13004092C9FBFE3
:106E300002EB820201EB4202303A02F0FF0288BF0D
:106E40000020DBB24345EADB58B3384B1B685B6874
:106E50009B6953F82240364B00276022394608A828
:106E6000079798473349344B224607A89847334B36
:106E700007AA414618EE100A984701AB1A46394650
:106E800001370A2F02F8011BFAD100221146013204
:106E90000A2A03F8011BFAD100221446A9E75A2B4B
:106EA0001ED00124D7E720A91144013211F8701C2B
:106EB000A1F13004092C9FBF03EB830301EB4303D3
:106EC000303B03F0FF0388BF0020D2B24245EADB2B
:106ED0000028E6D043B91A481A4B98470446BAE747
:106EE000012200231046F1E7012B02D11448164B72
:106EF000F3E7022B02D11248144BEEE7032B02D129
:106F00000F48134BE9E7042B02D10D48114BE4E77E
:106F1000052BC6D10A48104BDFE70122BDE74FF031
:106F200001091CE7214672E77956030000B60020EC
:106F30008933030067940300A1460300256A00001B
:106F4000047800207D97000081970000879700005B
:106F50008D9700009397000097970000ED6C00005C
:106F60002DE9F0470022DFF86880184F44180546E5
:106F70001146B4EB050A01D5BDE8F0872678282E26
:106F800000D1E2B1C9B13046C047814658B1303E68
:106F9000092E16D8BAF1000F0FD172B12046B847AA
:106FA0000022114609E0002AFBD0601CB847217876
:106FB000A1F12803594259414A46013CD9E7012130
:106FC000FBE7BAF1000FE9D00A46F6E78D6A000048
:106FD000ED6C000073B5124B04460E4611469847FF
:106FE000104B20469847221D00231546994211D880
:106FF00084F8FE100C4B2846984794F8FE100B4B73
:10700000284698470A4B019501A89847C4F8FC0107
:1070100002B070BDF05C02F8010B0133E6E700BF7F
:10702000F96700000D6800000D6D0000616F000041
:1070300085680000014B01221A7070470418002077
:10704000F0B544788C423FD9FF2B4FF00C04C66852
:107050001E4D28BFFF234C43375955F82360B742D4
:1070600008D00669012777548669735455F8236060
:10707000C3681E51FF2AC66828BFFF22231DF75888
:1070800055F82260B74208D006690127775446694F
:10709000725455F82260C268D650BDF81430C268E8
:1070A000FF2B28BFFF230834165955F8232096429A
:1070B00008D0026901265654C269535455F823205A
:1070C000C3681A51002000E0FF20F0BD408200207C
:1070D00010B5064C064B00F1240120469847204687
:1070E000044A054BBDE810400021184744520120D6
:1070F000BD5402003570000089540200407870478A
:10710000F0B5467806EB46039A0000240C27E3B25C
:107110009E4200D8F0BD036A032107FB04335D7A69
:1071200093F80AC00139654411F0FF015D72134400
:10713000F5D10134EBE710B54478006A04FB021284
:107140000C246243811883549DF808304B709DF8DD
:107150000C308B7010BD10B5447804FB0211026A2C
:107160000C2000FB0122D3709DF8083013719DF8AC
:107170000C30537110BD10B5447804FB0211026A43
:107180000C2000FB012293719DF80830D3719DF80B
:107190000C30137210BD00002DE9F3479DF82C90C0
:1071A0009DF82880DFF858A01C461423B9FBF3FC97
:1071B000CDF804C0B8FBF3FCB4FBF3F3CDF800C08A
:1071C00005460E461746D0474FEA590301934FEA4A
:1071D000580300933A46630831462846DFF824A056
:1071E000D0472346054C3A4631462846A446CDE9C9
:1071F0000A8902B0BDE8F047604700BF7771000020
:10720000377100005771000010B5447804FB02117B
:10721000026A0C2000FB01214B7210BD10B54478AE
:1072200004FB0211026A0C2000FB01218B7210BDCD
:1072300010B5447804FB0211026A0C2000FB012106
:10724000CB7210BD2DE9F74F04464170CDB20C2032
:1072500068439030674E6060B04700F19003A060D3
:1072600007462420E3606843B047206207B100B9B5
:10727000FEE72846B047606181462846B047A061D6
:1072800080462846B047E06107462846B04720615F
:1072900030B1B9F1000F03D0B8F1000F00D007B939
:1072A000FEE700231946A268D1540133902BFAD18E
:1072B0000021514E0D4663788B4210D800221146B2
:1072C0006078D3B2984211D84C4E4FF0000B6378DF
:1072D0005FFA8BFA534513D803B0BDE8F08F002353
:1072E00000951A462046B0470131E4E72069C154B1
:1072F0006069C154A069C154E0690132C154DFE73B
:1073000000252B46CDE900553D4FDFF80091DFF811
:107310000081012251462046B8477F23394F01950D
:10732000009301222B4651462046B847FF23019582
:10733000009301222B4651462046B0472B4601229E
:1073400051462046C847012251462046C0472E4F8D
:10735000012251462046B847CDE90055284F022268
:1073600051462046B8477F23264F019500930222BD
:107370002B4651462046B847FF2301950093022231
:107380002B4651462046B0472B4602225146204606
:10739000C847022251462046C0471B4F0222514691
:1073A0002046B8472A46CDE90055154F514620469C
:1073B000B8472B462A46CDE9005551462046114F85
:1073C000B8472B462A46CDE9005551462046B047DE
:1073D0002B462A4651462046C8472A465146204653
:1073E000C0472A465146084D2046A8470BF1010BDD
:1073F0006DE700BF6D32030041700000777100003F
:107400003771000057710000317200001D720000DA
:1074100009720000F7B5294E00234FF0006713F002
:10742000020F0CBF4FF000454FF0604513F0040F02
:107430000CBF4FF400244FF4602413F0080F45EA0A
:1074400004050CBF4FF400044FF4600413F0100F58
:1074500045EA04050CBF4FF400644FF4606413F078
:10746000200F0CBF4FF400424FF460422C4313F046
:10747000400F44EA02040CBF08220E221443DA092A
:1074800014BFE0228022013322439BB23A43B3F57A
:10749000807F46F8042B08D1094B0190984701984A
:1074A000084B9847002003B0F0BD13F0010F14BF44
:1074B0004FF060674FF00067B1E700BF40820020E7
:1074C00045720000D17000002DE9F74F4778036A3C
:1074D000DFF8CCC0002607EB47070C2505FB01357C
:1074E000BF004FF0030E3346324695F80B806C7A9E
:1074F000B8F1000F04D0B8F1010F41D1E443E4B278
:10750000644495F803B094F8009294F8008195F8DB
:1075100000A094F800431BFB09FB0AFB08BB95F88D
:1075200006A00AFB04BA95F804B0524495F801A0ED
:107530001BFB09FB0AFB08BB95F807A00AFB04BA72
:1075400095F805B0534495F802A01BFB09F90AFB16
:10755000089895F8089009FB048426440EF1FF343E
:1075600014F0FF0E3D44C0D1C6F34F260B4C0096DD
:10757000C3F34F23C2F34F22A04703B0BDE8F08FFF
:10758000B8F1020F03D1E44344F3C014B7E7B8F1F4
:10759000030F08BF1CF80440B2E700BF41700000B1
:1075A0000800002038B5054D0446002163788B4261
:1075B00000D838BD2046A8470131F7E7C97400005C
:1075C00010B5074B044600221A700648064B984730
:1075D000A288A168606A054BBDE81040184700BF4B
:1075E000041800204452012061540200694F020037
:1075F0002DE9F04F85B00027DFF87890039104461D
:1076000093463D46B8466378FEB2B34203D8284657
:1076100005B0BDE8F08F23699B5D4BB3039AEB1D6A
:107620009342F4DA0BEB050A334602220021CDF82F
:1076300000805046C847636902229B5DCDF80080F8
:1076400011465046C847A36902229B5DCDF80080D1
:1076500004215046C847E36902229B5DCDF80080B3
:1076600006215046C8472369083503F80680ADB2A5
:107670000137C8E77D9A000070B5344B3448354C6B
:10768000354D012198473548A04700221146344B1B
:107690002F4898473348A04733493448344CA847CB
:1076A000344B35484FF48042C3F81821A0472E468A
:1076B000A0B932492D48B047314B9847314B9847D4
:1076C000314B9847314B98472B48314B0021984715
:1076D000BDE870402F493048304B18472648A04736
:1076E0000828E6D02448A047802804D12C491F4808
:1076F000B0472C4BE1E72048A0478828F6D01E4829
:10770000A047402804D128491848A847274BD4E768
:107710001948A047C02804D125491448B047254B33
:10772000CBE71548A047C128F6D01348A047C82882
:1077300001D12149F1E71048A047C928F9D01F49D4
:107740000A48A8471E490948A847B7E7C19A000058
:10775000A44B0120A9410300E53F030090900300E2
:10776000FD9D0000A1900300B3900300EE8E030086
:10777000419900000080004104780020C39003007C
:10778000E5830000F950000039950000A99600003B
:10779000B9970000E85001202082002019880000DD
:1077A000D5900300A57A0000E7900300098100004E
:1077B000F9900300417D00000B910300209103002C
:1077C0003C91030010B50446084B094898472268CD
:1077D000A368127A7F20C3E9002207210022C3E9AF
:1077E0000222C3E904019A6110BD00BFA941030050
:1077F0004B91030002688368127A7F21C3E900225B
:107800000022C3E90222C3E90412C3E90622704739
:1078100002688368117A7F200022C3E90011C3E95E
:107820000222C3E90402C3E90622C3E90812C3E93C
:107830000A20C3E90C2270477047704770477047B1
:10784000704700000E4B2DE9F04100240D4E0E4F05
:10785000DFF838805C74B279E3B29A4201D8BDE8AF
:10786000F081B0682C255D4300212844B847C0470B
:10787000B06801212844B847C0470134EBE700BF96
:1078800004780020F4770020459F0000E1A100006B
:1078900010B5044C0448A04723460448BDE81040F6
:1078A000184700BFCD7702007451012048530120D2
:1078B0002DE9F04F604A137885B0144633B9137838
:1078C0000133DBB2137005B0BDE8F08F0023ADF8D3
:1078D0000C30ADF80E305378584A594F5948083398
:1078E0000021D65C6378DBB2F6B2D55C63780133F5
:1078F000DBB26370637803F007036370637813F09F
:10790000010F514B4FF4002214BFC3F81821C3F8E4
:107910001421637813F0020F4B4B4FF4801214BF05
:10792000C3F81821C3F81421637813F0040F464BF1
:107930004FF4001214BFC3F81821C3F81421022316
:1079400003AAB84702230DF10E0240480021B847B0
:107950000023BDF80C20ADF80430ADF808304EF629
:107960006023EDB29A428DF800608DF801504FF01F
:10797000010341D98DF80830BDF80E204EF6602382
:107980009A424FF001033CD900228DF805208DF872
:1079900009302F4FDFF8C0906D4601AE4FF0000B5D
:1079A000B84615F8012BBB6816F8011B2C2012FBFA
:1079B00000F003449B69DA69914215D002AA1BF8D2
:1079C0000220012A10D1D3F814E0DFF890A0D96189
:1079D00061BB1969BEF1000F1BD19960D8F808305E
:1079E00003211844C847D047BBF1000F0ED0002335
:1079F0002370184B984766E7C72ABDD88DF8043026
:107A0000B8E7C72AC5D88DF80530C0E74FF0010B9D
:107A1000C7E7D3F80CC0A1EB0C0292FBFEFE9A68FC
:107A200072448A42C8BF62469A60D7E7BEF1000F2F
:107A3000D4D1DA68F8E700BF0C0900200804002060
:107A40001177020074510120008000414853012049
:107A5000F477002091780000459F0000D9A1000034
:107A600070B50B4C0B4E0C4D0C4B002211462046B2
:107A7000B0470022094B11462846B0472046084C23
:107A80000021A047284623460021BDE87040184742
:107A9000745101209976020048530120B17800000A
:107AA0005976020070B50C4B0C480D4E0D4D10214F
:107AB00098470B480C4B102198470024E1B2022252
:107AC00030460134A847102CF8D1084B9847BDE840
:107AD0007040074B184700BF157400001C4C012074
:107AE000F4770020FD9D0000C19A0000617A00003B
:107AF0009178000010B5084B0848094C4FF400126B
:107B00009A61084B9847084A0448A4460823BDE8F0
:107B1000104002F10E0160470080004160500120DA
:107B200095830200F58202000E0900205D4B2DE9CD
:107B3000F14F4FF400125C4F5C4E5A610025C5F3C3
:107B4000460305F00102FB5C920013417A19D9B299
:107B5000147F03F00F03A342E8B200F08380544C7B
:107B6000137715F80480534ADFF868A1107013F0FA
:107B7000020FC3F3800CC3F3400001F001014FEA90
:107B8000081B00F08980002900F08A800AEB0B02B4
:107B9000947B002C72D192F80FE0BEF1000F03D15C
:107BA0000124D4734FF0FF340AEB0B029173517828
:107BB0005073614515D001219B08917053702C20A2
:107BC000B268DFF8049118FB00F0024491693A4A68
:107BD000002B5DD17F238B60B3680321184490474D
:107BE000C847002C3ED02C22B368344818FB02F85A
:107BF000DA444344DAF80810D3F81890304B984729
:107C0000304B83462D4898474FEA1B13BBF5D07F76
:107C1000CAF80800C9F834303CD2012B38BF012320
:107C200040F2712103FB13139621B3FBF1F30133EF
:107C30004FF0FF31DBB201EB4303D9E90A20D9F859
:107C4000241004FB0314944203DB84422246A8BFA1
:107C50000246B068184BC9F82420022140449847D6
:107C6000194B98470135102D7FF469AF174B00224F
:107C70001A70174B01B0BDE8F04F1847547B7CB920
:107C800092F80FE0BEF1000F8ED10124D4738BE780
:107C90000023A0E71923C3E711B90AEB0B02D17344
:107CA000002481E7008000410E090020F4770020C5
:107CB0002804002055470020459F0000047800203C
:107CC00003980000FF970000D9A1000004EC0020F9
:107CD000F57A0000541B01200F4B4FF4001210B531
:107CE0005A610E4C9A604FF080429A620C4A9A6236
:107CF00003210C4B204698470B490C4B20469847D4
:107D00000B490C4B2046984720460B4A0B4BBDE8CD
:107D100010400021184700BF008000416050012042
:107D2000200000C05983020040420F001D83020062
:107D3000584700203D8402002D7B0000F98302009B
:107D400070B5174B1748184E184D10219847164814
:107D5000174B102198470024E1B20322304601342A
:107D6000A847102CF8D10022124B012011464FF0E9
:107D7000FF341A700132102A58709970D970187136
:107D800059719C60197358739873D97303F1100378
:107D9000EFD1094B9847BDE87040084B184700BF2A
:107DA000157400001C4C0120F4770020FD9D00009C
:107DB000C19A0000541B0120D97C0000F57A000014
:107DC00010B5044C0448A04723460448BDE81040C1
:107DD000184700BFCD77020074510120485301209D
:107DE0002DE9F04FA64A137885B033B913780133E3
:107DF000DBB2137005B0BDE8F08F0023ADF80C3096
:107E0000ADF80E309F4BA0491A78A04EA048DFF87D
:107E1000A8B2DFF8A8A2DFF8A89208328D5C1A7821
:107E2000D2B2EDB28C5C1A780132D2B21A701A78E2
:107E300002F007021A701A7812F0010F954A4FF4F7
:107E4000002114BFC2F81811C2F814111A7812F0E8
:107E5000020F904A4FF4801114BFC2F81811C2F8F3
:107E600014111B7813F0040F8A4B4FF4001214BF47
:107E7000C3F81821C3F814210021022303AAB04734
:107E800002230DF10E0200218348B047BDF80C001B
:107E9000D84779A3D3E90023D047C8474FF6FF76E8
:107EA000B042074628BF3746BFB28046ADF80C70D7
:107EB000BDF80E00D84770A3D3E90023D047C847C8
:107EC000E4B2864228BF0646A4F10802B3B2012AF2
:107ED000ADF80E3049D90D2D704E6CD90023ADF898
:107EE0000430ADF808304EF66023043D043C98455C
:107EF0008DF800508DF801403DD901238DF80830F0
:107F00004EF6602398423DD900238DF805300123B9
:107F10008DF80930624FDFF89C816C4601AD4FF05F
:107F2000000A4FF02C0914F8010BB36815F8011B77
:107F300010FB09F003449B69DA69914212D002AA4E
:107F40001AF80220012A0DD1D3F814E0D96169BBD7
:107F50001969BEF1000F1CD19960B3680321184460
:107F6000B847C047BAF1000F10D0454A002313703C
:107F70004C4B98473EE7B8F1C70FC1D87F238DF827
:107F80000430BAE7C728C5D87F23BEE74FF0010AFF
:107F9000C9E7D3F80CC0A1EB0C0292FBFEFE9A6875
:107FA00072449142B8BF62469A60D6E7BEF1000FB4
:107FB000D3D1DA68F8E7012CB168B268DFF8E0A045
:107FC0009CBFDB43ADF80E304FF02C0304FB0322C3
:107FD00005FB031392699B6992F814801A7D9CBF7C
:107FE000FF43ADF80C70BDF80C102F4F2846B84772
:107FF000BDF80E1042462046B8478DF808508DF85F
:10800000094002AF022517F8019BB268274B2C24C8
:1080100019FB04F422444846D2F81880984718B354
:10802000D8F81410224B0C29A8BF0C2148468B46C7
:108030009847D8E90321BBF1010FA1EB0201B8BFBA
:108040004FF0010B4843CBF11003012101FA03F378
:10805000DB439BB290FBF3F3B0681344C8F80830DD
:108060002044D047134B9847012D3FF47EAF0125A4
:10807000C9E700BFAFF300807B14AE47E17AF03F61
:10808000A4480020A14B01204904002011770200E0
:10809000745101200080004148530120F4770020F2
:1080A000459F0000C17D0000DD45000091460000B5
:1080B000A9460000D9A10000611203003513030096
:1080C000E518030070B50B4C0B4E0C4D0C4B002209
:1080D00011462046B0470022094B11462846B047BA
:1080E0002046084C0021A047284623460021BDE831
:1080F00070401847745101209976020048530120BE
:10810000E17D0000597602002DE9F041124B134D3C
:10811000134F052110209847124B13480C21984704
:108120000F48124B0C21984700242E46E1B2012241
:1081300038460134A847082CF8D1094D21460134AE
:1081400002222846E4B2B0470C2CF7D1084B9847DE
:10815000BDE8F041074B1847A1450000FD9D000018
:10816000F4770020157400001C4C0120C19A000017
:10817000C5800000C17D000010B5044C0448A04734
:1081800023460448BDE81040184700BFCD770200E1
:1081900074510120485301202DE9F04F6E4A1378A5
:1081A00085B0144633B913780133DBB2137005B0D0
:1081B000BDE8F08F0023ADF80C30ADF80E305378E9
:1081C000664A674D6748DFF8C4A1DFF8C491DFF85D
:1081D000C48108330021D75C6378DBB2FFB2D65C80
:1081E00063780133DBB26370637803F00703637075
:1081F000637813F0010F5C4B4FF4002214BFC3F8F7
:108200001821C3F81421637813F0020F564B4FF472
:10821000801214BFC3F81821C3F81421637813F037
:10822000040F514B4FF4001214BFC3F81821C3F8C8
:108230001421022303AAA84702230DF10E020021F4
:108240004A48A847BDF80C00D04741A3D3E9002312
:10825000C847C0474FF6FF75A84228BF2846ADF86B
:108260000C00BDF80E00D04739A3D3E90023C8475E
:10827000C047A84228BF2846ADF80E003C4B3D48F9
:1082800098470828F6B209D1BDF80C30DB43ADF8A9
:108290000C30BDF80E30DB43ADF80E30364DDFF854
:1082A000F880A968AA68DFF8F4B02C2306FB032243
:1082B00007FB031392699B6992F81490BDF80C10A8
:1082C0001A7D3846C047BDF80E104A463046C047B2
:1082D0008DF808708DF809600DF10808022718F86C
:1082E00001ABAB682C261AFB06F633445046D3F894
:1082F0001890224B984710B3D9F814300C2BA8BF14
:108300000C23019350461E4B9847019BD9E903214A
:10831000012BA1EB0201B8BF01234843C3F11003B5
:10832000012101FA03F3DB439BB290FBF3F3A8684E
:108330001344C9F808303044D847124B9847012FEE
:1083400004D100232370104B984730E70127C6E77C
:108350007B14AE47E17AF03F3B090020690400201E
:108360001177020074510120008000414853012020
:108370004199000004780020F47700209146000025
:10838000A9460000D9A10000798100006112030014
:1083900035130300E5180300DD450000459F00008C
:1083A00070B50B4C0B4E0C4D0C4B00221146204669
:1083B000B0470022094B11462846B0472046084CDA
:1083C0000021A047284623460021BDE870401847F9
:1083D00074510120997602004853012099810000D0
:1083E0005976020070B50E4B0E4E0F4D0521102030
:1083F00098470E4B0E48102198470A480D4B102104
:1084000098470024E1B2012230460134A847102CDD
:10841000F8D1094B9847BDE87040084B184700BF9A
:10842000A1450000F4770020FD9D000015740000B8
:108430001C4C0120C19A0000A1830000798100003A
:108440001FB500228DF80F200DF10F0200920222BD
:108450000B46024C1146A04704B010BD7D9A0000A7
:108460001FB500228DF80F200DF10F020B46009270
:10847000024C02220421A04704B010BD7D9A0000E6
:108480001FB500228DF80F200DF10F020B46009250
:10849000024C02220621A04704B010BD7D9A0000C4
:1084A00013B500238DF80730044C0DF107030222A9
:1084B0000621A047C0B202B010BD00BF659A0000FF
:1084C0001FB500228DF80F200DF10F020B46009210
:1084D000024C02220821A04704B010BD7D9A000082
:1084E00013B500238DF80730044C0DF10703022269
:1084F0000821A047C0B202B010BD00BF659A0000BD
:108500001FB500228DF80F200DF10F020B460092CF
:10851000024C02220C21A04704B010BD7D9A00003D
:108520001FB500228DF80F200DF10F020B460092AF
:10853000024C02220A21A04704B010BD7D9A00001F
:10854000D0E96432D0F89801134418447047D0F849
:108550009401704770B50446094B08460D4698478C
:10856000D4F894110023834203D10B44C4F894310E
:1085700070BDE2180A44EE5C16750133F3E700BFE4
:108580007956030020B401F1140515441946284416
:10859000024B5DF8045B0022184700BFB59800004D
:1085A00020B401F1140515441946019A024B2844E0
:1085B0005DF8045B184700BFDD9800000023C0E9A8
:1085C0006433C0F89831421E00F1130102F8013FF4
:1085D0009142FBD100F1140200F28B11002302F84A
:1085E000013B8A42FBD180F88B31C0F88C31704757
:1085F0002DE9F7431E46134BDFF864905D7917238E
:108600000446884617461049009301220F23C847A5
:108610000E4B204698474146C4F890010C4B20462B
:108620009847394620460B4B9847314620460A4B1F
:108630009847EDB2094B2946204603B0BDE8F04308
:10864000184700BF047800205391030079560300B7
:1086500081840000C18400000185000021850000A4
:10866000A1460300D0F894216AB9172915BFD0F8A4
:1086700090310175C15401231ABF0133C0F8903104
:10868000C0F894317047D0F898316BB9042905D0FF
:10869000831801321975C0F89421704780F88B1146
:1086A0000123C0F898317047C218013382F88B114A
:1086B000F7E7D0F890218A4201D9405C7047D0F8A2
:1086C000943113448B4203D9891A0844007D7047C2
:1086D000D0F898211A448A4283BFC91A401890F8EA
:1086E0008B01FF2070470000F8B50446D0F89801D0
:1086F0002B492C4D2C4E00F28B1004222044A8470D
:10870000D4F8987107F28B102044B047D4E9643153
:1087100038440B44254FC4F898011918C9B2244BAA
:108720002046984797F8B510224B2046984797F86F
:10873000B5300133DBB287F8B530D4F8903121463B
:108740002344002299421FD1D4F89431234404F1E8
:108750001401143399421BD1D4F89801231804F260
:108760008B1103F28B13994216D100F28B10124930
:108770002044A847D4F8985105F28B102044B04704
:108780002844C4F89801F8BD11F8010B4240D9E71C
:1087900011F8010B4240DDE711F8017B7A40E2E776
:1087A0001C8E0300A14603007956030004780020C4
:1087B000418400006184000081D603002DE9F84364
:1087C0000F4B064698470F4B044681B20E48984718
:1087D00078B9BDE8F88329463046B8470146404697
:1087E000C8470135A542F6D10748084B98470120F4
:1087F000EFE7074FDFF81080DFF818900025F1E76A
:1088000041850000C5470000DC73002021480000BE
:10881000B38600000148000000230122C0E90533AF
:108820008383016082800372037470472DE9F04FE7
:10883000544204F00704224494B289B0E31DDB08DB
:108840006A46A2EBC302A2EBC30300AF9546E8461B
:108850009D46002338610D46E9461A4699B28C427E
:1088600022D8DFF8DCB03348DFF8D8A0324E2A46F1
:108870002146D84705F510237B61D7E9040123463B
:1088800042460068D047D7E90401234600684A46BB
:10889000B047C7E902AB00261FFA86FA544509D84B
:1088A0002437BD46BDE8F08F08F8032009F80320FF
:1088B0000133D3E719F80630002B38D0796918F85E
:1088C00006201E48FD683144A8477B694FEADA015B
:1088D00003EBC1014FF00A0B3869BD68006879608D
:1088E000082307F118024FF0000AC7E906AAA847B3
:1088F000386979680068104D082307F11802A84705
:10890000796807F11803082213F8010B18B10AF16E
:10891000010A5FFA8AFA013A12F0FF02F4D1BAF1C1
:10892000000F04D00BF1FF3B1BF0FF0BD4D101363D
:10893000B2E700BF669103004D7F020084910300FF
:10894000E53F0300B97F02002DE9F0479A46130284
:1089500003EB014384690646884691465344002749
:1089600044B3A57862782D0205EB0245E278154400
:10897000AB421FD31CD02746E468F1E7B38B013329
:10898000C0E90347B3838FB9B06104B1206101230B
:108990000370089B8360BDF8243080F8018080F864
:1089A000029080F803A08380BDE8F087F860ECE7D0
:1089B0002046ECE7044B142098470028DED10348FA
:1089C000034B9847FF20EFE76D320300219203002D
:1089D000A94103002DE9F04FADF50F7D0EADFF234A
:1089E00004902B604FF4FE72684BDFF8C081684E34
:1089F00000210FA898470024A246474661020123A0
:108A0000D8F800002A4601F51021B0472B78FF2B3B
:108A100007D0631CB3F5607FA24640F0B58040F2FA
:108A20007F3A0AF590614C024FF4007338682A4689
:108A30002146B0470023E95CFF29A3F1080205D0D5
:108A40000833B3F5007FF6D14FF4FC72A4F50F2183
:108A5000049B504C504EA1F6F871114459616023AB
:108A6000002500934D4A07950223052107A8ADF87C
:108A70002050A0474FF4007303934FF4102B049839
:108A8000434C00684FF400730EAA5946A0470EAB42
:108A90006F020293029B029C1B7822460132022B3A
:108AA000029260D1394B002110220AA809919847FF
:108AB000A7EB0B039BB2B3F5F67F08D90498344CAF
:108AC0000068132309AA07F51021A04709AC344B0D
:108AD000042207A9204698470346002843D1059061
:108AE000022205212046B047059B8146022207212C
:108AF0002046B0475FFA89F9059B8046022209218A
:108B00002046B047B9F1010F07D15FFA88F8B8F1F4
:108B1000010F02D1C0B2092802D02248224B984747
:108B2000002302220B212046B04700230590022299
:108B30000D212046B0470023804602220F21204607
:108B4000B04700238146042211212046B047C0B21D
:108B5000CDE900709DF814101448154C5FFA89F3A4
:108B60005FFA88F2A047039B0137BB4292D10135DF
:108B700003F50073AA450BF5007B0393BFF47FAFA9
:108B80000DF50F7DBDE8F08F1C4637E789330300F4
:108B90004D7F020001460300659A00003A920300EF
:108BA0008956030052920300A9410300208200204D
:108BB0004989000010B5806900B910BD44788C4225
:108BC00005D18478944202D1C4789C42F5D0C06823
:108BD000F2E7000070B504460D461646034B0A4600
:108BE000816803489847A560A68070BDE53F0300F3
:108BF00075920300F7B584690B4D0C480C4E0D4F70
:108C0000A8472CB90C482B4603B0BDE8F0401847E4
:108C1000A088E378A27861780190A068009030463F
:108C2000B847E468EDE700BFA9410300889203005C
:108C300094920300E53F0300B59203002DE9F04F45
:108C4000ADF5005D85B0074604A8002440F8044B4C
:108C5000494BDFF844B1DFF844A141F6FC722146EC
:108C60009847BE6925464FEA453804EB4530002E4B
:108C70002BD0F378B27871780190B06800903F48BB
:108C8000D847B388191904AAB1F5005F224432D23B
:108C9000B168386801F51021D047B3881C44B38807
:108CA000E31A03EB4533B360F668002EDBD105F120
:108CB00048014903324B3868039110229847314EDE
:108CC00003993868234604AAB04704EB45312E487F
:108CD0007961D84701352A4CADB205F14801490305
:108CE000B1F5801F42DB3846284B98470DF5005DF3
:108CF00005B0BDE8F08FA4B2C4F500591C44A4F53A
:108D00000054A4B2B4F5005F1FFA89F904D92048D1
:108D1000204B03929847039AB16838684B4601F597
:108D20001021D04708F51021154B38680391102207
:108D30009847DFF85080039938684FF4005304AA2D
:108D4000C04701350023ADB204AA194601339BB2D6
:108D5000B3F5005F02F8011BF8D1B168386801F57E
:108D60001021234604AA4944D04798E738681022C6
:108D70000135A047ADB2B0E789330300C0920300CC
:108D800039800200B97F02001B930300F58B0000BD
:108D9000E8920300A9410300E53F03004D7F020074
:108DA0002DE9F04F544204F00704144483B004F159
:108DB000070805464FEAD8036846A0EBC303002026
:108DC00002AF9D4602AE8446C3B29C4238D86B695E
:108DD0002344B3F5805F02D9284B28469847696938
:108DE000DFF89C902868234601F510213246C847D9
:108DF0004FEAD8086B46A3EBC8039D460DF108095E
:108E00000023FF215A1C9BB29C4223D86969DFF8DA
:108E100074802868DFF870A0DFF870B023464A46F7
:108E200001F51021C0474FF000081FFA88F18C426D
:108E3000686913D8044404376C61BD46BDE8F08FFF
:108E400093423ABF11F803E006F803E006F803C0C6
:108E50000130B9E709F803101346D3E719F80130D8
:108E6000725C934206D000F5102000920144224625
:108E70005046D84708F10108D7E700BF3D8C0000F5
:108E8000B97F02004D7F020040930300E53F0300DD
:108E90002DE9F04F0024BFB00F4690469946214679
:108EA000404BDFF840B104948246E22205A898477F
:108EB0003D493E4E3E4D6023022204A8D84700940F
:108EC00001230222052104A8B047009401230222B5
:108ED000072104A8B047092319460094022204A8D8
:108EE000B04700943B4602220B2104A8B0470094EF
:108EF000434602220D2104A8B04702224B460F210F
:108F0000009404A8B04704A8A84704AB48991844A3
:108F1000D84704A8A84704AB264903221844D847D9
:108F200004A8A8470094034605461FFA80FB0422C4
:108F3000112104A8B047204B2048214C04AA2946FF
:108F400098474B46424639461E48A0471E4B0446AA
:108F50005A4604A95046984706466CB91B4B1C4814
:108F60001C4C9847CDE9006B16484B4642463946A3
:108F7000A0473FB0BDE8F08FE378A2786178CDE9F3
:108F80000105A06800900C4D1348A847A288A1686D
:108F9000124B50469847124B5A4631462046984746
:108FA000E7E700BF893303003A9203007D9A00008F
:108FB000795603001C8E0300E53F03007A930300FB
:108FC000B58B000020820020A18D0000A941030084
:108FD00097930300498900009C9303002D880000AB
:108FE000D58B0000A146030070B58B88094E006840
:108FF0000C46896801F51021163B15311546B0471E
:10900000A3882B44002203F8152C2846024BBDE808
:10901000704018474D7F02007956030001234371C9
:109020004FF47F43C3807047407970472DE9F04F7C
:109030004379BFB00546894683B13A4CA047EB79E6
:1090400095F8068002900133DBB20193039401236B
:1090500099F80620424504D800236B713FB0BDE863
:10906000F08FD9F808204FF02C0A08FB0A2A0026B6
:109070009AF82420B24204D808F101085FFA88F86F
:10908000E6E71BB1019B9A4249D91E46039B9847CC
:10909000029BC01A244B9842E0D8DAF82830234FBC
:1090A0009AF8082099F805102148F42406FB0434A6
:1090B000A37AB847074608B383889BB14FF0000BEB
:1090C0001C4BCDF810B0E222594605A898471A4B20
:1090D00004AA394628469847184B04A920469847C1
:1090E00084F8F1B0A37A13B9154B20469847EE7176
:1090F000013685F80680F6B20023B9E7E222014680
:109100000C4B049005A898470E4B04A9204698479D
:109110000A4B04A92046984784F8F170E2E700233F
:10912000AAE700BFDD650000C0270900B58B00007D
:109130002082002089330300E98F0000499C000051
:10914000E1A10000219D0000012303747047007C11
:10915000704700002DE9F04F037C85B006460F46AE
:1091600063B1244CA0474FF0000902900394BB79EF
:109170005FFA89F8434504D80023337405B0BDE88D
:10918000F08FBB682C2404FB08344FF0000A94F8DD
:1091900024305FFA8AFB5B4502D809F10109E6E752
:1091A000A36AF42505FB0B35039B9847029BC01A65
:1091B000114B984205D91148114B05B0BDE8F04F4D
:1091C000184795F8F13093B15A460E4B0E48DFF828
:1091D00040B0414698476168AB7A227A497905F1F7
:1091E0000B0000900948D847002385F8F1300AF1B8
:1091F000010ACCE7DD650000C0D40100C193030083
:10920000A9410300E53F0300D3930300208200201F
:10921000918E0000012303727047007A70470000AE
:109220002DE9F041284C294FDFF8D080ECB00546FD
:10923000A0470646EB68B3F5801F31D30024244BCA
:109240002C7405A898477F221146224E234605A874
:10925000B047032302222049204E009302A8622334
:10926000CDE90244ADF81040B0471D4B1D4E02A998
:1092700005A898470A23009304220123214605A844
:10928000B0474FF47A73CDE900431748174E234691
:10929000FF222146B047164B05A898472C7206E0DE
:1092A000A047801BB84205D91248134B98476CB0B1
:1092B000BDE8F081286810224FF41021C047EB6808
:1092C00003F50053EB60B5E7DD650000C0D4010095
:1092D000BD850000F1850000E3930300A146030073
:1092E00055850000A18500000478002069980000E1
:1092F000E9860000C1930300A94103003980020000
:10930000C00100F1824000F5004001238B40014480
:10931000436091F8402042F0040281F840208361CC
:10932000704710B5029C401AE41A4443511A94FB4A
:10933000F1F4E01810BD437800EB8300436801337B
:10934000436070472DE9F0472A4E2B4C2B4FDFF836
:10935000D4A0ADF54C7D8146B047294B804665A829
:1093600098477F221146002365A8A0470024214684
:10937000244B01944FF4C67202A898470222224956
:10938000202301A8B84701A8B04701AB03441F49F7
:1093900005461846D047B04701AB05445819214649
:1093A00003465446414506D019F8012003F8012B25
:1093B0004A19C82A1BD9B04701AB05442B441449AC
:1093C0001846A047B04701AB28440322114918446E
:1093D000B84701A965A8104B9847104B65A8984756
:1093E0000F4B65A898470DF54C7DBDE8F08701311E
:1093F000D8E700BF79560300F1850000A1460300BD
:10940000BD85000089330300ED930300F59303004D
:10941000F89303001C8E030055850000E9860000C8
:10942000BD870000BB47030030B56FF02B05848972
:1094300000F12C032D1A0022E9188C4201D88281F8
:1094400030BD03F8012BF7E70148024B184700BF76
:10945000B4860020299400000148024B184700BF41
:10946000B4BC0020299400000148024B184700BFFB
:10947000541C0120299400000148024B184700BFEA
:109480000818002029940000012303764068014B4E
:10949000184700BFB99902000148024B184700BFA6
:1094A000B4860020899400000148024B184700BF91
:1094B000B4BC0020899400000148024B184700BF4B
:1094C000541C0120899400000148024B184700BF3A
:1094D0000818002089940000807A030103F1824378
:1094E00003F5204300211A6C22F002021A64014B9A
:1094F000184700BF1D7402000148024B184700BF07
:1095000008180020D99400000148024B184700BFFA
:10951000541C0120D99400000148024B184700BF99
:10952000B4BC0020D99400000148024B184700BF8A
:10953000B4860020D99400002DE9F0471C212C4C62
:10954000DFF8F8802B4F2C4E2C4DDFF8F4900220E2
:10955000A04710210220A0470C210220A04709218A
:109560000120A047264C274A01214046A047264A11
:1095700001213846A047254A01213046A047244A08
:1095800001212846A04701214046C847012138460D
:10959000C84701213046C84701212846C8471D4A0F
:1095A00002214046A0471C4A02213846A0471B4AD8
:1095B00002213046A0471A4A02212846A047194CEA
:1095C00019494046A04719493846A047184930462E
:1095D000A04718492846A047174C4046A0473846A0
:1095E000A0473046A04728462346BDE8F047184725
:1095F00001930000A0510120F8520120A85201203F
:10960000099A0200799400006994000059940000BE
:1096100049940000C9940000B9940000A994000086
:1096200099940000E599020000780020B0BC002069
:1096300000EC0020444C01208D990200F4510120DF
:10964000699A0200F7B54368847A0F46196A104B8D
:109650000546283120461646984705F59D510D4B85
:1096600014312046984739460B4B204698472146EF
:109670000A4B01A89847019B01221E602046084B17
:1096800000219847074B00212046984703B0F0BDC2
:10969000AD7302009D730200D97302005974020079
:1096A000757302001D74020010B5104A104C114869
:1096B00041F28831A047104A104841F28831A04752
:1096C0000F4A104841F28831A0470F4A0F4841F233
:1096D0008831A0470E4B002283F81F2383F82023F4
:1096E00083F8212383F8222310BD00BFF9940000E2
:1096F000459600000818002009950000541C012020
:1097000019950000B4BC002029950000B486002003
:1097100000E100E0114B70B51B78114E037100257C
:109720004FF0FF330446C0E90B3505600D4B304662
:1097300098470D4B304698470C4B0D4A0D496071C8
:10974000C4E904230C4B6562C4E906134FF4485383
:109750002384C823E57384F8223070BD000C0040D8
:109760006C510120657902008D7902000101010030
:1097700001000001C832646464C800C8C07B70473F
:1097800090F82400704790F82500704790F8260064
:109790007047007C704730B50246C07B431C441DB7
:1097A00003F003015518ED7C012D03D00133A342D2
:1097B000F6D130BDC8B2FCE7FF290BD101234374B9
:1097C000002380F8233047F67F7383847F2380F85B
:1097D000263070470329FCD8012380F8273043182E
:1097E000DA7C012AF5D1C17380F823204274DA7D36
:1097F00080F82420DA7E80F82520DB7FE7E7806A86
:109800007047806A401A7047836A01338362036835
:109810005A1C1CBF013303607047807B70470023D4
:1098200083737047037B63B940894008FA38002886
:10983000B8BF4042C0F1FA0000EBD070C0F347005F
:109840007047012B07D14089FA23B0FBF3F040F3B6
:109850000000C0B27047022B05D1408964288CBF3C
:10986000FF2000207047704710B50372BDF80C3020
:10987000438101249DF8083084738171C2710373A0
:1098800010BD80797047C0797047007A7047A0F1A9
:109890003003DBB2092B05D9A0F16103052B03D8F6
:1098A0005738C3B21846704711B108700023F9E762
:1098B0000B46F7E7F8B5084F451E8C000026043C20
:1098C000231D01D13046F8BD15F8010F1146B847E8
:1098D000A0400644F3E700BF8F98000030B585B084
:1098E0000A4B0C4605460A4901A8984701AAC4F14B
:1098F000080313440022D1B28C4201D805B030BD18
:1099000013F8011BA9540132F5E700BFA14603007B
:10991000FB930300064B1B680360064B1B68436008
:10992000054B1B688360054B1B68C36001207047B3
:10993000FC6180001060800014608000186080006E
:10994000C36A01332DE9F74F064658D12E4C2F4BF1
:109950002F4FDFF8C8904FF40055C4F888504FF4EB
:109960008042C4F8A8304FF04043C4F8A830C4F88F
:1099700088204FF04022C4F8A820C4F8A8304FF443
:109980000043C4F88430234BC4F8A830A3F18023EB
:10999000C4F8A8300120C4F89450B8474FF0000A2A
:1099A000D346A8460120C4F89880B84701A8C84704
:1099B000D4F88020D4F8A030D4F890505D40154001
:1099C0005D4001A8144B98472B0441BF012303FAC3
:1099D0000AF343EA0B0B5FFA8BFBBAF1070F07D0D0
:1099E0004FF48045C4F898500120B847C4F894500B
:1099F0000AF1010ABAF1080FD4D1C6F82CB0F06A06
:109A000003B0BDE8F08F00BF00800041002000409F
:109A1000656F020000800240C3AD0200B5AD0200D8
:109A200010B50023024603391846994200D810BDEC
:109A3000D45C01336040F8E707B5CB1E0DF1070297
:109A400002211844024B9847C0B203B05DF804FBF2
:109A5000B5980000CB1E18440221014B184700BFE7
:109A6000DD98000010B40C46204411465DF8044B0C
:109A70001A46014B184700BFB598000010B50C46B8
:109A8000204411461A46014B984710BDDD9800004E
:109A900000F13403B43053F8042B8A4203D08342DC
:109AA000F9D1002070470120704790F8B43001339D
:109AB00003F01F0380F8B43000EB8300416370476C
:109AC00038B5012383808171054B044605480D4656
:109AD00098472C20044B68439847A06038BD00BFCE
