:10400000D853022001C10200F3C00200F5C0020033
:10401000F7C00200F9C00200FBC00200000000006F
:1040200000000000000000000000000081520200BB
:10403000FDC0020000000000B15202001553020052
:10404000F1C00200F1C00200F1C00200F1C00200A4
:10405000F1C00200F1C00200F1C00200F1C0020094
:10406000F1C00200F1C00200F1C00200718E020036
:10407000F1C00200F1C00200F1C00200F1C0020074
:10408000F1C00200F1C00200F1C00200F1C0020064
:10409000F1C00200F1C00200F1C00200F1C0020054
:1040A000F1C00200F1C00200F1C00200F1C0020044
:1040B000F1C00200D55F020001600200ED7602004F
:1040C000F5760200FD760200057702000D7702000A
:1040D000F1C00200F1C00200F1C00200F1C0020014
:1040E000F1C00200F1C0020000000000000000006A
:1040F0000000000065720200B5A70200C5A702001B
:10410000CDA70200D5A70200DDA70200EDA702009F
:10411000F5A70200FDA70200F1C00200F1C00200F5
:10412000F1C00200F1C0020005A8020049A8020087
:1041300051A8020059A8020061A8020071A802005B
:1041400079A8020081A8020089A8020019A902002A
:1041500021A9020029A9020031A9020041A90200F7
:1041600049A9020051A90200F1C00200F1C00200F9
:10417000F1C00200F1C002000000000000000000D9
:10418000957102009D710200A5710200AD710200DF
:1041900000000000F1C00200F1C00200F1C0020006
:1041A000F1C00200F1C00200F1C00200F1C0020043
:1041B000F1C00200F1C00200F1C00200F1C0020033
:1041C000F1C00200F1C00200F1C00200F1C0020023
:1041D000F1C00200F1C00200F1C00200F1C0020013
:1041E000F1C00200F1C00200F1C00200D1CA020019
:1041F000E1CA0200F1CA020001CB0200F1C00200D4
:10420000F1C00200F1C00200F1C00200F1C00200E2
:10421000F1C00200F1C00200C1C00200D1C0020022
:10422000D9C00200E9C00200F1C00200F1C00200E2
:10423000F1C00200F1C00200F1C00200F1C00200B2
:10424000F1C00200F1C00200F1C00200F1C00200A2
:10425000F1C00200F1C00200F1C00200F1C0020092
:10426000F1C0020010B5054C237833B9044B13B1EB
:104270000448AFF300800123237010BDD008002054
:1042800000000000A0EB030008B5034B1BB103497D
:104290000348AFF3008008BD00000000D4080020F0
:1042A000A0EB030010B40B78812B10D11A4B8A8835
:1042B00019799142194602D05B79934228D1096855
:1042C0000A780023154CA4465DF8044B6047C3F3FD
:1042D0004113012B1CD1104B8A881C7994421C4637
:1042E00002D05B79934213D14B78032B06D00B2B72
:1042F00008D06FF00C005DF8044B704708490023AC
:104300000122DFE74B88237200231A461946D9E7BA
:104310006FF00900EFE700BFEC08002001C30200C6
:10432000F408002001292DE9F74F0D46144670D0FE
:10433000022900F09280002940F092808668DFF820
:1043400048811068DFF84491371D20B96FF00900EB
:1043500003B0BDE8F08F4379827803F0FD03012BB1
:10436000F4D13B789A427ED0FF2B7FD1012D07F804
:10437000012B09D023686168187804221844C047CB
:10438000012D42D00125E0E76168DFF804A1052294
:10439000C0478346BBF1000FECD09BF802208DF89C
:1043A00002209BF803208DF803209BF805109BF852
:1043B0000420314B02EB012292B2ADF80420BDF88B
:1043C0000420D2B289F80420012289F800209DF847
:1043D00002009DF80310BDF8042092B2984700280F
:1043E00047D19DF802209DF802001306C0B24CBFD1
:1043F000B071F071D047C4F800B09BF8000061685C
:104400001E4B584498478346C4E71D4B00205D74FB
:104410009EE785682AB113685B7903F0FD03012BE1
:1044200094D12B79A879FF2B1CBFFF232B716B79BB
:10443000FF2B1CBFFF236B71FF2803D0114B984744
:10444000FF23AB71E879FF2803D00E4B9847FF2379
:10445000EB710B4B002058747AE76FF01A0077E786
:104460006FF00C0074E76FF0110071E76FF01B0044
:104470006EE76FF013006BE7798902004355020085
:10448000EC080020DD89020029550200F817002001
:10449000098A020008B50A4B984701280CD8094838
:1044A000094BC0E90630094B1430984701200849F0
:1044B000084B9847002008BD6FF01000FBE700BFD5
:1044C00039C70200EC08002025430000E1C60200C5
:1044D0000000002059C6020010B4074C6072A1729F
:1044E000E2722373A07904F10901044C0023A4466D
:1044F00004225DF8044B6047EC08002001C3020071
:104500001FB5044B01A99879034B984705B05DF896
:1045100004FB00BFEC080020318B020010B40A46F7
:10452000044C01460448A446C0795DF8044B0023BE
:10453000604700BF01C30200EC08002010B50A4626
:1045400020B1012809D06FF00C0010BD054BD879BF
:104550000221054B98470020F7E7024B022198798A
:10456000F7E700BFEC080020F18B020070B50024D3
:104570000A4B01710546448148000E469847234680
:1045800028602246D9B28E4203D8AA812A8100200F
:1045900070BD20F813200133F4E700BFDD320300C3
:1045A0002DE9F0410A4B0B4EDFF82C800546000147
:1045B0000F46984700243060A54202D10020BDE894
:1045C000F0813068394600EB0410C0470134F3E74E
:1045D000DD320300A44800206D4500002B4B2DE97F
:1045E000F0470D461968040101EB00130E5993F8CA
:1045F000048000242746A446A2464FF6FF792046B1
:104600005FFA84FEF04532D82918B0FBF8F080B28A
:10461000A84234BF0FFA8CF43CB2C2F1100236F853
:10462000140026F81450081A5D891979B0FBF1F0CE
:10463000D1B284B244FA01F22D1B92B201248A4015
:1046400004FA01F11C89002D96B2B8BF6D42B44244
:104650001AD08D4205DCC1F57F41FF31B14200DB4C
:1046600096B9588101201E819881BDE8F08736F8FF
:1046700014108A453CBF77468A468945084484BF62
:10468000F44689460134BBE70020EEE7A448002049
:10469000044B1B6803EB00108089003818BF012011
:1046A000704700BFA4480020034B1B6803EB0010B9
:1046B0000023838100897047A4480020F7B5244B6C
:1046C000244E04464068984742F64B730025C4E9DF
:1046D000095542F63177E55442F63273FF2204F56C
:1046E0003C50E2540221E2553B30B04704F53C50C7
:1046F000E25D02213930B04742F6477304F53C567B
:104700003336E15C144B0191304698470199134BC5
:10471000024630469847124BE5612046984704F51B
:104720009D53143304F51C523C32194603F8015BC7
:104730009342FBD104F12C03002203F8012B8B429E
:10474000FBD16068074B03B0BDE8F040184700BFDD
:10475000399C0200A9990000ED9A0000219B0000FD
:104760009D9500000D9C02000F4A002310B50230F9
:104770001370A0F8EE3320F8021CA0F8E833A0F87C
:10478000EA33A0F8EC33A0F8F033A0F8F233A0F845
:10479000F4331C469AB2914201D8012010BD00F8B2
:1047A000014B0133F6E700BF54470020B0F8EA336D
:1047B000B0F8F22393429BBF0088C018981A801A61
:1047C00080B2704710B50C4B0446984788420BD90D
:1047D000B4F8F23320880B44B3FBF0F200FB123341
:1047E000A4F8F433084610BD044A13780133DBB251
:1047F00013700021F6E700BFAD47000054470020CA
:10480000B0F8F633C2180133917001889BB2B3FB44
:10481000F1F201FB1233A0F8F633012070470000DB
:10482000B0F8F433B0F8F623934217BF054AA0F866
:10483000F2331378013317BFDBB20120137000206D
:10484000704700BF544700202DE9F04F2DED028B3B
:104850008FB0134602AF07337A62DB086A46A2EBD9
:10486000C3039D460022836A04460DF1080841F205
:10487000883041F2B43594467E6A91B28E4200F29D
:1048800038810022454641F2883041F2B43C9646D8
:104890007E6A91B28E4200F239813344B3FBF0F26A
:1048A00000FB1233C4E90933DFF81493DFF814A3D3
:1048B0000023236201267B6AB34200F231812B7808
:1048C000012B40F010817B6AEB1813F8019CB9F1C1
:1048D0000A0F40F00881796AB14BB24E28469847DA
:1048E000796A80462846B047804540F05F826B7801
:1048F0000F2B40F06F814FF00003DFF8CC8287F878
:104900002F30022207F12F0306212846C04707F166
:104910002F03B860022208212846C04707F12F0361
:104920007860022214212846C047C3B23B600222AD
:1049300007F12F030E212846C047C3B23B62A3F103
:104940007F06022207F12F0310212846C047C3B279
:104950004946FB61A3F17F0B022207F12F03284692
:10496000C047C3B2BB61A3F17F0A022207F12F0344
:104970000C212846C047C3B27B61A3F17F09022204
:1049800007F12F0312212846C04742F6307376B252
:10499000E35C184400F0030208EE102A4FFA8BFB88
:1049A0004FFA8AFA4FFA89F96BB1012B40F0C780B0
:1049B000FB697A69C3F17F03C2F17F02D146B34636
:1049C0004FFA82FA5EB242F64973E25C42F64A73EB
:1049D0007F32E35C7F3359FA83F95BFA83F85FFA3D
:1049E00089F3FB603B685AFA82FA03F1010B5FFA24
:1049F0008BF356FA82F65FFA8AF208EE903A3A6141
:104A0000D7E90723134397F808B0F6B25FFA88F89E
:104A100028D007F12F0ADFF8B491CDF800A05B464B
:104A2000022206212846C847334602220E21CDF82D
:104A300000A02846C847434602221021CDF800A016
:104A40002846C84718EE903A02221421CDF800A05B
:104A50002846C84718EE103ACDF800A002221221CD
:104A60002846C847D7E9052313430FD007F12F067F
:104A700000963B69DFF8548102220A212846C0478C
:104A80000096FB6802220C212846C0473B69464835
:104A900003EB0B26FB6803EB06233E7906EB0326AC
:104AA0003146424B9847F0B9796A3E4B28469847C1
:104AB00004F52C54796A3E4B024634342846984714
:104AC000796A3C4B2046984768B17B6ADFF80091D1
:104AD0002B449846A8455DD1374B2046984732482D
:104AE000364B314698473437BD46BDEC028BBDE8A6
:104AF000F08FD618B6FBF0F100FB116121444E5D3A
:104B000008F8026001F805C00132B5E6D618B6FB18
:104B1000F0F100FB11612144013201F80CE0B7E62D
:104B200018F80630012B07D17B6A981B83B24846E0
:104B30007B6208EB0605D0470136B6B2BBE6022B16
:104B400013D13B6AC3F17F06FB69C3F17F0BBB69DD
:104B5000C3F17F0A7B69C3F17F0976B24FFA8BFB01
:104B60004FFA8AFA4FFA89F92DE7032B0CD13B6AE9
:104B7000C3F17F08BB69C3F17F03CA465E464FFAA3
:104B800083F94FFA88FB1EE74FF00009CA46CB466F
:104B90004E4618E715F8011B2046C8479AE700BFA4
:104BA000059B0000ED9A00000C7800205D9B000042
:104BB000219B0000C547000021480000779B0000B2
:104BC0009C8D030055400300319B0000499B000071
:104BD000014800000E2B40F0E580AB78072B82D116
:104BE000DFF8F4810022022105F10800C04700220D
:104BF0005FFA80F90221A81DC04742F64B735FFAA5
:104C000080FBE35CC246002B71D142F6317814F888
:104C10000830FF2B1BD1664B6648984700F07F0297
:104C200004F53C5004F80820634B022139309847C2
:104C300004F53C5842F6477308F13308E15C3962E9
:104C40004046B047396A5D4B02464046984742F6B7
:104C50003273E25C5A4517D004F53C505A4604F8CA
:104C600003B00221544B3B30984704F53C5842F6C0
:104C7000477308F13308E15C39624046B047396A4E
:104C80004E4B02464046984742F63173E35C4B4533
:104C900028D1627AEB789B1A06335A4202F003025B
:104CA00003F0030358BF534242F630720221A3546B
:104CB0007B6AA3F10A0000222844D04742F62C73F5
:104CC0000122E05042F64B733D48E2543D4B3E4DCD
:104CD000984700234FF4FA72CDE900323548FF229D
:104CE0001946A84742F648730122E254FBE6627A6D
:104CF000EB7842F631719B1A0633605C5A4242F6F9
:104D0000327102F00302615C03F0030358BF5342A7
:104D100042F63072484508BF5945A25C0CBF4FF0BF
:104D200001094FF00009934214BF4FF0000909F048
:104D3000010942F62C73002254F803A07B6AA3F108
:104D40000A0002212844C047504503D1B9F1000FA1
:104D50007FF4C9AE42F64B730022E25442F631783A
:104D600042F63273FF2204F53C50E254124D04F82F
:104D7000082002213B30A84704F53C5014F80820D5
:104D800002213930A84742F6477304F53C553335C4
:104D9000E15C79622846B047796A084B02462846AA
:104DA0009847A0E609480A4B98479CE60948FAE765
:104DB000CB9800000C780020A9990000219B0000EE
:104DC000AF8D03005540030035990000B78D0300F7
:104DD00019420300CD8D030081990000F7B5037ED1
:104DE000012B04460DD100250576524B98474FF410
:104DF000FA73CDE90053FF234F48504D1A46194628
:104E0000A847256A75BB6368C3B1E369B3F57A7FC8
:104E10003CD942F64B73E35C012B2BD1484B4948FC
:104E20009847444B204698474FF4FA73CDE9005316
:104E3000FF234148414D1A461946A84741F287369B
:104E40004FF4F57141F2B430B44641F2883741F283
:104E5000863E626AA3181B5C0A2B1AD10023012527
:104E6000C4E90735D4E90921914258D302F59C528F
:104E7000093255E0A36A13B9636A002BDED0304BC8
:104E8000314898472B4B20469847D7E70133E361D9
:104E9000D4E723B9236A002BE4D103B0F0BDA56A9F
:104EA0006B1E9A420DD1234B204698470223C820FF
:104EB000CDE9003000231A46FF211F481F4CA047B0
:104EC000EBE7B2420BD155B91A4B20469847022363
:104ED000C821CDE90031FF222B462946EDE7654484
:104EE000B5FBF7F307FB135525442B5C53B1114B6E
:104EF000204698470223C822CDE900320022FF2332
:104F00001146DAE7724501F1FF3198BF013289B2EB
:104F1000E36194BF6262636200299AD1BAE7013209
:104F2000521A0A4B92B289B2204698470023236254
:104F3000B3E700BFBD4600000C78002035990000A3
:104F400055400300DF8D0300038E03004948000035
:104F5000B0F8EC13B0F8EE338B42F0B5024600D057
:104F6000FEE7B0F8EA63B34200D0FEE7B0F8F273B0
:104F7000BE4216D005880024A3B29D4200D8FEE7A9
:104F80003019B0FBF5F105FB110188B2874208D05A
:104F90001144013398B28B780A2B04F10104EBD150
:104FA000F0BD0020FCE7B0F8EC23B0F8EE339342FC
:104FB000F0B500D0FEE7B0F8EA53AB4200D0FEE710
:104FC000B0F8F263B54220D001880024A3B2994220
:104FD00000D8FEE72F19B7FBF1F201FB127297B26E
:104FE000BE4212D087180133BF780A2F9BB204F15A
:104FF0000104EBD10132B2FBF1F401FB1422A0F861
:10500000EC23A0F8F0331846F0BD0023FBE7B0F81E
:10501000EE33B0F8EC13994210B502460BD0148869
:10502000C11801339BB28878B3FBF4F104FB113350
:10503000A2F8EE3310BDFEE7B0F8EC23B0F8EE3383
:10504000934200D0FEE7A0F8EA3301207047000049
:105050002DE9F043044600F51C5087B0DFF850817D
:105060000D463C304FF47A7116461F46C04704F592
:105070002C504FF47A713430C04700209DF83830FE
:10508000206041F28832A37267720346656026721F
:10509000A0812062E1180133934281F82C00F9D1FC
:1050A000002341F2B4311D4641F28832E018013349
:1050B00093424554FAD142F62C7342F6307142F6CF
:1050C00031706554E55042F64B730122FF27E254DC
:1050D000275442F632709642275442F648702554BF
:1050E00057D1E55465542C4B2C4894F809909847B7
:1050F00004F53C58042308F13308CDE904735FFA42
:1051000089F9072332462649CDF80490CDE90207F4
:10511000DFF8A090009340460E23C847214B40463D
:10512000984742F64773C0B2E054404614F80390E3
:10513000E15C1D4B98475FFA89F91C4B02464946D2
:1051400040469847637A112B08D142F64973E554DB
:1051500042F64A73E65407B0BDE8F083637A122B37
:1051600006D142F64973E65442F64A73E554F2E733
:10517000637A132B06D142F64973E55442F64A731B
:10518000E754E8E7637A142BE5D142F64973E75414
:10519000EAE7E254DFE700BF0D9A00000C78002038
:1051A0001C8E0300E9560300ED9A0000219B0000CD
:1051B00069470000114703002DE9F34700261C4D05
:1051C0001C491D480096012411230122A8474FF0D5
:1051D0000209224619491A4800941223A8470327B6
:1051E000224618491848CDF800901323A847DFF845
:1051F000688000972246154915481423A8474FF0A8
:10520000FF0A3A46134FCDF800A0334631464046D8
:10521000A8473346CDF800A04A4631463846A8474D
:1052200042F64B7308F80340FC5402B0BDE8F08727
:1052300051500000F451012008180020A051012015
:10524000641C0120F8520120C4BC0020A852012097
:10525000C486002018EC0020AC4800202DE9F04F57
:1052600000F52C5891B008F1340802AF5C4B79601E
:105270000646404698470546002800F0AF80594B47
:10528000BB60594BFB60594B3B61594B7B61594BA0
:10529000BB61594BFB61EB4607F108034FF0060970
:1052A000002442F64B7153F8042B505C38B107F1DF
:1052B000380000EB8400013440F8182CE4B209F106
:1052C000FF3919F0FF09EED14C4A494607F1200A8F
:1052D00042F23C7CC8B2844205D8494B40469847CC
:1052E000A84247D0FEE75AF82100B04201D17B68BE
:1052F000B3B160449047A842404A42F23C7C0FD28E
:105300000223C822CDE9003264223E483E4C0023ED
:105310001146A047DD4648463C37BD46BDE8F08F04
:105320000131D7E75AF82900B04201D1796829B193
:10533000184429469047354A42F23C7309F1010965
:105340005FFA89F18C42EDD84FF0000A1FFA8AF318
:105350009D42404616D82E4BDFF8C090984707F183
:105360002005002142F23C78CBB29C422CD84FF071
:105370000109CFE7254A4FF0000907F1200A42F260
:105380003C73DDE7234B98474FF00009014607F1D6
:10539000200342F23C7C5FFA89F0844202D80AF191
:1053A000010AD3E753F82900B04201D17A6842B12B
:1053B000194B396060449847396807F1200342F27D
:1053C0003C7C09F10109E6E755F82100B04201D122
:1053D0007B680BB14044C8470131C5E781469AE775
:1053E000514F000008180020641C0120C4BC00209C
:1053F000C4860020AC48002018EC0020AD47000017
:10540000A74F00000C78002035990000C547000028
:10541000395000000F5000000148000021480000F2
:105420002DE9F04F00F51C553C35854BEFB0064695
:1054300028469847044610B96FB0BDE8F08F06F1D2
:105440002C030193019A06F59D531433002102F8B1
:10545000011B9A42FBD17B4BDFF820B2DFF8209290
:1054600006A89847784B28469847DDF804A04FF0E7
:1054700000081FFA88F39C4228461FD8734B744DCE
:105480009847744B06A89847734B06A898474FF067
:10549000000844466B9A1FFA88F39A4218D86F4B5B
:1054A0006F4F06A8984700240546AC42214640F0BD
:1054B000BF806C4B06F12C009847BDE7D8470746E4
:1054C000014606A8C84708F101080AF8017BD0E7A1
:1054D00006AA13449B7E022B04D15FFA88F408F1DC
:1054E0000108D7E7032BFAD10CB90024F7E7012212
:1054F000214606A8A84701235FFA80F90422214625
:1055000006A8A847C0B2B9F1000F2AD10E28ECD1E5
:1055100021460223052206A8A847214683460223E6
:10552000072206A8A8472146C7B20223092206A8D7
:10553000A8470B2282462146022306A8A8473B091A
:1055400047EA0B078DF810308DF811708DF812A016
:105550008DF813000498444B98470498434B9847A0
:10556000C3E7B9F1910FC0D10E28BED102230722A3
:10557000214606A8A84702235FFA80FB05222146A0
:1055800006A8A847002702905F45AED2E119012383
:10559000092206A80391A84703995FFA80FA01231C
:1055A0000A2206A8A8470399814602230B2206A8CF
:1055B000A847BAF1010F039920D85FFA89F39DF843
:1055C00008208DF811A0022B0DF11009DFF8A0A022
:1055D00089F8023089F80000C9F8042008D10123B5
:1055E00089F8023099E80300D047002389F8023097
:1055F00099E80300D0470437FFB2C5E7BAF10F0FAF
:1056000012D103230A2206A8A8474FF47062ADF80E
:10561000102080B2002204AB8DF81220059093E890
:105620000300134B9847E6E7124B13489847E2E70D
:1056300006A8B847019B03F8010B0134019334E736
:10564000514F000029860000A74F0000395000008C
:10565000F18500003984000079840000398500005C
:10566000438700008D5A020065AC00008DAC00003D
:1056700075AD000019420300368E03000F50000084
:10568000F58600002DE9F04F00F51C543C34ADF5D3
:105690006D7D9E4B204698470025099018B90DF561
:1056A0006D7DBDE8F08F9A4B20954FF4C672294668
:1056B00021A89847974B984F2046984720AE099AC3
:1056C000ABB2934220464AD3944B954C9847002561
:1056D0000DF13A0302220E2130468DF83A50A047D0
:1056E000C3B2069302220DF13A0310213046A047BF
:1056F000C3B2089302220DF13A0312213046A047AB
:10570000C3B20D93069B7F2B2DD1089B0795A3F168
:105710007F014B424B4105930023CDE90B338DF8BC
:105720003B3004931C46059B1D43079B2B430A9368
:10573000049B0DF1800913F809A0BAF1020F26D1DC
:105740000C9B9DF810400133DBB20C93049B099A2B
:1057500001330493BDF810309342E9D39FE7B84773
:1057600070550135ABE7069B3BB9089BB3FA83F54F
:10577000069B07936D090593CEE7089A069B05954E
:105780001340A3F1FF02534253410793C4E7BAF118
:10579000030FDBD1002CD9D0DDE90B23A3EB020BE7
:1057A000BBF1010FD2D113460133DBB2601C0B9366
:1057B0000DF13B025B4B514648449847C6B2201D51
:1057C000584B0DF13B02594648449847302E554BF3
:1057D00027465FFA80F81ED1601D0DF13B020221C1
:1057E00048449847B8F10E0F06460FD14E484F4C2B
:1057F000A0474F48C379012B0AD1F6B24D494E4B11
:10580000324698474D484E4B3146984700249DE715
:105810004C48A047FAE7312E30D105F0FF04002DA7
:1058200094D0B8F10F0FF1D1474B484C84A898475A
:1058300000231A46194684A8A0470024344B139429
:105840002E22214614A89847414A3146CDE9006AE4
:105850000223404E13A8B0473F4B404E13A984A8E3
:1058600098470D23009304225B46214684A8B04745
:105870002F4B9B790093052202234AE1852E40F0AD
:10588000D583B8F10E0FC1D10A9C002C3FF45EAF56
:10589000781D0DF13B0204214844984700211C4B20
:1058A00084910446C42285A89847A4B207F109014F
:1058B0002B4B2246494484A898472A492A4B062262
:1058C00084A89847E0B9E61E84AB9B5D202B17D1D6
:1058D00084AB234413F8022C3F2A11D113F8013C66
:1058E0003E2B0DD184AA2146204B2148984784AAFB
:1058F000002393550DF216211E4B1F48984785E74C
:105900001A4B1E4884AA214698477FE7514F000052
:10591000F9330300A74F00000F500000395000007A
:10592000319B000081990000588E0300194203004A
:10593000F877002030820020419C00000C78002085
:10594000819800005D8E0300298600005D860000BE
:10595000738E0300714603004D8500000D86000024
:105960001D5703007F8E0300F956030055400300C6
:10597000868E030039BC000060470020988E03002B
:10598000601D0DF13B0202214844984710F0FF04CE
:105990003FF4DCAE012C0FD1069BA3F17F02A44B98
:1059A00052B283F83920089A7F3A52B283F83A20EB
:1059B0000D9A83F83B2029E703067FF527AF9C4E1D
:1059C000737923B9012373719A489B4B98479B4B7A
:1059D00097489847FF2C9A4BB0604FF0000406BFE1
:1059E0000122DA71DC71B1E6412E42D1B8F10E0F1D
:1059F0007FF40CAF059B079A53EA02043FF4A6AE6E
:105A000020AB781D8F4E0DF13B0202211844B047A8
:105A100020AB8046F81D0DF13B0202211844B0472F
:105A200020AB814607F109000DF13B020221184429
:105A3000B04720AB824607F10B000DF13B0202217B
:105A40001844B04720AB044607F10D000DF13B02AE
:105A500002211844B047E4B2C0B2019000947A48E1
:105A60007A4C5FFA8AF35FFA89F25FFA88F1A0470D
:105A7000CCE6112E51D1B8F10F0F7FF4C7AE05F06F
:105A8000FF04002D3FF462AE10220021704F714CD4
:105A90000FA8B847704B0FA89847704B84A8984739
:105AA00000231A46194684A8A04700242E22214626
:105AB00014A81394B8470323CDE90063684A694EDC
:105AC0000223312113A8B0470D27674B674E13A956
:105AD00084A8984701230422214684A80097B04750
:105AE0000F9B009305220823214684A8B047109BF2
:105AF00000933A460823214684A8B047119B00939F
:105B000015220823214684A8B047129B00931D222A
:105B10000823214684A8B04739E0142E3ED1B8F1BD
:105B20000F0F7FF473AE002D3FF470AE4B4B494C1A
:105B30004E4F84A8984700231A46194684A8A047C8
:105B40000024434B13942E22214614A89847032384
:105B5000CDE90063464A434E0223312113A8B047E2
:105B6000414B334E13A984A898470D230093042278
:105B70000123214684A8B8473368009305220823EF
:105B8000214684A8B8473368336833683368394B93
:105B900084A89847384B84A89847D7E5122E30D16F
:105BA000B8F10F0F7FF432AE05F0FF04002D3FF483
:105BB000CDAD2A4B274C84A8984700231A46194696
:105BC00084A8A0470024224B13942E22214614A817
:105BD00098470323CDE90063284A224E022331214E
:105BE00013A8B047204B214E13A984A898470D2332
:105BF000009304220123214684A8B0470C4B1B7953
:105C000038E6132E40D1B8F10E0F7FF4FFAD059B9F
:105C1000002B3FF4FBADBFF34F8F1949194BCA68F6
:105C200002F4E0621343CB60BFF34F8F00BFFDE788
:105C30000C780020B18E030019420300CB980000BD
:105C4000F877002081990000204C0120E1710000CC
:105C5000F93303005D860000E19900002986000009
:105C6000C18E0300714603004D8500000D860000C3
:105C7000EB8E0300798700004D880000738E0300CF
:105C800000ED00E00400FA05612E0FD1B8F10E0F0F
:105C90007FF4BCAD002D3FF4B9ADAA4BAA49AB4887
:105CA000012283F84520AA4B9847AFE5622E0CD11C
:105CB000B8F10E0F7FF4AAAD05F0FF04002D3FF4FC
:105CC00045ADA149A148A34BEEE7602E40F06E819F
:105CD000B8F10F0F2ED1002D3FF498AD04F10B0158
:105CE000DFF8808200230222C9B220A8C04704F155
:105CF0000D01C7B200230222C9B220A8C04704F197
:105D00000F01C6B200230222C9B220A8C047FF2E4D
:105D100008BF8D4B8D4908BF1E7A8F4C08BF06F116
:105D2000FF36C0B208BFF6B2009033463A46864806
:105D3000A0476BE5B8F10E0F7FF468ADDDF828A041
:105D40005346002B3FF462AD7E4BDFF818820022F1
:105D5000611D83F84520C9B2134620A80222C0471E
:105D6000E11D074600230222C9B220A8C04704F162
:105D70000901002306460222C9B220A8FFB2C0478B
:105D8000012F764B40F0B780F6B2012E40F0B38081
:105D9000C0B2092840F0AF807148724F984704F1B3
:105DA0000B0100230222C9B220A8B84704F10D015B
:105DB000814600230222C9B220A8B84704F10F018E
:105DC000C6B200230222C9B220A8B84704F11101CB
:105DD000002380460422C9B220A8B847FF2E04BF82
:105DE000594B1E7AECAB1C44A4F21B3487B208BF9B
:105DF00006F1FF36E35D08BFF6B2032B5FFA89F9BF
:105E00005FFA88F840F09380F92F4FF0000B00F212
:105E1000888004F807B043463246CDE90074524802
:105E2000DFF880B14946D847474B5A794A4564D094
:105E30004FF0000A0323E35584A84C4B4C4C4D4FC4
:105E4000984700231A46194684A8A0470323002434
:105E5000009302224849ADF85440602313A84FF044
:105E6000010BCDE91344B84713A984A8434B444F11
:105E70009847214684A8CDF800B002230522B847F0
:105E8000214684A8CDF800B002230722B847092292
:105E90000092214684A80223B847214684A8CDF861
:105EA000009002230B22B847214684A800960223C3
:105EB0000D22B847214684A8CDF8008002230F2286
:105EC000B8470423214684A800941122B847DA4534
:105ED0000BBF0A230B23009300930CBF53465B4672
:105EE0000422214684A8B847264B84A89847264B0D
:105EF00084A898478AE425484FE7DB682C2006FBF6
:105F000000304146224B98478346002890D02146D6
:105F1000204B9847114B20489847204B58469847AC
:105F200088E71F480D4B98474FF0000A84E7CDE9FA
:105F3000013400971B4C1C48434632464946A04753
:105F4000F2E700BF54860020F8770020308200205E
:105F5000299200004D930000A9A0000019420300FF
:105F6000FD8E0300319B00002C8F0300298600006A
:105F70005D86000011470300A18F03004D850000DE
:105F80000D860000798700004D880000098F03000E
:105F900081A00000199D0000488F03008DA2000021
:105FA000548F030055400300728F0300902E7FF43E
:105FB0002DACB8F10E0F7FF429AC05F0FF04002DD5
:105FC0003FF4C4ABECABD8190DF13B020221344BCA
:105FD000344E354C354FA0F22B309847344B86F871
:105FE000450084A8984700231A46194684A8A0476C
:105FF0000323002402222F49009313A89023CDE904
:106000001344ADF85440B8472B4B13A984A89847C4
:1060100096F84530009305220223284E214684A895
:10602000B0470A2300930422012372E5102E3FF4A7
:10603000A7AC402E7FF4D8ACB8F10E0F7FF4E6ABDE
:10604000059B079A53EA02043FF480AB20AB781D0E
:10605000DFF84C800DF13B0202211844C04720AB11
:10606000C4B2F81D0DF13B0202211844C04720AB19
:10607000C6B207F109000DF13B0202211844C047E6
:1060800083B25B00FF2BDCBF400000F0FE030C4F2F
:106090000C48C8BFFF2332462146B847FFF7B6BBBE
:1060A00081990000548600205D860000114703009E
:1060B00029860000738E03004D8500000D860000C8
:1060C00051720000204C01202DE9F04787890546D8
:1060D0001FBB00F51C563C36114B30469847044612
:1060E000A0B1104BDFF848A0304605F12C089847C6
:1060F000C146AC81BBB29C42304609D80A4B984796
:10610000AA896868094B494698470120BDE8F0878D
:10611000D047013708F8010BECE70020F6E700BF95
:10612000514F0000A74F000039500000E15102001C
:106130000F50000037B50E4B054601A898470D4A91
:106140006B09D90102EBC31351581A6A1C690A4B37
:1061500054400C4001A8544005F01F059847012009
:1061600000FA05F5254208BF002003B030BD00BF8E
:1061700035B002000080004143B0020000F01F0370
:1061800030B501259D4040090F4BC0010129ACB23B
:106190004FEA1542034408D0022944F0804442F0FB
:1061A00040420ED05D609C6209E044F0804444F4BB
:1061B000003442F040425D6042F400329C629A62D8
:1061C00030BD9D60EFE700BF0080004100F01F027E
:1061D00001294FEA5010144B4FEAC0100AD002298F
:1061E00014D00344134493F8402002F0FB0283F8D8
:1061F00040207047034491401A44596092F840008F
:1062000040F0040082F84000996170470344012186
:1062100091401A44596092F8400040F0040082F81E
:1062200040005961704700BF008000412DE9F04FE8
:106230000021A5B0C0E90011C0E90211A34BA44C94
:10624000A44DA54F1022064607A89847A34BA44A81
:10625000A449A548DFF8C4C2DFF8C4E2CDE90B23A6
:10626000A24B0D9303F1285303F5003303F2FA23F5
:106270000E939F4BCDE90F139E4BCDE911039E4B1F
:10628000CDE913439D4BCDE915539D4B179303F176
:10629000A85303F5A01303F20223189303F140332C
:1062A0001993984B984DCDE91A7303F1614303F5A7
:1062B000620303F204431C9303F1806303F5783314
:1062C00003F5F1731D93914B914FCDE91EC303F17B
:1062D000424303F5842303F2222320938D4BCDE91F
:1062E00021E303F1644303F5003303F5A173239322
:1062F0000BAB03930123039A12F8014B0392EF2C8B
:1063000041D8642003F16202B2FBF0F100FB1121DD
:1063100024AA11440193B3FBF0F200FB123224AB28
:106320001A4411F864BC12F864AC01212046A84755
:1063300002212046B847784B2046984700218146E5
:106340002046A84700212046B847019BB9F1000F1D
:106350001FD019219C1E24A894FBF1F200EB8200AF
:1063600001FB1242D2B2012101FA02F250F8741C70
:106370000A4340F8742C079A3260089A7260099AAE
:10638000B2600A9AF2600133652BB4D125B0BDE842
:10639000F08F012120460293A84701212046B847EB
:1063A0005D4B20469847494601902046A847204625
:1063B000B847DDE90123002ACBD0BBF1EF0F41D96B
:1063C000BAF1EF0FDFD8012120464FEA5A180293A5
:1063D0004FEAC818A84702212046B84708F182486A
:1063E00002215046A84708F5004801210AF01F0B7A
:1063F00001FA0BFB484AC8F818B020469047012123
:1064000081462046A84701212046B8470221504630
:10641000A847414AC8F814B020469047019B002184
:10642000002808BF99462046A84700215046A847A3
:1064300000212046B847029BC8F814B0B9F1000FFC
:10644000A1D086E7012120464FEA5B1805934FEA69
:10645000C818A84702212046B84708F182480221FF
:106460005846A84708F5004801210BF01F0201FA21
:1064700002F2C8F81820284B0492204698470121C0
:1064800002902046A84701212046B84702215846DD
:10649000A847049AC8F814201F4B04922046984736
:1064A000DDE901234946002808BF13462046029330
:1064B000A8475846A8472046B847049AC8F8142069
:1064C000029A059B002A3FF47BAF42E7F9330300B1
:1064D0002A2B2C2D4A4B4C4D5455FEFD4142430274
:1064E0002300014029040506FEFD0809032425FEBA
:1064F000074546470A0BFDFE2E2FFEFD4E4F0C0DA5
:106500000E0FFEFD303132337D61000038395859AD
:10651000CD610000FD1E1F3E35610000FEFD3637D7
:10652000FCF8FEF72DE9F04F214F224DDFF8ACA02B
:10653000DFF8AC8087B004461F48B8471F484FF0CB
:10654000FF3343631E4B984701461E48A84710225D
:1065500000211D4B02A898471C4B02A89847059B99
:10656000009302991A48DDE90323A8470026194B36
:106570000A20984731465046A8474FF000094FF08F
:10658000010B21680BFA09F20A4214BF31203020B6
:1065900009F10109C047B9F1200FF2D10E480136C7
:1065A000B847042E04F10404E1D107B0BDE8F08F30
:1065B0001942030055400300169003000C78002098
:1065C0000D9A00002D900300F9330300E1990000BB
:1065D0003D900300E57102002292030061900300E8
:1065E0001541030008490B6813B90848084B1847C0
:1065F0000848026842F080720260074A002043F0B7
:10660000010310600B607047001000E073900300FE
:1066100019420300FCED00E0041000E0004B1847B5
:10662000E5650000014B1868704700BF041000E0EA
:10663000F0B51D4D1D4B85B0012422214FF40062A1
:106640002846ADF800409847AB8FADF8043002946F
:106650000023174CADF8063001A92846CDF80CD020
:10666000A04710B11348144B9847144E37686B88F5
:10667000DA05FCD448F201030B48ADF8063001A955
:10668000A04710B10B480C4B98476B88DB05FCD436
:1066900033689DF800100A48DB1B7822B3FBF2F246
:1066A000084B984705B0F0BD2051012081540200ED
:1066B000B15402009990030019420300041000E055
:1066C000A490030055400300F0B51E4D1E4C85B04C
:1066D0000323ADF800304A211C4B4FF400622846DA
:1066E0009847AB8FADF804300123029301A9002332
:1066F0002846ADF80630CDF80CD0A04710B11448AC
:10670000144B9847144E37686B88DA05FCD448F26E
:1067100001030C48ADF8063001A9A04710B10C48A0
:106720000C4B98476B88DB05FCD433689DF8001050
:106730000A48DB1B7822B3FBF2F2094B984705B0FD
:10674000F0BD00BF20510120B1540200815402006D
:106750009990030019420300041000E0A490030084
:106760005540030058B1837A013383720023C3720A
:10677000037C0BB901230374014B1B68C360704792
:10678000041000E030B5F0B10F49C3680A68C47A5C
:10679000D21A00EB84035D6E15445D665D69954217
:1067A00000D805B95A61DD6B954238BFDA63082C11
:1067B0009CBF0134C472037CC27A9A4224BF013365
:1067C00003740B68C36030BD041000E090B10A4B45
:1067D000C2681B689B1AC27A00EB8200426E1A44A0
:1067E000426642699A4200D802B94361C26B9A423A
:1067F00038BFC363704700BF041000E060B100F110
:10680000140200F13C01002342F8043B8A42536227
:10681000D364F9D14381C3607047000010B50446CA
:1068200048B1054B09229847002323742046034BA7
:10683000BDE81040184710BD1D570300FD6700005C
:10684000002380F8FE30021DFE3002F8013B824238
:10685000FBD17047002380F8FA3100F1FF0200F20B
:10686000F91002F8013B8242FBD1704710B50023BA
:106870000360044B01469847BDE81040024B0846B0
:10688000184700BF4168000055680000016070476C
:106890000268034612F8010B1A60704730B50168B0
:1068A00011F8013B016002460A25A3F1300011688E
:1068B0000B78A3F13004092C00D930BD013105FB60
:1068C00000331160A3F13000F1E70000F8B52A4E63
:1068D0002A4F0546B04704462A68137803F0FD01A5
:1068E0003C2904D03D2B43D151783D2942D1511C44
:1068F00029603E2B527808D13D2A284628D0B0473F
:10690000A042ACBF00240124E6E73C2B08D13D2A7D
:10691000284625D0B047A042D4BF00240124DBE79D
:106920003D2B09D13D2AD7D12846B8472846B04744
:10693000031B5C425C41CFE7212BCDD13D2ACBD15B
:106940002846B8472846B047041B18BF0124C3E7B0
:10695000B8472846B047A042CCBF00240124BBE77B
:10696000B8472846B047A042B4BF00240124B3E78B
:10697000212BB9D02046F8BD396A0000916800008B
:10698000134970B50446012523681B782F2B08D9BD
:10699000392B18D80F4B20469847014605FB01F0CC
:1069A00070BD282B09D10A4E2046B0470A4B20461D
:1069B000984701462046B047F0E72D2B03D12046EB
:1069C00088476D42E0E70548054B98470021E5E719
:1069D000916800009D680000CD680000BC90030035
:1069E00019420300F8B5134E0546B04740F221475F
:1069F00004462A681178A1F12503DBB20A2B03D8DB
:106A000027FA03F3DB0701D42046F8BD01322A2917
:106A10002A60284602D1B0474443EAE7252905D138
:106A2000B04794FBF0F303FB1044E2E7B04794FB5C
:106A3000F0F4DEE78169000070B50B4E0546B04703
:106A400004462B681A782B2A03D02D2A01D0204621
:106A500070BD01332B2A2B60284602D1B047044475
:106A6000EFE7B047241AECE7E569000070B59AB08B
:106A700004460B4B15460E466022002102A80191E8
:106A80009847A11901A8074EB04729462046B047AC
:106A9000054B2846984701A92044B0471AB070BD5D
:106AA000F93303002B480300E9560300002330B5F7
:106AB0001A461C468B420CDAC55C282D03F10103F3
:106AC00001D10132F6E7292DF4D10134A242F1D1EE
:106AD000184630BD2DE9F04F824BABB028218046DF
:106AE0009847A0EB08028146002300920099DAB291
:106AF0008A4203F10103F9DB7B4B7C4F4846984700
:106B00007B4B0146484698472822861E002107A84D
:106B1000B84700252C46B5422ADA09EB050A524649
:106B2000AB4612F8011FCDF804B02C290BF1010B74
:106B300000F0CC805E45F4DC4FF00009494610229D
:106B400012A8CDF84490751BB847494611AB03E035
:106B50001AF8012F5A5401318D42F9DC049304A82C
:106B6000644B98472AAB03EB8403013443F88C0C45
:106B7000002304AACDE90433ADF8183008F1080069
:106B800008F1FF33934613F8011F282927D15A49EA
:106B90005A4DDFF89CA15846A8470DF1440918B397
:106BA00057495846A847002800F08E805549584656
:106BB000A847002830D1DDE907531D4418E01AF832
:106BC000010F885401329542F9DC4A4B049104A824
:106BD000984707AB5D4643F8240001349BE78342A6
:106BE00002F8011BCFD1D2E7079D002DB8BF6D423F
:106BF0000021602212A81191B8472A46424948460E
:106C0000D047009B334419464A46404B0231404628
:106C100098472BB0BDE8F08F3D495846A84720B1B2
:106C20003C495846A84700283ED13B4B012C1868E8
:106C30001B7902908DF80C300ADD2AAB03EB84033C
:106C400053F8903C082BD4BF303338238DF80A30EA
:106C50000021102212A81191B847079D02A92A46C7
:106C60004846D047012C2D4AC4BF2AAB03EB84040D
:106C700092F8FA31C8BF14F8901CD8B2C3F5FC736F
:106C8000D8BF022101335B1A134400245FFA84FC4D
:106C90008C4503D3014482F8FA11A9E719F804C01E
:106CA00003F801CB0134F1E71D495846A84728B93C
:106CB000079B0BB1089D9BE7099D99E719481A4B63
:106CC00059469847002593E7184D91E70023194648
:106CD00011931022054B12A89847019B00225D1BBF
:106CE00011A970E7F9470300E9560300F9330300DF
:106CF000AD6A0000CD680000D49003001348030083
:106D0000D8900300ACBF0300FC9003006D6A000044
:106D1000DC90030088AE03000191030010B6002050
:106D200042C90300E2900300554003002A2C0A00E8
:106D300011470300A0F13003092B09D920F02003EB
:106D4000413B192B04D9A0F15F03584258417047C9
:106D5000012070472DE9F04F2DED028B0022A1B0EC
:106D6000CDE90122DFF83CA2ADF80C200D46461813
:106D70004FF0FF3B11469146002D04DA21B0BDECE7
:106D8000028BBDE8F08F08EE106A16F80149204624
:106D9000D047B9F1000F11D0B0F1000918BF4FF082
:106DA0000109002944D1002301AA194601330A2B05
:106DB00002F8011BFAD1002211464CE0002937D11C
:106DC0000028F0D0B378282B00F0CD80A4F1300358
:106DD000092B88BF0122AB46ABEB050320A90B446E
:106DE00003F87C4C303C092C24D925B13078D047AD
:106DF000002840F0B6805E4B01A898470023CDE9FB
:106E0000043301AA80460244ADF8183004A918469C
:106E1000434502F1FF3220DBA8F10203012B64D8C5
:106E20009DF81030542B5ED10123002218462DE02E
:106E30000028D1D1002AD8D101247078D04701464A
:106E4000002840F0938001AA034601330A2B02F880
:106E5000010BFAD10022013D8EE714780C7001334A
:106E600001F8010FD4E720A91944013311F8701C6F
:106E7000A1F13004092C9FBF02EB820201EB420218
:106E8000303A02F0FF0288BF0020DBB24345EADB64
:106E900058B3384B1B685B689B6953F82240364BEC
:106EA00000276022394608A8079798473349344B92
:106EB000224607A89847334B07AA414618EE100A06
:106EC000984701AB1A46394601370A2F02F8011BD1
:106ED000FAD10022114601320A2A03F8011BFAD125
:106EE00000221446A9E75A2B1ED00124D7E720A977
:106EF0001144013211F8701CA1F13004092C9FBF1C
:106F000003EB830301EB4303303B03F0FF0388BF34
:106F10000020D2B24245EADB0028E6D043B91A4845
:106F20001A4B98470446BAE7012200231046F1E7BE
:106F3000012B02D11448164BF3E7022B02D1124861
:106F4000144BEEE7032B02D10F48134BE9E7042B58
:106F500002D10D48114BE4E7052BC6D10A48104B6E
:106F6000DFE70122BDE74FF001091CE7214672E788
:106F7000E956030010B60020F9330300B49403006F
:106F8000114703006D6A00000C780020459800004E
:106F9000499800004F980000559800005B98000049
:106FA0005F980000356D00002DE9F0470022DFF802
:106FB0006880184F441805461146B4EB050A01D500
:106FC000BDE8F0872678282E00D1E2B1C9B130465D
:106FD000C047814658B1303E092E16D8BAF1000F8D
:106FE0000FD172B12046B8470022114609E0002AAD
:106FF000FBD0601CB8472178A1F1280359425941C0
:107000004A46013CD9E70121FBE7BAF1000FE9D07C
:107010000A46F6E7D56A0000356D000073B5124BDD
:1070200004460E4611469847104B20469847221DAD
:1070300000231546994211D884F8FE100C4B2846BF
:10704000984794F8FE100B4B284698470A4B019539
:1070500001A89847C4F8FC0102B070BDF05C02F8CA
:10706000010B0133E6E700BF4168000055680000EE
:10707000556D0000A96F0000CD680000014B012292
:107080001A70704704180020F0B544788C423FD93C
:10709000FF2B4FF00C04C6681E4D28BFFF234C4346
:1070A000375955F82360B74208D00669012777544D
:1070B0008669735455F82360C3681E51FF2AC66859
:1070C00028BFFF22231DF75855F82260B74208D089
:1070D0000669012777544669725455F82260C268E0
:1070E000D650BDF81430C268FF2B28BFFF230834E8
:1070F000165955F82320964208D0026901265654A5
:10710000C269535455F82320C3681A51002000E087
:10711000FF20F0BD5082002010B5064C064B00F158
:107120002401204698472046044A054BBDE81040FC
:1071300000211847445201203D5702007D70000095
:107140000957020040787047F0B5467806EB4603D1
:107150009A0000240C27E3B29E4200D8F0BD036AD7
:10716000032107FB04335D7A93F80AC001396544B3
:1071700011F0FF015D721344F5D10134EBE710B556
:107180004478006A04FB02120C2462438118835481
:107190009DF808304B709DF80C308B7010BD10B509
:1071A000447804FB0211026A0C2000FB0122D37018
:1071B0009DF8083013719DF80C30537110BD10B557
:1071C000447804FB0211026A0C2000FB0122937137
:1071D0009DF80830D3719DF80C30137210BD00007B
:1071E0002DE9F3479DF82C909DF82880DFF858A0F2
:1071F0001C461423B9FBF3FCCDF804C0B8FBF3FC28
:10720000B4FBF3F3CDF800C005460E461746D04751
:107210004FEA590301934FEA580300933A46630833
:1072200031462846DFF824A0D0472346054C3A468D
:1072300031462846A446CDE90A8902B0BDE8F047A8
:10724000604700BFBF7100007F7100009F710000A8
:1072500010B5447804FB0211026A0C2000FB0121E6
:107260004B7210BD10B5447804FB0211026A0C2069
:1072700000FB01218B7210BD10B5447804FB021194
:10728000026A0C2000FB0121CB7210BD2DE9F74FE3
:1072900004464170CDB20C2068439030674E606068
:1072A000B04700F19003A06007462420E3606843E4
:1072B000B047206207B100B9FEE72846B0476061D9
:1072C00081462846B047A06180462846B047E06125
:1072D00007462846B047206130B1B9F1000F03D00E
:1072E000B8F1000F00D007B9FEE700231946A268E5
:1072F000D1540133902BFAD10021514E0D466378C1
:107300008B4210D8002211466078D3B2984211D82F
:107310004C4E4FF0000B63785FFA8BFA534513D84D
:1073200003B0BDE8F08F002300951A462046B04711
:107330000131E4E72069C1546069C154A069C154B6
:10734000E0690132C154DFE700252B46CDE9005545
:107350003D4FDFF80091DFF80081012251462046C1
:10736000B8477F23394F0195009301222B465146A0
:107370002046B847FF230195009301222B46514632
:107380002046B0472B46012251462046C8470122DD
:1073900051462046C0472E4F012251462046B8474D
:1073A000CDE90055284F022251462046B8477F2399
:1073B000264F0195009302222B4651462046B8479E
:1073C000FF230195009302222B4651462046B047E9
:1073D0002B46022251462046C847022251462046EB
:1073E000C0471B4F022251462046B8472A46CDE9E6
:1073F0000055154F51462046B8472B462A46CDE941
:10740000005551462046114FB8472B462A46CDE934
:10741000005551462046B0472B462A465146204645
:10742000C8472A4651462046C0472A465146084D7D
:107430002046A8470BF1010B6DE700BFDD320300CA
:1074400089700000BF7100007F7100009F71000013
:10745000797200006572000051720000F7B5294E84
:1074600000234FF0006713F0020F0CBF4FF00045F0
:107470004FF0604513F0040F0CBF4FF400244FF49D
:10748000602413F0080F45EA04050CBF4FF4000414
:107490004FF4600413F0100F45EA04050CBF4FF4DD
:1074A00000644FF4606413F0200F0CBF4FF40042EF
:1074B0004FF460422C4313F0400F44EA02040CBF27
:1074C00008220E221443DA0914BFE022802201337D
:1074D00022439BB23A43B3F5807F46F8042B08D190
:1074E000094B019098470198084B9847002003B03A
:1074F000F0BD13F0010F14BF4FF060674FF000674D
:10750000B1E700BF508200208D72000019710000A9
:107510002DE9F74F4778036ADFF8CCC0002607EB68
:1075200047070C2505FB0135BF004FF0030E33461E
:10753000324695F80B806C7AB8F1000F04D0B8F1A0
:10754000010F41D1E443E4B2644495F803B094F8E8
:10755000009294F8008195F800A094F800431BFB7A
:1075600009FB0AFB08BB95F806A00AFB04BA95F8CC
:1075700004B0524495F801A01BFB09FB0AFB08BBB1
:1075800095F807A00AFB04BA95F805B0534495F89E
:1075900002A01BFB09F90AFB089895F8089009FB63
:1075A000048426440EF1FF3414F0FF0E3D44C0D194
:1075B000C6F34F260B4C0096C3F34F23C2F34F2262
:1075C000A04703B0BDE8F08FB8F1020F03D1E44348
:1075D00044F3C014B7E7B8F1030F08BF1CF8044028
:1075E000B2E700BF897000000800002038B5054DE3
:1075F0000446002163788B4200D838BD2046A84756
:107600000131F7E71175000010B5074B0446002261
:107610001A700648064B9847A288A168606A054B15
:10762000BDE81040184700BF041800204452012054
:10763000E1560200E151020070B52D482D4E2E4C4E
:107640002E4DB0472E4B2F484FF48042C3F81821DF
:10765000A047E0B92C48A8472C4B98472C48B04786
:107660002C482D4B017A01390022C9B298472B4B87
:1076700098472B4B98472B4B984722482A4B002181
:107680009847BDE87040294929482A4B18471D48AA
:10769000A0470828DED01B48A047802803D12648F1
:1076A000A847264BD9E71748A0478828F7D01548A0
:1076B000A047402803D12248A847224BCDE71148D4
:1076C000A047C02803D12048A847204BC5E70D4854
:1076D000A047C128F7D00B48A047C82801D11C48B3
:1076E000F2E70848A047C928F9D01A48A847B5E7E3
:1076F00006910300194203000D9A00005540030053
:10770000008000410C780020189103007D83000068
:1077100091910300F8770020399F0000B9510000D3
:10772000FD9500006D97000081980000E850012051
:1077300030820020A98800002A910300017A00000D
:107740003C910300898000004E910300A97C000059
:10775000609103007591030002688368127A7F20AC
:10776000C3E9002207210022C3E90222C3E9040180
:10777000C3E90622704702688368127A7F21C3E951
:1077800000220022C3E90222C3E90412C3E906224F
:10779000704702688368117A7F200022C3E90222C1
:1077A000C3E90402C3E90622C3E90812C3E90A20B7
:1077B000C3E90C224022C3E900119A637047704765
:1077C000704743689A6940239363136B3BB1D36A54
:1077D000916A01335B1A03EBD3735B1053627047FA
:1077E000704770477047000010B5044C0448A0472C
:1077F00023460448BDE81040184700BF4D7A0200F8
:1078000074510120485301202DE9F04F614A13784B
:1078100085B0144633B913780133DBB2137005B069
:10782000BDE8F08F0023ADF80C30ADF80E30537882
:10783000594A5A4F5A4808330021D65C6378DBB264
:10784000F6B2D55C63780133DBB26370637803F022
:1078500007036370637813F0010F524B4FF400225B
:1078600014BFC3F81821C3F81421637813F0020F72
:107870004C4B4FF4801214BFC3F81821C3F81421E5
:10788000637813F0040F474B4FF4001214BFC3F892
:107890001821C3F81421022303AAB84702230DF1CB
:1078A0000E0241480021B8470023BDF80C20ADF876
:1078B0000430ADF808304EF66023EDB29A428DF8F0
:1078C00000608DF801504FF0010342D98DF8083067
:1078D000BDF80E204EF660239A424FF001033DD9C9
:1078E00000228DF805208DF80930304FDFF8C49064
:1078F0006D4601AE4FF0000BB84615F8012BFB6842
:1079000016F8011B2C2012FB00F003449B69DA6976
:10791000914216D002AA1BF80220012A11D1D3F8F5
:1079200014E0DFF894A071BB7F221969DA61BEF11F
:10793000000F1BD19960D8F80C3003211844C847B8
:10794000D047BBF1000F0ED000232370184B98478F
:1079500065E7C72ABCD88DF80430B7E7C72AC4D872
:107960008DF80530BFE74FF0010BC6E7D3F80CC028
:10797000A1EB0C0292FBFEFE9A6872448A42C8BFD9
:1079800062469A60D7E70022DA61BEF1000FD2D1D9
:10799000DA68F6E70C09002008040020917902005B
:1079A000745101200080004148530120F8770020E5
:1079B000E977000081A0000085A2000070B50B4CA3
:1079C0000B4E0C4D0C4B002211462046B0470022B6
:1079D000094B11462846B0472046084C0021A047D5
:1079E000284623460021BDE8704018477451012005
:1079F000197902004853012009780000D978020063
:107A000070B50C4B0C480D4E0D4D102198470B488E
:107A10000C4B112198470024E1B202223046013478
:107A2000A847102CF8D1084B9847BDE87040074B89
:107A3000184700BF5D740000204C0120F87700203B
:107A4000399F00008D9B0000BD790000E9770000A0
:107A500010B5084B0848094C4FF400129A61084BC6
:107A60009847084A0448A4460823BDE8104002F19C
:107A70000E01604700800041605001201586020021
:107A8000758502000E090020604B2DE9F14F4FF47F
:107A900000125F4F5F4E5A610025C5F3460305F0A3
:107AA0000102FB5C920013417A19D9B2147F03F0F2
:107AB0000F03A342E8B200F08980574C137715F802
:107AC0000490564ADFF874A1107013F0020FC3F34C
:107AD000800CC3F3400001F001014FEA091B00F0E4
:107AE0008F80002900F090800AEB0B02947B002C21
:107AF00078D192F80FE0BEF1000F03D10124D473C6
:107B00004FF0FF340AEB0B029173517850736145CB
:107B100016D001219B08917053702C20F268DFF879
:107B2000108119FB00F0024491693D4A002B63D19A
:107B30007F23CB618B60F368032118449047C047D3
:107B4000002C43D02C22F368364819FB02F9DA44A2
:107B50004B44DAF80810D3F81880334B9847334B6E
:107B60008346304898474FEA1B13BBF5D07FCAF8CD
:107B70000800C8F8343041D2012B38BF012340F24D
:107B8000712203FB13239622B3FBF2F301334FF070
:107B9000FF32DBB202EB43035C43D8E90931D8F88A
:107BA0003820D8F82C0022441C448C42C8F83820D5
:107BB00003DB84422146A8BF0146F068184BC8F891
:107BC0002410484402219847194B98470135102D3D
:107BD0007FF463AF174B00221A70174B01B0BDE85A
:107BE000F04F1847547B7CB992F80FE0BEF1000FBC
:107BF00088D10124D47385E700239AE71923BEE7CF
:107C000011B90AEB0B02D17300247BE7008000411D
:107C10000E090020F8770020280400205547002096
:107C200081A000000C780020CF980000CB980000C5
:107C300085A2000014EC0020517A0000641B012092
:107C40000F4B4FF4001210B55A610E4C9A604FF072
:107C500080429A620C4A9A6203210C4B2046984754
:107C60000B490C4B204698470B490C4B2046984734
:107C700020460B4A0B4BBDE810400021184700BFBF
:107C80000080004160500120200000C0D985020022
:107C900040420F009D85020058470020BD8602002B
:107CA000897A00007986020070B5174B1748184E84
:107CB000184D102198471648174B1121984700245A
:107CC000E1B2032230460134A847102CF8D100223B
:107CD000124B012011464FF0FF341A700132102A66
:107CE00058709970D970187159719C6019735873D4
:107CF0009873D97303F11003EFD1094B9847BDE88E
:107D00007040084B184700BF5D740000204C0120F4
:107D1000F8770020399F00008D9B0000641B012034
:107D2000417C0000517A000010B5044C0448A04783
:107D300023460448BDE81040184700BF4D7A0200B2
:107D400074510120485301202DE9F04FAC4A1378BB
:107D500085B033B913780133DBB2137005B0BDE8D9
:107D6000F08F0023ADF80C30ADF80E30A54BA649CE
:107D70001A78A64EA648DFF8C0B2DFF8C0A2DFF836
:107D8000C09208328D5C1A78D2B2EDB28C5C1A784F
:107D90000132D2B21A701A7802F007021A701A78F9
:107DA00012F0010F9B4A4FF4002114BFC2F81811C2
:107DB000C2F814111A7812F0020F964A4FF480118B
:107DC00014BFC2F81811C2F814111B7813F0040F75
:107DD000904B4FF4001214BFC3F81821C3F81421BC
:107DE0000021022303AAB04702230DF10E02002155
:107DF0008948B047BDF80C00D8477FA3D3E90023DA
:107E0000D047C8474FF6FF76B042074628BF3746EF
:107E1000BFB28046ADF80C70BDF80E00D84776A30F
:107E2000D3E90023D047C847E4B2864228BF0646BC
:107E3000A4F10802B3B2012AADF80E304AD90D2DD3
:107E4000764E6FD90023ADF80430ADF808304EF609
:107E50006023043D043C98458DF800508DF80140A6
:107E60003ED901238DF808304EF6602398423ED962
:107E700000238DF8053001238DF80930684FDFF8B5
:107E8000B4816C4601AD4FF0000A4FF02C0914F894
:107E9000010BF36815F8011B10FB09F003449B6903
:107EA000DA69914213D002AA1AF80220012A0ED1EF
:107EB000D3F814E079BB7F221969DA61BEF1000FB3
:107EC0001CD19960F36803211844B847C047BAF140
:107ED000000F10D04A4A00231370524B98473DE7D9
:107EE000B8F1C70FC0D87F238DF80430B9E7C72891
:107EF000C4D87F23BDE74FF0010AC8E7D3F80CC010
:107F0000A1EB0C0292FBFEFE9A6872449142B8BF4C
:107F100062469A60D6E70022DA61BEF1000FD1D145
:107F2000DA68F6E7012CF168F268DFF8F4A09CBF8C
:107F3000DB43ADF80E304FF02C0304FB032205FBAE
:107F4000031392699B6992F814801A7D9CBFFF43CA
:107F5000ADF80C70BDF80C10334F2846B847BDF88B
:107F60000E1042462046B8478DF808508DF809405B
:107F700002AF022517F8019BF3682C2419FB04F4C7
:107F800023444846D3F81880284B984768B3D8F85C
:107F900014300C2BA8BF0C239B464846244B984713
:107FA000BBF1010FB8BF4FF0010BD8F80CC0D8F8E7
:107FB00010200121CBF1100301FA03F3A2EB0C0E08
:107FC000DB439BB200FB0EFEC0EBC0109EFBF3FE3A
:107FD000B0FBF3F3F068C8F81C300CEB0E02C8F8E5
:107FE00008202044D047134B9847012D3FF472AF2F
:107FF0000125BFE7AFF300807B14AE47E17AF03F85
:10800000A8480020B14B01204904002091790200CA
:10801000745101200080004148530120F87700206E
:1080200081A00000297D0000DD4500009146000090
:10803000A946000085A20000D1120300A513030089
:108040005519030070B50B4C0B4E0C4D0C4B002218
:1080500011462046B0470022094B11462846B0473A
:108060002046084C0021A047284623460021BDE8B1
:1080700070401847745101201979020048530120BB
:10808000497D0000D97802002DE9F041124B134DD3
:10809000134F052110209847124B13480C21984785
:1080A0000F48124B0D21984700242E46E1B20122C1
:1080B00038460134A847082CF8D1094D214601342F
:1080C00002222846E4B2B0470C2CF7D1084B98475F
:1080D000BDE8F041074B1847A1450000399F00005B
:1080E000F87700205D740000204C01208D9B00007B
:1080F00045800000297D000010B5044C0448A047CD
:1081000023460448BDE81040184700BF4D7A0200DE
:1081100074510120485301202DE9F04F744A13781F
:1081200085B0144633B913780133DBB2137005B050
:10813000BDE8F08F0023ADF80C30ADF80E30537869
:108140006C4A6D4D6D48DFF8DCA1DFF8DC91DFF89B
:10815000DC8108330021D75C6378DBB2FFB2D65CE8
:1081600063780133DBB26370637803F007036370F5
:10817000637813F0010F624B4FF4002214BFC3F871
:108180001821C3F81421637813F0020F5C4B4FF4ED
:10819000801214BFC3F81821C3F81421637813F0B8
:1081A000040F574B4FF4001214BFC3F81821C3F843
:1081B0001421022303AAA84702230DF10E02002175
:1081C0005048A847BDF80C00D04747A3D3E9002387
:1081D000C847C0474FF6FF75A84228BF2846ADF8EC
:1081E0000C00BDF80E00D0473FA3D3E90023C847D9
:1081F000C047A84228BF2846ADF80E00424B43486E
:1082000098470828F6B209D1BDF80C30DB43ADF829
:108210000C30BDF80E30DB43ADF80E303C4DDFF8CE
:108220001081E968EA68DFF80CB12C2306FB032211
:1082300007FB031392699B6992F81490BDF80C1028
:108240001A7D3846C047BDF80E104A463046C04732
:108250008DF808708DF809600DF10808022718F8EC
:1082600001ABEA682B4B2C261AFB06F6324450462B
:10827000D2F81890984758B3D9F81420264B0C2AF6
:10828000A8BF0C22504601929847019AD9F80C10C9
:10829000012AB8BF01224FF0010EC2F11003D9F834
:1082A00010200EFA03F3521ADB439BB24243C0EB99
:1082B000C01092FBF3F2B0FBF3F3E868C9F81C308E
:1082C0000A44C9F8082071463044D847134B9847F0
:1082D000012F04D100232370114B984727E7012772
:1082E000BDE700BFAFF300807B14AE47E17AF03FFB
:1082F0003B0900206904002091790200745101209B
:1083000000800041485301200D9A00000C780020A5
:10831000F877002091460000A946000085A20000E1
:10832000F9800000D1120300A513030055190300C2
:10833000DD45000081A0000070B50B4C0B4E0C4DCC
:108340000C4B002211462046B0470022094B114633
:108350002846B0472046084C0021A047284623461F
:108360000021BDE8704018477451012019790200BE
:108370004853012019810000D978020070B50E4BD6
:108380000E4E0F4D0521102098470E4B0E48102120
:1083900098470A480D4B112198470024E1B2012269
:1083A00030460134A847102CF8D1094B9847BDE856
:1083B0007040084B184700BFA1450000F877002027
:1083C000399F00005D740000204C01208D9B00004F
:1083D00039830000F98000001FB500228DF80F20BE
:1083E0000DF10F020B460092024C04220221A0471D
:1083F00004B010BD499B00001FB500228DF80F206E
:108400000DF10F020B460092024C02220621A047FA
:1084100004B010BD499B00001FB500228DF80F204D
:108420000DF10F020B460092024C02220E21A047D2
:1084300004B010BD499B000013B500238DF8073030
:10844000044C0DF1070302220E21A047C0B202B076
:1084500010BD00BF319B00001FB500228DF80F201A
:108460000DF10F020B460092024C02221021A04790
:1084700004B010BD499B000013B500238DF80730F0
:10848000044C0DF1070302221021A047C0B202B034
:1084900010BD00BF319B00001FB500228DF80F20DA
:1084A0000DF10F020B460092024C02220A21A04756
:1084B00004B010BD499B00001FB500228DF80F20AD
:1084C0000DF10F020B460092024C02220C21A04734
:1084D00004B010BD499B00001FB500228DF80F208D
:1084E0000DF10F020B460092024C02221221A0470E
:1084F00004B010BD499B00001FB500228DF80F206D
:108500000DF10F020B460092024C02221421A047EB
:1085100004B010BD499B00001FB500228DF80F204C
:108520000DF10F020B460092024C02220821A047D7
:1085300004B010BD499B0000D0E96432D0F8980126
:10854000134418447047D0F89401704770B504463E
:108550000B4B08460D469847D4F8942100238342DC
:1085600008D11A44C4F89421D4F89C211344C4F8C7
:108570009C3170BDE1181144EE5C8E760133EEE75C
:10858000E95603000EB433B5044605AAD0F89401A9
:1085900052F8041B01921A30094B20449847D4F832
:1085A0009451084B05F11A0020449847C4F89C01E7
:1085B0002844C4F8940102B0BDE8304003B07047CD
:1085C000A56D0300E956030070B4D0F89441D0F8CB
:1085D0009C51651B01F11A04164654FA85F41A469B
:1085E00031462044014B70BC184700BFA9990000D8
:1085F00020B401F11A05154419462844024B5DF8D0
:10860000045B0022184700BF8199000020B401F1EB
:108610001A0515441946019A024B28445DF8045B7B
:10862000184700BFA99900000023C0E96433C0E9DE
:108630006633421E00F1190102F8013F9142FBD15D
:1086400000F11A0200F28B11002302F8013B8A426A
:10865000FBD180F88B31C0F88C3170472DE9F7439E
:108660001E46194BDFF888901D7B17230446884669
:1086700017461649009301220F23C847144B204682
:1086800098474146C4F89001124B20469847394616
:108690002046114B98472046104B7F219847204693
:1086A0000F4B7F219847314620460E4B9847204676
:1086B0000D4B00219847EDB20C4B2946204603B0E4
:1086C000BDE8F043184700BF0C780020A2910300DA
:1086D000E9560300198400005984000099840000C1
:1086E000B9840000D9840000F984000019850000D5
:1086F00011470300D0F894216AB9172915BFD0F8A3
:1087000090318176C15401231ABF0133C0F89031F2
:10871000C0F894317047D0F898316BB9042905D06E
:10872000831801329976C0F89421704780F88B1134
:108730000123C0F898317047C218013382F88B11B9
:10874000F7E7D0F890218A4201D9405C7047D0F811
:10875000943113448B4203D9891A0844807E7047B0
:10876000D0F898211A448A4283BFC91A401890F859
:108770008B01FF2070470000F8B50446D0F898013F
:108780002B492C4D2C4E00F28B1004222044A8477C
:10879000D4F8987107F28B102044B047D4E96431C3
:1087A00038440B44254FC4F89801191889B2244B5A
:1087B0002046984797F8BD10224B2046984797F8D7
:1087C000BD300133DBB287F8BD30D4F8903121469B
:1087D0002344002299421FD1D4F89431234404F158
:1087E0001A011A3399421BD1D4F89801231804F2C4
:1087F0008B1103F28B13994216D100F28B101249A0
:108800002044A847D4F8985105F28B102044B04773
:108810002844C4F89801F8BD11F8010B4240D9E78B
:1088200011F8010B4240DDE711F8017B7A40E2E7E5
:10883000E88E030011470300E95603000C7800207E
:10884000D9830000F98300008CD703002DE9F84399
:108850000F4B064698470F4B044681B20E48984787
:1088600078B9BDE8F88329463046B8470146404606
:10887000C8470135A542F6D10748084B9847012063
:10888000EFE7074FDFF81080DFF818900025F1E7D9
:1088900039850000C5470000E07300202148000032
:1088A000438700000148000000230122C0E905338E
:1088B0008383016082800372037470472DE9F04F57
:1088C000544204F00704224494B289B0E31DDB084B
:1088D0006A46A2EBC302A2EBC30300AF9546E8468B
:1088E0009D46002338610D46E9461A4699B28C42EE
:1088F00022D8DFF8DCB03348DFF8D8A0324E2A4661
:108900002146D84705F510237B61D7E904012346AA
:1089100042460068D047D7E90401234600684A462A
:10892000B047C7E902AB00261FFA86FA544509D8BA
:108930002437BD46BDE8F08F08F8032009F803206E
:108940000133D3E719F80630002B38D0796918F8CD
:1089500006201E48FD683144A8477B694FEADA01CA
:1089600003EBC1014FF00A0B3869BD6800687960FC
:10897000082307F118024FF0000AC7E906AAA84722
:10898000386979680068104D082307F11802A84774
:10899000796807F11803082213F8010B18B10AF1DE
:1089A000010A5FFA8AFA013A12F0FF02F4D1BAF131
:1089B000000F04D00BF1FF3B1BF0FF0BD4D10136AD
:1089C000B2E700BFBD910300CD810200DB9103003F
:1089D00055400300398202002DE9F0479A46130200
:1089E00003EB0143846906468846914653440027B9
:1089F00044B3A57862782D0205EB0245E278154470
:108A0000AB421FD31CD02746E468F1E7B38B013398
:108A1000C0E90347B3838FB9B06104B1206101237A
:108A20000370089B8360BDF8243080F8018080F8D3
:108A3000029080F803A08380BDE8F087F860ECE73F
:108A40002046ECE7044B142098470028DED1034869
:108A5000034B9847FF20EFE7DD32030078920300D5
:108A6000194203002DE9F04FADF50F7D0EADFF2348
:108A700004902B604FF4FE72684BDFF8C081684EA3
:108A800000210FA898470024A2464746610201230F
:108A9000D8F800002A4601F51021B0472B78FF2BAB
:108AA00007D0631CB3F5607FA24640F0B58040F26A
:108AB0007F3A0AF590614C024FF4007338682A46F9
:108AC0002146B0470023E95CFF29A3F1080205D045
:108AD0000833B3F5007FF6D14FF4FC72A4F50F21F3
:108AE000049B504C504EA1F6F8711144596160231B
:108AF000002500934D4A07950223052107A8ADF8EC
:108B00002050A0474FF4007303934FF4102B0498A8
:108B1000434C00684FF400730EAA5946A0470EABB1
:108B20006F020293029B029C1B7822460132022BA9
:108B3000029260D1394B002110220AA8099198476E
:108B4000A7EB0B039BB2B3F5F67F08D90498344C1E
:108B50000068132309AA07F51021A04709AC344B7C
:108B6000042207A9204698470346002843D10590D0
:108B7000022205212046B047059B8146022207219B
:108B80002046B0475FFA89F9059B804602220921F9
:108B90002046B047B9F1010F07D15FFA88F8B8F164
:108BA000010F02D1C0B2092802D02248224B9847B7
:108BB000002302220B212046B04700230590022209
:108BC0000D212046B0470023804602220F21204677
:108BD000B04700238146042211212046B047C0B28D
:108BE000CDE900709DF814101448154C5FFA89F314
:108BF0005FFA88F2A047039B0137BB4292D101354F
:108C000003F50073AA450BF5007B0393BFF47FAF18
:108C10000DF50F7DBDE8F08F1C4637E7F9330300F3
:108C2000CD81020071460300319B00009192030048
:108C3000F9560300A9920300194203003082002074
:108C4000D989000010B5806900B910BD44788C4204
:108C500005D18478944202D1C4789C42F5D0C06892
:108C6000F2E7000070B504460D461646034B0A466F
:108C7000816803489847A560A68070BD55400300F1
:108C8000CC920300F7B584690B4D0C480C4E0D4F88
:108C9000A8472CB90C482B4603B0BDE8F040184754
:108CA000A088E378A27861780190A06800903046AF
:108CB000B847E468EDE700BF19420300DF92030004
:108CC000EB920300554003000C9303002DE9F04F95
:108CD000ADF5005D85B0074604A8002440F8044BBC
:108CE000494BDFF844B1DFF844A141F6FC7221465C
:108CF0009847BE6925464FEA453804EB4530002EBB
:108D00002BD0F378B27871780190B06800903F482A
:108D1000D847B388191904AAB1F5005F224432D2AA
:108D2000B168386801F51021D047B3881C44B38876
:108D3000E31A03EB4533B360F668002EDBD105F18F
:108D400048014903324B3868039110229847314E4D
:108D500003993868234604AAB04704EB45312E48EE
:108D60007961D84701352A4CADB205F14801490374
:108D7000B1F5801F42DB3846284B98470DF5005D62
:108D800005B0BDE8F08FA4B2C4F500591C44A4F5A9
:108D90000054A4B2B4F5005F1FFA89F904D9204841
:108DA000204B03929847039AB16838684B4601F507
:108DB0001021D04708F51021154B38680391102277
:108DC0009847DFF85080039938684FF4005304AA9D
:108DD000C04701350023ADB204AA194601339BB246
:108DE000B3F5005F02F8011BF8D1B168386801F5EE
:108DF0001021234604AA4944D04798E73868102236
:108E00000135A047ADB2B0E7F93303001793030073
:108E1000B98202003982020072930300858C00003F
:108E20003F9303001942030055400300CD81020027
:108E30002DE9F04F1646744204F0070485B034441F
:108E4000DFF824B102AF054604F107093F488A461E
:108E5000D8476A464FEAD903A2EBC3039D460023D5
:108E60000DF10808C7F800B0184699B28C420A46BE
:108E70003AD86B692344B3F5805F02D9344B284656
:108E8000984769692868334E234601F51021424608
:108E9000B0474FEAD9096B46A3EBC9039D460DF1D4
:108EA00008090023FF215A1C9BB29C4226D86969FD
:108EB0002868294EDFF8B4B023464A4601F5102150
:108EC000B0474FF0000A1FFA8AF39C4269697B6041
:108ED00018D821443B6869612048984768690C3775
:108EE000001BBD46BDE8F08FB1423ABF1AF8021030
:108EF00008F8021008F802000133B6E709F8031079
:108F00001346D0E77B687A6819F8033018F8022016
:108F1000934218D000927868114E01F51021014457
:108F200022465846B0477A687B6818F8022069697B
:108F300019F80330009278680A4E01F510210144B7
:108F400022465846B0470AF1010ABCE7979303004E
:108F5000CD8C000039820200CD810200DB9303003A
:108F600055400300A994000019420300A593030093
:108F70002DE9F04F0024DDB00F469046994621467A
:108F8000404BDFF840B1049482464FF4AD7205A81F
:108F900098473D493D4E3E4D6023022204A8D847E4
:108FA000009401230222052104A8B0470094012364
:108FB0000222072104A8B04709231946009402227F
:108FC00004A8B04700943B4602220B2104A8B047F6
:108FD0000094434602220D2104A8B04702224B46CA
:108FE0000F21009404A8B04704A8A84704AB6699D1
:108FF0001844D84704A8A84704AB264903221844BC
:10900000D84704A8A8470094034605461FFA80FBEA
:109010000422112104A8B0471F4B2048204C04AA69
:10902000294698474B46424639461E48A0471E4BA4
:1090300004465A4604A95046984706466CB91B4B4D
:109040001B481C4C9847CDE9006B16484B464246DE
:109050003946A0475DB0BDE8F08FE378A27861782B
:10906000CDE90105A06800900B4D1348A847A288E0
:10907000A168124B50469847114B5A46314620463C
:109080009847E7E7F933030091920300499B0000FA
:10909000E9560300E88E030055400300E693030001
:1090A000458C000030820020318E00001942030000
:1090B00003940300D989000008940300BD880000D0
:1090C000658C00001147030070B58B88094E00685D
:1090D0000C46896801F51021163B15311546B0473D
:1090E000A3882B44002203F8152C2846024BBDE828
:1090F00070401847CD810200E956030001234371F7
:109100004FF47F43C3807047407970472DE9F04F9B
:109110004379C5B00546894683B13A4CA047EB79FF
:1091200095F8068002900133DBB20193039401238A
:1091300099F80820424504D800236B7145B0BDE87A
:10914000F08FD9F80C204FF02C0A08FB0A2A0026D1
:109150009AF82420B24204D808F101085FFA88F88E
:10916000E6E71BB1019B9A424AD91E46039B9847EA
:10917000029BC01A244B9842E0D8DAF82830234FDB
:109180009AF8082099F8051021484FF4847404FBDC
:109190000634A37AB847074608B383889BB14FF0DB
:1091A000000B1C4BCDF814B0F622594606A8984780
:1091B000194B05AA394628469847184B05A9204659
:1091C000984784F805B1A37A13B9154B2046984700
:1091D000EE71013685F80680F6B20023B8E7F62274
:1091E00001460C4B059006A898470E4B05A9204652
:1091F00098470A4B05A92046984784F80571E2E78D
:109200000023A9E725660000C0270900458C00005F
:1092100030820020F9330300C9900000199D00003E
:109220008DA20000519E000010B5054B0446054874
:109230009847054B0146054898470123237410BD04
:109240000D7C02006C510120A99400002D940300B4
:10925000007C70472DE9F04FEDB0037C02900F4683
:10926000002B2CD02E4CDFF8E0A0A0474FF00008D8
:10927000834603943B7A5FFA88F4A34222D8294BB1
:10928000294C04A8984700231A46194604A8A04769
:1092900003232649264C00930222612304A8A047F9
:1092A000012204210A2304A8224CA047224B04A82F
:1092B0009847224B04A89847029A002313746DB074
:1092C000BDE8F08FFB682C2202FB04344FF000094C
:1092D00094F824305FFA89F5AB4202D808F101080E
:1092E000C8E7A36A4FF4847202FB0535039B9847D5
:1092F000134BA0EB0B009842E1D895F8053163B110
:109300006168AB7A227A49790E4E05F10B00009024
:109310005046B047002385F8053109F10109D7E728
:1093200025660000298600005D8600003694030053
:1093300085850000C9850000798700004D88000000
:10934000C0270900718F00003082002001230372C2
:109350007047007A704700002DE9F0411C4D1D4F09
:10936000DFF88C80EAB00446A8470646E368B3F508
:10937000801F1ED30025184B257202A89847174C52
:109380002B462A46294602A8A04703231449154C18
:1093900000930222622302A8A0470A2302A8124CCB
:1093A00001220421A047114B02A898476AB0BDE8EA
:1093B000F081A847801BB842F8D8206810224FF4EB
:1093C0001021C047E36803F50053E360CEE700BF18
:1093D00025660000C0D40100298600005D860000DB
:1093E0003694030085850000C98500007987000058
:1093F000B9820200C00100F1824000F50040012363
:109400008B400144436091F8402042F0040281F80F
:1094100040208361704710B5029C401AE41A44430F
:10942000511A94FBF1F4E01810BD437800EB83006F
:10943000436801334360704770B5E8B00546124B8E
:10944000124C134E6846984700231A461946684640
:10945000A047104C1049684620230222A0470E2343
:10946000012268460421B04729466846A0470B49B7
:1094700003226846A0470A4B68469847094B68464E
:10948000984768B070BD00BF298600005D86000067
:10949000C98500008585000040940300E88E030024
:1094A000798700004D8800000FB430B59BB01EAC2A
:1094B000002154F8045B0A4B0191602202A89847EE
:1094C000009423462A466321064C01A8A047064B78
:1094D00001A898471BB0BDE8304004B0704700BFFA
:1094E000F93303005D6D03003994000030B56FF06F
:1094F0002B05848900F12C032D1A0022E9188C42D7
:1095000001D8828130BD03F8012BF7E70148024BF7
:10951000184700BFC4860020ED9400000148024BAC
:10952000184700BFC4BC0020ED9400000148024B66
:10953000184700BF641C0120ED9400000148024B55
:10954000184700BF08180020ED940000012303769F
:109550004068014B184700BF399C02000148024B8C
:10956000184700BFC48600204D9500000148024BFB
:10957000184700BFC4BC00204D9500000148024BB5
:10958000184700BF641C01204D9500000148024BA4
:10959000184700BF081800204D950000807A03018D
:1095A00003F1824303F5204300211A6C22F00202EA
:1095B0001A64014B184700BF9D7602000148024B18
:1095C000184700BF081800209D9500000148024B75
:1095D000184700BF641C01209D9500000148024B04
:1095E000184700BFC4BC00209D9500000148024BF5
:1095F000184700BFC48600209D9500002DE9F04764
:109600001C212C4CDFF8F8802B4F2C4E2C4DDFF812
:10961000F4900220A04710210220A0470C21022034
:10962000A04709210120A047264C274A0121404696
:10963000A047264A01213846A047254A0121304645
:10964000A047244A01212846A04701214046C84797
:1096500001213846C84701213046C8470121284624
:10966000C8471D4A02214046A0471C4A02213846ED
:10967000A0471B4A02213046A0471A4A0221284629
:10968000A047194C19494046A04719493846A047F8
:1096900018493046A04718492846A047174C40466D
:1096A000A0473846A0473046A04728462346BDE895
:1096B000F0471847F5930000A0510120F85201200F
:1096C000A8520120899C02003D9500002D950000C4
:1096D0001D9500000D9500008D9500007D95000002
:1096E0006D9500005D950000659C020008780020E3
:1096F000C0BC002010EC0020484C01200D9C020052
:10970000F4510120E99C0200F7B54368847A0F46C2
:10971000196A104B0546283120461646984705F52C
:109720009D510D4B14312046984739460B4B20462E
:10973000984721460A4B01A89847019B01221E60C9
:109740002046084B00219847074B002120469847A8
:1097500003B0F0BD2D7602001D760200597602009E
:10976000D9760200F57502009D76020010B5104A08
:10977000104C114841F28831A047104A104841F27C
:109780008831A0470F4A104841F28831A0470F4A5C
:109790000F4841F28831A0470E4B002283F81F2367
:1097A00083F8202383F8212383F8222310BD00BFF0
:1097B000BD9500000997000008180020CD95000015
:1097C000641C0120DD950000C4BC0020ED95000064
:1097D000C486002000E100E0124B70B51B78124EE9
:1097E000037100254FF0FF330446C0E90D350560D5
:1097F0000E4B304698470E4B3046984701230D4A92
:10980000E3820D4B0D492073C4E906230C4B65859B
:10981000C4E90813C823A585657584F828306571E7
:10982000A56070BD000C00406C510120E57B02007A
:109830000D7C0200000101010100C832646464C8AB
:1098400000C80032407D704790F82A00704790F8B9
:109850002B00704790F82C007047807D704730B522
:109860000246407D431C441D03F0030155186D7EE4
:10987000012D03D00133A342F6D130BDC8B2FCE7BD
:10988000FF290BD10123C375002380F8293047F647
:109890007F7343857F2380F82C3070470329FCD8E1
:1098A000012380F82D3043185A7E012AF5D14175E5
:1098B00080F82920C2755A7F80F82A2093F8212049
:1098C00080F82B2093F82530E5E7006B7047006B9C
:1098D000401A7047036B0133036303685A1C1CBFB3
:1098E000013303607047007D7047002303757047A4
:1098F000837C63B9008A4008FA380028B8BF404228
:10990000C0F1FA0000EBD070C0F347007047012BA4
:1099100007D1008AFA23B0FBF3F040F30000C0B295
:109920007047022B05D1008A64288CBFFF200020DD
:109930007047704710B5C373BDF80C300382012423
:109940009DF80830047541738273837410BD407BA9
:109950007047807B7047C07B7047A0F13003DBB25B
:10996000092B05D9A0F16103052B03D85738C3B2E1
:109970001846704711B108700023F9E70B46F7E766
:10998000F8B5084F451E8C000026043C231D01D16C
:109990003046F8BD15F8010F1146B847A0400644FF
:1099A000F3E700BF5B99000030B585B00A4B0C4669
:1099B00005460A4901A8984701AAC4F108031344BF
:1099C0000022D1B28C4201D805B030BD13F8011B82
:1099D000A9540132F5E700BF114703004894030082
:1099E000064B1B680360064B1B684360054B1B68F6
:1099F0008360054B1B68C36001207047FC618000D9
:109A0000106080001460800018608000436B013398
:109A10002DE9F74F064658D12E4C2F4B2F4FDFF82C
:109A2000C8904FF40055C4F888504FF48042C4F8F1
:109A3000A8304FF04043C4F8A830C4F888204FF055
:109A40004022C4F8A820C4F8A8304FF40043C4F85A
:109A50008430234BC4F8A830A3F18023C4F8A83085
:109A60000120C4F89450B8474FF0000AD346A846E6
:109A70000120C4F89880B84701A8C847D4F88020CE
:109A8000D4F8A030D4F890505D4015405D4001A856
:109A9000144B98472B0441BF012303FA0AF343EA0E
:109AA0000B0B5FFA8BFBBAF1070F07D04FF4804521
:109AB000C4F898500120B847C4F894500AF1010A3C
:109AC000BAF1080FD4D1C6F834B0706B03B0BDE85A
:109AD000F08F00BF0080004100200040E5710200CF
