S0150000677269645F746F706C6576656C2E737265639F
S21400400010820120F5420000F1420000F14200005B
S214004010F1420000F1420000F14200000000000002
S214004020000000000000000000000000F142000058
S214004030F142000000000000F1420000F1420000E2
S214004040F1420000F1420000F1420000F14200009F
S214004050F1420000F1420000F1420000F14200008F
S214004060F1420000F1420000F1420000D9A6000033
S214004070F1420000F1420000F1420000F14200006F
S214004080F1420000F1420000F1420000F14200005F
S214004090F1420000F1420000F1420000F14200004F
S2140040A0F1420000F1420000F1420000F14200003F
S2140040B0F14200000DA30000E1A200000DA10000E7
S2140040C015A100001DA1000025A100002DA10000E3
S2140040D0F1420000F1420000F1420000F14200000F
S2140040E0F1420000F1420000000000000000000065
S2140040F00000000081A5000021B0000019B00000FB
S21400410011B0000001B0000049B0000041B000004E
S21400411039B0000029B00000F1420000F142000072
S214004120F1420000F1420000A5B000009DB0000082
S21400413095B0000051B00000CDB00000C5B0000042
S214004140BDB00000ADB0000049B1000041B10000B4
S21400415039B10000D5B0000071B1000069B10000AF
S21400416061B1000051B10000F1420000F1420000D0
S214004170F1420000F14200000000000000000000D4
S214004180C1C70000C9C70000D1C70000D9C70000DA
S21400419000000000F1420000F1420000F142000081
S2140041A0F1420000F1420000F1420000F14200003E
S2140041B0F1420000F1420000F1420000F14200002E
S2140041C0F1420000F1420000F1420000F14200001E
S2140041D0F1420000F1420000F1420000F14200000E
S2140041E0F1420000F1420000F142000005B9000073
S2140041F015B9000025B9000035B90000F1420000ED
S214004200F1420000F1420000F1420000F1420000DD
S214004210F1420000F1420000499E0000399E000075
S214004220619E0000519E0000F1420000F142000035
S214004230F1420000F1420000F1420000F1420000AD
S214004240F1420000F1420000F1420000F14200009D
S214004250F1420000F1420000F1420000F14200008D
S214004260F142000010B5054C237833B9044B13B166
S2140042700448AFF300800123237010BDB005002072
S21400428000000000180A01000C4B43B10C480D4911
S21400429010B5AFF300800C48036823B910BD0A4878
S2140042A0036833B97047094B002BF7D0BDE81040C0
S2140042B01847064B002BF5D0184700BF000000003B
S2140042C0180A0100B4050020180A010000000000CA
S2140042D010B5044B9847044B9847044BBDE8104074
S2140042E0184700BF4D4C0000C5E1000069D0000033
S2140042F0FEE7000008B5144A144B9A4218D1144B36
S214004300144A002193421CD3134A144B22F07F0216
S2140043109A60D3F8882042F47002C3F88820BFF36E
S2140043204F8FBFF36F8F0E4B98470E4B9847FEE7A5
S2140043300D49043A8B42E2D252F8040F43F8040BBC
S214004340F8E743F8041BDDE7180A01000000002028
S214004350B0050020108200200040000000ED00E0C4
S214004360A1E9000091C90000AC05002030B54A1C48
S214004370C4B2C0F34712164804F01F0300EBC21085
S21400438007D1184490F8403003F0FE0380F8403020
S21400439030BDC5185B0895F8402002F0FE021844B0
S2140043A042F0010285F8402090F8303014F0010FFA
S2140043B019BF03F00F0343EA011101F00F0103F0E8
S2140043C0F00314BFC9B2194380F8301030BD00BFE7
S2140043D00080004101224309914200F01F0002FACA
S2140043E000F011D002D302291FD07047DB0103F181
S2140043F0824303F50043586082B242F08042000CCC
S2140044009A6240F040400EE0DB0182B203F1824344
S21400441003F5004342F0804242F4003258609A624C
S214004420054A42EA104098627047DB0103F1824376
S21400443003F500439860DFE7000002C0F0B5144AB9
S214004440144E136A144D1549154F43F0800313623A
S214004450144B85B04122C3F82021134B019300244E
S214004460012300933246234602942846B847721C1E
S2140044702146102328460D4DA847214607200C4B01
S21400448098470C490C4B072005B0BDE8F04018478C
S21400449000080040CC05002044100020001C00430B
S2140044A06D8B0000001C004040110020B98B0000FE
S2140044B0D5430000010007006D430000F0B5154A23
S2140044C0154E136A154D1649164F43F48073136242
S2140044D0154B85B04122C3F82421144B01930024C8
S2140044E00123009306F11102234602942846B8479A
S2140044F006F112022146102328460D4DA8472146F4
S21400450042200C4B98470C490C4B422005B0BDE8A6
S214004510F040184700080040CC0500201812002084
S214004520002000436D8B0000001C0040E00F0020C0
S214004530B98B0000D5430000010042006D43000027
S214004540044A05499369054843F002039361044B06
S214004550184700BF0008004000200041DC0F002084
S214004560118D0000084B4022C3F8AC20C3F8B020E1
S214004570C3F8B420C3F8B820044A936943F0800314
S2140045809361034B184700BF001C00400008004022
S214004590718D0000024A136943F0400313617047AF
S2140045A00008004010B5044B984704490448054BE2
S2140045B0BDE81040184700BF954500000040004188
S2140045C0C00F0020898D000070B52D4C2D4E2E4D4D
S2140045D001212B20B04794F8CB302C4903F0FB0385
S2140045E084F8CB302B20A84702210820B0474FF490
S2140045F08073636194F84830254903F0FB0384F820
S21400460048300820A84702210920B0474FF400731D
S214004610636194F849301F4903F0FB0384F849307E
S2140046200920A84702210A20B0474FF4806363613F
S21400463094F84A30184903F0FB0384F84A300A20FD
S214004640A84702210B20B0474FF40063636194F83B
S2140046504B30124903F0FB0384F84B300B20A8477D
S21400466001212A20B04794F8CA300D4903F0FB0315
S21400467084F8CA302A202B46BDE87040184700BF91
S21400468000800041D54300006D43000007002B006A
S214004690070008000700090007000A0007000B00D3
S2140046A007002A00064B1A6942F400521A611A697A
S2140046B042F400121A61DA6942F40052DA61704775
S2140046C00008004010B5054B9847054B05490648BD
S2140046D09847064BBDE81040184700BFA5460000A7
S2140046E0858E00000034004284120020C945000078
S2140046F0064B4122C3F89C204222C3F88C20044A71
S214004700536943F480535361704700BF001C004058
S2140047100008004010B5054C05495120A047234627
S21400472004495020BDE81040184700BF6D43000004
S214004730030051000300500013B5074B074C984781
S21400474000230093064A074907481023A047074B53
S21400475002B0BDE810401847F1460000FD93000087
S214004760EE050020003000407010002015470000C5
S214004770064B4122C3F8A0204222C3F88C20044AEC
S214004780536943F400535361704700BF001C004058
S2140047900008004010B5054C05495B20A04723469D
S2140047A004495C20BDE81040184700BF6D43000078
S2140047B002005B0002005C0013B5074B074C9847ED
S2140047C000230093064A074907481023A047074BD3
S2140047D002B0BDE81040184771470000FD93000086
S2140047E0FE05002000340040C4100020954700005D
S2140047F010B5054C05493920A04723460449382002
S214004800BDE81040184700BF6D43000003003900A4
S21400481003003800064B4122C3F8DC204222C3F8CE
S2140048208C20044A936943F400739361704700BF79
S214004830001C00400008004010B5054B9847054B8B
S2140048400549064800229847054BBDE81040184722
S2140048501548000061950000002001413810002036
S214004860F147000070B5134C134E144D4FF48013EF
S214004870C4F8943002213420B04711493420A847A8
S2140048804FF40013C4F8943002213520B0470D4988
S2140048903520A84701211420B04794F854300A491F
S2140048A003F0FB0384F8543014202B46BDE8704018
S2140048B0184700BF00800041D54300006D4300004C
S2140048C0020034000200350003001400064B4122AB
S2140048D0C3F8E0204322C3F88C20044A936943F4CB
S2140048E080639361704700BF001C004000080040D2
S2140048F010B5054B9847054B054906489847064BA3
S214004900BDE81040184700BFCD48000011900000D9
S21400491000400141380F002065480000064B412248
S214004920C3F808214222C3F88C20044A136A43F0D5
S21400493001031362704700BF001C004000080040DF
S21400494010B5054C05492820A047234604492920D0
S214004950BDE81040184700BF6D4300000300280064
S2140049600300290013B5084B084C98470023009312
S214004970074A084810234FF08641A047064B02B06E
S214004980BDE81040184700BF1D490000FD93000019
S2140049900E060020781100204149000070B50B4C2F
S2140049A00B4D94F857300B4903F0FB0384F857304F
S2140049B01720A84794F85630074903F0FB0384F8FD
S2140049C0563016202B46BDE8704018470080004140
S2140049D06D4300000300170003001600064B41223B
S2140049E0C3F80C214222C3F88C20044A136A43F011
S2140049F002031362704700BF001C0040000800401E
S214004A0010B5054B9847054B054906489847064B91
S214004A10BDE81040184700BFDD4900002D8E00009D
S214004A2000040043F80F00209D490000064B412279
S214004A30C3F810214222C3F88C20044A136A43F0BC
S214004A4004031362704700BF001C004000080040CB
S214004A5010B5054C05494D20A047234604494C2077
S214004A60BDE81040184700BF6D43000003004D002E
S214004A7003004C0013B5074B074C984700230093E0
S214004A80064A074907481023A047074B02B0BDE86F
S214004A90104018472D4A0000FD9300001E06002017
S214004AA000080043C8110020514A000070B5134C9E
S214004AB0134E144D4FF08043C4F8943002213E202C
S214004AC0B04711493E20A8474FF00043C4F8943041
S214004AD002213F20B0470D493F20A84701211E2054
S214004AE0B04794F85E300A4903F0FB0384F85E3062
S214004AF01E202B46BDE87040184700BF00800041CE
S214004B00D54300006D43000002003E0002003F0057
S214004B1002001E00064B4122C3F814214222C3F8AD
S214004B208C20044A136A43F008031362704700BFE0
S214004B30001C00400008004010B5054B9847054B88
S214004B40054906489847064BBDE81040184700BF81
S214004B50154B00004D910000000C0043141100207E
S214004B60AD4A00000148024B184700BF10E000E0C5
S214004B70198D000070B50221114C124E124D1820EE
S214004B80B0474FF08073636194F858300F4903F0D4
S214004B90FB0384F858301820A84702211920B04794
S214004BA04FF00073636194F85930094903F0FB0332
S214004BB084F8593019202B46BDE87040184700BFCE
S214004BC000800041D54300006D4300000700180038
S214004BD007001900074B4122C3F8A820A3F5A053ED
S214004BE01A6942F480621A619A6942F001029A6177
S214004BF0704700BF001C004010B5044B9847044B9C
S214004C009847044BBDE81040184700BFD54B00003E
S214004C108D970000754B0000024A536943F4807379
S214004C20536170470008004010B5044B984704488D
S214004C30044B0360BDE81040034B1847194C0000B6
S214004C40C010002000200040E1C700002DE9F04120
S214004C50854B864C864D874F9847202363610221FB
S214004C600520A84794F8453003F0FE0384F8453045
S214004C7001211520A84794F8553003F0FB0384F86B
S214004C80553094F8553003F0FE0384F85530012172
S214004C902720A84794F8C73003F0FB0384F8C730F2
S214004CA094F8C73003F0FE0384F8C7304FF400537F
S214004CB0C4F8943002212D20A84794F8CD304FF444
S214004CC0804603F0FE0384F8CD300221C4F89460D9
S214004CD02E20A84794F8CE3003F0FE0384F8CE309A
S214004CE001212F20A84794F8CF3003F0FB0384F867
S214004CF0CF3094F8CF3003F0FE0384F8CF30012194
S214004D004B20A8474FF40062C4F8042194F84B31B6
S214004D1043F0040384F84B31C4F8182194F84B315F
S214004D2003F0FE0384F84B310221C4F814614E20D0
S214004D30A84794F84E3103F0FE0384F84E31012163
S214004D405220A84794F8523103F0FB0384F85231FE
S214004D5094F8523103F0FE0384F852314FF40023E6
S214004D60C4F8143102215320A84794F8533103F0B5
S214004D70FE0384F853314FF48013C4F81431022133
S214004D805420A84794F8543103F0FE0384F85431B5
S214004D904FF4001302215520C4F81431A84794F8A4
S214004DA05531354D03F0FE0384F85531334B344C02
S214004DB09847344B9847344B9847344B9847344B76
S214004DC09847344B9847636943F400736361324BEA
S214004DD09847324902463248A847324B9847324BEA
S214004DE09847324B9847324B9847324B9847324B4E
S214004DF09847324B9847324B9847324B98476369EF
S214004E004FF04008334363612F4EC7F8A480B04785
S214004E102E4902462E48A847636943F4004363615F
S214004E20C7F8A480B0472B4902462B48A847A36979
S214004E3043F40053A361C7F8E880B0472749024609
S214004E402748A847A36943F48043A361C7F8E880CE
S214004E50B047244902462448A847244B9847244B89
S214004E60BDE8F041184700BF999E00000080004151
S214004E70D5430000001C0040499200003D4400005D
S214004E8000080040BD4400004145000065450000A4
S214004E90A5450000C5460000D1A60000002400403D
S214004EA0800F002039470000B9470000394800004D
S214004EB0F148000065490000014A0000754A0000FC
S214004EC0394B0000654B0000FDB80000003800407C
S214004ED064120020003C00405811002000A0014150
S214004EE0A00F002000C0014144120020F94B000032
S214004EF0294C000030B5CC0801F007015AB1055D19
S214004F0045FA01F2D20711D4012202FA01F129432F
S214004F1001551A7030BD025D012505FA01F131EA2E
S214004F20020E02BF22EA010101551D7030BD0000CD
S214004F3070B50025ADF5027D4FF4007302AA554CFE
S214004F405548564E8DF807502946A04754495548AF
S214004F50B0474FF4007302AA29464F48A04752496B
S214004F605048524CB0470DF107032A46294602A87E
S214004F70A047012211460DF1070302A8A0470DF134
S214004F8007032A46022102A8A0470DF107032A4676
S214004F90032102A8A0470DF107032A46042102A810
S214004FA0A0470DF107032A46052102A8A0470DF1E8
S214004FB007030122062102A8A0470DF107030122DC
S214004FC0072102A8A04708210DEB01000DF10703F9
S214004FD00122A0470DF107030122092102A8A047DC
S214004FE00DF107032A460A2102A8A0470DF1070380
S214004FF001220B2102A8A0470DF1070301220C2174
S21400500002A8A0470DF1070301220D2102A8A04720
S2140050100DF1070301220E2102A8A0470DF1070398
S21400502001221A2102A8A0470DF107032A461B21D8
S21400503002A8A0470DF1070301221C2102A8A047E1
S2140050400DF1070301221D2102A8A0479DF8073095
S214005050012B19D116491348164CB0474FF400736C
S21400506002AA29460C48A04713490E48B047BFF38A
S2140050704F8F1249124BCA6802F4E0621343CB60AA
S214005080BFF34F8F00BFFDE70E490648B0470DF54A
S214005090027D70BD15A300000040800079EB000083
S2140050A086FE000097FE0000B8FE0000F54E0000E9
S2140050B0CBFE000075A30000DDFE000000ED00E062
S2140050C00400FA05EAFE000070B50A4B0A4D0B4CC8
S2140050D0984701460A48A0470A492846A0470A4B6F
S2140050E098470A492846A047284623460849BDE867
S2140050F0704018478D8100002EFF000079EB0000FD
S214005100FDFE00001EFF0000314F000053FF0000B0
S21400511060FF000000F1090300F20921002203F8F5
S214005120012B8B42FBD1022380F810324FF0FF3365
S214005130C0F80C22C0F81432704700F5067300F56C
S2140051408361002203F8012B8B42FBD1022380F8F7
S2140051501C344FF0FF33C0F81824C0F820347047D2
S21400516010B54FF4FE2380E80A00012303720023E3
S21400517080F8103280F81C34024B9847024BBDE88A
S21400518010401847155100003B51000070B54D0007
S214005190002683710446017142714681074B2846FA
S2140051A09847334620600544A84203D1A381238153
S2140051B0002070BD20F8023BF6E700BFE9E90000DA
S2140051C02DE9F0470646994600010B4B0B4DDFF8DC
S2140051D030A00F469046984700242860A64202D189
S2140051E00020BDE8F08728684B4600EB04104246D6
S2140051F03946D0470134F1E7E9E90000BC22002037
S2140052008D510000324B2DE9F047D3F800804FEA6D
S214005210001C08EB0C020024157920462646A24600
S2140052204FF6FF7923465FFA84FEAE453FD3B3FBC5
S214005230F5F5ADB28D4238BF30B258F80C4028BFF5
S21400524000B20B4434F8105024F8101090795479BA
S21400525011795789B2F808C05B1BC0F11005B3FB83
S214005260F1F3EDB29EB246FA05F1201AC0B289B249
S214005270BF1B8140002F1FFA81FEB8BF7F42012668
S214005280F44506FA05F520D0AF4209DC06FA04F428
S21400529006FA00F0241AA64502D0BEF1000F14D17B
S2140052A001205381A2F808E09081BDE8F0871768D6
S2140052B037F81470BA453CBF7046BA46B9453B4409
S2140052C084BF7646B9460134ADE70020BDE8F087D6
S2140052D0BC220020024B1B6803EB0010007B7047CB
S2140052E0BC220020084B1A68CB1F02EB0012072BCB
S2140052F04FF0000090819FBF50791389401A43FAFF
S21400530000F080B2704700BFBC2200202DE9F041BB
S2140053101C4B1D4E04464068984741F21B0300256F
S2140053206562A56241F20107E55441F20203FF22DD
S21400533004F58050E2540221E2550B30B04704F5E4
S2140053408050E25D02210930B04741F2170304F5B0
S2140053508056E75C0D4B033639463046984739464B
S21400536002460B4B30469847E5612046094B984766
S214005370636A234483F8FC576068074BBDE8F04136
S214005380184700BF6D94000059810000718200002C
S214005390A9820000E17C00005D940000F7B5056A74
S2140053A004465DBBC369B3F57A7F36D941F21B0369
S2140053B0C35C012B24D13549354B364898472046E7
S2140053C0354B98474FF4FA730193FF2300951A461E
S2140053D019463248324DA8474FF4F57140F2CF7661
S2140053E04FF4FA6040F2CE77626AA31893F8FC375F
S2140053F00A2B15D1012323620023E36103B0F0BD1D
S214005400836A13B9436A002BE6D02649204B21480D
S21400541098472046204B9847DEE70133C361DBE719
S214005420002BEBD0A56A6B1E9A4211D11E49184B71
S214005430184898472046184B194C98470222C8230C
S2140054408DE80C0000231A46FF211448A047D5E734
S214005450B24202D10DB91549E9E705F2CF75B5FBA1
S214005460F0F300FB1355254495F8FC370BB11049B3
S214005470DDE7BA4201F1FF3198BF013289B2E3613C
S21400548094BF626263620029AED1B7E771FF000085
S21400549079EB00002EFF00000D530000EC320020D8
S2140054A0DB80000095FF0000AEFF0000C9FF000093
S2140054B0E4FF000038B5002405460180C48104815D
S2140054C0448184810482448284820A4B0846984739
S2140054D0686000B9FEE720462A88A3B29A4204F123
S2140054E0010101D8012038BDA4B26B6818550C46DE
S2140054F0F2E700BFE9E900000389028A93429BBFF6
S2140055000088C018981A801A80B27047028A0389E9
S214005510934210B59CBF04881B199B1A9BB28B4202
S21400552085BF04885218002192FBF4F384BF04FB65
S21400553013224282084610BD838A4268D154838A69
S214005540018801339BB2B3FBF1F201FB1233838275
S21400555001207047828A438A934200D0FEE7038286
S214005560012070472DE9F04FD31D8DB023F00703BF
S21400557002AFADEB030D0DF1080804469346414615
S2140055804FF4FA600025A1EB08039AB2934500F2A7
S214005590E480002245464FF4FA60164693B29B45D7
S2140055A0A36A00F2E8805B44B3FBF0F200FB123320
S2140055B0A3626362DFF85892DFF858A28B4A002392
S2140055C023620126B34500F2E08095F80080B8F12A
S2140055D0010F40F03C8205EB0B0313F8019CB9F178
S2140055E00A0F40F034825946814B824E284698472F
S2140055F0594682462846B047824540F01D826B7861
S2140056000F2B40F00F8107F128064FF0000306F835
S214005610013DDFF804823346022204212846C047B3
S21400562049467861334602222846C04733463861E9
S214005630022206212846C047C3B2FB617F3BDBB28D
S214005640FB60022233460821284697F90C90C04793
S214005650C3B2BB617F3BDBB2BB60022233460C2188
S214005660284697F908A0C04704F580531B781844CD
S21400567000F003027A6043B1012B40F09880BB69CA
S214005680C3F17F08CA464FFA88F941F2190314F8A5
S214005690038041F21A0308F17F08C14414F803801E
S2140056A0FB6808F17F08D044812B5FFA89F95FFA1E
S2140056B088F802D1BB68812B1FD0DFF860A13B7D44
S2140056C00096022204212846D0474B460222062195
S2140056D000962846D04743460222082100962846D0
S2140056E0D0473B7C009602220A212846D0470096E7
S2140056F07B6802220C212846D0473B7D3E4809EBBA
S214005700032908EB092997F810803C4B08EB092879
S21400571041469847E8B95946364B2846984704F616
S214005720E474024659462846354B98475946204663
S214005730344B984768B1DFF8E8902E46731B9BB24F
S2140057409B454ED8304B2046984741462A482F4B1B
S21400575098472C37BD46BDE8F08FA26A1A44B2FBC4
S214005760F0F300FB1323234493F8FC2701F8012BE6
S21400577083F8FC5707E71344B3FBF0F100FB113343
S2140057802344013283F8FC6708E718F80630012B3B
S2140057900AD1ABEB06001FFA80FB49465046FA6179
S2140057A09047FA6908EB06050136B6B20AE7022BFF
S2140057B00AD1FB69C3F17F09BB69C3F17F0A4FFABF
S2140057C089F94FFA8AFA60E7032B09BFFB694FF0A5
S2140057D0000AC3F17F03D14614BFD1464FFA83FABD
S2140057E053E716F8011B2046C847A7E779EB0000E9
S2140057F08D82000071820000EC320020E5820000FD
S214005800A98200000D55000055550000FF820000DB
S214005810FFFF00002EFF0000B9820000D1820000CA
S214005820395500000E2B40F0F980AB78072B90D14D
S21400583000220221DFF82C9205F10800C84700225A
S2140058405FFA80FA0221A81DC84741F21B035FFADF
S21400585080F8E35C002B7AD141F2010914F8093094
S214005860FF2B1DD17B4B7C48984700F07F0204F548
S214005870805004F809200221784B0930984741F2FD
S214005880170304F58059E35CFB6109F10309194627
S2140058904846B047FB69024619464846704B98474B
S2140058A041F20203E25C424518D004F580504246BD
S2140058B004F803800221694B0B30984741F2170326
S2140058C004F5805814F8039008F10308494640464A
S2140058D0B04749460246624B4046984741F20103AC
S2140058E0E35C53452ED1617AEB785B1A0633594256
S2140058F004F5805201F0030103F00303ABF10A0044
S21400590058BF4B421370022100222844554B524D7B
S214005910984741F21B030122C4F8FC0FE2542846C4
S2140059204C4B9847C0B228704F49504B5048984748
S2140059304FF4FA730193002328460093FF2219467A
S2140059404C4DA84741F218030122E25401E7627A5F
S214005950EB789B1A06335A4202F0030203F0030365
S21400596058BF534204F5805241F202001178205C81
S21400597041F20102A25C524508BF40450CBF4FF001
S21400598001084FF00008ABF10A008B4214BF4FF03D
S214005990000808F00108002202212844D4F8FCAFD1
S2140059A0C847504503D1B8F1000F7FF4D2AE41F29C
S2140059B01B034FF0000904F8039041F2010A41F27C
S2140059C00203FF2504F58050E554DFF8908004F8C4
S2140059D00A502A4602210B30C04704F5805014F8BE
S2140059E00A2002210930C04741F2170304F5805807
S2140059F0E45C08F1030821464046B04721460246CB
S214005A00174B404698470221C8238DE80A004A46AD
S214005A102B4629461048174CA0479AE60222C82370
S214005A208DE80C0000230C48124C1A46FF21A047B4
S214005A301148124B98478CE6104B11489847C823DC
S214005A400193CDF80080FF2300221421E2E70D48E1
S214005A50EFE700BF7D800000EC3200205981000097
S214005A60A9820000298100001200010079EB0000E5
S214005A702EFF0000DB8000001A00010061EC000031
S214005A80500001008300010037B5037E012B044659
S214005A9010D100250576124B98474FF4FA73019300
S214005AA0FF2300951A4619460E480F4DA8470F4883
S214005AB00F4B98470F4B20469847236A73B1626A8C
S214005AC0A16A0D4B914234BF013202F2D172521AD2
S214005AD092B289B2204698470023236203B030BDB5
S214005AE00D530000EC320020DB800000AF00010008
S214005AF061EC00009D53000065550000F0B5438939
S214005B008589AB4200D0FEE702899A4200D0FEE7C4
S214005B10068AB54216D00488002293B2A34200D368
S214005B20FEE7AF1897FBF4F104FB11718FB2BE428B
S214005B3008D04768795C0A2902F10102EDD1581CA9
S214005B4080B2F0BD0020F0BDF0B543898589AB4238
S214005B5000D0FEE702899A4200D0FEE7068AB542E8
S214005B601ED001880024A2B28A4200D3FEE72F1975
S214005B7097FBF1F301FB13739FB2BE4210D0476848
S214005B80FF5C0A2F04F10104EDD1013393FBF1F41D
S214005B9001FB14334381531C9BB2C3811846F0BDEE
S214005BA00023FBE783894189994210B5024600D15C
S214005BB0FEE741681488C85C01339BB2B3FBF4F17E
S214005BC004FB1133938110BD82894389934200D030
S214005BD0FEE70381012070472DE9F04387B00446B5
S214005BE017464C4D9DF8388000F6CC701E46A847E8
S214005BF0394604F6E470A84700229DF8403022603B
S214005C00A3729DF83C30637211466660134684F8B2
S214005C100880A2812262E2180133B3F5FA6F82F897
S214005C202C10F8D100231D46E2180133B3F5FA6FA5
S214005C3082F8FC57F8D141F2010004F5805141F298
S214005C401B030122FF260D70C4F8FC5FE2542654A5
S214005C5041F202009045265441F21800255456D1D0
S214005C60E5540D702C4B94F809900F469847042382
S214005C7003375FFA89F905930723424627490290BE
S214005C80CDF804900093DFF8A49004960E230396B4
S214005C903846C847224B3846984741F21703C0B2E9
S214005CA0E054384614F80390E15C1E4B98475FFAC0
S214005CB089F902461C4B494638469847637A112BA9
S214005CC009D141F21903E55441F21A0304F803809E
S214005CD007B0BDE8F083637A122B07D141F21903AF
S214005CE004F8038041F21A03E554F1E7637A132BB4
S214005CF006D141F21903E55441F21A03E654E7E7E8
S214005D00637A142BE4D141F21903E654EAE7E2542D
S214005D10DEE700BFB55400008D810000DC00010006
S214005D2055EE000071820000A9820000FDED000023
S214005D302DE9FF47012400264FF47A621123264DF1
S214005D400193114602960094244B2548DFF8B08054
S214005D50A8474FF47A6212230193114602940094E6
S214005D60204B2148A8474FF002094FF47A621323CC
S214005D7001931146CDF8089000941C4B1C48A84788
S214005D8003274FF47A621423029701931146009476
S214005D90184B1948A8474FF0FF0A4FF47A6200974D
S214005DA0334611464046154FCDF808A00196A84741
S214005DB04FF47A623346CDF808A00196CDF80090ED
S214005DC011463846A84741F21B0308F80340FC5426
S214005DD004B0BDE8F08700BFD95B0000C410002007
S214005DE09812002070100020386D0020C811002086
S214005DF0FC4B002078110020DC3B00201C5C0020BF
S214005E00C42200202DE9F04F93B000F6E47802AFEC
S214005E100646574BF960404698470446002800F06F
S214005E20A580544B3B61544B7B61544BBB61544B38
S214005E30FB61544B3B62544B7B620023C7F808D08F
S214005E401D4607F1100141F21B0051F8232012F8FD
S214005E5000E0BEF1000F07D007F1400E0EEB850EF6
S214005E6001354EF8182CEDB20133062BEDD1DFF8D4
S214005E7034A1002107F12809CBB29D4221D8404623
S214005E80424B984784423AD1DFF81CB14FF00009E4
S214005E9007F1280A5FFA89F39D4231D84FF0000ACD
S214005EA01FFA8AF39C42404637D8394BDFF8FC800D
S214005EB0984707F128040021CBB29D424BD8012019
S214005EC015E059F82100864201D1FB68ABB100F617
S214005ED0CC70D047844210D90222C8238DE80C002B
S214005EE064222C482C4C00231146A0470020D7F8EB
S214005EF008D04437BD46BDE8F08F0131BCE7FEE769
S214005F005AF82900864201D1FB681BB1214600F6EB
S214005F10CC70D84709F10109BCE7204B98474FF0F1
S214005F200009834607F128025FFA89F18D4202D8FC
S214005F300AF1010AB4E752F82900864201D1FB684B
S214005F4033B1594600F6CC70154B7A6098477A689C
S214005F5009F10109E8E754F82100864201D1FB68FF
S214005F6013B100F6CC70C0470131A5E7C1E700BF0A
S214005F70FD5A000098120020386D0020FC4B0020CF
S214005F80DC3B0020C42200201C5C0020495B000093
S214005F90C95B0000EC320020DB800000A55B00003F
S214005FA039550000F95400000D5500005555000005
S214005FB02DE9F04F00F6CC75CFB08146564B2846FB
S214005FC09847064610B94FB0BDE8F08F09F12C0887
S214005FD009F2FC724346002103F8011B9342FBD1F1
S214005FE003AC4FF4967200214C4BDFF850A12046CC
S214005FF0984728464A4B98470027BBB29E422846F9
S2140060002BD8484B484F984700250DF10A0302222B
S214006010062120468DF80A50B8477F3843B20093D1
S21400602020460DF10A0302220821B8477F3843B202
S21400603001938DF80B502C460DF10C0815F808103E
S214006040022910D1ECB20135ABB2B342F4D33146DB
S21400605009F12C00354B9847B5E7D047E05508F8CE
S214006060010B0137C9E70329EDD10CB90024EAE793
S214006070601C0DF10B022E4B404498475FFA80FAE5
S214006080201D0DF10B0201214044294B9847BAF11F
S214006090000FEBD1C0B20F28E8D144440DF10A033B
S2140060A0022205212046B8470DF10A0302220721E5
S2140060B02046B8470DF10A035FFA80FB0222092149
S2140060C02046B8470DF10A03804602220B212046DF
S2140060D0B847BDF80040174B5FFA88F21021E0324F
S2140060E011FB0422602192FBF1F801FB18220199B2
S2140060F05B7A114CC1F5807101F0030101EB83015D
S21400610001F00F01C3B2D2B24BEA01014FEA1B10F5
S214006110A047544697E700BFFD5A00000FEA00006C
S214006120495B0000C95B0000B98200000DD3000087
S21400613029810000EC32002015DA0000A55B000083
S2140061402DE9F04F00F6CC74D1B020469E4B984710
S214006150804610B951B0BDE8F08F05AD4FF4967289
S21400616000219A4B9A4F284698472046994B9847C5
S2140061700026B3B2984520462CD8974B974E9847A2
S2140061804FF0000A0DF112030222062128468DF870
S21400619012A0B04704460DF1120302220821284639
S2140061A0E4B2B0477F2C07D15FFA80FAAAF17F03EA
S2140061B0D3F1000A4AEB030A0027894E8DF81370C4
S2140061C03C46E95D022909D1FCB20137BBB29845CD
S2140061D0F7D8BFE7B847A8550136CAE70329F4D170
S2140061E00CB90024F1E7601C0DF113022844B047F7
S2140061F05FFA80F9201D0DF1130201212844B047F3
S214006200B9F1300F5FFA80FB4BD1601D0DF1130220
S21400621002212844B047BBF10F0F814621D17148B7
S214006220714B9847FF2816D1DFF8E4B16F4BDBF8C7
S214006230040001219847044621466D4BDBF8040014
S2140062409847DBF8043024B2D8686A4BC4EBC40421
S21400625000EB840098475FFA89F16248664B9847DE
S214006260BFE7BBF10E0FBCD15E485F4B9847FF28D7
S214006270B7D0DFF89C915D4BD9F804000A21984707
S21400628004462146D9F80400594B9847D9F80430FB
S21400629024B2D868574BC4EBC40400EB840098477C
S2140062A09FE7B9F1310F28D1BBF10F0F99D1601DCF
S2140062B00DF1130202212844B0475FFA80F9E01D71
S2140062C00DF1130202212844B047C4B2012C04D1B8
S2140062D049464A4B4348984783E7002C81D14148BA
S2140062E0414B9847814503D1FF213E48424B984792
S2140062F04946434B3B48984767E7B9F1320F39D1D7
S214006300BBF10F0F7FF46DAF601D0DF1130202217C
S2140063102844B0475FFA80F9E01D0DF11302022110
S2140063202844B047029004F109000DF1130202213F
S2140063302844B047834604F10B000DF113020221F6
S2140063402844B047029B2F4C1A044FEA0B2B02F44A
S2140063507F021FFA8BFB42EA0B0252FA80F2494692
S2140063602048A0471F48204A904781457FF439AF10
S214006370494672E7B9F1400F4CD1BBF10F0F7FF4DD
S21400638030AFBAF1000F3FF42CAF601D0DF11302D1
S21400639002212844B0478146E01D0DF11302022178
S2140063A02844B047834604F109000DF11302022188
S2140063B02844B047144CC3B25FFA8BF25FFA89F1F7
S2140063C01248A0470DE700BFFD5A00000FEA000084
S2140063D0A55B0000495B0000C95B0000B9820000B5
S2140063E029810000EC3200204D7F00006785000008
S2140063F0658900008D850000817F0000157F000004
S214006400257F0000377F000091660000CC7D0020CD
S214006410587D0020B9F1410F7FF4E3AEBBF10F0FBA
S2140064207FF4DFAEBAF1000F3FF4DBAE601D0DF176
S214006430130202212844B0470290E01D0DF113021A
S21400644002212844B047039004F109000DF113021D
S21400645002212844B047834604F10B000DF11302D5
S21400646002212844B047814604F10D000DF11302C5
S21400647002212844B0475FFA89F3C0B20190009326
S2140064809DF80C209DF808100248034C5FFA8BF329
S214006490A047A6E6CC7D0020256600002DE9F8433F
S2140064A08389054613BB00F6CC763046114B9847D9
S2140064B00446D8B13046104BDFF84890984705F1AF
S2140064C02C07AC812C342C44B846A742304609D160
S2140064D00A4B9847AA896868094B414698470120A5
S2140064E0BDE8F883C84707F8010BEEE70020BDE8D3
S2140064F0F88300BFFD5A0000495B0000C95B00003E
S2140065007D8E0000A55B0000014B01221A707047CB
S2140065109412002010B544788C421CD9FF2B4FF003
S2140065200C0404FB01F128BFFF230C4CC06854F890
S21400653023304350FF2A28BFFF22014454F822305C
S2140065404B60BDF80830FF2B28BFFF23002054F80F
S21400655023308B6010BDFF2010BD00BFB837002071
S21400656010B5064C064B00F114012046984720460D
S214006570044A054B0021BDE81040184714110020BE
S21400658089910000096500007D9100004078704701
S214006590F0B50D26457800213746CBB29D4210D97E
S2140065A00369032207FB0133DC7A93F80CE0013A17
S2140065B0744412F0FF02DC7216FB0533F4D101318D
S2140065C0EBE7F0BD10B54478006904FB02120D2419
S2140065D06243811883549DF808304B709DF80C3048
S2140065E08B7010BD10B5447804FB021201690D20B3
S2140065F000FB0212D3709DF8083013719DF80C3022
S214006600537110BD10B5447804FB021201690D20C9
S21400661000FB021293719DF80830D3719DF80C3080
S214006620137210BD2DE9F3479DF82C609DF8285095
S214006630DFF854A01C461423B6FBF3FECDF804E0A6
S214006640B5FBF3FEB4FBF3F3CDF800E0074688464F
S2140066509146D047730801936B0800934A46630837
S21400666041463846DFF824A0D0472346054C0B9613
S2140066704A4641463846A4460A9502B0BDE8F04769
S214006680604700BF05660000C5650000E5650000C0
S21400669010B5447804FB021201690D2404FB0212B3
S2140066A0D37210BD10B5447804FB021201690D24A4
S2140066B004FB0212137310BD2DE9F74F0546417017
S2140066C0CCB20C206043903068604F4FB847064607
S2140066D000F19003A8602720EB606043B84706B13E
S2140066E000B9FEE7002328611946AA68D154013391
S2140066F0902BFAD10024454F26466B789C420DD34A
S214006700DFF814B14FF0000A6B785FFA8AF6B342EE
S2140067100AF1010A0AD803B0BDE8F08F002321462B
S21400672000961A462846B8470134E6E70024234672
S21400673031462846019400940122D8477F230093CF
S21400674031462346284601940122314FDFF8CC908B
S214006750DFF8CC80B847FF2300933146234628460F
S214006760019401222B4FB847234631462846012282
S214006770C8472346314628460122C04723463146AD
S2140067802846019400940222D8477F23009331467E
S21400679023462846019402221D4FB847FF23009344
S2140067A0314623462846019402221A4FB84723460C
S2140067B0314628460222C84723463146284602224A
S2140067C0C047234622463146284601940094D847BF
S2140067D00F4F019423462246314628460094B84778
S2140067E0234622463146284601940094094FB8476E
S2140067F02346224631462846C84723462246314687
S2140068002846C04780E700BFE9E90000156500009C
S214006810E565000005660000C5650000A566000089
S2140068209166000070B5284E0546002293B213F01C
S214006830010F14BF4FF060604FF0006013F0020FBE
S2140068400CBF4FF000444FF0604413F0040F44EACE
S21400685000040CBF4FF400204FF4602013F0080F24
S21400686040EA04000CBF4FF400044FF4600413F039
S214006870100F40EA04000CBF4FF400644FF460644D
S21400688013F0200F44EA00040CBF4FF400404FF40E
S214006890604013F0400F44EA00040CBF08200E20AE
S2140068A0DB0914BFE02380232043034346F822304D
S2140068B00132B2F5807FB9D12846044B9847284666
S2140068C0034B9847002070BDB8370020B96600001B
S2140068D0616500002DE9F04F04694378DFF8A0A059
S2140068E085B000254FF00D09039309FB01440326EC
S2140068F02B462A46E77A94F803C01AF807E094F87D
S21400690000B05744013E97F8008197F800721CFBD0
S21400691008FC0BFB0ECC94F806B00BFB07CC6244CD
S21400692094F804C094F801B01CFB08FC0BFB0ECCDA
S21400693094F807B00BFB07CC634494F805C094F8B2
S21400694002B01CFB08F80BFB0E8E94F808B00BFB8D
S21400695007E73D44BDF80C7016F0FF0619FB074428
S214006960C8D1C5F34F250095C3F34F23C2F34F227A
S214006970024CA04705B0BDE8F08F00BF15650000CB
S2140069800000002070B5064E054600246B789C4239
S21400699000D370BD21462846B0470134F6E700BF55
S2140069A0D568000010B5074B044600221A7006484A
S2140069B0064B9847A288A1686069054BBDE8104061
S2140069C0184700BF94120020141100207191000097
S2140069D07D8E00002DE9F04F6A4D6B4BDFF8289254
S2140069E06A4F6B4CDFF824B29DB0284601219847C9
S2140069F0002211462846674B98476422002103A8C8
S214006A00C8476549654B03A8984703A8B84703AB32
S214006A1053FA80F81CAE03234FF0000A00930222BC
S214006A2010235F494046A04706F865AD0F230122B4
S214006A30042100965B4C4046D847A0470096034684
S214006A40022205214046D84700960123022207214C
S214006A504046D84700960123022209214046D847DF
S214006A6002231A460B2100964046D84703A8B8478B
S214006A706E68C3B203AA304601214B4EB04764226B
S214006A80514603A8C8474949444B03A8984703A85A
S214006A90B847D5F804E0C3B203AA70460821B04749
S214006AA06422514603A8C84741493C4B03A898476F
S214006AB003A8B847D5F804E0C3B203AA7046092174
S214006AC0B0476422514603A8C8473A49334B03A847
S214006AD0984703A8B847D5F804E0C3B203AA70469F
S214006AE00A21B0476422514603A8C84732492B4BB7
S214006AF003A8984703A8B8476D68C3B203AA2846F8
S214006B000B21B0472D4D2E492E48A8472E4B4FF44B
S214006B108042C3F81821A0472E4670B92B49294851
S214006B20B0472B4B98472B4B2B4898472B492C4864
S214006B302C4B98471DB0BDE8F08FA0470828EDD035
S214006B40A047802804D128491E48B047274BE9E7CC
S214006B50A0478828F7D0A047402804D124491948E0
S214006B60A847244BDEE7A047C02804D12249154891
S214006B70A847224BD6E722491248A8472149114880
S214006B80A847D0E7587D00201583000055EE00008A
S214006B90FDED0000A5830000F600010045EE0000B4
S214006BA0070101008D810000918400001901010099
S214006BB032010100430101005C01010079EB000095
S214006BC07501010097FE000000800041850101006C
S214006BD03D7B000019800000EC320020C00F002032
S214006BE0943300206151000097010100456E0000BB
S214006BF0A9010100CD770000BB0101003973000038
S214006C00CD010100E90101000FEA0000D182000079
S214006C1010B5044C0448A04723460448BDE810407D
S214006C20184700BFE58C0000441000201812002012
S214006C302DE9F04F654A13788BB0144633B91378B4
S214006C400133DBB213700BB0BDE8F08F0023ADF854
S214006C501430ADF8163053785D4A5E4F5E48083300
S214006C600021D65C6378DBB2F6B2D55C637801337C
S214006C70DBB26370637803F007036370637813F026
S214006C80010F564B4FF4002214BFC3F81821C3F867
S214006C901421637813F0020F504B4FF4801214BF88
S214006CA0C3F81821C3F81421637813F0040F4B4B74
S214006CB04FF4001214BFC3F81821C3F8142102239E
S214006CC005AAB84702230DF1160200214448B8472A
S214006CD00023ADF80C30ADF81030BDF814308DF848
S214006CE008604EF66022EDB293428DF809505BD9EB
S214006CF001238DF81030BDF816304EF66022934210
S214006D0058D901238DF81130364B06AD03F1100625
S214006D10186859682A4603C20833B3421546F7D1A5
S214006D20314DDFF8D090002702ABD95D03AB04EB02
S214006D30010B17F803809BF802006B6880452BD088
S214006D4004AEBE5D012E27D10E0133440AAA5B684D
S214006D50DFF8A4A0196002EB010E1EF8101C5960A3
S214006D6070BB7F2199616868FF21D9610521304495
S214006D701E4B984703466868019319463044C84737
S214006D806968019B0E441BB2F068C3EBC30300EBBB
S214006D908300D0478BF802800137022FC4D100232E
S214006DA02370134B98474EE7C72BA4D87F238DF844
S214006DB00C309DE7C72BA7D87F238DF80D30A0E7B2
S214006DC000219961D96168680621D0E72E06002067
S214006DD000030020718C0000441000200080004159
S214006DE018120020F8010100E0320020678500003C
S214006DF0116C0000658900008D8500002DE9F041CA
S214006E000B4F0C4C0C4E0D4D00223B4611462046B7
S214006E10B04700223B4611462846B0472046084C5D
S214006E200021A047284623460021BDE8F041184728
S214006E30316C000044100020358C00001812002031
S214006E40258C00002DE9F04F1021E5B0254B264893
S214006E50264F984710212548254B98470024254B58
S214006E602248DFF8ACA0DFF8AC80DFF8AC90E1B2E7
S214006E7002229847C82200216846D0471E49684625
S214006E80C0476846C8477D6826015FFA80FB5B46B8
S214006E906A46A8190521194DA84719496846C047EA
S214006EA078685B466A4606213044A847C8220DEB40
S214006EB002000021D047134932A8C04732A8C8476D
S214006EC0D7F804E0C3B232AA00210EEB0600013464
S214006ED0A847102CC3D10C4B98470C4B984765B06D
S214006EE0BDE8F08F25680000CC7D0020E032002051
S214006EF015830000A58300000802010091840000AD
S214006F00330201005E020100FD6D0000116C0000FE
S214006F100FEA000045EE000055EE000010B5094BE4
S214006F20094C4FF400129A612046084B9847084ACD
S214006F302046084C0823A44602F10E01BDE8104086
S214006F40604700BF00800041380F002075900000A9
S214006F5040060020B19000002DE9F04F8E4B8F4880
S214006F604FF400125A618BB08D4B98470346FF28AA
S214006F7008BF00230293894BDA7A002A40F0B880D3
S214006F80DFF864924FF000085FFA88F2530802F0C8
S214006F90010119F8033089000B4109EB0801DBB247
S214006FA091F85C1003F00F068E4200F068817D4970
S214006FB018F801407C490A707C4A019203F00103EC
S214006FC02501039353194FEA960C59786145C6F389
S214006FD040063FD001229A7083F801C0744B754A70
S214006FE05B682B442F465B680DF1180A02F1100B04
S214006FF010685168D646AEE8030008325A45F24695
S214007000F6D10AAA22441C6012F8102C5A60BCF171
S214007010000F40F0B280DFF898B17F229A61DBF86B
S2140070200400FF22DA6105213844634B9847824604
S214007030DBF80400614B514638449847DBF80430CF
S2140070401F440FFA8AFAF8685D4BCAEBCA0A00EBCF
S2140070508A009847019B2B445B7BB34200F09680E6
S214007060039B9E4214BF4FF0FF370127019B9DF8FC
S2140070700C202B445E739A73002F00F000819968F1
S2140070804648504B504E98470590059B4F48B3F5E1
S214007090C87F84BF4FF4C8730593059B132B9CBF12
S2140070A014230593059B059A02FB1300484B98474B
S2140070B037A3D3E90023B0470022464B464EB047DD
S2140070C0464B9847464B86B234489847019B2B441C
S2140070D01D469860731C13FB07F39BB27A1C19B20B
S2140070E040F0DB80EA78CA4200F1808013447EE0FC
S2140070F00024DC72BDF908903A4BDFF8B4A003EB2D
S2140071000919D046DAF804302A4A19F8046025012D
S2140071102B4406AF5B6802F1100BBC461068516842
S214007120BE46AEE8030008325A457746F6D11CF84C
S2140071300420D8F804005A609E60002276001A6187
S2140071405A611C60DE60022128441B4B98470646A5
S214007150D8F80400194B314628449847D8F804302C
S2140071601D4436B2E868164BC6EBC60600EB860032
S21400717001349847102CC5D102E7DFF834B000225E
S2140071809A61DA61DBF8040006214DE700276DE717
S21400719000000000004CED4000800041EC32002072
S2140071A04D7F000010030020B4220020386C002021
S2140071B0E03200207F02010067850000658900003C
S2140071C08D8500008180000091E7000000710200BC
S2140071D051E400000000F03FD9E1000061E9000042
S2140071E07D8000005C060020400600200023EB7037
S2140071F0029B1B0109EB03022244127F06FB0721B8
S214007200002953DB7F2953DC01F0FF07974236D075
S2140072104B442344274E1F777368274A25012B4487
S2140072200DF1180C5B6802F1100A10685168E6460A
S214007230AEE8030008325245F446F6D10AAA1C60AE
S2140072401444706814F8102C5A609F6000227F0067
S2140072501A615A61DF6002212844184B9847044699
S2140072607068174B21462844984773681D4424B21B
S214007270E868144BC4EBC40400EB8400984708F19C
S2140072800108B8F1100F7FF47FAE0F4B00221A7082
S2140072900E4B98470BB0BDE8F08F012FA8D1EA78C7
S2140072A011447F297FF722AF7F23A0E70027ADE7B1
S2140072B07F27ABE7E03200207F02010067850000F1
S2140072C0658900008D850000E87D00201D6F0000A8
S2140072D00F4B4FF4001210B55A610E4C9A604FF0E7
S2140072E080429A620C4A9A62032120460B4B9847CA
S2140072F00B490C4B204698470B490C4B20469847A9
S21400730020460B4A0B4B0021BDE81040184700BF33
S21400731000800041380F0020200000C09990000037
S214007320801A060081900000B82200201591000007
S214007330596F0000F99000002DE9F04F10219BB026
S214007340304B3148314FDFF8E8A0984710212F48DE
S2140073502F4B98470024E1B203222C48DFF8D4B024
S214007360DFF8D480DFF8D490D0476422002101A84B
S214007370D847284901A8C04701A8C8477D68260104
S214007380C3B201AAA8190221234DA84764220021EE
S21400739001A8D847214901A8C04701A8C847D7F87F
S2140073A004E05FFA80F94B460EEB060001AA0521C1
S2140073B0A8471B4901A8C04778684B4601AA062182
S2140073C030440134A847102CC5D10022154B0121AA
S2140073D010464FF0FF341A700132102A5970987018
S2140073E0D870197158719C6018735973997303F1AA
S2140073F01003F0D10C4B98470C4B98471BB0BDE8D8
S214007400F08F00BF25680000CC7D0020E032002011
S214007410158300008F02010091840000BA0201006B
S214007420E5020100386C0020D17200001D6F0000DC
S214007430A58300000FEA000045EE000055EE0000B0
S21400744010B5044C0448A04723460448BDE8104045
S214007450184700BFE58C00004410002018120020DA
S2140074602DE9F04FB24A13788BB033B91378013355
S214007470DBB213700BB0BDE8F08F0023ADF814300C
S214007480ADF81630AB4BAC491A78AC4FAC48DFF8C9
S214007490DCB2DFF8DC92AB4E08324FF6FF7A8D5C3A
S2140074A01A78D2B2EDB28C5C1A780132D2B21A7067
S2140074B01A7802F007021A701A7812F0010FA24A20
S2140074C04FF4002114BFC2F81811C2F814111A782C
S2140074D012F0020F9C4A4FF4801114BFC2F8181124
S2140074E0C2F814111B7813F0040F974B4FF40012D8
S2140074F014BFC3F81821C3F814210021022305AADB
S214007500B84702230DF1160200219048B847BDF88F
S2140075101400D84784A3D3E90023C847B047504592
S21400752028BF5046ADF814000746BDF81600D847E9
S2140075307DA3D3E90023C847B047E4B25045A4F181
S214007540080328BF5046012BADF816006AD90D2D4A
S214007550DFF820827ED90023ADF80C30ADF810306D
S2140075604EF66023043D043C9F428DF808508DF88B
S21400757009405DD901238DF810304EF660239842FD
S2140075805CD901238DF81130714B06AC1868596828
S214007590224603C2083343451446F7D16D4CDFF844
S2140075A0D8B1DFF8C0914FF0000802AB13F80850CE
S2140075B003AB1BF8050018F80360636886422CD0FE
S2140075C004A918F80110012927D12F013B440AAA63
S2140075D051195B6811F8101CDFF88CA11D6059600A
S2140075E0002831D17F2199616068FF21D96105218A
S2140075F03844C84703466068019319463844D04764
S2140076006168019B0F441BB2F868C3EBC30300EB31
S2140076108300514B98470BF8056008F10108B8F154
S214007620020FC2D1424A002313704C4B984721E701
S214007630C72FA2D87F238DF80C309BE7C728A3D886
S2140076407F238DF80D309CE700219961D961606831
S2140076500621CDE7012CDFF824915FD8AAEB0701BD
S2140076602846C847BDF81610AAEB01012046C847B1
S214007670374A8DF810508DF8114006AB10685168E7
S2140076801C4603C4083242452346F7D1314DDFF885
S214007690F080334F4FF0000904AB19F803406B68D5
S2140076A04FEA041A53442046D3F804B0C04778B3D0
S2140076B007212046B8470AAB2344CBF8004013F80E
S2140076C0103CCBF8043007212046B8470821CBF8F9
S2140076D008002046B847CBF80C0068680023CBF8B3
S2140076E01030CBF81430022150441E4B9847044605
S2140076F068681D4B2146504498476B689A4424B2EC
S214007700DAF80C00144BC4EBC40400EB8400984772
S21400771009F10109B9F1020FBED183E739462846BF
S214007720C847BDF81610A1E77B14AE47E17AF03FD4
S214007730C0220020607D002021030020718C000004
S2140077404410002061E9000000800041181200206B
S21400775010030100E03200208D8500004174000017
S214007760E5520000678500006589000071E40000AE
S2140077703DE5000020030100AD0600200552000094
S214007780D55200002DE9F0410B4F0C4C0C4E0D4D20
S21400779000223B4611462046B04700223B46114693
S2140077A02846B0472046084C0021A04728462346D6
S2140077B00021BDE8F0411847617400004410002025
S2140077C0358C000018120020258C00002DE9F04FA3
S2140077D00E229BB0072305212C4C2D4D2D4FDFF894
S2140077E0E4801020A0470C212B4B2C4898470C21F6
S2140077F027482B4B98470024072CE1B21FD80122BC
S2140078002846B8476422002101A8C0472549264BD0
S21400781001A89847254B01A898476E68C3B201AAED
S21400782006EB04100221224EB04701340C2CE3D1A3
S214007830204B9847204B98471BB0BDE8F08F284652
S2140078400222B8476422002101A8C047DFF858B0DA
S2140078501A49DFF85C9001A8D84701A8134B98474F
S214007860D5F804E05FFA80FA2601534601AA0EEB2B
S21400787006000521C847124901A8D847686853463C
S21400788001AA06213044C847CFE700BFC151000017
S214007890E0320020A583000025680000CC7D002093
S2140078A0158300002003010045EE000055EE0000A1
S2140078B091840000857700004174000008020100F2
S2140078C0330201000FEA000010B5044C0448A0473C
S2140078D023460448BDE81040184700BFE58C00006A
S2140078E044100020181200202DE9F04F6E4A13783D
S2140078F087B0144633B913780133DBB2137007B080
S214007900BDE8F08F0023ADF80430ADF806305378AC
S214007910664A674F6748DFF8CCA1DFF8CC91DFF8FE
S214007920CC8108330021D65C6378DBB2F6B2D55C36
S21400793063780133DBB26370637803F00703637028
S214007940637813F0010F5C4B4FF4002214BFC3F8AA
S2140079501821C3F81421637813F0020F564B4FF426
S214007960801214BFC3F81821C3F81421637813F0EB
S214007970040F514B4FF4001214BFC3F81821C3F87C
S2140079801421022301AAB84702230DF106020021A2
S2140079904A48B847BDF80400D04741A3D3E90023BE
S2140079A0C847C0474FF6FF77B84228BF3846ADF8FD
S2140079B00400BDF80600D04739A3D3E90023C84722
S2140079C0C047B84228BF38463D4BADF8060098473A
S2140079D00828EDB209D1BDF80430DB43ADF8043019
S2140079E0BDF80630DB43ADF80630BDF80410354F61
S2140079F03046B8472846BDF80610B847324B8DF8D3
S214007A0000608DF8015003F1100602AD1868596841
S214007A102A4603C20833B3421546F7D12B4EDFF889
S214007A20D0802B4F4FF000091DF809B073684FEA5D
S214007A300B1A534458465D68C04738B306AB5B44E0
S214007A40C5F800B013F8103C6B6007215846B847DD
S214007A500821A8605846B847E860706800232B6184
S214007A606B61022150441B4B9847054670681A4BC1
S214007A7029465044984773689A442DB2DAF80C00A9
S214007A80164BC5EBC50500EB8500984709F10109C3
S214007A90B9F1020FC8D100232370114B98472EE787
S214007AA07B14AE47E17AF03FBF060020310300208A
S214007AB0718C000044100020008000411812002045
S214007AC08D810000055200004B030100E0320020CB
S214007AD0E552000067850000658900008D8500007E
S214007AE0C978000071E400003DE5000061E900008F
S214007AF0D55200002DE9F0410B4F0C4C0C4E0D4DAD
S214007B0000223B4611462046B04700223B4611461F
S214007B102846B0472046084C0021A0472846234662
S214007B200021BDE8F0411847E97800004410002025
S214007B30358C000018120020258C00002DE9F0413D
S214007B400E229AB007230521184C194EDFF88C80B8
S214007B50184F1020A0471021174B1848984710219F
S214007B601348174B98470024E1B201221048C0473B
S214007B706422002101A8B8471249134B01A8984770
S214007B80124B01A898477568C3B201AA05EB04100A
S214007B9002210F4D0134A847102CE5D10D4B984714
S214007BA00D4B98471AB0BDE8F08100BFC1510000E8
S214007BB0E03200200FEA000025680000CC7D00209F
S214007BC0158300002003010045EE000055EE00007E
S214007BD091840000F57A0000C9780000A5830000B3
S214007BE000F01F034009C00100F1824000F500408C
S214007BF001229A400344426093F8401041F0040189
S214007C0083F8401082617047034640785970704789
S214007C10437800EB83004368013343607047031DDD
S214007C200022243043F8042B8342FBD1704700EB3C
S214007C3081014868704783892C3300F12C02034485
S214007C4000219A4201D18181704702F8011BF8E7B2
S214007C500148024B184700BFDC3B0020377C000081
S214007C600148024B184700BFFC4B0020377C000041
S214007C700148024B184700BF386D0020377C0000D3
S214007C800148024B184700BF98120020377C0000BE
S214007C90012303764068014B184700BF6D9400002F
S214007CA00148024B184700BFDC3B0020917C0000D7
S214007CB00148024B184700BFFC4B0020917C000097
S214007CC00148024B184700BF386D0020917C000029
S214007CD00148024B184700BF98120020917C000014
S214007CE0807A030103F1824303F5204300211A6CD6
S214007CF022F002021A64014B184700BFBDA0000024
S214007D000148024B184700BF98120020E17C000093
S214007D100148024B184700BF386D0020E17C000088
S214007D200148024B184700BFFC4B0020E17C0000D6
S214007D300148024B184700BFDC3B0020E17C0000F6
S214007D402DE9F0475C202A4CDFF8F080294F2A4EB8
S214007D502A4DDFF8EC90A0475020A0474C20A047C3
S214007D602920A047264C274A01214046A047264AFC
S214007D7001213846A047254A01213046A047244A1B
S214007D8001212846A04701214046C8470121384620
S214007D90C84701213046C84701212846C8471D4A22
S214007DA002214046A0471C4A02213846A0471B4AEB
S214007DB002213046A0471A4A02212846A047194CFD
S214007DC019494046A04719493846A0471849304641
S214007DD0A04718492846A047174C4046A0473846B3
S214007DE0A0473046A04728462346BDE8F047184738
S214007DF0E17B000070100020C811002078110020E0
S214007E0085940000817C0000717C0000617C00008D
S214007E10517C0000D17C0000C17C0000B17C0000D9
S214007E20A17C00007D940000E8320020F84B002082
S214007E30185C0020E47D00205D940000C410002043
S214007E40C9940000F7B54368847A0F46196A104B48
S214007E500546283120461646984705F2FC7120460E
S214007E600C4B9847394620460B4B9847214601A8AD
S214007E700A4B9847019B01221E6020460021084BB2
S214007E80984700212046074B984703B0F0BD00BF37
S214007E904DA000003DA0000079A00000F9A0000061
S214007EA015A00000BDA0000010B5104A104C1148E7
S214007EB04FF4FA61A047104A10484FF4FA61A04701
S214007EC00F4A10484FF4FA61A0470F4A0F484FF484
S214007ED0FA61A0470E4B002283F81F2383F8202365
S214007EE083F8212383F8222310BD00BF017D000004
S214007EF0457E000098120020117D0000386D00209D
S214007F00217D0000FC4B0020317D0000DC3B002082
S214007F1000E100E0042901D900207047084401234D
S214007F204373704704294FF0000301D91846704781
S214007F30084443737047042901D900207047084459
S214007F40130C4374130A437542767047407A7047A1
S214007F50407F7047807F7047C07F704730B5417A5A
S214007F6000234C1CE21802F0030285186D7B012DDD
S214007F7002D1D1B2084630BD0133042BF2D1F9E765
S214007F802DE9F84F0123DFF88480DFF884B0DFF8AE
S214007F908490C37204460F46002598F8013005F118
S214007FA0010AEDB29D4208D3FF2F1FD17F236772CF
S214007FB06377A377E377BDE8F88FD8F804002D0140
S214007FC000212844D8470646D8F8040031462844FD
S214007FD0C847D8F804301D4436B2E8680A4BC6EBEA
S214007FE0C60600EB860098475546D6E707F0030717
S214007FF0E3195A7B012ADED167725A7C62775A7D72
S214008000A2775B7ED6E700BF8D850000E0320020B9
S214008010678500006589000010B5C822642100232A
S21400802041754276827481753224C2750175027775
S214008030FF21012242738273C273027441778177F3
S214008040C177417243748376C474C4760376C37270
S21400805003730548054B9847054B9847054B9847CB
S214008060054BBDE810401847EC320020817F000029
S214008070315D0000417D0000A97E0000006A704767
S214008080006A401A7047036A013303627047007A39
S2140080907047002303727047837963B9808840086D
S2140080A0FA380028B8BF4042C0F1FA00022390FB1D
S2140080B0F3F0C0B27047012B06D18088FA23B0FBDC
S2140080C0F3F040F30000F4E7022B05D18088642823
S2140080D08CBFFF2000207047704710B5C370BDF8F6
S2140080E00C30838001249DF8083004724170827041
S2140080F0837110BD4078704780787047C0787047AD
S214008100A0F130030246D8B209280CD9A2F16103C7
S214008110052B03D8A2F15700C0B2704711B10A7000
S21400812000207047084670472DE9F0410139DFF816
S2140081302480174606468C000025231D02D12846BB
S214008140BDE8F081394616F8010BC047A04005444B
S214008150043CF2E70181000030B585B0094B0546C6
S2140081600C4601A8084998470023DAB2944201D881
S21400817005B030BD1A1B01A90A44127AEA5401332D
S214008180F3E700BFFDED00005B0301002DE9F74FAC
S214008190304E3368013358D12F4C304B304FDFF818
S2140081A0CC904FF40055C4F888504FF48042C4F881
S2140081B0A8304FF04043C4F8A830C4F888204FF0E9
S2140081C04022C4F8A820C4F8A8304FF40043C4F8EE
S2140081D08430244BC4F8A830A3F18023C4F8A83018
S2140081E00120C4F89450B8474FF0000AD346A8467A
S2140081F00120C4F89880B84701A8C847D4F8802062
S214008200D4F8A030D4F890505D4015405D4001A8E9
S214008210154B98472B0441BF012303FA0AF343EAA0
S2140082200B0B5FFA8BFBBAF1070F07D04FF48045B4
S214008230C4F898500120B847C4F894500AF1010ACF
S214008240BAF1080FD4D1C6F800B0306803B0BDE864
S214008250F08F00BF44030020008000410020004053
S2140082604D8D000000800240038D0000F58C00005C
S21400827010B5024600230339141AA14201D8184645
S21400828010BD12F8014B6340F6E7000007B5CB1EA1
S2140082900DF1070202211844024B9847C0B203B002
S2140082A05DF804FB29810000CB1E18440221014B17
S2140082B0184700BF5981000010B4144608441A46F7
S2140082C02146024B5DF8044B184700BF2981000089
S2140082D010B5144608441A462146014B984710BD6F
S2140082E05981000000F12403A43053F8042B8A427D
S2140082F003D08342F9D1002070470120704790F8E0
S214008300A430013303F01F0380F8A43000EB830091
S2140083104162704738B50C01012303700546417071
S214008320084B204698471834686000F10803044458
S21400833000221033A34200D138BD03F8182C03F8EE
S214008340102CF6E7E9E9000070B50123002503705C
S21400835004468170C560124E1020B0472B4620613F
S2140083602A462169CA540133102BFAD1626079205B
S214008370B0470023A0601A46A168CA540133792B7F
S214008380FAD122754620B0470023A06100F14602CC
S214008390037083700371C37005308242F8D170BDDC
S2140083A0E9E900002DE9F04117464268364E0B0118
S2140083B0D41888460121D15420206770B047334630
S2140083C06060051F00F11C02002145F8041F95425D
S2140083D0FBD1C0F80080F7B906222272A820984781
S2140083E02A4DE0603946A847E06801211C30A847BE
S2140083F0E06808213830A847E06809215430A847CB
S214008400E0680A217030A847E0680B218C302B46C4
S214008410BDE8F0411847012F0BD1022626723820FE
S21400842098471A4DE0600021A847E06831461C30A6
S214008430EDE7022F0FD10322227254209847134DE6
S214008440E0600021A847E06805211C30A847E068E6
S21400845006213830DBE7032F13D104222272702066
S21400846098470A4DE0600021A847E06805211C30C7
S214008470A847E06806213830A847E0680221543053
S214008480C5E7BDE8F08100BFE9E9000049830000C8
S2140084902DE9F04790F808E092B00025FF244FF051
S2140084A01C0CEFB277451CD3FF2C17D000251746BF
S2140084B029464FF0010C4FF002089D421AD124B213
S2140084C0C4EBC404A4000026B542C36839D11C44DA
S2140084D000236560DAB2914239D8217512B0BDE842
S2140084E0F087C6680CFB05660135B6788E4208BF75
S2140084F03C46D6E717F801EBBEF1410F19D197F8C5
S2140085000090B9F1370F12DC01EB81060DF1480A35
S2140085105644A9F13009013106F848CC06F847EC74
S21400852006F8469C06F8445C06F8458CC9B2013548
S214008530C3E7BEF1420FFAD197F80090B9F1350FB4
S214008540E1E72344975D9B689F550136BCE703EB44
S2140085508302A5690DEB0200AE180768AF500279DA
S21400856032710133B6E7F0B5067A0023FF221C27E6
S214008570DDB2B54201D31046F0BDC46807FB034424
S2140085800133A4788C4208BF2A46F1E7C3780BB1C2
S21400859002234370704710B50B4642685C1AA2422D
S2140085A001D8D0B210BD8268125D03F8012BF4E743
S2140085B02DE9F04F8F4EDBB0002203901446B346F1
S2140085C01C277178D3B28B421DD38B4E00201C27FC
S2140085D07278C3B293422DD21B01002121E0DBF852
S2140085E004501D44ED6807FB01514978022900F04C
S2140085F065810130DBF8041019440D7AC1B28D4252
S214008600EDD80132DDE71B010020F3E77A4D6D68F7
S2140086101D44ED6807FB02525278022A00F0518191
S2140086200131754A52681A44157ACAB29542EDD895
S2140086300130CDE7714B0FCB0BAE86E80F0000275D
S21400864056F8275041F2180915F80930012B19D1B0
S21400865041F21702AB1805F6CC7A0493A95C684B76
S2140086605046984758B105F5805808F1030800228F
S214008670049B19788A4212D35046624B98470023CF
S21400868005F809300137042FDAD1039B1B680F2B3E
S2140086900ED9039A013B13605BB0BDE8F08F18F863
S2140086A0011B594B059250469847059A0132DFE761
S2140086B013B1039A013B1360002CEDD00FAD4FF4BD
S2140086C096720021514BDFF85C91DFF85C81504FC9
S2140086D0284698471723009301220F234D49284622
S2140086E0C8470DF1220400260222114600943346A4
S2140086F028468DF82260B84798F8A53000940222E4
S21400870004212846B84700947F23022206212846E3
S214008710B84700947F23022208212846B84798F8D5
S2140087200030009402220A212846B84700943346B7
S21400873002220C212846B8472846374B9847B246AF
S21400874084B2CDF818900797CDF814802A4B5B7842
S214008750F7B29F4229D300279BF80130FEB29E4213
S21400876064D236014FF000083AE0C82C11D82B4BE3
S21400877009A89847204B5A683A441C21D26801FB46
S21400878009F94A445278022A00F09E8009A8244B30
S214008790984708F10108184B5B683B445FFA88F974
S2140087A01A7A4A45E1D80136D0E73F014FF0000873
S2140087B0F1E7C82C12D8194B0AA89847DBF8042012
S2140087C032441C21D26801FB09F31A440493527800
S2140087D0022A00F096800AA8114B984708F1010873
S2140087E0DBF8043033445FFA88F91A7A4A45E0D851
S2140087F00137B1E7E0320020587D00202C0401004C
S2140088000D55000055550000395500000FEA0000D0
S214008810D18200000304010055EE0000F58C000034
S214008820038D0000FDED0000EC320020BAF1000FD1
S2140088303FF432AF039B039A1B68079F5B000A3323
S2140088401360059B059A93F8A5300133DBB282F8D6
S214008850A53002220DF12303114600930026631C67
S21400886028468DF82360B8472F1904223349069B03
S21400887038469847324B384698470444A4B22146B7
S214008880304B28469847214602462F4B28469847A5
S21400889021462E482E4B984700283FF4FDAE2B4F1E
S2140088A0DFF8BC80B3B29C4203D82A4B27489847CF
S2140088B0F2E6A95D3846C0470136F3E70134E4B274
S2140088C097E60134E4B2ABE6234B596839440FAB64
S2140088D0C8681A191146214B049248449847049ACE
S2140088E0174B104698471C4B5A683A440AF1010A3F
S2140088F0D3684B44044401225FFA8AFAA4B25A7041
S21400890044E7DBF80410049B314405EB0409C8680F
S21400891049461844114B9847094B48469847DBF898
S214008920042032440AF1010AD368049A134404442A
S21400893001225FFA8AFAA4B25A704CE724040100B6
S21400894055EE000071820000A9820000A8320020C7
S2140089500D55000055550000587D002097850000F5
S214008960395500002DE9F04FFF2985B006460CD09A
S214008970C1EBC1012B4F2C4C4FEA81090025F16851
S2140089804944EAB20B7D934203D8002005B0BDE807
S214008990F08F02EB82038A69D1F808801A44537874
S2140089A0412B0FD19178736804A84FF0000E53F84E
S2140089B021301179D27800F801ED00904046B84792
S2140089C00135DCE7422BFBD1937892F804A092F8AD
S2140089D003B05BB9154B2046984704AB002203F85A
S2140089E0012D514600935A460346E7E7012B02D174
S2140089F020460F4BF0E7022B02D120460D4BEBE74B
S214008A00032B02D120460C4BE6E7042B02D1A07ABA
S214008A10C0B2E2E7052B02D12046084BDCE7002077
S214008A20DBE700BFD1820000EC3200204D7F000063
S214008A30517F0000557F0000597F00005D7F0000D9
S214008A400020704713B5064CADF804000549002019
S214008A50A04705490120A047002002B010BD00BF76
S214008A6039D30000BD8A0000418A000013B50222F7
S214008A704FF496738DE80C00FF2300221946034836
S214008A80034CA047002002B010BD00BFEC3200200F
S214008A90DB80000013B502224FF496738DE80C00BD
S214008AA0FF22002311460348034CA047002002B0D3
S214008AB010BD00BFEC320020DB80000000207047B5
S214008AC00149024B03201847458A000039D30000AD
S214008AD010B5054C05490020A0472346044901204F
S214008AE0BDE81040184700BF5DDA0000958A000018
S214008AF06D8A0000836903B118477047C36903B1E4
S214008B00184770472DE9F14F036AD0F828805C5C5F
S214008B10DFF8549004EB4404E40008EB040505F188
S214008B20040A06460F465046D1B29346C84730461A
S214008B300C4B9847012806D94FEA1B215046C847D8
S214008B40AB8A0133AB82AB8A0133AB8258F8043070
S214008B502BB13946304601B0BDE8F04F184701B09A
S214008B60BDE8F08FED9D00000D9B000070B504463B
S214008B70FF260020C5B201305655C5B2AB42F9D229
S214008B8084F824309DF8103084F82530059BA362C5
S214008B9022622046044B984728B9044BA360044B36
S214008BA02360044B636070BD2D9D0000058B0000A4
S214008BB0F58A0000FD8A0000F8B50F46D0F820E0E0
S214008BC011461EF80720FF2A05461AD190F82420E1
S214008BD000200446C6B2964216D995F82520A24231
S214008BE01AD304EB4406A86AF60030441A4604304A
S214008BF00B4B984728B92B6ADC55AB6A1E44B082EB
S214008C00F8BD6FF00C00F8BD1EF80660FF2E1CBF06
S214008C100134E4B20130DDE76FF01B00F8BD00BFA1
S214008C20D39A000008B5024B9847002008BD00BF45
S214008C30E19D0000012A38B513D004D3022A12D0D1
S214008C406FF00C0038BD046A856A645C04EB44046B
S214008C5045F83430003318BF0123044CA0470020E9
S214008C6038BD8361F6E7C361F4E700BF199E0000D4
S214008C702DE9F34704461F46154BDFF864A00D4662
S214008C8090469847236A5D5DA36A05EB450503EBAE
S214008C90C50501A80F4B2E1D98470F4B3046984729
S214008CA00E4B814601A898470024A145A2B201D0E8
S214008CB0BC4206D1AB8AA0B29B1AAB8202B0BDE81A
S214008CC0F08708EB04013046D0470134EDE700BFDB
S214008CD0ED9D0000F58C0000339B0000038D000026
S214008CE0EB9A000008B5024B9847002008BD00BF6D
S214008CF0019E0000EFF31083036072B6BFF35F8F30
S214008D007047BFF35F8F036883F3108870470000D7
S214008D10004B184735A10000014B1860014B18475F
S214008D20C40600208DB50000054B10B51C68054B29
S214008D309847054B01462046BDE81040184700BF3F
S214008D40C4060020859E0000A1B50000054B10B5A6
S214008D501C68054B9847054B01462046BDE8104069
S214008D60184700BFC40600208D9E0000A1B5000075
S214008D70004B18473DA10000436903B118477047F0
S214008D80836903B11847704710B5044B04469847EB
S214008D9018B9034B2360034B636010BD95A2000017
S214008DA0798D0000818D00001FB5838AADF80430F0
S214008DB04FF40043ADF806300391054B029201A92B
S214008DC0283814469847002808BF204604B010BD2F
S214008DD025AF00001FB5838AADF8043048F20103C2
S214008DE0ADF806300391054B029201A928381446C7
S214008DF09847002808BF204604B010BD25AF0000E5
S214008E004288D20502D4436B03B1184770474288A4
S214008E10D20502D4836B03B1184770474288D20547
S214008E2002D4036B03B118477047000070B50C4BB3
S214008E3004469847054680B90A4BE3620A4BA3628C
S214008E400A4A0B4E01212046B0470A4A0221204614
S214008E50B047094A29462046B047284670BD00BF9D
S214008E60C1AE0000D58D0000A98D0000018E000067
S214008E70E5AF00000F8E00001D8E00000368184747
S214008E8043681847004B184729A5000010B5102363
S214008E90002484614161C261046203720121024BB5
S214008EA020389847204610BD05B3000038B5002589
S214008EB0A0F120041023C26181614561056203723E
S214008EC001212046044B984740F2FF112046034BF1
S214008ED09847284638BD00BF15B3000035B30000DC
S214008EE070B50C4B04460E460021051F984700211E
S214008EF0094B20469847094B0021204698470023F7
S214008F0084F82830236B23B131462846BDE87040EC
S214008F10184770BD05B3000015B3000025B3000068
S214008F20026CC36B9A4210B504460BD3064B002165
S214008F309847002384F82830E36A1BB1201FBDE859
S214008F401040184710BD00BF25B3000070B5866BF3
S214008F501A4B0446EEB10279056C012A05F10102AE
S214008F60026412D898477055216CE36B994217D269
S214008F70626B134B92B12079012894BF515C32F892
S214008F8011102046BDE870401847984726F815008F
S214008F90EAE79847236C01332364E5E7E188F0E7C6
S214008FA0084B002120469847002384F82830E36ABF
S214008FB01BB1201FBDE87040184770BD3DB30000D0
S214008FC035B3000015B3000070B50379416B0D4A48
S214008FD0012B036C03F101050446056494BFC95CCC
S214008FE031F813109047226CE36B9A4209D10021A6
S214008FF02046054B984720460121044BBDE87040AB
S214009000184770BD35B3000005B3000025B3000057
S21400901070B50446064644F8041F0E4B2046984793
S214009020002815DB0C4D0D4A00212046A8470C4AA7
S21400903001212046A8470B4A02212046A8470A4A93
S21400904003212046A847094BB362094B73620020F0
S21400905070BD00BF49B2000045B30000C98F0000D4
S2140090604D8F0000218F0000E18E0000AD8E0000C5
S2140090708D8E00000430014B184700BFD5B20000AB
S21400908090F82C30DB0602D40430024B18476FF001
S21400909003007047F1B2000090F82C30DB0602D4D3
S2140090A00430024B18476FF003007047E9B2000027
S2140090B070B50446C263A163036400234364051DC0
S2140090C0102380F82C300E46094B0121284698477D
S2140090D0084B56B1227A012A626C94BFB15C36F80E
S2140090E0121028469847002070BD6189F9E700BF36
S2140090F015B3000035B3000009B902637047426338
S214009100003218BF012203210430014B184700BF6C
S2140091104FB30000243008600020704710B4044CA1
S2140091201346A44600221C385DF8044B604700BF77
S21400913095B4000010B4044C1346A4460A461C38E6
S21400914000215DF8044B604795B4000010B5054B50
S214009150044640F8041F984718B9034B6362034B54
S214009160236210BD61B30000359100001D91000020
S2140091700430014B184700BF25B400000430014BF3
S214009180184700BF31B40000203008600020704748
S214009190F0B505681DB90F4BBDE8F0401847D1F88B
S2140091A008E02C460026C2F1010C6368A7689342CB
S2140091B095BFDB1963449B1ADB19734507D22368F6
S2140091C0264613B93046044BE6E71C46EDE7A542B3
S2140091D0F8D1E0E79F9A0000A79A00002DE9F04733
S2140091E00669037E44690136DA070546066110D42F
S2140091F0037E9B070DD4DFF84880DFF8489000F127
S214009200140724B16368A268F31A934207D2BDE834
S214009210F0872B7E43F002032B76BDE8F0873846B6
S214009220C047237C012B04D166603246214638466F
S214009230C847D5F814A0E368204698475446E0E7A8
S214009240C79A00009191000010B51368044640F8D4
S214009250042B98470020024B6061636010BD00BF7E
S214009260DD910000036870B5061D05469B69304613
S2140092709847044628B92B6830469B68984720468E
S21400928070BD6FF0100070BDF7B5037F00F11806D3
S21400929043F0010303770446154B30460F469847C4
S2140092A0054638B1237F03F0FE0323776FF01100E5
S2140092B003B0F0BD62690F4B7A6030463946984776
S2140092C0237F03F0FE032377207F10F00200EFD009
S2140092D001A8094B9847237F03F0FD0323772368F3
S2140092E0201DDB69984701A8044B98472846DFE70E
S2140092F0919A000091910000F58C0000038D00000B
S214009300034600229A62DB69083803B118477047A3
S214009310034600229A625B6A083803B11847704712
S21400932070B50446054BA0F108052C309847236A13
S2140093301BB12846BDE87040184770BD0D9B000065
S21400934010B5B0F84C301446B0F844209A420CD110
S2140093500023A0F8443001238164A0F84C40036346
S2140093600830034B9847204610BD6FF01B0010BD19
S2140093707FAE0000838FB0F844209A4210B50446B2
S2140093800AD0026C591C8187D15C044B9847044B69
S2140093902046BDE810401847024BFAE753AE0000DF
S2140093A07FAE000087AE00002DE9F74305460F4B61
S2140093B0DFF8449001A834358846164698470C4B8B
S2140093C0284698470B4B074601A898470024A74213
S2140093D001D0B44203D1A0B203B0BDE8F08308EBDD
S2140093E004012846C8470134F1E700BFF58C0000A9
S2140093F0339B0000038D0000EB9A000038B504464E
S2140094000D46343011461A460C4B984790B92946FB
S21400941004F108000A4B984770B90A4B63600A4B80
S21400942023600A4BA3600A4BE3600A4B23610A4B96
S214009430636138BD6FF00C0038BD00BFD39A0000E2
S214009440A9AD0000A99300004193000075930000A9
S21400945021930000019300001193000008B5083026
S214009460014B9847002008BD21AE000008B5083023
S214009470014B9847002008BD35AE0000086000206C
S21400948070470000012908B50FD004D3022912D076
S2140094906FF00C0008BD8262003218BF0122012165
S2140094A00830084B9847002008BD4262003218BFBB
S2140094B001220221F4E7C262003218BF0122032112
S2140094C0EEE700BF8FAE000008B50830014B9847A6
S2140094D0002008BD41AE00002DE9F8430F4C0F46B2
S2140094E0164600F10805A1462846A0470028FBD0EE
S2140094F0DFF830800024395D2846C0472846C84734
S2140095000028FBD00134B442F5D3054E2846B047B8
S2140095100028FBD02046BDE8F88300BF61AE0000FF
S2140095206BAE00004DAE00002DE9F843DFF8289042
S214009530DFF828800F461646002400F10805284666
S214009540C8470028FBD02846C04738550134B442E7
S214009550F5D32046BDE8F88375AE000059AE00008E
S21400956010B5054B04460830984718B9034B63609E
S214009570034B236010BD00BF9DAD00002995000081
S214009580D994000008B50830014B9847002008BD64
S2140095900DAE00000A4970B5002300F00F065D010D
S2140095A04C195AB26478844208D06D5C0DB9A64254
S2140095B004D001330D2BF2D14FF0FF32104670BDB0
S2140095C0C80600200020704770B5094B04460D46BB
S2140095D09847084B03EB40108378032B05D183692B
S2140095E029462046BDE870401847002070BD00BFE1
S2140095F095950000C80600202DE9F0433C4B3D4CF5
S21400960085B080460F469146984703464601002F90
S21400961049D1A519A15DEF7000293BD1AA786878D9
S214009620EE69032A4FF00C0E4FF020022BD112FBEE
S21400963003E22244012195F90C70B0476B7878B1AB
S2140096400522002FAA704FF00202B4BF184643F05E
S2140096508000EA700121284B984705B0BDE8F083EA
S214009660002FACBF43F0800303F00F0304228DF8F5
S2140096700C300123019002908DF80D30AA7001A8DD
S2140096801E4B9847E9E712FB03E22244B047022349
S214009690AB70E2E70123AB7034444A46E369E178F5
S2140096A040469847D9E7012F04EB06030BD1A15D8E
S2140096B00222DA7021B99A7040460F4B9847EBE7C2
S2140096C005229A70E8E7022F07D10422DA70A25D1D
S2140096D00AB99F70C1E70122F3E7032F09BF0022F2
S2140096E006229A70052218BF9A70DA70D4E700BF77
S2140096F095950000C806002031C5000069C6000028
S2140097002DE9F0471D4B1E4E1E4C05469847202758
S2140097100C2317FB003737448146394628461A4B38
S2140097209847C0B2082865F07F0809D0012128466E
S214009730A04701215FFA88F02346BDE8F0471847A6
S21400974006EB4916002128465FFA88F8A0474FF036
S214009750010900214046A04786F802907369394601
S2140097602846984738B905234946B3702846A04787
S21400977049464046E0E7BDE8F08700BF9595000003
S214009780C806002031C5000015C6000010B5114BF4
S214009790984700281CDB4FF4D07200210E4B0F4870
S2140097A098470E4B0E4A03F5D071FF2058705A6149
S2140097B09A61DA6120338B42F8D10A4C0A490020BC
S2140097C0A0470A490120A04702200949A0470020D7
S2140097D010BD00BF01C100000FEA0000C80600204F
S2140097E0C595000095C7000001970000C9950000C8
S2140097F0F9950000004B184771C70000004B18474A
S214009800E9C10000004B184745C20000004B18474E
S21400981063C20000004B184757C20000F8B5104C52
S21400982006460D461746A047002813DAFF20A04735
S214009830041E12DB3A46294630460A4B9847002853
S2140098400DDB094B60011A1805F003051D54567010
S2140098500020F8BD6FF01300F8BD6FF01400F8BDDF
S2140098609595000071C20000C8060020002102463F
S214009870014B0846184700BF1D98000038B5074B37
S21400988005469847041E07DB2846054B98470548BB
S21400989000EB4410FF23437038BD00BF95950000D1
S2140098A031C30000C806002038B50C4B0546984763
S2140098B0002810DB40010A4C235C0444002B0CBF3C
S2140098C002230123A3702846064B9847002804DA93
