:1000000040430220F1020000ED020000ED0200007A
:10001000ED020000ED020000ED0200000000000013
:10002000000000000000000000000000ED020000E1
:10003000ED02000000000000ED020000ED020000F3
:10004000ED020000ED020000ED020000ED020000F4
:10005000ED020000ED020000ED020000ED020000E4
:10006000ED020000ED020000ED020000DDA4000042
:10007000ED020000ED020000ED020000ED020000C4
:10008000ED020000ED020000ED020000ED020000B4
:10009000ED020000ED020000ED020000ED020000A4
:1000A000ED020000ED020000ED020000ED02000094
:1000B000ED020000E9A00000FDA00000DD9C0000B2
:1000C000E99C0000F59C0000019D00000D9D0000D2
:1000D000ED020000ED020000ED020000ED02000064
:1000E000ED020000ED020000000000000000000032
:1000F0000000000011A30000F9AF00000DB00000E7
:1001000021B0000035B0000049B000005DB0000033
:1001100071B0000085B00000ED020000ED020000AB
:10012000ED020000ED02000099B00000ADB000004B
:10013000C1B00000D5B00000E9B00000FDB0000083
:1001400011B1000025B1000039B100004DB100002F
:1001500061B1000075B1000089B100009DB10000DF
:10016000B1B10000C5B10000ED020000ED020000D9
:10017000ED020000ED0200000000000000000000A1
:1001800091D100009DD10000A9D10000B5D100009F
:1001900000000000ED020000ED020000ED02000092
:1001A000ED020000ED020000ED020000ED02000093
:1001B000ED020000ED020000ED020000ED02000083
:1001C000ED020000ED020000ED020000ED02000073
:1001D000ED020000ED020000ED020000ED02000063
:1001E000ED020000ED020000ED020000E9BD00009C
:1001F000FDBD000011BE000025BE0000ED020000A4
:10020000ED020000ED020000ED020000ED02000032
:10021000ED020000ED0200007199000085990000D8
:1002200099990000AD990000ED020000ED02000078
:10023000ED020000ED020000ED020000ED02000002
:10024000ED020000ED020000ED020000ED020000F2
:10025000ED020000ED020000ED020000ED020000E2
:10026000ED02000010B5054C237833B9044B13B1EF
:100270000448AFF300800123237010BDB0050020B7
:1002800000000000941901000C4B43B10C480D49CB
:1002900010B5AFF300800C48036823B910BD0A48BD
:1002A000036833B97047094B002BF7D0BDE8104005
:1002B0001847064B002BF5D0184700BF0000000080
:1002C00094190100B40500209419010000000000F9
:1002D00008B5034B9847034B9847034B984708BD15
:1002E000250E000085EE0000D1D90000FEE70000D9
:1002F00008B51C4B1C4A9A4210D01C4B194A9A4212
:100300000CD2013B9B1A23F0030304331344164918
:1003100051F8040B42F8040B9A42F9D1144B154AD8
:100320009A420AD2013B9B1A23F00303043313447D
:10033000002142F8041B9342FBD10F4B0F4A22F0DD
:100340007F029A60D3F8882042F47002C3F88820B4
:10035000BFF34F8FBFF36F8F094B9847094B9847F7
:10036000FEE700BF0000002094190100AC0500204A
:1003700040430120B005002000ED00E00000000037
:1003800065F60000C5D30000F0B585B01B4A136ABE
:1003900043F0800313624122194BC3F82021194E08
:1003A000194D00240294194B019301230093234615
:1003B000324617492846174FB8471023321D2146A9
:1003C0002846154CA047154B80225A6002F1804206
:1003D0009A624FF040429A6293F8472002F0FE0280
:1003E00042F0010283F8472093F8332002F00F0215
:1003F00042F0100283F8332005B0F0BD0008004041
:10040000001C0040CC050020541100205012002098
:10041000001C00435D7A0000017B00000080004169
:10042000F0B585B01E4A136A43F48073136241220B
:100430001C4BC3F824211C4E1C4D002402941C4B61
:10044000019301230093234606F11402194928461B
:10045000194FB847102306F1180221462846174CB9
:10046000A047174B0422C3F8042102F18042C3F8CD
:1004700028214FF04042C3F8282193F8422102F08E
:10048000FE0242F0010283F8422193F8312102F08A
:10049000F00242F0010283F8312105B0F0BD00BF47
:1004A00000080040001C0040CC050020281300205C
:1004B000F0100020002000435D7A0000017B000066
:1004C0000080004108B5054A936943F00203936137
:1004D00003490448044B984708BD00BF000800408A
:1004E00000200041EC1000209D7D000008B5094B64
:1004F0004022C3F8AC20C3F8B020C3F8B420C3F83E
:10050000B820054A936943F080039361034B9847F1
:1005100008BD00BF001C004000080040217E000014
:10052000024A136943F0400313617047000800401A
:1005300008B5034B984703490348044B984708BD47
:100540002105000000400041D0100020797E00000D
:1005500030B45A4B4FF40065C3F88450584AC3F87E
:10056000A8205848C3F8A80093F8CB2002F0FB025B
:1005700083F8CB2093F8CB2002F0FE0242F0010278
:1005800083F8CB2093F8B52002F00F0242F07002FE
:1005900083F8B5204FF480729A604B4999624FF00E
:1005A00040449C625A6193F8482002F0FB0283F8B1
:1005B000482093F8482002F0FE0242F0010283F83E
:1005C000482093F8342002F0F00242F0070283F84A
:1005D00034204FF400729A6001F5807199629C6238
:1005E0005A6193F8492002F0FB0283F8492093F8FE
:1005F000492002F0FE0242F0010283F8492093F8FC
:10060000342002F00F0242F0700283F834204FF4DD
:10061000806199602D4A9A629C62596193F84A20E0
:1006200002F0FB0283F84A2093F84A2002F0FE020F
:1006300042F0010283F84A2093F8352002F0F002DC
:1006400042F0070283F835209D60214A9A629C623D
:100650005D6193F84B2002F0FB0283F84B2093F886
:100660004B2002F0FE0242F0010283F84B2093F887
:10067000352002F00F0242F0700283F83520C3F8F3
:100680008410144AC3F8A820C3F8A80093F8CA201D
:1006900002F0FB0283F8CA2093F8CA2002F0FE029F
:1006A00042F0010283F8CA2093F8B52002F0F0026C
:1006B00042F0070283F8B52030BC7047008000414B
:1006C00000080240000002C0000100400004004099
:1006D0000008004000040240064B1A6942F4005230
:1006E0001A611A6942F400121A61DA6942F400527E
:1006F000DA6170470008004008B5044B9847044988
:100700000448054B9847054B984708BDD90600009B
:1007100000340042941300202D8200005105000097
:10072000064B4122C3F89C204222C3F88C20044A85
:10073000536943F480535361704700BF001C00406D
:1007400000080040104B93F8512102F0FE0242F0E5
:10075000010283F8512193F8382102F00F0242F090
:10076000300283F8382193F8502102F0FE0242F063
:10077000010283F8502193F8382102F0F00242F090
:10078000030283F8382170470080004110B582B021
:10079000064B9847002300931023054A0549064855
:1007A000064CA047064B984702B010BD2107000039
:1007B000F405002000300040801100200D8B000067
:1007C00045070000064B4122C3F8A0204222C3F88F
:1007D0008C20044A536943F400535361704700BFAF
:1007E000001C004000080040104B93F85B2102F011
:1007F000FE0242F0010283F85B2193F83D2102F0F2
:100800000F0242F0200283F83D2193F85C2102F0B0
:10081000FE0242F0010283F85C2193F83E2102F0CF
:10082000F00242F0020283F83E217047008000414E
:1008300010B582B0064B9847002300931023054A59
:1008400005490648064CA047064B984702B010BD24
:10085000C50700000406002000340040D411002029
:100860000D8B0000E9070000104B93F8D92002F02F
:10087000FE0242F0010283F8D92093F8BC2002F076
:100880000F0242F0300283F8BC2093F8D82002F027
:10089000FE0242F0010283F8D82093F8BC2002F057
:1008A000F00242F0030283F8BC2070470080004150
:1008B000064B4122C3F8DC204222C3F88C20044AB4
:1008C000936943F400739361704700BF001C0040BC
:1008D0000008004008B5054B984700220449054828
:1008E000054B9847054B984708BD00BFB10800006D
:1008F0000020014148110020958D0000690800008A
:100900002B4B4FF48011C3F89410C3F888104FF0AC
:100910008040C3F8A800274AC3F8A82093F8D42041
:1009200002F0FE0242F0010283F8D42093F8BA20CC
:1009300002F0F00242F0020283F8BA204FF40012F3
:10094000C3F89420C3F88820C3F8A8001A4AC3F853
:10095000A82093F8D52002F0FE0242F0010283F8AD
:10096000D52093F8BA2002F00F0242F0200283F85B
:10097000BA205960114A9A6202F1004210329A621A
:1009800093F8542002F0FB0283F8542093F854208B
:1009900002F0FE0242F0010283F8542093F83A205C
:1009A00002F0F00242F0030283F83A20704700BFE1
:1009B00000800041100000C0200000C00000024084
:1009C000064B4122C3F8E0204322C3F88C20044A9E
:1009D000936943F480639361704700BF001C00403B
:1009E0000008004008B5044B984704490448054BEB
:1009F0009847054B984708BDC109000000400141D8
:100A0000481000201D84000001090000064B41220F
:100A1000C3F808214222C3F88C20044A136A43F029
:100A200001031362704700BF001C00400008004033
:100A3000104B93F8C82002F0FE0242F0010283F846
:100A4000C82093F8B42002F0F00242F0030283F8C9
:100A5000B42093F8C92002F0FE0242F0010283F8AC
:100A6000C92093F8B42002F00F0242F0300283F85C
:100A7000B42070470080004110B582B0074B984702
:100A8000002300931023064A4FF086410548064C88
:100A9000A047064B984702B010BD00BF0D0A0000EA
:100AA00014060020881200200D8B0000310A00007F
:100AB000164B93F8572002F0FB0283F8572093F867
:100AC000572002F0FE0242F0010283F8572093F80B
:100AD0003B2002F00F0242F0300283F83B2093F8F3
:100AE000562002F0FB0283F8562093F8562002F0BD
:100AF000FE0242F0010283F8562093F83B2002F0F8
:100B0000F00242F0030283F83B207047008000416E
:100B1000064B4122C3F80C214222C3F88C20044A20
:100B2000136A43F002031362704700BF001C0040C9
:100B30000008004008B5044B984704490448054B99
:100B40009847054B984708BD110B0000000400436F
:100B50000811002061810000B10A0000064B41220B
:100B6000C3F810214222C3F88C20044A136A43F0D0
:100B700004031362704700BF001C004000080040DF
:100B8000104B93F84D2102F0FE0242F0010283F86F
:100B90004D2193F8362102F00F0242F0300283F823
:100BA000362193F84C2102F0FE0242F0010283F854
:100BB0004C2193F8362102F0F00242F0030283F850
:100BC000362170470080004110B582B0064B98472F
:100BD000002300931023054A05490648064CA04708
:100BE000064B984702B010BD5D0B000024060020A4
:100BF00000080043D81200200D8B0000810B00007C
:100C0000294B4FF08042C3F89420C3F88820C3F8E2
:100C1000A8202649C3F8A81093F8DE1001F0FE01C1
:100C200041F0010183F8DE1093F8BF1001F0F001EC
:100C300041F0020183F8BF104FF00041C3F8941057
:100C4000C3F88810C3F8A8201949C3F8A81093F86E
:100C5000DF1001F0FE0141F0010183F8DF1093F88D
:100C6000BF1001F00F0141F0200183F8BF105A605E
:100C700002F500329A620F4A9A6293F85E2002F0FF
:100C8000FB0283F85E2093F85E2002F0FE0242F041
:100C9000010283F85E2093F83F2002F0F00242F058
:100CA000020283F83F20704700800041004000C0EE
:100CB000008000C0004002C0064B4122C3F814214E
:100CC0004222C3F88C20044A136A43F008031362DB
:100CD000704700BF001C00400008004008B5044BEE
:100CE000984704490448054B9847054B984708BD69
:100CF000B90C0000000C0043241200208186000083
:100D0000010C000008B50248024B984708BD00BF1F
:100D100010E000E0CD7D00001E4B4FF080729A6025
:100D20004FF0804199621C4898625A6193F85820AC
:100D300002F0FB0283F8582093F8582002F0FE02DC
:100D400042F0010283F8582093F83C2002F0F002B0
:100D500042F0070283F83C204FF000729A609962DB
:100D60000E4999625A6193F8592002F0FB0283F808
:100D7000592093F8592002F0FE0242F0010283F854
:100D8000592093F83C2002F00F0242F0700283F8E1
:100D90003C20704700800041000100C0000200C0FC
:100DA0004122074BC3F8A820A3F5A0531A6942F4C7
:100DB00080621A619A6942F001029A61704700BF2D
:100DC000001C004008B5034B9847034B9847034B62
:100DD000984708BDA10D00005D900000190D0000AE
:100DE000024A536943F4807353617047000800401E
:100DF00008B5064B9847482205490120054B9847FE
:100E00000548064B0360064B984708BDE10D0000FE
:100E1000980B01002D940000D0110020002000400C
:100E2000C1D100002DE9F041A34B9847A34B2022EC
:100E30005A619A6002F180429A624FF040429A628F
:100E400093F8451001F0FE0183F845104FF40010AF
:100E500058609B4E9E629B49996293F8551001F031
:100E6000FB0183F8551093F8551001F0FE0183F84B
:100E700055108021C3F8841001F1804101F5003143
:100E8000C3F8A810904DC3F8A85093F8C71001F00C
:100E9000FB0183F8C71093F8C71001F0FE0183F837
:100EA000C7104FF40051C3F89410C3F8881001F133
:100EB0008041C3F8A810C3F8A82093F8CD1001F022
:100EC000FE0183F8CD104FF48041C3F89410C3F8AD
:100ED00088104FF04027C3F8A870C3F8A82093F8F3
:100EE000CE4004F0FE0483F8CE404FF40044C3F833
:100EF0008440764CC3F8A840C3F8A85093F8CF407C
:100F000004F0FB0483F8CF4093F8CF4004F0FE04D4
:100F100083F8CF404FF40064C3F80441DFF83CE2AB
:100F2000C3F828E1C3F82851C3F8044193F84B51A2
:100F300045F0040583F84B51C3F8184193F84B4131
:100F400004F0FE0483F84B41C3F81411C3F80811F0
:100F5000C3F82871C3F8282193F84E2102F0FE024D
:100F600083F84E214FF48022C3F80421C3F828618E
:100F7000574AC3F8282193F8522102F0FB0283F864
:100F8000522193F8522102F0FE0283F852214FF4CD
:100F90000022C3F81421C3F808214FF08042C3F89F
:100FA00028214C49C3F8281193F8531101F0FE0190
:100FB00083F853114FF48011C3F81411C3F80811CA
:100FC000C3F828214449C3F8281193F8541101F0BB
:100FD000FE0183F85411C3F81401C3F80801C3F8E3
:100FE00028213E4AC3F8282193F8552102F0FE0239
:100FF00083F855213A4B98473A4B98473A4B9847D4
:101000003A4B98473A4B98473A4B98473A4C636962
:1010100043F400736361394B9847024638493948B5
:10102000394DA847394B9847394B9847394B984722
:10103000394B9847394B9847394B9847394B984724
:10104000394B9847394B9847636943F48043636150
:10105000A7F510574FF04008C7F8A480344EB047AA
:10106000024634493448A847636943F40043636146
:10107000C7F8A480B047024630493148A847A36961
:1010800043F40053A361C7F8E880B04702462D49F6
:101090002D48A847A36943F48043A361C7F8E880BB
:1010A000B047024629492A48A8472A4B98472A4B65
:1010B0009847BDE8F08100BFF19900000080004131
:1010C00000000240200002C0000002C00080024078
:1010D000040002C0080000C0100000C0200000C0D2
:1010E0008903000021040000C5040000ED04000095
:1010F00031050000F906000000080040D5A40000FA
:101100000024004090100020298800008D07000076
:1011100031080000D5080000E5090000790A000048
:10112000350B0000C90B0000DD0C0000050D0000B0
:10113000E1BD00000038004074130020003C004076
:101140006812002000A00141B010002000C0014141
:1011500054130020C50D0000F10D000000080240EE
:1011600038B5084B984701460748084CA047084D3A
:1011700008492846A04708492846A0470749284665
:10118000A04738BDED5C0000B40B01003DF8000045
:10119000EC0B0100D80B0100140C0100240C010021
:1011A00010B584B004AB002203F8012D00930B4668
:1011B00002221146014CA04704B010BD415E000060
:1011C00010B584B004AB002203F8012D00930B4648
:1011D00002220421014CA04704B010BD415E000072
:1011E00010B584B004AB002203F8012D00930B4628
:1011F00002220621014CA04704B010BD415E000050
:1012000010B582B002AB002203F8012D02220621A4
:10121000024CA047C0B202B010BD00BF2D5E00005E
:1012200010B584B004AB002203F8012D00930B46E7
:1012300002220821014CA04704B010BD415E00000D
:1012400010B582B002AB002203F8012D0222082162
:10125000024CA047C0B202B010BD00BF2D5E00001E
:1012600010B584B004AB002203F8012D00930B46A7
:1012700002220C21014CA04704B010BD415E0000C9
:1012800010B584B004AB002203F8012D00930B4687
:1012900002220A21014CA04704B010BD415E0000AB
:1012A000D0F89031D0F894211344D0F89801184424
:1012B0007047D0F89401704730B4154662B14B1EA8
:1012C000D0F89421133202446C1E214413F8014FCC
:1012D00002F8014F8B42F9D1D0F894312B44C0F879
:1012E000943130BC7047F0B51746FAB10C468A18F5
:1012F0004FF0830E822606E0D0F8945103442B442D
:101300001E75914212D00B1B11F801CBBCF1020FDC
:10131000F2D0BCF1030FD0F89451034407BFED188D
:1013200085F814E05B1983F814C0EAE7D0F894312B
:101330001F44C0F89471F0BD10B514318C18002210
:1013400019462044014B984710BD00BF495C00007E
:1013500010B514318C18029A19462044014B984755
:1013600010BD00BF895C00000023C0F89031C0F8B8
:101370009431C0F89831431E00F11301002203F8A4
:10138000012F8B42FBD100F1130300F5C571002240
:1013900003F8012F8B42FBD1002380F88B3180F8BA
:1013A0008C3180F88D3180F88E3180F88F31704724
:1013B0002DE9F04182B004460F46164698461723A1
:1013C00000930F2301220E490E4DA84720460E4BD5
:1013D0009847C4F89001394620460C4B984731464F
:1013E00020460B4B9847414620460A4B98479DF8AC
:1013F00020102046084B984702B0BDE8F08100BF9E
:10140000BC0C010029FB000071FB0000E111000091
:10141000211200006112000081120000D0F8943106
:1014200073B9172906D0D0F89031C1540133C0F8F0
:1014300090317047172303750123C0F8943170472A
:10144000D0F8982172B9042905D0C218117501335A
:10145000C0F894317047042380F88B310123C0F821
:1014600098317047831883F88B110132C0F89821A6
:101470007047D0F890318B420DD830B4D0F89441F9
:101480001A19914209D3D0F898512A44914208D3AD
:10149000FF2030BC7047405C7047C91A0144087D8A
:1014A000F7E7C91A091B014491F88B01F1E7000025
:1014B00038B50446D0F8983103F28B1304222E4934
:1014C00018442E4B9847D4F8985105F28B102044BD
:1014D0002B4B98472918C4F89811D4F89031D4F8B8
:1014E000942113441944C9B22046264B9847264DEF
:1014F00095F8AD102046254B984795F8AD3001334F
:10150000DBB285F8AD30D4F8902192B3631E013A76
:10151000A018002213F8011F4A408342FAD1D4F8E0
:10152000941141B104F113031331601813F8011F32
:101530004A408342FAD1D4F898514DB104F28B134A
:1015400005F28B10204413F8011B4A409842FAD14F
:1015500005F28B100E492044084B9847D4F8985157
:1015600005F28B102044064B98472844C4F8980194
:1015700038BD0022D3E700BFCC0C010029FB0000DE
:1015800071FB0000A111000060720020C111000079
:10159000D00C01002DE9F8438146104B98470546D1
:1015A00081B20F480F4B9847A0B16DB100240E4E89
:1015B000DFF82C800D4F21464846B0470146404693
:1015C000B8470134A542F6D10548094B9847012098
:1015D000BDE8F8830020BDE8F88300BFA112000039
:1015E0003C6E0020D11B0000731400000D1C000095
:1015F0002D1C00000023C0F82434012380F8283477
:10160000704790F82804704790F82834012B00D0D8
:10161000704770B5ECB00E460446D0F8241403F1C0
:10162000CC33A3FB0123C3F3C11372789A421BD9B5
:10163000314DA5FB0125C5F3C305726802EB031309
:101640005A7AAA4210D92C4AA2FB0102D20802EB14
:101650008202A1EB4202DB68642101FB053595F8AB
:101660005C10D3B299420AD8D4F8243440F27E22D6
:1016700093420FD80133C4F824346CB070BD1A46BD
:101680002B6E4FF4867101FB0232214630461B4B14
:101690009847E9E70025C4F8245484F8285405A89D
:1016A000174B984700952B467F22114605A8154CED
:1016B000A04702950395ADF81050032300937123C2
:1016C0000222114902A8114CA04702A8104B9847CA
:1016D000024602A905A80F4B98470A23009301234D
:1016E0000422294605A80C4CA04705A80B4B984797
:1016F00005A80B4B9847C0E7CDCCCCCCE9640000E3
:1017000069130000B1130000D80C010029FB000090
:1017100071FB0000B912000051130000B114000069
:10172000951500000023C0F82C34012380F83034D4
:10173000704790F83004704790F83034012B00D097
:10174000704770B5ECB00E460446D0F82C1403F187
:10175000CC33A3FB0123C3F3C11372789A421BD984
:10176000314DA5FB0125C5F3C305726802EB0313D8
:101770005A7AAA4210D92C4AA2FB0102D20802EBE3
:101780008202A1EB4202DB68642101FB053595F87A
:101790005C10D3B299420AD8D4F82C3440F27E229D
:1017A00093420FD80133C4F82C346CB070BD1A4684
:1017B0002B6E4FF4867101FB0232214630461B4BE3
:1017C0009847E9E70025C4F82C5484F8305405A85C
:1017D000174B984700952B467F22114605A8154CBC
:1017E000A04702950395ADF8105003230093722390
:1017F0000222114902A8114CA04702A8104B984799
:10180000024602A905A80F4B98470A23009301231B
:101810000422294605A80C4CA04705A80B4B984765
:1018200005A80B4B9847C0E7CDCCCCCC8165000018
:1018300069130000B1130000D80C010029FB00005F
:1018400071FB0000B912000051130000B114000038
:101850009515000000F1080300F50271FF2203F85E
:10186000012F8B42FBD1022380F810320023C0F8F5
:101870000C32704700F2172300F21741FF2203F8E1
:10188000012F8B42FBD1022380F81C340023C0F8C7
:1018900018344FF0FF33C0F82034704710B50446B9
:1018A0004FF4FE234360016001230372002380F89C
:1018B000103280F81C34C0F8243480F82834C0F882
:1018C0002C3480F83034C0F8343480F83834034B8A
:1018D00098472046024B984710BD00BF551800009E
:1018E000751800004A6853681B7A03EB8300137A6B
:1018F00003EB83035B0003EB4013087A1844704743
:1019000038B504460D46017142718371002343814D
:101910004800094B984720604DB1002319462268C2
:1019200022F813100133DBB222799A42F7D8002053
:10193000A081208138BD00BFADF600002DE9F04741
:10194000054689461746984600010C4B98470C4BB4
:10195000186085B1013DEDB201352D0100249A4694
:10196000084E43463A464946DAF800002044B0475C
:101970001034AC42F5D10020BDE8F087ADF6000090
:1019800000430020011900002DE9F04F00013C4BFD
:10199000D3F800A00AEB000C9CF80460002E5BD08A
:1019A0005AF80050023D00229046914696464FF666
:1019B000FF7714465FFA82FB35F8023F1C447345FB
:1019C00084BFD8469E46BB423CBFD9461F46013223
:1019D000D3B2B342EED3B4FBF6F6B6B28E423FD2E8
:1019E0005AF800300C4433F81920A41A23F81910BF
:1019F0009CF80430B4FBF3F49CF806309CF80550D6
:101A0000A6B2C3F11000C0B2EB1AD9B246FA00F385
:101A10009BB28B409FB2BCF80A20921B002AB8BF31
:101A20005242012606FA00F0BCF80860BE4220D0FF
:101A3000824208DC012202FA05F502FA01F1691A74
:101A40008F4200D0C7B9ACF80A40ACF8087001204A
:101A5000ACF80C00BDE8F08FB046B1460024BAE700
:101A60005AF800300C4433F81820A41A23F8181040
:101A7000BEE70020BDE8F08F0020BDE8F08F00BF7A
:101A800000430020024B1B6803EB0010007B7047F3
:101A900000430020094B1B6803EB001000238381E7
:101AA000CB1FDBB2072B06D803894079401A43FAD3
:101AB00000F080B270470020FBE700BF0043002029
:101AC000F8B5044640681F4B984700256562A5623B
:101AD00042F64B73E554FF2242F63273E25442F66B
:101AE0003177E255022104F53C503B30164EB047A9
:101AF000E25D022104F53C503930B04704F53C5614
:101B0000333642F64773E75C394630460F4B984709
:101B10000246394630460E4B9847E56120460D4B4C
:101B20009847626A41F28833013B9BB2002BFBD19C
:101B3000A318002141F2B43299546068064B9847CB
:101B4000F8BD00BFC98B0000895C0000DD5D0000AE
:101B5000195E00004D5700009D8B000000230F4AC6
:101B600013700180A0F8F033A0F8EA33A0F8EC334A
:101B7000A0F8EE33A0F8F233A0F8F433A0F8F6336F
:101B800049B1431C4A1E92B202320244002103F8BA
:101B9000011F9342FBD10120704700BFF442002097
:101BA000B0F8EA33B0F8F22393428FBF981A008856
:101BB000C018801A80B27047B0F8EA33B0F8F22348
:101BC00093428FBF981A0088C018801A80B270475D
:101BD00038B505460C460B4B9847A04206D80A4A32
:101BE00013780133DBB21370002038BDB5F8F2333F
:101BF0002344298893FBF1F201FB1233A5F8F43357
:101C0000204638BDB91B0000F4420020B0F8F6337E
:101C1000C218917001339BB20188B3FBF1F201FB52
:101C20001233A0F8F633012070470000B0F8F63305
:101C3000B0F8F4239A4206D0054A13780133DBB298
:101C4000137000207047A0F8F2330120704700BFE6
:101C5000F44200202DE9F04F8DB002AF0546164644
:101C6000BA61D31D23F00703ADEB030D02ABFB619B
:101C7000002A00F074829846AA6A591E731E9BB20D
:101C80001C463B6108EB040A531C7B61A3EB08096B
:101C9000DFF860C341F2883E41F2B4300024FA60BC
:101CA00009EB010BACFB0B231B0B0EFB13B32B44FB
:101CB00013F800B001F801BF1C545145F0D1FA6887
:101CC000D7F81CB07B6939690B449C46DFF824E3E4
:101CD00041F2883441F2B4300021AEFB02931B0B79
:101CE00004FB13232B44195401329445F5D1AA6AFD
:101CF000BB6913441A46BF4BA3FB02131B0B41F2F3
:101D0000883101FB1323AB626B6200232B62012E2F
:101D100040F235820124DFF81CA3DFF81C9304E0B5
:101D20000134A4B2A64240F22A8218F80430012BF2
:101D3000F6D1361BB6B208EB040BAF495046C84784
:101D4000EEE7FE610BEB060313F8013C0A2B40F0B3
:101D50001B8231465846A94B98470446314658469F
:101D6000A74B9847844203D0A648A74B98470BE25D
:101D70009BF801300F2B4CD00E2B40F0EC819BF8E0
:101D80000230072B40F00082002202210BF10800F4
:101D90009E4CA0475FFA80F8002202210BF106005A
:101DA000A0478146C6B242F64B73EB5C002B40F075
:101DB0007C8142F63173EB5CFF2B00F0FB8042F636
:101DC0003273EB5CB34219D042F63273EE545FFAD1
:101DD00089F2022105F53C503B308D4B984705F5C3
:101DE0003C54333442F64773EE5C31462046844B14
:101DF0009847024631462046864B984742F6317353
:101E0000EB5C434500F01E81012242F64873EA5420
:101E1000BAE107F128031A46002302F8013D1346F0
:101E20001446022204215846DFF810A2D047B861B8
:101E3000234602220A215846D047786123460222CF
:101E400006215846D047C3B23B617F3BDBB2FB6003
:101E50004FFA83F97C602346022208215846D04776
:101E60005FFA80F8A8F17F03DAB2BA6054B27B68F7
:101E700002220C215846D04742F63073EB5C1844DE
:101E800000F003027A6033B1012B79D1C8F17F08E9
:101E90004C464FFA88F942F6497315F8038008F169
:101EA0007F08C8445FFA88F842F64A7315F803A021
:101EB0000AF17F0A54445FFA84FAFB68812B75D0DB
:101EC00007F12709CDF800903B7E022204215846F5
:101ED000514CA047CDF800904346022206215846B7
:101EE000A047CDF800905346022208215846A0474B
:101EF000CDF800903B7D02220A215846A047CDF83C
:101F000000907B6802220C215846A0473C7E08EBDB
:101F100004240AEB042A3C7D04EB0A2421463F48B2
:101F20003F4B9847002840F02F81D7F81C8041464E
:101F30005846334B9847024641465846354B9847DA
:101F400005F52C55343531462846364B9847002840
:101F500000F01A8166B10BF1FF38013E1BFA86F6DC
:101F6000DFF8DC9018F8011F2846C8474645F9D12C
:101F700028462D4B9847214628482C4B984703E18B
:101F8000022B08D13B69C3F17F034FFA83F9C8F1F3
:101F90007F0464B27FE7032B02D00024A1467AE7D6
:101FA0003B69C3F17F03A1465CB274E7BB68812B38
:101FB00086D1ABE719481E4B984700F07F0242F6E6
:101FC0003173EA54022105F53C503930104B9847E3
:101FD00005F53C54333442F6477315F803A05146D7
:101FE0002046074B9847024651462046094B9847E2
:101FF000E5E600BF5917B7D1E40C0100F95D000018
:10200000DD5D0000380D010025F90000495C00008D
:10201000895C0000195E0000415E000060720020D3
:10202000555E0000D11B00002D1C00007F5E0000EB
:10203000855B0000EC0B01003DF800002D5E000008
:102040000D1C00009BF803306A7A9B1A06335A4233
:1020500003F0030302F0030258BF534242F630720A
:10206000AB54FB69A3F10A00002202215844484BFB
:10207000984742F62C73E850012242F64B73EA541B
:10208000444C2046444B9847C0B260714349444891
:10209000444B98474FF4FA730193002100910B468B
:1020A000FF222046404CA047AEE69BF803306A7AF8
:1020B0009B1A06335A4203F0030302F0030258BF8F
:1020C000534242F63072AA5C42F631716C5C42F6C1
:1020D0003271695C444508BFB1420CBF0124002441
:1020E000934214BF002404F0010442F62C73EE580E
:1020F000FB69A3F10A00002202215844244B9847AF
:10210000B04201D1002C3FD1002242F64B73EA5479
:10211000FF2242F63273EA5442F63176AA55022182
:1021200005F53C503B30214CA047AA5D022105F546
:102130003C503930A04705F53C54333442F64773E0
:10214000ED5C294620461A4B984702462946204610
:10215000184B984718E01848184B984714E0D7F8E0
:102160001CB0826A3244164BA3FB02131B0B41F2D4
:10217000883101FB132383624362002303629BF8CF
:102180000030012B3FF4DDAD2C37BD46BDE8F08FAC
:10219000495C000060720020855B0000F80C0100C3
:1021A000EC0B01003DF80000F55B0000895C0000CD
:1021B000DD5D0000195E0000000D010025F9000042
:1021C0005917B7D12DE9F04383B00446037E012BA4
:1021D0001CD0236A002B40F09F806368002B39D00D
:1021E000E369B3F57A7F33D942F64B73E35C012B95
:1021F0001BD0A36A13B9636A002B2BD050495148F6
:10220000514B98472046514B984723E000250576CF
:102210004E4B98474FF4FA7301930095FF231A46EB
:1022200019464B484B4DA847D3E74B494548464BC9
:1022300098472046454B98474FF4FA730193002383
:102240000093FF231A4619464148424DA84701E032
:102250000133E361636AE11841F2B4328A5C0A2A0D
:1022600013D0002A68D0A26A511E8B421FD04FF4AF
:10227000F57141F287300026DFF8E8E041F2883757
:1022800041F2B43541F2863C34E00123236200235D
:10229000E36151E05AB10244AEFB02831B0B07FB22
:1022A00013222244535D13B9E661666214E02B49A0
:1022B0002448254B98472046244B9847C823019330
:1022C0000223009300231A46FF212148214CA047F6
:1022D00032E0E66101336362013989B2D1B1636AE8
:1022E000E218525D0A2AD0D032B3A26A02F1FF3856
:1022F0004345DCD08342CDD00244AEFB02984FEA86
:10230000183807FB18222244525D002ACFD16345BA
:10231000DFD9C9E7236A7BB1A16A636A994232BFF8
:10232000013303F59C5309335A1A92B289B22046FD
:102330000B4B98470023236203B0BDE8F08300BF36
:10234000900D0100EC0B01003DF80000C11A0000E7
:1023500060720020F55B00006C0D0100AC0D010007
:10236000551C00005917B7D1B0F8EE33B0F8EC2384
:102370009A4200D0FEE7B0F8EA239A4200D0FEE786
:10238000F0B4B0F8F253AB4228D0048814B3264618
:1023900093FBF4F204FB123291B28D4220D010FA7A
:1023A00082F292780A2A16D10023013398B2F0BC47
:1023B000704792FBF6F106FB11218FB2BD4211D09E
:1023C000013210FA81F189780A29EED001339BB2EB
:1023D000A342EED1FEE75A1C0023F7E70020E6E710
:1023E0000020E4E70020E2E7B0F8EE23B0F8EC3399
:1023F000934200D0FEE7B0F8EA33934200D0FEE704
:10240000F0B4B0F8F253AA4232D0048864B326463E
:1024100092FBF4F304FB132399B28D422AD00B46AE
:10242000411889780A2920D10021013393FBF4F265
:1024300004FB1233A0F8EC334B1C9BB2A0F8F03332
:102440001846F0BC704792FBF6F306FB13239FB2CD
:10245000BD4211D03B460132C719BF780A2FE4D0E4
:10246000013189B2A142EED1FEE701320021F7E746
:102470000023E5E70023E3E70023E1E7B0F8EE33CC
:10248000B0F8EC1399420FD010B40246C118887806
:1024900001339BB21488B3FBF4F104FB1133A2F8AF
:1024A000EE335DF8044B7047FEE7B0F8EE33B0F85A
:1024B000EC239A4200D0FEE7A0F8EA3301207047EF
:1024C0002DE9F04186B004460F46154698464FF474
:1024D0007A7100F51C503C30534EB0474FF47A717E
:1024E00004F52C503430B047002323609DF8302091
:1024F000A27284F8098067602572A381236218465E
:1025000041F28831E21882F82C0001338B42F9D174
:10251000002341F2B436184641F28831E218905552
:1025200001338B42FAD1002342F63072A35442F6B3
:102530002C72A350012142F64B72A154FF2242F6A5
:102540003171625442F63271625442F64872A354B9
:10255000012D06D0012242F64B73E25406B0BDE8CD
:10256000F08142F64B72A35442F63072A35404F544
:102570003C553335667AF6B22C4B984704230593C5
:10258000FF230493039302900196072300930E23E5
:10259000012227492846274EB0472846264B984710
:1025A000C0B242F64773E054E65CF6B2E15C2846FE
:1025B000224B9847024631462846214B9847637A7A
:1025C000DBB2112B14D0637ADBB2122B19D0637AF1
:1025D000DBB2132B1ED0637ADBB2142BBED1FF22E9
:1025E00042F64973E254002242F64A73E254B5E7D8
:1025F000002242F64973E254012242F64A73E25441
:10260000ACE7012242F64973E254002242F64A73D3
:10261000E254A3E7002242F64973E254FF2242F655
:102620004A73E2549AE700BF5D1B0000ED5C0000B6
:10263000C80D010029FB000071FB0000DD5D0000FA
:10264000195E00002DE9F04782B0002600961123A4
:1026500001221B491B481C4DA8470124009412234A
:1026600022461A491A48A8474FF00209CDF80090AF
:102670001323224617491848A84703270097142315
:10268000224616491648A847DFF85C804FF0FF0A3B
:10269000CDF800A033463A4631464046A847114F90
:1026A000CDF800A033464A4631463846A84742F6A0
:1026B0004B7308F80340FC5402B0BDE8F08700BF3C
:1026C000D4110020A8130020C12400008011002094
:1026D000380F0120D81200209CAF00208812002063
:1026E0009C7B0020ECDE0020084300202DE9F04F09
:1026F00095B002AF0546F96000F52C5334333B61C9
:102700001846604B984720B900204C37BD46BDE8BD
:10271000F08F8046C7F804D05B4BBB615B4BFB611D
:102720005B4B3B625B4B7B625B4BBB625B4BFB621D
:1027300007F1180307F13000002442F64B7101E065
:1027400083420DD053F8042B565C002EF8D007F1CD
:10275000480606EB840646F8182C0134E4B2EFE78D
:10276000002C7DD007F13009661EF6B2013609EB68
:10277000860642F23C7BDFF844A1C7F8149006E0DD
:102780005844D04780450CD87B69B34217D07B6949
:1027900053F8040B7B618542F2D1FB68002BF3D028
:1027A000EEE7C8230193022300930023642211461D
:1027B0003B483C4CA0470020D7F804D0A5E79B46F7
:1027C0003869394B9847804500D0FEE742F23C7AA1
:1027D000364E03E0FB682BB9D94546D059F8040BB7
:1027E0008542F7D041465044B047F5E7B9684844C0
:1027F000D0477B69B34207D056F8040B8542F5D128
:10280000FB68002BF5D0F1E70BF1010B1FFA8BF3FE
:1028100043450AD23869264B9847B860002CF3D05C
:1028200007F1300642F23C79E6E73869214B9847D8
:10283000A4B107F1300442F23C781F4E7B699946FF
:1028400003E0FB682BB9A14506D054F8040B854280
:10285000F7D04044B047F6E70120ADE70120ABE7F1
:102860003869114B98474045AFD1631EDBB207F181
:10287000480202EB8303143B4FF0000BDFF840A04B
:102880007B61C7E769230000A8130020380F0120EF
:102890009CAF00209C7B002008430020ECDE002041
:1028A00060720020F55B0000E9230000D11B0000EE
:1028B0007D240000AB2400002D1C0000A11B0000A3
:1028C0000D1C00002DE9F04FEDB0019000F51C59F2
:1028D00009F13C094846814B9847002800F0FA80EE
:1028E0008046019A02F12B0402F59D5213322346D1
:1028F000002103F8011F9342FBD105A8784B9847AC
:102900004846784B984708F1FF381FFA88F808F1D5
:102910002C08019B98442546DFF8F8B1724F4846D1
:10292000D8470646014605A8B84705F8016F454552
:10293000F5D148466D4B984705A86D4B98477F38B1
:102940004FFA80F905A86B4B98477F3846B26A9BCF
:10295000002B00F0AB80C6F58076734206F00306CC
:1029600003F0030358BF5E424FEA09190025DFF860
:10297000A881614FB3462E4606E0EEB20135ADB2F6
:102980006A9B9D4280F0928005AB2B441B7D022BFD
:10299000F3D0032BF2D1002EF0D0B24602960122E2
:1029A000314605A8C047C6B201230422514605A8F6
:1029B000C047C0B2002E46D10E28DFD10223052227
:1029C000DDF808A0514605A8C04702230722CDF82C
:1029D00008A0514605A8C047824602230922029951
:1029E00005A8C047039002230B22029905A8C047FF
:1029F000CAF3031A414BDB7B8DF810A00BEB83036A
:102A00005A4203F00F0302F00F0258BF534243EA49
:102A10000A138DF811309DF80C30E0334B4487FBDE
:102A20000321DA17C2EB211202EB4202A3EB42139D
:102A30008DF812308DF813000498314B98470498A4
:102A4000304B98479AE7012E2ED10E2801D0002650
:102A500094E702230522029E314605A8C047039051
:102A600002230722314605A8C047824602230922D5
:102A70000296314605A8C047064602230B2202995A
:102A800005A8C0479DF80C308DF810308DF811A0C6
:102A90008DF812608DF813000498194B984704982C
:102AA000184B9847002669E7002667E705A8164BEC
:102AB0009847064648B10025144F294605A8B8474F
:102AC00004F8010F0135AE42F7D1314601982C30A0
:102AD0000F4B98476DB0BDE8F08F00BF6923000031
:102AE00069130000E92300001D140000AB2400005E
:102AF0000112000041120000ABAAAA2A6072002055
:102B00004979000085790000A112000073140000CB
:102B1000BDDC00007D240000391300002DE9F04FDA
:102B2000ADF5797D00F51C553C352846924B98470C
:102B300018B90DF5797DBDE8F08F82464FF4C87263
:102B400000212DA88D4B984728468D4B98470DF1B5
:102B5000B3090AF1FF362DAB13FA86F64C46894FBE
:102B60002846B84704F8010FB442F9D12846864BED
:102B7000984700238DF82A300DF12A0302220621FE
:102B80002DA8824CA0475FFA80FB0DF12A03022298
:102B900008212DA8A047C0B2BBF17F0F0ED0BBF11A
:102BA000000F15D1B0FA80F35B090393CDF810B094
:102BB00000258DF82B502C465E461FE07F2814BF61
:102BC0004FF0000B4FF0010B002304930393EFE74A
:102BD000BBF1FF0F08D1FF2814BF0023012304938A
:102BE000002303939B46E3E70023049303939B4650
:102BF000DEE7E5B20134A4B2A2459AD019F8013F4C
:102C0000022BF6D0032BF5D1002DF3D02F46681CF4
:102C10000DF12B0203212DAB18445D4B98475FFA51
:102C200080F8281D0DF12B0201212DAB1844584BC3
:102C300098475FFA80FBB8F1300F18D0B8F1310F28
:102C400045D0B8F1320F00F09280B8F1400F00F09B
:102C50000081B8F1410F00F02A81B8F1110F40F066
:102C6000C981BBF10F0F00F06A810025C2E7F8AB04
:102C700058190DF12B020221A0F22730444B98473E
:102C80000546BBF10E0F04D0BBF10F0F11D000258C
:102C9000B0E74048404B984728B90C230022114622
:102CA0003E483F4FB847E9B23A483E4B9847002567
:102CB000A0E73848384B9847054600289AD00923A2
:102CC000002211463548364DA847002592E7BBF152
:102CD0000E0F01D000258DE7039B23B91EB9049B7D
:102CE000002B00F01684781D0DF12B0202212DAB74
:102CF0001844274B98475FFA80F8F81D0DF12B0216
:102D000002212DAB1844224B9847C5B2012D02D0A9
:102D1000CDB100256EE71F4D41462846224B98470E
:102D20002846224B9847804501D0002562E795F858
:102D30002330DBB2012B40F0EF8341462846194B8C
:102D40009847002556E71348184B9847804509D106
:102D5000104B93F82330DBB2012B03D1FF210D4838
:102D6000104B984741460B48114B984742E7BBF13F
:102D70000E0F1FD000253DE769230000D3F60000A9
:102D8000E92300007D240000AB2400002D5E00003C
:102D9000495C000060720020A75A0000883E0120B4
:102DA00049720000355B0000755A0000A35A00000C
:102DB000815A0000039B23B91EB9049B002B00F02D
:102DC000AE83781D0DF12B0202212DAB18448D4BE3
:102DD00098475FFA80FBF81D0DF12B0202212DAB05
:102DE0001844884B9847054607F109000DF12B025E
:102DF00002212DAB1844834B9847804607F10B0006
:102E00000DF12B0202212DAB18447E4B98472A046A
:102E100002F47F024FEA08239BB21A437A4D52FA1A
:102E200080F259462846794B98472846784B984770
:102E3000834501D00025DDE695F82330DBB2012B78
:102E400001D00025D6E659462846724B9847002502
:102E5000D0E6BBF10E0F01D00025CBE6049B13B9E1
:102E6000002E00F05F83781D0DF12B0202212DABA7
:102E70001844644B98470546F81D0DF12B020221BA
:102E80002DAB18445F4B9847804607F109000DF1C0
:102E90002B0202212DAB18445A4B9847C3B25FFA5C
:102EA00088F2E9B25C485D4DA8470025A2E6BBF177
:102EB0000E0F01D000259DE6049B13B9002E00F0F3
:102EC0003483781D0DF12B0202212DAB18444D4B9C
:102ED00098470590F81D0DF12B0202212DAB1844E7
:102EE000484B9847804607F109000DF12B0202215B
:102EF0002DAB1844434B9847834607F10B000DF167
:102F00002B0202212DAB18443E4B9847054607F192
:102F10000D000DF12B0202212DAB1844394B9847BF
:102F2000C0B20190EDB200955FFA8BF35FFA88F2C0
:102F30009DF8141038483A4DA84700255AE61EB9A6
:102F4000039B002B00F0F48200250B950C950D954A
:102F50000E950BA8334B984791A8334B9847009593
:102F60002B467F22114691A8304FB847322229467E
:102F70000FA82F4B9847032301931123009302239B
:102F80002C4A31210FA82C4FB8470FA82B4B98473C
:102F900002460FA991A82A4B98474FF00D08CDF88B
:102FA000008001230422294691A8264FB8470B9B95
:102FB000009308230522294691A8B8470C9B00934B
:102FC00008234246294691A8B8470D9B0093082341
:102FD0001522294691A8B8470E9B009308231D226D
:102FE000294691A8B84791A8174B984791A8174B25
:102FF0009847FFE5B8F1140F6DD1BBF10F0F27D043
:103000000025F7E5495C0000607200208D5A000041
:10301000A35A0000355B0000FC3E01206939000026
:10302000F9380000C15C000069130000B113000012
:10303000D3F60000E40D0100C1FA000071FB0000AE
:10304000B912000051130000B114000095150000E2
:103050001EB9039B002B00F06E8291A89A4B9847F3
:10306000002500952B467F22114691A8974FB8471F
:10307000322229460FA8964B984703230193142325
:1030800000930223934A31210FA8934FB8470FA80A
:10309000924B984702460FA991A8914B98470D2350
:1030A000009301230422294691A8DFF84882C047F3
:1030B0008C4F3B68009308230522294691A8C047FE
:1030C0003B683B683B683B6891A8874B984791A851
:1030D000864B98478EE5B8F1120F42D1BBF10F0F26
:1030E00001D0002586E51EB9039B002B00F0268247
:1030F00091A8754B9847002500952B467F221146D5
:1031000091A8724FB847322229460FA8704B9847B2
:1031100003230193122300930223754A31210FA840
:103120006D4FB8470FA86D4B984702460FA991A85D
:103130006B4B98470D23009301230422294691A845
:103140006C4FB847674B1B79009302230522294631
:1031500091A8B84791A8644B984791A8634B9847AA
:1031600048E5B8F1130F14D1BBF10E0F01D00025C3
:1031700040E50EB935463DE5BFF34F8F5E49CA685D
:1031800002F4E0625D4B1343CB60BFF34F8F00BF8F
:10319000FDE7B8F1610F0FD1BBF10E0F01D0002593
:1031A00028E51EB9039B002B00F0CB8154494D4804
:1031B000544B984700251DE5B8F1600F0FD1BBF1C6
:1031C0000E0F01D0002515E51EB9039B002B00F062
:1031D000BB814B4943484C4B984700250AE5B8F161
:1031E000620F0FD1BBF10E0F01D0002502E51EB911
:1031F000039B002B00F0AB8141494448444B984766
:103200000025F7E4B8F1630F18D1BBF10E0F01D020
:103210000025EFE41EB9039B002B00F09B81F8AB67
:10322000D8190DF12B020221A0F22730394B984713
:10323000C1B22C48384B98470025DBE4B8F1710F38
:103240000FD1BBF10E0F01D00025D3E41EB9039BB3
:10325000002B00F082812A492C48304B98470025EA
:10326000C8E4B8F1700F0FD1BBF10E0F01D00025EB
:10327000C0E41EB9039B002B00F072812049234853
:10328000274B98470025B5E4B8F1720F0FD1BBF179
:103290000E0F01D00025ADE41EB9039B002B00F0FA
:1032A0006281174919481F4B98470025A2E4B8F1DD
:1032B000800F40F05B81BBF10F0F35D0BBF10E0FDB
:1032C0005BD0002596E400BF69130000B113000035
:1032D000D3F60000100E0100C1FA000071FB0000DF
:1032E000B912000060720020B114000095150000B2
:1032F000240E01005113000000ED00E00400FA0567
:1033000010730020C55300001950000054720020B3
:10331000E5540000495C00006D520000155F00009C
:1033200071630000295F00001EB9039B002B00F0B1
:103330002081781D0DF12B0202212DAB1844904BFA
:1033400098470546F81D0DF12B0202212DAB1844BC
:103350008B4B9847804607F109000DF12B020221A3
:103360002DAB1844864B9847C3B25FFA88F2E9B296
:103370008448854DA84700253CE41EB9049B002BDA
:1033800000F0FA80781D0DF12B0202212DAB1844BC
:103390007B4B984706905FFA80F8F81D0DF12B02E1
:1033A00002212DAB1844764B98470790C3B208937F
:1033B00007F109000DF12B0202212DAB1844704BCF
:1033C000984709905FFA80FB782200210FA86F4B85
:1033D0009847E3B2DF1BB7F10B0300F0E78005F17C
:1033E0000A022DA90A440DF13B01013D2F442DA8ED
:1033F000C51912F8010F01F8010FAA42F9D1614A6B
:1034000052689DF818502901084605919DF81C1036
:10341000642707FB01F70244D0680FAA59463844D5
:103420005B4DA8475B4BDB7BDBB298454AD0554BE5
:103430005B68059D2B44D86859463844564B9847DD
:10344000FF284FD0049B03B34E4B5A684FF486734A
:1034500003FB00F32A44D2683A44126E1A44002156
:1034600082F80911474A526805952A44D2683A44BD
:10347000126E1A4482F80711424A52682A44D268EE
:103480003A44126E134483F808116EB33D4B5A68E8
:103490004FF4867303FB00F305980244D2683A4464
:1034A000126E1A44012182F80711364A5268014609
:1034B0001144CA6817443A6E1344002283F8082165
:1034C0003746ACE05B46089A41462E48DFF8D88084
:1034D000C047ACE75B46089A41462A48DFF8C880F7
:1034E000C04779E001279AE0012798E0002796E09D
:1034F0000B23009301230422002191A8274DA84704
:1035000091A8274B984791A8264B98470025FFF78D
:1035100071BB049DFFF76EBB0025FFF76BBB049DDD
:10352000FFF768BB3546FFF765BB3546FFF762BB63
:10353000039DFFF75FBB039DFFF75CBB039DFFF798
:1035400059BB039DFFF756BB039DFFF753BB039D7C
:10355000FFF750BB039DFFF74DBB039DFFF74ABB31
:10356000039DFFF747BB039DFFF744BB0025FFF713
:1035700041BB039DFFF73EBB049DFFF73BBB00BF74
:10358000495C0000547200203D5F0000D3F600004B
:10359000056E000060720020A96500005113000054
:1035A000B114000095150000497200003F4B5B68A4
:1035B0009DF818502D019DF81C20642707FB02F789
:1035C0002B44D86859463844394B9847394BDB7BF4
:1035D000DBB298453FF47EAF344B5B682B44D86830
:1035E00059463844344B9847FF283FF47FAF2F4B60
:1035F0005A684FF4867303FB00F32A44D2683A44B6
:10360000126E1A44012182F80711284A52681544A3
:10361000EA6817443A6E134483F80811002791A80A
:10362000264B9847002500952B467F22114691A8EE
:10363000DFF89880C0470B950C95ADF83450032304
:103640000093802302221E490BA8DFF88480C04724
:103650000BA81C4B984702460BA991A81A4B9847F8
:103660009DF81830009302230522294691A8DFF81F
:103670006480C0479DF81C3000930223072229462E
:1036800091A8C0479DF824300093022309222946BF
:1036900091A8C047012F7FF42BAF0A230093012389
:1036A0000422294691A8C0472AE700BF547200208F
:1036B000ED6F000060720020A96500006913000032
:1036C000300E010071FB0000B9120000B1130000C0
:1036D00029FB00005113000083890BB100207047C3
:1036E0002DE9F041804600F51C553C352846134B2A
:1036F0009847064610B90020BDE8F0812846104BD7
:103700009847A8F80C6008F12B04013EB6B22C369D
:1037100046440C4F2846B84704F8010FB442F9D18B
:103720002846094B9847B8F80C2008F12C01D8F826
:103730000400064B98470120BDE8F0816923000092
:10374000E92300007D240000AB240000CD810000AF
:103750000122014B1A707047A413002030B4447842
:103760008C4202D8FF2030BC704701EB4101890038
:103770000D4CFF2B28BFFF2354F82350C3685D5026
:10378000FF2A28BFFF2254F82220C3680B445A6046
:10379000BDF80830FF2B28BFFF2354F82320C3684F
:1037A00019448A600020DEE74C77002010B5064CF3
:1037B00000F114012046054B9847054A0021204698
:1037C000044B984710BD00BF24120020258700003D
:1037D00051370000F586000040787047437813B1F8
:1037E00030B4002405E070470134E4B24378A342CA
:1037F00011D90021437801FB034303EB430203EBA0
:10380000820302691344DA7A1D7B2A44DA72013199
:103810000329EFD1E8E730BC704770B4447802FB6D
:103820000414056904EB440604EB86042B55437825
:1038300002FB0313046903EB430503EB85032344F5
:103840009DF80C405C70437802FB0312036902EBA5
:10385000420102EB81021A449DF81030937070BC53
:10386000704770B4447802FB0414056904EB440605
:1038700004EB86042C44E370437802FB03130469D1
:1038800003EB430503EB850323449DF80C401C71B7
:10389000437802FB0312036902EB420102EB81024F
:1038A0001A449DF81030537170BC704770B444785E
:1038B00002FB0414056904EB440604EB86042C4463
:1038C000A371437802FB0313046903EB430503EB85
:1038D000850323449DF80C40DC71437802FB0312FE
:1038E000036902EB420102EB81021A449DF8103099
:1038F000137270BC704700002DE9F04782B080461B
:10390000894692461D469DF828609DF82C70124C01
:10391000A4FB053EA4FB07C31B090193A4FB0634CB
:10392000240900944FEA1E130C4CA0477B08019316
:10393000730800936B08524649464046084CA0471E
:10394000019700962B46524649464046054CA047F3
:1039500002B0BDE8F08700BFCDCCCCCC1B38000056
:1039600063380000AD38000010B4447802FB041244
:10397000016902EB420002EB80020A44D3725DF857
:10398000044B704710B4447802FB0412016902EB47
:10399000420002EB80020A4413735DF8044B704747
:1039A0002DE9F04F83B005464170CCB204EB4400E2
:1039B000800090306860524FB8470646A86000F11A
:1039C0009003EB6004EB8400C4EBC000B847002E0A
:1039D00000F09480002800F09180286100231946AF
:1039E000AA68D1540133902BFAD16B78002B00F0E8
:1039F000828000242646434F0096334632462146B5
:103A00002846B84701346B78A342F5D8002B72D012
:103A10004FF0000BDFF8F8A0002401940094234637
:103A2000012259462846D04701947F23009323461C
:103A3000012259462846DFF8DC90C8470194FF234D
:103A400000932346012259462846DFF8CC80C04720
:103A500023460122594628462B4FB84723460122C8
:103A600059462846294EB047019400942346022225
:103A700059462846D04701947F23009323460222CB
:103A800059462846C8470194FF2300932346022243
:103A900059462846C0472346022259462846B84779
:103AA0002346022259462846B047019400942346F3
:103AB000224659462846D047019400942346224680
:103AC00059462846C8470194009423462246594641
:103AD0002846C0472346224659462846B84723462B
:103AE000224659462846B0470BF1010B5FFA8BFB83
:103AF0006B785B4590D803B0BDE8F08FFEE700BF60
:103B0000ADF600005D37000085390000693900001E
:103B10001B38000063380000AD38000070B5044663
:103B2000294E002293B203F00100002814BF4FF089
:103B300060604FF00060C3F34005002D14BF4FF0EC
:103B400060454FF000450543C3F38000002814BFD3
:103B50004FF460204FF400202843C3F3C005002D2C
:103B600014BF4FF460054FF400052843C3F300155C
:103B7000002D14BF4FF460654FF400650543C3F397
:103B80004010002814BF4FF460404FF4004005433C
:103B9000C3F38010002814BF0E2008202843C3F36D
:103BA000C013002B14BFE0238023034346F8043FD7
:103BB0000132B2F5807FB5D12046044B98472046AC
:103BC000034B9847002070BD48770020A1390000C2
:103BD000AD3700002DE9F04F83B090F801C00CEB39
:103BE0004C030CEB830C01EB410401EB84030469EF
:103BF0001C4403274FF0000E73467246DFF88480A2
:103C0000E67A18F80690464496F8005196F8006255
:103C100094F800A094F803B005FB0BFB09FB0ABB6A
:103C200094F806A006FB0ABA524494F801A094F84E
:103C300004B005FB0BFB09FB0ABB94F807A006FBCD
:103C40000ABA534494F802A094F805B005FB0BF5AA
:103C500009FB0A59257A06FB0595AE44013F6444E9
:103C600017F0FF07CCD1CEF34F240094C3F34F23BA
:103C7000C2F34F22024CA04703B0BDE8F08F00BF53
:103C80005D3700000000002043785BB170B5054649
:103C90000024054E21462846B04701346B78A342E4
:103CA000F8D870BD704700BFD53B000010B5044682
:103CB0000022054B1A700548054B9847A288A16859
:103CC0006069044B984710BDA41300202412002003
:103CD000CD860000CD8100002DE9F04FA3B0854CCA
:103CE00001212046844B9847012200212046834B26
:103CF0009847606800221146814B9847782200213E
:103D000004A8DFF86882C0477E4B04AD0FCB07C51F
:103D100025F8023B1B0C2B7004A87B4EB04704AB6C
:103D200053FA80F703230093102302227749384681
:103D3000774DA8474FF0000922AD05F8799D009511
:103D40000E23012204213846DFF824A2D047DFF8F1
:103D5000DCB1D84700950346022205213846D047FA
:103D600000950123022207213846D0470095012300
:103D7000022209213846D0470095042302220B2154
:103D80003846D04704A8B0476568C3B204AA0C21DE
:103D9000E868604FB8477822494604A8C04704AD98
:103DA000DFF8D0E1BEE80F000FC59EE8030045F83C
:103DB000040B25F8021B090C297004A8B04765689C
:103DC000C3B204AA0721E868B8477822494604A884
:103DD000C047514B04AD0FCB07C525F8023B1B0C68
:103DE0002B7004A8B0476568C3B204AA0821E8682C
:103DF000B8477822494604A8C04704ADDFF878E107
:103E0000BEE80F000FC59EE8030045F8040B25F837
:103E1000021B090C297004A8B0476568C3B204AA44
:103E20000921E868B8477822494604A8C04704AD8C
:103E3000DFF848E1BEE80F000FC59EE8030045F833
:103E4000040B25F8021B090C297004A8B04764680C
:103E5000C3B204AA0A21E068B84730493048314B60
:103E600098474FF48042304BC3F81821D847D8B157
:103E7000D847082818D02D4B9847802824D02B4BA2
:103E80009847882820D0294B9847402823D0274B93
:103E90009847C02826D0224D25492846214CA047C6
:103EA00024492846A04705E023491D481D4B984753
:103EB000224B98472248234B984723492348244BB9
:103EC000984723B0BDE8F08F22491548154B984715
:103ED000214B9847EEE721491148124B9847204B58
:103EE0009847E7E71F490E480E4B98471E4B9847E7
:103EF000E0E700BF883E0120955E0000CD5E000037
:103F00001D770000400E010071FB0000100E010043
:103F100029FB0000056E0000680E0100A80E0100DC
:103F20004C0C01003DF8000000800041ED5C0000F9
:103F3000080F0100240F0100B80E01005D4F0000C2
:103F400060720020E9590000D0100020107300209A
:103F50009D180000CC0E010095420000E00E01000B
:103F6000294C0000F40E010099470000D3F6000030
:103F7000415E0000500E0100780E0100900E01001D
:103F800010B50348034CA0470348A04710BD00BF2D
:103F900054110020597D000028130020A04B1B78ED
:103FA0002BB99F4A13780133DBB2137070472DE9A8
:103FB000F04788B09B489C4B9847FF2808BF0020DB
:103FC000984B5B7C002B38D0964A00235374974B58
:103FD0005B68D27B03EB02135B7A73B307010024A7
:103FE000924D8F4E06EB00166A68642303FB04F3C0
:103FF0003A44D2681A4431190879906191F8441012
:10400000D1616A68DFF81C8298F80F1002EB011288
:10401000D2681344DC6098F80F100023224628462B
:10402000DFF82892C8470134E4B26B6898F80F2093
:1040300003EB02135B7AA342D6D80023ADF81E30FF
:10404000ADF81C30764B93F88420083278498D5CAB
:10405000EDB293F88420D2B28C5CE4B293F8842061
:104060000132D2B283F8842093F8842002F0070250
:1040700083F8842093F8843013F0010F4FF400226A
:104080006C4B14BFC3F81821C3F81421644B93F888
:10409000843013F0020F4FF48012664B14BFC3F844
:1040A0001821C3F814215E4B93F8843013F0040FE9
:1040B0004FF400125F4B14BFC3F81821C3F814214A
:1040C00002230DF11E0200215B485C4EB047022323
:1040D00007AA00215A48B0470023ADF81430ADF8C4
:1040E00010308DF818508DF81940BDF81E304EF67E
:1040F0006022934216D901238DF81030BDF81C3090
:104100004EF66022934216D901238DF811304D4BA3
:104110000FCB8DE80F000024DFF81091DFF8048149
:104120003F4F36E0C72BE9D87F238DF814300123A9
:104130008DF81030E2E7C72BE9D87F238DF81530D2
:1041400001238DF81130E2E700229A6145E03F2A11
:104150000CBF7F220022DA6198F80F2007EB0212D1
:104160000A449869107198F80F2007EB0212114465
:10417000DB6981F8443098F80F1004232A4648463A
:10418000DFF8C8A0D0473D4485F888600134022C90
:104190003DD0214606ABE55C05ABE65CD9F80400F2
:1041A00098F80F30DBB27A1992F888209642EDD059
:1041B0000DF1100E14F80EE0BEF1010FE6D100EB88
:1041C0000313DB68642000FB053362B97F225A6168
:1041D0009A69002AB8D17F229A61DA69002AB6D199
:1041E0003F22DA61B8E7DD6008AA2A4412F8202CE1
:1041F0001A6100225A6198F80F1005232A46484692
:10420000DFF848A0D0473D4485F88860BEE700222B
:10421000034B1A700C4B984708B0BDE8F08700BFFD
:104220003406002060720020A35A0000547200205F
:10423000000300200080004154110020797C000020
:1042400028130020340F0100813F00004972000054
:10425000F8B50B4F0B4C3B460022114620460A4E48
:10426000B0470A4D3B46002211462846B047002180
:104270002046074CA04700212846A047F8BD00BFB4
:104280009D3F000054110020F97B000028130020FE
:10429000B97B00002DE9F04710211548154B9847D0
:1042A00004211548154B98474FF00009124DDFF8CF
:1042B00058A0DFF8588010225FFA89F12846D047CD
:1042C0004FEA09170024022668683246E1B23844F2
:1042D000C0470134102CF7D109F10109B9F1040FDD
:1042E000E9D1074B9847074B9847BDE8F08700BFD7
:1042F000FC3E01201D3B000054720020955E000032
:1043000051420000813F0000CD5E00001D7700009B
:1043100010B54FF40012074B9A61074C2046074B2B
:104320009847074908230A4610312046054CA04704
:1043300010BD00BF0080004148100020A184000093
:10434000CC060020418500002DE9F04F2DED048BB7
:1043500089B04FF400124E4B5A614E484E4B98476D
:104360000346FF2814BF034600231A460193494B16
:104370005B7C002B42D00024464B5C744FEA021B4E
:104380000DF10F09454B03F120070BF1FF352F44C9
:1043900003F160062E44A0331D44DFF80881D8F8ED
:1043A00004305B44DB684FF0640E0EFB043E3C4B74
:1043B0000FCB0DF1200C0CE90F00CEF80C4019F8D2
:1043C000013FCEF8103017F8012FCEF8182016F85C
:1043D000012FCEF81C20CEF82040CEF8243015F85E
:1043E000013FCEF828302B4BD97B0023E2B2404668
:1043F000DFF8B8A0D0470134102CD0D10024274DCD
:104400009FED218B4FF0000ADFF8A4B0019E4BEC2A
:1044100019AB82E00023CEF81830CEE03F2B0CBF62
:104420007F230023CEF81C30CFE0CEF80C8008AB01
:10443000434413F8103CCEF810300023CEF814306B
:10444000144BD97B052342461648DFF860B0D847A5
:10445000D3E0154901EB0811C978D14205D4124ABD
:1044600002EB08120B44D37020E10F4B03EB08134F
:104470000022DA701AE10C4B03EB08137F22DA708A
:1044800014E14FF0000E17E000000000004CED407A
:104490000080004160720020A35A0000CC0600207A
:1044A000440F010054720020380E012049720000B0
:1044B0000000F03F4FF07F0E05EB0313434483F8F9
:1044C000A0E08D4B5B688D4AD27B03EB0213DB6867
:1044D000642707FB08378A4B0FCB0DF1200C0CE942
:1044E0000F00C7F820806346434413F8103C7B62FA
:1044F000C7F828E097F83430FF2B00F0E7805B44E2
:10450000DBB27B637D4BD97B012342467A487D4FEA
:10451000B8470134102C00F0DF80E1B24B08EB5CAF
:1045200001F0010292001341DBB203F00F092A19D6
:1045300092F8E020D2B29145EBD0734A14F8028091
:10454000724A11704FEA990CC9F3400903F0010750
:104550006F4B03EB08135B7863454ED06C4B03EB5A
:10456000081301229A7083F801C0634B5B68634AA9
:10457000D27B03EB0213DB684FF0640E0EFB083EA8
:104580005F4B0FCB0DF1200A0AE90F00BCF1000FC1
:104590007FF44BAFCEF80C805346434413F8103CE5
:1045A000CEF810307F23CEF81430DEF81830002B10
:1045B0007FF430AF7F23CEF81830DEF81C30002BAC
:1045C0007FF42CAF3F23CEF81C304C4AD37B05EB55
:1045D00003134344DEF8181083F82010D37B05EB57
:1045E00003134344DEF81C1083F86010D17B0423CE
:1045F00042464148DFF80CB1D847454B03EB08135E
:104600005B7B4B4572D0B94514BF4FF0FF3B4FF079
:10461000010B3F4B03EB081383F80D909F739968D0
:1046200036483C4B98470390039BB3F5C87F84BF43
:104630004FF4C8730393039B132B9CBF1423039362
:10464000DDF80C90039F2D48334B9847304B03EB1C
:104650000813986007FB09F0C0F51C3000F5807066
:104660002E4B984753EC182B2D4FB84753EC192B72
:104670002C4FB8472C4B984783B2013313FB0BF3F5
:104680009BB21AB2BBF1000FFFF6E3AEBBF1000F15
:104690000CDD1F4901EB0811C9780A447F2A3FF756
:1046A000EAAE1B4A02EB08120B44D370334605EB0B
:1046B0000612424492F8A0E01EEB0B023FF5E1AE79
:1046C0007F2A3FF7F7AE5FFA82FEF5E6BBF1000FF7
:1046D000CCBF41233F2314E70022144B1A70144B24
:1046E000984709B0BDEC048BBDE8F08F084B03EB95
:1046F000081888F80E700CE75472002060720020D1
:10470000440F01004972000010030020F542002010
:10471000380E0120895B0000855B000015F1000068
:1047200055F400009DEE000025F60000183F012022
:104730001143000010B50E4B4FF400125A619A60FD
:104740004FF080429A620B4A9A620B4C032120463A
:104750000A4B98470A4920460A4B98470A4920467F
:104760000A4B98470A4A002120460A4B984710BD39
:1047700000800041200000C0481000200585000096
:10478000801A0600C9840000F8420020ED85000070
:1047900049430000A98500002DE9F04710211F487A
:1047A0001F4B984704211F481F4B98474FF00009A3
:1047B0001C4DDFF884A0DFF8848010225FFA89F1B5
:1047C0002846D0474FEA0917002403266868324676
:1047D000E1B23844C0470134102CF7D109F1010986
:1047E000B9F1040FE9D1114B0020012102464FF02D
:1047F000FF34187059709A70DA7019715A719C6090
:104800001A7359739973013010331028F1D1084B82
:104810009847084B9847BDE8F08700BFFC3E012051
:104820001D3B000054720020955E0000380E0120F0
:104830003547000011430000CD5E00001D770000E9
:1048400010B50348034CA0470348A04710BD00BF64
:1048500054110020597D00002813002000000000A2
:10486000B14B1B78002B00F0C5802DE9F04F89B0CB
:10487000AE4B5B7C23B3AD4A00235374AC4B5B68F7
:10488000D27B03EB02135B7AD3B10024A84EA74D71
:10489000A84F7368EA7B03EB0213DA68642303FB17
:1048A0000423DC60E97B002322463046B84701340C
:1048B000E4B27368EA7B03EB02135B7AA342E8D8A5
:1048C0000023ADF81E30ADF81C309B4B1A7808322F
:1048D0009A498E5CF6B21A78D2B28D5CEDB21A7833
:1048E0000132D2B21A701A7802F007021A701B78DD
:1048F00013F0010F4FF40022914B14BFC3F818219D
:10490000C3F814218C4B1B7813F0020F4FF4801264
:104910008B4B14BFC3F81821C3F81421864B1B78A6
:1049200013F0040F4FF40012854B14BFC3F8182185
:10493000C3F8142102230DF11E0200218148824C8C
:10494000A047022307AA00218048A047DFF80CB245
:10495000BDF81E00D847DFF808A271A3D3E90023F1
:10496000D047DFF80092C8474FF6FF74A04228BF37
:10497000204607461FFA80F8ADF81E80BDF81C00DF
:10498000D84767A3D3E90023D047C847A04228BF30
:10499000204680B2ADF81C00A5F10803DBB2012B64
:1049A00040F2B5800D2E40F28A800023ADF804302D
:1049B000ADF80830043E8DF80060043D8DF80150DC
:1049C0004EF6602398451BD901238DF808304EF62A
:1049D000602398421ED901238DF809305C4B03AC4B
:1049E0000FCB84E80F000024DFF844914F4FDFF82D
:1049F00078812EE04C4A13780133DBB21370704794
:104A0000B8F1C70FE3D87F238DF8043001238DF868
:104A10000830DCE7C728E1D87F238DF80530012373
:104A20008DF80930DAE700229A6130E03F2A0CBFA6
:104A30007F220022DA61FB7BFB7BF97B04232A4681
:104A40004846DFF8F0A0D04708F805600134022C92
:104A50005DD01DF8045001ABE65CD9F80410FB7B77
:104A6000DBB218F805209642F0D002A8205C01289D
:104A7000ECD101EB0313DB68642101FB053362B960
:104A80007F225A619A69002ACDD17F229A61DA6920
:104A9000002ACBD13F22DA61CDE7DD6008AA2A44A3
:104AA00012F8142C1A6100225A61F97B05232A4658
:104AB0004846DFF880A0D04708F80560C6E7012D1A
:104AC00056D9B9B23046234CA047BDF81C10284631
:104AD000A0478DF808608DF809501D4B03AC0FCB33
:104AE00084E80F0002AD0DF10A09114F0F4EDFF8F7
:104AF0007C8015F8014B7B68F27B03EB0213D3F843
:104B00000CA02046C047002841D1A945F1D1002280
:104B1000054B1A70104B984709B0BDE8F08F00BFE5
:104B20007B14AE47E17AF03F04430020607200201E
:104B30005472002049720000903E0120240300209E
:104B40000080004154110020797C000028130020CF
:104B5000540F0100891900004148000035F10000A0
:104B600001F2000025F60000C0070020851A0000B1
:104B7000B9B24FF6FF78A8EB01013046164CA047BA
:104B8000BDF81C10A8EB01012846A047A1E764234B
:104B900003FB04AA07212046DFF844B0D847CAF82F
:104BA0000C4008AB234413F8143CCAF8103007211A
:104BB0002046D847CAF8140007212046D847CAF82B
:104BC00018000023CAF81C30F17B01232246384626
:104BD000024CA04799E700BF891900004972000004
:104BE000951A0000F8B50B4F0B4C3B4600221146BE
:104BF00020460A4EB0470A4D3B4600221146284641
:104C0000B04700212046074CA04700212846A04776
:104C1000F8BD00BF6148000054110020F97B00007E
:104C200028130020B97B00002DE9F84307230E224A
:104C300005211020164CA0470C211648164B98470A
:104C400004211648164B98470025A946134E154FC8
:104C50000C225FFA89F13046134B984700244FF03D
:104C60000208E1B20729706894BF01224246284435
:104C7000B84701340C2CF4D109F101091035B9F110
:104C8000040FE5D1094B9847094B9847BDE8F883D5
:104C90003D190000FC3E01201D3B00005472002025
:104CA000955E00001D770000CD5E0000E54B000022
:104CB0004148000010B50348034CA0470348A047F3
:104CC00010BD00BF54110020597D000028130020A2
:104CD0007F4B1B78002B00F0C3802DE9F04F87B08D
:104CE0007C4B5B7C23B37B4A002353747A4B5B6819
:104CF000D27B03EB02135B7AD3B10024764E754D61
:104D0000764F7368EA7B03EB0213DA68642303FBD4
:104D10000423DC60E97B002322463046B847013497
:104D2000E4B27368EA7B03EB02135B7AA342E8D830
:104D30000023ADF81630ADF81430654B5A780832C0
:104D400067498D5CEDB25A78D2B28C5CE4B25A7885
:104D50000132D2B25A705A7802F007025A705B7868
:104D600013F0010F4FF400225E4B14BFC3F818215B
:104D7000C3F81421564B5B7813F0020F4FF48012E6
:104D8000584B14BFC3F81821C3F81421504B5B785B
:104D900013F0040F4FF40012524B14BFC3F8182144
:104DA000C3F8142102230DF1160200214E484F4E84
:104DB000B047022305AA00214D48B047DFF84891CB
:104DC000BDF81600C847DFF844813FA3D3E90023AC
:104DD000C047484FB8474FF6FF76B04228BF30462D
:104DE000ADF81600BDF81400C84737A3D3E9002377
:104DF000C047B847B04228BF3046ADF814003E4B1C
:104E00009847082832D0BDF8161028463B4EB047C8
:104E1000BDF814102046B0478DF810508DF81140A1
:104E2000374B0FCB8DE80F0004AD0DF112092A4F5F
:104E3000284EDFF8DC8015F8014B7B68F27B03EB32
:104E40000213D3F80CA02046C047D0B94D45F2D18B
:104E500000221F4B1A702B4B984707B0BDE8F08F0C
:104E60001B4A13780133DBB213707047BDF816305C
:104E7000DB43ADF81630BDF81430DB43ADF8143029
:104E8000C1E7642303FB04AACAF80C4006AB234421
:104E900013F8183CCAF8103007212046DFF874B028
:104EA000D847CAF8140007212046D847CAF8180086
:104EB0000023CAF81C30F17B012322463846074CF8
:104EC000A047C3E7AFF300807B14AE47E17AF03F21
:104ED000D207002060720020547200204972000046
:104EE000340300200080004154110020797C000030
:104EF0002813002025F60000ED5C00008919000051
:104F0000640F0100B54C000035F1000001F2000013
:104F1000851A0000951A0000F8B50B4F0B4C3B4664
:104F20000022114620460A4EB0470A4D3B46002259
:104F300011462846B04700212046074CA0470021D3
:104F40002846A047F8BD00BFD14C000054110020F6
:104F5000F97B000028130020B97B00002DE9F04701
:104F600007230E2205211020164CA04710211648B9
:104F7000164B984704211648164B98474FF00009E6
:104F8000134DDFF85CA0DFF85C8010225FFA89F136
:104F90002846D0474FEA09170024012668683246A0
:104FA000E1B23844C0470134102CF7D109F10109AE
:104FB000B9F1040FE9D1084B9847084B9847BDE871
:104FC000F08700BF3D190000FC3E01201D3B0000A2
:104FD00054720020955E0000194F0000B54C00008F
:104FE000CD5E00001D770000034640785970704781
:104FF000437800EB83004368013343607047031D2F
:105000002430002243F8042B8342FBD1704700EB8D
:1050100081014868704700002DE9F04FADF2EC4D7A
:1050200081460D46D3A8804B984700240094234620
:10503000FF221146D3A87D4FB8474FF4C8722146CE
:105040006FA87B4B984709F1130926460395D3A80F
:10505000784B984704464FF0030BCDF800B031234E
:10506000022275496FA8DFF8F0A1D0476FA8DFF8DA
:10507000EC81C047C2B26FA9D3A8704DA8470E27D4
:1050800000970123042202942146D3A86C4CA04728
:105090000096022305220299D3A8A04719F8013BE4
:1050A0000093022307220299D3A8A047D3A8614BFB
:1050B00098470290CDF800B03223022261496FA8D0
:1050C000D0476FAB1846C047C2B26FA9D3AB1846E2
:1050D000A847009701230422029D2946D3A8A04790
:1050E0000096022305222946D3A8A04799F8033049
:1050F0000093022307222946D3A8A04799F8073036
:105100000093022309222946D3A8A04799F80B301F
:10511000009302230B222946D3A8A0470136042E70
:1051200095D1039DD3A8484B98472846474B9847AD
:10513000D3A8474B9847002830D108A83A4B984746
:105140000024009423467F22114608A8374DA84723
:1051500005940694ADF81C400323009360230222BB
:105160003C4905A83C4DA84705A83C4B984702463A
:1051700005A908A8314B98470B230093012304226B
:10518000214608A82E4CA04708A82F4B984708A8EE
:10519000334B98470DF2EC4DBDE8F08FD3A82C4B64
:1051A00098470346C5F8180468B105F2172600248D
:1051B0002C4F2146D3A8B84706F8010F0134D5F883
:1051C0001834A342F5D84FF4FE21C5F8201405F594
:1051D00006722868244CA04708A8134B984700245F
:1051E000009423467F22114608A8104DA847059435
:1051F0000694ADF81C400323009360230222154956
:1052000005A8154DA84705A8144B9847024605A9BF
:1052100008A80A4B98470A23009301230422214639
:1052200008A8074CA047AFE769130000B1130000BE
:10523000D3F60000B3120000740F0100B912000091
:1052400051130000100E0100B11400007518000089
:10525000A1120000D80C010029FB000071FB000026
:105260009515000073140000657F00002DE9F04FD4
:10527000ADF5517D05468A4669A8464B98470024FE
:10528000009423467F22114669A8434EB0474FF44D
:10529000C872214605A8414B9847133569E069A8B3
:1052A0003F4B984707464FF0030BCDF800B0312332
:1052B00002223C4905A83C4EB04705A8DFF8009102
:1052C000C847C2B205A969A8384B98474FF00D08E6
:1052D000CDF8008001230422394669A8344EB04736
:1052E000009402230522394669A8B0472B78009321
:1052F00002230722394669A8B04769A8284B984776
:105300000390CDF800B0322302222A4905A8264F87
:10531000B84705AB1846C847C2B205A969AB1846DD
:10532000224B9847CDF8008001230422039F394681
:1053300069A8B047009402230522394669A8B047FE
:105340002B79009302230722394669A8B0472B7AAC
:10535000009302230922394669A8B0472B7B0093AA
:1053600002230B22394669A8B04701340135042CC9
:1053700006D0BAF1040F92D8E3B29A45F5D18EE780
:1053800069A80D4B984769A80C4B98470DF5517DBE
:10539000BDE8F08F69130000B1130000D3F60000E0
:1053A000B3120000740F010029FB0000B9120000C5
:1053B00051130000100E0100B114000095150000FB
:1053C00071FB00002DE9F043ADF56D7D0C464FF407
:1053D00000752A4600216CA8364B98474FF4FE21F1
:1053E000C4F814122B466CAA2068334CA047002343
:1053F000984618466CAD4FF0010E304C41F2B43770
:105400004FF00A091E46F4460BE0E21802F8079036
:105410005A1C2262A662F04660460133B3F5007F53
:105420000BD00028F9D119465A5D0A2AEDD0FF2A7F
:105430001ABF0919CA557046EFE705A8204B9847CF
:105440000024009423467F22114605A81D4DA8473D
:1054500002940394ADF810400323009361230222C9
:10546000194902A8194CA04702A8194B98470246AF
:1054700002A905A8174B9847B8F1000F11D10B23CB
:10548000009301230422002105A8134CA04705A87E
:10549000124B984705A8124B98470DF56D7DBDE856
:1054A000F0830A23009301230422002105A80A4C5B
:1054B000A047ECE7D3F60000C17E000008430020BF
:1054C00069130000B1130000D80C010029FB000093
:1054D00071FB0000B912000051130000B11400006C
:1054E0009515000030B5EDB00B464FF4FE21C3F822
:1054F000141201221868184B984705A8174B9847B3
:105500000024009423467F22114605A8144DA84785
:1055100002940394ADF81040032300936223022207
:10552000104902A8104DA84702A8104B9847024600
:1055300002A905A80E4B98470A23009301230422D1
:10554000214605A80B4CA04705A80B4B984705A87A
:105550000A4B98476DB030BD1D80000069130000F4
:10556000B1130000D80C010029FB000071FB000002
:10557000B912000051130000B1140000951500008D
:105580002DE9F041ADF54E7D0446DFF8D880C047E7
:10559000064667A82D4B9847002500952B467F228D
:1055A000114667A82A4FB84703AF4FF4C87229467F
:1055B0003846284B98472023022227493846274D52
:1055C000A8473846C04705463818254B1A889B78A7
:1055D0007A538370C0470544A6B1227803AB5A556D
:1055E000C82D0FD820462B44711E294403AA11440C
:1055F0000DF1D5048B4205D010F8012F03F8012FCF
:10560000A342F7D103AC6019164EB04705446019A8
:10561000154B1A889B7862538370B047054467190D
:105620000322124938460D4B98473846B0472A188E
:10563000214667A80E4B984767A80E4B984767A866
:105640000D4B98470DF54E7DBDE8F08169130000C4
:10565000B1130000D3F60000840F010029FB000005
:105660008C0F010071FB0000900F0100CC0C0100B9
:10567000B9120000B114000095150000828942B1F2
:1056800000F12B032B320244002103F8011F934247
:10569000FBD100238381704708B50248024B98472D
:1056A00008BD00BF9C7B00207D56000008B5024865
:1056B000024B984708BD00BF9CAF00207D560000FC
:1056C00008B50248024B984708BD00BF380F0120BB
:1056D0007D56000008B50248024B984708BD00BF40
:1056E000A81300207D56000008B50123037640680A
:1056F000014B984708BD00BFC98B000008B50248A0
:10570000024B984708BD00BF9C7B0020E956000073
:1057100008B50248024B984708BD00BF9CAF002067
:10572000E956000008B50248024B984708BD00BF83
:10573000380F0120E956000008B50248024B98478F
:1057400008BD00BFA8130020E956000008B5837A01
:105750001B0103F1824303F520431A6C22F002027D
:105760001A640021807A014B984708BD899C00008B
:1057700008B50248024B984708BD00BF9C7B00203B
:105780004D57000008B50248024B984708BD00BFBE
:105790009CAF00204D57000008B50248024B9847C7
:1057A00008BD00BF380F01204D57000008B5024862
:1057B000024B984708BD00BFA81300204D570000BA
:1057C0002DE9F8433E4B4FF08051C3F8041193F894
:1057D0005C2142F0040283F85C21C3F818114FF4F5
:1057E0008031C3F8041193F8502142F0040283F889
:1057F0005021C3F818114FF48051C3F8041193F8E5
:105800004C2142F0040283F84C21C3F818114FF4E4
:105810000071C3F8841093F8C92042F0040283F8A1
:10582000C920C3F89810DFF8E480264A01214046D9
:10583000254CA047254F264A01213846A047254E32
:10584000254A01213046A047244D254A01212846FA
:10585000A04701214046DFF8B890C84701213846EB
:10586000C84701213046C84701212846C8471D4A7C
:1058700002214046A0471C4A02213846A0471B4A45
:1058800002213046A0471A4A02212846A04719495A
:105890004046194CA04719493846A0471849304698
:1058A000A04718492846A0474046174CA04738460D
:1058B000A0473046A0472846A047BDE8F88300BF70
:1058C00000800041D55600001D8C00008011002092
:1058D000C1560000D8120020AD56000088120020EA
:1058E0009956000039570000255700001157000055
:1058F000FD5600005C720020F58B000098AF002080
:10590000E8DE0020143F01209D8B0000D411002010
:10591000918C0000F0B583B005460F461646847A98
:105920004368196A283120460E4B984705F59D516A
:10593000143120460C4B9847394620460B4B98476C
:10594000214601A80A4B9847019B1E6001220021B5
:105950002046084B984700212046074B984703B044
:10596000F0BD00BF059C0000F59B0000319C0000CD
:10597000C99C0000A19B0000899C000010B5104A42
:1059800041F288310F48104CA047104A41F288314B
:105990000F48A0470F4A41F288310F48A0470F4AED
:1059A00041F288310E48A0470E4B002283F81F2396
:1059B00083F8202383F8212383F8222310BD00BF1E
:1059C000AD570000A813002015590000995700009A
:1059D000380F0120855700009CAF00207157000050
:1059E0009C7B002000E100E010B5002303601C4A0E
:1059F00012780271C3756421C176C822C27702761B
:105A0000017780F8203032244476427780F82140B4
:105A10008176837780F822200122C2740275427554
:105A2000827580F8243080F8253080F826300274A2
:105A30004374837480F82730C3730A4981F8233094
:105A40004A747F2381F8243081F8253081F826308C
:105A5000054B9847054B9847054B984710BD00BF2D
:105A6000000C00406072002045260000C157000075
:105A70007D590000032902D808440123C3747047EC
:105A8000032902D808440023C3747047042901D9AC
:105A9000002070470844130CC375130AC376C277FD
:105AA0007047C07B704790F82300704790F824003F
:105AB000704790F82500704790F82600704730B482
:105AC000C47B631C5A4203F0030302F0030258BF75
:105AD000534250FA83F2D27C012A08BFDCB210D0C4
