S0150000677269645F746F706C6576656C2E737265639F
S1130000603D0120F1020000ED020000ED0200005D
S1130010ED020000ED020000ED020000000000000F
S1130020000000000000000000000000ED020000DD
S1130030ED02000000000000ED020000ED020000EF
S1130040ED020000ED020000ED020000ED020000F0
S1130050ED020000ED020000ED020000ED020000E0
S1130060ED020000ED020000ED020000B1650000A9
S1130070ED020000ED020000ED020000ED020000C0
S1130080ED020000ED020000ED020000ED020000B0
S1130090ED020000ED020000ED020000ED020000A0
S11300A0ED020000ED020000ED020000ED02000090
S11300B0ED020000BD610000D1610000F55F0000A9
S11300C0016000000D600000196000002560000060
S11300D0ED020000ED020000ED020000ED02000060
S11300E0ED020000ED02000000000000000000002E
S11300F000000000E56300000D70000021700000A6
S113010035700000497000005D70000071700000DF
S11301108570000099700000ED020000ED020000FF
S1130120ED020000ED020000AD700000C17000009F
S1130130D5700000E9700000FD700000117100002E
S113014025710000397100004D71000061710000DB
S113015075710000897100009D710000B17100008B
S1130160C5710000D9710000ED020000ED0200002D
S1130170ED020000ED02000000000000000000009D
S1130180F5900000019100000D910000199100000C
S113019000000000ED020000ED020000ED0200008E
S11301A0ED020000ED020000ED020000ED0200008F
S11301B0ED020000ED020000ED020000ED0200007F
S11301C0ED020000ED020000ED020000ED0200006F
S11301D0ED020000ED020000ED020000ED0200005F
S11301E0ED020000ED020000ED020000FD7D0000C4
S11301F0117E0000257E0000397E0000ED02000023
S1130200ED020000ED020000ED020000ED0200002E
S1130210ED020000ED020000895C00009D5C00001E
S1130220B15C0000C55C0000ED020000ED020000BE
S1130230ED020000ED020000ED020000ED020000FE
S1130240ED020000ED020000ED020000ED020000EE
S1130250ED020000ED020000ED020000ED020000DE
S1130260ED02000010B5054C237833B9044B13B1EB
S11302700448AFF300800123237010BDC0050020A3
S1130280000000008CD300000C4B43B10C480D4916
S113029010B5AFF300800C48036823B910BD0A48B9
S11302A0036833B97047094B002BF7D0BDE8104001
S11302B01847064B002BF5D0184700BF000000007C
S11302C08CD30000C40500208CD300000000000083
S11302D008B5034B9847034B9847034B984708BD11
S11302E0250E000015B000000D9C0000FEE7000084
S11302F008B51C4B1C4A9A4210D01C4B194A9A420E
S11303000CD2013B9B1A23F0030304331344164914
S113031051F8040B42F8040B9A42F9D1144B154AD4
S11303209A420AD2013B9B1A23F003030433134479
S1130330002142F8041B9342FBD10F4B0F4A22F0D9
S11303407F029A60D3F8882042F47002C3F88820B0
S1130350BFF34F8FBFF36F8F094B9847094B9847F3
S1130360FEE700BF000000208CD30000BC05002085
S1130370603D0020C005002000ED00E0000000000A
S1130380F5B70000E1970000F0B585B01B4A136A89
S113039043F0800313624122194BC3F82021194E04
S11303A0194D00240294194B019301230093234611
S11303B0324617492846174FB8471023321D2146A5
S11303C02846154CA047154B80225A6002F1804202
S11303D09A624FF040429A6293F8472002F0FE027C
S11303E042F0010283F8472093F8332002F00F0211
S11303F042F0100283F8332005B0F0BD000800403D
S1130400001C0040DC050020301000202C110020CE
S1130410001C0043894000002D4100000080004181
S1130420F0B585B01E4A136A43F480731362412207
S11304301C4BC3F824211C4E1C4D002402941C4B5D
S1130440019301230093234606F114021949284617
S1130450194FB847102306F1180221462846174CB5
S1130460A047174B0422C3F8042102F18042C3F8C9
S113047028214FF04042C3F8282193F8422102F08A
S1130480FE0242F0010283F8422193F8312102F086
S1130490F00242F0010283F8312105B0F0BD00BF43
S11304A000080040001C0040DC050020041200206D
S11304B0CC0F002000200043894000002D410000A3
S11304C00080004108B5054A936943F00203936133
S11304D003490448044B984708BD00BF0008004086
S11304E000200041C80F0020C943000008B5094B93
S11304F04022C3F8AC20C3F8B020C3F8B420C3F83A
S1130500B820054A936943F080039361034B9847ED
S113051008BD00BF001C0040000800404D4400001E
S1130520024A136943F04003136170470008004016
S113053008B5034B984703490348044B984708BD43
S11305402105000000400041AC0F00206D44000074
S113055030B45A4B4FF40065C3F88450584AC3F87A
S1130560A8205848C3F8A80093F8CB2002F0FB0257
S113057083F8CB2093F8CB2002F0FE0242F0010274
S113058083F8CB2093F8B52002F00F0242F07002FA
S113059083F8B5204FF480729A604B4999624FF00A
S11305A040449C625A6193F8482002F0FB0283F8AD
S11305B0482093F8482002F0FE0242F0010283F83A
S11305C0482093F8342002F0F00242F0070283F846
S11305D034204FF400729A6001F5807199629C6234
S11305E05A6193F8492002F0FB0283F8492093F8FA
S11305F0492002F0FE0242F0010283F8492093F8F8
S1130600342002F00F0242F0700283F834204FF4D9
S1130610806199602D4A9A629C62596193F84A20DC
S113062002F0FB0283F84A2093F84A2002F0FE020B
S113063042F0010283F84A2093F8352002F0F002D8
S113064042F0070283F835209D60214A9A629C6239
S11306505D6193F84B2002F0FB0283F84B2093F882
S11306604B2002F0FE0242F0010283F84B2093F883
S1130670352002F00F0242F0700283F83520C3F8EF
S11306808410144AC3F8A820C3F8A80093F8CA2019
S113069002F0FB0283F8CA2093F8CA2002F0FE029B
S11306A042F0010283F8CA2093F8B52002F0F00268
S11306B042F0070283F8B52030BC70470080004147
S11306C000080240000002C0000100400004004095
S11306D00008004000040240064B1A6942F400522C
S11306E01A611A6942F400121A61DA6942F400527A
S11306F0DA6170470008004008B5044B9847044984
S11307000448054B9847054B984708BDD906000097
S11307100034004270120020194600005105000008
S1130720064B4122C3F89C204222C3F88C20044A81
S1130730536943F480535361704700BF001C004069
S113074000080040104B93F8512102F0FE0242F0E1
S1130750010283F8512193F8382102F00F0242F08C
S1130760300283F8382193F8502102F0FE0242F05F
S1130770010283F8502193F8382102F0F00242F08C
S1130780030283F8382170470080004110B582B01D
S1130790064B9847002300931023054A0549064851
S11307A0064CA047064B984702B010BD2107000035
S11307B004060020003000405C100020F94E0000C8
S11307C045070000064B4122C3F8A0204222C3F88B
S11307D08C20044A536943F400535361704700BFAB
S11307E0001C004000080040104B93F85B2102F00D
S11307F0FE0242F0010283F85B2193F83D2102F0EE
S11308000F0242F0200283F83D2193F85C2102F0AC
S1130810FE0242F0010283F85C2193F83E2102F0CB
S1130820F00242F0020283F83E217047008000414A
S113083010B582B0064B9847002300931023054A55
S113084005490648064CA047064B984702B010BD20
S1130850C50700001406002000340040B01000203A
S1130860F94E0000E9070000104B93F8D92002F07C
S1130870FE0242F0010283F8D92093F8BC2002F072
S11308800F0242F0300283F8BC2093F8D82002F023
S1130890FE0242F0010283F8D82093F8BC2002F053
S11308A0F00242F0030283F8BC207047008000414C
S11308B0064B4122C3F8DC204222C3F88C20044AB0
S11308C0936943F400739361704700BF001C0040B8
S11308D00008004008B5054B984700220449054824
S11308E0054B9847054B984708BD00BFB108000069
S11308F00020014124100020255100006908000057
S11309002B4B4FF48011C3F89410C3F888104FF0A8
S11309108040C3F8A800274AC3F8A82093F8D4203D
S113092002F0FE0242F0010283F8D42093F8BA20C8
S113093002F0F00242F0020283F8BA204FF40012EF
S1130940C3F89420C3F88820C3F8A8001A4AC3F84F
S1130950A82093F8D52002F0FE0242F0010283F8A9
S1130960D52093F8BA2002F00F0242F0200283F857
S1130970BA205960114A9A6202F1004210329A6216
S113098093F8542002F0FB0283F8542093F8542087
S113099002F0FE0242F0010283F8542093F83A2058
S11309A002F0F00242F0030283F83A20704700BFDD
S11309B000800041100000C0200000C00000024080
S11309C0064B4122C3F8E0204322C3F88C20044A9A
S11309D0936943F480639361704700BF001C004037
S11309E00008004008B5044B984704490448054BE7
S11309F09847054B984708BDC109000000400141D4
S1130A00240F00200948000001090000064B412280
S1130A10C3F808214222C3F88C20044A136A43F025
S1130A2001031362704700BF001C0040000800402F
S1130A30104B93F8C82002F0FE0242F0010283F842
S1130A40C82093F8B42002F0F00242F0030283F8C5
S1130A50B42093F8C92002F0FE0242F0010283F8A8
S1130A60C92093F8B42002F00F0242F0300283F858
S1130A70B42070470080004110B582B0074B9847FE
S1130A80002300931023064A4FF086410548064C84
S1130A90A047064B984702B010BD00BF0D0A0000E6
S1130AA02406002064110020F94E0000310A0000E1
S1130AB0164B93F8572002F0FB0283F8572093F863
S1130AC0572002F0FE0242F0010283F8572093F807
S1130AD03B2002F00F0242F0300283F83B2093F8EF
S1130AE0562002F0FB0283F8562093F8562002F0B9
S1130AF0FE0242F0010283F8562093F83B2002F0F4
S1130B00F00242F0030283F83B207047008000416A
S1130B10064B4122C3F80C214222C3F88C20044A1C
S1130B20136A43F002031362704700BF001C0040C5
S1130B300008004008B5044B984704490448054B95
S1130B409847054B984708BD110B0000000400436B
S1130B50E40F00204D450000B10A0000064B41227D
S1130B60C3F810214222C3F88C20044A136A43F0CC
S1130B7004031362704700BF001C004000080040DB
S1130B80104B93F84D2102F0FE0242F0010283F86B
S1130B904D2193F8362102F00F0242F0300283F81F
S1130BA0362193F84C2102F0FE0242F0010283F850
S1130BB04C2193F8362102F0F00242F0030283F84C
S1130BC0362170470080004110B582B0064B98472B
S1130BD0002300931023054A05490648064CA04704
S1130BE0064B984702B010BD5D0B00003406002090
S1130BF000080043B4110020F94E0000810B0000EE
S1130C00294B4FF08042C3F89420C3F88820C3F8DE
S1130C10A8202649C3F8A81093F8DE1001F0FE01BD
S1130C2041F0010183F8DE1093F8BF1001F0F001E8
S1130C3041F0020183F8BF104FF00041C3F8941053
S1130C40C3F88810C3F8A8201949C3F8A81093F86A
S1130C50DF1001F0FE0141F0010183F8DF1093F889
S1130C60BF1001F00F0141F0200183F8BF105A605A
S1130C7002F500329A620F4A9A6293F85E2002F0FB
S1130C80FB0283F85E2093F85E2002F0FE0242F03D
S1130C90010283F85E2093F83F2002F0F00242F054
S1130CA0020283F83F20704700800041004000C0EA
S1130CB0008000C0004002C0064B4122C3F814214A
S1130CC04222C3F88C20044A136A43F008031362D7
S1130CD0704700BF001C00400008004008B5044BEA
S1130CE0984704490448054B9847054B984708BD65
S1130CF0B90C0000000C0043001100206D4A0000F4
S1130D00010C000008B50248024B984708BD00BF1B
S1130D1010E000E0F94300001E4B4FF080729A602F
S1130D204FF0804199621C4898625A6193F85820A8
S1130D3002F0FB0283F8582093F8582002F0FE02D8
S1130D4042F0010283F8582093F83C2002F0F002AC
S1130D5042F0070283F83C204FF000729A609962D7
S1130D600E4999625A6193F8592002F0FB0283F804
S1130D70592093F8592002F0FE0242F0010283F850
S1130D80592093F83C2002F00F0242F0700283F8DD
S1130D903C20704700800041000100C0000200C0F8
S1130DA04122074BC3F8A820A3F5A0531A6942F4C3
S1130DB080621A619A6942F001029A61704700BF29
S1130DC0001C004008B5034B9847034B9847034B5E
S1130DD0984708BDA10D0000ED530000190D000057
S1130DE0024A536943F4807353617047000800401A
S1130DF008B5064B9847482205490120054B9847FA
S1130E000548064B0360064B984708BDE10D0000FA
S1130E1018CA000045570000AC1000200020004014
S1130E20259100002DE9F041A34B9847A34B2022C4
S1130E305A619A6002F180429A624FF040429A628B
S1130E4093F8451001F0FE0183F845104FF40010AB
S1130E5058609B4E9E629B49996293F8551001F02D
S1130E60FB0183F8551093F8551001F0FE0183F847
S1130E7055108021C3F8841001F1804101F500313F
S1130E80C3F8A810904DC3F8A85093F8C71001F008
S1130E90FB0183F8C71093F8C71001F0FE0183F833
S1130EA0C7104FF40051C3F89410C3F8881001F12F
S1130EB08041C3F8A810C3F8A82093F8CD1001F01E
S1130EC0FE0183F8CD104FF48041C3F89410C3F8A9
S1130ED088104FF04027C3F8A870C3F8A82093F8EF
S1130EE0CE4004F0FE0483F8CE404FF40044C3F82F
S1130EF08440764CC3F8A840C3F8A85093F8CF4078
S1130F0004F0FB0483F8CF4093F8CF4004F0FE04D0
S1130F1083F8CF404FF40064C3F80441DFF83CE2A7
S1130F20C3F828E1C3F82851C3F8044193F84B519E
S1130F3045F0040583F84B51C3F8184193F84B412D
S1130F4004F0FE0483F84B41C3F81411C3F80811EC
S1130F50C3F82871C3F8282193F84E2102F0FE0249
S1130F6083F84E214FF48022C3F80421C3F828618A
S1130F70574AC3F8282193F8522102F0FB0283F860
S1130F80522193F8522102F0FE0283F852214FF4C9
S1130F900022C3F81421C3F808214FF08042C3F89B
S1130FA028214C49C3F8281193F8531101F0FE018C
S1130FB083F853114FF48011C3F81411C3F80811C6
S1130FC0C3F828214449C3F8281193F8541101F0B7
S1130FD0FE0183F85411C3F81401C3F80801C3F8DF
S1130FE028213E4AC3F8282193F8552102F0FE0235
S1130FF083F855213A4B98473A4B98473A4B9847D0
S11310003A4B98473A4B98473A4B98473A4C63695E
S113101043F400736361394B9847024638493948B1
S1131020394DA847394B9847394B9847394B98471E
S1131030394B9847394B9847394B9847394B984720
S1131040394B9847394B9847636943F4804363614C
S1131050A7F510574FF04008C7F8A480344EB047A6
S1131060024634493448A847636943F40043636142
S1131070C7F8A480B047024630493148A847A3695D
S113108043F40053A361C7F8E880B04702462D49F2
S11310902D48A847A36943F48043A361C7F8E880B7
S11310A0B047024629492A48A8472A4B98472A4B61
S11310B09847BDE8F08100BF095D00000080004151
S11310C000000240200002C0000002C00080024074
S11310D0040002C0080000C0100000C0200000C0CE
S11310E08903000021040000C5040000ED04000091
S11310F031050000F906000000080040A965000061
S1131100002400406C0F0020154C00008D070000E7
S113111031080000D5080000E5090000790A000044
S1131120350B0000C90B0000DD0C0000050D0000AC
S1131130F57D00000038004050120020003C0040C3
S11311404411002000A001418C0F002000C0014187
S113115030120020C50D0000F10D0000000802400F
S113116038B504460D4601714271837100234381F1
S11311704800094B984720604DB100231946226866
S113118022F813100133DBB222799A42F7D80020F7
S1131190A081208138BD00BF3DB800002DE9F04793
S11311A0054689461746984600010C4B98470C4B58
S11311B0186085B1013DEDB201352D0100249A4638
S11311C0084E43463A464946DAF800002044B04700
S11311D01034AC42F5D10020BDE8F0873DB80000E2
S11311E0BC170020611100002DE9F04F00013C4BB9
S11311F0D3F800A00AEB000C9CF80460002E5BD02E
S11312005AF80050023D00229046914696464FF609
S1131210FF7714465FFA82FB35F8023F1C4473459E
S113122084BFD8469E46BB423CBFD9461F460132C6
S1131230D3B2B342EED3B4FBF6F6B6B28E423FD28B
S11312405AF800300C4433F81920A41A23F8191062
S11312509CF80430B4FBF3F49CF806309CF8055079
S1131260A6B2C3F11000C0B2EB1AD9B246FA00F329
S11312709BB28B409FB2BCF80A20921B002AB8BFD5
S11312805242012606FA00F0BCF80860BE4220D0A3
S1131290824208DC012202FA05F502FA01F1691A18
S11312A08F4200D0C7B9ACF80A40ACF808700120EE
S11312B0ACF80C00BDE8F08FB046B1460024BAE7A4
S11312C05AF800300C4433F81820A41A23F81810E4
S11312D0BEE70020BDE8F08F0020BDE8F08F00BF1E
S11312E0BC170020024B1B6803EB0010007B704707
S11312F0BC170020094B1B6803EB001000238381FB
S1131300CB1FDBB2072B06D803894079401A43FA76
S113131000F080B270470020FBE700BFBC1700203C
S113132038B504460D4601800023C38103814381FF
S113133083810382438283820846084B9847606016
S113134000B9FEE745B1002319466268D154013360
S11313509BB222889A42F8D8012038BD3DB80000DB
S11313600389028A93428FBF981A0088C018801A92
S113137080B2704710B40389028A93429CBF0488E8
S11313801B199B1A9BB28B420AD90A44048892FB0C
S1131390F4F304FB1322428208465DF8044B7047C1
S11313A00020FAE7838A4268D154838A01339BB2CE
S11313B00188B3FBF1F201FB1233838201207047F1
S11313C0838A428A9A4200D0FEE703820120704752
S11313D0838942899A4200D0FEE702899A4200D06A
S11313E0FEE7F0B4058AAB4225D00488FCB126465A
S11313F093FBF4F204FB123291B28D421DD040688B
S1131400425C0A2A14D10023013398B2F0BC70471D
S113141092FBF6F106FB11218FB2BD420FD00132CF
S1131420C15D0A29F0D001339BB2A342F0D1FEE79B
S11314305A1C0023F7E70020E8E70020E6E7002035
S1131440E4E782894389934200D0FEE7038993420B
S113145000D0FEE7F0B5058AAA4231D004885CB317
S1131460264692FBF4F304FB132399B28D4229D050
S113147047680B46795C0A291FD10021013393FB8D
S1131480F4F204FB123343814B1C9BB2C381184614
S1131490F0BD92FBF6F306FB13231FFA83FE75459A
S11314A012D07346013217F80EE0BEF10A0FE5D0F0
S11314B0013189B2A142ECD1FEE701320021F7E704
S11314C00023E4E70023E2E70023E0E7838941897E
S11314D099420ED010B402464168C85C01339BB2F5
S11314E01488B3FBF4F104FB113393815DF8044BCE
S11314F07047FEE7838942899A4200D0FEE7038160
S1131500012070472DE9F041044690461F469DF89E
S1131510185000F59B60334EB047414604F59E6079
S1131520B047002323609DF82020A2729DF81C2060
S1131530627267602572A381E3611946E21882F83A
S113154028100133B3F5167FF8D100231946E218A9
S113155082F880120133B3F5167FF8D1002384F8A2
S11315600C35C4F80835012384F80F359D4204D0A6
S1131570012384F80F35BDE8F081002384F80F358A
S113158084F80C35637ADBB2112B13D0637ADBB2A7
S1131590122B17D0637ADBB2132B1BD0637ADBB226
S11315A0142BE8D1FF2384F80D35002384F80E357D
S11315B0BDE8F081002384F80D35012384F80E354D
S11315C0BDE8F081012384F80D35002384F80E353D
S11315D0BDE8F081002384F80D35FF2384F80E352F
S11315E0BDE8F081211300002DE9F04784B0002606
S11315F002961123019301240094254B4FF47A722F
S113160011462448244DA8470294122301930094C0
S1131610224B4FF47A7211462148A8474FF0020931
S1131620CDF808901323019300941E4B4FF47A7263
S113163011461D48A84703270297142301930094D9
S11316401A4B4FF47A7211461948A847DFF868809C
S11316504FF0FF0ACDF808A00196009733464FF4E7
S11316607A7211464046A847124FCDF808A0019659
S1131670CDF8009033464FF47A7211463846A847A5
S113168088F80F4587F80F4504B0BDE8F08700BF20
S1131690B010002084120020051500005C1000200A
S11316A0EC300020B4110020C82600206411002072
S11316B0A4210020DC2B0020D41700202DE9F04FBA
S11316C091B002AF786000F59E694846544B984744
S11316D020B900203C37BD46BDE8F08F8046C7F8EE
S11316E000D0504BBB60504BFB60504B3B61504BA8
S11316F07B61504BBB61504BFB6107F1080307F161
S11317002001002601E08B420ED053F8042B92F8FE
S11317100F050028F7D007F1380000EB860040F8E9
S1131720182C0136F6B2EEE7002E68D007F1200A35
S1131730741EE4B201340AEB84045546DFF818B190
S113174001E0A54216D055F8040B7B688342F8D01B
S113175000F59B60D8478045F3D9C8230193022341
S113176000930023642211463448354CA047D7F82F
S113177000D0AEE74846334B9847804500D0FEE79B
S1131780314C01E0AA453FD05AF8040B7B688342F0
S1131790F8D0414600F59B60A047F3E7A54209D085
S11317A054F8040B7B688342F8D0396800F59B60D9
S11317B0D847F3E70AF1010A1FFA8AF3434508D22E
S11317C04846224B98473860002EF3D007F1200496
S11317D0E6E748461E4B9847002E3FF47BAF07F1DF
S11317E020041C4E02E0A5423FF474AF54F8040BED
S11317F07B688342F7D000F59B60B047F3E7484627
S1131800104B98474045BAD1751EEDB207F1380325
S113181003EB8505143D4FF0000ADFF840B0CFE735
S1131820D113000084120020EC300020C8260020D0
S1131830A4210020D4170020DC2B0020F41C00205D
S11318409D3700004314000075130000CD14000000
S1131850F5140000C113000061130000A51300007B
S11318602DE9F04F9BB006AF386400F59B66304617
S11318708F4B984718B95437BD46BDE8F08F0446DE
S113188030468C4B98470025DFF86892DFF82C82AD
S11318903046C84708F805000135EDB2ABB29C42AA
S11318A0F6D83046844B9847844D2846844B984755
S11318B0B8632846834B98477F3843B21E467B6102
S11318C02846814B98477F3843B2BB6128467F4BFB
S11318D098477863002587F84F50BB693B63C3F191
S11318E040039B003B62FE627301FB61631E9BB27B
S11318F003F1010AAB467D64DFF8C09106E05FFAAC
S11319008BF50BF1010BD34500F0CB8119F80B30AB
S1131910DBB2022BF3D019F80B30DBB2032BF0D17E
S1131920002DEED02C46681C07F14F0202214844DA
S1131930674B984710F0FF061FD0032E00F08280FB
S1131940012E00F0D980042E00F06081022E00F0F8
S1131950A6817D6C05F128043B6C1C44C2B25D4930
S113196020465D4B984720465C4B984705EB0008A2
S11319705FFA88F37B640025C3E7E81C07F14F0294
S113198002214844524B9847681D07F14F02022137
S113199048444F4B98475FFA80F8E81D07F14F021F
S11319A0022148444A4B9847044605F1090007F1CF
S11319B04F0202214844464B9847494B597A3B6AA7
S11319C019444B4201F00F0203F00F0358BF5A426F
S11319D07B6C2833396C19440D46E4B204F58074E9
S11319E0FB691C44634204F07F0403F07F0358BF87
S11319F05C42E4B2C1B2B96205910494CDF80C80A2
S1131A00FA6397F83C300293786B0190386B00903E
S1131A10FB6ABA6B33497D6228462F4DA847786A22
S1131A202E4B98477A6C1044C2B27A64FA6B48EA37
S1131A300201BB6A2246C9B24FEA18102A4CA047D9
S1131A4035465EE77B69002B40F02781BB690BB10B
S1131A50002556E7E81C07F14F02022148441C4BBD
S1131A6098470646681D07F14F0202214844184B67
S1131A7098470546E01D07F14F0202214844144BE4
S1131A809847804604F1090007F14F0202214844B7
S1131A900F4B9847EDB2632D01D0002531E7C3B257
S1131AA0F2B25FFA88F11148114CA047002528E7EB
S1131AB0D113000043140000F51400003036002058
S1131AC0F93A0000193B0000393B0000593B000083
S1131AD0F1370000F0CA000021BC000069BC00001E
S1131AE0F41C002034CA000095A600000036002033
S1131AF02D1F0000CD140000C7F824D05FFA8BF32B
S1131B005B1B033B6A4A82FB0312A2EBE373DBB267
S1131B1019463B6103EB4303073323F00703ADEBA3
S1131B20030D06AB1E46FB60002964D0033404EBAE
S1131B3009084B1EDBB203EB4303093505EB4303F2
S1131B404B44BB62FE63C7F808B0D7F844B0C7F88B
S1131B5004A007F14F0202214046564B9847044621
S1131B6007F14F02022108EB0100524B984705464A
S1131B7007F14F02022108F104004E4B9847064634
S1131B800BF1280A3B6C9A444B4B98470590E4B2FE
S1131B900494EDB203957E6497F8443002937B6B12
S1131BA001933B6B0093FB6ABA6B44495046444E25
S1131BB0B0475046434B984783445FFA8BFB97F8F2
S1131BC04430F96B0B70822D14BF002501250B46A0
S1131BD04D70802C14BF002401248C7008F1060879
S1131BE00333FB63BB6A9845B3D1C7F844B0D7F855
S1131BF008B0D7F804A03969F868334B9847C0B2E5
S1131C00324B5870D7F824D000257AE6E81C07F147
S1131C104F0202214844274B98470546601D07F1AF
S1131C204F0202214844234B98478046E01D07F1A8
S1131C304F02022148441F4B9847EBB2642B01D05A
S1131C4000255EE65FFA88F3652B01D0002558E68F
S1131C50C4B221461E481F4B98477B6C03F12806EB
S1131C603A6C164404945FFA88F30393EDB2029538
S1131C707A6B01923A6B0092FB6ABA6B1649304652
S1131C800F4CA04730460F4B98477B6C03EB000882
S1131C905FFA88F37B64002533E6002531E60025EE
S1131CA02FE6796C386C28300C4B9847E3E500BF7D
S1131CB0ABAAAA2AF1370000693800007CCA0000E8
S1131CC021BC000069BC000011A1000024380020E0
S1131CD0F41C002059390000C4CA0000D19E000041
S1131CE0F8B500F59B6528460A4B984700B9F8BD3E
S1131CF006462846084B98470024084F2846B8470C
S1131D000134E4B2A3B29E42F8D82846044B984763
S1131D10EDE700BFD113000043140000CD14000010
S1131D20F5140000838903B170472DE9F04105469D
S1131D3000F59B663046114B98470446074610B998
S1131D400020BDE8F08130460D4B9847AC8100245B
S1131D50DFF838803046C0472B1983F82800013457
S1131D60E4B2A742F6D83046064B9847AA8905F153
S1131D7028016868044B9847BDE8F081D11300003E
S1131D8043140000F5140000B9450000CD14000010
S1131D900122014B1A7070478012002030B444783D
S1131DA08C4202D8FF2030BC704701EB410189000E
S1131DB0094C54F82350C3685D5054F82220C3687A
S1131DC00B445A609DF8083054F82320C368194422
S1131DD08A600020E7E700BF941D002010B5064C80
S1131DE000F114012046054B9847054A002120467E
S1131DF0044B984710BD00BF00110020114B000098
S1131E00911D0000E14A0000407870474378F3B127
S1131E1010B4002303EB430203EB820102690A447A
S1131E20D17A147B2144D17242781A4402EB4201E4
S1131E3002EB810201690A44D17A147B2144D172F4
S1131E400133DBB242789A42E4D85DF8044B704720
S1131E5070B4447802FB0414056904EB440604EBF3
S1131E6086042B55437802FB0313046903EB4305F3
S1131E7003EB850323449DF80C405C70437802FB1C
S1131E800312036902EB420102EB81021A449DF83A
S1131E901030937070BC704770B4447802FB041423
S1131EA0056904EB440604EB86042C44E370437890
S1131EB002FB0313046903EB430503EB850323448B
S1131EC09DF80C401C71437802FB0312036902EB7A
S1131ED0420102EB81021A449DF81030537170BC28
S1131EE0704770B4447802FB0414056904EB44069B
S1131EF004EB86042C44A371437802FB03130469A6
S1131F0003EB430503EB850323449DF80C40DC718C
S1131F10437802FB0312036902EB420102EB8102E4
S1131F201A449DF81030137270BC704710B4447892
S1131F3002FB0412016902EB420002EB80020A4434
S1131F40D3725DF8044B704710B4447802FB04125A
S1131F50016902EB420002EB80020A4413735DF84C
S1131F60044B70472DE9F04F83B004464170CDB265
S1131F7005EB45008000903060603E4FB847064650
S1131F80A06000F19003E3601A2000FB05F0B8475D
S1131F90002E6ED000286CD0206100231946A26860
S1131FA0D1540133902BFAD16378002B5ED00025F5
S1131FB02E46314F00963346324629462046B847CE
S1131FC001356378AB42F5D8002B4FD00026DFF8FB
S1131FD0B0B0DFF8B0A00025019500952B462A4645
S1131FE031462046D84701957F2300932B462A4645
S1131FF031462046D0470195FF2300932B462A46BD
S113200031462046DFF88090C8472B462A463146A1
S11320102046DFF87880C0472B462A4631462046C2
S1132020164FB847019500952B46012231462046AC
S1132030D847019500952B46012231462046D047CA
S1132040019500952B46012231462046C8472B4670
S1132050012231462046C0472B4601223146204604
S1132060B8470136F6B26378B342B4D803B0BDE8DA
S1132070F08FFEE73DB800009D1D00002D1F0000FD
S1132080511E0000991E0000E31E0000491F0000BD
S11320902DE9F04F83B090F801C00CEB4C030CEB2E
S11320A0830C01EB410401EB840304691C44022703
S11320B04FF0000E73467246DFF88480E67A18F813
S11320C00690464496F8005196F8006294F800A0F1
S11320D094F803B005FB0BFB09FB0ABB94F806A0BC
S11320E006FB0ABA524494F801A094F804B005FB24
S11320F00BFB09FB0ABB94F807A006FB0ABA53447E
S113210094F802A094F805B005FB0BF509FB0A59F5
S1132110257A06FB0595AE44013F644417F0FF079A
S1132120CCD1CEF347240094C3F34723C2F3472210
S1132130024CA04703B0BDE8F08F00BF9D1D000016
S11321400000002043785BB170B505460024054EBD
S113215021462846B04701346B78A342F8D870BDB5
S1132160704700BF9120000010B504460022084BC0
S11321701A700848084B9847A288A1686069074B01
S11321809847034A1378DBB2012BFBD110BD00BF83
S11321908012002000110020B94A0000B945000057
S11321A02DE9F04F85B00646204B1B78DBB2202B7F
S11321B00AD04FF0010BCDF80CB04FF0FF0A4FF0EE
S11321C00009DFF874801EE04FF0020B0023039334
S11321D0F3E700952B463A4621463046C047013482
S11321E0E4B27378A342F4D83046114B98470120E7
S11321F0104B984709F101095FFA89F90AF1FF3A8E
S11322001AF0FF0A0FD07378002BEDD00BFB09F7FF
S113221007F0FF07039B09FB03F50BFB05F505F02E
S1132220FF050024D5E705B0BDE8F08F000C0040A1
S1132230692100002D4400009D1D000070B5044676
S11322402B4E002293B203F00100002814BF4FF07C
S113225060604FF00060C3F34005002D14BF4FF0E1
S113226060454FF000450543C3F38000002814BFC8
S11322704FF460204FF400202843C3F3C005002D21
S113228014BF4FF460054FF400052843C3F3001551
S1132290002D14BF4FF460654FF400650543C3F38C
S11322A04010002814BF4FF460404FF40040054331
S11322B0C3F38010002814BF0E2008202843C3F362
S11322C0C013002B14BFE0238023034346F8043FCC
S11322D00132B2F5807FB5D12046064B984720469F
S11322E0054B98472046054B9847002070BD00BF1A
S11322F0901D0020651F0000DD1D0000A1210000CD
S113230010B504460022054B1A700548054B984742
S1132310A288A1686069044B984710BD8012002010
S113232000110020B94A0000B9450000014B18789B
S1132330704700BF8012002008B54FF48042134B51
S1132340C3F81821124B984778B1114B984780284D
S11323500FD00F4B984740280FD00D4B9847C028FB
S11323600FD00C480C4B984708BD0C480C4B9847B1
S1132370EBE70A480B4B9847EBE708480A4B9847AA
S1132380EBE70648094B9847EBE700BF00800041A4
S113239069380000F41C0020F1360000E41C002021
S11323A07D330000FD25000035300000712B000056
S11323B010B50348034CA0470348A04710BD00BF15
S11323C0301000208543000004120020704B1B785D
S11323D0002B00F0D6802DE9F04383B00023ADF844
S11323E00630ADF804306A4B5A78083269498D5C7E
S11323F0EDB25A78D2B28C5CE4B25A780132D2B2DD
S11324005A705A7802F007025A705B7813F0010F81
S11324104FF40022604B14BFC3F81821C3F81421F1
S11324205B4B5B7813F0020F4FF480125A4B14BFCE
S1132430C3F81821C3F81421554B5B7813F0040F2B
S11324404FF40012544B14BFC3F81821C3F81421DD
S113245002230DF1060200215048514EB0470223D9
S113246001AA00214F48B047BDF8062042F210737C
S11324709A428CBF00237F23ADF80630BDF80420B8
S113248042F210739A428CBF00237F23ADF80430CC
S11324902E01454B9B683344DA681278BDF8061068
S11324A091422ED0002A0CBF4FF07F094FF0000953
S11324B058680CBF9022802202210530DFF8F0809A
S11324C0C047394FBB68334458682A460221073055
S11324D0C047BB68334458684A4602210930C047A4
S11324E0BB68334458684FEA490202211530C0479B
S11324F0BB681E44F36883F80090294638462B4B8A
S113250098472501284B9B682B44DA681278BDF85C
S1132510041091422DD0002A0CBF4FF07F084FF0D9
S1132520000858680CBF9022802202210530204FF9
S1132530B8471D4EB3682B44586822460221073021
S1132540B847B3682B445868424602210930B8475B
S1132550B3682B4458684FEA480202211530B84743
S1132560B3681D44EB6883F80080214630460F4B66
S113257098470022064B1A700E4B984703B0BDE8EB
S1132580F083034A13780133DBB21370704700BF42
S11325904406002000030020008000413010002089
S11325A0A542000004120020E41C0020633E000049
S11325B031380000B1230000F8B50B4F0B4C3B46FB
S11325C00022114620460A4EB0470A4D3B460022DF
S11325D011462846B04700212046074CA047002159
S11325E02846A047F8BD00BFCD23000030100020CE
S11325F02542000004120020E54100002DE9F04FBF
S11326009BB0804610212648264B9847102140460F
S1132610254B98470DF137070025244EDFF8A4A079
S1132620DFF8A4900EAC96E80F0084E80F000323B3
S11326300B9300240A9417F8012F0992632208923D
S1132640079406934FF0020BCDF814B0049303944F
S1132650029590230193009423465A46514612A8AA
S1132660C84712A8124B98478DF834408DF835406E
S1132670CDF804B00DAB0093C3B212AAE9B2404640
S11326800C4CA0470135102DCCD140460A4B98473D
S11326900A4B98470A4B98471BB0BDE8F08F00BF20
S11326A0003600203D220000C53C00000CCB000099
S11326B069BC0000813D0000A13D0000B925000077
S11326C0B12300001CCB000021BC000010B54FF466
S11326D00012064B9A61064C2046064B9847082385
S11326E0054A06492046064CA04710BD008000411B
S11326F0240F00208D480000C41700201003002080
S11327002D490000000000002DE9F04F83B04FF484
S11327100012AD4B5A61AD4E4FF0000887E0387897
S1132720AB4901EB0011C978D14205D4A84A02EBA8
S113273000100B44C3700AE0A54B03EB0010002308
S1132740C37004E0A24B03EB00107F23C3703978FD
S11327501031C9B29F48A04B9847002840F0268109
S11327603A789C4B9B6803EB0213D3F80C3100229C
S11327701A70402309FB0434E4B23A7802F11001E0
S1132780944B9B6803EB0113D9680978A14247D0A5
S11327908F4901EB021292F803904FEA49095FFA5C
S11327A089F95868B02202210530DFF860A2D047C9
S11327B03A78884DAB6803EB0213D3F80401022185
S11327C00730D0473A78AB6803EB0213D3F804011F
S11327D0224602210930D0473A78AB6803EB021352
S11327E0D3F80C311C7039781031C9B228467B4CAF
S11327F0A0473A78AB6803EB0213D3F804024A46C5
S113280002210930D0473A78AB6803EB0213D3F8BE
S11328100C3283F8009039782031C9B22846A04799
S113282008F101080136B8F1100F00F033815FFAA6
S113283088F14B086A4AD35C01F00102920013410B
S1132840DBB203F00F05674A12F80820D2B29542B2
S1132850E6D0654A1170A908C5F3400503F00104E8
S1132860374633785A4A02EB031252788A4240D0F0
S1132870574A02EB031201209070517003441B016C
S1132880544A52681A44D2681278002A0CBF4FF096
S11328907F0A4FF0000ADFF83C91D9F8082013446E
S11328A053F80C0C0CBF9022802202210530DFF873
S11328B05CB1D8473278D9F8083003EB0213586872
S11328C002210730D8473278D9F8083003EB0213D5
S11328D05868524602210930D8473278D9F808306E
S11328E003EB0213DB6883F800A0317848463B4BC6
S11328F098473A78364B03EB02135B7BAB4200F00C
S1132900D180A54214BF4FF0FF394FF00109304B7D
S113291003EB02114D738C7389693448344B984727
S11329200190019BB3F5C87F84BF4FF4C873019332
S1132930019B132B9CBF14230193019B019800FB63
S113294003F0C0F51C3000F580702A4B98471CA397
S1132950D3E90023284CA0470022284B284CA04749
S1132960284B9847C4B23D782048274B9847184BCA
S113297003EB0513986004FB09939BB21AB2B9F1F7
S1132980000FFFF6CCAEB9F1000F7FF7E0AE387858
S11329900F4901EB0011C9780A447F2A3FF7D2AEF0
S11329A00B4A02EB00100B44C370D0E63A78094B93
S11329B09B6803EB0213D3F80C311B78DAE600BFF3
S11329C0000000000088E340008000412003002054
S11329D030380020E41C0020573E0000633E000015
S11329E0C4170020AC17002094170020F41C00200A
S11329F035370000A5B20000E5B500000000F03F47
S1132A002DB00000B5B700003137000031380000A8
S1132A10013BDBB2344901EB0211CB705B00DCB249
S1132A20324DAB6803EB0212D2F8040222460221B3
S1132A3009302F4B98473A78AB6803EB0213D3F86D
S1132A400C321C7039782031C9B22846294B98477A
S1132A503AE00133DBB2244901EB0211CB705B0095
S1132A60DCB2224DAB6803EB0212D2F80402224618
S1132A70022109301E4B98473A78AB6803EB0213E6
S1132A80D3F80C321C7039782031C9B22846194B5E
S1132A90984720E00022184B1A70184B984703B04F
S1132AA0BDE8F08F104B03EB021294739168144845
S1132AB0144B9847C8287FF6B3AE3A780A4B03EB19
S1132AC00213DB78402BA3D83A78074B03EB0213AD
S1132AD0DB783F2BBDD93C7809480B4B9847024B18
S1132AE003EB041398609BE630380020E41C0020BC
S1132AF031380000633E00002C360020CD26000053
S1132B00F41C0020353700003137000010B50E4B9F
S1132B104FF400125A619A604FF080429A620B4A55
S1132B209A620B4C032120460A4B98470A492046D7
S1132B300A4B98470A4920460A4B98470A4A0021FB
S1132B4020460A4B984710BD00800041200000C079
S1132B50240F0020F1480000801A0600B548000048
S1132B60A8170020D9490000092700009549000052
S1132B702DE9F04391B0814610213048304B9847FD
S1132B80302148462F4B98470024DFF8D88025464B
S1132B902FE003230493039502949023019300955B
S1132BA02B460222414608A8274FB8470DE00323CD
S1132BB004930395A4F120020292632201920095EA
S1132BC00222414608A8204FB84708A81F4B98473F
S1132BD08DF81C508DF81D500223019307AB009310
S1132BE0034608AA31464846194EB0470134302CF2
S1132BF012D0E6B20F2ECCD91F2ED8D803230493BB
S1132C00039502949023019300952B46022241469A
S1132C1008A80D4FB847D8E748460E4B98470023FD
S1132C200D491A0153540133102BFAD10B4B984719
S1132C300B4B984711B0BDE8F08300BF003600206D
S1132C403D220000C53C000021BC000069BC00001E
S1132C50813D0000A13D0000303800200D2B000014
S1132C60CD26000034CB000010B50348034CA04728
S1132C700348A04710BD00BF30100020854300006A
S1132C800412002000000000B14B1B78002B00F060
S1132C900A812DE9F04F83B00023ADF80630ADF87A
S1132CA00430AC4B1A780832AB498E5CF6B21A7811
S1132CB0D2B28D5CEDB21A780132D2B21A701A789F
S1132CC002F007021A701B7813F0010F4FF4002270
S1132CD0A24B14BFC3F81821C3F814219D4B1B78D1
S1132CE013F0020F4FF480129C4B14BFC3F8182149
S1132CF0C3F81421974B1B7813F0040F4FF4001200
S1132D00964B14BFC3F81821C3F8142102230DF104
S1132D10060200219248934CA047022301AA0021F5
S1132D209148A047DFF860B2BDF80600D847DFF845
S1132D305CA285A3D3E90023D047DFF85492C847A7
S1132D404FF6FF74A04228BF204607461FFA80F8BA
S1132D50ADF80680BDF80400D8477BA3D3E900236F
S1132D60D047C847A04228BF204680B2ADF804002F
S1132D70A5F10803DBB2012B40F28D800D2E40F249
S1132D80988042F2107398458CBF00237F23ADF8DE
S1132D90063042F2107398428CBF00237F23ADF8B3
S1132DA0043006F18054043C2401704B9B68234496
S1132DB0DA681278BDF8061091422FD0002A0CBFB1
S1132DC04FF07F094FF0000958680CBF9022802211
S1132DD002210530DFF8AC81C047644FBB6823444F
S1132DE05868324602210730C047BB6823445868FC
S1132DF04A4602210930C047BB68234458684FEA59
S1132E00490202211530C047BB681C44E36883F8BB
S1132E100090311FC9B23846554B984705F180548C
S1132E20043C2401514B9B682344DA681278BDF8B2
S1132E30041091422FD0002A0CBF4FF07F094FF0AD
S1132E40000958680CBF9022802202210530DFF867
S1132E503481C047454FBB68234458683246022139
S1132E600730C047BB68234458684A4602210930EA
S1132E70C047BB68234458684FEA49020221153011
S1132E80C047BB681C44E36883F80090291FC9B29B
S1132E903846374B984700222D4B1A70354B9847CC
S1132EA003B0BDE8F08F2A4A13780133DBB2137004
S1132EB07047012D36D9B9B230462F4CA047BDF822
S1132EC004102846A04730462C4B9847002861D16F
S1132ED028462A4B98470028DDD007212846284B4E
S1132EE0984706464FEA0518204CA368434458689F
S1132EF02A4602210730234FB847A3684344586841
S1132F00F2B202210930B8477200A36843445868FA
S1132F1002F0FE0202211530B84729462046144B20
S1132F209847B8E7B9B24FF6FF78A8EB01013046ED
S1132F30114CA047BDF80410A8EB01012846A04796
S1132F40C1E700BFAFF300807B14AE47E17AF03FE6
S1132F50C0170020FC35002034030020008000410D
S1132F6030100020A542000004120020E41C0020C0
S1132F70633E0000692C0000E9110000E512000026
S1132F80F512000031380000C5B2000091B3000012
S1132F90B5B7000007213046114B984707464FEA62
S1132FA00619104CA3684B44586832460221073076
S1132FB0DFF83880C047A3684B445868FAB202214E
S1132FC00930C0477A00A3684B44586802F0FE02F7
S1132FD002211530C04731462046034B984777E716
S1132FE0F5120000E41C0020633E000031380000AC
S1132FF0F8B50B4F0B4C3B460022114620460A4EB7
S1133000B0470A4D3B46002211462846B0470021EE
S11330102046074CA04700212846A047F8BD00BF22
S1133020892C0000301000202542000004120020EA
S1133030E54100002DE9F04397B0814607230E22B5
S113304005211020234CA0470C212348234B9847EB
S11330500C214846224B98470025DFF8A0802C46D7
S1133060EEB2072E4FF003030B930A9409954FF029
S113307063020892079406934FF0020205920493A8
S11330800394029594BFB0239023019300942346A4
S113309041460EA8134FB8470EA8134B98478DF816
S11330A034408DF83540022301930DAB0093C3B235
S11330B00EAA314648460D4EB04701350C2DCFD1EE
S11330C048460B4B98470B4B98470B4B984717B008
S11330D0BDE8F0839D110000003600203D22000071
S11330E0C53C000021BC000069BC0000813D00001B
S11330F0A13D0000F12F0000692C00001CCB000052
S113310010B50348034CA0470348A04710BD00BFB7
S1133110301000208543000004120020000000004D
S1133120754B1B78002B00F085802DE9F04782B0A9
S11331300023ADF80630ADF804306F4B5A780832EE
S11331406E498D5CEDB25A78D2B28C5CE4B25A7896
S11331500132D2B25A705A7802F007025A705B7880
S113316013F0010F4FF40022654B14BFC3F818216C
S1133170C3F81421604B5B7813F0020F4FF48012F4
S11331805F4B14BFC3F81821C3F814215A4B5B7862
S113319013F0040F4FF40012594B14BFC3F8182155
S11331A0C3F8142102230DF1060200215548564E9E
S11331B0B047022301AA00215448B047DFF868A1B0
S11331C0BDF80600D047DFF8649149A3D3E9002392
S11331D0C847DFF85C81C0474FF6FF76B04228BF8E
S11331E030460746ADF80600BDF80400D04740A3BA
S11331F0D3E90023C847C047B04228BF3046ADF8E2
S11332000400B9B22846424EB047BDF80410204627
S1133210B04728463F4B984790B920463D4B9847C6
S1133220002839D10022344B1A703B4B984702B026
S1133230BDE8F087304A13780133DBB2137070476E
S113324007212846354B98475FFA80F82F01344E02
S1133250B3683B4458682A4602210730DFF8D4900B
S1133260C847B3683B445868424602210930C847FE
S11332704FEA4802B3683B44586802F0FE02022158
S11332801530C84773681F44FB6883F800802946DB
S11332903046244B9847C0E7072120461F4B9847E8
S11332A0C7B226011E4DAB6833445868224602213A
S11332B00730DFF88080C047AB68334458683A462B
S11332C002210930C0477A00AB683344586802F0E1
S11332D0FE0202211530C0476B681E44F3681F705C
S11332E0214628460F4B98479CE700BFAFF3008068
S11332F07B14AE47E17AF03F4606002044030020E9
S11333000080004130100020A5420000041200207B
S1133310E9110000E512000001310000F51200007F
S1133320E41C0020633E0000C5B2000091B300001D
S1133330B5B7000031380000F8B50B4F0B4C3B46D5
S11333400022114620460A4EB0470A4D3B46002251
S113335011462846B04700212046074CA0470021CB
S11333602846A047F8BD00BF2131000030100020DE
S11333702542000004120020E54100002DE9F04739
S113338096B0804607230E2205211020204CA0472A
S113339010212048204B9847102140461F4B984746
S11333A00025DFF890A0DFF890901D4F03230B93C6
S11333B000240A940995632208920794069302262E
S11333C00596049303940295B02301930094234635
S11333D0324651460EA8C8470EA8B8478DF8344067
S11333E08DF8354001960DAB0093C3B20EAAE9B235
S11333F040460C4CA0470135102DD7D140460A4B0E
S113340098470A4B98470A4B984716B0BDE8F0878F
S11334109D110000003600203D220000C53C000044
S113342069BC0000813D0000A13D0000393300006B
S1133430013100001CCB000021BC0000828942B194
S113344000F1270327320244002103F8011F9342AD
S1133450FBD100238381704708B50248024B98478B
S113346008BD00BFA42100203D34000008B5024877
S1133470024B984708BD00BFC82600203D34000019
S113348008B50248024B984708BD00BFEC30002045
S11334903D34000008B50248024B984708BD00BF00
S11334A0841200203D34000008B5837A1B0103F127
S11334B0824303F520431A6C22F002021A640021AD
S11334C0807A014B984708BDA15F000008B5024807
S11334D0024B984708BD00BFA4210020A934000076
S11334E008B50248024B984708BD00BFC826002013
S11334F0A934000008B50248024B984708BD00BF34
S1133500EC300020A934000008B50248024B98476B
S113351008BD00BF84120020A93400002DE9F04149
S11335202F4B4FF08051C3F8041193F85C2142F003
S1133530040283F85C21C3F818114FF48031C3F8F6
S1133540041193F8502142F0040283F85021C3F887
S113355018114FF48051C3F8041193F84C2142F030
S1133560040283F84C21C3F818114FF40071C3F816
S1133570841093F8C92042F0040283F8C920C3F8E8
S11335809810DFF89880174A01214046164CA0474E
S1133590164F174A01213846A047164E164A0121F4
S11335A03046A047154D164A01212846A047154923
S11335B04046154CA04715493846A04714493046A3
S11335C0A04714492846A0474046134CA047384614
S11335D0A0473046A0472846A047BDE8F08100BF79
S11335E00080004195340000DD4F00005C10002095
S11335F081340000B41100206D34000064110020F7
S113360059340000F01C0020B54F0000B4260020FF
S1133610D82B002028360020894F0000B01000204D
S1133620F0B583B005460F461646847A4368196A96
S1133630283120460D4B984705F5207120460C4B48
S11336409847394620460B4B9847214601A80A4B18
S11336509847019B1E60012200212046074B984792
S113366000212046064B984703B0F0BD1D5F0000C3
S11336700D5F0000495F0000E15F0000B95E0000DB
S1133680A15F000010B5104A4FF416710F48104C9A
S1133690A047104A4FF416710F48A0470F4A4FF441
S11336A016710F48A0470F4A4FF416710E48A047F1
S11336B00E4B002283F81F2383F8202383F8212351
S11336C083F8222310BD00BF0935000084120020B6
S11336D021360000F5340000EC300020E134000015
S11336E0C8260020CD340000A421002000E100E021
S11336F010B500224272C8238372642181738274DC
S1133700C272C173C37432240473037404754173A5
S113371042744375034B9847034B9847034B9847B0
S113372010BD00BFE91500001D35000085360000FE
S113373080697047806988428EBF401AC943401827
S113374070478369013383617047007A70470023AF
S113375003727047837923B1012B0FD0022B15D04C
S11337607047808840087D380028B8BF4042C0F1C7
S11337707D0000EBD070C0F3470070478088064B93
S1133780A3FB003040F30010C0B270478088642867
S11337908CBFFF2000207047D34D621010B4012469
S11337A0047241708270C370BDF8083083809DF844
S11337B0043083715DF8044B70474078704780781B
S11337C07047C07870470246A0F13003D8B2092888
S11337D00DD9A2F16103DBB2052B03D931B10A7013
S11337E000207047A2F15700C0B270470020704714
S11337F02DE9F843C1B19046451E4B1E9C0001F1D2
S11338008047023FDBB2FF1ABF000026DFF81C909E
S1133810414615F8010FC847A0400644043CBC4289
S1133820F6D13046BDE8F8830026FAE7C737000032
S113383030B585B005460C46094901A8094B98479F
S113384064B104AB1A1B053A6B1E601E55FA80F076
S113385012F8011F03F8011F8342F9D105B030BDEE
S113386050CB000021BC0000344B1B68B3F1FF3F78
S113387002D0324B186870472DE9F04383B0304BC7
S11338804FF40052C3F888202E49C3F8A8104FF013
S11338904041C3F8A8104FF48040C3F888004FF0AB
S11338A04020C3F8A800C3F8A8104FF40041C3F89F
S11338B084102549C3F8A810A1F18021C3F8A810E9
S11338C0C3F894200120214B98470026B0461C4D94
S11338D04FF400591D4F0CE0072E27D04FF48044BD
S11338E0C5F898400120B847C5F894400136082E21
S11338F01CD0C5F898900120B84701A8144B9847EC
S1133900D5F88020D5F8A030D5F890405C4014401C
S11339105C4001A80F4B984714F4004FDCD00123FE
S1133920B34043EA08085FFA88F8D5E7034BC3F8C5
S11339300080024B186803B0BDE8F08354030020F4
S11339400080004100200040008002402D4400001F
S1133950AD430000BB4300002DE9F04F85B0814624
S11339600C46534B98478246FF2C08D004F00304BE
S113397089F809400025DFF84CB1039564E0FF2382
S113398089F809300025DFF838B1DFF838811CE008
S11339904FF0FF09CDF804900026009633463246D6
S11339A021465846C04701960523009333463246C4
S11339B0214658463F4FB847019600964B4632463B
S11339C0214658463C4CA0470135ECB258463B4B87
S11339D09847A04268D9BAF1C00FD9D00623019301
S11339E00093002221465846C0473F230193009389
S11339F00022214658462F4EB0477F23019300935F
S1133A000022214658462C4CA047DDE7FF270197AA
S1133A10002600963346324621462948D847019667
S1133A20052300933346324621462548DFF8848037
S1133A30C047019600963B463246214620481E4C1C
S1133A40A047039B013303939DF80C401C481B4B78
S1133A509847844228D2BAF1C00FD7D099F80930D8
S1133A604B449E7A9F7B93F812804FEA581301933C
S1133A707B0900937309002221461148D8474FEA75
S1133A80580301937B0800937308002221460C48D5
S1133A90084DA847CDF804800097334600222146FC
S1133AA00748054CA047CCE705B0BDE8F08F00BF40
S1133AB069380000991E0000E31E0000091E000082
S1133AC000360020511E0000032909D0431E04398A
S1133AD00144002013F8012F50408B42FAD1704763
S1133AE00020704708B5CB1E02211844014B9847AB
S1133AF008BD00BF3138000000B583B002AA00231E
S1133B0002F8013D02210430024B9847C0B203B0D1
S1133B105DF804FBF137000000B583B002AA00236E
S1133B2002F8013D02210630024B9847C0B203B0AF
S1133B305DF804FBF137000000B583B002AA00234E
S1133B4002F8013D02210830024B9847C0B203B08D
S1133B505DF804FBF137000000B583B002AA00232E
S1133B6002F8013D02210A30024B9847C0B203B06B
S1133B705DF804FBF137000008B50A460221043061
S1133B80014B984708BD00BF3138000008B50A460C
S1133B9002210630014B984708BD00BF31380000B0
S1133BA008B50A4602210830014B984708BD00BFFA
S1133BB03138000008B50A4602210A30014B984703
S1133BC008BD00BF31380000C36999420DD00123FC
S1133BD003F01F0200EB8202D2698A4207D001334C
S1133BE0DBB2202BF4D10020704701207047012064
S1133BF0704790F89C30013303F01F0380F89C3029
S1133C0000EB8300C1617047F0B585B00546274BD2
S1133C10984701238DF800300E238DF801300723D7
S1133C208DF802306B7A8DF8033030238DF8043030
S1133C308DF805308DF806308DF807308DF8083092
S1133C408DF809308DF80A308DF80B3004228DF888
S1133C500C208DF80D308DF80E300A238DF80F30BE
S1133C600246082101A8124CA04710216846114BB6
S1133C709847024602210DF10D00A04705F59B650A
S1133C80102128460C4B984768B10DF1FF340DF113
S1133C900F070A4E14F8011F2846B047BC42F9D159
S1133CA02846074B984705B0F0BD00BF69380000AF
S1133CB031380000C93A000075130000A513000054
S1133CC0C113000010B50446022343701944C8B25E
S1133CD020700001024B984760602030A06010BD46
S1133CE03DB800002DE9F84305469046089E0C01B6
S1133CF042680021115542682244537042682244AC
S1133D009DF824101172426802EB040918461B4FF7
S1133D10B847C9F804006B6803EB04090998B8476D
S1133D20C9F80C006A68224453680BB3D36813B310
S1133D3053785BB1002318F803105268D15401334F
S1133D40DBB26A68224451789942F4D86A68224402
S1133D50107A88B10023F15CD268D1540133DBB20C
S1133D606A682244117A9942F5D80020BDE8F883A4
S1133D70FF20BDE8F883FF20BDE8F8833DB80000CC
S1133D8010B582B044782144059C0194049C0094AD
S1133D90C9B2024CA04702B010BD00BFE53C000010
S1133DA04378002B3FD02DE9F0418EB00646002425
S1133DB0DFF88080254623E00323039302956723DD
S1133DC001936623009304230222414606A8164F5A
S1133DD0B84706A8154B98478DF814508DF8155020
S1133DE00223019305AB0093C3B206AA21463046D1
S1133DF00F4FB847A0B90134E4B27378A3420FD986
S1133E00002CD9D1032303930295652301936423E2
S1133E10009304230222414606A8034FB847D8E77B
S1133E200EB0BDE8F081704721BC000069BC000001
S1133E30E53C000058CB0000436803EB01114878CF
S1133E4040B100234868C05CD0540133DBB24878E9
S1133E509842F7D870474378194443680901585C7D
S1133E607047437819444368090101225A54704742
S1133E704368090101225A5470474368090100222A
S1133E805A54704703680F2B29D82DE9F04FCBB053
S1133E900BB1013B036007464C4B93F89D201B7804
S1133EA01721059104937F23039302930192002326
S1133EB000930F23012246490AA8464CA0470AA8AA
S1133EC0454B9847454B1B78002B34D005460024BE
S1133ED0A046DFF838A1414EDFF834910AE0013BF7
S1133EE00360704707A8C8470134E4B23378DBB2F3
S1133EF0A3421DD9C82DF7D807A8D047726823015B
S1133F00D35C002BEED008F101085FFA88F80AAB05
S1133F1003EB050B5A4621463046314B9847214660
S1133F203046304B984758462B4B98470544D9E7C1
S1133F30B8F1000F02D14BB0BDE8F08F3B685B00D5
S1133F400A333B60214A92F89D300133DBB282F898
S1133F509D300AAC66190422234930461D4FB847E8
S1133F6030461D4EB04705442A46204908A8B847A4
S1133F709DF82030A3709DF82130E3701C4B186825
S1133F8060516019B047054429462046194B9847AB
S1133F90C2B229462046184B9847A9B21748184B75
S1133FA098470028C7D06DB10DF127044AAB1D44D2
S1133FB0A5F20115114F134E14F8011F3846B047EE
S1133FC0A542F9D10D48104B9847B4E7F41C0020E2
S1133FD070CB000021BC000069BC0000E41C002080
S1133FE0393E00007B3E000088CB00008CCB0000F3
S1133FF094CB0000C93A0000E53A0000C41C00203C
S113400075130000A5130000C1130000AD430000A8
S1134010BB43000008B5836903B1984708BD08B5E0
S1134020C36903B1984708BD2DE9F04706460F461A
S11340309146036A5C5C04EB4404E400D0F82880F5
S113404008EB040505F1040AD1B250460C4B98471D
S113405030460C4B9847012807D94FEA192150469E
S1134060074B9847AB8A0133AB82AB8A0133AB82EF
S113407058F8043013B1394630469847BDE8F08704
S1134080815800001F5C00002DE9F84F8946164650
S11340901C469DF828800B9D074640B149B152B19A
S11340A0B8F1000F09D0281C18BF012006E0002039
S11340B004E0002002E0002000E00020DFF864B00B
S11340C03F225946DFF860A0D047601C4022594681
S11340D08045CCBF00200120D0470023FF21DAB265
S11340E0B1540133DAB2A242F9D93E6287F82440CE
S11340F087F82580BD6249463846064B98470346F3
S113410028B9054ABA60054A3A60054A7A601846F1
S1134110BDE8F88FED5A000029400000154000006A
S11341201F40000098CB0000455700002DE9F843DC
S11341300E46174698460546002840D0002A40D02F
S1134140181C18BF0120DFF8989066224946224CBB
S1134150A04795F8240067224946B04234BF0020A6
S11341600120A047296A8B5DFF2B2CD195F82400F0
S113417000231C46DAB28A5CFF2A1CBF0134E4B275
S11341800133DAB28242F5D995F82530A3421DD322
S113419004EB44094FEAC909A86A4844424639462F
S11341A004300E4B9847024698B92B6A9C55AB6A6B
S11341B099440023A9F814301046BDE8F883002080
S11341C0C1E70020BFE76FF00C02F5E76FF01B02B8
S11341D0F2E76FF00C02EFE745570000ED570000DF
S11341E098CB0000F8B50D460B4F044683223946A0
S11341F0003018BF0120094EB04794F824008422EF
S11342003946A84234BF00200120B0472946204641
S1134210034B98470020F8BD98CB00004557000099
S1134220095C00002DE9F8430E4614469946DFF870
S1134230708005469C224146003018BF0120164F6D
S1134240B84795F824009D224146B04234BF00206F
S11342500120B847012C19D02CB1022C19D06FF0D1
S11342600C00BDE8F8832B6A9B5DAA6A03EB430349
S113427042F8339019F1000318BF01232246314656
S11342802846064CA0470020BDE8F883C5F81890DE
S1134290F0E7C5F81C90EDE745570000475C0000C7
S11342A098CB00002DE9F04F83B0884691461D4617
S11342B0044600284FD0002A4FD0181C18BF0120F4
S11342C0294FBC223946294EB04794F82400BD2218
S11342D03946404534BF00200120B0472046244BD6
S11342E0984795FBF0F303FB1050BF223946B0FA10
S11342F080F04009B047236A13F808B00BEB4B0B6E
S1134300A36A03EBCB0B01A81A4B98470BF1040AE1
S11343105046194B9847804601A8184B9847B8F166
S1134320000F1CD0EDB1013DADB202350124144F94
S1134330A6B2611E49445046B847444502D00134F0
S1134340AC42F5D1BBF814309B1BABF814303046AB
S113435003B0BDE8F08F0020B2E70020B0E70026EC
S1134360F0E70026EEE700BF98CB000045570000B9
S11343701F5C0000AD430000C1580000BB430000B7
S11343803D58000010B50446D6220549003018BF38
S11343900120044B98472046034B9847002010BD4A
S11343A098CB000045570000315C0000EFF3108308
S11343B0036072B6BFF35F8F7047BFF35F8F03680C
S11343C083F310887047000038B50C46054658B191
S11343D0081C18BF01202B220449054B984721468D
S11343E02846044B984738BD0020F4E7B4CB0000BE
S11343F0455700003160000008B5024B1860024BBD
S1134400984708BD480600207179000010B5044B98
S11344101C68044B984701462046034B984710BD3F
S113442048060020F55C00008579000010B5044BB7
S11344301C68044B984701462046034B984710BD1F
S113444048060020FD5C00008579000008B5014B9A
S1134450984708BD3960000008B5436903B198471F
S113446008BD08B5836903B1984708BD38B50D4642
S1134470044690B1081C18BF012038220849094B92
S1134480984729462046084B9847034618B9074AD7
S11344902260074A6260184638BD0020EDE700BF7D
S11344A0D0CB00004557000045610000594400008E
S11344B06344000008B5438813F4807F02D1436B42
S11344C003B1984708BD08B5438813F4807F02D12F
S11344D0836B03B1984708BD08B5438813F4807F04
S11344E002D1036B03B1984708BD000010B584B036
S11344F01446838AADF8043002924FF40043ADF8B9
S11345000630039101A92838034B9847002808BFB7
S1134510204604B010BD00BFC16E000010B584B0C9
S11345201446838AADF80430029248F20103ADF8D0
S11345300630039101A92838034B9847002808BF87
S1134540204604B010BD00BFC16E000070B50D461A
S1134550044689220F49003018BF01200E4B9847AA
S1134560294620460D4B9847054608B1284670BD9C
S11345700B4BE3620B4BA3620B4A012120460B4E0B
S1134580B0470B4A02212046B0470A4A0021204680
S1134590B047EBE7E8CB000045570000416E000050
S11345A01D450000ED440000B5440000F16F00001B
S11345B0C7440000D944000070B50D4616460446B1
S11345C060B1081C18BF012034220549054B9847E7
S11345D02368324629462046984770BD0020F3E7F9
S11345E008CC00004557000070B50D461646044639
S11345F060B1081C18BF01203D220549054B9847AE
S11346006368324629462046984770BD0020F3E788
S113461008CC00004557000038B50C46054658B193
S1134620081C18BF012031220449054B9847214634
S11346302846044B984738BD0020F4E71CCC000002
S11346404557000065630000F8B50F46164604465A
S113465040F227120949003018BF0120084B98473F
S11346600025A5616761E66125621023237201219B
S1134670A4F12000034B98472846F8BD38CC00002D
S1134680455700008574000070B50D461646044673
S113469040F205120C49003018BF01200B4B98471B
S11346A0A56100256561E661256210232372203C23
S11346B001212046064B984740F2FF112046054B46
S11346C09847284670BD00BF38CC0000455700000D
S11346D0B97400003575000070B504460E46051F18
S11346E00021094B984700212046084B9847002198
S11346F02046074B9847002384F82830236B13B1D6
S113470031462846984770BD85740000B97400008E
S1134710F9740000026CC36B9A4200D2704710B562
S113472004460021044B9847002384F82830E36AA8
S11347300BB1201F984710BDF974000010B5044652
S11347400379012B426B036C03F10101016494BFF3
S1134750D15C32F81310084B9847226CE36B9A42F1
S113476000D010BD00212046044B9847012120466B
S1134770034B9847F5E700BF3575000085740000CA
S1134780F974000070B50446856B05B30379012BF9
S113479016D9066C731C0364184B984725F8160049
S11347A0236CE26B93421DD2626BB2B12179012971
S11347B094BFD15C32F813102046114B984770BD5A
S11347C0066C731C03640D4B9847A855E8E70B4B24
S11347D09847236C01332364E2E7E1882046084BC1
S11347E0984770BD00212046064B9847002384F863
S11347F02830E36A0BB1201F984770BD657500002F
S113480035750000B974000070B50D46064630B326
S1134810081C18BF0120A5221249134B984734469F
S113482044F8045F29462046104B9847002815DBBE
S11348300F4A002120460F4DA8470F4A0121204668
S1134840A8470E4A02212046A8470D4A03212046C4
S1134850A8470C4BB3620C4B7362002070BD002060
S1134860D9E700BF38CC0000455700007D73000035
S11348703D47000091750000854700001547000082
S1134880D9460000894600004946000010B5044698
S1134890C1220549003018BF0120044B9847201D50
S11348A0034B984710BD00BF38CC000045570000AB
S11348B0E573000038B50D460446CF22094900309F
S11348C018BF0120084B984794F82C3013F0100FB0
S11348D004D12946201D054B984738BD6FF00300CD
S11348E038BD00BF38CC00004557000049740000B3
S11348F038B50D460446D9220949003018BF0120B5
S1134900084B984794F82C3013F0100F04D1294623
S1134910201D054B984738BD6FF0030038BD00BF1C
S113492038CC00004557000015740000F8B50D465A
S113493017461E4604464FF49C721249003018BFB5
S11349400120114B9847E763A56326640023636441
S1134950102384F82C30261D012130460B4B984738
S11349605DB1237A012B636C94BFE95C35F81310B5
S11349703046074B98470020F8BD61893046044B08
S11349809847F8E738CC000045570000B974000098
S11349903575000070B50C461646054658B1012918
S11349A08CBF0020012040F263120849084B98474D
S11349B01CB92E6370BD0020F5E76E63321C18BF6E
S11349C001220321281D034B984770BD38CC0000F9
S11349D045570000C575000038B50D46044658B16A
S11349E0081C18BF012040F26F120449044B984779
S11349F024342C60002038BD0020F4E738CC0000BB
S1134A004557000070B50D461646044698220749DE
S1134A10003018BF0120064B984733460022294630
S1134A20A4F11C00034CA04770BD00BF58CC00008B
S1134A30455700001978000070B50D461646044627
S1134A4081220749003018BF0120064B984733469E
S1134A502A460021A4F11C00034CA04770BD00BFEE
S1134A6058CC0000455700001978000038B50C46B2
S1134A700546A0B1081C18BF01203B2209490A4B76
S1134A809847284640F8044F2146084B9847034668
S1134A9018B9074A6A62074A2A62184638BD0020D4
S1134AA0EBE700BF58CC000045570000FD7500003F
S1134AB0394A0000054A000010B504465122054950
S1134AC0003018BF0120044B9847201D034B984722
S1134AD010BD00BF58CC0000455700007977000096
S1134AE070B50D4616460446A8220649003018BF84
S1134AF00120054B984732462946201D034B984711
S1134B0070BD00BF58CC000045570000A9770000D5
S1134B1038B50D46044650B1081C18BF0120AE221A
S1134B200449054B984720342C60002038BD0020F0
S1134B30F5E700BF58CC000045570000F8B584469F
S1134B4007682FB18D683C460026C2F1010E0BE0C8
S1134B500E4B9847F8BD7344A0680344AB420AD295
S1134B602368264653B11C4663689342F3D8A06871
S1134B7003449B1AF2E7A74204D034462046044B70
S1134B809847F8BD6046014B9847F8BD6D57000043
S1134B90995700002DE9F047446907690137076117
S1134BA0037E13F0010F13D1037E13F0020F0FD114
S1134BB054B36368FB1AA268934207D3064600F114
S1134BC01408DFF84890DFF848A012E0BDE8F08749
S1134BD0037E43F002030376BDE8F0877569E3685A
S1134BE02046984785B12C466B68FB1AAA68934205
S1134BF00AD34046C847237C012BEFD167603A466D
S1134C0021464046D047E9E7BDE8F087E157000078
S1134C103D4B000070B50E461546044690B199B15F
S1134C20101C18BF01203B220849094B9847204615
S1134C3040F8045B2B683146984700206061054BBF
S1134C40636070BD0020EEE70020ECE774CC000048
S1134C5045570000954B000038B5044698B10068EC
S1134C60003018BF0120542209490A4B9847251DDA
S1134C7023689B692846984738B923689B68284667
S1134C809847002038BD0020EDE76FF0100038BDD4
S1134C9074CC00004557000070B582B00D46044640
S1134CA028B331B30068003018BF01207B222049AB
S1134CB0204B9847237F43F00103237704F1180620
S1134CC0294630461C4B9847A8B963696B606269F2
S1134CD029463046194B9847237F03F0FE03237778
S1134CE0237F13F0020F12D1002002B070BD002008
S1134CF0DCE70020DAE7237F03F0FE03237780223A
S1134D000B4900200B4B98476FF01100EDE701A809
S1134D100B4B9847237F03F0FD0323772368DB695C
S1134D20201D984701A8074B98470020DDE700BFE6
S1134D3074CC0000455700004B5700003D4B000069
S1134D40AD430000BB43000008B500238362C36980
S1134D501BB1A0F108021046984708BD08B500230E
S1134D608362436A1BB1A0F108021046984708BD4C
S1134D7038B50446A0F108052C30034B9847236A44
S1134D800BB12846984738BD8158000070B50E46CF
S1134D9015460446E0B1E9B1101C18BF012040F2E9
S1134DA03B120F490F4B9847B4F84420B4F84C30E9
S1134DB09A4211D1A664A4F84C500023A4F84430BC
S1134DC00123236304F10800074B9847284670BD6C
S1134DD00020E4E70020E2E76FF01B0070BD00BF95
S1134DE08CCC000045570000C36D000010B504468C
S1134DF0838FB0F844209A4209D0026C591C8187F1
S1134E00D15C044B98472046034B984710BD034B95
S1134E10984710BD976D0000C36D0000CB6D000076
S1134E202DE9F04782B00F4690460646A0B199B1ED
S1134E30002A2DD14FF4AC7229490020294B984700
S1134E4001A8294B984706F13400284B984701A83C
S1134E50274B984700253EE04FF4AC7220490020D0
S1134E60204B984701A8204B984706F1340A504636
S1134E701E4B9847814601A81D4B9847B9F1000F76
S1134E8004D0B8F1000F19D1002524E0002522E058
S1134E904FF4AC7212490120124B984701A8124BEF
S1134EA0984706F1340A5046104B9847814601A8AA
S1134EB00F4B98470025B9F1000F0CD000240D4E7C
S1134EC0601C85B239195046B04701344C4502D2B2
S1134ED0A3B29845F4D8284602B0BDE8F08700BFD5
S1134EE08CCC000045570000AD430000C1580000C1
S1134EF0BB4300003D580000F8B50D4616461F465A
S1134F00044620B329B332B3181C18BF01203A2237
S1134F101349144B98473A46314604F13400124B76
S1134F209847D0B9294604F10800104B9847034626
S1134F3058B90F4A62600F4A22600F4AA2600F4AB2
S1134F40E2600F4A22610F4A62611846F8BD0020F0
S1134F50DDE70020DBE70020D9E76FF00C03F4E77E
S1134F608CCC000045570000ED570000ED6C0000AC
S1134F70214E00008D4D0000ED4D0000714D0000EC
S1134F80494D00005D4D000010B5044661220649FC
S1134F90003018BF0120054B984704F10800044B6A
S1134FA09847002010BD00BF8CCC0000455700007E
S1134FB07D6D000038B50C46054648B1081C18BF85
S1134FC0012077220349044B98472560002038BD0F
S1134FD00020F6E78CCC00004557000070B50C4665
S1134FE01646054683221749003018BF0120164B88
S1134FF09847012C10D024B1022C18D06FF00C006B
S113500070BDAE62321C18BF0122012105F10800F7
S11350100E4B9847002070BD6E62321C18BF0122EF
S1135020022105F10800094B9847002070BDEE628B
S1135030321C18BF0122032105F10800034B9847D5
S1135040002070BD8CCC000045570000D56D0000D9
S11350502DE9F8430F469046044628B331B3101C9B
S113506018BF0120F1221249124B98470834124DFF
S11350702046A8470028FBD0013F0026DFF84090D7
S11350800D4D17F8011F2046C8472046A8470028A1
S1135090FBD001364645F4D3084D2046A8470028E6
S11350A0FBD03046BDE8F8830020DBE70020D9E7D9
S11350B0ACCC000045570000A56D0000AF6D0000AA
S11350C0916D00002DE9F8430F4690460446E0B187
S11350D0E9B1101C18BF01204FF486720D490E4B24
S11350E09847013F002608340C4DDFF834902046E1
S11350F0A8470028FBD02046C84707F8010F01360F
S11351004645F4D33046BDE8F8830020E4E70020A8
S1135110E2E700BFACCC000045570000B96D0000C9
S11351209D6D000038B50D46044698B1081C18BFA3
S1135130012034220849094B9847294604F1080004
S1135140074B9847034618B9064A6260064A22602C
S1135150184638BD0020ECE7ACCC000045570000F1
S1135160C16C0000C55000005150000010B5044649
S113517053220649003018BF0120054B984704F11B
S11351800800044B9847002010BD00BFACCC0000C1
S113519045570000696D00000F4B5978884218D0BC
S11351A030B41A46002300F00F0507E001335BB268
S11351B00D2B09D020325178814207D01478002C6D
S11351C0F4D18D42F2D101E04FF0FF33184630BCE8
S11351D070470023184670474C0600200020704793
S11351E038B504460D46094B9847094B03EB401369
S11351F09B78032B01D0002038BD054B03EB4010F6
S1135200836929462046984738BD00BF995100005C
S11352104C060020F0B585B006460D4617464D4BAA
S113522098470446002D5BD14B4A4301D118002016
S1135230C870D35C73B1484B03EB441301229A70DA
S1135240454800EB4410C3693A46C1783046984754
S113525005B0F0BD8B78032B0BD03F4800EB441214
S11352601446D3690C320021607898470223A37056
S1135270EEE70B4691F90C500A46CE690C32012137
S11352805878B047A0B1344B03EB441305229A700D
S11352900222DA70002D09DB2F4800EB441040781D
S11352A040F0800001212D4B9847D1E75878F9E769
S11352B0294800EB441004238370437800220192B0
S11352C002929542ACBF43F0800303F00F038DF8C4
S11352D00C3001238DF80D3001A8214B9847B7E716
S11352E0012D0AD0022D1CD0032D2AD01A4B03EB1A
S11352F0401306229A70DA70A2E7174A4301D118C4
S11353000220C870D35C2BB1134B03EB441305226A
S11353109A7095E70B469870002130460F4B9847DA
S11353208EE70D4A4301D1180420C870D35C2BB119
S1135330094B03EB441301229A7081E702238B701B
S113534086E7054B03EB401300229A700522DA70BE
S113535076E700BF995100004C060020118D000033
S1135360B98E00002DE9F04105461C4B98470646CE
S11353701B4C04EB40140C3421462846194B984727
S1135380C0B2082809D001212846174CA0470121A2
S113539045F08000A047BDE8F08100212846124F67
S11353A0B84745F0800800214046B8470C4B03EB52
S11353B0461301229A705B6921462846984708B132
S11353C0BDE8F081064B03EB46160523B3700121BB
S11353D02846B84701214046B847F1E799510000F3
S11353E04C060020598E0000118D000010B5114BA1
S11353F0984700281DDB104C4FF4D0720021204642
S11354000E4B9847234604F5D070FF210C4A59707F
S11354105A619A61DA6120338342F8D10949002044
S1135420094CA04709490120A04709490220A04787
S1135430002010BDDD8600004C06002063B800008B
S1135440DD51000065530000C1900000E1510000EF
S11354501552000008B5014B984708BD999000000B
S113546008B5014B984708BDE587000008B5014B16
S1135470984708BD5188000008B5014B984708BDFE
S11354806F88000008B5014B984708BD6388000089
S1135490F8B506460C4617460F4B9847002814DA11
S11354A0FF200D4B9847051E12DB3A462146304635
S11354B00A4B984700280DDB094B68011A185670EF
S11354C004F003041C540020F8BD6FF01300F8BD71
S11354D06FF01400F8BD00BF995100007D880000F2
S11354E04C06002008B5024600210846014B9847A7
S11354F008BD00BF9154000038B50546064B9847D7
S1135500041E07DB2846054B9847054800EB44106A
S1135510FF23437038BD00BF9951000095890000F6
S11355204C06002038B505460E4B9847041E16DB82
S113553063010D4AD35C002B0CBF022201220A4BEB
S113554003EB44139A702846084B9847002800DB65
S113555038BD054B03EB44140023A37038BD6FF032
S11355601100F5E7995100004C060020598A00000B
S11355702DE9F04786B00446077A38463F4B9847F2
S1135580657AD4F80480061E72DB04A83C4B984765
S11355903C4B03EB46139B788DF817309DF817307E
S11355A0DBB2012B11D004A8374B98479DF8173074
S11355B0DBB2052B5FD0062B23D0002B0CBF6FF082
S11355C01200012006B0BDE8F087DFF8B8A04FEA6A
S11355D046190AEB090303229A7004A82A4B984738
S11355E01AF8093083B1227A003518BF01252368DF
S11355F00193CDF8088017F0800F19D102F00F0342
S113560018E06FF00F00DDE71E4B03EB4613DA7C66
S11356109D7C05EB0225ADB2A5B91A4B03EB4616EA
S11356200423B37000230125227A21680191029397
S113563042F080038DF80C308DF80D5001A8134B07
S11356409847BFE74346A84528BF2B460D4A02EBBF
S1135650461696F90C20002A05DB227A216801916E
S113566002930025CAE79D4294BF00250125DBE78C
S11356706FF01100A6E70220A4E700BF99510000D3
S1135680AD4300004C060020BB430000B98E00006F
S113569038B5044641B101290CBF01210221134B45
S11356A098470346184638BD114B9847051E19DB29
S11356B0022120460D4B984703460028F2D00021D2
S11356C020460A4B9847031EECDB0A4B03EB4513B9
S11356D001229A700321D970DB6900222046984781
S11356E00023DFE76FF01103DCE700BF118D00003A
S11356F0995100004C06002038B50D4614460E4B57
S113570098470E4B002C08BF1C46002813DB012DC4
S113571008D015B1022D0AD038BD094B03EB401057
S1135720446138BD064B03EB4010846138BD044B23
S113573003EB4010C46138BD99510000DD510000F5
S11357404C06002000B900BE704703684BB18B4281
S113575009D01B681BB19942FBD10120704700207E
S113576070470020704701207047000038B5044698
S11357700D46064B984780F0010039220449C0B217
S1135780044B984723682B60256038BD4B570000B5
S1135790C8CC00004557000003680B6001607047E7
S11357A070B505460E4604680A4B984780F0010020
S11357B04F220949C0B2094B98472B681BB92E6088
S11357C0336070BD1C462368002BFBD12660336018
S11357D070BD00BF4B570000C8CC00004557000007
S11357E003680BB11A6802601846704770B50E461C
S11357F01546044678B181B1A2B1012028220D4991
S11358000D4B98476B1E1D4209D163600020A060B8
S1135810E060266070BD0020F0E70020EEE76FF046
S11358200C0070BD282203490020034B98476B1ECF
S1135830EBE700BFE8CC00004557000038B50D4643
S11358400446A0B1081C18BF012040220A490B4B92
S11358509847A368E2689A420BD0626813402268B2
S1135860D35C2B70A3680133A360002038BD0020F3
S1135870EBE76FF0090038BDE8CC000045570000A5
S113588038B50D46044651220B49003018BF01209B
S11358900A4B9847E368626813402268D554E3686A
S11358A06168A2689A1A8A4284BF591AA1600133B6
S11358B0E360002038BD00BFE8CC0000455700007D
S11358C010B5044667220549003018BF0120044B77
S11358D09847E068A368C01A10BD00BFE8CC000078
S11358E0455700000346064A126822B1044A10686C
S11358F00344136070470349014A1160F6E700BF8F
S1135900EC070020603D01204FF0FF3070474FF45A
S113591000534B60002070470120704700207047FF
S1135920406900F13D40A0F5E050800A4000763027
S113593000F0FE0070470000036B13F0010F1BD151
S1135940036B13F0030FFBD1038813F0020F0DD088
S1135950038823F002031B041B0C0380036B13F066
S1135960030FFBD1036B13F0020FFBD10123038060
S1135970036B13F0030FFBD1036B13F0010FFBD187
S11359801623374A03FB01239B88C380036BC3F3AD
S11359900B03002BFAD11623314A03FB01239B7915
S11359A00372036BC3F30B03002BFAD116232C4AA7
S11359B003FB0123DA7982701B898380036BC3F3B1
S11359C00B03002BFAD11623254A03FB01239B7AF0
S11359D08372036BC3F30B03002BFAD11623204A03
S11359E003FB0123DB7AC372036BC3F30B03002BAA
S11359F0FAD116231A4A03FB01239B898381036B83
S1135A0013F0800FFBD11623154A03FB0123DB8916
S1135A10C381036B13F4807FFBD11623104A03FB6D
S1135A2001231B8A0382036B13F4007FFBD116232B
S1135A300B4A03FB01235B8A4382036B13F4806FDD
S1135A40FBD11622064B02FB01310B7DC3704B8840
S1135A500380036B13F0030FFBD10020704700BFDA
S1135A600CCD000008B5426992F82E1092F82D3042
S1135A700B4013F0010F06D113F0020F0DD113F0F8
S1135A80040F11D108BD012382F82E30B2F8402052
S1135A90836892B20021984708BD022382F82E3011
S1135AA043680021984708BD042382F82E30036818
S1135AB000219847E6E7000000F13D40A0F5E050E2
S1135AC0C0F3872048B1012809D008B58C220549C4
S1135AD00020054B9847002008BD00207047012096
S1135AE0704700BF38CD0000455700002DE9F04154
S1135AF00C460546E6223B49003018BF01203A4BCC
S1135B0098472046394B984701462046384B9847DA
S1135B10064610B13046BDE8F0816C61354B9C42BD
S1135B205CD0354B9C4204BF344B5D602846344FF7
S1135B30B847430900F01F00012404FA00F0DFF81D
S1135B40C480203348F82300BFF34F8FBFF36F8F17
S1135B502846B847430900F01F0004FA00F06033F8
S1135B6048F823002846B847430900F01F00844042
S1135B7048F823402846B847013080B203B2002BCE
S1135B80C8DB5B0900F01F00012202FA00F0203399
S1135B9048F82300BFF34F8FBFF36F8F2846B847F1
S1135BA0013080B203B2002BB4DB5B0900F01F00AC
S1135BB0012202FA00F0603348F823002846B8476F
S1135BC0013080B203B2002BA4DB5B0900F01F009C
S1135BD0012202FA00F048F823009BE7074B1D60FE
S1135BE0A4E700BF38CD000045570000B95A0000B3
S1135BF039590000001C004300200043F007002036
S1135C002159000000E100E0426913889BB243F08F
S1135C1002031380136B13F0030FFBD17047436926
S1135C20DB88C3F3C103032B0CBF012002207047A0
S1135C304269137D43F002031375136BC3F30B0323
S1135C40002BFAD170474169012A07D0022A0ED0ED
S1135C501AB9ABB1012381F82D3070471BB9042365
S1135C6081F82C307047042381F82D3070471BB91C
S1135C70022381F82C307047022381F82D307047BD
S1135C80012381F82C30704708B5024B1868024B89
S1135C90984708BDF0070020655A000008B5024B7C
S1135CA01868024B984708BDF0070020655A0000A9
S1135CB008B5024B5868024B984708BDF00700200E
S1135CC0655A000008B5024B5868024B984708BD56
S1135CD0F0070020655A0000430900F01F0001226C
S1135CE002FA00F04033024A42F82300704700BF32
