S0150000677269645F746F706C6576656C2E737265639F
S1130000603E0120E9020000E5020000E502000074
S1130010E5020000E5020000E50200000000000027
S1130020000000000000000000000000E5020000E5
S1130030E502000000000000E5020000E502000007
S1130040E5020000E5020000E5020000E502000010
S1130050E5020000E5020000E5020000E502000000
S1130060E5020000E5020000E5020000D95F00009F
S1130070E5020000E5020000E5020000E5020000E0
S1130080E5020000E5020000E5020000E5020000D0
S1130090E5020000E5020000E5020000E5020000C0
S11300A0E5020000E5020000E5020000E5020000B0
S11300B0E5020000A15C0000B55C0000D95A000014
S11300C0E55A0000F15A0000FD5A0000095B0000E7
S11300D0E5020000E5020000E5020000E502000080
S11300E0E5020000E502000000000000000000003E
S11300F0000000000D5E0000D9690000ED690000F9
S1130100016A0000156A0000296A00003D6A0000C7
S1130110516A0000656A0000796A00008D6A000077
S1130120A16A0000B56A0000C96A0000DD6A000027
S1130130F16A0000056B0000196B00002D6B0000D4
S1130140416B0000556B0000696B00007D6B000083
S1130150916B0000A56B0000B96B0000CD6B000033
S1130160E16B0000F56B0000E5020000E502000011
S1130170E5020000E50200000000000000000000AD
S1130180058B0000118B00001D8B0000298B0000E3
S113019000000000E5020000E5020000E5020000A6
S11301A0E5020000E5020000E5020000E5020000AF
S11301B0E5020000E5020000E5020000E50200009F
S11301C0E5020000E5020000E5020000E50200008F
S11301D0E5020000E5020000E5020000E50200007F
S11301E0E5020000E5020000E502000019780000C5
S11301F02D7800004178000055780000E5020000E9
S1130200E5020000E5020000E5020000E50200004E
S1130210E5020000E5020000755700008957000060
S11302209D570000B1570000E5020000E502000000
S1130230E5020000E5020000E5020000E50200001E
S1130240E5020000E5020000E5020000E50200000E
S1130250E5020000E5020000E5020000E5020000FE
S1130260E502000010B5054C237833B9044B13B1F3
S11302700448AFF300800123237010BDC0050020A3
S113028000000000D0C300000C4B43B10C480D49E2
S113029010B5AFF300800C48036823B910BD0A48B9
S11302A0036833B97047094B002BF7D0BDE8104001
S11302B01847064B002BF5D0184700BF000000007C
S11302C0D0C30000C4050020D0C30000000000001B
S11302D008B5024B9847024B984708BD590C0000DB
S11302E0F1A90000FEE7000008B51C4B1C4A9A4225
S11302F010D01C4B194A9A420CD2013B9B1A23F092
S1130300030304331344164951F8040B42F8040B55
S11303109A42F9D1144B154A9A420AD2013B9B1ACC
S113032023F0030304331344002142F8041B9342D3
S1130330FBD10F4B0F4A22F07F029A60D3F888203A
S113034042F47002C3F88820BFF34F8FBFF36F8F5E
S1130350094B9847094B9847FEE700BF000000206F
S1130360D0C30000BC050020603E0020C005002072
S113037000ED00E000000000D1B100005991000040
S1130380F0B585B01B4A136A43F08003136241221F
S1130390194BC3F82021194E194D00240294194B0E
S11303A00193012300932346324617492846174FE9
S11303B0B8471023321D21462846154CA047154B3B
S11303C080225A6002F180429A624FF040429A625F
S11303D093F8472002F0FE0242F0010283F847201E
S11303E093F8332002F00F0242F0100283F8332016
S11303F005B0F0BD00080040001C0040DC050020F2
S1130400E00F0020DC100020001C0043613D0000D0
S1130410053E000000800041F0B585B01E4A136A15
S113042043F48073136241221C4BC3F824211C4EF5
S11304301C4D002402941C4B01930123009323467A
S113044006F1140219492846194FB847102306F13A
S1130450180221462846174CA047174B0422C3F81C
S1130460042102F18042C3F828214FF04042C3F82E
S1130470282193F8422102F0FE0242F0010283F89F
S1130480422193F8312102F0F00242F0010283F894
S1130490312105B0F0BD00BF00080040001C004041
S11304A0DC050020B4110020380F00200020004398
S11304B0613D0000053E00000080004108B5054A8A
S11304C0936943F00203936103490448044B98473A
S11304D008BD00BF0008004000200041340F002088
S11304E0A140000008B5094B4022C3F8AC20C3F872
S11304F0B020C3F8B420C3F8B820054A936943F088
S113050080039361034B984708BD00BF001C004063
S11305100008004005410000024A136943F040030B
S1130520136170470008004008B5034B984703491E
S11305300348044B984708BD1905000000400041DA
S1130540180F002025410000064B4122C3F89C20CF
S11305504222C3F88C20044A536943F48053536104
S1130560704700BF001C004000080040104B93F887
S1130570512102F0FE0242F0010283F8512193F866
S1130580382102F00F0242F0300283F8382193F848
S1130590502102F0FE0242F0010283F8502193F848
S11305A0382102F0F00242F0030283F83821704748
S11305B00080004110B582B0064B98470023009399
S11305C01023054A05490648064CA047064B9847A0
S11305D002B010BD490500000406002000300040B0
S11305E00C100020514B00006D050000064B412209
S11305F0C3F8A0204222C3F88C20044A536943F470
S113060000535361704700BF001C004000080040C5
S1130610104B93F85B2102F0FE0242F0010283F8D2
S11306205B2193F83D2102F00F0242F0200283F88F
S11306303D2193F85C2102F0FE0242F0010283F8AE
S11306405C2193F83E2102F0F00242F0020283F8AA
S11306503E2170470080004110B582B0064B984798
S1130660002300931023054A05490648064CA04779
S1130670064B984702B010BDED050000140600209B
S11306800034004060100020514B000011060000AF
S1130690064B4122C3F8DC204222C3F88C20044AD2
S11306A0936943F400739361704700BF001C0040DA
S11306B000080040104B93F8D92002F0FE0242F0EB
S11306C0010283F8D92093F8BC2002F00F0242F013
S11306D0300283F8BC2093F8D82002F0FE0242F0E6
S11306E0010283F8D82093F8BC2002F0F00242F013
S11306F0030283F8BC2070470080004110B582B02B
S1130700064B9847002300931023054A05490648E1
S1130710064CA047064B984702B010BD9106000056
S11307202406002000200141900F0020514B0000BE
S1130730B50600002B4B4FF48011C3F89410C3F896
S113074088104FF08040C3F8A800274AC3F8A820B7
S113075093F8D42002F0FE0242F0010283F8D42080
S113076093F8BA2002F0F00242F0020283F8BA20B1
S11307704FF40012C3F89420C3F88820C3F8A800EB
S11307801A4AC3F8A82093F8D52002F0FE0242F0DA
S1130790010283F8D52093F8BA2002F00F0242F048
S11307A0200283F8BA205960114A9A6202F1004289
S11307B010329A6293F8542002F0FB0283F854201A
S11307C093F8542002F0FE0242F0010283F8542010
S11307D093F83A2002F0F00242F0030283F83A2040
S11307E0704700BF00800041100000C0200000C01E
S11307F000000240064B4122C3F8E0204322C3F824
S11308008C20044A936943F480639361704700BF6A
S1130810001C00400008004008B5044B98470449F8
S11308200448054B9847054B984708BDF507000059
S113083000400141900E0020614400003507000093
S1130840064B4122C3F808214222C3F88C20044AF3
S1130850136A43F001031362704700BF001C004099
S113086000080040104B93F8C82002F0FE0242F04A
S1130870010283F8C82093F8B42002F0F00242F099
S1130880030283F8B42093F8C92002F0FE0242F078
S1130890010283F8C92093F8B42002F00F0242F059
S11308A0300283F8B42070470080004110B582B054
S11308B0074B9847002300931023064A4FF08641C4
S11308C00548064CA047064B984702B010BD00BF30
S11308D0410800003406002014110020514B000090
S11308E065080000164B93F8572002F0FB0283F8CA
S11308F0572093F8572002F0FE0242F0010283F8D9
S1130900572093F83B2002F00F0242F0300283F8A4
S11309103B2093F8562002F0FB0283F8562093F80C
S1130920562002F0FE0242F0010283F8562093F8AA
S11309303B2002F0F00242F0030283F83B207047B0
S113094000800041064B4122C3F80C214222C3F827
S11309508C20044A136A43F002031362704700BFF9
S1130960001C00400008004008B5044B98470449A7
S11309700448054B9847054B984708BD45090000B6
S113098000040043500F002005420000E508000069
S1130990064B4122C3F810214222C3F88C20044A9A
S11309A0136A43F004031362704700BF001C004045
S11309B000080040104B93F84D2102F0FE0242F073
S11309C0010283F84D2193F8362102F00F0242F020
S11309D0300283F8362193F84C2102F0FE0242F0F3
S11309E0010283F84C2193F8362102F0F00242F020
S11309F0030283F8362170470080004110B582B0AD
S1130A00064B9847002300931023054A05490648DE
S1130A10064CA047064B984702B010BD9109000050
S1130A20440600200008004364110020514B0000DC
S1130A30B5090000294B4FF08042C3F89420C3F855
S1130A408820C3F8A8202649C3F8A81093F8DE101C
S1130A5001F0FE0141F0010183F8DE1093F8BF10AC
S1130A6001F0F00141F0020183F8BF104FF00041A2
S1130A70C3F89410C3F88810C3F8A8201949C3F820
S1130A80A81093F8DF1001F0FE0141F0010183F892
S1130A90DF1093F8BF1001F00F0141F0200183F83B
S1130AA0BF105A6002F500329A620F4A9A6293F8B4
S1130AB05E2002F0FB0283F85E2093F85E2002F0D1
S1130AC0FE0242F0010283F85E2093F83F2002F018
S1130AD0F00242F0020283F83F2070470080004198
S1130AE0004000C0008000C0004002C0064B41220C
S1130AF0C3F814214222C3F88C20044A136A43F039
S1130B0008031362704700BF001C00400008004047
S1130B1008B5044B984704490448054B9847054BCE
S1130B20984708BDED0A0000000C0043B0100020F7
S1130B30C5460000350A000008B50248024B984734
S1130B4008BD00BF10E000E0D14000001E4B4FF094
S1130B5080729A604FF0804199621C4898625A6191
S1130B6093F8582002F0FB0283F8582093F8582099
S1130B7002F0FE0242F0010283F8582093F83C2070
S1130B8002F0F00242F0070283F83C204FF00072BA
S1130B909A6099620E4999625A6193F8592002F059
S1130BA0FB0283F8592093F8592002F0FE0242F028
S1130BB0010283F8592093F83C2002F00F0242F01E
S1130BC0700283F83C20704700800041000100C09F
S1130BD0000200C04122074BC3F8A820A3F5A0538C
S1130BE01A6942F480621A619A6942F001029A61B8
S1130BF0704700BF001C004008B5034B9847034BE7
S1130C009847034B984708BDD50B0000FD4E0000E4
S1130C104D0B0000024A536943F4807353617047DB
S1130C200008004008B5064B9847482205490120B2
S1130C30054B98470548064B0360064B984708BD8B
S1130C40150C0000A4BB0000495200005C100020F9
S1130C5000200040358B00002DE9F041A24B98475D
S1130C60A24B20225A619A6002F180429A624FF0AC
S1130C7040429A6293F8451001F0FE0183F8451052
S1130C804FF4001058609A4E9E629A49996293F804
S1130C90551001F0FB0183F8551093F8551001F03D
S1130CA0FE0183F855108021C3F8841001F18041BE
S1130CB001F50031C3F8A8108F4DC3F8A85093F87C
S1130CC0C71001F0FB0183F8C71093F8C71001F0B7
S1130CD0FE0183F8C7104FF40051C3F89410C3F811
S1130CE0881001F18041C3F8A810C3F8A82093F834
S1130CF0CD1001F0FE0183F8CD104FF48041C3F80C
S1130D009410C3F888104FF04027C3F8A870C3F8B4
S1130D10A82093F8CE4004F0FE0483F8CE404FF4AC
S1130D200044C3F88440754CC3F8A840C3F8A850E5
S1130D3093F8CF4004F0FB0483F8CF4093F8CF40FE
S1130D4004F0FE0483F8CF404FF40064C3F8044178
S1130D50DFF834E2C3F828E1C3F82851C3F80441AA
S1130D6093F84B5145F0040583F84B51C3F81841EF
S1130D7093F84B4104F0FE0483F84B41C3F814117B
S1130D80C3F80811C3F82871C3F8282193F84E2139
S1130D9002F0FE0283F84E214FF48022C3F80421AE
S1130DA0C3F82861564AC3F8282193F8522102F067
S1130DB0FB0283F8522193F8522102F0FE0283F8D9
S1130DC052214FF40022C3F81421C3F808214FF034
S1130DD08042C3F828214B49C3F8281193F85311D2
S1130DE001F0FE0183F853114FF48011C3F814117C
S1130DF0C3F80811C3F828214349C3F8281193F80C
S1130E00541101F0FE0183F85411C3F81401C3F81E
S1130E100801C3F828213D4AC3F8282193F8552135
S1130E2002F0FE0283F85521394B9847394B984715
S1130E30394B9847394B9847394B9847394C636934
S1130E4043F400736361384B984702463749384886
S1130E50384DA847384B9847384B9847384B9847F4
S1130E60384B9847384B9847384B9847384B9847F6
S1130E70384B9847384B9847636943F48043636120
S1130E80A7F510574FF04008C7F8A480334EB04779
S1130E90024633493348A847636943F40043636116
S1130EA0C7F8A480B04702462F493048A847A36931
S1130EB043F40053A361C7F8E880B04702462C49C5
S1130EC02C48A847A36943F48043A361C7F8E8808A
S1130ED0B047024628492948A847294B9847294B37
S1130EE09847BDE8F08100BFED5700000080004145
S1130EF000000240200002C0000002C00080024046
S1130F00040002C0080000C0100000C0200000C09F
S1130F108103000019040000BD040000E504000082
S1130F202905000000080040D15F000000240040B3
S1130F30D80E00206D480000B505000059060000D9
S1130F40FD06000019080000AD0800006909000052
S1130F50FD090000110B0000390B0000117800009E
S1130F600038004000120020003C0040F410002033
S1130F7000A00141F80E002000C00141E011002052
S1130F80F90B0000250C00000008024038B50446A7
S1130F900D46017142718371002343814800094B5E
S1130FA0984720604DB100231946226822F8131097
S1130FB00133DBB222799A42F7D80020A081208144
S1130FC038BD00BF19B200002DE9F0470546894637
S1130FD01746984600010C4B98470C4B186085B196
S1130FE0013DEDB201352D0100249A46084E4346D9
S1130FF03A464946DAF800002044B0471034AC427F
S1131000F5D10020BDE8F08719B200005C1700207C
S11310108D0F00002DE9F04F00013C4BD3F800A0E8
S11310200AEB000C9CF80460002E5BD05AF80050C8
S1131030023D00229046914696464FF6FF771446AD
S11310405FFA82FB35F8023F1C44734584BFD846DF
S11310509E46BB423CBFD9461F460132D3B2B3427F
S1131060EED3B4FBF6F6B6B28E423FD25AF8003055
S11310700C4433F81920A41A23F819109CF80430EE
S1131080B4FBF3F49CF806309CF80550A6B2C3F107
S11310901000C0B2EB1AD9B246FA00F39BB28B40EF
S11310A09FB2BCF80A20921B002AB8BF5242012604
S11310B006FA00F0BCF80860BE4220D0824208DC88
S11310C0012202FA05F502FA01F1691A8F4200D0F1
S11310D0C7B9ACF80A40ACF808700120ACF80C00B1
S11310E0BDE8F08FB046B1460024BAE75AF80030A4
S11310F00C4433F81820A41A23F81810BEE7002073
S1131100BDE8F08F0020BDE8F08F00BF5C17002021
S1131110024B1B6803EB0010007B70475C17002038
S1131120094B1B6803EB001000238381CB1FDBB248
S1131130072B06D803894079401A43FA00F080B29D
S113114070470020FBE700BF5C17002038B5044659
S11311500D4601800023C38103814381838103827F
S1131160438283820846084B9847606000B9FEE7D3
S113117045B1002319466268D15401339BB22288D9
S11311809A42F8D8012038BD19B200000389028AB6
S113119093428FBF981A0088C018801A80B2704793
S11311A010B40389028A93429CBF04881B199B1ABA
S11311B09BB28B420AD90A44048892FBF4F304FBE1
S11311C01322428208465DF8044B70470020FAE778
S11311D0838A4268D154838A01339BB20188B3FB6A
S11311E0F1F201FB1233838201207047838A428A21
S11311F09A4200D0FEE70382012070478389428926
S11312009A4200D0FEE702899A4200D0FEE7F0B489
S1131210058AAB4225D00488FCB1264693FBF4F240
S113122004FB123291B28D421DD04068425C0A2AFE
S113123014D10023013398B2F0BC704792FBF6F14D
S113124006FB11218FB2BD420FD00132C15D0A29C4
S1131250F0D001339BB2A342F0D1FEE75A1C002325
S1131260F7E70020E8E70020E6E70020E4E78289CA
S11312704389934200D0FEE70389934200D0FEE7FE
S1131280F0B5058AAA4231D004885CB3264692FBA5
S1131290F4F304FB132399B28D4229D047680B461B
S11312A0795C0A291FD10021013393FBF4F204FB7A
S11312B0123343814B1C9BB2C3811846F0BD92FB91
S11312C0F6F306FB13231FFA83FE754512D073460B
S11312D0013217F80EE0BEF10A0FE5D0013189B2F0
S11312E0A142ECD1FEE701320021F7E70023E4E755
S11312F00023E2E70023E0E78389418999420ED085
S113130010B402464168C85C01339BB21488B3FB35
S1131310F4F104FB113393815DF8044B7047FEE74D
S1131320838942899A4200D0FEE7038101207047F5
S11313302DE9F041044690461F469DF8185000F5EB
S11313409B60334EB047414604F59E60B04700238E
S113135023709DF82020A2729DF81C2062726760A1
S11313602572A381E3611946E21882F8281001333B
S1131370B3F5167FF8D100231946E21882F88012DB
S11313800133B3F5167FF8D1002384F80C35C4F883
S11313900835012384F80F359D4204D0012384F8D5
S11313A00F35BDE8F081002384F80F3584F80C353F
S11313B0637ADBB2112B13D0637ADBB2122B17D012
S11313C0637ADBB2132B1BD0637ADBB2142BE8D124
S11313D0FF2384F80D35002384F80E35BDE8F08131
S11313E0002384F80D35012384F80E35BDE8F0811F
S11313F0012384F80D35002384F80E35BDE8F0810F
S1131400002384F80D35FF2384F80E35BDE8F08100
S11314104D1100002DE9F04784B0002602961123F7
S1131420019301240094254B4FF47A721146244809
S1131430244DA8470294122301930094224B4FF4A5
S11314407A7211462148A8474FF00209CDF8089056
S11314501323019300941E4B4FF47A7211461D48D6
S1131460A847032702971423019300941A4B4FF4BF
S11314707A7211461948A847DFF868804FF0FF0ACE
S1131480CDF808A00196009733464FF47A721146BE
S11314904046A847124FCDF808A00196CDF8009019
S11314A033464FF47A7211463846A84788F80F45F8
S11314B087F80F4504B0BDE8F08700BF6010002036
S11314C024120020311300000C100020FC310020F5
S11314D064110020D827002014110020B422002019
S11314E0EC2C0020741700202DE9F04F91B002AFCE
S11314F0786000F59E694846544B984720B900200F
S11315003C37BD46BDE8F08F8046C7F800D0504B4D
S1131510BB60504BFB60504B3B61504B7B61504B6D
S1131520BB61504BFB6107F1080307F12001002662
S113153001E08B420ED053F8042B92F80F050028DB
S1131540F7D007F1380000EB860040F8182C01367C
S1131550F6B2EEE7002E68D007F1200A741EE4B25A
S113156001340AEB84045546DFF818B101E0A542C2
S113157016D055F8040B7B688342F8D000F59B60C5
S1131580D8478045F3D9C82301930223009300234D
S1131590642211463448354CA047D7F800D0AEE752
S11315A04846334B9847804500D0FEE7314C01E074
S11315B0AA453FD05AF8040B7B688342F8D04146D1
S11315C000F59B60A047F3E7A54209D054F8040B4B
S11315D07B688342F8D0396800F59B60D847F3E70D
S11315E00AF1010A1FFA8AF3434508D24846224BFE
S11315F098473860002EF3D007F12004E6E7484608
S11316001E4B9847002E3FF47BAF07F120041C4E7D
S113161002E0A5423FF474AF54F8040B7B688342A4
S1131620F7D000F59B60B047F3E74846104B984766
S11316304045BAD1751EEDB207F1380303EB8505B9
S1131640143D4FF0000ADFF840B0CFE7FD11000071
S113165024120020FC310020D8270020B4220020CE
S113166074170020EC2C0020901C0020C5360000CC
S11316706F120000A1110000F912000021130000F4
S1131680ED1100008D110000D11100002DE9F04F83
S11316909BB006AF386400F59B663046894B98478B
S11316A018B95437BD46BDE8F08F04463046864B22
S11316B098470025DFF84C92DFF814823046C8477B
S11316C008F805000135EDB2ABB29C42F6D83046BD
S11316D07E4B98477E4D28467E4B9847B8632846F4
S11316E07D4B98477F3843B27B6228467B4B9847B3
S11316F07F3842B27A612846794B9847786300264E
S113170087F84F607A693A63C2F58073F21A03F07E
S11317100F0302F00F0258BF5342DAB2FA617B6A38
S1131720FB621B01BB613A62631E9BB203F1010AB7
S1131730B3467E64A94606E05FFA8BF60BF1010B13
S1131740D34500F06F8119F80B30DBB2022BF3D0D4
S113175019F80B30DBB2032BF0D1002EEED0344657
S1131760701C07F14F02022148445E4B984710F069
S1131770FF051BD0032D6FD0012D00F0C580022D75
S113178000F04E817D6C05F128043B6C1C44C2B210
S113179055492046554B98472046554B984705EBED
S11317A000085FFA88F37B640026C7E7F01C07F1A2
S11317B04F02022148444B4B9847701D07F14F02DA
S11317C002214844474B98475FFA80F8F01D07F11F
S11317D04F0202214844434B9847044606F109004E
S11317E007F14F02022148443E4B98477B6C283353
S11317F03A6C1A441646E4B24034B9690C44634264
S113180004F07F0403F07F0358BF5C42E4B2C3B228
S1131810FB6305930494CDF80C80396A0291796BCB
S11318200191396B0091FB6ABA6B3249BE62304652
S11318302E4EB047B86A2E4B98477B6C1844C3B2FF
S11318407B64FB6B2246F96948EA01014FEA1810F0
S1131850294CA0472E4671E77B6A002B40F0DE80BE
S11318607B690BB1002669E7F01C07F14F020221E6
S113187048441C4B98470646601D07F14F0202215D
S11318804844184B98470546E01D07F14F020221D2
S11318904844144B9847804604F1090007F14F026D
S11318A0022148440F4B9847EDB2632D01D0002626
S11318B044E7C3B2F2B25FFA88F11048104CA04773
S11318C000263BE7FD1100006F1200002113000009
S11318D040370020B1380000D1380000F138000052
S11318E0113900001937000050BC00003DB400005D
S11318F085B40000C0BB000071A0000010370020B8
S1131900A11C0000F9120000C7F810D05FFA8BF395
S11319109B1B033B464A82FB0312A2EBE373DBB23D
S11319201946FB6003EB4303073323F00703ADEBD6
S1131930030D06AB1A46BB60002964D0033404EBE4
S113194009084B1EDBB203EB4303093606EB4303E2
S11319504B44BB62FA63C7F804B0D7F844B0C7F885
S113196000A007F14F0202214046324B984704463B
S113197007F14F02022108EB01002E4B9847054660
S113198007F14F02022108F104002A4B984706464A
S11319900BF1280A3B6C9A44274B98470590E4B214
S11319A00494EDB203957E6497F8443002937B6B04
S11319B001933B6B0093FB6ABA6B20495046204E5F
S11319C0B04750461F4B984783445FFA8BFB97F808
S11319D04430F96B0B70822D14BF002501250B4692
S11319E04D70802C14BF002401248C7008F106086B
S11319F00333FB63BB6A9845B3D1C7F844B0D7F847
S1131A0004B0D7F800A0F968B8680F4B9847C0B283
S1131A100E4B5870D7F810D000268FE600268DE6BE
S1131A2000268BE6796C386C2830094B984738E6E9
S1131A30ABAAAA2A193700009137000008BC00009D
S1131A403DB4000085B40000ED9A00003439002054
S1131A50AD980000F8B500F59B6528460A4B9847F9
S1131A6000B9F8BD06462846084B98470024084F9D
S1131A702846B8470134E4B2A3B29E42F8D82846B7
S1131A80044B9847EDE700BFFD1100006F12000002
S1131A90F912000021130000838903B170472DE976
S1131AA0F041054600F59B663046114B98470446C5
S1131AB0074610B90020BDE8F08130460D4B984729
S1131AC0AC810024DFF838803046C0472B1983F8F6
S1131AD028000134E4B2A742F6D83046064B9847B2
S1131AE0AA8905F128016868044B9847BDE8F0818C
S1131AF0FD1100006F12000021130000714200006C
S1131B00F91200000122014B1A70704720120020C4
S1131B1030B444788C4202D8FF2030BC704701EBCB
S1131B2041018900094C54F82350C3685D5054F8AE
S1131B302220C3680B445A609DF8083054F82320CF
S1131B40C36819448A600020E7E700BFA41E002090
S1131B5010B5064C00F114012046054B9847054A80
S1131B6000212046044B984710BD00BFB010002050
S1131B7069470000051B00003947000040787047A2
S1131B804378F3B110B4002303EB430203EB820167
S1131B9002690A44D17A147B2144D17242781A44EE
S1131BA002EB420102EB810201690A44D17A147BFF
S1131BB02144D1720133DBB242789A42E4D85DF811
S1131BC0044B704770B4447802FB0414056904EBB9
S1131BD0440604EB86042B55437802FB0313046983
S1131BE003EB430503EB850323449DF80C405C7031
S1131BF0437802FB0312036902EB420102EB810208
S1131C001A449DF81030937070BC704770B44478D7
S1131C1002FB0414056904EB440604EB86042C441B
S1131C20E370437802FB0313046903EB430503EBFE
S1131C30850323449DF80C401C71437802FB031276
S1131C40036902EB420102EB81021A449DF8103051
S1131C50537170BC704770B4447802FB0414056976
S1131C6004EB440604EB86042C44A371437802FB82
S1131C700313046903EB430503EB850323449DF835
S1131C800C40DC71437802FB0312036902EB42014E
S1131C9002EB81021A449DF81030137270BC704735
S1131CA010B4447802FB0412016902EB420002EB17
S1131CB080020A44D3725DF8044B704710B4447830
S1131CC002FB0412016902EB420002EB80020A44A7
S1131CD013735DF8044B70472DE9F04F83B004464D
S1131CE04170CDB205EB45008000903060603E4FFE
S1131CF0B8470646A06000F19003E3601A2000FB99
S1131D0005F0B847002E6ED000286CD02061002367
S1131D101946A268D1540133902BFAD16378002B71
S1131D205ED000252E46314F009633463246294672
S1131D302046B84701356378AB42F5D8002B4FD025
S1131D400026DFF8B0B0DFF8B0A0002501950095BB
S1131D502B462A4631462046D84701957F230093D7
S1131D602B462A4631462046D0470195FF2300934F
S1131D702B462A4631462046DFF88090C8472B463A
S1131D802A4631462046DFF87880C0472B462A464B
S1131D9031462046164FB847019500952B4601223F
S1131DA031462046D847019500952B4601223146FD
S1131DB02046D047019500952B4601223146204606
S1131DC0C8472B46012231462046C0472B460122F4
S1131DD031462046B8470136F6B26378B342B4D8E8
S1131DE003B0BDE8F08FFEE719B20000111B00003C
S1131DF0A11C0000C51B00000D1C0000571C0000A6
S1131E00BD1C00002DE9F04F83B090F801C00CEB2D
S1131E104C030CEB830C01EB410401EB84030469D8
S1131E201C4402274FF0000E73467246DFF884808C
S1131E30E67A18F80690464496F8005196F800623F
S1131E4094F800A094F803B005FB0BFB09FB0ABB54
S1131E5094F806A006FB0ABA524494F801A094F838
S1131E6004B005FB0BFB09FB0ABB94F807A006FBB7
S1131E700ABA534494F802A094F805B005FB0BF594
S1131E8009FB0A59257A06FB0595AE44013F6444D3
S1131E9017F0FF07CCD1CEF347240094C3F34723B4
S1131EA0C2F34722024CA04703B0BDE8F08F00BF45
S1131EB0111B00000000002043785BB170B505469B
S1131EC00024054E21462846B04701346B78A342CE
S1131ED0F8D870BD704700BF051E000010B5044659
S1131EE00022084B1A700848084B9847A288A1683A
S1131EF06069074B9847034A1378DBB2012BFBD187
S1131F0010BD00BF20120020B010002011470000B7
S1131F10714200002DE9F04F85B00646204B1B7836
S1131F20DBB2202B0AD04FF0010BCDF80CB04FF0F0
S1131F30FF0A4FF00009DFF874801EE04FF0020B37
S1131F4000230393F3E700952B463A462146304697
S1131F50C0470134E4B27378A342F4D83046114B3D
S1131F6098470120104B984709F101095FFA89F954
S1131F700AF1FF3A1AF0FF0A0FD07378002BEDD064
S1131F800BFB09F707F0FF07039B09FB03F50BFBAA
S1131F9005F505F0FF050024D5E705B0BDE8F08F91
S1131FA0000C0040DD1E0000E5400000111B000095
S1131FB070B504462B4E002293B203F001000028B2
S1131FC014BF4FF060604FF00060C3F34005002D74
S1131FD014BF4FF060454FF000450543C3F3800044
S1131FE0002814BF4FF460204FF400202843C3F3AB
S1131FF0C005002D14BF4FF460054FF400052843BD
S1132000C3F30015002D14BF4FF460654FF4006551
S11320100543C3F34010002814BF4FF460404FF44D
S113202000400543C3F38010002814BF0E2008208D
S11320302843C3F3C013002B14BFE02380230343BE
S113204046F8043F0132B2F5807FB5D12046064BF5
S113205098472046054B98472046054B9847002053
S113206070BD00BFA01E0020D91C0000511B000041
S1132070151F000010B504460022054B1A700548D0
S1132080054B9847A288A1686069044B984710BD26
S113209020120020B01000201147000071420000FF
S11320A0014B1878704700BF2012002008B54FF488
S11320B08042144BC3F81821134B984790B1124B2C
S11320C09847802812D0104B9847402812D00E4BC6
S11320D09847C02812D00D4B98470D4B98470D4B8D
S11320E0984708BD0C480D4B9847E8E70A480C4B45
S11320F09847E8E708480B4B9847E8E706480A4B37
S11321009847E8E70080004191370000151400006B
S11321108D340000F5350000841C00208D32000051
S113212001240000A12E00001929000010B5034865
S1132130034CA0470348A04710BD00BFE00F002098
S11321405D400000B4110020904B1B782BB98F4ADE
S113215013780133DBB2137070472DE9F04387B075
S113216001A88B4CA04704A8A0478A4BD3F80011C0
S1132170D3F82021D3F8104154400C40544004A813
S1132180854B9847854B5B68DB681A78C4F3C02499
S1132190944210D0002A40F0F48001221A70802268
S11321A07E4C63685868022103307D4B98470021B8
S11321B020467C4B984701A8774B98470023ADF8FD
S11321C01630ADF81430714B5A7808327648855C75
S11321D0EDB25A78D2B2845CE4B25A780132D2B207
S11321E05A705A7802F007025A705B7813F0010FA4
S11321F04FF40022674B14BFC3F81821C3F814210D
S1132200624B5B7813F0020F4FF48012614B14BFE2
S1132210C3F81821C3F814215C4B5B7813F0040F46
S11322204FF400125B4B14BFC3F81821C3F81421F8
S113223002230DF1160200215C485D4EB0470223D3
S113224005AA00215B48B047BDF8162042F210737E
S11322509A428CBF00237F23ADF81630BDF81420BA
S113226042F210739A428CBF00237F23ADF81430DE
S113227002A8474B98476E1C3601484B5B683344B1
S1132280DA681278BDF8161091422FD0002A0CBFDC
S11322904FF07F094FF0000958680CBF902280224C
S11322A002210530DFF8F880C0473C4F7B68334497
S11322B058682A4602210730C0477B68334458686F
S11322C04A4602210930C0477B68334458684FEAC4
S11322D0490202211530C0477B681E44F36883F825
S11322E00090691CC9B238462E4B984702A82A4B65
S11322F0984703A8264B9847651C2D01274B5B681C
S11323002B44DA681278BDF8141091422ED0002ABA
S11323100CBF4FF07F084FF0000858680CBF9022A4
S11323208022022105301E4FB8471C4E73682B448F
S11323305868224602210730B84773682B4458680E
S1132340424602210930B84773682B4458684FEA63
S1132350480202211530B84773681D44EB6883F8BE
S11323600080611CC9B230460E4B984703A80A4B43
S113237098470022054B1A700F4B984707B0BDE8E9
S1132380F08300221A7081220AE700BF540600205D
S1132390854000000080004193400000841C002020
S11323A0593700005F3B000000030020E00F0020CD
S11323B07D3F0000B41100202D210000F8B50B4F23
S11323C00B4C3B460022114620460A4EB0470A4DAC
S11323D03B46002211462846B04700212046074CC0
S11323E0A04700212846A047F8BD00BF49210000AE
S11323F0E00F0020FD3E0000B4110020BD3E0000AF
S11324002DE9F04F9BB0824610213948394B98474B
S113241011215046384B9847DAF80430002B64D029
S113242001250024DFF8F0B0344F28E003230393A0
S11324301323029383230193802300930123022215
S11324402F4912A8D84712A8B84780460DAE2D4B85
S11324501B68ADF834301B0C8DF836303046B84765
S1132460C0B2019000965FFA88F312AA0021504688
S1132470254EB047002838D101340135EDB214F0AF
S1132480FF08D3D0601E03210B9100230A93099007
S11324906322089207930691022205920491039302
S11324A00290902101910093184912A8D84712A8CC
S11324B0B84781460DAE134B1B68ADF834301B0C86
S11324C08DF836303046B847C0B2019000965FFAB6
S11324D089F312AA414650460B4EB04728B9102D35
S11324E0CAD90B4B98470B4B98471BB0BDE8F08FEC
S11324F010370020B11F0000813A000085B40000AD
S11325006CBC000084BC0000993A000088BC000048
S1132510BD2300002D2100003DB4000010B54FF490
S11325200012064B9A61064C2046064B9847082336
S1132530054A06492046064CA04710BD00800041CC
S1132540900E0020E54400006417002010030020D2
S113255085450000000000002DE9F04F2DED048BAF
S113256083B04FF40012284B5A61284D00279FED89
S1132570229B9FED238B61E098F80020244B5B683D
S113258003EB0213D3F81C311B7823E101A8214B80
S113259098471D4BD3F80011D3F82021D3F81041EC
S11325A054400C40544001A81B4B9847184B5B689F
S11325B0DA681378C4F3C0249C420ED0BBB901235B
S11325C013708122124C6368586802210330134B44
S11325D0984700212046124B98470022114B1A704D
S11325E0114B984703B0BDEC048BBDE8F08F00237A
S11325F013708022E6E700BF000000000088E3407B
S1132600000000000000F03F008000412003002093
S1132610841C0020854000009340000059370000CE
S11326205F3B00003C3700201D250000924A02EB6E
S113263003139C7301370135102FA7D0F9B24B084F
S11326408E4AD35C01F0010292001341DBB203F025
S11326500F068B4AD25DD2B29642EBD0894A1170F2
S1132660B108C6F3400603F00104A8462B78824A59
S113267002EB031252788A4249D07F4A02EB0312DA
S113268001209070517003447F4A526802EB031397
S1132690DA681278002A0CBF4FF07F0B4FF0000B62
S11326A058680CBF9022802202210530DFF800A276
S11326B0D0472A78DFF8D091D9F8043003EB02131D
S11326C0586902210730D0472A78D9F8043003EB3F
S11326D0021358695A4602210930D0472A78D9F89A
S11326E0043003EB021358694FEA4B020221153000
S11326F0D0472A78D9F8043003EB0213DB6983F856
S113270000B029780131C9B24846604B984798F81F
S113271000300133584A02EB0312527BB24285D097
S1132720A64214BF4FF0FF394FF00109524A02EBA1
S113273003135E739C7399685548564B98470090F1
S1132740009BB3F5C87F84BF4FF4C8730093009B0C
S1132750132B9CBF14230093009B009800FB03F0F1
S1132760C0F51C3000F580704B4B984753EC192B87
S11327704A4CA04753EC182B494CA047494B984767
S1132780C4B298F8006001364148474B98473A4B29
S113279003EB0616B06098F800104A1C5FFA89F93A
S11327A003EB0213DA784A4402F07F02DA70113143
S11327B0C9B235483D4B984700287FF4DDAE98F800
S11327C00020314B5B6803EB0213D3F81C31002269
S11327D01A70402304FB09395FFA89F998F800203C
S11327E002F11101284B5B6803EB0113D9680978E6
S11327F049453FF41FAF204901EB021292F813A0A0
S11328005868B02202210530294EB04798F80020BC
S11328101D4C636803EB0213D3F814010221073043
S1132820B04798F80020636803EB0213D3F814014F
S11328304A4602210930B0474FEA4A0298F800108C
S1132840636803EB0113D3F8140102F0FE020221C2
S11328501530B04798F80020636803EB0213D3F8EF
S11328601C3183F8009098F800101131C9B2204649
S1132870064B9847DEE600BF40390020641700206D
S11328804C17002034170020841C00205F3B0000FC
S1132890901C00206536000081AC0000C1AF000030
S11328A009AA000091B1000061360000573B000006
S11328B05937000010B50E4B4FF400125A619A605C
S11328C04FF080429A620B4A9A620B4C03212046D5
S11328D00A4B98470A4920460A4B98470A4920461A
S11328E00A4B98470A4A002120460A4B984710BDD4
S11328F000800041200000C0900E002049450000E7
S1132900801A06000D4500004817002031460000DB
S113291059250000ED4500002DE9F04F9DB0044617
S11329200D90212303704FF40470484B9847606066
S113293001250024DFF83881DFF838B1DFF838A149
S113294055E00323039339230293832301938023C4
S11329500093012302223E4914A83E4EB04714A816
S1132960C04707460FAEDBF80030ADF83C301B0C17
S11329708DF83E303046C047C0B201900096FBB29D
S113298014AA00210D98D0472EE0A4F111000321D0
S11329900B9100230A9309906322089207930691EE
S11329A002220592049103930290B02101910093B5
S11329B0294914A8274FB84714A8C04781460FAF28
S11329C0DBF80030ADF83C301B0C8DF83E30384657
S11329D0C047C0B2019000975FFA89F314AA314648
S11329E00D98D047202D1ED801340135EDB214F0D6
S11329F0FF06A6D0102EC8D8601E03210B91002319
S1132A000A93099063220892079306910222059281
S1132A100491039302909021019100930E4914A80C
S1132A200C4FB847C8E700230C491A01535401332B
S1132A30102BFAD110210A480A4B98470A4B9847A1
S1132A400A4B98471DB0BDE8F08F00BF19B20000D3
S1132A50BCBC00003DB4000088BC0000403900202C
S1132A6010370020B11F0000B52800001D2500000C
S1132A7085B4000084BC0000993A000010B50348F6
S1132A80034CA0470348A04710BD00BFE00F00203F
S1132A905D400000B4110020A14B1B782BB9A04A63
S1132AA013780133DBB2137070472DE9F04F83B014
S1132AB068469C4B98479C4BD3F80011D3F82021CF
S1132AC0D3F8104154400C4054406846974B984703
S1132AD0974B5B68DB681A78C4F3C024944210D027
S1132AE0002A40F0158101221A708022904C6368FC
S1132AF05868022103308F4B9847002120468E4BA3
S1132B0098470023ADF80630ADF804308B4B1A78A3
S1132B1008328B498E5CF6B21A78D2B28D5CEDB273
S1132B201A780132D2B21A701A7802F007021A70B7
S1132B301B7813F0010F4FF400227B4B14BFC3F832
S1132B401821C3F814217D4B1B7813F0020F4FF4A6
S1132B508012754B14BFC3F81821C3F81421774BA6
S1132B601B7813F0040F4FF400126F4B14BFC3F81B
S1132B701821C3F8142102230DF106020021714823
S1132B80714CA047022301AA00217048A047DFF836
S1132B90C4B1BDF80600D847DFF8BCA15EA3D3E9F1
S1132BA00023D047DFF8B491C8474FF6FF74A04222
S1132BB028BF204607461FFA80F8ADF80680BDF806
S1132BC00400D84754A3D3E90023D047C847A04200
S1132BD028BF204680B2ADF80400A5F10803DBB29B
S1132BE0012B40F28D800D2E40F2BA8042F2107318
S1132BF098458CBF00237F23ADF8063042F2107352
S1132C0098428CBF00237F23ADF8043006F1805432
S1132C10033C2401464B5B682344DA681278BDF810
S1132C20061091422FD0002A0CBF4FF07F094FF0BD
S1132C30000958680CBF9022802202210530DFF879
S1132C40F480C0473A4F7B682344586832460221D7
S1132C500730C0477B68234458684A46022109303C
S1132C60C0477B68234458684FEA49020221153063
S1132C70C0477B681C44E36883F80090F11EC9B226
S1132C8038462D4B984705F18054033C2401284BCA
S1132C905B682344DA681278BDF8041091422FD09F
S1132CA0002A0CBF4FF07F094FF0000958680CBF91
S1132CB09022802202210530DFF87880C0471C4F23
S1132CC07B6823445868324602210730C0477B683A
S1132CD0234458684A4602210930C0477B6823448C
S1132CE058684FEA490202211530C0477B681C44EA
S1132CF0E36883F80090E91EC9B238460E4B984742
S1132D000022074B1A70124B984703B0BDE8F08FAE
S1132D1000221A708122E9E67B14AE47E17AF03F83
S1132D2060170020854000000080004193400000AF
S1132D30841C0020593700005F3B00000C37002042
S1132D4034030020E00F00207D3F0000B411002078
S1132D507D2A0000A1AC00006DAD000091B100001F
S1132D60012D37D9B9B23046364CA047BDF804100E
S1132D702846A0473046344B9847002839D1284686
S1132D80314B98470028BBD0072128462F4B984742
S1132D9006466F1C4FEA07182D4C63684344586875
S1132DA02A46022107302B4DA847636843445868DC
S1132DB0F2B202210930A84772006368434458689C
S1132DC002F0FE0202211530A847F9B22046224B38
S1132DD0984795E7B9B24FF6FF78A8EB0101304662
S1132DE0184CA047BDF80410A8EB01012846A047E1
S1132DF0C0E707213046154B9847074606F10108FE
S1132E004FEA0819124C63684B4458683246022151
S1132E100730104EB04763684B445868FAB2022139
S1132E200930B0477A0063684B44586802F0FE02E8
S1132E3002211530B0475FFA88F12046064B9847C7
S1132E409DE700BF151000001111000021110000C2
S1132E50841C0020593700005F3B0000F8B50B4F7D
S1132E600B4C3B460022114620460A4EB0470A4D01
S1132E703B46002211462846B04700212046074C15
S1132E80A04700212846A047F8BD00BF992A0000AA
S1132E90E00F0020FD3E0000B4110020BD3E000004
S1132EA02DE9F0479AB007460D21334B98473B78FC
S1132EB0002B4FD00024DFF8E8A0DFF8E89029E0E9
S1132EC003230393392302938323019380230093E1
S1132ED001230222294912A8C84712A8284EB04744
S1132EE080460DAD274B1B68ADF834301B0C8DF8B4
S1132EF036302846B047C0B2019000955FFA88F397
S1132F0012AA21463846204DA8470134E4B23B7842
S1132F10A3421FD9002CD3D0082C04F1FF304FF06A
S1132F2003010B914FF000030A9309904FF06302E1
S1132F300892079306914FF00202059204910393BD
S1132F40029094BFB021902101910093514612A8A0
S1132F50C847C2E707230E22052110200B4CA047C7
S1132F600C210B480B4B98470B4B98470B4B98473E
S1132F701AB0BDE8F08700BF813A00006CBC0000C5
S1132F8085B4000084BC0000993A0000C90F000019
S1132F9010370020B11F00005D2E00007D2A0000C4
S1132FA088BC00003DB4000010B50348034CA047A2
S1132FB00348A04710BD00BFE00F00205D400000A3
S1132FC0B4110020000000008D4B1B782BB98C4AF3
S1132FD013780133DBB2137070472DE9F04782B0E8
S1132FE06846884B9847884BD3F80011D3F82021C2
S1132FF0D3F8104154400C4054406846834B9847E2
S1133000834B5B68DB681A78C4F3C024944210D005
S1133010002A40F0908001221A7080227C4C636860
S11330205868022103307B4B9847002120467A4B95
S113303098470023ADF80630ADF80430704B5A7849
S1133040083276498D5CEDB25A78D2B28C5CE4B227
S11330505A780132D2B25A705A7802F007025A7082
S11330605B7813F0010F4FF40022674B14BFC3F8D1
S11330701821C3F81421624B5B7813F0020F4FF44C
S11330808012614B14BFC3F81821C3F814215C4BA0
S11330905B7813F0040F4FF400125B4B14BFC3F8BA
S11330A01821C3F8142102230DF1060200215C4803
S11330B05C4EB047022301AA00215B48B047DFF809
S11330C07CA1BDF80600D047DFF874914AA3D3E988
S11330D00023C847DFF86C81C0474FF6FF76B04243
S11330E028BF30460746ADF80600BDF80400D047B7
S11330F041A3D3E90023C847C047B04228BF3046A4
S1133100ADF80400B9B22846484EB047BDF80410E3
S11331102046B0472846464B984780B92046444B42
S1133120984700283AD10022354B1A70414B9847F2
S113313002B0BDE8F08700221A7081226EE70721F1
S113314028463D4B98475FFA80F805F101094FEA9C
S113315009172F4E73683B4458682A4602210730EA
S11331602C4DA84773683B445868424602210930F5
S1133170A8474FEA480273683B44586802F0FE02CD
S113318002211530A8475FFA89F13046224B98474F
S113319073681F44FB6883F80080BFE7072120465B
S11331A0254B9847C7B204F101084FEA0816184D99
S11331B06B6833445868224602210730154CA047F7
S11331C06B68334458683A4602210930A0477A00B4
S11331D06B683344586802F0FE0202211530A047A0
S11331E05FFA88F128460C4B98476B681E44F368D5
S11331F01F7098E7AFF300807B14AE47E17AF03F8D
S113320056060020854000000080004193400000E5
S1133210841C0020593700005F3B00004403002059
S1133220E00F00207D3F0000B411002015100000C5
S113323011110000A92F000021110000A1AC000011
S11332406DAD000091B10000F8B50B4F0B4C3B463F
S11332500022114620460A4EB0470A4D3B46002242
S113326011462846B04700212046074CA0470021BC
S11332702846A047F8BD00BFC92F0000E00F00207A
S1133280FD3E0000B4110020BD3E00002DE9F04FCA
S11332909DB00D901121394B984701250024DFF88A
S11332A004B1DFF804A1364F26E003230393392346
S11332B00293832301938023009301230222314943
S11332C014A8D04714A8B84780460FAE2E4B1B68ED
S11332D0ADF83C301B0C8DF83E303046B847C0B2D8
S11332E0019000965FFA88F314AA00210D98274EE6
S11332F0B04701340135EDB214F0FF08D5D0601E9B
S113330003210B9100230A930990632208920793E7
S1133310069102220592049103930290B021019137
S11333200093594614A8D04714A8B84781460FAE55
S1133330154B1B68ADF83C301B0C8DF83E30304605
S1133340B847C0B2019000965FFA89F314AA4146C7
S11333500D980E4EB047102DCBD907230E22052110
S113336010200B4CA04710210A480B4B98470B4BDD
S113337098470B4B98471DB0BDE8F08F813A000089
S113338085B400006CBC000084BC0000993A0000C5
S1133390C90F000010370020B11F0000493200009F
S11333A0A92F000088BC00003DB40000828942B10E
S11333B000F1270327320244002103F8011F93423E
S11333C0FBD100238381704708B50248024B98471C
S11333D008BD00BFB4220020AD33000008B5024888
S11333E0024B984708BD00BFD8270020AD3300002A
S11333F008B50248024B984708BD00BFFC310020C5
S1133400AD33000008B50248024B984708BD00BF21
S113341024120020AD33000008B5837A1B0103F1A8
S1133420824303F520431A6C22F002021A6400213D
S1133430807A014B984708BD855A000008B50248B8
S1133440024B984708BD00BFB42200201934000085
S113345008B50248024B984708BD00BFD827002092
S11334601934000008B50248024B984708BD00BF54
S1133470FC3100201934000008B50248024B98477B
S113348008BD00BF24120020193400002DE9F041CA
S11334902F4B4FF08051C3F8041193F85C2142F094
S11334A0040283F85C21C3F818114FF48031C3F887
S11334B0041193F8502142F0040283F85021C3F818
S11334C018114FF48051C3F8041193F84C2142F0C1
S11334D0040283F84C21C3F818114FF40071C3F8A7
S11334E0841093F8C92042F0040283F8C920C3F879
S11334F09810DFF89880174A01214046164CA047DF
S1133500164F174A01213846A047164E164A012184
S11335103046A047154D164A01212846A0471549B3
S11335204046154CA04715493846A0471449304633
S1133530A04714492846A0474046134CA0473846A4
S1133540A0473046A0472846A047BDE8F08100BF09
S11335500080004105340000354C00000C100020B0
S1133560F133000064110020DD3300001411002049
S1133570C93300008C1C00200D4C0000C42700201F
S1133580E82C002038370020E14B000060100020B8
S1133590F0B583B005460F461646847A4368196A27
S11335A0283120460D4B984705F5207120460C4BD9
S11335B09847394620460B4B9847214601A80A4BA9
S11335C09847019B1E60012200212046074B984723
S11335D000212046064B984703B0F0BD015A000075
S11335E0F15900002D5A0000C55A00009D590000F1
S11335F0855A000010B5104A4FF416710F48104C4C
S1133600A047104A4FF416710F48A0470F4A4FF4D1
S113361016710F48A0470F4A4FF416710E48A04781
S11336200E4B002283F81F2383F8202383F82123E1
S113363083F8222310BD00BF793400002412002037
S11336409135000065340000FC3100205134000045
S1133650D82700203D340000B422002000E100E01F
S1133660C0687047C06888428EBF401AC94340187A
S11336707047007A7047002303727047837923B13F
S1133680012B0FD0022B15D07047808840087D385D
S11336900028B8BF4042C0F17D0000EBD070C0F3F9
S11336A0470070478088064BA3FB003040F30010AE
S11336B0C0B27047808864288CBFFF200020704708
S11336C0D34D621010B401240472017042708370EF
S11336D0BDF8083083809DF8043083715DF8044B95
S11336E0704700787047407870478078704702468A
S11336F0A0F13003D8B209280DD9A2F16103DBB2DD
S1133700052B03D931B10A7000207047A2F157008C
S1133710C0B27047002070472DE9F843C1B190460C
S1133720451E4B1E9C0001F18047023FDBB2FF1A8D
S1133730BF000026DFF81C90414615F8010FC8476A
S1133740A0400644043CBC42F6D13046BDE8F883B0
S11337500026FAE7EF36000030B585B005460C4682
S1133760094901A8094B984764B104AB1A1B053AEF
S11337706B1E601E55FA80F012F8011F03F8011F3A
S11337808342F9D105B030BDD4BC00003DB4000083
S1133790344B1B68B3F1FF3F02D0324B18687047BB
S11337A02DE9F04383B0304B4FF40052C3F8882026
S11337B02E49C3F8A8104FF04041C3F8A8104FF4A5
S11337C08040C3F888004FF04020C3F8A800C3F835
S11337D0A8104FF40041C3F884102549C3F8A81079
S11337E0A1F18021C3F8A810C3F894200120214B33
S11337F098470026B0461C4D4FF400591D4F0CE06D
S1133800072E27D04FF48044C5F898400120B847CC
S1133810C5F894400136082E1CD0C5F898900120B4
S1133820B84701A8144B9847D5F88020D5F8A030A4
S1133830D5F890405C4014405C4001A80F4B984779
S113384014F4004FDCD00123B34043EA08085FFAC4
S113385088F8D5E7034BC3F80080024B186803B01F
S1133860BDE8F083540300200080004100200040A4
S113387000800240E54000008540000093400000C5
S1133880032909D0431E04390144002013F8012FF1
S113389050408B42FAD170470020704708B5CB1EC8
S11338A002211844014B984708BD00BF5937000056
S11338B000B583B002AA002302F8013D02210430BE
S11338C0024B9847C0B203B05DF804FB19370000FF
S11338D000B583B002AA002302F8013D022106309C
S11338E0024B9847C0B203B05DF804FB19370000DF
S11338F000B583B002AA002302F8013D022108307A
S1133900024B9847C0B203B05DF804FB19370000BE
S113391000B583B002AA002302F8013D02210A3057
S1133920024B9847C0B203B05DF804FB193700009E
S113393008B50A4602210430014B984708BD00BF70
S11339405937000008B50A4602210630014B984752
S113395008BD00BF5937000008B50A4602210830E7
S1133960014B984708BD00BF5937000008B50A4607
S113397002210A30014B984708BD00BF59370000A7
S1133980036999420ED0012303F07F02043250F8F8
S113399022208A4208D00133DBB213F0800FF3D027
S11339A000207047012070470120704790F81032C2
S11339B0013303F07F0380F81032043340F82310FE
S11339C070470000F0B585B00546274B98470123A2
S11339D08DF800300E238DF8013007238DF8023066
S11339E06B7A8DF8033030238DF804308DF8053070
S11339F08DF806308DF807308DF808308DF80930D1
S1133A008DF80A308DF80B3004228DF80C208DF8D7
S1133A100D308DF80E300A238DF80F300246082140
S1133A2001A8124CA04710216846114B9847024642
S1133A3002210DF10D00A04705F59B6510212846D4
S1133A400C4B984768B10DF1FF340DF10F070A4E86
S1133A5014F8011F2846B047BC42F9D12846074B49
S1133A60984705B0F0BD00BF9137000059370000FA
S1133A7081380000A1110000D1110000ED110000F7
S1133A8038B504460D460801024B9847606025701E
S1133A9038BD00BF19B200002DE9F04705461746AE
S1133AA0089E9DF824A00C0142680021115542682B
S1133AB0224453704268224482F808A0426802EB10
S1133AC004081846DFF86C90C847C8F804006B680F
S1133AD003EB04085046C847C8F80C006A6822443F
S1133AE0536803B3D3680BB3537853B10023F95C21
S1133AF05268D1540133DBB26A6822445178994246
S1133B00F5D86A682244107A88B10023F15CD2683F
S1133B10D1540133DBB26A682244117A9942F5D850
S1133B200020BDE8F087FF20BDE8F087FF20BDE856
S1133B30F08700BF19B20000436803EB0111487815
S1133B4040B100234868C05CD0540133DBB24878EC
S1133B509842F7D8704743680901585C7047436836
S1133B60090101225A5470474368090100225A543A
S1133B70704700002DE9F04FCBB0077827B1013F23
S1133B8007704BB0BDE8F08F8046172305930023E0
S1133B9004937F2203920292424A92F811220192E4
S1133BA000930F23012240490AA8404CA0470AA8C9
S1133BB03F4B98473F4B1B78002BE2D03C460546D1
S1133BC0DFF820A13B4EDFF8209107E007A8C847A3
S1133BD00134E4B23378DBB2A3421BD9C82DF7D841
S1133BE007A8D04772682301D35C002BEED00137BD
S1133BF0FFB20AAB03EB050B5A46214630462E4B67
S1133C009847214630462D4B98475846284B9847AD
S1133C100544DBE7002FB4D088F80070214A92F8FD
S1133C201132013382F811320AAC66190422244994
S1133C3030461E4FB84730461D4EB04705442A460D
S1133C40204908A8B8479DF82030A3709DF821307A
S1133C50E3701D4B186860516019B047054429464C
S1133C6020461A4B9847C2B229462046184B98471B
S1133C70A9B21848184B9847002882D06DB10DF1AD
S1133C8027044AAB1D44A5F20115124F134E14F834
S1133C90011F3846B047A542F9D10E48104B98474A
S1133CA06FE700BF901C0020DCBC00003DB40000A6
S1133CB085B40000841C0020393B0000693B0000EF
S1133CC0F4BC0000F8BC000000BD00008138000016
S1133CD09D380000641C0020A1110000D1110000D7
S1133CE0ED110000854000009340000008B5836991
S1133CF003B1984708BD08B5C36903B1984708BD27
S1133D002DE9F04706460F469146036A5C5C04EBD6
S1133D104404E400D0F8288008EB040505F1040A03
S1133D20D1B250460C4B984730460C4B984701286B
S1133D3007D94FEA19215046074B9847AB8A0133FC
S1133D40AB82AB8A0133AB8258F8043013B13946E5
S1133D5030469847BDE8F087855300000B570000B4
S1133D602DE9F84F894616461C469DF828800B9D80
S1133D70074640B149B152B1B8F1000F09D0281C2F
S1133D8018BF012006E0002004E0002002E000202B
S1133D9000E00020DFF864B03F225946DFF860A05D
S1133DA0D047601C402259468045CCBF00200120EA
S1133DB0D0470023FF21DAB2B1540133DAB2A24270
S1133DC0F9D93E6287F8244087F82580BD624946C8
S1133DD03846064B9847034628B9054ABA60054A4F
S1133DE03A60054A7A601846BDE8F88FD955000054
S1133DF0013D0000ED3C0000F73C000004BD000064
S1133E00495200002DE9F8430E46174698460546E8
S1133E10002840D0002A40D0181C18BF0120DFF829
S1133E20989066224946224CA04795F824006722C0
S1133E304946B04234BF00200120A047296A8B5D67
S1133E40FF2B2CD195F8240000231C46DAB28A5C9F
S1133E50FF2A1CBF0134E4B20133DAB28242F5D93D
S1133E6095F82530A3421DD304EB44094FEAC90950
S1133E70A86A48444246394604300E4B98470246E5
S1133E8098B92B6A9C55AB6A99440023A9F814305D
S1133E901046BDE8F8830020C1E70020BFE76FF0BB
S1133EA00C02F5E76FF01B02F2E76FF00C02EFE78C
S1133EB049520000F152000004BD0000F8B50D465F
S1133EC00B4F044683223946003018BF0120094EA7
S1133ED0B04794F8240084223946A84234BF002015
S1133EE00120B04729462046034B98470020F8BDDF
S1133EF004BD000049520000F55600002DE9F843C6
S1133F000E4614469946DFF8708005469C224146C9
S1133F10003018BF0120164FB84795F824009D22A1
S1133F204146B04234BF00200120B847012C19D0CB
S1133F302CB1022C19D06FF00C00BDE8F8832B6A69
S1133F409B5DAA6A03EB430342F8339019F1000323
S1133F5018BF0123224631462846064CA0470020BC
S1133F60BDE8F883C5F81890F0E7C5F81C90EDE7B4
S1133F70495200003357000004BD00002DE9F04F02
S1133F8083B0884691461D46044600284FD0002A37
S1133F904FD0181C18BF0120294FBC223946294E86
S1133FA0B04794F82400BD223946404534BF002070
S1133FB00120B0472046244B984795FBF0F303FBC0
S1133FC01050BF223946B0FA80F04009B047236A46
S1133FD013F808B00BEB4B0BA36A03EBCB0B01A854
S1133FE01A4B98470BF1040A5046194B98478046E0
S1133FF001A8184B9847B8F1000F1CD0EDB1013D52
S1134000ADB202350124144FA6B2611E4944504694
S1134010B847444502D00134AC42F5D1BBF8143062
S11340209B1BABF81430304603B0BDE8F08F002082
S1134030B2E70020B0E70026F0E70026EEE700BF75
S113404004BD0000495200000B57000085400000E9
S1134050C5530000934000004153000010B50446CE
S1134060D6220549003018BF0120044B984720464A
S1134070034B9847002010BD04BD000049520000C6
S11340801D570000EFF31083036072B6BFF35F8F18
S11340907047BFF35F8F036883F310887047000095
S11340A038B50C46054658B1081C18BF01202B2210
S11340B00449054B984721462846044B984738BD88
S11340C00020F4E720BD000049520000155B000009
S11340D008B5024B1860024B984708BD58060020EB
S11340E08D73000010B5044B1C68044B98470146BF
S11340F02046034B984710BD58060020E1570000A6
S1134100A173000008B5014B984708BD1D5B000072
S113411008B5436903B1984708BD08B5836903B17D
S1134120984708BD38B50D46044690B1081C18BF21
S1134130012038220849094B984729462046084B54
S11341409847034618B9074A2260074A626018462E
S113415038BD0020EDE700BF3CBD0000495200001F
S1134160295C0000114100001B41000008B5438890
S113417013F4807F02D1436B03B1984708BD08B59F
S1134180438813F4807F02D1836B03B1984708BD41
S113419008B5438813F4807F02D1036B03B19847B9
S11341A008BD000010B584B01446838AADF804300D
S11341B002924FF40043ADF80630039101A9283868
S11341C0034B9847002808BF204604B010BD00BF29
S11341D08D68000010B584B01446838AADF80430AD
S11341E0029248F20103ADF80630039101A9283880
S11341F0034B9847002808BF204604B010BD00BFF9
S11342008D68000070B50D46044689220F490030C0
S113421018BF01200E4B9847294620460D4B98475E
S1134220054608B1284670BD0B4BE3620B4BA362F5
S11342300B4A012120460B4EB0470B4A022120466F
S1134240B0470A4A00212046B047EBE754BD0000BE
S1134250495200000D680000D5410000A54100004E
S11342606D410000BD6900007F41000091410000E4
S113427070B50D461646044660B1081C18BF0120EF
S113428034220549054B984723683246294620467F
S1134290984770BD0020F3E774BD00004952000048
S11342A0F8B50F461646044640F227120949003075
S11342B018BF0120084B98470025A5616761E66196
S11342C02562102323720121A4F12000034B984797
S11342D02846F8BD88BD000049520000A16E0000C8
S11342E070B50D461646044640F205120C490030DE
S11342F018BF01200B4B9847A56100256561E66155
S1134300256210232372203C01212046064B984746
S113431040F2FF112046054B9847284670BD00BF68
S113432088BD000049520000D56E0000516F0000A6
S113433070B504460E46051F0021094B984700211D
S11343402046084B984700212046074B98470023F6
S113435084F82830236B13B131462846984770BD42
S1134360A16E0000D56E0000156F0000026CC36BD7
S11343709A4200D2704710B504460021044B984776
S1134380002384F82830E36A0BB1201F984710BD3E
S1134390156F000010B504460379012B426B036CC2
S11343A003F10101016494BFD15C32F81310084B8E
S11343B09847226CE36B9A4200D010BD002120463E
S11343C0044B984701212046034B9847F5E700BF6B
S11343D0516F0000A16E0000156F000070B5044617
S11343E0856B05B30379012B16D9066C731C036422
S11343F0184B984725F81600236CE26B93421DD2A4
S1134400626BB2B12179012994BFD15C32F81310E7
S11344102046114B984770BD066C731C03640D4B0A
S11344209847A855E8E70B4B9847236C013323645E
S1134430E2E7E1882046084B984770BD00212046FA
S1134440064B9847002384F82830E36A0BB1201FF9
S1134450984770BD816F0000516F0000D56E000059
S113446070B50D46064630B3081C18BF0120A522BE
S11344701249134B9847344644F8045F29462046B2
S1134480104B9847002815DB0F4A002120460F4D9A
S1134490A8470F4A01212046A8470E4A0221204678
S11344A0A8470D4A03212046A8470C4BB3620C4B86
S11344B07362002070BD0020D9E700BF88BD0000F2
S11344C049520000996D000095430000AD6F000053
S11344D0DD4300006D43000031430000E142000071
S11344E0A142000010B50446C1220549003018BF9E
S11344F00120044B9847201D034B984710BD00BF73
S113450088BD000049520000016E000038B50D4618
S11345100446CF220949003018BF0120084B9847B0
S113452094F82C3013F0100F04D12946201D054BAC
S1134530984738BD6FF0030038BD00BF88BD000048
S113454049520000656E000038B50D460446D92274
S11345500949003018BF0120084B984794F82C30C3
S113456013F0100F04D12946201D054B984738BD80
S11345706FF0030038BD00BF88BD00004952000041
S1134580316E0000F8B50D4617461E4604464FF43A
S11345909C721249003018BF0120114B9847E76301
S11345A0A563266400236364102384F82C30261D3D
S11345B0012130460B4B98475DB1237A012B636C84
S11345C094BFE95C35F813103046074B9847002038
S11345D0F8BD61893046044B9847F8E788BD000070
S11345E049520000D56E0000516F000070B50C46B2
S11345F01646054658B101298CBF0020012040F21F
S113460063120849084B98471CB92E6370BD0020FB
S1134610F5E76E63321C18BF01220321281D034BEA
S1134620984770BD88BD000049520000E16F00004A
S113463038B50D46044658B1081C18BF012040F295
S11346406F120449044B984724342C60002038BD71
S11346500020F4E788BD00004952000070B50D4603
S11346601646044698220749003018BF0120064B1D
S11346709847334600222946A4F11C00034CA04766
S113468070BD00BFA8BD0000495200003572000093
S113469070B50D461646044681220749003018BFFE
S11346A00120064B984733462A460021A4F11C00FA
S11346B0034CA04770BD00BFA8BD000049520000D4
S11346C03572000038B50C460546A0B1081C18BF69
S11346D001203B2209490A4B9847284640F8044FD9
S11346E02146084B9847034618B9074A6A62074AA5
S11346F02A62184638BD0020EBE700BFA8BD0000C1
S11347004952000019700000914600005D46000007
S113471010B5044651220549003018BF0120044B4E
S11347209847201D034B984710BD00BFA8BD00004B
S1134730495200009571000070B50D4616460446B6
S1134740A8220649003018BF0120054B984732467D
S11347502946201D034B984770BD00BFA8BD00002B
S113476049520000C571000038B50D46044650B1E9
S1134770081C18BF0120AE220449054B9847203479
S11347802C60002038BD0020F5E700BFA8BD000064
S113479049520000F8B5844607682FB18D683C463D
S11347A00026C2F1010E0BE00E4B9847F8BD73448E
S11347B0A0680344AB420AD22368264653B11C4680
S11347C063689342F3D8A06803449B1AF2E7A742B4
S11347D004D034462046044B9847F8BD6046014B4C
S11347E09847F8BD715200009D5200002DE9F04732
S11347F04469076901370761037E13F0010F13D180
S1134800037E13F0020F0FD154B36368FB1AA2683E
S1134810934207D3064600F11408DFF84890DFF806
S113482048A012E0BDE8F087037E43F0020303765C
S1134830BDE8F0877569E3682046984785B12C4642
S11348406B68FB1AAA6893420AD34046C847237C84
S1134850012BEFD167603A4621464046D047E9E74D
S1134860BDE8F087E55200009547000070B50E469C
S11348701546044690B199B1101C18BF01203B2283
S11348800849094B9847204640F8045B2B68314699
S1134890984700206061054B636070BD0020EEE71F
S11348A00020ECE7C4BD000049520000ED470000C1
S11348B038B5044698B10068003018BF012054226E
S11348C009490A4B9847251D23689B692846984740
S11348D038B923689B6828469847002038BD0020D3
S11348E0EDE76FF0100038BDC4BD00004952000070
S11348F070B582B00D46044628B331B30068003069
S113490018BF01207B222049204B9847237F43F086
S11349100103237704F11806294630461C4B9847B7
S1134920A8B963696B60626929463046194B984798
S1134930237F03F0FE032377237F13F0020F12D1AA
S1134940002002B070BD0020DCE70020DAE7237FFE
S113495003F0FE03237780220B4900200B4B98477A
S11349606FF01100EDE701A80B4B9847237F03F08C
S1134970FD0323772368DB69201D984701A8074BB3
S113498098470020DDE700BFC4BD00004952000085
S11349904F520000954700008540000093400000FE
S11349A008B500238362C3691BB1A0F10802104655
S11349B0984708BD08B500238362436A1BB1A0F180
S11349C008021046984708BD38B50446A0F108050A
S11349D02C30034B9847236A0BB12846984738BDBF
S11349E08553000070B50E4615460446E0B1E9B1A2
S11349F0101C18BF012040F23B120F490F4B98477F
S1134A00B4F84420B4F84C309A4211D1A664A4F806
S1134A104C500023A4F844300123236304F108001C
S1134A20074B9847284670BD0020E4E70020E2E7E2
S1134A306FF01B0070BD00BFDCBD000049520000D8
S1134A408F67000010B50446838FB0F844209A4263
S1134A5009D0026C591C8187D15C044B98472046CD
S1134A60034B984710BD034B984710BD896700005E
S1134A708F670000976700002DE9F04782B00F466A
S1134A8090460646A0B199B1002A2DD14FF4AC72DC
S1134A9029490020294B984701A8294B984706F13A
S1134AA03400284B984701A8274B984700253EE03F
S1134AB04FF4AC7220490020204B984701A8204BAA
S1134AC0984706F1340A50461E4B9847814601A880
S1134AD01D4B9847B9F1000F04D0B8F1000F19D15C
S1134AE0002524E0002522E04FF4AC721249012095
S1134AF0124B984701A8124B984706F1340A5046C6
S1134B00104B9847814601A80F4B98470025B9F1EF
S1134B10000F0CD000240D4E601C85B2391950468C
S1134B20B04701344C4502D2A3B29845F4D8284684
S1134B3002B0BDE8F08700BFDCBD000049520000B0
S1134B4085400000C553000093400000415300001D
S1134B50F8B50D4616461F46044620B329B332B3B2
S1134B60181C18BF01203A221349144B98473A469F
S1134B70314604F13400124B9847D0B9294604F168
S1134B800800104B9847034658B90F4A62600F4A11
S1134B9022600F4AA2600F4AE2600F4A22610F4A64
S1134BA062611846F8BD0020DDE70020DBE7002045
S1134BB0D9E76FF00C03F4E7DCBD000049520000B4
S1134BC0F1520000F9660000794A0000E54900004E
S1134BD0454A0000C9490000A1490000B549000048
S1134BE010B5044661220649003018BF0120054B68
S1134BF0984704F10800044B9847002010BD00BFFB
S1134C00DCBD0000495200007567000038B50C4651
S1134C10054648B1081C18BF012077220349044BFC
S1134C2098472560002038BD0020F6E7DCBD000071
S1134C304952000070B50C461646054683221749B2
S1134C40003018BF0120164B9847012C10D024B116
S1134C50022C18D06FF00C0070BDAE62321C18BF6D
S1134C600122012105F108000E4B9847002070BD78
S1134C706E62321C18BF0122022105F10800094BA3
S1134C809847002070BDEE62321C18BF0122032138
S1134C9005F10800034B9847002070BDDCBD0000FF
S1134CA049520000A16700000F4B5978884218D080
S1134CB030B41A46002300F00F0507E001335BB25D
S1134CC00D2B09D020325178814207D01478002C62
S1134CD0F4D18D42F2D101E04FF0FF33184630BCDD
S1134CE070470023184670475C0600200020704778
S1134CF038B504460D46094B9847094B03EB40135E
S1134D009B78032B01D0002038BD054B03EB4010EA
S1134D10836929462046984738BD00BFA94C000046
S1134D205C060020F0B585B006460D4617464D4B8F
S1134D3098470446002D5BD14B4A4301D11800200B
S1134D40C870D35C73B1484B03EB441301229A70CF
S1134D50454800EB4410C3693A46C1783046984749
S1134D6005B0F0BD8B78032B0BD03F4800EB441209
S1134D701446D3690C320021607898470223A3704B
S1134D80EEE70B4691F90C500A46CE690C3201212C
S1134D905878B047A0B1344B03EB441305229A7002
S1134DA00222DA70002D09DB2F4800EB4410407812
S1134DB040F0800001212D4B9847D1E75878F9E75E
S1134DC0294800EB441004238370437800220192A5
S1134DD002929542ACBF43F0800303F00F038DF8B9
S1134DE00C3001238DF80D3001A8214B9847B7E70B
S1134DF0012D0AD0022D1CD0032D2AD01A4B03EB0F
S1134E00401306229A70DA70A2E7174A4301D118B8
S1134E100220C870D35C2BB1134B03EB441305225F
S1134E209A7095E70B469870002130460F4B9847CF
S1134E308EE70D4A4301D1180420C870D35C2BB10E
S1134E40094B03EB441301229A7081E702238B7010
S1134E5086E7054B03EB401300229A700522DA70B3
S1134E6076E700BFA94C00005C0600202187000003
S1134E70C98800002DE9F04105461C4B98470646B9
S1134E801B4C04EB40140C3421462846194B98471C
S1134E90C0B2082809D001212846174CA047012197
S1134EA045F08000A047BDE8F08100212846124F5C
S1134EB0B84745F0800800214046B8470C4B03EB47
S1134EC0461301229A705B6921462846984708B127
S1134ED0BDE8F081064B03EB46160523B3700121B0
S1134EE02846B84701214046B847F1E7A94C0000DD
S1134EF05C060020698800002187000010B5114B72
S1134F00984700281DDB104C4FF4D0720021204636
S1134F100E4B9847234604F5D070FF210C4A597074
S1134F205A619A61DA6120338342F8D10949002039
S1134F30094CA04709490120A04709490220A0477C
S1134F40002010BDF98000005C0600203FB2000084
S1134F50ED4C0000754E0000D18A0000F14C0000B9
S1134F60254D000008B5014B984708BDA98A0000EB
S1134F7008B5014B984708BD0182000008B5014BF4
S1134F80984708BD6D82000008B5014B984708BDDD
S1134F907F820000F8B506460C4617460F4B98472B
S1134FA0002814DAFF200D4B9847051E12DB3A4601
S1134FB0214630460A4B984700280DDB094B68010F
S1134FC01A18567004F003041C540020F8BD6FF046
S1134FD01300F8BD6FF01400F8BD00BFA94C000029
S1134FE08D8200005C06002008B5024600210846B8
S1134FF0014B984708BD00BF954F000038B50546E2
S1135000064B9847041E07DB2846054B984705487E
S113501000EB4410FF23437038BD00BFA94C0000CF
S1135020A58300005C06002038B505460E4B984762
S1135030041E16DB63010D4AD35C002B0CBF022255
S113504001220A4B03EB44139A702846084B9847F5
S1135050002800DB38BD054B03EB44140023A37088
S113506038BD6FF01100F5E7A94C00005C06002084
S1135070698400002DE9F04786B00446077A384673
S11350803F4B9847657AD4F80480061E72DB04A867
S11350903C4B98473C4B03EB46139B788DF81730F9
S11350A09DF81730DBB2012B11D004A8374B984779
S11350B09DF81730DBB2052B5FD0062B23D0002BD5
S11350C00CBF6FF01200012006B0BDE8F087DFF8D6
S11350D0B8A04FEA46190AEB090303229A7004A800
S11350E02A4B98471AF8093083B1227A003518BF41
S11350F0012523680193CDF8088017F0800F19D19A
S113510002F00F0318E06FF00F00DDE71E4B03EB16
S11351104613DA7C9D7C05EB0225ADB2A5B91A4B8A
S113512003EB46160423B37000230125227A216879
S11351300191029342F080038DF80C308DF80D50EC
S113514001A8134B9847BFE74346A84528BF2B4601
S11351500D4A02EB461696F90C20002A05DB227A4A
S11351602168019102930025CAE79D4294BF00255E
S11351700125DBE76FF01100A6E70220A4E700BFDA
S1135180A94C0000854000005C060020934000000C
S1135190C988000038B5044641B101290CBF01217A
S11351A00221134B98470346184638BD114B9847C4
S11351B0051E19DB022120460D4B984703460028A3
S11351C0F2D0002120460A4B9847031EECDB0A4B21
S11351D003EB451301229A700321D970DB69002285
S11351E0204698470023DFE76FF01103DCE700BF98
S11351F021870000A94C00005C06002038B50D464C
S113520014460E4B98470E4B002C08BF1C46002832
S113521013DB012D08D015B1022D0AD038BD094B7E
S113522003EB4010446138BD064B03EB401084612E
S113523038BD044B03EB4010C46138BDA94C0000D9
S1135240ED4C00005C06002000B900BE7047036806
S11352504BB18B4209D01B681BB19942FBD1012091
S113526070470020704700207047012070470000FD
S113527038B504460D46064B984780F001003922A4
S11352800449C0B2044B984723682B60256038BD9D
S11352904F520000FCBD00004952000003680B603F
S11352A00160704770B505460E4604680A4B98477E
S11352B080F001004F220949C0B2094B98472B687E
S11352C01BB92E60336070BD1C462368002BFBD1D4
S11352D02660336070BD00BF4F520000FCBD00006B
S11352E04952000003680BB11A68026018467047FF
S11352F070B50E461546044678B181B1A2B10120BD
S113530028220D490D4B98476B1E1D4209D163603D
S11353100020A060E060266070BD0020F0E700205F
S1135320EEE76FF00C0070BD282203490020034B08
S113533098476B1EEBE700BF1CBE000049520000FB
S113534038B50D460446A0B1081C18BF0120402200
S11353500A490B4B9847A368E2689A420BD06268EB
S113536013402268D35C2B70A3680133A360002030
S113537038BD0020EBE76FF0090038BD1CBE00000B
S11353804952000038B50D46044651220B490030FD
S113539018BF01200A4B9847E368626813402268EB
S11353A0D554E3686168A2689A1A8A4284BF591A7C
S11353B0A1600133E360002038BD00BF1CBE0000C3
S11353C04952000010B5044667220549003018BF51
S11353D00120044B9847E068A368C01A10BD00BFC1
S11353E01CBE0000495200000346064A126822B15E
S11353F0044A10680344136070470349014A11606A
S1135400F6E700BFFC070020603E0120406900F180
S11354103D40A0F5E050800A4000763000F0FE00E8
S113542070470000036B13F0010F1BD1036B13F0E3
S1135430030FFBD1038813F0020F0DD0038823F070
S113544002031B041B0C0380036B13F0030FFBD13B
S1135450036B13F0020FFBD101230380036B13F0E2
S1135460030FFBD1036B13F0010FFBD11623374A53
S113547003FB01239B88C380036BC3F30B03002B43
S1135480FAD11623314A03FB01239B790372036B80
S1135490C3F30B03002BFAD116232C4A03FB01237D
S11354A0DA7982701B898380036BC3F30B03002BAF
S11354B0FAD11623254A03FB01239B7A8372036BDB
S11354C0C3F30B03002BFAD11623204A03FB012359
S11354D0DB7AC372036BC3F30B03002BFAD11623DD
S11354E01A4A03FB01239B898381036B13F0800F0A
S11354F0FBD11623154A03FB0123DB89C381036B0C
S113550013F4807FFBD11623104A03FB01231B8A6B
S11355100382036B13F4007FFBD116230B4A03FBB6
S113552001235B8A4382036B13F4806FFBD1162241
S1135530064B02FB01310B7DC3704B880380036B68
S113554013F0030FFBD10020704700BF40BE0000E2
S113555008B5426992F82E1092F82D300B4013F0E2
S1135560010F06D113F0020F0DD113F0040F11D166
S113557008BD012382F82E30B2F84020836892B22D
S11355800021984708BD022382F82E304368002189
S1135590984708BD042382F82E30036800219847F9
S11355A0E6E7000000F13D40A0F5E050C0F387209D
S11355B048B1012809D008B58C2205490020054BC3
S11355C09847002008BD002070470120704700BFA5
S11355D06CBE0000495200002DE9F0410C4605461E
S11355E0E6223B49003018BF01203A4B9847204639
S11355F0394B984701462046384B9847064610B128
S11356003046BDE8F0816C61354B9C425CD0354B33
S11356109C4204BF344B5D602846344FB84743096D
S113562000F01F00012404FA00F0DFF8C4802033E6
S113563048F82300BFF34F8FBFF36F8F2846B84756
S1135640430900F01F0004FA00F0603348F8230017
S11356502846B847430900F01F00844048F8234017
S11356602846B847013080B203B2002BC8DB5B097F
S113567000F01F00012202FA00F0203348F8230052
S1135680BFF34F8FBFF36F8F2846B847013080B206
S113569003B2002BB4DB5B0900F01F00012202FA05
S11356A000F0603348F823002846B847013080B240
S11356B003B2002BA4DB5B0900F01F00012202FAF5
S11356C000F048F823009BE7074B1D60A4E700BFE8
S11356D06CBE000049520000A5550000255400008E
S11356E0001C004300200043000800200D5400006B
S11356F000E100E0426913889BB243F00203138087
S1135700136B13F0030FFBD170474369DB88C3F3BA
S1135710C103032B0CBF0120022070474269137D93
S113572043F002031375136BC3F30B03002BFAD17D
S113573070474169012A07D0022A0ED01AB9ABB1C9
S1135740012381F82D3070471BB9042381F82C30D4
S11357507047042381F82D3070471BB9022381F868
S11357602C307047022381F82D307047012381F8D3
S11357702C30704708B5024B1868024B984708BD97
S1135780000800205155000008B5024B1868024B70
S1135790984708BD000800205155000008B5024B89
S11357A05868024B984708BD000800205155000076
S11357B008B5024B5868024B984708BD0008002002
S11357C051550000430900F01F00012202FA00F0C5
S11357D04033024A42F82300704700BF00E100E072
S11357E0014B03FB00F07047C0D4010010B50E4A12
S11357F013889BB243F4A06313800C4B98470C4B63
S113580098470C4B984704200B4CA0470B4B9847E8
S113581040F6FB70A0470A4A136943F4007313610E
S1135820084B984710BD00BF00400041C95C000010
S1135830DD5C0000F15B0000795B0000E15C0000CE
S113584000080040BD58000008B51A4A138C03F044
S11358501F0303EB4301184800EB810002EB031222
S113586092F84E2012F0010F0AD11A0102F182427D
S113587002F5204292F84E2012F0020F0BD108BD1F
S11358801A0102F1824202F52042012182F84E10EF
S11358904368984708BD1A0102F1824202F520428A
S11358A0022182F84E1003EB4303034A52F82330DB
S11358B09847E4E700A000410808002070B4324A89
S11358C0138823F002031B041B0C1380538823F456
S11358D07C531B041B0C538013889BB243F00103BD
S11358E01380138813F0010FFBD1274B4FF4706220
S11358F01A805A7B02F0FE0242F001025A73002120
S11359005961224A5A63224A9A63224B1F4C0E461B
S11359101D68080100F1824202F5204215641D79D8
S113592082F845505D7982F84650DD882218255268
S1135930D660013108332029EAD11F2301201649FA
S11359409AB213F4004F0BD00133242BF8D10E4A32
S113595013889BB243F002031380002070BC70478D
S11359605C0902F01F0200FA02F204F1200541F87A
S11359702520BFF34F8FBFF36F8F04F1600541F80B
S1135980252041F82420DFE700A00041403A002010
S1135990403C002084BE000000E100E091B942B91F
S11359A0000100F1824000F52040022380F84C30D1
S11359B07047000100F1824000F52040022380F886
S11359C04D307047012900D0704742B1000100F109
S11359D0824000F52040012380F84D30F4E70001B7
S11359E000F1824000F5204080F84C107047000020
S11359F0024B03EB0010816000207047403A002006
S1135A00024B03EB0010416000207047403A002035
S1135A10054A0001135A9BB223F4806343EA8121AF
S1135A2089B2115200207047403A002030B4144C1F
S1135A300201A3189D68A35AC3F30123A25A12F4C6
S1135A40006F06D001FA03F42C440D4A02EB001255
S1135A5094600B4C0201A5186D68A25A12F4806F71
S1135A6005D001FA03F32B4404EB0012536089B20E
S1135A70034B03EB00104180002030BC704700BF93
S1135A80403A002010B40D4C0301E25A92B242F0A5
S1135A900102E25203F1824303F520431A6C42F0FF
S1135AA002021A6431B1064A1169012303FA00F0B3
S1135AB00843106100205DF8044B7047403A002011
S1135AC000A0004101EB4101024B03EB81010160A5
S1135AD0002070470808002008B5014B984708BD0E
S1135AE04958000008B5014B984708BD49580000C3
S1135AF008B5014B984708BD4958000008B5014B4B
S1135B00984708BD4958000008B5014B984708BD9F
S1135B1049580000016000207047000030B4144868
S1135B2000F143050346134C1A1A13F8011B4832BB
S1135B3044F82210AB42F7D10D4800F14204803002
S1135B40002134F8023FCA0002F1824202F56042A9
S1135B50136250F8043FDBB282F82530DB43DBB23A
S1135B6082F8243001312029EBD1002030BC704769
S1135B7084BF000000E0004110F0010F08D0174A74
S1135B80174B1A62194643F6FD724B681342FCD157
S1135B9010F0020F08D0134A114B5A62194643F60B
S1135BA0FD724B681342FCD110F0040F08D00E4A6A
S1135BB00B4B9A62194643F6FD724B681342FCD1B3
S1135BC010F0080F08D0094A054BDA62194643F66B
S1135BD0FD724B681342FCD1704700BF08010100FD
S1135BE0001C004006010100060110000401010030
S1135BF00122014B5A7170470008004008B503693F
S1135C001A8A12F0010F05D001221A82036853B1D7
S1135C10984708BD1A8A92B22AB140F25E221A82CB
S1135C20436803B1984708BD38B50C46054650B3E0
S1135C301648814214BF002001204B221449154B01
S1135C4098472C61238823F0C0039B049B0C23807A
S1135C50114B1D60114B4FF00051C3F88010BFF37E
S1135C604F8FBFF36F8F4FF08042C3F88020BFF394
S1135C704F8FBFF36F8FC3F88011C3F88021196071
S1135C801A60002038BD0020D7E700BF0040004163
S1135C9088C00000495200008809002000E100E0AB
S1135CA008B5024B1868024B984708BD88090020C4
S1135CB0FD5B000008B5024B1868024B984708BD0D
S1135CC088090020FD5B0000034BDA6902F47C5272
S1135CD0DA6101221A747047001400407047000012
S1135CE0474A136A23F00F0343F004031362114677
