:10000000103D0120E9020000E5020000E5020000C9
:10001000E5020000E5020000E5020000000000002B
:10002000000000000000000000000000E5020000E9
:10003000E502000000000000E5020000E50200000B
:10004000E5020000E5020000E5020000E502000014
:10005000E5020000E5020000E5020000E502000004
:10006000E5020000E5020000E50200002164000056
:10007000E5020000E5020000E5020000E5020000E4
:10008000E5020000E5020000E5020000E5020000D4
:10009000E5020000E5020000E5020000E5020000C4
:1000A000E5020000E5020000E5020000E5020000B4
:1000B000E5020000E9600000FD600000DD5E000078
:1000C000E95E0000F55E0000015F00000D5F0000CA
:1000D000E5020000E5020000E5020000E502000084
:1000E000E5020000E5020000000000000000000042
:1000F0000000000055620000216E0000356E000017
:10010000496E00005D6E0000716E0000856E00009B
:10011000996E0000AD6E0000C16E0000D56E00004B
:10012000E96E0000FD6E0000116F0000256F0000F9
:10013000396F00004D6F0000616F0000756F0000A7
:10014000896F00009D6F0000B16F0000C56F000057
:10015000D96F0000ED6F0000017000001570000005
:10016000297000003D700000E5020000E50200007B
:10017000E5020000E50200000000000000000000B1
:100180004D8F0000598F0000658F0000718F0000B7
:1001900000000000E5020000E5020000E5020000AA
:1001A000E5020000E5020000E5020000E5020000B3
:1001B000E5020000E5020000E5020000E5020000A3
:1001C000E5020000E5020000E5020000E502000093
:1001D000E5020000E5020000E5020000E502000083
:1001E000E5020000E5020000E5020000617C00007D
:1001F000757C0000897C00009D7C0000E502000009
:10020000E5020000E5020000E5020000E502000052
:10021000E5020000E5020000715B0000855B000064
:10022000995B0000AD5B0000E5020000E502000004
:10023000E5020000E5020000E5020000E502000022
:10024000E5020000E5020000E5020000E502000012
:10025000E5020000E5020000E5020000E502000002
:10026000E502000010B5054C237833B9044B13B1F7
:100270000448AFF300800123237010BDC0050020A7
:1002800000000000C0C600000C4B43B10C480D49F3
:1002900010B5AFF300800C48036823B910BD0A48BD
:1002A000036833B97047094B002BF7D0BDE8104005
:1002B0001847064B002BF5D0184700BF0000000080
:1002C000C0C60000C4050020C0C600000000000039
:1002D00008B5024B9847024B984708BD590C0000DF
:1002E00051AD0000FEE7000008B51C4B1C4A9A42C5
:1002F00010D01C4B194A9A420CD2013B9B1A23F096
:10030000030304331344164951F8040B42F8040B59
:100310009A42F9D1144B154A9A420AD2013B9B1AD0
:1003200023F0030304331344002142F8041B9342D7
:10033000FBD10F4B0F4A22F07F029A60D3F888203E
:1003400042F47002C3F88820BFF34F8FBFF36F8F62
:10035000094B9847094B9847FEE700BF0000002073
:10036000C0C60000BC050020103D0020C0050020D4
:1003700000ED00E00000000031B50000CD95000068
:10038000F0B585B01B4A136A43F080031362412223
:10039000194BC3F82021194E194D00240294194B12
:1003A0000193012300932346324617492846174FED
:1003B000B8471023321D21462846154CA047154B3F
:1003C00080225A6002F180429A624FF040429A6263
:1003D00093F8472002F0FE0242F0010283F8472022
:1003E00093F8332002F00F0242F0100283F833201A
:1003F00005B0F0BD00080040001C0040DC050020F6
:10040000F40F0020F0100020001C004331400000D9
:10041000D540000000800041F0B585B01E4A136A47
:1004200043F48073136241221C4BC3F824211C4EF9
:100430001C4D002402941C4B01930123009323467E
:1004400006F1140219492846194FB847102306F13E
:10045000180221462846174CA047174B0422C3F820
:10046000042102F18042C3F828214FF04042C3F832
:10047000282193F8422102F0FE0242F0010283F8A3
:10048000422193F8312102F0F00242F0010283F898
:10049000312105B0F0BD00BF00080040001C004045
:1004A000DC050020C81100204C0F00200020004374
:1004B00031400000D54000000080004108B5054AE9
:1004C000936943F00203936103490448044B98473E
:1004D00008BD00BF0008004000200041480F002078
:1004E0007143000008B5094B4022C3F8AC20C3F8A3
:1004F000B020C3F8B420C3F8B820054A936943F08C
:1005000080039361034B984708BD00BF001C004067
:1005100000080040F5430000024A136943F040031D
:10052000136170470008004008B5034B9847034922
:100530000348044B984708BD1905000000400041DE
:100540002C0F00204D440000064B4122C3F89C2094
:100550004222C3F88C20044A536943F48053536108
:10056000704700BF001C004000080040104B93F88B
:10057000512102F0FE0242F0010283F8512193F86A
:10058000382102F00F0242F0300283F8382193F84C
:10059000502102F0FE0242F0010283F8502193F84C
:1005A000382102F0F00242F0030283F8382170474C
:1005B0000080004110B582B0064B9847002300939D
:1005C0001023054A05490648064CA047064B9847A4
:1005D00002B010BD490500000406002000300040B4
:1005E000201000204D4F00006D050000064B4122F9
:1005F000C3F8A0204222C3F88C20044A536943F474
:1006000000535361704700BF001C004000080040C9
:10061000104B93F85B2102F0FE0242F0010283F8D6
:100620005B2193F83D2102F00F0242F0200283F893
:100630003D2193F85C2102F0FE0242F0010283F8B2
:100640005C2193F83E2102F0F00242F0020283F8AE
:100650003E2170470080004110B582B0064B98479C
:10066000002300931023054A05490648064CA0477D
:10067000064B984702B010BDED050000140600209F
:1006800000340040741000204D4F0000110600009F
:10069000064B4122C3F8DC204222C3F88C20044AD6
:1006A000936943F400739361704700BF001C0040DE
:1006B00000080040104B93F8D92002F0FE0242F0EF
:1006C000010283F8D92093F8BC2002F00F0242F017
:1006D000300283F8BC2093F8D82002F0FE0242F0EA
:1006E000010283F8D82093F8BC2002F0F00242F017
:1006F000030283F8BC2070470080004110B582B02F
:10070000064B9847002300931023054A05490648E5
:10071000064CA047064B984702B010BD910600005A
:100720002406002000200141A40F00204D4F0000AE
:10073000B50600002B4B4FF48011C3F89410C3F89A
:1007400088104FF08040C3F8A800274AC3F8A820BB
:1007500093F8D42002F0FE0242F0010283F8D42084
:1007600093F8BA2002F0F00242F0020283F8BA20B5
:100770004FF40012C3F89420C3F88820C3F8A800EF
:100780001A4AC3F8A82093F8D52002F0FE0242F0DE
:10079000010283F8D52093F8BA2002F00F0242F04C
:1007A000200283F8BA205960114A9A6202F100428D
:1007B00010329A6293F8542002F0FB0283F854201E
:1007C00093F8542002F0FE0242F0010283F8542014
:1007D00093F83A2002F0F00242F0030283F83A2044
:1007E000704700BF00800041100000C0200000C022
:1007F00000000240064B4122C3F8E0204322C3F828
:100800008C20044A936943F480639361704700BF6E
:10081000001C00400008004008B5044B98470449FC
:100820000448054B9847054B984708BDF50700005D
:1008300000400141A40E00205D4800003507000083
:10084000064B4122C3F808214222C3F88C20044AF7
:10085000136A43F001031362704700BF001C00409D
:1008600000080040104B93F8C82002F0FE0242F04E
:10087000010283F8C82093F8B42002F0F00242F09D
:10088000030283F8B42093F8C92002F0FE0242F07C
:10089000010283F8C92093F8B42002F00F0242F05D
:1008A000300283F8B42070470080004110B582B058
:1008B000074B9847002300931023064A4FF08641C8
:1008C0000548064CA047064B984702B010BD00BF34
:1008D0004108000034060020281100204D4F000080
:1008E00065080000164B93F8572002F0FB0283F8CE
:1008F000572093F8572002F0FE0242F0010283F8DD
:10090000572093F83B2002F00F0242F0300283F8A8
:100910003B2093F8562002F0FB0283F8562093F810
:10092000562002F0FE0242F0010283F8562093F8AE
:100930003B2002F0F00242F0030283F83B207047B4
:1009400000800041064B4122C3F80C214222C3F82B
:100950008C20044A136A43F002031362704700BFFD
:10096000001C00400008004008B5044B98470449AB
:100970000448054B9847054B984708BD45090000BA
:1009800000040043640F002001460000E508000059
:10099000064B4122C3F810214222C3F88C20044A9E
:1009A000136A43F004031362704700BF001C004049
:1009B00000080040104B93F84D2102F0FE0242F077
:1009C000010283F84D2193F8362102F00F0242F024
:1009D000300283F8362193F84C2102F0FE0242F0F7
:1009E000010283F84C2193F8362102F0F00242F024
:1009F000030283F8362170470080004110B582B0B1
:100A0000064B9847002300931023054A05490648E2
:100A1000064CA047064B984702B010BD9109000054
:100A20004406002000080043781100204D4F0000CC
:100A3000B5090000294B4FF08042C3F89420C3F859
:100A40008820C3F8A8202649C3F8A81093F8DE1020
:100A500001F0FE0141F0010183F8DE1093F8BF10B0
:100A600001F0F00141F0020183F8BF104FF00041A6
:100A7000C3F89410C3F88810C3F8A8201949C3F824
:100A8000A81093F8DF1001F0FE0141F0010183F896
:100A9000DF1093F8BF1001F00F0141F0200183F83F
:100AA000BF105A6002F500329A620F4A9A6293F8B8
:100AB0005E2002F0FB0283F85E2093F85E2002F0D5
:100AC000FE0242F0010283F85E2093F83F2002F01C
:100AD000F00242F0020283F83F207047008000419C
:100AE000004000C0008000C0004002C0064B412210
:100AF000C3F814214222C3F88C20044A136A43F03D
:100B000008031362704700BF001C0040000800404B
:100B100008B5044B984704490448054B9847054BD2
:100B2000984708BDED0A0000000C0043C4100020E7
:100B3000C14A0000350A000008B50248024B984738
:100B400008BD00BF10E000E0A14300001E4B4FF0C5
:100B500080729A604FF0804199621C4898625A6195
:100B600093F8582002F0FB0283F8582093F858209D
:100B700002F0FE0242F0010283F8582093F83C2074
:100B800002F0F00242F0070283F83C204FF00072BE
:100B90009A6099620E4999625A6193F8592002F05D
:100BA000FB0283F8592093F8592002F0FE0242F02C
:100BB000010283F8592093F83C2002F00F0242F022
:100BC000700283F83C20704700800041000100C0A3
:100BD000000200C04122074BC3F8A820A3F5A05390
:100BE0001A6942F480621A619A6942F001029A61BC
:100BF000704700BF001C004008B5034B9847034BEB
:100C00009847034B984708BDD50B0000F9520000E8
:100C10004D0B0000024A536943F4807353617047DF
:100C20000008004008B5064B9847482205490120B6
:100C3000054B98470548064B0360064B984708BD8F
:100C4000150C000084BE0000455600007010002006
:100C5000002000407D8F00002DE9F041A24B984715
:100C6000A24B20225A619A6002F180429A624FF0B0
:100C700040429A6293F8451001F0FE0183F8451056
:100C80004FF4001058609A4E9E629A49996293F808
:100C9000551001F0FB0183F8551093F8551001F041
:100CA000FE0183F855108021C3F8841001F18041C2
:100CB00001F50031C3F8A8108F4DC3F8A85093F880
:100CC000C71001F0FB0183F8C71093F8C71001F0BB
:100CD000FE0183F8C7104FF40051C3F89410C3F815
:100CE000881001F18041C3F8A810C3F8A82093F838
:100CF000CD1001F0FE0183F8CD104FF48041C3F810
:100D00009410C3F888104FF04027C3F8A870C3F8B8
:100D1000A82093F8CE4004F0FE0483F8CE404FF4B0
:100D20000044C3F88440754CC3F8A840C3F8A850E9
:100D300093F8CF4004F0FB0483F8CF4093F8CF4002
:100D400004F0FE0483F8CF404FF40064C3F804417C
:100D5000DFF834E2C3F828E1C3F82851C3F80441AE
:100D600093F84B5145F0040583F84B51C3F81841F3
:100D700093F84B4104F0FE0483F84B41C3F814117F
:100D8000C3F80811C3F82871C3F8282193F84E213D
:100D900002F0FE0283F84E214FF48022C3F80421B2
:100DA000C3F82861564AC3F8282193F8522102F06B
:100DB000FB0283F8522193F8522102F0FE0283F8DD
:100DC00052214FF40022C3F81421C3F808214FF038
:100DD0008042C3F828214B49C3F8281193F85311D6
:100DE00001F0FE0183F853114FF48011C3F8141180
:100DF000C3F80811C3F828214349C3F8281193F810
:100E0000541101F0FE0183F85411C3F81401C3F822
:100E10000801C3F828213D4AC3F8282193F8552139
:100E200002F0FE0283F85521394B9847394B984719
:100E3000394B9847394B9847394B9847394C636938
:100E400043F400736361384B98470246374938488A
:100E5000384DA847384B9847384B9847384B9847F8
:100E6000384B9847384B9847384B9847384B9847FA
:100E7000384B9847384B9847636943F48043636124
:100E8000A7F510574FF04008C7F8A480334EB0477D
:100E9000024633493348A847636943F4004363611A
:100EA000C7F8A480B04702462F493048A847A36935
:100EB00043F40053A361C7F8E880B04702462C49C9
:100EC0002C48A847A36943F48043A361C7F8E8808E
:100ED000B047024628492948A847294B9847294B3B
:100EE0009847BDE8F08100BFF15B00000080004141
:100EF00000000240200002C0000002C0008002404A
:100F0000040002C0080000C0100000C0200000C0A3
:100F10008103000019040000BD040000E504000086
:100F2000290500000008004019640000002400406A
:100F3000EC0E0020694C0000B505000059060000C9
:100F4000FD06000019080000AD0800006909000056
:100F5000FD090000110B0000390B0000597C000056
:100F60000038004014120020003C0040081100200E
:100F700000A001410C0F002000C00141F41100202D
:100F8000F90B0000250C00000008024038B50446AB
:100F90000D46017142718371002343814800094B62
:100FA000984720604DB100231946226822F813109B
:100FB0000133DBB222799A42F7D80020A081208148
:100FC00038BD00BF79B500002DE9F04705468946D8
:100FD0001746984600010C4B98470C4B186085B19A
:100FE000013DEDB201352D0100249A46084E4346DD
:100FF0003A464946DAF800002044B0471034AC4283
:10100000F5D10020BDE8F08779B500007017002009
:101010008D0F00002DE9F04F00013C4BD3F800A0EC
:101020000AEB000C9CF80460002E5BD05AF80050CC
:10103000023D00229046914696464FF6FF771446B1
:101040005FFA82FB35F8023F1C44734584BFD846E3
:101050009E46BB423CBFD9461F460132D3B2B34283
:10106000EED3B4FBF6F6B6B28E423FD25AF8003059
:101070000C4433F81920A41A23F819109CF80430F2
:10108000B4FBF3F49CF806309CF80550A6B2C3F10B
:101090001000C0B2EB1AD9B246FA00F39BB28B40F3
:1010A0009FB2BCF80A20921B002AB8BF5242012608
:1010B00006FA00F0BCF80860BE4220D0824208DC8C
:1010C000012202FA05F502FA01F1691A8F4200D0F5
:1010D000C7B9ACF80A40ACF808700120ACF80C00B5
:1010E000BDE8F08FB046B1460024BAE75AF80030A8
:1010F0000C4433F81820A41A23F81810BEE7002077
:10110000BDE8F08F0020BDE8F08F00BF7017002011
:10111000024B1B6803EB0010007B70477017002028
:10112000094B1B6803EB001000238381CB1FDBB24C
:10113000072B06D803894079401A43FA00F080B2A1
:1011400070470020FBE700BF7017002038B5044649
:101150000D4601800023C381038143818381038283
:10116000438283820846084B9847606000B9FEE7D7
:1011700045B1002319466268D15401339BB22288DD
:101180009A42F8D8012038BD79B500000389028A57
:1011900093428FBF981A0088C018801A80B2704797
:1011A00010B40389028A93429CBF04881B199B1ABE
:1011B0009BB28B420AD90A44048892FBF4F304FBE5
:1011C0001322428208465DF8044B70470020FAE77C
:1011D000838A4268D154838A01339BB20188B3FB6E
:1011E000F1F201FB1233838201207047838A428A25
:1011F0009A4200D0FEE7038201207047838942892A
:101200009A4200D0FEE702899A4200D0FEE7F0B48D
:10121000058AAB4225D00488FCB1264693FBF4F244
:1012200004FB123291B28D421DD04068425C0A2A02
:1012300014D10023013398B2F0BC704792FBF6F151
:1012400006FB11218FB2BD420FD00132C15D0A29C8
:10125000F0D001339BB2A342F0D1FEE75A1C002329
:10126000F7E70020E8E70020E6E70020E4E78289CE
:101270004389934200D0FEE70389934200D0FEE702
:10128000F0B5058AAA4231D004885CB3264692FBA9
:10129000F4F304FB132399B28D4229D047680B461F
:1012A000795C0A291FD10021013393FBF4F204FB7E
:1012B000123343814B1C9BB2C3811846F0BD92FB95
:1012C000F6F306FB13231FFA83FE754512D073460F
:1012D000013217F80EE0BEF10A0FE5D0013189B2F4
:1012E000A142ECD1FEE701320021F7E70023E4E759
:1012F0000023E2E70023E0E78389418999420ED089
:1013000010B402464168C85C01339BB21488B3FB39
:10131000F4F104FB113393815DF8044B7047FEE751
:10132000838942899A4200D0FEE7038101207047F9
:101330002DE9F041044690461F469DF8185000F5EF
:101340009B60334EB047414604F59E60B047002392
:1013500023609DF82020A2729DF81C2062726760B5
:101360002572A381E3611946E21882F8281001333F
:10137000B3F5167FF8D100231946E21882F88012DF
:101380000133B3F5167FF8D1002384F80C35C4F887
:101390000835012384F80F359D4204D0012384F8D9
:1013A0000F35BDE8F081002384F80F3584F80C3543
:1013B000637ADBB2112B13D0637ADBB2122B17D016
:1013C000637ADBB2132B1BD0637ADBB2142BE8D128
:1013D000FF2384F80D35002384F80E35BDE8F08135
:1013E000002384F80D35012384F80E35BDE8F08123
:1013F000012384F80D35002384F80E35BDE8F08113
:10140000002384F80D35FF2384F80E35BDE8F08104
:101410004D1100002DE9F04784B0002602961123FB
:10142000019301240094254B4FF47A72114624480D
:10143000244DA8470294122301930094224B4FF4A9
:101440007A7211462148A8474FF00209CDF808905A
:101450001323019300941E4B4FF47A7211461D48DA
:10146000A847032702971423019300941A4B4FF4C3
:101470007A7211461948A847DFF868804FF0FF0AD2
:10148000CDF808A00196009733464FF47A721146C2
:101490004046A847124FCDF808A00196CDF800901D
:1014A00033464FF47A7211463846A84788F80F45FC
:1014B00087F80F4504B0BDE8F08700BF7410002026
:1014C0003812002031130000201000209C30002032
:1014D00078110020782600202811002054210020B7
:1014E0008C2B0020881700202DE9F04F91B002AF1F
:1014F000786000F59E694846544B984720B9002013
:101500003C37BD46BDE8F08F8046C7F800D0504B51
:10151000BB60504BFB60504B3B61504B7B61504B71
:10152000BB61504BFB6107F1080307F12001002666
:1015300001E08B420ED053F8042B92F80F050028DF
:10154000F7D007F1380000EB860040F8182C013680
:10155000F6B2EEE7002E68D007F1200A741EE4B25E
:1015600001340AEB84045546DFF818B101E0A542C6
:1015700016D055F8040B7B688342F8D000F59B60C9
:10158000D8478045F3D9C823019302230093002351
:10159000642211463448354CA047D7F800D0AEE756
:1015A0004846334B9847804500D0FEE7314C01E078
:1015B000AA453FD05AF8040B7B688342F8D04146D5
:1015C00000F59B60A047F3E7A54209D054F8040B4F
:1015D0007B688342F8D0396800F59B60D847F3E711
:1015E0000AF1010A1FFA8AF3434508D24846224B02
:1015F00098473860002EF3D007F12004E6E748460C
:101600001E4B9847002E3FF47BAF07F120041C4E81
:1016100002E0A5423FF474AF54F8040B7B688342A8
:10162000F7D000F59B60B047F3E74846104B98476A
:101630004045BAD1751EEDB207F1380303EB8505BD
:10164000143D4FF0000ADFF840B0CFE7FD11000075
:10165000381200209C3000207826002054210020E1
:10166000881700208C2B0020A41C0020AD3800001F
:101670006F120000A1110000F912000021130000F8
:10168000ED1100008D110000D11100002DE9F04F87
:101690009BB006AF386400F59B6630468C4B98478C
:1016A00018B95437BD46BDE8F08F04463046894B23
:1016B00098470025DFF85892DFF820823046C84767
:1016C00008F805000135EDB2ABB29C42F6D83046C1
:1016D000814B9847814D2846814B9847B8632846EF
:1016E000804B98477F3843B21E467B6128467E4B2D
:1016F00098477F3843B2BB6128467C4B9847786354
:10170000002587F84F50BB693B63C3F58073EA1A25
:1017100003F00F0302F00F0258BF5342DBB21A4628
:101720003B62FE623301FB617A62631E9BB203F18E
:10173000010BAA467D64DFF8A49106E05FFA8AF502
:101740000AF1010ADA4500F09A8119F80A30DBB291
:10175000022BF3D019F80A30DBB2032BF0D1002DA5
:10176000EED02C46681C07F14F0202214844604B22
:10177000984710F0FF061ED0032E72D0012E00F005
:10178000C980042E00F05081022E00F076817D6C1D
:1017900005F128043B6C1C44C2B256492046564B06
:1017A00098472046554B984705EB00085FFA88F3A9
:1017B0007B640025C4E7E81C07F14F02022148447E
:1017C0004B4B9847681D07F14F0202214844484B94
:1017D00098475FFA80F8E81D07F14F02022148445C
:1017E000434B9847044605F1090007F14F020221D7
:1017F00048443F4B98477B6C28333A6C1A44154653
:10180000E4B24034F9690C44634204F07F0403F00D
:101810007F0358BF5C42E4B2C3B2FB6305930494F8
:10182000CDF80C80796A0291796B0191396B009146
:10183000FB6ABA6B3249BD6228462F4DA847B86A89
:101840002E4B98477B6C1844C3B27B64FB6B2246DB
:10185000396A48EA01014FEA18102A4CA047354678
:101860006EE77B69002B40F00681BB690BB1002558
:1018700066E7E81C07F14F02022148441C4B9847D9
:101880000646681D07F14F0202214844184B98474D
:101890000546E01D07F14F0202214844144B9847CA
:1018A000804604F1090007F14F0202214844104B21
:1018B0009847EDB2632D01D0002541E7C3B2F2B2E3
:1018C0005FFA88F11048114CA047002538E700BFA7
:1018D000FD1100006F12000021130000E035002010
:1018E000713B0000913B0000B13B0000D13B000088
:1018F0000139000030BF000029B7000071B70000B7
:10190000A0BE0000D1A30000B0350020051D0000DE
:10191000F9120000C7F810D05FFA8AF35B1B033B93
:101920005A4A82FB0312A2EBE373DBB21946FB6057
:1019300003EB4303073323F00703ADEB030D06ABC3
:101940001E46BB60002964D0033404EB09084B1E1B
:10195000DBB203EB4303093505EB43034B44BB62A6
:10196000FE63C7F804A0C7F800B0D7F844B007F189
:101970004F0202214046464B9847044607F14F026A
:10198000022108EB0100424B9847054607F14F0240
:10199000022108F104003E4B984706460BF1280A45
:1019A0003B6C9A443B4B98470590E4B20494EDB2EB
:1019B00003957E6497F8443002937B6B01933B6BF5
:1019C0000093FB6ABA6B34495046344EB0475046D8
:1019D000334B984783445FFA8BFB97F84430F96B9D
:1019E0000B70822D14BF002501250B464D70802CF5
:1019F00014BF002401248C7008F106080333FB6334
:101A0000BB6A9845B3D1C7F844B0D7F804A0D7F85B
:101A100000B0F968B868234B9847C0B2224B5870A1
:101A2000D7F810D000258BE6E81C07F14F02022101
:101A30004844174B98470546601D07F14F020221A5
:101A40004844134B98470646E01D07F14F02022118
:101A500048440F4B9847EDB2642D01D000256FE646
:101A6000F6B2652E01D000256AE6C1B20F48104BD0
:101A70009847002564E6002562E6002560E6796C5B
:101A8000386C28300B4B98470BE600BFABAAAA2A4C
:101A90000139000079390000E8BE000029B70000D4
:101AA00071B700004D9E0000D4370020A41C002018
:101AB000693A00000D9C0000F8B500F59B652846CA
:101AC0000A4B984700B9F8BD06462846084B984788
:101AD0000024084F2846B8470134E4B2A3B29E421E
:101AE000F8D82846044B9847EDE700BFFD110000E9
:101AF0006F120000F912000021130000838903B166
:101B000070472DE9F041054600F59B663046114BC4
:101B100098470446074610B90020BDE8F0813046DA
:101B20000D4B9847AC810024DFF838803046C04721
:101B30002B1983F828000134E4B2A742F6D83046C6
:101B4000064B9847AA8905F128016868044B984715
:101B5000BDE8F081FD1100006F12000021130000AC
:101B60006D460000F91200000122014B1A70704707
:101B70003412002030B444788C4202D8FF2030BCAC
:101B8000704701EB41018900094C54F82350C368A8
:101B90005D5054F82220C3680B445A609DF8083009
:101BA00054F82320C36819448A600020E7E700BF87
:101BB000441D002010B5064C00F114012046054BD1
:101BC0009847054A00212046044B984710BD00BFA6
:101BD000C4100020654B0000691B0000354B00005D
:101BE000407870474378F3B110B4002303EB43020D
:101BF00003EB820102690A44D17A147B2144D17239
:101C000042781A4402EB420102EB810201690A4464
:101C1000D17A147B2144D1720133DBB242789A42EB
:101C2000E4D85DF8044B704770B4447802FB0414A8
:101C3000056904EB440604EB86042B55437802FB4C
:101C40000313046903EB430503EB850323449DF869
:101C50000C405C70437802FB0312036902EB420103
:101C600002EB81021A449DF81030937070BC7047EB
:101C700070B4447802FB0414056904EB440604EBD9
:101C800086042C44E370437802FB0313046903EBDE
:101C9000430503EB850323449DF80C401C714378F6
:101CA00002FB0312036902EB420102EB81021A44B8
:101CB0009DF81030537170BC704770B4447802FBCB
:101CC0000414056904EB440604EB86042C44A37158
:101CD000437802FB0313046903EB430503EB85031D
:101CE00023449DF80C40DC71437802FB0312036926
:101CF00002EB420102EB81021A449DF8103013728C
:101D000070BC704710B4447802FB0412016902EB06
:101D1000420002EB80020A44D3725DF8044B704724
:101D200010B4447802FB0412016902EB420002EB9A
:101D300080020A4413735DF8044B70472DE9F04F9D
:101D400083B004464170CDB205EB45008000903071
:101D500060603E4FB8470646A06000F19003E36024
:101D60001A2000FB05F0B847002E6ED000286CD07A
:101D7000206100231946A268D1540133902BFAD177
:101D80006378002B5ED000252E46314F00963346F7
:101D9000324629462046B84701356378AB42F5D82C
:101DA000002B4FD00026DFF8B0B0DFF8B0A0002540
:101DB000019500952B462A4631462046D847019585
:101DC0007F2300932B462A4631462046D047019573
:101DD000FF2300932B462A4631462046DFF88090A9
:101DE000C8472B462A4631462046DFF87880C04750
:101DF0002B462A4631462046164FB8470195009596
:101E00002B46012231462046D847019500952B46A6
:101E1000012231462046D047019500952B460122EC
:101E200031462046C8472B46012231462046C0474E
:101E30002B46012231462046B8470136F6B2637878
:101E4000B342B4D803B0BDE8F08FFEE779B5000027
:101E5000751B0000051D0000291C0000711C0000FE
:101E6000BB1C0000211D00002DE9F04F83B090F84D
:101E700001C00CEB4C030CEB830C01EB410401EBB8
:101E8000840304691C4402274FF0000E7346724617
:101E9000DFF88480E67A18F80690464496F80051F8
:101EA00096F8006294F800A094F803B005FB0BFBD1
:101EB00009FB0ABB94F806A006FB0ABA524494F840
:101EC00001A094F804B005FB0BFB09FB0ABB94F8D6
:101ED00007A006FB0ABA534494F802A094F805B090
:101EE00005FB0BF509FB0A59257A06FB0595AE445F
:101EF000013F644417F0FF07CCD1CEF34724009490
:101F0000C3F34723C2F34722024CA04703B0BDE806
:101F1000F08F00BF751B00000000002043785BB10C
:101F200070B505460024054E21462846B0470134C9
:101F30006B78A342F8D870BD704700BF691E0000DF
:101F400010B504460022084B1A700848084B984701
:101F5000A288A1686069074B9847034A1378DBB2EF
:101F6000012BFBD110BD00BF34120020C410002093
:101F70000D4B00006D4600002DE9F04F85B0054681
:101F80001F4B1B78DBB2202B0FD001231A460021F8
:101F900003FB01F1029103FB02F303934FF0000AEC
:101FA000D3464FF0FF09174E1DE002230022012106
:101FB000EEE700970023424621462846B047013409
:101FC000E4B26B78A342F4D828460F4B984701201F
:101FD0000E4B984709F1FF39029B9B44039B9A449F
:101FE00019F0FF0908D06B78002BEDD05FFA8BF861
:101FF0005FFA8AF70024DCE705B0BDE8F08F00BF88
:10200000000C0040751B0000411F0000D54300007C
:1020100070B504462B4E002293B203F00100002855
:1020200014BF4FF060604FF00060C3F34005002D17
:1020300014BF4FF060454FF000450543C3F38000E7
:10204000002814BF4FF460204FF400202843C3F34E
:10205000C005002D14BF4FF460054FF40005284360
:10206000C3F30015002D14BF4FF460654FF40065F5
:102070000543C3F34010002814BF4FF460404FF4F1
:1020800000400543C3F38010002814BF0E20082031
:102090002843C3F3C013002B14BFE0238023034362
:1020A00046F8043F0132B2F5807FB5D12046064B99
:1020B00098472046054B98472046054B98470020F7
:1020C00070BD00BF401D00203D1D0000B51B00007D
:1020D000791F000010B504460022054B1A70054810
:1020E000054B9847A288A1686069044B984710BDCA
:1020F00034120020C41000200D4B00006D4600007B
:10210000014B1878704700BF3412002008B54FF417
:102110008042134BC3F81821124B984778B1114BEA
:10212000984780280FD00F4B984740280FD00D4B71
:102130009847C0280FD00C480C4B984708BD0C4856
:102140000C4B9847EBE70A480B4B9847EBE70848DE
:102150000A4B9847EBE70648094B9847EBE700BF67
:102160000080004179390000A41C002001380000E3
:10217000981C002029340000512400002930000060
:10218000952A000010B50348034CA0470348A04718
:1021900010BD00BFF40F00202D430000C811002027
:1021A0008D4B1B782BB98C4A13780133DBB213703B
:1021B00070472DE9F04383B06846884B9847884BB9
:1021C000D3F80011D3F82021D3F8104154400C402B
:1021D00054406846834B9847834B5B68DB681A78AA
:1021E000C4F3C024944204D0002A00F0D980002215
:1021F0001A700023ADF80630ADF80430764B5A78EB
:1022000008327A48855CEDB25A78D2B2845CE4B286
:102210005A780132D2B25A705A7802F007025A70D4
:102220005B7813F0010F4FF400226D4B14BFC3F81D
:102230001821C3F81421684B5B7813F0020F4FF498
:102240008012674B14BFC3F81821C3F81421624BE6
:102250005B7813F0040F4FF40012614B14BFC3F806
:102260001821C3F8142102230DF106020021604851
:10227000604EB047022301AA00215F48B047BDF875
:10228000062042F210739A428CBF00237F23ADF8E0
:102290000630BDF8042042F210739A428CBF00232E
:1022A0007F23ADF804306E1C36014F4B5B6833441E
:1022B000DA681278BDF8061091422FD0002A0CBFC0
:1022C0004FF07F094FF0000958680CBF9022802220
:1022D00002210530DFF82881C047434F7B68334433
:1022E00058682A4602210730C0477B683344586843
:1022F0004A4602210930C0477B68334458684FEA98
:10230000490202211530C0477B681E44F36883F8F8
:102310000090691CC9B23846384B9847651C2D019E
:10232000314B5B682B44DA681278BDF80410914297
:102330002ED0002A0CBF4FF07F084FF000085868DD
:102340000CBF90228022022105302D4FB847264E27
:1023500073682B445868224602210730B8477368D7
:102360002B445868424602210930B84773682B4411
:1023700058684FEA480202211530B84773681D4477
:10238000EB6883F80080611CC9B230461B4B98474C
:102390000022114B1A701B4B984703B0BDE8F08325
:1023A00001221A70184A537A0133594203F0030389
:1023B00001F0030158BF4B42DBB25372537A527A99
:1023C000094C63685868022107300D4B984700217B
:1023D00020460A4B98470CE754060020554300005E
:1023E0000080004163430000981C0020000300208F
:1023F000F40F00204D420000C8110020173E0000DD
:102400004139000085210000A41C0020F8B50B4FC5
:102410000B4C3B460022114620460A4EB0470A4D5F
:102420003B46002211462846B04700212046074C73
:10243000A04700212846A047F8BD00BFA121000009
:10244000F40F0020CD410000C81100208D41000094
:102450002DE9F04F9DB004460D9010213F48404BB0
:102460009847112120463F4B98476368002B72D054
:102470004FF0FF3701250026DFF804A1DFF804B193
:102480002DE0032303930024029465230193642326
:10249000009304230222344914A8D84714A8DFF873
:1024A000E890C8470C900DF13C08304B1B68ADF824
:1024B0003C301B0C8DF83E304046C847C0B20190FE
:1024C000CDF800809DF8303014AA21460D98284C94
:1024D000A04700283FD101360135EDB2013716F093
:1024E000FF09CED00FAC9AE80F0084E80F0003215B
:1024F0000B9100230A933A5D099263220892079395
:102500000691022205920491039302979021019172
:102510000093184914A8D84714A8DFF86C80C04766
:102520000C90124B1B68ADF83C301B0C8DF83E3004
:102530002046C047C0B2019000949DF8303014AAE4
:1025400049460D980A4CA04728B9102DC3D90A4B0B
:1025500098470A4B98471DB0BDE8F08FB035002072
:10256000112000003D3D00005CBF000074BF000072
:10257000553D000078BF00000D24000085210000BB
:102580004CBF000029B7000071B7000010B54FF430
:102590000012064B9A61064C2046064B98470823CA
:1025A000054A06492046064CA04710BD0080004160
:1025B000A40E0020E148000078170020100300203E
:1025C00081490000000000002DE9F04F83B04FF476
:1025D0000012AD4B5A61AD4E4FF0000887E03878DD
:1025E000AB4901EB0011C978D14205D4A84A02EBEE
:1025F00000100B44C3700AE0A54B03EB001000234E
:10260000C37004E0A24B03EB00107F23C370397842
:102610001131C9B29F48A04B9847002840F024814F
:102620003A789C4B5B6803EB0213D3F81C31002211
:102630001A70402309FB0434E4B23A7802F1110124
:10264000944B5B6803EB0113D9680978A14247D02A
:102650008F4901EB021292F803904FEA49095FFAA1
:1026600089F95868B02202210530DFF860A2D0470E
:102670003A78884D6B6803EB0213D3F814010221FA
:102680000730D0473A786B6803EB0213D3F8140194
:10269000224602210930D0473A786B6803EB0213D7
:1026A000D3F81C311C7039781131C9B228467B4CE3
:1026B000A0473A786B6803EB0213D3F814024A463A
:1026C00002210930D0473A786B6803EB0213D3F844
:1026D0001C3283F8009039782131C9B22846A047CE
:1026E00008F101080136B8F1100F00F033815FFAEC
:1026F00088F14B086A4AD35C01F001029200134151
:10270000DBB203F00F00674A12F80820D2B2904201
:10271000E6D0654A11708108C0F3400503F001045A
:10272000374633785A4A02EB031252788A423ED037
:10273000574A02EB03120120907051700344554A2E
:10274000526802EB0313DA681278002A0CBF4FF0CC
:102750007F0A4FF0000A58680CBF902280220221A5
:102760000530DFF868B1D8473278DFF82891D9F81A
:10277000043003EB0213586902210730D84732783E
:10278000D9F8043003EB021358695246022109308C
:10279000D8473278D9F8043003EB0213DB6983F8A9
:1027A00000A031780131C9B248463C4B98473A788D
:1027B000374B03EB02135B7BAB4200F0FE80A5427C
:1027C00014BF4FF0FF394FF00109314B03EB0211F9
:1027D0004D738C7389693548354B98470090009B41
:1027E000B3F5C87F84BF4FF4C8730093009B132BCD
:1027F0009CBF14230093009B009800FB03F0C0F5DE
:102800001C3000F580702B4B98471DA3D3E90023A3
:10281000294CA0470022294B294CA047294B984717
:10282000C4B23D782148284B9847194B03EB051358
:10283000986004FB09939BB21AB2B9F1000FFFF63E
:10284000CEAEB9F1000F7FF7E2AE3878104901EB58
:102850000011C9780A447F2A3FF7D4AE0C4A02EB34
:1028600000100B44C370D2E63A780A4B5B6803EB66
:102870000213D3F81C311B78DCE600BFAFF30080F5
:10288000000000000088E340008000412003002099
:10289000E0370020981C00200F3E0000173E00008B
:1028A000781700206017002048170020A41C002083
:1028B00045380000E1AF000021B300000000F03F08
:1028C00069AD0000F1B4000041380000413900005A
:1028D000013BDBB24A4901EB0211CB705B00DCB279
:1028E000484D6B6803EB0212D2F814022246022113
:1028F0000930454B98473A786B6803EB0213D3F8DD
:102900001C321C7039782131C9B228463F4B984798
:1029100066E00133DBB23A4901EB0211CB705B0098
:10292000DCB2384D6B6803EB0212D2F81402224677
:1029300002210930344B98473A786B6803EB021355
:10294000D3F81C321C7039782131C9B228462F4B7C
:1029500098474CE001A82E4B98472E4BD3F8001116
:10296000D3F82021D3F8104154400C40544001A822
:10297000294B9847234B5B68DA681378C4F3C0246B
:102980009C420ED0ABB90123137081221D4C6368A9
:102990005868022103301C4B9847002120461B4BEE
:1029A000984700221D4B1A701D4B984703B0BDE895
:1029B000F08F002313708022E8E7114B03EB021223
:1029C000947391681748184B9847C8287FF688AECB
:1029D0003A780B4B03EB0213DB78402B3FF678AFD2
:1029E0003A78074B03EB0213DB783F2B91D93C7805
:1029F0000C480E4B9847024B03EB041398606FE6AC
:102A0000E0370020981C002041390000173E0000EC
:102A1000554300000080004163430000DC35002086
:102A20008D250000A41C002045380000413800001E
:102A300010B50E4B4FF400125A619A604FF080426D
:102A40009A620B4A9A620B4C032120460A4B984724
:102A50000A4920460A4B98470A4920460A4B98479C
:102A60000A4A002120460A4B984710BD00800041C9
:102A7000200000C0A40E002045490000801A060076
:102A8000094900005C1700202D4A0000C9250000FC
:102A9000E94900002DE9F04F97B004460790312333
:102AA00003704FF444704A4B984760604FF0FF3812
:102AB00001240025DFF83C91DFF83CB1DFF83CA1B0
:102AC0005DE0032303932B2302938323019380234D
:102AD0000093012302223F490EA83F4EB0470EA8A3
:102AE000C847074609AEDBF80030ADF824301B0CB0
:102AF0008DF826303046C847C0B2019000963B465C
:102B00000EAA00210798D04734E003230493002342
:102B10000393CDF8088090220192009302222F495E
:102B20000EA82D4FB8470EE0032304930022039212
:102B3000A5F121010291632101910092022227490E
:102B40000EA8254FB8470EA8C847069009AFDBF876
:102B50000030ADF824301B0C8DF826303846C847BD
:102B6000C0B201900097069B0EAA31460798D04745
:102B7000302C1AD801350134E4B208F1010815F0FF
:102B8000FF069ED0102EC0D9202ECDD8032304934B
:102B900000230393CDF80880902201920093022233
:102BA0000E490EA80C4FB847CDE700230C491A0177
:102BB00053540133102BFAD110210A480A4B98477D
:102BC0000A4B98470A4B984717B0BDE8F08F00BFF3
:102BD00079B50000ACBF000029B7000090BF00002D
:102BE000E0370020B035002011200000312A00001D
:102BF0008D25000071B7000074BF0000553D000036
:102C000010B50348034CA0470348A04710BD00BFC0
:102C1000F40F00202D430000C81100200000000028
:102C2000A14B1B782BB9A04A13780133DBB2137088
:102C300070472DE9F04F83B068469C4B98479C4BFA
:102C4000D3F80011D3F82021D3F8104154400C40A0
:102C500054406846974B9847974B5B68DB681A78F7
:102C6000C4F3C024944210D0002A40F01581012200
:102C70001A708122904C63685868022103308F4B90
:102C80009847002120468E4B98470023ADF8063028
:102C9000ADF804308B4B1A7808328B498E5CF6B253
:102CA0001A78D2B28D5CEDB21A780132D2B21A70B3
:102CB0001A7802F007021A701B7813F0010F4FF414
:102CC00000227B4B14BFC3F81821C3F814217D4B9D
:102CD0001B7813F0020F4FF48012754B14BFC3F82A
:102CE0001821C3F81421774B1B7813F0040F4FF40D
:102CF00000126F4B14BFC3F81821C3F8142102232C
:102D00000DF1060200217148714CA047022301AA6F
:102D100000217048A047DFF8C4B1BDF80600D847CD
:102D2000DFF8BCA15EA3D3E90023D047DFF8B4915C
:102D3000C8474FF6FF74A04228BF204607461FFA37
:102D400080F8ADF80680BDF80400D84754A3D3E955
:102D50000023D047C847A04228BF204680B2ADF824
:102D60000400A5F10803DBB2012B40F28D800D2E8B
:102D700040F2BA8042F2107398458CBF00237F2343
:102D8000ADF8063042F2107398428CBF00237F23C7
:102D9000ADF8043006F18054033C2401464B5B68D7
:102DA0002344DA681278BDF8061091422FD0002A29
:102DB0000CBF4FF07F094FF0000958680CBF9022FC
:102DC000802202210530DFF8F480C0473A4F7B684B
:102DD00023445868324602210730C0477B682344A9
:102DE00058684A4602210930C0477B682344586826
:102DF0004FEA490202211530C0477B681C44E36852
:102E000083F80090F11EC9B238462D4B984705F162
:102E10008054033C2401284B5B682344DA68127811
:102E2000BDF8041091422FD0002A0CBF4FF07F094B
:102E30004FF0000958680CBF902280220221053013
:102E4000DFF87880C0471C4F7B68234458683246BF
:102E500002210730C0477B68234458684A46022154
:102E60000930C0477B68234458684FEA4902022171
:102E70001530C0477B681C44E36883F80090E91E66
:102E8000C9B238460E4B98470022074B1A70124BB6
:102E9000984703B0BDE8F08F00221A708022E9E65F
:102EA0007B14AE47E17AF03F7417002055430000D1
:102EB0000080004163430000981C0020413900005D
:102EC000173E0000AC35002034030020F40F002032
:102ED0004D420000C8110020012C000001B000008C
:102EE000CDB00000F1B40000012D37D9B9B23046A1
:102EF000364CA047BDF804102846A0473046344B56
:102F00009847002839D12846314B98470028BBD034
:102F1000072128462F4B984706466F1C4FEA071893
:102F20002D4C6368434458682A46022107302B4DD4
:102F3000A847636843445868F2B202210930A847A1
:102F4000720063684344586802F0FE0202211530A3
:102F5000A847F9B22046224B984795E7B9B24FF6F9
:102F6000FF78A8EB01013046184CA047BDF80410CB
:102F7000A8EB01012846A047C0E707213046154BC2
:102F80009847074606F101084FEA0819124C636892
:102F90004B445868324602210730104EB0476368F0
:102FA0004B445868FAB202210930B0477A0063688E
:102FB0004B44586802F0FE0202211530B0475FFA18
:102FC00088F12046064B98479DE700BF151000008A
:102FD0001111000021110000981C0020413900004F
:102FE000173E0000F8B50B4F0B4C3B460022114634
:102FF00020460A4EB0470A4D3B460022114628465D
:10300000B04700212046074CA04700212846A04792
:10301000F8BD00BF212C0000F40F0020CD410000BE
:10302000C81100208D4100002DE9F0479AB00746F5
:103030000D21334B98473B78002B4FD00024DFF80D
:10304000E8A0DFF8E89029E00323039339230293F3
:10305000832301938023009301230222294912A88C
:10306000C84712A8284EB04780460DAD274B1B68B5
:10307000ADF834301B0C8DF836302846B047C0B25E
:10308000019000955FFA88F312AA21463846204D38
:10309000A8470134E4B23B78A3421FD9002CD3D017
:1030A000082C04F1FF304FF003010B914FF00003A7
:1030B0000A9309904FF063020892079306914FF02C
:1030C0000202059204910393029094BFB0219021D3
:1030D00001910093514612A8C847C2E707230E2268
:1030E000052110200B4CA0470C210B480B4B984797
:1030F0000B4B98470B4B98471AB0BDE8F08700BFC1
:103100003D3D00005CBF000071B7000074BF0000CF
:10311000553D0000C90F0000B0350020112000000F
:10312000E52F0000012C000078BF000029B7000047
:1031300010B50348034CA0470348A04710BD00BF8B
:10314000F40F00202D430000C811002000000000F3
:10315000914B1B782BB9904A13780133DBB2137073
:1031600070472DE9F04782B068468C4B98478C4BEE
:10317000D3F80011D3F82021D3F8104154400C406B
:1031800054406846874B9847874B5B68DB681A78E2
:10319000C4F3C024944218D0002A40F09880012241
:1031A0001A70824A557AEDB26B1CDBB2537205F08D
:1031B00003057D4C636858682A46022105307C4B24
:1031C0009847002120467B4B98470023ADF80630F6
:1031D000ADF80430704B5A78083277498D5CEDB207
:1031E0005A78D2B28C5CE4B25A780132D2B25A70B8
:1031F0005A7802F007025A705B7813F0010F4FF40F
:103200000022674B14BFC3F81821C3F81421624B86
:103210005B7813F0020F4FF48012614B14BFC3F8B8
:103220001821C3F814215C4B5B7813F0040F4FF4A2
:1032300000125B4B14BFC3F81821C3F814210223FA
:103240000DF1060200215D485D4EB047022301AA40
:1032500000215C48B047DFF880A1BDF80600D047E8
:10326000DFF878914AA3D3E90023C847DFF87081DB
:10327000C0474FF6FF76B04228BF30460746ADF84C
:103280000600BDF80400D04741A3D3E90023C84796
:10329000C047B04228BF3046ADF80400B9B2284656
:1032A000494EB047BDF804102046B0472846474B6A
:1032B000984778B92046454B9847002839D10022D5
:1032C000354B1A70424B984702B0BDE8F087002298
:1032D0001A706EE7072128463E4B98475FFA80F840
:1032E00005F101094FEA09172F4E73683B445868EE
:1032F0002A46022107302E4DA84773683B44586880
:10330000424602210930A8474FEA480273683B440D
:10331000586802F0FE0202211530A8475FFA89F1D1
:103320003046244B984773681F44FB6883F800803D
:10333000C0E707212046274B9847C7B204F1010890
:103340004FEA0816184D6B6833445868224602212C
:103350000730174CA0476B68334458683A4602213F
:103360000930A0477A006B683344586802F0FE02C7
:1033700002211530A0475FFA88F128460D4B984787
:103380006B681E44F3681F7099E700BFAFF30080BD
:103390007B14AE47E17AF03F56060020554300000B
:1033A0000080004163430000981C0020A41C002002
:1033B00041390000173E000044030020F40F0020B4
:1033C0004D420000C811002015100000111100002E
:1033D000313100002111000001B00000CDB000002B
:1033E000F1B40000F8B50B4F0B4C3B4600221146E0
:1033F00020460A4EB0470A4D3B4600221146284659
:10340000B04700212046074CA04700212846A0478E
:10341000F8BD00BF51310000F40F0020CD41000085
:10342000C81100208D4100002DE9F04F9DB00D9096
:1034300011213A4B984701250024DFF808B1DFF845
:1034400008A1374F28E00323039300260296652343
:1034500001936423009304230222324914A8D04725
:1034600014A8B84781460DF13C082F4B1B68ADF8F6
:103470003C301B0C8DF83E304046B847C0B201903E
:10348000CDF800805FFA89F314AA31460D98274ED3
:10349000B04701340135EDB214F0FF08D3D0601EFF
:1034A00003210B9100230A9309906322089207934A
:1034B000069102220592049103930290B02101919A
:1034C0000093594614A8D04714A8B84781460FAEB8
:1034D000154B1B68ADF83C301B0C8DF83E30304668
:1034E000B847C0B2019000965FFA89F314AA41462A
:1034F0000D980E4EB047102DCBD907230E22052173
:1035000010200B4CA04710210A480B4B98470B4B3F
:1035100098470B4B98471DB0BDE8F08F3D3D00002C
:1035200071B700005CBF000074BF0000553D000093
:10353000C90F0000B035002011200000E533000065
:103540003131000078BF000029B70000828942B104
:1035500000F1270327320244002103F8011F9342A0
:10356000FBD100238381704708B50248024B98477E
:1035700008BD00BF542100204D35000008B50248A9
:10358000024B984708BD00BF782600204D3500004B
:1035900008B50248024B984708BD00BF9C30002088
:1035A0004D35000008B50248024B984708BD00BFE2
:1035B000381200204D35000008B5837A1B0103F155
:1035C000824303F520431A6C22F002021A640021A0
:1035D000807A014B984708BD895E000008B5024813
:1035E000024B984708BD00BF54210020B9350000A8
:1035F00008B50248024B984708BD00BF7826002056
:10360000B935000008B50248024B984708BD00BF15
:103610009C300020B935000008B50248024B98479D
:1036200008BD00BF38120020B93500002DE9F04177
:103630002F4B4FF08051C3F8041193F85C2142F0F6
:10364000040283F85C21C3F818114FF48031C3F8E9
:10365000041193F8502142F0040283F85021C3F87A
:1036600018114FF48051C3F8041193F84C2142F023
:10367000040283F84C21C3F818114FF40071C3F809
:10368000841093F8C92042F0040283F8C920C3F8DB
:103690009810DFF89880174A01214046164CA04741
:1036A000164F174A01213846A047164E164A0121E7
:1036B0003046A047154D164A01212846A047154916
:1036C0004046154CA04715493846A0471449304696
:1036D000A04714492846A0474046134CA047384607
:1036E000A0473046A0472846A047BDE8F08100BF6C
:1036F00000800041A535000031500000201000205E
:1037000091350000781100207D350000281100203F
:1037100069350000A01C002009500000642600202C
:10372000882B0020D8350020DD4F000074100020C9
:10373000F0B583B005460F461646847A4368196A89
:10374000283120460D4B984705F5207120460C4B3B
:103750009847394620460B4B9847214601A80A4B0B
:103760009847019B1E60012200212046074B984785
:1037700000212046064B984703B0F0BD055E0000CF
:10378000F55D0000315E0000C95E0000A15D000033
:10379000895E000010B5104A4FF416710F48104CA6
:1037A000A047104A4FF416710F48A0470F4A4FF434
:1037B00016710F48A0470F4A4FF416710E48A047E4
:1037C0000E4B002283F81F2383F8202383F8212344
:1037D00083F8222310BD00BF1936000038120020E4
:1037E00031370000053600009C300020F135000024
:1037F00078260020DD3500005421002000E100E0A3
:1038000010B500224272C8248472642383738274C8
:103810003221C172C3739623C3740173047401759A
:10382000437342744375034B9847034B9847034BCC
:10383000984710BD151400002D3600009537000084
:1038400080697047806988428EBF401AC94340181A
:1038500070478369013383617047007A70470023A2
:1038600003727047837923B1012B0FD0022B15D03F
:103870007047808840087D380028B8BF4042C0F1BA
:103880007D0000EBD070C0F3470070478088064B86
:10389000A3FB003040F30010C0B27047808864285A
:1038A0008CBFFF2000207047D34D621010B401245C
:1038B000047241708270C370BDF8083083809DF837
:1038C000043083715DF8044B70474078704780780E
:1038D0007047C07870470246A0F13003D8B209287B
:1038E0000DD9A2F16103DBB2052B03D931B10A7006
:1038F00000207047A2F15700C0B270470020704707
:103900002DE9F843C1B19046451E4B1E9C0001F1C4
:103910008047023FDBB2FF1ABF000026DFF81C9091
:10392000414615F8010FC847A0400644043CBC427C
:10393000F6D13046BDE8F8830026FAE7D738000014
:1039400030B585B005460C46094901A8094B984792
:1039500064B104AB1A1B053A6B1E601E55FA80F069
:1039600012F8011F03F8011F8342F9D105B030BDE1
:10397000C4BF000029B70000344B1B68B3F1FF3F00
:1039800002D0324B186870472DE9F04383B0304BBA
:103990004FF40052C3F888202E49C3F8A8104FF006
:1039A0004041C3F8A8104FF48040C3F888004FF09E
:1039B0004020C3F8A800C3F8A8104FF40041C3F892
:1039C00084102549C3F8A810A1F18021C3F8A810DC
:1039D000C3F894200120214B98470026B0461C4D87
:1039E0004FF400591D4F0CE0072E27D04FF48044B0
:1039F000C5F898400120B847C5F894400136082E14
:103A00001CD0C5F898900120B84701A8144B9847DE
:103A1000D5F88020D5F8A030D5F890405C4014400F
:103A20005C4001A80F4B984714F4004FDCD00123F1
:103A3000B34043EA08085FFA88F8D5E7034BC3F8B8
:103A40000080024B186803B0BDE8F08354030020E7
:103A5000008000410020004000800240D54300006B
:103A600055430000634300002DE9F04F85B08146C7
:103A700001F0030141722C4B984782460025DFF884
:103A8000BCB003951DE0FF27019700260096334642
:103A9000324621462548D8470196052300933346F0
:103AA000324621462148DFF89080C04701960096B3
:103AB0003B46324621461D481D4CA047039B01331F
:103AC00003939DF80C4019481A4B9847A04228D9F7
:103AD000BAF1C00FD7D099F809304B449E7A9F7B3A
:103AE00093F812804FEA98130193BB090093B3092E
:103AF000002221460D48D8474FEA580301937B081E
:103B0000009373080022214608480B4DA847CDF8C2
:103B1000048000973346002221460448044CA04705
:103B2000CCE705B0BDE8F08F79390000B035002052
:103B3000BB1C0000E11B0000711C0000291C0000E0
:103B4000032909D0431E04390144002013F8012F32
:103B500050408B42FAD170470020704708B5CB1E09
:103B600002211844014B984708BD00BF41390000AD
:103B700000B583B002AA002302F8013D02210430FF
:103B8000024B9847C0B203B05DF804FB0139000056
:103B900000B583B002AA002302F8013D02210630DD
:103BA000024B9847C0B203B05DF804FB0139000036
:103BB00000B583B002AA002302F8013D02210830BB
:103BC000024B9847C0B203B05DF804FB0139000016
:103BD00000B583B002AA002302F8013D02210A3099
:103BE000024B9847C0B203B05DF804FB01390000F6
:103BF00008B50A4602210430014B984708BD00BFB2
:103C00004139000008B50A4602210630014B9847A9
:103C100008BD00BF4139000008B50A46022108303E
:103C2000014B984708BD00BF4139000008B50A465E
:103C300002210A30014B984708BD00BF41390000FE
:103C4000C36999420DD0012303F01F0200EB8202E9
:103C5000D2698A4207D00133DBB2202BF4D1002095
:103C60007047012070470120704790F89C30013365
:103C700003F01F0380F89C3000EB8300C1617047A4
:103C8000F0B585B00546274B984701238DF80030E5
:103C90000E238DF8013007238DF802306B7A8DF8F2
:103CA000033030238DF804308DF805308DF8063060
:103CB0008DF807308DF808308DF809308DF80A300E
:103CC0008DF80B3004228DF80C208DF80D308DF816
:103CD0000E300A238DF80F300246082101A8124C3D
:103CE000A04710216846114B9847024602210DF16A
:103CF0000D00A04705F59B65102128460C4B984701
:103D000068B10DF1FF340DF10F070A4E14F8011FD1
:103D10002846B047BC42F9D12846074B984705B022
:103D2000F0BD00BF7939000041390000413B00007F
:103D3000A1110000D1110000ED11000038B50446BA
:103D40000D460801024B98476060257038BD00BFE2
:103D500079B500002DE9F84305469046089E0C0110
:103D6000426800211155426822445370426822443F
:103D70009DF824101172426802EB040918461B4F8B
:103D8000B847C9F804006B6803EB04090998B84701
:103D9000C9F80C006A68224453680BB3D36813B3A4
:103DA00053785BB1002318F803105268D1540133E3
:103DB000DBB26A68224451789942F4D86A68224496
:103DC000107A88B10023F15CD268D1540133DBB2A0
:103DD0006A682244117A9942F5D80020BDE8F88338
:103DE000FF20BDE8F883FF20BDE8F88379B5000027
:103DF000436803EB0111487840B100234868C05C78
:103E0000D0540133DBB248789842F7D87047436802
:103E10000901585C70474368090101225A547047F0
:103E20004368090100225A547047000003680F2BB1
:103E300029D82DE9F04FCBB00BB1013B0360074609
:103E40004C4B93F89D201B781721059104937F23F9
:103E5000039302930192002300930F23012246490A
:103E60000AA8464CA0470AA8454B9847454B1B78E3
:103E7000002B34D005460024A046DFF838A1414E7F
:103E8000DFF834910AE0013B0360704707A8C84798
:103E90000134E4B23378DBB2A3421DD9C82DF7D880
:103EA00007A8D04772682301D35C002BEED008F13D
:103EB00001085FFA88F80AAB03EB050B5A46214666
:103EC0003046314B984721463046304B984758464C
:103ED0002B4B98470544D9E7B8F1000F02D14BB0FE
:103EE000BDE8F08F3B685B000A333B60214A92F8E3
:103EF0009D300133DBB282F89D300AAC6619042292
:103F0000234930461D4FB84730461D4EB047054443
:103F10002A46204908A8B8479DF82030A3709DF88C
:103F20002130E3701C4B186860516019B04705449C
:103F300029462046194B9847C2B229462046184BBD
:103F40009847A9B21748184B98470028C7D06DB1B9
:103F50000DF127044AAB1D44A5F20115114F134E74
:103F600014F8011F3846B047A542F9D10D48104B4F
:103F70009847B4E7A41C0020CCBF000029B700007C
:103F800071B70000981C0020F13D0000213E0000A8
:103F9000E4BF0000E8BF0000F0BF0000413B0000AC
:103FA0005D3B0000781C0020A1110000D111000031
:103FB000ED110000554300006343000008B583691C
:103FC00003B1984708BD08B5C36903B1984708BD58
:103FD0002DE9F04706460F469146036A5C5C04EB08
:103FE0004404E400D0F8288008EB040505F1040A35
:103FF000D1B250460C4B984730460C4B984701289D
:1040000007D94FEA19215046074B9847AB8A01332D
:10401000AB82AB8A0133AB8258F8043013B1394616
:1040200030469847BDE8F08781570000075B0000E5
:104030002DE9F84F894616461C469DF828800B9DB1
:10404000074640B149B152B1B8F1000F09D0281C60
:1040500018BF012006E0002004E0002002E000205C
:1040600000E00020DFF864B03F225946DFF860A08E
:10407000D047601C402259468045CCBF002001201B
:10408000D0470023FF21DAB2B1540133DAB2A242A1
:10409000F9D93E6287F8244087F82580BD624946F9
:1040A0003846064B9847034628B9054ABA60054A80
:1040B0003A60054A7A601846BDE8F88FD559000085
:1040C000D13F0000BD3F0000C73F0000F4BF00002B
:1040D000455600002DE9F8430E461746984605461A
:1040E000002840D0002A40D0181C18BF0120DFF85B
:1040F000989066224946224CA04795F824006722F2
:104100004946B04234BF00200120A047296A8B5D98
:10411000FF2B2CD195F8240000231C46DAB28A5CD0
:10412000FF2A1CBF0134E4B20133DAB28242F5D96E
:1041300095F82530A3421DD304EB44094FEAC90981
:10414000A86A48444246394604300E4B9847024616
:1041500098B92B6A9C55AB6A99440023A9F814308E
:104160001046BDE8F8830020C1E70020BFE76FF0EC
:104170000C02F5E76FF01B02F2E76FF00C02EFE7BD
:1041800045560000ED560000F4BF0000F8B50D469E
:104190000B4F044683223946003018BF0120094ED8
:1041A000B04794F8240084223946A84234BF002046
:1041B0000120B04729462046034B98470020F8BD10
:1041C000F4BF000045560000F15A00002DE9F84305
:1041D0000E4614469946DFF8708005469C224146FB
:1041E000003018BF0120164FB84795F824009D22D3
:1041F0004146B04234BF00200120B847012C19D0FD
:104200002CB1022C19D06FF00C00BDE8F8832B6A9A
:104210009B5DAA6A03EB430342F8339019F1000354
:1042200018BF0123224631462846064CA0470020ED
:10423000BDE8F883C5F81890F0E7C5F81C90EDE7E5
:10424000455600002F5B0000F4BF00002DE9F04F41
:1042500083B0884691461D46044600284FD0002A68
:104260004FD0181C18BF0120294FBC223946294EB7
:10427000B04794F82400BD223946404534BF0020A1
:104280000120B0472046244B984795FBF0F303FBF1
:104290001050BF223946B0FA80F04009B047236A77
:1042A00013F808B00BEB4B0BA36A03EBCB0B01A885
:1042B0001A4B98470BF1040A5046194B9847804611
:1042C00001A8184B9847B8F1000F1CD0EDB1013D83
:1042D000ADB202350124144FA6B2611E49445046C6
:1042E000B847444502D00134AC42F5D1BBF8143094
:1042F0009B1BABF81430304603B0BDE8F08F0020B4
:10430000B2E70020B0E70026F0E70026EEE700BFA6
:10431000F4BF000045560000075B00005543000055
:10432000C1570000634300003D57000010B504462C
:10433000D6220549003018BF0120044B984720467B
:10434000034B9847002010BDF4BF00004556000005
:10435000195B0000EFF31083036072B6BFF35F8F49
:104360007047BFF35F8F036883F3108870470000C6
:1043700038B50C46054658B1081C18BF01202B2241
:104380000449054B984721462846044B984738BDB9
:104390000020F4E710C0000045560000195F00003F
:1043A00008B5024B1860024B984708BD580600201C
:1043B000D577000010B5044B1C68044B98470146A4
:1043C0002046034B984710BD58060020DD5B0000D7
:1043D000E977000010B5044B1C68044B9847014670
:1043E0002046034B984710BD58060020E55B0000AF
:1043F000E977000008B5014B984708BD215F000030
:1044000008B5436903B1984708BD08B5836903B18E
:10441000984708BD38B50C46054640F217120849C2
:10442000003018BF0120074B98472846064B984795
:1044300001382040002814BF6FF00D00002038BD67
:104440002CC0000045560000A560000038B50D46A0
:10445000044690B1081C18BF012038220849094BB6
:10446000984729462046084B9847034618B9074AFB
:104470002260074A6260184638BD0020EDE700BFA1
:104480002CC00000455600002D60000001440000D3
:104490000B4400002DE9F8430F461646044620B3AE
:1044A0005AB30120CB222049204B9847A1462046F1
:1044B0001F4B9847054620461E4B98478046394675
:1044C00020461D4B9847034660B946450FD8B7FBB9
:1044D000F5F5354445450DD8324639464846174B23
:1044E000984703461846BDE8F8830020DAE76FF0E6
:1044F0000C03F7E76FF00C03F4E7CB220A49002026
:104500000A4B9847A1462046094B98470546204646
:10451000084B9847804639462046074B9847034644
:104520000028D4D0DEE700BF2CC0000045560000B4
:10453000A5600000AB60000015440000B3600000FF
:1045400010B504464FF480720449003018BF0120B2
:10455000034B98472046034B984710BD2CC00000E2
:1045600045560000AB60000008B5438813F4807F17
:1045700002D1436B03B1984708BD08B5438813F4D3
:10458000807F02D1836B03B1984708BD08B543888B
:1045900013F4807F02D1036B03B1984708BD00007C
:1045A00010B584B01446838AADF8043002924FF4FB
:1045B0000043ADF80630039101A92838034B984712
:1045C000002808BF204604B010BD00BFD56C000015
:1045D00010B584B01446838AADF80430029248F2D4
:1045E0000103ADF80630039101A92838034B984721
:1045F000002808BF204604B010BD00BFD56C0000E5
:1046000070B50D46044689220F49003018BF0120BD
:104610000E4B9847294620460D4B9847054608B152
:10462000284670BD0B4BE3620B4BA3620B4A012182
:1046300020460B4EB0470B4A02212046B0470A4A9B
:1046400000212046B047EBE744C00000455600007B
:10465000556C0000D1450000A145000069450000EF
:10466000056E00007B4500008D45000070B50D46CD
:104670001646044660B1081C18BF012034220549C3
:10468000054B98472368324629462046984770BD17
:104690000020F3E764C0000045560000F8B50F465F
:1046A0001646044640F227120949003018BF01207F
:1046B000084B98470025A5616761E66125621023D4
:1046C00023720121A4F12000034B98472846F8BD2E
:1046D00078C0000045560000E972000070B50D4634
:1046E0001646044640F205120C49003018BF01205E
:1046F0000B4B9847A56100256561E6612562102393
:104700002372203C01212046064B984740F2FF11BE
:104710002046054B9847284670BD00BF78C0000072
:10472000455600001D7300009973000070B50446E3
:104730000E46051F0021094B984700212046084BD3
:10474000984700212046074B9847002384F82830DB
:10475000236B13B131462846984770BDE9720000BB
:104760001D7300005D730000026CC36B9A4200D29F
:10477000704710B504460021044B9847002384F885
:104780002830E36A0BB1201F984710BD5D7300000D
:1047900010B504460379012B426B036C03F1010150
:1047A000016494BFD15C32F81310084B9847226C17
:1047B000E36B9A4200D010BD00212046044B98477D
:1047C00001212046034B9847F5E700BF997300008D
:1047D000E97200005D73000070B50446856B05B397
:1047E0000379012B16D9066C731C0364184B984788
:1047F00025F81600236CE26B93421DD2626BB2B1B6
:104800002179012994BFD15C32F813102046114B55
:10481000984770BD066C731C03640D4B9847A855F0
:10482000E8E70B4B9847236C01332364E2E7E18808
:104830002046084B984770BD00212046064B9847FC
:10484000002384F82830E36A0BB1201F984770BD1D
:10485000C9730000997300001D73000070B50D4608
:10486000064630B3081C18BF0120A5221249134B7D
:104870009847344644F8045F29462046104B984731
:10488000002815DB0F4A002120460F4DA8470F4A8C
:1048900001212046A8470E4A02212046A8470D4A7A
:1048A00003212046A8470C4BB3620C4B73620020D7
:1048B00070BD0020D9E700BF78C000004556000059
:1048C000E171000091470000F5730000D947000036
:1048D000694700002D470000DD4600009D460000AE
:1048E00010B50446C1220549003018BF0120044B11
:1048F0009847201D034B984710BD00BF78C00000AB
:10490000455600004972000038B50D460446CF22D6
:104910000949003018BF0120084B984794F82C3003
:1049200013F0100F04D12946201D054B984738BDC0
:104930006FF0030038BD00BF78C00000455600008E
:10494000AD72000038B50D460446D9220949003041
:1049500018BF0120084B984794F82C3013F0100F23
:1049600004D12946201D054B984738BD6FF0030040
:1049700038BD00BF78C000004556000079720000C5
:10498000F8B50D4617461E4604464FF49C72124970
:10499000003018BF0120114B9847E763A5632664D8
:1049A00000236364102384F82C30261D0121304637
:1049B0000B4B98475DB1237A012B636C94BFE95C84
:1049C00035F813103046074B98470020F8BD618931
:1049D0003046044B9847F8E778C000004556000081
:1049E0001D7300009973000070B50C46164605460D
:1049F00058B101298CBF0020012040F26312084900
:104A0000084B98471CB92E6370BD0020F5E76E6314
:104A1000321C18BF01220321281D034B984770BD8B
:104A200078C00000455600002974000038B50D46D6
:104A3000044658B1081C18BF012040F26F12044907
:104A4000044B984724342C60002038BD0020F4E744
:104A500078C000004556000070B50D461646044665
:104A600098220749003018BF0120064B984733466B
:104A700000222946A4F11C00034CA04770BD00BFD2
:104A800098C00000455600007D76000070B50D46C8
:104A90001646044681220749003018BF0120064B04
:104AA000984733462A460021A4F11C00034CA04736
:104AB00070BD00BF98C00000455600007D76000024
:104AC00038B50C460546A0B1081C18BF01203B2292
:104AD00009490A4B9847284640F8044F2146084B9D
:104AE0009847034618B9074A6A62074A2A62184675
:104AF00038BD0020EBE700BF98C00000455600001D
:104B0000617400008D4A0000594A000010B5044647
:104B100051220549003018BF0120044B9847201D41
:104B2000034B984710BD00BF98C0000045560000D9
:104B3000DD75000070B50D4616460446A8220649EC
:104B4000003018BF0120054B984732462946201DEA
:104B5000034B984770BD00BF98C000004556000049
:104B60000D76000038B50D46044650B1081C18BF3C
:104B70000120AE220449054B984720342C600020C8
:104B800038BD0020F5E700BF98C000004556000082
:104B9000F8B5844607682FB18D683C460026C2F1FF
:104BA000010E0BE00E4B9847F8BD7344A068034418
:104BB000AB420AD22368264653B11C46636893422F
:104BC000F3D8A06803449B1AF2E7A74204D0344606
:104BD0002046044B9847F8BD6046014B9847F8BD06
:104BE0006D560000995600002DE9F04744690769A9
:104BF00001370761037E13F0010F13D1037E13F019
:104C0000020F0FD154B36368FB1AA268934207D313
:104C1000064600F11408DFF84890DFF848A012E0DB
:104C2000BDE8F087037E43F002030376BDE8F0871A
:104C30007569E3682046984785B12C466B68FB1A76
:104C4000AA6893420AD34046C847237C012BEFD180
:104C500067603A4621464046D047E9E7BDE8F0871D
:104C6000E1560000914B000070B50E461546044613
:104C700090B199B1101C18BF01203B220849094B83
:104C80009847204640F8045B2B683146984700203F
:104C90006061054B636070BD0020EEE70020ECE72B
:104CA000B4C0000045560000E94B000038B504468A
:104CB00098B10068003018BF0120542209490A4BFE
:104CC0009847251D23689B692846984738B923686B
:104CD0009B6828469847002038BD0020EDE76FF01C
:104CE000100038BDB4C000004556000070B582B059
:104CF0000D46044628B331B30068003018BF0120C8
:104D00007B222049204B9847237F43F001032377E0
:104D100004F11806294630461C4B9847A8B9636928
:104D20006B60626929463046194B9847237F03F030
:104D3000FE032377237F13F0020F12D1002002B06D
:104D400070BD0020DCE70020DAE7237F03F0FE03DC
:104D5000237780220B4900200B4B98476FF01100FE
:104D6000EDE701A80B4B9847237F03F0FD03237762
:104D70002368DB69201D984701A8074B984700204E
:104D8000DDE700BFB4C00000455600004B560000F0
:104D9000914B0000554300006343000008B5002319
:104DA0008362C3691BB1A0F108021046984708BD91
:104DB00008B500238362436A1BB1A0F108021046C4
:104DC000984708BD38B50446A0F108052C30034BC0
:104DD0009847236A0BB12846984738BD8157000091
:104DE00070B50E4615460446E0B1E9B1101C18BF77
:104DF000012040F23B120F490F4B9847B4F8442072
:104E0000B4F84C309A4211D1A664A4F84C50002357
:104E1000A4F844300123236304F10800074B9847AA
:104E2000284670BD0020E4E70020E2E76FF01B0099
:104E300070BD00BFCCC0000045560000D76B00001D
:104E400010B50446838FB0F844209A4209D0026C12
:104E5000591C8187D15C044B98472046034B9847E7
:104E600010BD034B984710BDD16B0000D76B0000FD
:104E7000DF6B00002DE9F04782B00F4690460646F2
:104E8000A0B199B1002A2DD14FF4AC72294900206C
:104E9000294B984701A8294B984706F13400284B25
:104EA000984701A8274B984700253EE04FF4AC7285
:104EB00020490020204B984701A8204B984706F135
:104EC000340A50461E4B9847814601A81D4B98470F
:104ED000B9F1000F04D0B8F1000F19D1002524E07A
:104EE000002522E04FF4AC7212490120124B984782
:104EF00001A8124B984706F1340A5046104B9847C8
:104F0000814601A80F4B98470025B9F1000F0CD03E
:104F100000240D4E601C85B239195046B04701344B
:104F20004C4502D2A3B29845F4D8284602B0BDE859
:104F3000F08700BFCCC0000045560000554300007C
:104F4000C1570000634300003D570000F8B50D460F
:104F500016461F46044620B329B332B3181C18BFA7
:104F600001203A221349144B98473A46314604F13E
:104F70003400124B9847D0B9294604F10800104B71
:104F80009847034658B90F4A62600F4A22600F4A99
:104F9000A2600F4AE2600F4A22610F4A626118461E
:104FA000F8BD0020DDE70020DBE70020D9E76FF047
:104FB0000C03F4E7CCC0000045560000ED5600009D
:104FC000416B0000754E0000E14D0000414E0000B5
:104FD000C54D00009D4D0000B14D000010B50446C8
:104FE00061220649003018BF0120054B984704F1A3
:104FF0000800044B9847002010BD00BFCCC0000043
:1050000045560000BD6B000038B50C46054648B15A
:10501000081C18BF012077220349044B98472560DC
:10502000002038BD0020F6E7CCC000004556000047
:1050300070B50C461646054683221749003018BF46
:105040000120164B9847012C10D024B1022C18D007
:105050006FF00C0070BDAE62321C18BF012201213E
:1050600005F108000E4B9847002070BD6E62321C9F
:1050700018BF0122022105F10800094B98470020C2
:1050800070BDEE62321C18BF0122032105F1080039
:10509000034B9847002070BDCCC00000455600006F
:1050A000E96B00000F4B5978884218D030B41A468B
:1050B000002300F00F0507E001335BB20D2B09D090
:1050C00020325178814207D01478002CF4D18D42DF
:1050D000F2D101E04FF0FF33184630BC7047002397
:1050E000184670475C0600200020704738B504461B
:1050F0000D46094B9847094B03EB40139B78032B54
:1051000001D0002038BD054B03EB401083692946D0
:105110002046984738BD00BFA55000005C0600201F
:10512000F0B585B006460D4617464D4B98470446E8
:10513000002D5BD14B4A4301D1180020C870D35CCD
:1051400073B1484B03EB441301229A70454800EBBE
:105150004410C3693A46C1783046984705B0F0BD5F
:105160008B78032B0BD03F4800EB44121446D369D5
:105170000C320021607898470223A370EEE70B46BB
:1051800091F90C500A46CE690C3201215878B0478B
:10519000A0B1344B03EB441305229A700222DA705B
:1051A000002D09DB2F4800EB4410407840F08000D0
:1051B00001212D4B9847D1E75878F9E7294800EBB2
:1051C0004410042383704378002201920292954296
:1051D000ACBF43F0800303F00F038DF80C300123C4
:1051E0008DF80D3001A8214B9847B7E7012D0AD063
:1051F000022D1CD0032D2AD01A4B03EB401306229C
:105200009A70DA70A2E7174A4301D1180220C870D9
:10521000D35C2BB1134B03EB441305229A7095E733
:105220000B469870002130460F4B98478EE70D4A89
:105230004301D1180420C870D35C2BB1094B03EB98
:10524000441301229A7081E702238B7086E7054B95
:1052500003EB401300229A700522DA7076E700BF54
:10526000A55000005C060020698B0000118D000035
:105270002DE9F04105461C4B984706461B4C04EBB4
:1052800040140C3421462846194B9847C0B20828D0
:1052900009D001212846174CA047012145F0800084
:1052A000A047BDE8F08100212846124FB84745F0DD
:1052B000800800214046B8470C4B03EB46130122FF
:1052C0009A705B6921462846984708B1BDE8F0818D
:1052D000064B03EB46160523B37001212846B84759
:1052E00001214046B847F1E7A55000005C060020C8
:1052F000B18C0000698B000010B5114B9847002855
:105300001DDB104C4FF4D072002120460E4B984705
:10531000234604F5D070FF210C4A59705A619A61F6
:10532000DA6120338342F8D109490020094CA047B3
:1053300009490120A04709490220A047002010BDCB
:10534000418500005C0600209FB50000E950000088
:1053500071520000198F0000ED5000002151000033
:1053600008B5014B984708BDF18E000008B5014B08
:10537000984708BD4986000008B5014B984708BD0D
:10538000B586000008B5014B984708BDC7860000E8
:10539000F8B506460C4617460F4B9847002814DA16
:1053A000FF200D4B9847051E12DB3A46214630463A
:1053B0000A4B984700280DDB094B68011A185670F4
:1053C00004F003041C540020F8BD6FF01300F8BD76
:1053D0006FF01400F8BD00BFA5500000D586000096
:1053E0005C06002008B5024600210846014B98479C
:1053F00008BD00BF9153000038B50546064B9847DD
:10540000041E07DB2846054B9847054800EB44106F
:10541000FF23437038BD00BFA5500000ED8700009A
:105420005C06002038B505460E4B9847041E16DB77
:1054300063010D4AD35C002B0CBF022201220A4BF0
:1054400003EB44139A702846084B9847002800DB6A
:1054500038BD054B03EB44140023A37038BD6FF037
:105460001100F5E7A55000005C060020B18800009F
:105470002DE9F04786B00446077A38463F4B9847F7
:10548000657AD4F80480061E72DB04A83C4B98476A
:105490003C4B03EB46139B788DF817309DF8173083
:1054A000DBB2012B11D004A8374B98479DF8173079
:1054B000DBB2052B5FD0062B23D0002B0CBF6FF087
:1054C0001200012006B0BDE8F087DFF8B8A04FEA6F
:1054D00046190AEB090303229A7004A82A4B98473D
:1054E0001AF8093083B1227A003518BF01252368E4
:1054F0000193CDF8088017F0800F19D102F00F0347
:1055000018E06FF00F00DDE71E4B03EB4613DA7C6B
:105510009D7C05EB0225ADB2A5B91A4B03EB4616EF
:105520000423B37000230125227A2168019102939C
:1055300042F080038DF80C308DF80D5001A8134B0C
:105540009847BFE74346A84528BF2B460D4A02EBC4
:10555000461696F90C20002A05DB227A2168019173
:1055600002930025CAE79D4294BF00250125DBE791
:105570006FF01100A6E70220A4E700BFA5500000CD
:10558000554300005C06002063430000118D0000BD
:1055900038B5044641B101290CBF01210221134B4A
:1055A00098470346184638BD114B9847051E19DB2E
:1055B000022120460D4B984703460028F2D00021D7
:1055C00020460A4B9847031EECDB0A4B03EB4513BE
:1055D00001229A700321D970DB6900222046984786
:1055E0000023DFE76FF01103DCE700BF698B0000E9
:1055F000A55000005C06002038B50D4614460E4B41
:1056000098470E4B002C08BF1C46002813DB012DC9
:1056100008D015B1022D0AD038BD094B03EB40105C
:10562000446138BD064B03EB4010846138BD044B28
:1056300003EB4010C46138BDA5500000E9500000E4
:105640005C06002000B900BE704703684BB18B4276
:1056500009D01B681BB19942FBD101207047002083
:1056600070470020704701207047000038B504469D
:105670000D46064B984780F0010039220449C0B21C
:10568000044B984723682B60256038BD4B560000BB
:10569000ECC000004556000003680B6001607047D5
:1056A00070B505460E4604680A4B984780F0010025
:1056B0004F220949C0B2094B98472B681BB92E608D
:1056C000336070BD1C462368002BFBD1266033601D
:1056D00070BD00BF4B560000ECC0000045560000F6
:1056E00003680BB11A6802601846704770B50E4621
:1056F0001546044678B181B1A2B1012028220D4996
:105700000D4B98476B1E1D4209D163600020A060BD
:10571000E060266070BD0020F0E70020EEE76FF04B
:105720000C0070BD282203490020034B98476B1ED4
:10573000EBE700BF0CC100004556000038B50D4630
:105740000446A0B1081C18BF012040220A490B4B97
:105750009847A368E2689A420BD0626813402268B7
:10576000D35C2B70A3680133A360002038BD0020F8
:10577000EBE76FF0090038BD0CC100004556000092
:1057800038B50D46044651220B49003018BF0120A0
:105790000A4B9847E368626813402268D554E3686F
:1057A0006168A2689A1A8A4284BF591AA1600133BB
:1057B000E360002038BD00BF0CC10000455600006A
:1057C00010B5044667220549003018BF0120044B7C
:1057D0009847E068A368C01A10BD00BF0CC1000064
:1057E000455600000346064A126822B1044A106872
:1057F0000344136070470349014A1160F6E700BF94
:10580000FC070020103D0120406900F13D40A0F55B
:10581000E050800A4000763000F0FE007047000043
:10582000036B13F0010F1BD1036B13F0030FFBD1BC
:10583000038813F0020F0DD0038823F002031B042A
:105840001B0C0380036B13F0030FFBD1036B13F0EE
:10585000020FFBD101230380036B13F0030FFBD175
:10586000036B13F0010FFBD11623374A03FB01230F
:105870009B88C380036BC3F30B03002BFAD1162361
:10588000314A03FB01239B790372036BC3F30B03C0
:10589000002BFAD116232C4A03FB0123DA798270FC
:1058A0001B898380036BC3F30B03002BFAD11623F0
:1058B000254A03FB01239B7A8372036BC3F30B031B
:1058C000002BFAD11623204A03FB0123DB7AC37293
:1058D000036BC3F30B03002BFAD116231A4A03FB05
:1058E00001239B898381036B13F0800FFBD1162367
:1058F000154A03FB0123DB89C381036B13F4807F0B
:10590000FBD11623104A03FB01231B8A0382036B7E
:1059100013F4007FFBD116230B4A03FB01235B8AA0
:105920004382036B13F4806FFBD11622064B02FBFC
:1059300001310B7DC3704B880380036B13F0030FA1
:10594000FBD10020704700BF30C1000008B542699C
:1059500092F82E1092F82D300B4013F0010F06D163
:1059600013F0020F0DD113F0040F11D108BD012364
:1059700082F82E30B2F84020836892B20021984716
:1059800008BD022382F82E3043680021984708BDE5
:10599000042382F82E30036800219847E6E70000D0
:1059A00000F13D40A0F5E050C0F3872048B1012848
:1059B00009D008B58C2205490020054B98470020E6
:1059C00008BD002070470120704700BF5CC1000087
:1059D000455600002DE9F0410C460546E6223B49BC
:1059E000003018BF01203A4B98472046394B984762
:1059F00001462046384B9847064610B13046BDE870
:105A0000F0816C61354B9C425CD0354B9C4204BFAD
:105A1000344B5D602846344FB847430900F01F00FF
:105A2000012404FA00F0DFF8C480203348F8230092
:105A3000BFF34F8FBFF36F8F2846B847430900F07D
:105A40001F0004FA00F0603348F823002846B847E6
:105A5000430900F01F00844048F823402846B84717
:105A6000013080B203B2002BC8DB5B0900F01F00DD
:105A7000012202FA00F0203348F82300BFF34F8FD1
:105A8000BFF36F8F2846B847013080B203B2002BB6
:105A9000B4DB5B0900F01F00012202FA00F0603362
:105AA00048F823002846B847013080B203B2002BE3
:105AB000A4DB5B0900F01F00012202FA00F048F8A5
:105AC00023009BE7074B1D60A4E700BF5CC10000FB
:105AD00045560000A159000021580000001C004359
