S0150000677269645F746F706C6576656C2E737265639F
S1134000580F0120DD420000D9420000D9420000CF
S1134010D9420000D9420000D9420000000000004B
S1134020000000000000000000000000D942000071
S1134030D942000000000000D9420000D94200002B
S1134040D9420000D9420000D9420000D942000000
S1134050D9420000D9420000D9420000D9420000F0
S1134060D9420000D9420000D9420000D9420000E0
S1134070D9420000D9420000D9420000D9420000D0
S1134080D9420000D9420000D9420000D9420000C0
S1134090D9420000D9420000D9420000D9420000B0
S11340A0D9420000D9420000D9420000D9420000A0
S11340B0D9420000D9420000D9420000D952000080
S11340C0E1520000E9520000F1520000F9520000F0
S11340D0D9420000D9420000D9420000D942000070
S11340E0D9420000D9420000000000000000000096
S11340F0000000004D540000D9420000D9420000E5
S1134100D9420000D9420000D9420000D94200003F
S1134110D9420000D9420000595B0000515B000005
S1134120495B0000DD5A0000D9420000D94200007A
S1134130D9420000D9420000D9420000D94200000F
S1134140D9420000D9420000D55B0000CD5B0000DD
S1134150C55B0000615B0000D9420000D942000049
S1134160D9420000D9420000D9420000D9420000DF
S1134170D9420000D9420000000000000000000005
S1134180D9420000D9420000D9420000D9420000BF
S113419000000000D9420000D9420000D9420000CA
S11341A0D9420000D9420000D9420000D94200009F
S11341B0D9420000D9420000D9420000D94200008F
S11341C0D9420000D9420000D9420000D94200007F
S11341D0D9420000D9420000D9420000D94200006F
S11341E0D9420000D9420000D9420000D94200005F
S11341F0D9420000D9420000D9420000D94200004F
S1134200D9420000D9420000D9420000D94200003E
S1134210D9420000D942000045500000355000004A
S11342205D5000004D500000D9420000D94200000A
S1134230D9420000D9420000D9420000D94200000E
S1134240D9420000D9420000D9420000D9420000FE
S1134250D9420000D9420000D9420000D9420000EE
S1134260D942000010B5054C237833B9044B13B17F
S11342700448AFF300800123237010BD70030020B5
S113428000000000286F00000C4B43B10C480D499E
S113429010B5AFF300800C48036823B910BD0A4879
S11342A0036833B97047094B002BF7D0BDE81040C1
S11342B01847064B002BF5D0184700BF000000003C
S11342C0286F000074030020286F00000000000025
S11342D0004B1847E1460000FEE7000008B5144A09
S11342E0144B9A4218D1144B144A002193421CD304
S11342F0134A144B22F07F029A60D3F8882042F4C8
S11343007002C3F88820BFF34F8FBFF36F8F0E4B3B
S113431098470E4B9847FEE70D49043A8B42E2D288
S113432052F8040F43F8040BF8E743F8041BDDE7E5
S1134330286F00000000002070030020540F0020AC
S11343400040000000ED00E0AD630000E961000002
S11343506803002030B54A1CC4B2C0F347121648A3
S113436004F01F0300EBC21007D1184490F840304A
S113437003F0FE0380F8403030BDC5185B0895F8A3
S1134380402002F0FE02184442F0010285F8402069
S113439090F8303014F0010F19BF03F00F0343EA13
S11343A0011101F00F0103F0F00314BFC9B2194366
S11343B080F8301030BD00BF00800041F0B5174ACE
S11343C0174E136A174D1849184F43F080031362B0
S11343D0174B85B04022C3F82021164B01930024CB
S11343E0012302940093324623462846B847721CA0
S11343F0214610232846104CA047104B1049802218
S11344005A6002F180429A624FF040429A620D4B28
S1134410072005B0BDE8F040184700BF0008004081
S11344208C030020280A0020001C0043514800008F
S1134430001C0040800A00209D48000000800041CC
S11344400100070055430000F0B5194A194E136ADC
S1134450194D1A491A4F43F480731362194B85B0EE
S11344604022C3F82421184B019300240123029411
S1134470009306F1110223462846B84706F11202BA
S1134480214610232846114CA047114B1149042200
S1134490C3F8042102F18042C3F828214FF04042BE
S11344A0C3F828210C4B422005B0BDE8F040184762
S11344B0000800408C030020980A002000200043DC
S11344C051480000001C0040800900209D48000065
S11344D0008000410100420055430000064B402289
S11344E0C3F8DC204322C3F88C20044A936943F4C4
S11344F000739361704700BF001C00400008004037
S113450010B5054C05493920A047234604493820F5
S1134510BDE81040184700BF5543000003003900B0
S11345200300380013B5074B074C9847002300934A
S1134530064A074907481023A047074B02B0BDE8C5
S113454010401847DD440000714C0000AE03002009
S113455000200141D80900200145000070B50B4C32
S11345600B4D94F857300B4903F0FB0384F8573094
S11345701720A84794F85630074903F0FB0384F842
S1134580563016202B46BDE8704018470080004185
S1134590554300000300170003001600064B402299
S11345A0C3F80C214322C3F88C20044A136A43F055
S11345B002031362704700BF001C00400008004063
S11345C010B5054B9847054B054906489847064BD7
S11345D0BDE81040184700BF9D450000AD4A0000EB
S11345E000040043980900205D45000070B51C4C90
S11345F01C4D1D494FF40013C4F894304FF080460D
S1134600C4F88830194BC4F8A8603520C4F8A83021
S1134610A8474FF48013C4F89430C4F88830144B7E
S1134620C4F8A8601349C4F8A8303420A8474FF44C
S11346308023C4F88430104BC4F8A83003F100433D
S11346400433C4F8A83094F8D2300C4903F0FB03C7
S113465084F8D23032202B46BDE87040184700BFA2
S1134660008000415543000003003500200000C0D5
S1134670100000C0030034000000024003003200B8
S1134680064B4022C3F814214322C3F88C20044A69
S1134690136A43F008031362704700BF001C004014
S11346A00008004010B5054B9847054B05490648DE
S11346B09847064BBDE81040184700BF81460000EC
S11346C0314B0000000C0043540A0020ED4500006B
S11346D00148024B184700BF10E000E0F549000014
S11346E010B5334B9847334B20225A614FF0404169
S11346F09A6002F180429A62996293F8452002F02E
S1134700FE0283F845204FF48042C3F81421C3F815
S113471008214FF04022C3F82821C3F8281193F848
S11347204E2102F0FE0283F84E214FF40022C3F81A
S113473014210831C3F808214FF08042C3F828211E
S1134740C3F8281193F8531101F0FE0183F85311B3
S11347504FF48011C3F81411C3F808111649C3F8B3
S11347602821C3F8281193F8541101F0FE0183F8AD
S113477054114FF40011C3F81411C3F80811C3F80D
S113478028210E4AC3F8282193F8552102F0FE028D
S113479083F855210A4B98470A4B98470A4B984788
S11347A00A4B98470A4B98470A4BBDE810401847F4
S11347B06D50000000800041100000C0200000C0C7
S11347C0BD4300004944000025450000C1450000E8
S11347D0A5460000D1460000836903B1184770471D
S11347E0C36903B1184770472DE9F14F036AD0F844
S11347F028805C5CDFF8549004EB4404E40008EB8C
S1134800040505F1040A06460F465046D1B2934604
S1134810C84730460C4B9847012806D94FEA1B215C
S11348205046C847AB8A0133AB82AB8A0133AB82B3
S113483058F804302BB13946304601B0BDE8F04F8A
S1134840184701B0BDE8F08FE94F0000214D00008A
S113485070B50446FF260020C5B201305655C5B2D6
S1134860AB42F9D284F824309DF8103084F8253016
S1134870059BA36222622046044B984728B9044B47
S1134880A360044B2360044B636070BD294F000098
S1134890E9470000D9470000E1470000F8B50F469A
S11348A0D0F820E011461EF80720FF2A05461AD149
S11348B090F8242000200446C6B2964216D995F8F2
S11348C02520A2421AD304EB4406A86AF600304419
S11348D01A4604300B4B984728B92B6ADC55AB6A4F
S11348E01E44B082F8BD6FF00C00F8BD1EF80660DF
S11348F0FF2E1CBF0134E4B20130DDE76FF01B0072
S1134900F8BD00BFE74C000008B5024B98470020F3
S113491008BD00BFDD4F0000012A38B513D004D311
S1134920022A12D06FF00C0038BD046A856A645CF8
S113493004EB440445F83430003318BF0123044C1D
S1134940A047002038BD8361F6E7C361F4E700BFE8
S1134950155000002DE9F34704461F46154BDFF8B8
S113496064A00D4690469847236A5D5DA36A05EBF3
S1134970450503EBC50501A80F4B2E1D98470F4BAA
S1134980304698470E4B814601A898470024A1451C
S1134990A2B201D0BC4206D1AB8AA0B29B1AAB82B0
S11349A002B0BDE8F08708EB04013046D04701347B
S11349B0EDE700BFE94F0000D9490000474D000072
S11349C0E7490000FF4C000008B5024B984700205F
S11349D008BD00BFFD4F0000EFF31083036072B603
S11349E0BFF35F8F7047BFF35F8F036883F3108853
S11349F070470000014B1860014B1847C0030020AA
S1134A00E95D0000054B10B51C68054B9847054B44
S1134A1001462046BDE81040184700BFC0030020EF
S1134A2065500000FD5D00001FB5838AADF80430B9
S1134A304FF40043ADF806300391054B029201A9EF
S1134A40283814469847002808BF204604B010BDF3
S1134A50015A00001FB5838AADF8043048F20103FF
S1134A60ADF806300391054B029201A9283814468B
S1134A709847002808BF204604B010BD015A000022
S1134A804288D20502D4436B03B118477047428869
S1134A90D20502D4836B03B1184770474288D2050C
S1134AA002D4036B03B118477047000070B50C4B78
S1134AB004469847054680B90A4BE3620A4BA36251
S1134AC00A4A0B4E01212046B0470A4A02212046D9
S1134AD0B047094A29462046B047284670BD00BF62
S1134AE09D590000554A0000294A0000814A0000EF
S1134AF0C15A00008F4A00009D4A0000036818470D
S1134B0010B4044C1346A44600221C385DF8044B30
S1134B10604700BFFD5C000010B4044C1346A4467B
S1134B200A461C3800215DF8044B6047FD5C000018
S1134B3010B5054B044640F8041F984718B9034BB9
S1134B406362034B236210BDDD5B0000194B000060
S1134B50014B00000430014B184700BF915C00007A
S1134B600430014B184700BF9D5C000020300860F2
S1134B7000207047034600229A62DB69083803B1BB
S1134B8018477047034600229A625B6A083803B1EB
S1134B901847704770B50446054BA0F108052C3042
S1134BA09847236A1BB12846BDE87040184770BD7A
S1134BB0214D000010B5B0F84C301446B0F8442034
S1134BC09A420CD10023A0F8443001238164A0F858
S1134BD04C4003630830034B9847204610BD6FF0E8
S1134BE01B0010BD8B590000838FB0F844209A42FB
S1134BF010B504460AD0026C591C8187D15C044B61
S1134C009847044B2046BDE810401847024BFAE78A
S1134C10855900008B590000935900002DE9F74392
S1134C2005460F4BDFF8449001A8343588461646F4
S1134C3098470C4B284698470B4B074601A89847C2
S1134C400024A74201D0B44203D1A0B203B0BDE80E
S1134C50F08308EB04012846C8470134F1E700BF9C
S1134C60D9490000474D0000E7490000FF4C00000F
S1134C7038B504460D46343011461A460C4B984755
S1134C8090B9294604F108000A4B984770B90A4BB9
S1134C9063600A4B23600A4BA3600A4BE3600A4B30
S1134CA023610A4B636138BD6FF00C0038BD00BF4F
S1134CB0E74C00000D5900001D4C0000B54B0000EE
S1134CC0E94B0000954B0000754B0000854B00003C
S1134CD008B50830014B9847002008BD7159000001
S1134CE0086000207047531E1A4001BF4360826071
S1134CF0C26001600CBF10466FF00C0070478368FF
S1134D00C2689A4209D0426813400268D35C0B70AF
S1134D10836801338360002070476FF00900704797
S1134D20C368426813400268D154C368816842680A
S1134D30591A914288BF9A1A03F1010388BF82600D
S1134D40C36000207047C2688068101A7047000072
S1134D50044B1968024609B90349196018680244EA
S1134D601A607047C4030020580F012000280DDB8F
S1134D704309012200F01F0002FA00F02033044A24
S1134D8042F82300BFF34F8FBFF36F8F704700BF0C
S1134D9000E100E0002809DB4309012200F01F00C4
S1134DA002FA00F06033024A42F82300704700BF61
S1134DB000E100E0036B0B42FCD1704703889BB217
S1134DC043F0020303800321004B1847B54D000054
S1134DD0038823F002031B041B0C03800321014BF3
S1134DE0184700BFB54D000000F13D40A0F5E0506C
S1134DF0C0F38720431E58425841704730B442697B
S1134E0092F82E1092F82D300B4013F0010509D0C2
S1134E10012382F82E30B2F84020836892B2002138
S1134E2030BC184713F0020106D0022382F82E305A
S1134E304368294630BC18475B0704D5042382F82D
S1134E402E300368F6E730BC704700F13D40A0F512
S1134E50E050800A4000763000F0FE007047000009
S1134E6038B5036B2D4C13F0010F02460D460DD1DE
S1134E700321A04703889B0703D5294B98470221A8
S1134E80A0470123138003211046A04710460121A7
S1134E90A047244B162101FB05351046AB88D3806F
S1134EA040F6FF71A047AB791372104640F6FF71CC
S1134EB0A047EB7993702B899380104640F6FF71DD
S1134EC0A047AB7A9372104640F6FF71A047EB7A85
S1134ED0D372104640F6FF71A047AB899381104608
S1134EE08021A047EB89D38110464FF48071A047FD
S1134EF02B8A138210464FF40071A0476B8A5382A9
S1134F0010464FF48061A0472B7DD3706B881380CB
S1134F1010460321A047002038BD00BFB54D000056
S1134F20D14D0000E86C00002DE9F843224B044603
S1134F3008460D469847214B0146284698470646A1
S1134F40002830D11E4B65619D422FD11D4B1C6042
S1134F501D49DFF88090DFF880801C4F2846884781
S1134F6000B2C8476069884700B2C0476069884793
S1134F700125420900F01F0305FA03F3284447F80A
S1134F80223000B2C84760698847284400B2C0474D
S1134F9060698847284480B2430900F01F0005FA7D
S1134FA000F047F823003046BDE8F883084B9D42E3
S1134FB004BF044B5C60CBE7E94D0000614E000088
S1134FC0001C0043C80300204B4E000000E100E039
S1134FD0002000436D4D0000954D00004069014BD9
S1134FE0184700BFBD4D00004369DB88C3F3C1030C
S1134FF0032B0CBF01200220704700004069037D91
S113500043F00203037540F6FF71014B184700BFDC
S1135010B54D0000012A416904D104223BB981F84D
S11350202C207047022AF9D01AB90122F6E781F838
S11350302D207047014B1868014B1847C803002006
S1135040FD4D0000004B184735500000014B5868D7
S1135050014B1847C8030020FD4D0000004B1847C2
S11350604D5000004BF680335843704710B50D4A3D
S11350700D4C13889BB213800C4B98470C4B9847EC
S11350800C4B98470820A0470B4B984740F6F77005
S1135090A0470A4A136943F400731361BDE8104042
S11350A0074B184700400041015300005D530000C6
S11350B07153000051530000895300000008004060
S11350C01551000010B4114B114C198C01F01F0143
S11350D003EB01130C224A4393F84E10C90704EB67
S11350E0020006D5012283F84E2043685DF8044B84
S11350F0184793F84E10890704D5022183F84E10FF
S1135100A358F3E75DF8044B704700BF00A00041CB
S1135110D003002070B52E4B1A8822F0020212042C
S1135120120C1A805A8822F47C521204120C5A80EF
S11351301A8892B242F001021A801A8812F001020F
S1135140FBD14FF470611980597B224801F0FE01B4
S1135150597321495A615863996313461F4902469A
S11351601D461C0104F1824000F520400E680664CF
S11351700E7980F845604E7980F846600133101945
S1135180CE881653202BC56001F10801E9D11F22F6
S1135190012053099B0003F1604302F01F0103F552
S11351A0614300FA01F1C3F88010BFF34F8FBFF3DE
S11351B06F8F0132242AC3F880111960E9D1044A9F
S11351C013889BB243F002031380002070BD00BF1C
S11351D000A00041D00A0020D00C0020146D000073
S11351E039B9084B0001022118443AB980F84C102F
S11351F07047012904D1034B0001F5E780F84D10F5
S1135200704700BF00A00041024B03EB0010816017
S113521000207047D00A0020024B03EB00104160CD
S113522000207047D00A0020054A0001135A9BB29F
S113523023F4806343EA812189B21152002070472C
S1135240D00A002070B50F4B00011D18AE681A5A21
S11352501C5AC2F30122240542BF01FA02F4A41924
S1135260AC601C1865681E5A760548BF01FA02F244
S1135270034448BF521989B248BF62605980002074
S113528070BD00BFD00A002010B502010B4CA35A18
S11352909BB243F00103A35202F1824303F520437E
S11352A01A6C42F002021A6431B1054A01231169F1
S11352B003FA00F008431061002010BDD00A00205A
S11352C000A00041034B01EB410103EB81010160AC
S11352D000207047D0030020004B1847C550000041
S11352E0004B1847C5500000004B1847C55000003C
S11352F0004B1847C5500000004B1847C55000002C
S1135300C10714D4420707D50D4B0E4A9A6243F6DF
S1135310FD7259681142FCD1030707D5084B0A4AAC
S1135320DA6243F6FD7259681142FCD17047044BAE
S1135330064A1A6243F6FD7259681142FCD1E1E74C
S1135340001C0040011901000409010006010100CC
S1135350014B01225A71704700080040034BDA697F
S113536002F47C52DA6101221A747047001400407E
S1135370034B044A9A611A699207FCD5704700BF2F
S113538000100040062600032D4B1A6A22F00F027B
S113539042F004021A6243F6FD7259681142FCD1CC
S11353A05A6812F00402FBD1264B1A77264A9A62F5
S11353B093F82C2012F01002FAD183F82020214A0D
S11353C0134692F82C104907FBD40221117793F865
S11353D02C209007FBD45A6A5A621A4B1A4693F847
S11353E02C100907FBD4802183F8201092F82C306C
S11353F05807FBD492F82030124A13F0010F1AD048
S1135400136903F41063B3F5106FF9D10C4A114614
S11354105368002BFCD1136A23F00F0343F00603F7
S1135420136243F6FD734A681A42FCD1044A536876
S11354305B07FCD470471369D905FCD5E6E700BFC8
S1135440001C0040001000400000010407B50C4A95
S11354509378DBB20193019B990707D5094B1B682D
S113546023B15068984703B05DF804FB019BDB0748
S1135470F9D5044B5B68002BF5D0014AF1E700BF76
S113548000000241D00E0020002808DB420901235D
S113549000F01F0003FA00F0014B43F822007047AC
S11354A000E100E000280DDB4309012200F01F00A9
S11354B002FA00F02033044A42F82300BFF34F8F6E
S11354C0BFF36F8F704700BF00E100E0002809DBE5
S11354D04309012200F01F0002FA00F06033024A7F
S11354E042F82300704700BF00E100E0C3690B42AB
S11354F0FCD17047C3690B42FCD17047C3690B42AE
S1135500FCD17047036823F0020303600321014BBD
S1135510184700BFED540000036823F00203036042
S11355200321014B184700BFF5540000036823F022
S1135530020303600321014B184700BFFD54000020
S113554070B50B4D06460FCD88B06C460FC495E878
S11355500F0084E80F0000205DF82030B34202D130
S1135560C0B208B070BD01300828F5D10020F8E7BA
S1135570146E0000054B984202D1054B1960704728
S1135580044B984204BF024B59607047002001410C
S1135590500500200004004308B5034B9847053824
S11355A018BF4FF0FF3008BD4155000008B5034B4C
S11355B0984780002E3000F0FE0008BD41550000E1
S11355C008B5C26912F0010208D1036843F002036E
S11355D003600321034B9847104608BD6FF0030096
S11355E008BD00BFF554000008B5034B98470728D1
S11355F0024818BF002008BD41550000346E000069
S113560008B5034B984707288CBF0020012008BD2C
S11356104155000083689B6803B11847704783684D
S11356205B6803B1184770478368DB6803B11847A8
S113563070470000436843F4403343600421014B46
S1135640184700BFED5400002DE9F0410D46574EB8
S1135650D0F8008004210446B047438B15F0010FB5
S11356609BB2374664D0990717D50121017651883A
S113567089B241F480515180518821F48071090428
S113568013F0010F4FEA1141518014BF6FF004056C
S11356906FF003052846BDE8F08113F0040515D02A
S11356A05368002BC1BF53889BB243F4805353808B
S11356B053881F0401D53E4B9847538823F48073C5
S11356C01B041B0C53806FF00105E3E7538813F4AC
S11356D0806715D013880421DB0903F00607B0475F
S11356E0436A03F4804343F0F1033B4343620421E0
S11356F0B047538823F480631B041B0C5380C9E711
S1135700556845B953881E0401D5294B98475388D9
S113571023F48073F0E793681B7883620421B04715
S11357209368013393605368013B53600025B1E7EC
S113573015F00205AED05168002933D0580731D492
S11357400139C8F3C060516041B958B9636843F482
S11357508023636017212046B84703E0012901D163
S11357600028F3D1536893B953881B0409D563689F
S113577023F48073636020461721B84720460C4BFE
S11357809847538823F480731B041B0C538095683B
S11357906B1C936004212046B847A36A2B70022334
S11357A02376C3E7022323768DE700BFED54000080
S11357B03556000038B50B680C4D23F481730C4644
S11357C023F0010303600321A847636823F43833FB
S11357D023F4107343F4003343601721A847237B59
S11357E00373637B80F8303038BD00BFF55400008C
S11357F02DE9F0410C46264B264E074608469847AD
S1135800E369254A13F0010F5FFA80F817D11823D2
S113581003FB0863032120469D6B904723689B0785
S113582005F01C0505D520461C4B9847022120464F
S1135830904745F001052560032120469047204606
S113584001219047182303FB08662046B56B2560A9
S113585003219047F36B6360204617219047C5F3FB
S11358600165336CE360BD81636A012D23F48043D9
S113587094BF0025012543EA85352046656204214D
S11358809047B6F84630FB810020BDE8F08100BFA8
S113589099550000146E0000ED54000005550000F9
S11358A010B5C369154C13F0010F02460DD1032145
S11358B0A04703689B0703D5114B98470221A047D3
S11358C00523136003211046A04710460121A04779
S11358D00C4B136010460321A0474FF44033536030
S11358E010461F21A047084B936000204FF22B6302
S11358F09381907382F8300010BD00BFFD54000006
S11359002D55000004001040020070002DE9F843FA
S11359100646114B08460C4698470546C8B9B4617B
S1135920314620460D4BDFF844800D4F0D4E98470D
S113593020460D4B98472C46814609EB0401C9B219
S11359400846C0470846B84701340846B047042C07
S1135950F3D12846BDE8F883A1580000755500002E
S1135960CD54000089540000AD550000A55400003A
S11359708069036843F0020303600321004B184766
S1135980FD540000836999627047836901229A7506
S11359907047836902229A75704700002DE9F84325
S11359A00646114B31610C4698470546C0B931464D
S11359B020460E4BDFF844800D4F0E4E984720468C
S11359C00D4B98472C46814609EB0401C9B20846A1
S11359D0C0470846B84701340846B047042CF3D101
S11359E02846BDE8F88300BFF15700007555000054
S11359F0CD54000089540000AD550000A5540000AA
S1135A00F8B504464868002856D06388D80551D4B0
S1135A104B882A4E9BB243F480734B8007C984E8B9
S1135A2007002069436843F4807343601721B0473B
S1135A3062682569012A2B6829D11A0127D56B6868
S1135A4043F480236B6017212846B047228812F460
S1135A5080674FEA42021ED06388DB0741BF638838
S1135A609BB243F48063638004212846B0476B6A89
S1135A7022F00102520503F48043520D43F4004323
S1135A8013436B6228460421B0470020F8BD6B68BD
S1135A9023F48023D6E7042128466488B047A4B2BF
S1135AA06B6AD2B204F00104224303F480431A4324
S1135AB06A62E7E76FF00300F8BD00BFED54000031
S1135AC0012906D003D3022905D000207047426182
S1135AD0FBE78261F9E7C261F7E70000194B10B5F3
S1135AE018688469237EDA0708D5A37DDB0705D50A
S1135AF0012323750368BDE810401847237E9907E6
S1135B0006D5A37D9A0703D5022323758368F2E79C
S1135B10237E5B070CD5638B03F0370313B1FF239C
S1135B20638310BDA16A4368C9B2BDE81040184739
S1135B30237EDB09F5D080232376C3689847638BE3
S1135B409BB2EDE750050020004B1847DD5A0000DA
S1135B50004B1847DD5A0000004B1847DD5A00007F
S1135B60164B70B55C682069057EEDB2290613D426
S1135B7029462246124B9847014670B9EA0705D5D3
S1135B80A3691BB12046BDE870401847AB0702D596
S1135B90E369002BF6D170BD0021638823F4807380
S1135BA01B041B0C63806369002BF4D019B12046DD
S1135BB0BDE8704018476FF00401F8E75005002075
S1135BC049560000004B1847615B0000004B184722
S1135BD0615B0000004B1847615B0000F8B50546A7
S1135BE0224B08460C469847074600283AD0E369FA
S1135BF01F4E13F0010F14D102680321204602F056
S1135C001C02B04723689B0705D52046194B9847CB
S1135C1002212046B04742F00102226003212046BF
S1135C20B04720460121B0472E46394646F8184B66
S1135C302046114B114F9847114B20469847014677
S1135C403046B847AB690F4A0F4C9D601A605C60E0
S1135C5000213046B847AB690C4A9D6083E81400C4
S1135C600020F8BD6FF00C00F8BD00BFE95500003E
S1135C70F554000019550000B5570000C552000046
S1135C800156000015560000295600001F5600005A
S1135C900068014B184700BFC1550000012970B5C9
S1135CA014460DD002D3022913D070BD42600021E6
S1135CB0003218BF012208460E4BBDE87040184759
S1135CC082600D4B00689847221C18BF01220021F6
S1135CD0F2E7C260084B0068064D9847003418BFCD
S1135CE0012422460121A8472246012100202B46F7
S1135CF0E3E700BFE1510000015600002DE9F74F32
S1135D00D0F800B0009205462F4ADFF8D4A0DFF89F
S1135D10D4902E4F584698460C4690472C4A0190F2
S1135D2058469047009BDBF81C200646002B30D0D9
S1135D30520709D4DBF80420264B42F40032CBF896
S1135D400420172158469847296830462831D047FF
S1135D5000993046C84741463046B847002130468E
S1135D601D4B98471D4E0CB321460020D04729688F
S1135D7000202831C84701210020B04741460020B7
S1135D80B84700210846144B9847002003B0BDE8EB
S1135D90F08F5307E6D4DBF804200E4B22F40032D4
S1135DA0CBF80420172158469847DBE70199204691
S1135DB00E31D047296820462831C847214620465D
S1135DC0B04741462046DBE7E95500004552000054
S1135DD001560000F55400008952000029520000C9
S1135DE01952000009520000034B6FF07F425A60C1
S1135DF005221A60704700BF10E000E00B0E0C4A49
S1135E0030B5D8B26FF07F440138C0B2FF2808D152
S1135E10A3EB03631944516091601368DB03FCD561
S1135E2030BD546094601568ED03FCD5ECE700BF09
S1135E3010E000E0014B01221A6070475805002071
S1135E40014B01225A6070475805002070B50C4C74
S1135E502569854211D90C2604EB82026569926991
S1135E60704304EB810104EB83042A5028448A69BB
S1135E70A36942608360002070BDFF2070BD00BF35
S1135E8058050020F8B5384C384F206106461823D1
S1135E900C2010FB0630E060B84700F11803A06046
S1135EA005461A2070436361B847314B00221860DD
S1135EB0183493B213F0010F14BF4FF060614FF028
S1135EC0006113F0020F0CBF4FF000404FF0604030
S1135ED013F0040F40EA01000CBF4FF400214FF40B
S1135EE0602113F0080F41EA00010CBF4FF40000D9
S1135EF04FF4600013F0100F41EA00010CBF4FF49F
S1135F0000604FF4606013F0200F40EA01000CBF02
S1135F104FF400414FF4604113F0400F40EA010098
S1135F200CBF08210E21DB0914BFE02380230143A9
S1135F300B4344F822300132B2F5807FB9D16B1E95
S1135F4005F11700002203F8012F8342FBD1094D0C
S1135F500024B44201D30020F8BD002320461A4691
S1135F601946A8470134F4E758050020F5630000FA
S1135F70E00E00204D5E00000C4A0D4B12691A2100
S1135F8001FB02320A441A3393420ED013F81A1C4E
S1135F9013F8190C014403F81A1C13F80C0C13F829
S1135FA00D1C014403F80D1CEDE770475805002053
S1135FB0EF0E00202DE9F0431A23264DDFF89CC094
S1135FC043435C191A331D4400231A46194694F8B6
S1135FD00BE094F803901CF80E70E6440D349EF820
S1135FE000819EF8006214F80DEC19FB08F90EFB11
S1135FF0079914F807EC0EFB069E14F8099C7144EB
S113600014F80CEC19FB08F90EFB079914F806ECCC
S11360100EFB069E724414F808EC14F80B9C1EFB4D
S113602008FE09FB07E714F805ECA5420EFB06760B
S11360303344CCD14FF4C064B3FBF4F3B2FBF4F2B9
S1136040B1FBF4F1044CDBB2A446D2B2C9B2BDE850
S1136050F0436047E40E00204D5E00000000002085
S113606070B5054D054E00242B699C4200D370BDCC
S11360702046B0470134F7E758050020B55F00001B
S113608070B54D000026837104460171427146814A
S1136090074B28469847334620600544A84203D15D
S11360A0A3812381002070BD20F8023BF6E700BFE6
S11360B0F56300002DE9F8430E4CDFF8409084F8B6
S11360C018040501284698460B4B84F819140E460B
S11360D017469847C4F81C0405440446AC4202D150
S11360E00020BDE8F883204643463A463146C84777
S11360F01034F3E758050020F563000081600000C8
S1136100324B2DE9F047D3F81C844FEA001C08EB0E
S11361100C020024157920462646A2464FF6FF7944
S113612023465FFA84FEAE453FD3B3FBF5F5ADB22B
S11361308D4238BF30B258F80C4028BF00B20B442F
S113614034F8105024F81010907954791179578943
S1136150B2F808C05B1BC0F11005B3FBF1F3EDB25C
S11361609EB246FA05F1201AC0B289B2BF1B814023
S1136170002F1FFA81FEB8BF7F420126F44506FABC
S113618005F520D0AF4209DC06FA04F406FA00F063
S1136190241AA64502D0BEF1000F14D10120538168
S11361A0A2F808E09081BDE8F087176837F814700A
S11361B0BA453CBF7046BA46B9453B4484BF7646AF
S11361C0B9460134ADE70020BDE8F087580500204A
S11361D0044BD3F81C3403EB0010002383810089A3
S11361E0704700BF580500202DE9F04F524B534E25
S11361F0534D544F8DB0984703A9534B5348984778
S1136200534A5248534B002198474FF48043C6F8F1
S11362101831514B5148002422461C7021465C70B1
S11362204F4BA84721464F4B4C484F4D98474B483E
S1136230A84704A94D4B4E4898474E4B4C489847A5
S11362404D4B042098470A230E2203210120B8470E
S1136250AB464A4DA2462023F3614048C5F800A04E
S1136260D8472B68002BFCD0022302AA0021DFF8B8
S113627030813A48DFF82C91C0479DF809309DF8E9
S11362800810DFF8248101EB032189B23C4B002084
S11362909847D5F81C341B7B7BB10020C847C0F35A
S11362A00F13024600933749374FC0F3CF1305A8A5
S11362B0B8471A2205A90498C0472023F361002097
S11362C0C847324B814601209847314B60225A71AE
S11362D0E0221A72302283F8292083F82A204FEA18
S11362E01929042283F833201C705C709C70DC70C4
S11362F01C719C71DC7183F80B901C7383F827402C
S113630083F8284083F82B4083F82C4083F82D40F1
S113631083F82E4083F82F401E4B98471E4B984716
S11363200A481E4B6C6098472A7BA9680398C047AB
S11363306B68002BFCD08EE7D14200000080004146
S113634019490000B56000006D4B0000540A00209C
S1136350415E0000614B00004C0F0020980A0020B1
S1136360355E000009490000C9490000E14C000005
S1136370D8090020D14C0000855E0000580500209B
S113638001610000606E00007D650000054A0000A8
S1136390E40E0020795F000061600000554B0000AE
S11363A055490000D1610000FD4A000070B50D4E52
S11363B00D4CA41BA4100025A54209D10B4E0C4C76
S11363C000F0A2FDA41BA4100025A54205D170BDB8
S11363D056F8253098470135EEE756F825309847AA
S11363E00135F2E7146F0000146F0000146F000011
S11363F0186F0000024B0146186800F051B800BF46
S11364000403002038B50546002945D051F8043C62
S11364100C1F002BB8BFE41800F0D4F81F4A13680F
S1136420104633B9636014602846BDE8384000F074
S1136430CAB8A3420CD921686218934204BF1A68EF
S11364405B68636004BF521822600460ECE7134683
S11364505A680AB1A242FAD919685818A0420BD155
S113646020680144581882421960DDD110685268CE
S11364705A6001441960D7E702D90C232B60D3E793
S1136480206821188A4204BF11685268626004BF00
S1136490091821605C60C7E738BD00BF7809002097
S11364A070B5CD1C25F0030508350C2D38BF0C251F
S11364B0002D064601DBA94203D90C2333600020DA
S11364C070BD00F07FF8234A1468214691B9224C2C
S11364D023681BB9304600F041F820602946304655
S11364E000F03CF8431C26D10C233360304600F006
S11364F06AF8E4E70B685B1B1AD40B2B0FD90B600B
S1136500CD50CC18304600F05EF804F10B00231D8A
S113651020F00700C31A1BD05A42E25070BD8C42CF
S11365200DBF63684B686360136018BF0C46E9E7EE
S11365300C464968CAE7C41C24F00304A04205D0F1
S1136540211A304600F00AF80130CDD02560D9E791
S113655070BD00BF780900207C09002038B5064CC6
S11365600023054608462360FEF7F2FB431C02D1D4
S1136570236803B12B6038BD500F00200EB400B562
S11365809CB04FF402711DABADF81410029006904C
S11365906FF000410A48049107914FF6FF7153F8D8
S11365A0042BADF816100068019302A900F068F8F6
S11365B0029B00221A701CB05DF804EB03B0704714
S11365C004030020704770472DE9F0478E689E420F
S11365D082460C469146984635D88A8912F4906FC3
S11365E031D0256809696F1A6569022305EB4505F1
S11365F095FBF3F508F101033B449D4238BF1D466A
S1136600530531D52946FFF74BFF064650B90C23F5
S1136610CAF80030A38943F04003A3814FF0FF3050
S1136620BDE8F0873A46216900F00AFBA38923F408
S1136630906343F08003A381266165613E44ED1BB2
S11366402660A5604646464528BF4646324649462A
S1136650206800F000FBA3689B1BA36023681E4412
S113666026600020BDE8F0872A4600F00EFB0646AF
S11366700028E1D121695046FFF7C4FEC7E70000B6
S11366802DE9F04F9DB0804603938B891C060D467F
S113669016460FD50B696BB94021FFF701FF28603F
S11366A0286128B90C23C8F800304FF0FF30C5E04A
S11366B040236B610023099320238DF82930302374
S11366C08DF82A304FF0010B37463C4614F8013B55
S11366D0002B3CD1B7EB060A0BD053463246294671
S11366E04046FFF771FF013000F0A380099B53443B
S11366F009933B78002B00F09C8000234FF0FF327D
S113670004930793059206938DF853301A93052248
S11367102178504800F044FA671C049BD8B9D90684
S113672044BF20228DF853201A0744BF2B228DF832
S1136730532022782A2A16D0079A00210A202746B5
S113674001343B78303B092B51D9C9B111E0252BD9
S1136750C0D02746B9E73F4A801A0BFA00F0184325
S113676004903C46D3E7039A111D12680391002A52
S113677001DB079204E0524243F0020307920493C0
S11367803B782E2B0ED17B782A2B07F1010132D1D5
S1136790039B1A1D1B680392002BB8BF4FF0FF33F5
S11367A0023705932C4C39780322204600F0F8F97F
S11367B038B14023001B03FA00F0049B0343049305
S11367C00137397825488DF8281006227E1C00F000
S11367D0E7F9002835D0224BFBB9039B073323F09C
S11367E0070308330393099B4B4409936CE700FBAD
S11367F002320121A3E70023059318460A240F4619
S113680001313A78303A092A03D9002BCAD00590CD
S1136810C8E704FB00200123F1E703AB00932A46F9
S1136820104B04A94046AFF30080B0F1FF3F81460E
S1136830D9D1AB895B063FF538AF09981DB0BDE8E7
S1136840F08F03AB00932A46064B04A9404600F0A0
S113685081F8EAE7D46E0000DA6E0000DE6E000014
S113686000000000C96500002DE9F04791461F466D
S11368708A680B69DDF820809342B8BF1346C9F8D3
S1136880003091F8432006460C4612B10133C9F892
S113689000302368990642BFD9F800300233C9F8A2
S11368A00030256815F0060507D104F1190AE368DC
S11368B0D9F800209B1A9D4229DB94F843302268C2
S11368C0003318BF012392062ED404F14302394643
S11368D03046C047013021D02368E568D9F800204C
S11368E003F00603042B08BFAD1AA36822690CBF8A
S11368F025EAE57500259342C4BF9B1AED184FF0B5
S113690000091A344D451BD10020BDE8F08701234E
S1136910524639463046C047013003D14FF0FF306C
S1136920BDE8F0870135C2E7E1185A1C302081F830
S11369304300224494F8451082F843100233C4E71C
S11369400123224639463046C0470130E6D009F1DA
S11369500109D7E72DE9F04317460A7E85B06E2A70
S1136960984606460C460C9B01F1430E00F0BC8091
S11369701AD8632A2ED00AD8002A00F0C880582AD0
S113698000F08A8004F1420584F842202AE0642A57
S113699001D0692AF6D121681A6811F0800F23D03A
S11369A0111D1960136827E0732A00F0B48008D819
S11369B06F2A2AD0702AE5D10A6842F020020A60C0
S11369C003E0752A21D0782ADCD1782284F8452086
S11369D06E4964E01A6801F14205111D19601368DB
S11369E084F842300123A3E011F0400F02F10401C6
S11369F01960D7D0B2F90030002B03DA2D225B42A4
S1136A0084F8432062490A2217E02068196810F0CC
S1136A10800F03D0081D18600B6806E010F0400FCB
S1136A2001F104001860F7D00B8859496F2A14BF8C
S1136A300A220822002084F843006568A560002D1E
S1136A40C0F29C80206820F004002060002B3FD11D
S1136A50002D40F095807546082A0BD12368DA078B
S1136A6008D5236962689A42DEBF302305F8013CE9
S1136A7005F1FF35AEEB05032361CDF800803B46FD
S1136A8003AA21463046FFF7EFFE013055D14FF0FF
S1136A90FF3005B0BDE8F08381F845203C49226809
S1136AA0186812F0800F00F104051D6001D003681E
S1136AB002E05506FBD50388D00744BF42F020020C
S1136AC022601BB9226822F0200222601022B1E762
S1136AD07546B3FBF2F002FB1033CB5C05F8013DC5
S1136AE003460028F5D1B7E708681A68496910F029
S1136AF0800F04D0101D18601368196007E010F0AF
S1136B00400F02F1040018601368F6D019800023C6
S1136B1023617546B1E71A68111D1960156862682A
S1136B200021284600F03CF808B1401B606063680F
S1136B302361002384F843309FE723692A463946BA
S1136B403046C0470130A2D023689B0707D50025F3
S1136B5004F11909E368039A9B1A9D4205DBE06876
S1136B60039B9842B8BF184693E701234A46394627
S1136B703046C04701308AD00135EBE7002BA7D15E
S1136B800B7884F8423004F1420565E7F66E0000A4
S1136B90E56E00000000000000000000000000009E
S1136BA001F0FF01102A2BDB10F0070F08D010F8BA
S1136BB0013B013A8B422DD010F0070F42B3F6D1BE
S1136BC0F0B441EA012141EA014122F007047FF0D7
S1136BD000070023F0E80256083C85EA010586EA2E
S1136BE0010685FA47F5A3FA87F586FA47F6A5FA6A
S1136BF087F68EB9EED1F0BC01F0FF0102F0070276
S1136C0032B110F8013B013A83EA010313B1F8D120
S1136C100020704701387047002D06BF3546033801
S1136C20073815F0010F07D1013015F4807F02BF3A
S1136C30013015F4C03F0130F0BC0138704700BF8B
S1136C4010B5431E0A44914200D110BD11F8014B06
S1136C5003F8014FF7E7884210B501EB020303D8AC
S1136C60421E99420CD110BD9842F9D28118D21A11
S1136C70D34200D110BD13F8014D01F8014DF7E7DF
S1136C8011F8014B02F8014FEBE7F8B5074614463B
S1136C900E4621B91146BDE8F840FFF701BC22B900
S1136CA0FFF7B0FB25462846F8BD00F014F88442EF
S1136CB00FD921463846FFF7F3FB05460028F2D0EA
S1136CC031462246FFF7BCFF31463846FFF79AFBB0
S1136CD0E9E73546E7E751F8040C0028A0F1040081
S1136CE0BCBF0B58C0187047000000000C00030024
S1136CF007180400000000000B0814000000010045
S1136D0000010C00030004180400000000000B083C
S1136D101400000000132000000000140000000014
S1136D20000000000000000000000000000000005F
S1136D30000000000000000000000000000000004F
S1136D40000000000000000000000000000000003F
S1136D50000000000000000000000000000000002F
S1136D60000000000000000000000000000000001F
S1136D70000000000000000000000000000000000F
S1136D8000000000000000000000000000000000FF
S1136D9000000000000000000000000000000000EF
S1136DA000000000000000000000000000000000DF
S1136DB000000000000000000000000000000000CF
S1136DC000000000000000000000000000000000BF
S1136DD000000000000000000000000000000000AF
S1136DE0000000000000000000000000000000009F
S1136DF0000000000000000000000000000000008F
S1136E00000000000000000000000000000000007E
S1136E100000000000300040003400400020014128
S1136E200040014100000043000400430008004307
S1136E30000C00430C0020000000000000000000D3
S1136E400600FF01070000000500000014002000F8
S1136E5000010000E5E600000000D700006CDC0241
S1136E604144433A20253564202535642025356482
S1136E700A00000000000000000000000000000004
S1136E8000000000000000000000000000000000FE
S1136E9000000000000000000000000000000000EE
S1136EA000000000000000000000000000000000DE
S1136EB000000000000000000000000000000000CE
S1136EC000000000000000000000000000000000BE
S1136ED000000000232D302B2000686C4C006566F8
S1136EE06745464700303132333435363738394117
S1136EF0424344454600303132333435363738392D
S1136F006162636465660000F8B500BFF8BC08BC44
S1136F109E46704789420000F8B500BFF8BC08BC23
S10B6F209E4670476542000023
S1136F28FEFCFAF8F6F4F2F0EEECEAE8E6E4E2E065
S1136F38DEDCDAD8D6D4D2D0CECCCAC8C6C4C2C055
S1136F48BEBCBAB8B6B4B2B0AEACAAA8A6A4A2A045
S1136F589E9C9A98969492908E8C8A888684828035
S1136F687E7C7A78767472706E6C6A686664626025
S1136F785E5C5A58565452504E4C4A484644424015
S1136F883E3C3A38363432302E2C2A282624222005
S1136F981E1C1A18161412100E0C0A0806040200F5
S1136FA800000000000000000000000000000000D5
S1136FB800000000000000000000000000000000C5
S1136FC800000000000000000000000000000000B5
S1136FD800000000000000000000000000000000A5
S1136FE80000000000000000000000000000000095
S1136FF80000000000000000000000000000000085
S11370080000000000000000000000000000000074
S11370180000000000000000000000000000000064
S113702800020406080A0C0E10121416181A1C1E64
S113703820222426282A2C2E30323436383A3C3E54
S113704840424446484A4C4E50525456585A5C5E44
S113705860626466686A6C6E70727476787A7C7E34
S113706880828486888A8C8E90929496989A9C9E24
S1137078A0A2A4A6A8AAACAEB0B2B4B6B8BABCBE14
S1137088C0C2C4C6C8CACCCED0D2D4D6D8DADCDE04
S1137098E0E2E4E6E8EAECEEF0F2F4F6F8FAFCFEF4
S11370A8FEFCFAF8F6F4F2F0EEECEAE8E6E4E2E0E4
S11370B8DEDCDAD8D6D4D2D0CECCCAC8C6C4C2C0D4
S11370C8BEBCBAB8B6B4B2B0AEACAAA8A6A4A2A0C4
S11370D89E9C9A98969492908E8C8A8886848280B4
S11370E87E7C7A78767472706E6C6A6866646260A4
S11370F85E5C5A58565452504E4C4A484644424094
S11371083E3C3A38363432302E2C2A282624222083
S11371181E1C1A18161412100E0C0A080604020073
S11371280000000000000000000000000000000053
S11371380000000000000000000000000000000043
S11371480000000000000000000000000000000033
S11371580000000000000000000000000000000023
S11371680000000000000000000000000000000013
S11371780000000000000000000000000000000003
S113718800000000000000000000000000000000F3
S113719800000000000000000000000000000000E3
S11371A800020406080A0C0E10121416181A1C1EE3
S11371B820222426282A2C2E30323436383A3C3ED3
S11371C840424446484A4C4E50525456585A5C5EC3
S11371D860626466686A6C6E70727476787A7C7EB3
S11371E880828486888A8C8E90929496989A9C9EA3
S11371F8A0A2A4A6A8AAACAEB0B2B4B6B8BABCBE93
S1137208C0C2C4C6C8CACCCED0D2D4D6D8DADCDE82
S1137218E0E2E4E6E8EAECEEF0F2F4F6F8FAFCFE72
S1137228010000000803002000000000946E000024
S1137238B46E0000746E000000000000000000003E
S11372480000000000000000000000000000000032
S11372580000000000000000000000000000000022
S11372680000000000000000000000000000000012
S11372780000000000000000000000000000000002
S10B72880000000000000000FA
S9034000BC
