S0150000677269645F746F706C6576656C2E737265639F
S1134000503D0120F5420000F1420000F142000061
S1134010F1420000F1420000F14200000000000003
S1134020000000000000000000000000F142000059
S1134030F142000000000000F1420000F1420000E3
S1134040F1420000F1420000F1420000F1420000A0
S1134050F1420000F1420000F1420000F142000090
S1134060F1420000F1420000F1420000A595000079
S1134070F1420000F1420000F1420000F142000070
S1134080F1420000F1420000F1420000F142000060
S1134090F1420000F1420000F1420000F142000050
S11340A0F1420000F1420000F1420000F142000040
S11340B0F1420000B19200008592000039910000A5
S11340C04191000049910000519100005991000074
S11340D0F1420000F1420000F1420000F142000010
S11340E0F1420000F1420000000000000000000066
S11340F0000000004D940000319E0000299E000045
S1134100219E0000119E0000599E0000519E000057
S1134110499E0000399E0000F1420000F142000077
S1134120F1420000F1420000B59E0000AD9E000087
S1134130A59E0000619E0000DD9E0000D59E00004B
S1134140CD9E0000BD9E0000599F0000519F0000BD
S1134150499F0000E59E0000819F0000799F0000B8
S1134160719F0000619F0000F1420000F1420000D5
S1134170F1420000F14200000000000000000000D5
S1134180D1B50000D9B50000E1B50000E9B50000E3
S113419000000000F1420000F1420000F142000082
S11341A0F1420000F1420000F1420000F14200003F
S11341B0F1420000F1420000F1420000F14200002F
S11341C0F1420000F1420000F1420000F14200001F
S11341D0F1420000F1420000F1420000F14200000F
S11341E0F1420000F1420000F142000015A7000076
S11341F025A7000035A7000045A70000F1420000F4
S1134200F1420000F1420000F1420000F1420000DE
S1134210F1420000F1420000758E0000658E00003E
S11342208D8E00007D8E0000F1420000F1420000FE
S1134230F1420000F1420000F1420000F1420000AE
S1134240F1420000F1420000F1420000F14200009E
S1134250F1420000F1420000F1420000F14200008E
S1134260F142000010B5054C237833B9044B13B167
S11342700448AFF300800123237010BDC005002063
S113428000000000F4F000000C4B43B10C480D4951
S113429010B5AFF300800C48036823B910BD0A4879
S11342A0036833B97047094B002BF7D0BDE81040C1
S11342B01847064B002BF5D0184700BF000000003C
S11342C0F4F00000C4050020F4F000000000000039
S11342D010B5044B9847044B9847044BBDE8104075
S11342E0184700BF4D4C00002DD0000061BF0000F6
S11342F0FEE7000008B5144A144B9A4218D1144B37
S1134300144A002193421CD3134A144B22F07F0217
S11343109A60D3F8882042F47002C3F88820BFF36F
S11343204F8FBFF36F8F0E4B98470E4B9847FEE7A6
S11343300D49043A8B42E2D252F8040F43F8040BBD
S1134340F8E743F8041BDDE7F4F000000000002068
S1134350C0050020503D00200040000000ED00E0BA
S113436009D8000085BB0000B805002030B54A1C00
S1134370C4B2C0F34712164804F01F0300EBC21086
S113438007D1184490F8403003F0FE0380F8403021
S113439030BDC5185B0895F8402002F0FE021844B1
S11343A042F0010285F8402090F8303014F0010FFB
S11343B019BF03F00F0343EA011101F00F0103F0E9
S11343C0F00314BFC9B2194380F8301030BD00BFE8
S11343D00080004101224309914200F01F0002FACB
S11343E000F011D002D302291FD07047DB0103F182
S11343F0824303F50043586082B242F08042000CCD
S11344009A6240F040400EE0DB0182B203F1824345
S113441003F5004342F0804242F4003258609A624D
S1134420054A42EA104098627047DB0103F1824377
S113443003F500439860DFE7000002C0F0B5144ABA
S1134440144E136A144D1549154F43F0800313623B
S1134450144B85B04122C3F82021134B019300244F
S1134460012300933246234602942846B847721C1F
S11344702146102328460D4DA847214607200C4B02
S113448098470C490C4B072005B0BDE8F04018478D
S113449000080040DC0500202C100020001C004314
S11344A0B97B0000001C004028110020057C00009E
S11344B0D5430000010007006D430000F0B5154A24
S11344C0154E136A154D1649164F43F48073136243
S11344D0154B85B04122C3F82421144B01930024C9
S11344E00123009306F11102234602942846B8479B
S11344F006F112022146102328460D4DA8472146F5
S113450042200C4B98470C490C4B422005B0BDE8A7
S1134510F040184700080040DC050020001200208D
S113452000200043B97B0000001C0040C80F00209D
S1134530057C0000D5430000010042006D430000EB
S1134540044A05499369054843F002039361044B07
S1134550184700BF0008004000200041C40F00209D
S11345605D7D0000084B4022C3F8AC20C3F8B020A6
S1134570C3F8B420C3F8B820044A936943F0800315
S11345809361034B184700BF001C00400008004023
S1134590BD7D0000024A136943F040031361704774
S11345A00008004010B5044B984704490448054BE3
S11345B0BDE81040184700BF954500000040004189
S11345C0A80F0020D57D000070B52D4C2D4E2E4D2A
S11345D001212B20B04794F8CB302C4903F0FB0386
S11345E084F8CB302B20A84702210820B0474FF491
S11345F08073636194F84830254903F0FB0384F821
S113460048300820A84702210920B0474FF400731E
S1134610636194F849301F4903F0FB0384F849307F
S11346200920A84702210A20B0474FF48063636140
S113463094F84A30184903F0FB0384F84A300A20FE
S1134640A84702210B20B0474FF40063636194F83C
S11346504B30124903F0FB0384F84B300B20A8477E
S113466001212A20B04794F8CA300D4903F0FB0316
S113467084F8CA302A202B46BDE87040184700BF92
S113468000800041D54300006D43000007002B006B
S1134690070008000700090007000A0007000B00D4
S11346A007002A00064B1A6942F400521A611A697B
S11346B042F400121A61DA6942F40052DA61704776
S11346C00008004010B5054B9847054B05490648BE
S11346D09847064BBDE81040184700BFA5460000A8
S11346E0D17E0000003400426C120020C945000055
S11346F0064B4122C3F89C204222C3F88C20044A72
S1134700536943F480535361704700BF001C004059
S11347100008004010B5054C05495120A047234628
S113472004495020BDE81040184700BF6D43000005
S1134730030051000300500013B5074B074C984782
S113474000230093064A074907481023A047074B54
S113475002B0BDE810401847F1460000498400004B
S1134760FE050020003000405810002015470000CE
S1134770064B4122C3F8A0204222C3F88C20044AED
S1134780536943F400535361704700BF001C004059
S11347900008004010B5054C05495B20A04723469E
S11347A004495C20BDE81040184700BF6D43000079
S11347B002005B0002005C0013B5074B074C9847EE
S11347C000230093064A074907481023A047074BD4
S11347D002B0BDE81040184771470000498400004A
S11347E00E06002000340040AC1000209547000065
S11347F010B5054C05493920A04723460449382003
S1134800BDE81040184700BF6D43000003003900A5
S113481003003800064B4122C3F8DC204222C3F8CF
S11348208C20044A936943F400739361704700BF7A
S1134830001C00400008004010B5054B9847054B8C
S11348400549064800229847054BBDE81040184723
S1134850154800008D850000002001412010002033
S1134860F147000070B5134C134E144D4FF48013F0
S1134870C4F8943002213420B04711493420A847A9
S11348804FF40013C4F8943002213520B0470D4989
S11348903520A84701211420B04794F854300A4920
S11348A003F0FB0384F8543014202B46BDE8704019
S11348B0184700BF00800041D54300006D4300004D
S11348C0020034000200350003001400064B4122AC
S11348D0C3F8E0204322C3F88C20044A936943F4CC
S11348E080639361704700BF001C004000080040D3
S11348F010B5054B9847054B054906489847064BA4
S1134900BDE81040184700BFCD4800005D8000009E
S113491000400141200F002065480000064B412261
S1134920C3F808214222C3F88C20044A136A43F0D6
S113493001031362704700BF001C004000080040E0
S113494010B5054C05492820A047234604492920D1
S1134950BDE81040184700BF6D4300000300280065
S11349600300290013B5084B084C98470023009313
S1134970074A084810234FF08641A047064B02B06F
S1134980BDE81040184700BF1D49000049840000DD
S11349901E060020601100204149000070B50B4C38
S11349A00B4D94F857300B4903F0FB0384F8573050
S11349B01720A84794F85630074903F0FB0384F8FE
S11349C0563016202B46BDE8704018470080004141
S11349D06D4300000300170003001600064B41223C
S11349E0C3F80C214222C3F88C20044A136A43F012
S11349F002031362704700BF001C0040000800401F
S1134A0010B5054B9847054B054906489847064B92
S1134A10BDE81040184700BFDD490000797E000062
S1134A2000040043E00F00209D490000064B412292
S1134A30C3F810214222C3F88C20044A136A43F0BD
S1134A4004031362704700BF001C004000080040CC
S1134A5010B5054C05494D20A047234604494C2078
S1134A60BDE81040184700BF6D43000003004D002F
S1134A7003004C0013B5074B074C984700230093E1
S1134A80064A074907481023A047074B02B0BDE870
S1134A90104018472D4A0000498400002E060020CB
S1134AA000080043B0110020514A000070B5134CB7
S1134AB0134E144D4FF08043C4F8943002213E202D
S1134AC0B04711493E20A8474FF00043C4F8943042
S1134AD002213F20B0470D493F20A84701211E2055
S1134AE0B04794F85E300A4903F0FB0384F85E3063
S1134AF01E202B46BDE87040184700BF00800041CF
S1134B00D54300006D43000002003E0002003F0058
S1134B1002001E00064B4122C3F814214222C3F8AE
S1134B208C20044A136A43F008031362704700BFE1
S1134B30001C00400008004010B5054B9847054B89
S1134B40054906489847064BBDE81040184700BF82
S1134B50154B000099810000000C0043FC1000205C
S1134B60AD4A00000148024B184700BF10E000E0C6
S1134B70657D000070B50221114C124E124D1820B3
S1134B80B0474FF08073636194F858300F4903F0D5
S1134B90FB0384F858301820A84702211920B04795
S1134BA04FF00073636194F85930094903F0FB0333
S1134BB084F8593019202B46BDE87040184700BFCF
S1134BC000800041D54300006D4300000700180039
S1134BD007001900074B4122C3F8A820A3F5A053EE
S1134BE01A6942F480621A619A6942F001029A6178
S1134BF0704700BF001C004010B5044B9847044B9D
S1134C009847044BBDE81040184700BFD54B00003F
S1134C10B9870000754B0000024A536943F480735E
S1134C20536170470008004010B5044B984704488E
S1134C30044B0360BDE81040034B1847194C0000B7
S1134C40A810002000200040F1B500002DE9F0413B
S1134C50854B864C864D874F9847202363610221FC
S1134C600520A84794F8453003F0FE0384F8453046
S1134C7001211520A84794F8553003F0FB0384F86C
S1134C80553094F8553003F0FE0384F85530012173
S1134C902720A84794F8C73003F0FB0384F8C730F3
S1134CA094F8C73003F0FE0384F8C7304FF4005380
S1134CB0C4F8943002212D20A84794F8CD304FF445
S1134CC0804603F0FE0384F8CD300221C4F89460DA
S1134CD02E20A84794F8CE3003F0FE0384F8CE309B
S1134CE001212F20A84794F8CF3003F0FB0384F868
S1134CF0CF3094F8CF3003F0FE0384F8CF30012195
S1134D004B20A8474FF40062C4F8042194F84B31B7
S1134D1043F0040384F84B31C4F8182194F84B3160
S1134D2003F0FE0384F84B310221C4F814614E20D1
S1134D30A84794F84E3103F0FE0384F84E31012164
S1134D405220A84794F8523103F0FB0384F85231FF
S1134D5094F8523103F0FE0384F852314FF40023E7
S1134D60C4F8143102215320A84794F8533103F0B6
S1134D70FE0384F853314FF48013C4F81431022134
S1134D805420A84794F8543103F0FE0384F85431B6
S1134D904FF4001302215520C4F81431A84794F8A5
S1134DA05531354D03F0FE0384F85531334B344C03
S1134DB09847344B9847344B9847344B9847344B77
S1134DC09847344B9847636943F400736361324BEB
S1134DD09847324902463248A847324B9847324BEB
S1134DE09847324B9847324B9847324B9847324B4F
S1134DF09847324B9847324B9847324B98476369F0
S1134E004FF04008334363612F4EC7F8A480B04786
S1134E102E4902462E48A847636943F40043636160
S1134E20C7F8A480B0472B4902462B48A847A3697A
S1134E3043F40053A361C7F8E880B047274902460A
S1134E402748A847A36943F48043A361C7F8E880CF
S1134E50B047244902462448A847244B9847244B8A
S1134E60BDE8F041184700BFC58E00000080004136
S1134E70D5430000001C0040958200003D44000022
S1134E8000080040BD4400004145000065450000A5
S1134E90A5450000C54600009D9500000024004083
S1134EA0680F002039470000B94700003948000066
S1134EB0F148000065490000014A0000754A0000FD
S1134EC0394B0000654B00000DA70000003800407E
S1134ED04C120020003C00404011002000A0014181
S1134EE0880F002000C001412C120020F94B000063
S1134EF0294C000070B54D000026837104460171F1
S1134F0042714681074B2846984733462060054442
S1134F10A84203D1A3812381002070BD20F8023B65
S1134F20F6E700BF51D800002DE9F0470646994640
S1134F3000010B4B0B4DDFF830A00F46904698470D
S1134F4000242860A64202D10020BDE8F08728682A
S1134F504B4600EB041042463946D0470134F1E792
S1134F6051D80000B8170020F54E0000324B2DE94F
S1134F70F047D3F800804FEA001C08EB0C02002431
S1134F80157920462646A2464FF6FF7923465FFA56
S1134F9084FEAE453FD3B3FBF5F5ADB28D4238BFC9
S1134FA030B258F80C4028BF00B20B4434F810500B
S1134FB024F810109079547911795789B2F808C0FF
S1134FC05B1BC0F11005B3FBF1F3EDB29EB246FAE0
S1134FD005F1201AC0B289B2BF1B8140002F1FFA0D
S1134FE081FEB8BF7F420126F44506FA05F520D0BC
S1134FF0AF4209DC06FA04F406FA00F0241AA645C6
S113500002D0BEF1000F14D101205381A2F808E0B0
S11350109081BDE8F087176837F81470BA453CBF33
S11350207046BA46B9453B4484BF7646B946013416
S1135030ADE70020BDE8F087B8170020024B1B68DD
S113504003EB0010007B7047B8170020084B1A6868
S1135050CB1F02EB0012072B4FF0000090819FBF83
S113506050791389401A43FA00F080B2704700BFA8
S1135070B817002038B5002405460180C481048196
S1135080448184810482448284820A4B084698477E
S1135090686000B9FEE720462A88A3B29A4204F168
S11350A0010101D8012038BDA4B26B6818550C4623
S11350B0F2E700BF51D800000389028A93429BBFE4
S11350C00088C018981A801A80B27047028A03892F
S11350D0934210B59CBF04881B199B1A9BB28B4248
S11350E085BF04885218002192FBF4F384BF04FBAB
S11350F013224282084610BD838A4268D154838AAF
S1135100018801339BB2B3FBF1F201FB12338382BA
S113511001207047828A438A934200D0FEE70382CB
S113512001207047F0B543898589AB4200D0FEE782
S113513002899A4200D0FEE7068AB54216D0048856
S1135140002293B2A34200D3FEE7AF1897FBF4F119
S113515004FB11718FB2BE4208D04768795C0A29FA
S113516002F10102EDD1581C80B2F0BD0020F0BD67
S1135170F0B543898589AB4200D0FEE702899A42A3
S113518000D0FEE7068AB5421ED001880024A2B2F0
S11351908A4200D3FEE72F1997FBF1F301FB137347
S11351A09FB2BE4210D04768FF5C0A2F04F101048D
S11351B0EDD1013393FBF1F401FB14334381531C10
S11351C09BB2C3811846F0BD0023FBE78389418964
S11351D0994210B5024600D1FEE741681488C85CC4
S11351E001339BB2B3FBF4F104FB1133938110BD83
S11351F082894389934200D0FEE7038101207047EE
S11352002DE9F041044690462C4E9DF8185000F5C7
S11352109B601F46B047414604F59E60B04700229C
S11352209DF820302260A3729DF81C3063721146F1
S1135230676013462572A281E261E2180133B3F577
S1135240167F82F82810F8D100221346A1180132E3
S1135250B2F5167F81F88032F8D10122954284F8A4
S11352600C35C4F8083584F80F2523D184F80F359C
S113527084F80C35627A112A05D184F80D3584F846
S11352800E55BDE8F081627A122A05D184F80D55D5
S113529084F80E35BDE8F081627A132A03D184F8CC
S11352A00D35FF23F4E7627A142A05D1FF2284F82E
S11352B00D25EDE784F80F25BDE8F0817550000059
S11352C02DE9FF47012400264FF47A721123254D5E
S11352D00193114602960094234B2448DFF8AC80D6
S11352E0A8474FF47A721223019311460294009452
S11352F01F4B2048A8474FF002094FF47A7213233A
S113530001931146CDF8089000941B4B1B48A84705
S113531003274FF47A7214230297019311460094E1
S1135320174B1848A8474FF0FF0A4FF47A720097BA
S1135330334611464046144FCDF808A00196A847BD
S11353404FF47A72CDF808A00196CDF80090334658
S113535011463846A84788F80F4587F80F4504B02A
S1135360BDE8F08701520000AC100020801200203C
S113537058100020E0300020B0110020BC2600208E
S11353806011002098210020D02B0020CC17002091
S11353902DE9F04F91B002AF00F59E637B600546A6
S11353A018464C4B9847064600285ED04A4BBB60D3
S11353B04A4BFB604A4B3B614A4B7B614A4BBB61A6
S11353C04A4BFB610023E8461C4607F1080151F8EB
S11353D0232092F80F0538B107F1380000EB840060
S11353E0013440F8182CE4B20133062BEFD1DFF876
S11353F01CA1002107F12009CBB29C4221D8786876
S11354003B4B9847864234D1DFF804A14FF00008A3
S113541007F120095FFA88F39C422BD84FF000096A
S11354201FFA89F39E4278682FD8324B984707F1C8
S113543020060021CBB29C4241D83C37BD46BDE892
S1135440F08F59F82100854211D000F59B60D047B8
S113545086420CD90222C8238DE80C006422002362
S113546011462548254CA047C5460020E5E70131F3
S1135470C2E7FEE759F82800854203D0314600F51B
S11354809B60D04708F10108C4E71D4B98474FF0D3
S11354900008824607F1200B5FFA88F18C4202D89B
S11354A009F10109BCE75BF82800854204D05146A4
S11354B000F59B60134B984708F10108ECE756F898
S11354C02100854203D000F59B600F4B98470131C2
S11354D0B0E700BF2551000080120020E03000201A
S11354E0BC26002098210020CC170020D02B0020BF
S11354F071510000F1510000E81C002013740000F9
S1135500CD510000F950000015510000B9500000C1
S1135510CD5000002DE9F04F99B006AF00F59B6522
S1135520F862944B28469847B86218B94C37BD4680
S1135530BDE8F08F904BDFF88482DFF8489228466C
S113554098470023DCB25E1CBB6A9C42284638D3D1
S11355508A4BDFF83092DFF868B29847884B894865
S11355609847894B7862874898477F3843B23B63B2
S11355708448864B98477F3843B27B638148844B89
S113558098477A6B3862C2F140020023920087F890
S11355904730FA60BB63FB631E46BB6B19F80330EC
S11355A0022B13D197F83860BB6BBA6A0133BB6323
S11355B03B8F9A42F1D8F86AF96B764B28309847BA
S11355C0B4E7C047334609F80400BBE7BB6B19F8DE
S11355D00330032BE8D1002EE6D0701C07F14702FC
S11355E002214844D847C5B2002D64D1F01C07F10C
S11355F0470202214844D847701D07F1470202219F
S11356004844D8475FFA80F8F01D07F147020221A9
S11356104844D847044606F1090007F1470202212D
S11356204844D8475C4B3A8E93F809A0FB685B4921
S11356309A44DAF1000303F00F030AF00F0A58BF8B
S1135640C3F1000AFB6B03F12806FB6AE4B21E44B3
S113565004F58074202313FB0244634203F07F03A8
S113566004F07F0458BF5C42E3B2FB61C3B2BB6188
S11356700593FB6904935FFA8AF3CDF80C800293D7
S11356803B6A01937B6B00937A6A3B6B444C3046D4
S1135690A047444B444C30469847FB6BFA69184486
S11356A0C3B248EA0A01FB63C9B2BB694FEA1810E6
S11356B0A047002678E7032D2DD13B6B002BF8D1B2
S11356C07B6B002BF5D1F01C07F147020221484403
S11356D0D8470546701D07F1470202214844D847C0
S11356E08046F01D07F1470202214844D84704468A
S11356F006F1090007F14702022148445FFA88F8DD
S1135700D847B8F1630FD4D1C3B2E1B2EAB22748A3
S1135710274CA047CDE7012D40F09880BB6BC7F81C
S113572008D09B1B0622033B93FBF2F35FFA83FA38
S11357300AEB4A03073323F007030336ADEB030DEB
S113574006AB02FB0A627B61984602EB090306EB97
S113575009047B607B689C4208F1030832D1154B35
S1135760786951469847144BC0B25870D7F808D09E
S11357709FE700BF2551000071510000F151000066
S1135780397700002136002059770000797700002E
S113579099770000D9C10000E81C002036EA000017
S11357A035DC00008DDC0000CDC80000F43500209D
S11357B08D5A0000E1C3000015380020CD510000CF
S11357C06174000007F1470202212046D8470221F4
S11357D0054607F147026018D8470221064607F13B
S11357E04702201DD847FB6BFA6AF8612833D318A7
S11357F0BB61324B9847F6B2EBB205903B6103961E
S113580004933B7F02933B6A01937B6B00937A6A18
S11358103B6B2B492B4DB869A8472B4BB86998476C
S1135820FB6B1844C3B2FB633B7F08F8033CA6F14F
S113583082035E425E413B6908F8026CA3F1800278
S11358405542554108F8015C063483E7042D20D104
S1135850F01C07F1470202214844D8470546701D51
S113586007F1470202214844D8470446F01D07F1D6
S1135870470202214844EDB2D847642D7FF419AFA2
S1135880E4B2652C7FF415AFC1B2104B10489847B1
S11358900FE7022D3FF40DAFFB6B0E4903F1280413
S11358A0FB6A1C442A46074B20469847064B204671
S11358B09847FB6B1844C3B2FB63FAE6C574000057
S11358C07CEA000035DC00008DDC0000A9750000D6
S11358D0E81C0020C2EA00002DE9F04100F59B64B9
S11358E020460B4B9847064680B12046094B0A4F89
S11358F098470025EBB29E42204605F1010503D8E6
S1135900064BBDE8F0411847B847F3E7BDE8F0811E
S11359102551000071510000CD510000F1510000EB
S11359202DE9F84384890646ECB900F59B673846AF
S1135930114B9847054608B9BDE8F8830F4BDFF8CB
S1135940489038469847B5812346DCB2A54203F116
S11359500108384609D80A4B9847B2897068094B40
S113596006F128019847BDE8F883C847331983F83E
S113597028004346E9E700BF2551000071510000AB
S1135980F1510000C97E0000CD510000014B0122FD
S11359901A7070477C12002010B544788C4211D9DB
S11359A00C246143084CC06854F82330435001442C
S11359B054F822304B609DF8083054F823308B6043
S11359C0002010BDFF2010BD881D002010B5064C1E
S11359D0064B00F11401204698472046044A054B23
S11359E00021BDE810401847FC100020D5810000BC
S11359F08D590000C981000040787047F0B54778A0
S1135A0000230D26DAB297420FD9056906FB03512C
S1135A10CC7A0A7B1444FA1806FB0252CC72D17A6F
S1135A20147B2144D1720133ECE7F0BD10B5447806
S1135A30006904FB02120D246243811883549DF80B
S1135A4008304B709DF80C308B7010BD10B5447845
S1135A5004FB021201690D2000FB0212D3709DF8B1
S1135A60083013719DF80C30537110BD10B5447893
S1135A7004FB021201690D2000FB021293719DF8D0
S1135A800830D3719DF80C30137210BD10B54478F2
S1135A9004FB021201690D2404FB0212D37210BD2F
S1135AA010B5447804FB021201690D2404FB0212B0
S1135AB0137310BD2DE9F04F05464170CCB20C2094
S1135AC06043903085B068603D4FB847064600F1AA
S1135AD09003A8601A20EB606043B84706B100B990
S1135AE0FEE7002328611946AA68D1540133902B9C
S1135AF0FAD10024334F26466B789C4210D30023FE
S1135B00DFF8C880DFF8C8900393039B9DF80C600E
S1135B10013303936B78B3420AD805B0BDE8F08F24
S1135B200023214600961A462846B8470134E3E785
S1135B3000242346224631462846234F01940094EC
S1135B40B8477F23009322462346314628460194D2
S1135B50C047FF230093224623463146284601943A
S1135B60C847DFF870B0DFF870A0234622463146FC
S1135B702846D8472346224631462846D04723465E
S1135B8031462846019400940122B8472346314601
S1135B902846019400940122C047234631462846F2
S1135BA0019400940122C847234631462846012225
S1135BB0D8472346012231462846D047A5E700BFEF
S1135BC051D80000995900002D5A00004D5A000088
S1135BD06D5A0000A15A00008D5A00002DE9F04FC3
S1135BE004694378DFF8A0A085B000254FF00D09C3
S1135BF0039309FB014402262B462A46E77A94F8CC
S1135C0003C01AF807E094F800B05744013E97F82F
S1135C10008197F800721CFB08FC0BFB0ECC94F877
S1135C2006B00BFB07CC624494F804C094F801B0AE
S1135C301CFB08FC0BFB0ECC94F807B00BFB07CC49
S1135C40634494F805C094F802B01CFB08F80BFBFD
S1135C500E8E94F808B00BFB07E73D44BDF80C70BA
S1135C6016F0FF0619FB0744C8D1C5F34725009574
S1135C70C3F34723C2F34722024CA04705B0BDE853
S1135C80F08F00BF995900000000002070B5064E47
S1135C90054600246B789C4200D370BD21462846FB
S1135CA0B0470134F6E700BFDD5B000038B5084CAF
S1135CB00546002323700748074B9847AA88A9681C
S1135CC06869064B98472378012BFCD138BD00BF87
S1135CD07C120020FC100020BD810000C97E000061
S1135CE02DE9F04F1A4BDFF874901B78202B16BF68
S1135CF0012700233B4685B008BF022703FB07FAB0
S1135D000024FF23804625460393002106E00094E7
S1135D1023462A4640460F4EB047594698F801306C
S1135D2001F1010BC9B28B42F1D84046C8470A4B76
S1135D3001209847039B5E1E3D44544416F0FF0324
S1135D40EDB2E4B20393E0D105B0BDE8F08F00BF3B
S1135D50000C004099590000997D0000AD5C0000E2
S1135D6070B52A4E0446002293B213F0010F14BFFB
S1135D704FF060604FF0006013F0020F0CBF4FF063
S1135D8000454FF0604513F0040F45EA00050CBFD1
S1135D904FF400204FF4602013F0080F40EA050090
S1135DA00CBF4FF400054FF4600513F0100F40EAE8
S1135DB005000CBF4FF400654FF4606513F0200F2D
S1135DC045EA00050CBF4FF400404FF4604013F067
S1135DD0400F45EA00050CBF08200E20DB0914BF64
S1135DE0E02380232843034346F822300132B2F5EE
S1135DF0807FB9D12046064B98472046054B9847EB
S1135E002046054B9847002070BD00BF881D002028
S1135E10B55A0000CD590000E15C000010B5074BF5
S1135E20044600221A700648064B9847A288A168C7
S1135E306069054BBDE81040184700BF7C12002084
S1135E40FC100020BD810000C97E0000014B1878C1
S1135E50704700BF7C120020114B4FF4804210B5F4
S1135E60C3F818210F4CA04710B90F480F4B98479F
S1135E70A047802802D10C480D4B9847A0474028E2
S1135E8002D109480B4B9847A047C02802D10648C5
S1135E90094B984709480A4BBDE81040184700BF12
S1135EA000800041C5740000DC1C00202D7000003F
S1135EB08D6100004D6C000041670000E81C00206B
S1135EC06D73000010B5044C0448A04723460448F1
S1135ED0BDE81040184700BF317D00002C100020A1
S1135EE0001200202DE9F74F894A1378154633B97B
S1135EF013780133DBB2137003B0BDE8F08F01A84F
S1135F00844B854C9847854BD3F80011D3F8202156
S1135F10D3F81061824B56400E4001A85640984772
S1135F206368DB681A78C6F3C026964204D0002A58
S1135F3040F0D88001221A700023ADF80030ADF88B
S1135F4002306B78774A784E78480833002112F88B
S1135F5003806B78DBB25FFA88F8D75C6B78013327
S1135F60DBB26B706B7803F007036B706B7813F024
S1135F70010F6A4B4FF4002214BFC3F81821C3F871
S1135F8014216B7813F0020F644B4FF4801214BF8A
S1135F90C3F81821C3F814216B7813F0040F5F4B76
S1135FA04FF4001214BFC3F81821C3F814210223BC
S1135FB06A46B04702230DEB030200215C48B04758
S1135FC0BDF8002042F210739A428CBF00227F2257
S1135FD0ADF80020BDF80220BDF800109A428CBF35
S1135FE000237F23ADF8023008F1010B63684FEA08
S1135FF00B163344FFB2DA681278914230D05868F5
S1136000DFF83C91002A0CBF902280224FF002015D
S113601000F105000CBF4FF07F0A4FF0000AC8479B
S1136020636833444246586802210730C8476368AE
S113603033445246586802210930C84763683344E0
S1136040022158684FEA4A021530C847636832484B
S11360501E445FFA8BF1F36883F800A0354B984730
S113606007F1010A6368BDF802104FEA0A163344C7
S1136070DA681278914230D05868DFF8C480002A78
S11360800CBF902280224FF0020100F105000CBFEA
S11360904FF07F094FF00009C047636833443A4624
S11360A0586802210730C047636833444A46586839
S11360B002210930C04763683344022158684FEA1B
S11360C049021530C047636813481E445FFA8AF1D9
S11360D0F36883F80090174B984700232B70164BF6
S11360E0984709E7154A00261E70537A013303F0D6
S11360F003035372537A527A63685868104B02212F
S113610007309847314620460A4B984714E700BFAA
S11361103E060020417D0000DC1C00200080004180
S11361204F7D000000030020BD7C00002C100020E7
S113613000120020A1790000C55E0000E81C0020C8
S1136140917400002DE9F0410B4F0C4C0C4E0D4D99
S113615000223B4611462046B04700223B461146EA
S11361602846B0472046084C0021A047284623462D
S11361700021BDE8F0411847E55E00002C10002026
S1136180817C000000120020717C00002DE9F047A2
S11361901021064698B0304B30489847304B1121B7
S11361A030469847736863B3002425464FF00208CD
S11361B05FFA84F90CAF3CBB032364220393652389
S11361C08DE80C000294042302222649DFF8B0A0D3
S11361D010A8D047244B10A898478DE88001C3B27B
S11361E010AA49463046214F8DF830508DF8315071
S11361F0B84730B90134112CDAD11D4B98471D4BE7
S1136200984718B0BDE8F0871B4BBE4603F1100C4D
S113621018685968724603C2083363459646F7D135
S113622003233A190B930A9512F8012C069304934D
S1136230631E0992029363229023089201930795A7
S1136240CDF8148003950095002302220B49DFF852
S113625030A010A8D047BDE7615D0000F4350020F0
S1136260DD780000EDEA00008DDC0000F578000028
S113627045610000C55E0000DDEA000002EB00009D
S113628035DC000010B5084B084C4FF400129A613D
S11362902046074B98472046064C074A0749A44620
S11362A00823BDE81040604700800041200F002013
S11362B0C1800000FD800000BD17002010030020F5
S11362C0B54B2DE9F74F4FF40012B44C5A614FF01F
S11362D000095FFA89F35A08B1498E5C03F00102A0
S11362E092001641AF4AF6B212F8092006F00F07E1
S11362F0974200F00081AC4AAC4D1370237805EB53
S11363000312B90850788842C7F3400706F0010623
S11363103CD0DFF8C4825170012090701A18D8F86C
S11363200430DFF8BCA203EB02130221DA685868D8
S11363301278002A0CBF9022802200F105000CBFC5
S11363404FF07F0B4FF0000BD0472278D8F80410A1
S113635001EB0211486902210730D0472178D8F8AF
S1136360042002EB0112022150695A460930D04739
S11363702278D8F8043003EB02134046DB6983F833
S113638000B021788A4B0131C9B2984721780B01BA
S1136390EA18527BBA4200F0E780B74214BF4FF0CC
S11363A0FF384FF001082B44824A5F739E73B8F1A3
S11363B0000F00F01F8105EB01137F4899697F4EA0
S11363C090470090009B7E48B3F5C87F84BF4FF48C
S11363D0C8730093009B132B9CBF14230093009B52
S11363E0009A02FB1300774B984769A3D3E9002373
S11363F0B0470022744B754EB047754B98472678CA
S1136400744BC7B26C48984705EB061607FB088324
S1136410B060B8F1FF3F9EB232B2217840F0A7805D
S113642005EB0113D878D04255BF80190022D870EB
S1136430DA70694E694B1131C9B2304698472278F7
S1136440736803EB0213D3F81C31002840F09D80DD
S113645018704023227808FB0738736802F1110191
S113646003EB01135FFA88F8D9680978414542D0F3
S113647058685B4F05EB02150221B0220530ED7818
S1136480B8472278736803EB02130221D3F814018E
S11364900730B8472278736803EB02130221D3F85C
S11364A0140142460930B847227873684A4803EB1E
S11364B002136D00D3F81C3183F800802178DFF8D3
S11364C0F0801131C9B2C0472278736803EB02131C
S11364D0EDB2D3F814022A4602210930B8472278D3
S11364E073683D4803EB0213D3F81C321D70217806
S11364F02131C9B2C04709F10109B9F1100F04F102
S113650001047FF4E6AE01A8364B9847224BD3F83A
S11365100011D3F82021D3F81041334B54400C40E0
S113652001A8544098472C494B68DB681A78C4F397
S1136530C02494420C460FD0294E1D4D002A40F031
S1136540AD8001221A70636858680221002203306A
S1136550B04700212048A847244B00221A70244B3E
S1136560984703B0BDE8F08F4FF000081BE7B8F17F
S1136570010F7FF45EAF05EB0110C3781A447F2A44
S1136580D4BF9B197F23C37053E71B7862E700BF16
S1136590000000000088E340008000411E0300204A
S11365A0BD170020A81700209017002020380020D5
S11365B0A1790000B1730000E81C0020F9D50000A7
S11365C000710200B9D200000000F03F41D0000089
S11365D0C9D70000AD730000DC1C002099790000CD
S11365E091740000417D00004F7D000020360020A2
S11365F085620000996833489047C8287FF67BAFCE
S1136600237805EB0312D678402E1CD92E4F013E79
S1136610F6B2D6707A6802EB03137600D3F814024C
S11366202A4BF6B2324602210930984722787B6819
S113663003EB02133846D3F81C321E702178244B26
S11366402131C9B29847237805EB0312D6783F2E3F
S11366501CD81D4F0136F6B2D6707A6802EB0313CC
S11366607600D3F81402194BF6B2324602210930EF
S1136670984722787B6803EB02133846D3F81C3220
S11366801E702178124B2131C9B2984726780D48E3
S1136690104B984705EB0615A8602CE7094A00271C
S11366A01F70537A013303F003035372537A527AFF
S11366B04B68586802210730B04739462046A8473E
S11366C041E700BFE81C0020DC1C0020917400009E
S11366D0A1790000AD7300000F4B4FF4001210B508
S11366E05A610E4C9A604FF080429A620C4A9A6248
S11366F0032120460B4B98470B490C4B20469847E7
S11367000B490C4B2046984720460B4A0B4B002163
S1136710BDE81040184700BF00800041200F002052
S1136720200000C0E5800000801A0600CD80000033
S1136730A417002061810000C162000045810000AF
S11367402DE9F04331230370074691B04FF44470B0
S11367502B4B2C4E98470024786025464FF00209B5
S11367605FFA84F80323002C30D164220393652359
S11367708DE80C00029404230222234908A8B047A0
S1136780224B08A8984707AB009341460346CDF82F
S1136790049008AA3846DFF890808DF81C50013424
S11367A08DF81D50C047312CDAD1194B00210A0154
S11367B0D15401311029FAD1164B17489847174B79
S11367C09847174B984711B0BDE8F083B8F1100F04
S11367D0049303950AD8631E0293902301930095B2
S11367E0002302220F4908A8B047C9E7B8F1200FD7
S11367F0F1D9A4F121020292632201920095F0E7FB
S113680051D8000035DC0000EDEA00008DDC00000A
S113681020380020615D0000F4350020D9660000B6
S1136820856200001AEB0000F578000010B5044CF6
S11368300448A04723460448BDE81040184700BF59
S1136840317D00002C100020001200200000000008
S11368502DE9F74FA04A137833B913780133DBB22B
S1136860137003B0BDE8F08F01A89C4B9C4C984773
S11368709C4BD3F80011D3F82021D3F810519A4B34
S113688055400D4001A8554098476368DB6885F47E
S113689000651A78C5F3C025954204D0002A40F05B
S11368A0FF8001221A700023ADF80030ADF80230E9
S11368B08E4B8F491A788F4F8F48DFF854B2DFF828
S11368C054A2DFF8549208324FF6FF788E5C1A789F
S11368D0D2B2F6B28D5C1A780132D2B21A701A783A
S11368E002F007021A701A7812F0010F7D4A4FF471
S11368F0002114BFC2F81811C2F814111A7812F04A
S1136900020F784A4FF4801114BFC2F81811C2F86C
S113691014111B7813F0040F724B4FF4001214BFC0
S1136920C3F81821C3F81421002102236A46B8478A
S113693002230DEB030200217048B847BDF80000A4
S1136940D84763A3D3E90023D047C847404528BFAD
S11369504046ADF800000746BDF80200D8475CA3E6
S1136960D3E90023D047C847EDB24045A5F1080359
S113697028BF4046012BADF8020040F28B800D2E5B
S113698040F2CC8042F210739F428CBF00227F22DF
S113699098428CBF00237F2306F18057ADF8023064
S11369A0033F6368ADF800203F013B44BDF800108D
S11369B0DA681278914230D05868DFF85081002AA2
S11369C00CBF902280224FF0020100F105000CBFA1
S11369D04FF07F094FF00009C04763683B443246DB
S11369E0586802210730C04763683B444A465868E8
S11369F002210930C04763683B44022158684FEACA
S1136A0049021530C047636835481F44F11EFB68CE
S1136A10C9B283F800903A4B984705F18057033F79
S1136A206368BDF802103F013B44DA681278914272
S1136A3030D05868DFF8D480002A0CBF902280221E
S1136A404FF0020100F105000CBF4FF07F094FF039
S1136A500009C04763683B44324658680221073046
S1136A60C04763683B444A46586802210930C0471E
S1136A7063683B44022158684FEA49021530C04715
S1136A8063681F44E91EFB68C9B283F80090144888
S1136A901B4B9847104A002313701A4B9847E0E6A3
S1136AA0194A00251D70537A013303F0030353720E
S1136AB0537A527A63685868144B02210730984716
S1136AC0294620460E4B9847EDE600BFAFF3008001
S1136AD07B14AE47E17AF03FBC170020417D0000F3
S1136AE0DC1C0020008000414F7D0000F0350020B8
S1136AF02F030020BD7C00002C1000200012002079
S1136B00A17900002D680000E81C002091740000A9
S1136B10D9D20000A5D30000C9D70000012DDFF8A9
S1136B20E0905DD8A8EB07013046C847BDF80210D5
S1136B30A8EB01012846C8472C4F3046B84740B35C
S1136B40072130462A4B984706F1010A63684FEA49
S1136B500A194B448046586832460221254E0730B4
S1136B60B04763684B445FFA88F2586802210930E1
S1136B70B047636899444FEA4802D9F804000221F7
S1136B8002F0FE021530B0475FFA8AF11A481B4B37
S1136B9098472846B84700283FF47CAF0721284689
S1136BA0134B98476F1C63684FEA07184344064623
S1136BB058682A4602210F4D0730A84763684344AA
S1136BC0F2B2586802210930A8476368434472004E
S1136BD05868022102F0FE021530A847F9B256E7C0
S1136BE039463046C847BDF80210A3E73D500000BF
S1136BF04D50000091740000DC1C0020A1790000BD
S1136C006D4F00002DE9F0410B4F0C4C0C4E0D4D17
S1136C1000223B4611462046B04700223B4611461F
S1136C202846B0472046084C0021A0472846234662
S1136C300021BDE8F0411847516800002C100020E5
S1136C40817C000000120020717C00002DE9F043DB
S1136C500D2197B02D4B2E4EDFF8D480DFF8D49061
S1136C600746984700253B78ECB2A34210D80E2281
S1136C7007230521274C1020A0470C21264B274829
S1136C809847274B9847274B984717B0BDE8F083A0
S1136C90FCB903236422039365238DE80C0002945A
S1136CA00423022249460EA8B0471F4B0EA898475A
S1136CB000238DF834308DF83530022301930DAB69
S1136CC000932146C3B20EAA3846184CA04701359A
S1136CD0C9E70321082C4FF063024FF0000304F1CD
S1136CE0FF300B9106910491089294BFB02190213A
S1136CF002220990029001910A930793059203934B
S1136D00009341460EA8B047CFE700BFDD780000EE
S1136D1035DC0000294F0000615D0000F4350020DF
S1136D20056C00002D6800008DDC0000F578000083
S1136D3002EB0000EDEA000010B5044C0448A04743
S1136D4023460448BDE81040184700BF317D0000C9
S1136D502C100020001200202DE9F74F8E4A1378E2
S1136D60154633B913780133DBB2137003B0BDE8B1
S1136D70F08F01A8894B8A4C98478A4BD3F80011AD
S1136D80D3F82021D3F81061874B56400E4001A858
S1136D90564098476368DB6886F400661A78C6F341
S1136DA0C026964204D0002A40F0DA8001221A70EC
S1136DB00023ADF80030ADF802306B787B4ADFF881
S1136DC010827B48DFF80CB2DFF80CA208330021F4
S1136DD0D75C6B78DBB2FFB2D65C6B780133DBB285
S1136DE06B706B7803F007036B706B7813F0010F13
S1136DF06C4B4FF4002214BFC3F81821C3F81421BC
S1136E006B7813F0020F674B4FF4801214BFC3F872
S1136E101821C3F814216B7813F0040F614B4FF45D
S1136E20001214BFC3F81821C3F8142102236A46C0
S1136E30C04702230DEB030200215E48C047BDF8A2
S1136E400000D84752A3D3E90023D0475A4B9847B0
S1136E504FF6FF78404528BF40468146ADF8000014
S1136E60BDF80200D8474AA3D3E90023D047524BC8
S1136E709847404528BF4046ADF80200DFF85C81E2
S1136E804946F6B23846C047BDF802103046C047FE
S1136E903846DFF84C81C04768B307213846474B72
S1136EA0984707F1010B63684FEA0B194B445FFAEB
S1136EB080FA58683A460221414F0730B847636860
S1136EC04B445246586802210930B84763684B4422
S1136ED04FEA4A02586802F0FE0202211530B84710
S1136EE0384B2F485FFA8BF1984763689944D9F877
S1136EF00C3083F800A03046C04760B30721304609
S1136F002E4B984706F1010963684FEA09173B4481
S1136F105FFA80F8586832460221294E0730B0479C
S1136F2063683B444246586802210930B0476368AD
S1136F303B444FEA4802586802F0FE020221153031
S1136F40B047204B16485FFA89F1984763681F449D
S1136F50FB6883F8008000232B701B4B984705E7E0
S1136F601A4A00261E70537A013303F00303537246
S1136F70537A527A63685868114B02210730984754
S1136F80314620460F4B984712E700BFAFF300800D
S1136F907B14AE47E17AF03F40060020417D0000BB
S1136FA0DC1C0020008000414F7D00003F030020D6
S1136FB02C10002000120020C9D700004D50000002
S1136FC091740000A1790000396D0000E81C0020D4
S1136FD0BD7C0000D9D20000A5D300006D4F000095
S1136FE03D5000002DE9F0410B4F0C4C0C4E0D4D63
S1136FF000223B4611462046B04700223B4611463C
S11370002846B0472046084C0021A047284623467E
S11370100021BDE8F0411847596D00002C100020F4
S1137020817C000000120020717C00002DE9F043F7
S1137030112197B0284B294F8146984700242546B3
S113704002265FFA84F80323002C2FD164220393D1
S113705065238DE80C0002940423022220490EA823
S1137060B847204B0EA898470DAB00934146C3B2D6
S113707001960EAA4846DFF888808DF83450013412
S11370808DF83550C047112CDBD10E220723052182
S1137090154C1020A0471021144B15489847154B48
S11370A09847154B984717B0BDE8F083621E0B93C1
S11370B0632106930493B0230992089102920193E9
S11370C00A950795059603950095002302220B491E
S11370D00EA8B847C5E700BFDD78000035DC000026
S11370E0EDEA00008DDC0000294F0000615D000026
S11370F0F4350020E56F0000396D000002EB00005C
S1137100F578000000F01F034009C00100F182403F
S113711000F5004001229A400344426093F8401075
S113712041F0040183F84010826170478389283359
S113713000F12802034400219A4201D18181704761
S113714002F8011BF8E700000148024B184700BF92
S1137150982100202D7100000148024B184700BF00
S1137160BC2600202D7100000148024B184700BFC7
S1137170E03000202D7100000148024B184700BF89
S1137180801200202D710000807A030103F18243F4
S113719003F5204300211A6C22F002021A64014B09
S11371A0184700BFE99000000148024B184700BF90
S11371B080120020897100000148024B184700BF6B
S11371C0E0300020897100000148024B184700BFDD
S11371D0BC260020897100000148024B184700BFFB
S11371E098210020897100002DE9F0415C201B4C9E
S11371F0DFF8A4801A4F1B4E1B4DA0475020A04718
S11372004C20A0472920A047184C194A0121404688
S1137210A047184A01213846A047174A01213046A1
S1137220A047164A01212846A047154C1549404657
S1137230A04715493846A04714493046A047144989
S11372402846A047134C4046A0473846A04730463E
S1137250A04728462346BDE8F041184705710000C1
S113726058100020B011002060110020C1840000DB
S113727079710000697100005971000049710000C2
S1137280B9840000E41C0020A8260020CC2B002098
S11372901C360020A9840000AC100020F7B5436818
S11372A0847A0F46196A104B054628312046164643
S11372B0984705F5207120460C4B984739462046DF
S11372C00B4B9847214601A80A4B9847019B012282
S11372D01E6020460021084B984700212046074B9A
S11372E0984703B0F0BD00BF79900000699000009A
S11372F0A59000002591000041900000E990000055
S113730010B5104A104C11484FF41671A047104A9A
S113731010484FF41671A0470F4A10484FF41671E5
S1137320A0470F4A0F484FF41671A0470E4B002296
S113733083F81F2383F8202383F8212383F822234F
S113734010BD00BFA97100009D72000080120020D2
S1137350B9710000E0300020C9710000BC26002093
S1137360D97100009821002000E100E010B500224E
S1137370C823642132248372C374047303740475B0
S11373804375427281738274C272C17341734274D1
S1137390034B9847034B9847034BBDE810401847ED
S11373A0C1520000E9710000017300008069704758
S11373B08069884296BFC943401A40187047836960
S11373C0013383617047007A70470023037270476A
S11373D0837963B9808840087D380028B8BF40426B
S11373E0C0F17D00022390FBF3F0C0B27047012B83
S11373F006D18088FA23B0FBF3F040F30000F4E7F1
S1137400022B05D1808864288CBFFF2000207047A0
S1137410704710B5C370BDF80C30838001249DF80B
S11374200830047241708270837110BD40787047D7
S113743080787047C0787047A0F130030246D8B214
S113744009280CD9A2F16103052B03D8A2F1570036
S1137450C0B2704711B10A700020704708467047E7
S11374602DE9F0410139DFF82480174606468C00E7
S11374700025231D02D12846BDE8F081394616F8BF
S1137480010BC047A0400544043CF2E739740000F6
S113749030B585B0094B05460C4601A80849984704
S11374A00023DAB2944201D805B030BD1A1B01A9F9
S11374B00A44127AEA540133F3E700BF35DC0000D2
S11374C033EB00002DE9F74F304E3368013358D1C8
S11374D02F4C304B304FDFF8CC904FF40055C4F8AC
S11374E088504FF48042C4F8A8304FF04043C4F8A9
S11374F0A830C4F888204FF04022C4F8A820C4F86B
S1137500A8304FF40043C4F88430244BC4F8A830A6
S1137510A3F18023C4F8A8300120C4F89450B847DC
S11375204FF0000AD346A8460120C4F89880B84713
S113753001A8C847D4F88020D4F8A030D4F89050DB
S11375405D4015405D4001A8154B98472B0441BF91
S1137550012303FA0AF343EA0B0B5FFA8BFBBAF13C
S1137560070F07D04FF48045C4F898500120B8475E
S1137570C4F894500AF1010ABAF1080FD4D1C6F83C
S113758000B0306803B0BDE8F08F00BF50030020A6
S11375900080004100200040997D000000800240EE
S11375A04F7D0000417D00002DE9F04F514B85B027
S11375B00C4606469847FF2C039041D17472DFF8BD
S11375C040814D4EDFF84091002730464B4B9847A1
S11375D0FDB2A84202D805B0BDE8F08F039BDFF8E6
S11375E024A1C02B1AD100244FF0FF0B23462246BE
S11375F0294630468DE81008C047052300930194BE
S11376002346224629463046C847019400945B46E7
S1137610002229463046D0470137D6E70623019396
S11376200093002229463046C0473F23019300932C
S1137630002229463046C8477F2301930093E7E799
S113764004F0030400232C4DDFF8BCB074720293E1
S113765028462A4B9DF808409847A042BBD9039B73
S1137660C02B22D14FF000084FF0FF094346424699
S1137670214628468DE80003214FB847052300938F
S1137680CDF804804346424621462846D847CDF8E3
S11376900480CDF800804B46214600222846194C30
S11376A0A047029B01330293D2E7737A144F334409
S11376B0002293F812A093F80E9093F80A804FEAF0
S11376C05A1301934FEA5913009321464FEA581372
S11376D02846B8474FEA5A0301934FEA59030093E7
S11376E000224FEA580321462846D8478DE8000671
S11376F04346D1E7C5740000F4350020F959000071
S11377002D5A00006D5A00004D5A000010B5024673
S113771000230339141AA14201D8184610BD12F8E7
S1137720014B6340F6E70000CB1E18440221014BD5
S1137730184700BF9174000007B502AA002302F89D
S1137740013D0221034B04309847C0B203B05DF8F9
S113775004FB00BF6174000007B502AA002302F80D
S1137760013D0221034B06309847C0B203B05DF8D7
S113777004FB00BF6174000007B502AA002302F8ED
S1137780013D0221034B08309847C0B203B05DF8B5
S113779004FB00BF6174000007B502AA002302F8CD
S11377A0013D0221034B0A309847C0B203B05DF893
S11377B004FB00BF617400000A4604300221014B3F
S11377C0184700BF917400000A4606300221014B9D
S11377D0184700BF917400000A4608300221014B8B
S11377E0184700BF917400000A460A300221014B79
S11377F0184700BF9174000000F11C039C3053F83B
S1137800042B8A4203D08342F9D10020704701201F
S1137810704790F89C30013303F01F0380F89C30CC
S113782000EB8300C16170477FB5264B264D0446AB
S1137830984701238DF800300E238DF8013007237B
S11378408DF80230637A8DF80330042230238DF8EA
S113785004308DF805308DF806308DF807308DF83A
S113786008308DF809308DF80A308DF80B308DF81A
S11378700C208DF80D3002468DF80E3008210A23B5
S113788001A88DF80F30A847104B1021684698477F
S113789004F59B64024602210DF10D00A847102156
S11378A020460B4B984758B10A4E00251DF8051089
S11378B020460135B047102DF8D12046064B984795
S11378C004B070BDC5740000917400000D77000011
S11378D0CD500000F95000001551000038B50446A1
S11378E0034B08010D4698472570606038BD00BF02
S11378F051D800002DE9F84F90464268DDF82CB0CD
S1137900DFF870A00F0102EB07090024D4550646E6
S113791089F80130184689F808B0D047C9F804003E
S113792005465846D047C9F80C00FDB1F0B12346CE
S113793071683944581C4A78DBB29A420AD8002349
S113794072683A44581C117ADBB2994208D8002074
S1137950BDE8F88F4A6818F80340D4540346E7E7B3
S11379600A99D268C95CD1540346E9E7FF20BDE80F
S1137970F88F00BF51D8000010B5436803EB011124
S1137980002348785C1CDBB2834200D310BD4868F6
S1137990C05CD0542346F4E709014368585C70473F
S11379A00901436801225A547047090143680022BF
S11379B05A5470472DE9F04F03680F2BCDB0804621
S11379C004D9013B03604DB0BDE8F08F0BB1013B1E
S11379D00360484FDFF858A197F89D203B78049343
S11379E00CAD7F2317210026059103930293019286
S11379F00F230122404900962846DFF838B1D047CA
S1137A002846D84706975F46DFF82CB1CDF81CA06E
S1137A100446B1469BF800305FFA86FA9A4544D38F
S1137A20B9F1000FCFD0D8F80030069A33495B0083
S1137A300A33C8F80030069B93F89D3001332E19A1
S1137A40DBB282F89D3030460422079B98473046CB
S1137A50B847044422462A49079B0AA898479DF838
S1137A602830AB709DF82930EB702B19254A264934
S1137A7018469047B84704442146244B2846984763
S1137A802146C2B2224B28469847A1B22148224B34
S1137A909847002897D01F4FDFF8A0800026A64201
S1137AA023D11E4B1B4898478DE7C82C1BD81C4B71
S1137AB009A89847DBF804204FEA0A13D35C7BB18A
S1137AC02A195146174B5846984751465846164B63
S1137AD098472819B84709F101095FFA89F904445C
S1137AE009A8124B9847013694E7A95D3846C04768
S1137AF00136D4E7E81C002018EB0000FFEA000080
S1137B0038EB00007DDC00003DEB00000D77000049
S1137B1029770000BC1C0020CD5000001551000046
S1137B20417D000079790000AB7900004F7D0000B1
S1137B3035DC00008DDC0000DC1C0020F950000066
S1137B40836903B118477047C36903B11847704785
S1137B502DE9F14F036AD0F828805C5CDFF854907B
S1137B6004EB4404E40008EB040505F1040A0646AA
S1137B700F465046D1B29346C84730460C4B9847FF
S1137B80012806D94FEA1B215046C847AB8A013366
S1137B90AB82AB8A0133AB8258F804302BB139463F
S1137BA0304601B0BDE8F04F184701B0BDE8F08F92
S1137BB0198E0000398B000070B50446FF260020A2
S1137BC0C5B201305655C5B2AB42F9D284F824305F
S1137BD09DF8103084F82530059BA362226220466C
S1137BE0044B984728B9044BA360044B2360044B0F
S1137BF0636070BD598D0000517B0000417B000023
S1137C00497B0000F8B50F46D0F820E011461EF875
S1137C100720FF2A05461AD190F8242000200446A4
S1137C20C6B2964216D995F82520A2421AD304EB7F
S1137C304406A86AF60030441A4604300B4B9847B1
S1137C4028B92B6ADC55AB6A1E44B082F8BD6FF0CC
S1137C500C00F8BD1EF80660FF2E1CBF0134E4B210
S1137C600130DDE76FF01B00F8BD00BFFF8A0000A4
S1137C7008B5024B9847002008BD00BF0D8E0000D8
S1137C80012A38B513D004D3022A12D06FF00C00A5
S1137C9038BD046A856A645C04EB440445F83430F6
S1137CA0003318BF0123044CA047002038BD836172
S1137CB0F6E7C361F4E700BF458E00002DE9F34702
S1137CC004461F46154BDFF864A00D4690469847BE
S1137CD0236A5D5DA36A05EB450503EBC50501A8B1
S1137CE00F4B2E1D98470F4B304698470E4B81463D
S1137CF001A898470024A145A2B201D0BC4206D1F4
S1137D00AB8AA0B29B1AAB8202B0BDE8F08708EB45
S1137D1004013046D0470134EDE700BF198E00005E
S1137D20417D00005F8B00004F7D0000178B000039
S1137D3008B5024B9847002008BD00BF2D8E0000F7
S1137D40EFF31083036072B6BFF35F8F7047BFF326
S1137D505F8F036883F3108870470000004B184757
S1137D6061910000014B1860014B18474406002044
S1137D709DA30000054B10B51C68054B9847054BA7
S1137D8001462046BDE81040184700BF44060020C5
S1137D90B18E0000B1A30000054B10B51C68054B63
S1137DA09847054B01462046BDE81040184700BFE0
S1137DB044060020B98E0000B1A30000004B184710
S1137DC069910000436903B118477047836903B19F
S1137DD01847704710B5044B0446984718B9034B2D
S1137DE02360034B636010BD39920000C57D000021
S1137DF0CD7D00001FB5838AADF804304FF40043F5
S1137E00ADF806300391054B029201A928381446B7
S1137E109847002808BF204604B010BD359D0000D7
S1137E201FB5838AADF8043048F20103ADF806307B
S1137E300391054B029201A928381446984700285B
S1137E4008BF204604B010BD359D00004288D2050D
S1137E5002D4436B03B1184770474288D20502D459
S1137E60836B03B1184770474288D20502D4036B71
S1137E7003B118477047000070B50C4B044698478F
S1137E80054680B90A4BE3620A4BA3620A4A0B4EC9
S1137E9001212046B0470A4A02212046B047094A38
S1137EA029462046B047284670BD00BFD19C00003B
S1137EB0217E0000F57D00004D7E0000F59D000050
S1137EC05B7E0000697E000003681847436818471A
S1137ED0004B1847F593000010B51023002484616B
S1137EE04161C261046203720121024B2038984748
S1137EF0204610BD15A1000038B50025A0F12004CE
S1137F001023C2618161456105620372012120462B
S1137F10044B984740F2FF112046034B98472846EC
S1137F2038BD00BF25A1000045A1000070B50C4B71
S1137F3004460E460021051F98470021094B2046A0
S1137F409847094B002120469847002384F828309D
S1137F50236B23B131462846BDE87040184770BDF5
S1137F6015A1000025A1000035A10000026CC36B1F
S1137F709A4210B504460BD3064B002198470023C0
S1137F8084F82830E36A1BB1201FBDE8104018476D
S1137F9010BD00BF35A1000070B5866B1A4B0446B6
S1137FA0EEB10279056C012A05F10102026412D8CE
S1137FB098477055216CE36B994217D2626B134B4F
S1137FC092B12079012894BF515C32F811102046F7
S1137FD0BDE870401847984726F81500EAE7984727
S1137FE0236C01332364E5E7E188F0E7084B0021C3
S1137FF020469847002384F82830E36A1BB1201FE9
S1138000BDE87040184770BD4DA1000045A10000B7
S113801025A1000070B50379416B0D4A012B036C57
S113802003F101050446056494BFC95C31F81310DB
S11380309047226CE36B9A4209D100212046054BFC
S1138040984720460121044BBDE87040184770BD95
S113805045A1000015A1000035A1000070B504463B
S1138060064644F8041F0E4B20469847002815DBAB
S11380700C4D0D4A00212046A8470C4A01212046F8
S1138080A8470B4A02212046A8470A4A0321204652
S1138090A847094BB362094B7362002070BD00BF4F
S11380A059A0000055A1000015800000997F000030
S11380B06D7F00002D7F0000F97E0000D97E000056
S11380C00430014B184700BFE5A0000090F82C30A5
S11380D0DB0602D40430024B18476FF003007047EC
S11380E001A1000090F82C30DB0602D40430024BCE
S11380F018476FF003007047F9A0000070B50446FC
S1138100C263A163036400234364051D102380F844
S11381102C300E46094B012128469847084B56B18E
S1138120227A012A626C94BFB15C36F81210284698
S11381309847002070BD6189F9E700BF25A10000C0
S113814045A1000009B9026370474263003218BFB9
S1138150012203210430014B184700BF5FA1000036
S1138160243008600020704710B4044C1346A44621
S113817000221C385DF8044B604700BFA5A2000034
S113818010B4044C1346A4460A461C3800215DF87A
S1138190044B6047A5A2000010B5054B044640F807
S11381A0041F984718B9034B6362034B236210BD45
S11381B071A1000081810000698100000430014B3D
S11381C0184700BF35A200000430014B184700BF18
S11381D041A200002030086000207047F0B5056817
S11381E01DB90F4BBDE8F0401847D1F808E02C4604
S11381F00026C2F1010C6368A768934295BFDB199E
S113820063449B1ADB19734507D22368264613B9C6
S11382103046044BE6E71C46EDE7A542F8D1E0E71B
S1138220CB8A0000D38A00002DE9F0470669037E5B
S113823044690136DA070546066110D4037E9B07BC
S11382400DD4DFF84880DFF8489000F1140724B11A
S11382506368A268F31A934207D2BDE8F0872B7EC5
S113826043F002032B76BDE8F0873846C047237CF1
S1138270012B04D16660324621463846C847D5F8FA
S113828014A0E368204698475446E0E7F38A0000C8
S1138290DD81000010B51368044640F8042B9847AC
S11382A00020024B6061636010BD00BF29820000A2
S11382B0036870B5061D05469B6930469847044619
S11382C028B92B6830469B689847204670BD6FF0EC
S11382D0100070BDF7B5037F00F1180643F00103E9
S11382E003770446154B30460F469847054638B188
S11382F0237F03F0FE0323776FF0110003B0F0BD7A
S113830062690F4B7A60304639469847237F03F001
S1138310FE032377207F10F00200EFD001A8094B61
S11383209847237F03F0FD0323772368201DDB692F
S1138330984701A8044B98472846DFE7BD8A000008
S1138340DD810000417D00004F7D000003460022D6
S11383509A62DB69083803B1184770470346002264
S11383609A625B6A083803B11847704770B50446CF
S1138370054BA0F108052C309847236A1BB1284609
S1138380BDE87040184770BD398B000010B5B0F8D7
S11383904C301446B0F844209A420CD10023A0F883
S11383A0443001238164A0F84C4003630830034B3C
S11383B09847204610BD6FF01B0010BD8F9C000035
S11383C0838FB0F844209A4210B504460AD0026C58
S11383D0591C8187D15C044B9847044B2046BDE867
S11383E010401847024BFAE7639C00008F9C000082
S11383F0979C00002DE9F74305460F4BDFF84490A6
S113840001A834358846164698470C4B28469847A9
S11384100B4B074601A898470024A74201D0B44259
S113842003D1A0B203B0BDE8F08308EB04012846F1
S1138430C8470134F1E700BF417D00005F8B0000B5
S11384404F7D0000178B000038B504460D463430CC
S113845011461A460C4B984790B9294604F1080076
S11384600A4B984770B90A4B63600A4B23600A4B66
S1138470A3600A4BE3600A4B23610A4B636138BD76
S11384806FF00C0038BD00BFFF8A0000D19B0000D4
S1138490F58300008D830000C18300006D8300001C
S11384A04D8300005D83000008B50830014B9847F8
S11384B0002008BD499C00000860002070470000AF
S11384C0012908B50FD004D3022912D06FF00C0093
S11384D008BD8262003218BF012201210830084B16
S11384E09847002008BD4262003218BF01220221D1
S11384F0F4E7C262003218BF01220321EEE700BF95
S11385009F9C00002DE9F8430F4C0F46164600F1DE
S11385100805A1462846A0470028FBD0DFF8308094
S11385200024395D2846C0472846C8470028FBD0A8
S11385300134B442F5D3054E2846B0470028FBD099
S11385402046BDE8F88300BF719C00007B9C0000BE
S11385505D9C00002DE9F843DFF82890DFF82880BF
S11385600F461646002400F108052846C84700288F
S1138570FBD02846C04738550134B442F5D32046D1
S1138580BDE8F883859C0000699C000010B5054B8C
S113859004460830984718B9034B6360034B2360C3
S11385A010BD00BFC59B0000558500000585000077
S11385B008B50830014B9847002008BD359C0000E1
S11385C00A4970B5002300F00F065D014C195AB238
S11385D06478844208D06D5C0DB9A64204D001339E
S11385E00D2BF2D14FF0FF32104670BD480600202B
S11385F00020704770B5094B04460D469847084B58
S113860003EB40108378032B05D183692946204668
S1138610BDE870401847002070BD00BFC185000050
S1138620480600202DE9F0433C4B3D4C85B0804684
S11386300F469146984703464601002F49D1A51994
S1138640A15DEF7000293BD1AA786878EE69032A0E
S11386504FF00C0E4FF020022BD112FB03E2224408
S1138660012195F90C70B0476B7878B10522002F81
S1138670AA704FF00202B4BF184643F08000EA70BB
S11386800121284B984705B0BDE8F083002FACBF0B
S113869043F0800303F00F0304228DF80C30012310
S11386A0019002908DF80D30AA7001A81E4B9847D6
S11386B0E9E712FB03E22244B0470223AB70E2E78E
S11386C00123AB7034444A46E369E1784046984755
S11386D0D9E7012F04EB06030BD1A15D0222DA7066
S11386E021B99A7040460F4B9847EBE705229A70E0
S11386F0E8E7022F07D10422DA70A25D0AB99F705D
S1138700C1E70122F3E7032F09BF002206229A7072
S1138710052218BF9A70DA70D4E700BFC185000043
S11387204806002041B3000079B400002DE9F04769
S11387301D4B1E4E1E4C0546984720270C2317FB45
S1138740003737448146394628461A4B9847C0B209
S1138750082865F07F0809D001212846A047012197
S11387605FFA88F02346BDE8F047184706EB491640
S1138770002128465FFA88F8A0474FF0010900213C
S11387804046A04786F802907369394628469847C0
S113879038B905234946B3702846A04749464046A0
S11387A0E0E7BDE8F08700BFC1850000480600206F
S11387B041B3000025B4000010B5114B98470028C0
S11387C01CDB4FF4D07200210E4B0F4898470E4B20
S11387D00E4A03F5D071FF2058705A619A61DA612C
S11387E020338B42F8D10A4C0A490020A0470A4999
S11387F00120A04702200949A047002010BD00BF66
S113880011AF000077D8000048060020F185000071
S1138810A5B500002D870000F58500002586000021
S1138820004B184781B50000004B1847F9AF000012
S1138830004B184755B00000004B184773B00000B8
S1138840004B184767B00000F8B5104C06460D46BB
S11388501746A047002813DAFF20A047041E12DBA6
S11388603A46294630460A4B984700280DDB094B07
S113887060011A1805F003051D5456700020F8BD58
S11388806FF01300F8BD6FF01400F8BDC18500004F
S113889081B000004806002000210246014B084632
S11388A0184700BF4988000038B5074B054698476C
S11388B0041E07DB2846054B9847054800EB441087
S11388C0FF23437038BD00BFC185000041B10000E3
S11388D04806002038B50C4B05469847002810DBA5
S11388E040010A4C235C0444002B0CBF02230123E7
S11388F0A3702846064B9847002804DA0023A37087
S113890038BD6FF0110038BDC18500004806002055
S1138910C5B100002DE9F04F90F808A0364B07468A
S113892087B050469847B0F1000897F809907E68E0
S11389305DDBDFF8D4B0314B4FEA48180BEB080588
S113894002A89847AB788DF807309DF807002C4BA8
S1138950C4B2012C1CD10322AA7002A898471BF8A8
S113896008304BB319F100034FEADA1418BF01239E
S113897039683A7A03910496002C35D042F080028B
S11389808DF8153003A81F4B8DF8142098470DE07F
S113899002A898479DF80730DBB2052B2AD0062B96
S11389A007D0002B0CBF6FF01200012007B0BDE808
S11389B0F08F6FF00F00F9E7E97CAA7C02EB01224B
S11389C092B22AB90423AB70164623461C46CFE75D
S11389D095F90C10964228BF16460029F6DAB242E1
S11389E094BF00230123C3E702F00F02C8E76FF02E
S11389F01100DBE70220D9E7C1850000417D0000BA
S1138A004F7D000079B40000480600202DE9F041B4
S1138A1005460C46D9B9134B9847071E1EDB0221A5
S1138A202846114EB047D8B121462846B047002801
S1138A3016DB0E4800EB4710032101238370C1703D
S1138A40C3692246284698472046BDE8F08101299B
S1138A50054B18BF0221BDE8F04118476FF0110023
S1138A60BDE8F081C185000041B300004806002044
S1138A7038B50F4B14460D4698470E4A002C08BFD4
S1138A801446002813DB012D08D002D3022D0AD08E
S1138A9038BD094B03EB4010446138BD064B03EB72
S1138AA04010846138BD044B03EB4010C46138BDF1
S1138AB0C1850000F185000048060020006800B967
S1138AC070478842FAD10120704703680B60016047
S1138AD0704703680B600160704703681BB901604D
S1138AE00B60704713461A68002AFBD119600A60AC
S1138AF0704703680BB11A68026018467047531E2A
S1138B001A4001BF43608260C26001600CBF10461E
S1138B106FF00C0070478368C2689A4209D04268BB
S1138B2013400268D35C0B708368013383600020B8
S1138B3070476FF009007047C368426813400268C9
S1138B40D154C36881684268591A914288BF9A1AFD
S1138B5003F1010388BF8260C36000207047C268CC
S1138B608068101A70470000044B1968024609B95E
S1138B7003491960186802441A607047E807002026
S1138B80503D01204FF0FF3070474FF400534B60CD
S1138B9000207047012070470020704700280DDB3B
S1138BA04309012200F01F0002FA00F02033044AB6
S1138BB042F82300BFF34F8FBFF36F8F704700BF9E
S1138BC000E100E0002809DB4309012200F01F0056
S1138BD002FA00F06033024A42F82300704700BFF3
S1138BE000E100E0036B0B42FCD1704703889BB2A9
S1138BF043F0020303800321004B1847E58B000078
S1138C00038823F002031B041B0C03800321014B84
S1138C10184700BFE58B000000F13D40A0F5E0508F
S1138C20C0F38720431E58425841704730B442690C
S1138C3092F82E1092F82D300B4013F0010509D054
S1138C40012382F82E30B2F84020836892B20021CA
S1138C5030BC184713F0020106D0022382F82E30EC
S1138C604368294630BC18475B0704D5042382F8BF
S1138C702E300368F6E730BC704700F13D40A0F5A4
S1138C80E050800A4000763000F0FE00704700009B
S1138C9038B5036B2D4C13F0010F02460D460DD170
S1138CA00321A04703889B0703D5294B984702213A
S1138CB0A0470123138003211046A0471046012139
S1138CC0A047244B162101FB05351046AB88D38001
S1138CD040F6FF71A047AB791372104640F6FF715E
S1138CE0A047EB7993702B899380104640F6FF716F
S1138CF0A047AB7A9372104640F6FF71A047EB7A17
S1138D00D372104640F6FF71A047AB899381104699
S1138D108021A047EB89D38110464FF48071A0478E
S1138D202B8A138210464FF40071A0476B8A53823A
S1138D3010464FF48061A0472B7DD3706B8813805D
S1138D4010460321A047002038BD00BFE58B00007A
S1138D50018C000042EB00002DE9F843224B04464D
S1138D6008460D469847214B014628469847064633
S1138D70002830D11E4B65619D422FD11D4B1C60D4
S1138D801D49DFF88090DFF880801C4F2846884713
S1138D9000B2C8476069884700B2C0476069884725
S1138DA00125420900F01F0305FA03F3284447F89C
S1138DB0223000B2C84760698847284400B2C047DF
S1138DC060698847284480B2430900F01F0005FA0F
S1138DD000F047F823003046BDE8F883084B9D4275
S1138DE004BF044B5C60CBE7198C0000918C00003D
S1138DF0001C0043EC0700207B8C000000E100E035
S1138E00002000439D8B0000C58B00004069014B8E
S1138E10184700BFED8B00004369DB88C3F3C1032F
S1138E20032B0CBF01200220704700004069037D22
S1138E3043F00203037540F6FF71014B184700BF6E
S1138E40E58B0000012A416904D104223BB981F871
S1138E502C207047022AF9D01AB90122F6E781F8CA
S1138E602D207047014B1868014B1847EC07002070
S1138E702D8C0000004B1847658E0000014B58688C
S1138E80014B1847EC0700202D8C0000004B1847BD
S1138E907D8E00004309012200F01F0002FA00F059
S1138EA04033024A42F82300704700BF00E100E06B
S1138EB07823584370470000014B5843704700BF64
S1138EC0C0D4010010B50E4A0E4C13889BB243F473
S1138ED0A06313800C4B98470C4B98470C4B984756
S1138EE00420A0470B4B984740F6FB70A0470A4A62
S1138EF0136943F400731361BDE81040074B18472E
S1138F0000400041D5910000B9920000CD920000CC
S1138F102D920000D192000000080040718F0000E3
S1138F2010B4114B114C198C01F01F0103EB011308
S1138F300C224A4393F84E10C90704EB020006D5ED
S1138F40012283F84E2043685DF8044B184793F8D8
S1138F504E10890704D5022183F84E10A358F3E775
S1138F605DF8044B704700BF00A00041F4070020E7
S1138F7070B52F4B1A8822F002021204120C1A80C8
S1138F805A8822F47C521204120C5A801A8892B223
S1138F9042F001021A801A8812F00102FBD14FF448
S1138FA070611980597B234801F0FE0141F00101F1
S1138FB0597321495A615863996313461F490246FC
S1138FC01D461C0104F1824000F520400E68066431
S1138FD00E7980F845604E7980F8466001331019A7
S1138FE0CE881653202BC56001F10801E9D11F2258
S1138FF0012053099B0003F1604302F01F0103F5B4
S1139000614300FA01F1C3F88010BFF34F8FBFF33F
S11390106F8F0132242AC3F880111960E9D1044A00
S113902013889BB243F002031380002070BD00BF7D
S113903000A0004130390020303B002070EB0000DC
S113904039B9084B0001022118443AB980F84C1090
S11390507047012904D1034B0001F5E780F84D1056
S1139060704700BF00A00041024B03EB0010816079
S11390700020704730390020024B03EB00104160A0
S11390800020704730390020054A0001135A9BB272
S113909023F4806343EA812189B21152002070478E
S11390A03039002070B50F4B00011D18AE681A5AF4
S11390B01C5AC2F30122240542BF01FA02F4A41986
S11390C0AC601C1865681E5A760548BF01FA02F2A6
S11390D0034448BF521989B248BF626059800020D6
S11390E070BD00BF3039002010B502010B4CA35AEB
S11390F09BB243F00103A35202F1824303F52043E0
S11391001A6C42F002021A6431B1054A0123116952
S113911003FA00F008431061002010BD303900202C
S113912000A00041034B01EB410103EB810101600D
S113913000207047F4070020004B1847218F0000DF
S1139140004B1847218F0000004B1847218F000067
S1139150004B1847218F0000004B1847218F000057
S1139160016000207047000010B5124A124C002321
S1139170185D03F148010133432B42F82100F7D174
S11391800E48002200F14004D30003F1824303F5AA
S1139190604330F81210196214F8221083F8251075
S11391A00132C943C9B2202A83F82410ECD100202B
S11391B010BD00BF00E0004170EC0000B4EC000002
S11391C0034943F6FD734A681A42FCD1704700BF55
S11391D0001C004010B5C40704D50E4B0E4A1A6299
S11391E00E4B9847810704D50A4B0D4A5A620B4B24
S11391F09847420704D5074B0A4A9A62074B984797
S1139200030706D5034B084ADA62BDE81040034B56
S1139210184710BD001C004008010100C191000066
S1139220060101000601100004010100014B0122A6
S11392305A7170470008004001610B8823F0C00395
S11392409B049B0C0B800D4B18600D4B4FF0005191
S1139250C3F88010BFF34F8FBFF36F8F4FF080427E
S1139260C3F88020BFF34F8FBFF36F8F0020C3F884
S11392708011C3F8802119601A60704774090020B6
S113928000E100E0094B186803691A8AD20704D583
S113929001221A82036843B118471A8A92B222B192
S11392A040F25E221A824368F5E770477409002091
S11392B0004B184785920000034BDA6902F47C5294
S11392C0DA6101221A7470470014004070470000EC
S11392D03B4B1A6A22F00F0242F004021A6243F670
S11392E0FD7259681142FCD15A6812F00402FBD194
S11392F0344B1A77344A9A6293F82C2012F01002F5
S1139300FAD183F820202F4A134692F82C104907EB
S1139310FBD40221117793F82C209207FBD45A6ACC
S11393205A62284B1A4693F82C100807FBD488215C
S113933083F8201092F82C305907FBD4204B42219B
S1139340C3F88810272393641E4B1A46196D11F035
S1139350060FFBD14FF40061D964022183F8441055
S1139360136D9B07FCD492F82030164A13F0010FBA
S113937021D0136903F41063B3F5106FF9D1114BC5
S11393805A6DD10702D45A6D9207F9D50C4A114689
S11393905368002BFCD1136A23F00F0343F0080336
S11393A0136243F6FD734A681A42FCD1044A5368B7
S11393B05B07FCD470471369D805FCD5DFE700BF11
S11393C0001C0040001000400000010483680349B1
S11393D01A6811605B6803B1184770470200000106
S11393E0004B1847CD93000083689B6803B118476E
S11393F070470000F8B50546012345F80C1B0B60C7
S11394000C4B4B6004460C4B8B600C4F0C4E1F21D5
S11394102846B847E3680B4A9C601A605E601E21C8
S11394202846B847E368084A9C6083E84400002063
S1139430F8BD00BF11000006003B24002591000088
S1139440E9930000E1930000CD93000007B50C4AB6
S11394509378DBB20193019B990707D5094B1B68ED
S113946023B15068984703B05DF804FB019BDB0708
S1139470F9D5044B5B68002BF5D0014AF1E700BF36
S113948000000241303D002003690B42FCD17047CB
S1139490C068038823F002031B041B0C038048F2FA
S11394A00301014B184700BF89940000C068024BB8
S11394B001626021184700BF89940000C26808B5A2
S11394C010466021014B9847106A08BD899400003A
S11394D0C26808B5104648F20301034B9847108848
S11394E0C0F3400008BD00BF89940000704700002D
S11394F00C4B10B54FF400620446C0681A60002398
S113950083610821084A9047E06808219047E06891
S113951003889BB243F00203038048F20301BDE8D1
S11395201040104700E100E089940000074B4FF41D
S11395300062C3F88020BFF34F8FBFF36F8FC06802
S11395400123038048F20301014B184700E100E0C6
S113955089940000024638B50125D1600D4C0D8078
S1139560084648F20301A0472946D068A047D068BE
S113957048F28003038048F20301A047D0686021C9
S11395800562A047D3684FF480715981024B0020D3
S11395901A6038BD8994000078090020004870479B
S11395A054030020074B10B51C68E3689B89DB0556
S11395B007D523680BB120469847E3684FF48072BF
S11395C09A8110BD78090020002808DB4209012394
S11395D000F01F0003FA00F0014B43F8220070472B
S11395E000E100E000280DDB4309012200F01F0028
S11395F002FA00F02033044A42F82300BFF34F8FED
S1139600BFF36F8F704700BF00E100E0002809DB63
S11396104309012200F01F0002FA00F06033024AFD
S113962042F82300704700BF00E100E0C3690B4229
S1139630FCD17047C3690B42FCD17047C3690B422C
S1139640FCD17047036823F0020303600321014B3C
S1139650184700BF2D960000036823F0020303603F
S11396600321014B184700BF35960000036823F01F
S1139670020303600321014B184700BF3D9600001D
S113968070B50B4D06460FCD88B06C460FC495E8F7
S11396900F0084E80F0000205DF82030B34202D1AF
S11396A0C0B208B070BD01300828F5D10020F8E739
S11396B074ED000010B58469227ED107034608D5F5
S11396C0A27DD20705D5012222750368BDE81040AA
S11396D01847227E900709D5A27D910706D502225C
S11396E022759A681846BDE810401047227E52073A
S11396F00DD5628B02F0370212B1FF23638310BDD4
S1139700A16A5A68C9B21846BDE810401047227EC3
S1139710D209F4D080222276DA6818469047638B07
S11397209BB2EBE7114B984207D1114B1960114BD7
S1139730984204BF0E4B596170470F4B984202D1B7
S11397400B4B5960F3E70D4B984202D1084B9960DB
S11397507047B0F1864F02D1054BD9607047084B72
S11397609842E4D1024B1961704700BF00300040B9
S11397707C090020000800430034004000400141FF
S11397800004004308B5034B9847053818BF4FF051
S1139790FF3008BD8196000008B5034B9847800050
S11397A02E3000F0FE0008BD8196000008B5C269A5
S11397B012F0010208D1036843F00203036003219D
S11397C0034B9847104608BD6FF0030008BD00BF67
S11397D03596000008B5084B9847032807D007289A
S11397E007D10123054800EB0310184408BD0023EA
S11397F0F8E7002008BD00BF8196000094ED00004A
S113980008B5034B984707280CBF0820002008BD63
S11398108196000008B5034B984707288CBF0020A9
S1139820012008BD8196000083689B6803B1184736
S1139830704783685B6803B1184770478368DB68C7
S113984003B1184770470000436843F44033436052
S11398500421014B184700BF2D9600002DE9F0416B
S11398600D46574ED0F8008004210446B047438B80
S113987015F0010F9BB2374664D0990717D5012123
S11398800176518889B241F480515180518821F484
S11398908071090413F0010F4FEA1141518014BF84
S11398A06FF004056FF003052846BDE8F08113F05E
S11398B0040515D05368002BC1BF53889BB243F4F1
S11398C08053538053881F0401D53E4B98475388D7
S11398D023F480731B041B0C53806FF00105E3E732
S11398E0538813F4806715D013880421DB0903F02F
S11398F00607B047436A03F4804343F0F1033B4354
S113990043620421B047538823F480631B041B0C77
S11399105380C9E7556845B953881E0401D5294BBE
S11399209847538823F48073F0E793681B78836225
S11399300421B0479368013393605368013B53603B
S11399400025B1E715F00205AED05168002933D0E7
S1139950580731D40139C8F3C060516041B958B9CE
S1139960636843F48023636004212046B84703E01E
S1139970012901D10028F3D1536893B953881B04FA
S113998009D5636823F48073636020460421B847D3
S113999020460C4B9847538823F480731B041B0CFC
S11399A0538095686B1C936004212046B847A36AD2
S11399B02B7002232376C3E7022323768DE700BFAF
S11399C02D9600004998000038B50B680C4D23F41F
S11399D081730C4623F0010303600321A8476368E5
S11399E023F4383323F4107343F400334360172112
S11399F0A847237B0373637B80F8303038BD00BFF6
S1139A003596000070B5C26912F003020C460ED1FF
S1139A10084E0321B0470368240723F0405304F0A1
S1139A2040541C4304600321B047104670BD6FF0DE
S1139A30030070BD359600002DE9F0410C46264B1D
S1139A40264E074608469847E369254A13F0010F56
S1139A505FFA80F817D1182303FB0863032120461B
S1139A609D6C904723689B0705F01C0505D520468F
S1139A701C4B984702212046904745F0010525607C
S1139A80032120469047204601219047182303FBD9
S1139A9008662046B56C256003219047F36C63602B
S1139AA0204604219047C5F30165336DE360BD8111
S1139AB0636A012D23F4804394BF0025012543EA02
S1139AC085352046656204219047B6F85630FB81FF
S1139AD00020BDE8F08100BF8597000074ED000010
S1139AE02D960000459600002DE9F041314B0446C7
S1139AF09847054648B1012807D0022805D0042814
S1139B0056D0062814BF00250425E3692A4F2B4E9E
S1139B1013F0010F17D1182303FB057303211A6EE9
S1139B20204602F01C02B04723689B0705D5204657
S1139B30234B984702212046B04742F0010222609D
S1139B4003212046B04720460121B047182202FBDA
S1139B5005722046D2F86080C4F800800321B04723
S1139B60536E63601F212046B047936EA36018F4C0
S1139B70C04F1DBFA389B2F86C1092F86E20B2F8E2
S1139B806C301EBF61F30C03A381A3894FF018004E
S1139B9000FB057018BF62F34F33A38190F86F3058
S1139BA0A37390F8703084F830300020BDE8F08161
S1139BB00325AAE78196000074ED00003D9600009D
S1139BC06D9600000160014B08461847E99A0000B1
S1139BD02DE9F8430646114B08460C4698470546BE
S1139BE0C8B9B461314620460D4BDFF844800D4FAF
S1139BF00D4E984720460D4B98472C46814609EB5D
S1139C000401C9B20846C0470846B84701340846AB
S1139C10B047042CF3D12846BDE8F883E99A000044
S1139C20259700000D960000C99500009997000043
S1139C30E59500000068036843F002030360032114
S1139C40004B18473D9600008069036843F0020307
S1139C5003600321004B18473D9600000368996296
S1139C6070478369996270470368986AC0B2704705
S1139C700368187E00F0010070470368187EC0F383
S1139C80400070470368187EC0F380007047836902
S1139C9001229A757047836902229A75704711F000
S1139CA0FD0F09D183690221012012B918751975B4
S1139CB07047987599757047012904D18369042107
S1139CC0002AF7D1F3E70329F5D183698021F7E767
S1139CD02DE9F8430646114B31610C469847054679
S1139CE0C0B9314620460E4BDFF844800D4F0E4E6E
