:10400000103D0120ED420000E9420000E9420000BD
:10401000E9420000E9420000E9420000000000001F
:10402000000000000000000000000000E942000065
:10403000E942000000000000E9420000E9420000FF
:10404000E9420000E9420000E9420000E9420000C4
:10405000E9420000E9420000E9420000E9420000B4
:10406000E9420000E9420000E94200004D930000EF
:10407000E9420000E9420000E9420000E942000094
:10408000E9420000E9420000E9420000E942000084
:10409000E9420000E9420000E9420000E942000074
:1040A000E9420000E9420000E9420000E942000064
:1040B000E9420000D9900000AD900000298F000077
:1040C000318F0000398F0000418F0000498F0000C0
:1040D000E9420000E9420000E9420000E942000034
:1040E000E9420000E942000000000000000000007A
:1040F00000000000F5910000999B0000919B0000DA
:10410000899B0000799B0000C19B0000B99B0000C7
:10411000B19B0000A19B0000E99B0000E19B000017
:10412000D99B0000C99B0000459C00003D9C0000FD
:10413000359C0000F19B00006D9C0000659C000018
:104140005D9C00004D9C0000E99C0000E19C00008B
:10415000D99C0000759C0000119D0000099D000085
:10416000019D0000F19C0000E9420000E9420000CE
:10417000E9420000E94200000000000000000000E9
:1041800055B300005DB3000065B300006DB30000DF
:1041900000000000E9420000E9420000E94200009E
:1041A000E9420000E9420000E9420000E942000063
:1041B000E9420000E9420000E9420000E942000053
:1041C000E9420000E9420000E9420000E942000043
:1041D000E9420000E9420000E9420000E942000033
:1041E000E9420000E9420000E9420000A5A4000005
:1041F000B5A40000C5A40000D5A40000E942000059
:10420000E9420000E9420000E9420000E942000002
:10421000E9420000E9420000658C0000558C000076
:104220007D8C00006D8C0000E9420000E942000036
:10423000E9420000E9420000E9420000E9420000D2
:10424000E9420000E9420000E9420000E9420000C2
:10425000E9420000E9420000E9420000E9420000B2
:10426000E942000010B5054C237833B9044B13B173
:104270000448AFF300800123237010BDC005002067
:104280000000000028E400000C4B43B10C480D492D
:1042900010B5AFF300800C48036823B910BD0A487D
:1042A000036833B97047094B002BF7D0BDE81040C5
:1042B0001847064B002BF5D0184700BF0000000040
:1042C00028E40000C405002028E4000000000000ED
:1042D00010B5034B9847034BBDE81040184700BF8B
:1042E000294B0000E1CC0000FEE7000008B5144AAD
:1042F000144B9A4218D1144B144A002193421CD3F8
:10430000134A144B22F07F029A60D3F8882042F4BB
:104310007002C3F88820BFF34F8FBFF36F8F0E4B2F
:1043200098470E4B9847FEE70D49043A8B42E2D27C
:1043300052F8040F43F8040BF8E743F8041BDDE7D9
:1043400028E4000000000020C0050020103D0020EF
:104350000040000000ED00E0BDD40000E9B800001E
:10436000B805002030B54A1CC4B2C0F34712164845
:1043700004F01F0300EBC21007D1184490F840303E
:1043800003F0FE0380F8403030BDC5185B0895F897
:10439000402002F0FE02184442F0010285F840205D
:1043A00090F8303014F0010F19BF03F00F0343EA07
:1043B000011101F00F0103F0F00314BFC9B219435A
:1043C00080F8301030BD00BF008000410122430959
:1043D000914200F01F0002FA00F011D002D302292E
:1043E0001FD07047DB0103F1824303F5004358609F
:1043F00082B242F08042000C9A6240F040400EE0EF
:10440000DB0182B203F1824303F5004342F08042B4
:1044100042F4003258609A62054A42EA10409862BB
:104420007047DB0103F1824303F500439860DFE747
:10443000000002C0F0B5144A144E136A144D154919
:10444000154F43F080031362144B85B04122C3F82B
:104450002021134B0193002401230093324623466D
:1044600002942846B847721C2146102328460D4D59
:10447000A847214607200C4B98470C490C4B0720B6
:1044800005B0BDE8F040184700080040DC050020FA
:10449000F00F0020001C00432D7A0000001C00409B
:1044A000EC100020797A0000CD43000001000700E5
:1044B00065430000F0B5154A154E136A154D1649AF
:1044C000164F43F480731362154B85B04122C3F835
:1044D0002421144B019300240123009306F11102BF
:1044E000234602942846B84706F1120221461023BB
:1044F00028460D4DA847214642200C4B98470C49B1
:104500000C4B422005B0BDE8F040184700080040C1
:10451000DC050020C4110020002000432D7A00009B
:10452000001C0040480F0020797A0000CD430000B5
:104530000100420065430000044A054993690548AB
:1045400043F002039361044B184700BF000800408A
:1045500000200041440F0020D17B0000084B402286
:10456000C3F8AC20C3F8B020C3F8B420C3F8B82017
:10457000044A936943F080039361034B184700BFDB
:10458000001C004000080040317C0000024A136912
:1045900043F04003136170470008004010B5044B1E
:1045A000984704490448054BBDE81040184700BF30
:1045B0008D45000000400041280F0020497C00008C
:1045C000064B4122C3F89C204222C3F88C20044AA7
:1045D000536943F480535361704700BF001C00408F
:1045E0000008004010B5054C05495120A04723465E
:1045F00004495020BDE81040184700BF6543000043
:10460000030051000300500013B5074B074C9847B7
:1046100000230093064A074907481023A047074B89
:1046200002B0BDE810401847C145000015830000E6
:10463000FE050020003000401C100020E545000071
:10464000064B4122C3F8A0204222C3F88C20044A22
:10465000536943F400535361704700BF001C00408E
:104660000008004010B5054C05495B20A0472346D3
:1046700004495C20BDE81040184700BF65430000B6
:1046800002005B0002005C0013B5074B074C984723
:1046900000230093064A074907481023A047074B09
:1046A00002B0BDE8104018474146000015830000E5
:1046B0000E06002000340040701000206546000007
:1046C000064B4122C3F8DC204222C3F88C20044A66
:1046D000936943F400739361704700BF001C00406E
:1046E0000008004010B5054C05493920A047234675
:1046F00004493820BDE81040184700BF654300005A
:10470000030039000300380013B5074B074C9847E6
:1047100000230093064A074907481023A047074B88
:1047200002B0BDE810401847C146000015830000E4
:104730001E06002000200141A00F0020E5460000D9
:1047400070B5134C134E144D4FF48013C4F89430CD
:1047500002213420B04711493420A8474FF40013F8
:10476000C4F8943002213520B0470D493520A847C0
:1047700001211420B04794F854300A4903F0FB0398
:1047800084F8543014202B46BDE87040184700BF11
:1047900000800041CD43000065430000020034006A
:1047A0000200350003001400064B4122C3F8E0204C
:1047B0004322C3F88C20044A936943F480639361D5
:1047C000704700BF001C00400008004010B5054BBA
:1047D0009847054B054906489847064BBDE81040E9
:1047E000184700BFA9470000297F00000040014191
:1047F000A00E002041470000064B4122C3F80821CB
:104800004222C3F88C20044A136A43F00103136266
:10481000704700BF001C00400008004010B5054C68
:1048200005492820A047234604492920BDE8104017
:10483000184700BF6543000003002800030029005B
:1048400013B5084B084C984700230093074A0848C3
:1048500010234FF08641A047064B02B0BDE8104040
:10486000184700BFF9470000158300002E060020FE
:10487000241100201D48000070B50B4C0B4D94F81E
:1048800057300B4903F0FB0384F857301720A84733
:1048900094F85630074903F0FB0384F8563016208D
:1048A0002B46BDE87040184700800041654300007A
:1048B0000300170003001600064B4122C3F80C2129
:1048C0004222C3F88C20044A136A43F002031362A5
:1048D000704700BF001C00400008004010B5054BA9
:1048E0009847054B054906489847064BBDE81040D8
:1048F000184700BFB9480000517D00000004004384
:10490000600F002079480000064B4122C3F81021B7
:104910004222C3F88C20044A136A43F00403136252
:10492000704700BF001C00400008004010B5054C57
:1049300005494D20A047234604494C20BDE81040BE
:10494000184700BF6543000003004D0003004C0002
:1049500013B5074B074C984700230093064A0749B5
:1049600007481023A047074B02B0BDE81040184786
:1049700009490000158300003E060020000800439E
:10498000741100202D49000070B5134C134E144DC6
:104990004FF08043C4F8943002213E20B0471149C3
:1049A0003E20A8474FF00043C4F8943002213F2036
:1049B000B0470D493F20A84701211E20B04794F879
:1049C0005E300A4903F0FB0384F85E301E202B465C
:1049D000BDE87040184700BF00800041CD43000093
:1049E0006543000002003E0002003F0002001E007E
:1049F000064B4122C3F814214222C3F88C20044AFA
:104A0000136A43F008031362704700BF001C0040A4
:104A10000008004010B5054B9847054B054906486E
:104A20009847064BBDE81040184700BFF149000009
:104A300065800000000C0043C01000208949000080
:104A40000148024B184700BF10E000E0D97B00008E
:104A500070B50221114C124E124D1820B0474FF084
:104A60008073636194F858300F4903F0FB0384F8B6
:104A700058301820A84702211920B0474FF0007382
:104A8000636194F85930094903F0FB0384F8593005
:104A900019202B46BDE87040184700BF0080004138
:104AA000CD4300006543000007001800070019000F
:104AB000074B4122C3F8A820A3F5A0531A6942F47A
:104AC00080621A619A6942F001029A61704700BFE0
:104AD000001C004010B5044B9847044B9847044B0A
:104AE000BDE81040184700BFB14A0000C98500006A
:104AF000514A0000024A536943F48073536170477E
:104B00000008004010B5044B98470448044B03606C
:104B1000BDE81040034B1847F54A00006C10002018
:104B20000020004075B300002DE9F041844B854C16
:104B3000854D864F98472023636102210520A847B1
:104B400094F8453003F0FE0384F845300121152028
:104B5000A84794F8553003F0FB0384F8553094F8D7
:104B6000553003F0FE0384F8553001212720A84773
:104B700094F8C73003F0FB0384F8C73094F8C730CB
:104B800003F0FE0384F8C7304FF40053C4F89430A8
:104B900002212D20A84794F8CD304FF4804603F031
:104BA000FE0384F8CD300221C4F894602E20A8477B
:104BB00094F8CE3003F0FE0384F8CE3001212F208C
:104BC000A84794F8CF3003F0FB0384F8CF3094F873
:104BD000CF3003F0FE0384F8CF3001214B20A847EB
:104BE0004FF40062C4F8042194F84B3143F00403FD
:104BF00084F84B31C4F8182194F84B3103F0FE03CC
:104C000084F84B310221C4F814614E20A84794F86F
:104C10004E3103F0FE0384F84E3101215220A847A3
:104C200094F8523103F0FB0384F8523194F8523176
:104C300003F0FE0384F852314FF40023C4F814311A
:104C400002215320A84794F8533103F0FE0384F85F
:104C500053314FF48013C4F8143102215420A84773
:104C600094F8543103F0FE0384F854314FF40013E8
:104C700002215520C4F81431A84794F85531344D19
:104C800003F0FE0384F85531324B334C9847334BD5
:104C90009847334B9847334B9847334B9847636952
:104CA00043F400736361314B984731490246314800
:104CB000A847314B9847314B9847314B9847314B78
:104CC0009847314B9847314B9847314B9847314B78
:104CD0009847314B984763694FF04008334363610D
:104CE0002E4EC7F8A480B0472D4902462D48A8474C
:104CF000636943F400436361C7F8A480B0472A495D
:104D000002462A48A847A36943F40053A361C7F8A1
:104D1000E880B047264902462648A847A36943F4DD
:104D20008043A361C7F8E880B0472349024623487F
:104D3000A847234B9847234BBDE8F041184700BFD5
:104D4000B58C000000800041CD430000001C0040F5
:104D5000618100003544000000080040B5440000B7
:104D6000394500005D4500009D4500004593000069
:104D700000240040E80E002009460000894600009B
:104D800009470000CD47000041480000DD48000011
:104D900051490000154A0000414A00009DA400004E
:104DA0000038004010120020003C00400411002098
:104DB00000A00141080F002000C00141F0110020B7
:104DC000D54A0000054B000070B54D0000268371E8
:104DD0000446017142714681074B28469847334685
:104DE00020600544A84203D1A3812381002070BD27
:104DF00020F8023BF6E700BF05D500002DE9F0479B
:104E00000646994600010B4B0B4DDFF830A00F46CC
:104E10009046984700242860A64202D10020BDE8B1
:104E2000F08728684B4600EB041042463946D047CD
:104E30000134F1E705D500006C170020C94D0000D2
:104E4000324B2DE9F047D3F800804FEA001C08EB05
:104E50000C020024157920462646A2464FF6FF791B
:104E600023465FFA84FEAE453FD3B3FBF5F5ADB202
:104E70008D4238BF30B258F80C4028BF00B20B4406
:104E800034F8105024F8101090795479117957891A
:104E9000B2F808C05B1BC0F11005B3FBF1F3EDB233
:104EA0009EB246FA05F1201AC0B289B2BF1B8140FA
:104EB000002F1FFA81FEB8BF7F420126F44506FA93
:104EC00005F520D0AF4209DC06FA04F406FA00F03A
:104ED000241AA64502D0BEF1000F14D1012053813F
:104EE000A2F808E09081BDE8F087176837F81470E1
:104EF000BA453CBF7046BA46B9453B4484BF764686
:104F0000B9460134ADE70020BDE8F0876C170020FA
:104F1000024B1B6803EB0010007B70476C170020EE
:104F2000084B1A68CB1F02EB0012072B4FF0000052
:104F300090819FBF50791389401A43FA00F080B2E4
:104F4000704700BF6C17002038B50024054601806B
:104F5000C4810481448184810482448284820A4B16
:104F600008469847686000B9FEE720462A88A3B241
:104F70009A4204F1010101D8012038BDA4B26B6846
:104F800018550C46F2E700BF05D500000389028AD8
:104F900093429BBF0088C018981A801A80B270474D
:104FA000028A0389934210B59CBF04881B199B1A7F
:104FB0009BB28B4285BF04885218002192FBF4F308
:104FC00084BF04FB13224282084610BD838A4268D4
:104FD000D154838A018801339BB2B3FBF1F201FB08
:104FE0001233838201207047828A438A934200D021
:104FF000FEE7038201207047F0B543898589AB4203
:1050000000D0FEE702899A4200D0FEE7068AB54248
:1050100016D00488002293B2A34200D3FEE7AF1853
:1050200097FBF4F104FB11718FB2BE4208D04768C0
:10503000795C0A2902F10102EDD1581C80B2F0BD61
:105040000020F0BDF0B543898589AB4200D0FEE772
:1050500002899A4200D0FEE7068AB5421ED0018836
:105060000024A2B28A4200D3FEE72F1997FBF1F386
:1050700001FB13739FB2BE4210D04768FF5C0A2F3A
:1050800004F10104EDD1013393FBF1F401FB14337E
:105090004381531C9BB2C3811846F0BD0023FBE73C
:1050A00083894189994210B5024600D1FEE74168E3
:1050B0001488C85C01339BB2B3FBF4F104FB1133D9
:1050C000938110BD82894389934200D0FEE703811A
:1050D000012070472DE9F041044690462C4E9DF882
:1050E000185000F59B601F46B047414604F59E608E
:1050F000B04700229DF820302260A3729DF81C303A
:1051000063721146676013462572A281E261E2185C
:105110000133B3F5167F82F82810F8D10022134628
:10512000A1180132B2F5167F81F88032F8D1012240
:10513000954284F80C35C4F8083584F80F2523D13E
:1051400084F80F3584F80C35627A112A05D184F879
:105150000D3584F80E55BDE8F081627A122A05D12A
:1051600084F80D5584F80E35BDE8F081627A132A73
:1051700003D184F80D35FF23F4E7627A142A05D1B0
:10518000FF2284F80D25EDE784F80F25BDE8F081B6
:10519000494F00002DE9FF47012400264FF47A72A1
:1051A0001123254D0193114602960094234B244868
:1051B000DFF8AC80A8474FF47A72122301931146AE
:1051C000029400941F4B2048A8474FF002094FF467
:1051D0007A72132301931146CDF8089000941B4B6B
:1051E0001B48A84703274FF47A72142302970193B0
:1051F00011460094174B1848A8474FF0FF0A4FF488
:105200007A720097334611464046144FCDF808A0F5
:105210000196A8474FF47A72CDF808A00196CDF810
:105220000090334611463846A84788F80F4587F85E
:105230000F4504B0BDE8F087D55000007010002085
:10524000341200201C100020943000207411002023
:1052500070260020241100204C210020842B0020E7
:10526000801700202DE9F04F91B002AF00F59E634A
:105270007B60054618464C4B9847064600285ED092
:105280004A4BBB604A4BFB604A4B3B614A4B7B61DC
:105290004A4BBB614A4BFB610023E8461C4607F1C1
:1052A000080151F8232092F80F0538B107F13800B2
:1052B00000EB8400013440F8182CE4B20133062BD3
:1052C000EFD1DFF81CA1002107F12009CBB29C42ED
:1052D00021D878683B4B9847864234D1DFF804A147
:1052E0004FF0000807F120095FFA88F39C422BD8A1
:1052F0004FF000091FFA89F39E4278682FD8324B8D
:10530000984707F120060021CBB29C4241D83C3798
:10531000BD46BDE8F08F59F82100854211D000F557
:105320009B60D04786420CD90222C8238DE80C002E
:105330006422002311462548254CA047C54600207D
:10534000E5E70131C2E7FEE759F82800854203D0BE
:10535000314600F59B60D04708F10108C4E71D4BBA
:1053600098474FF00008824607F1200B5FFA88F15A
:105370008C4202D809F10109BCE75BF8280085429C
:1053800004D0514600F59B60134B984708F1010883
:10539000ECE756F82100854203D000F59B600F4BE7
:1053A00098470131B0E700BFF94F000034120020E8
:1053B00094300020702600204C210020801700200F
:1053C000842B002045500000C55000009C1C00208C
:1053D0000B730000A1500000CD4F0000E94F00000A
:1053E0008D4F0000A14F00002DE9F04F99B006AF9E
:1053F00000F59B65F862934B28469847B86218B948
:105400004C37BD46BDE8F08F8F4BDFF88082DFF868
:105410004492284698470023DCB25E1CBB6A9C423B
:10542000284638D3894BDFF82C92DFF864B29847CE
:10543000874B88489847884B7862864898477F38DA
:1054400043B23B638348854B98477F3843B27B63C5
:105450008048834B98477A6B3862C2F14002002340
:10546000920087F84730FA60BB63FB631E46BB6B54
:1054700019F80330022B13D197F83860BB6BBA6A66
:105480000133BB633B8F9A42F1D8F86AF96B754BD5
:1054900028309847B4E7C047334609F80400BBE713
:1054A000BB6B19F80330032BE8D1002EE6D0701C3B
:1054B00007F1470202214844D847C5B2002D62D106
:1054C000F01C07F1470202214844D847701D07F13C
:1054D000470202214844D8475FFA80F8F01D07F1DF
:1054E000470202214844D847044606F1090007F163
:1054F000470202214844D8475B4B3A8E93F809A0F3
:10550000FB685A499A44DAF1000303F00F030AF0EA
:105510000F0A58BFC3F1000AFB6B03F12806FB6AB0
:10552000E4B21E44202313FB0244634203F07F03D2
:1055300004F07F0458BF5C42E3B2FB61C3B2BB61BD
:105540000593FB6904935FFA8AF3CDF80C8002930C
:105550003B6A01937B6B00937A6A3B6B444C304609
:10556000A047444B444C30469847FB6BFA691844BB
:10557000C3B248EA0A01FB63C9B2BB694FEA18101B
:10558000A04700267AE7032D2DD13B6B002BF8D1E5
:105590007B6B002BF5D1F01C07F147020221484438
:1055A000D8470546701D07F1470202214844D847F5
:1055B0008046F01D07F1470202214844D8470446BF
:1055C00006F1090007F14702022148445FFA88F812
:1055D000D847B8F1630FD4D1C3B2E1B2EAB22748D9
:1055E000274CA047CDE7012D40F09880BB6BC7F852
:1055F00008D09B1B0622033B93FBF2F35FFA83FA6E
:105600000AEB4A03073323F007030336ADEB030D20
:1056100006AB02FB0A627B61984602EB090306EBCC
:1056200009047B607B689C4208F1030832D1154B6A
:10563000786951469847144BC0B25870D7F808D0D3
:105640009FE700BFF94F000045500000C550000023
:10565000AD750000D5350020CD750000ED7500005A
:105660000D7600008DBE00009C1C002022DE000094
:10567000B5D600000DD7000081C50000A835002078
:105680005D59000095C00000C9370020A1500000FE
:105690005973000007F1470202212046D847022132
:1056A000054607F147026018D8470221064607F170
:1056B0004702201DD847FB6BFA6AF8612833D318DC
:1056C000BB61324B9847F6B2EBB205903B61039653
:1056D00004933B7F02933B6A01937B6B00937A6A4E
:1056E0003B6B2B492B4DB869A8472B4BB8699847A2
:1056F000FB6B1844C3B2FB633B7F08F8033CA6F185
:1057000082035E425E413B6908F8026CA3F18002AD
:105710005542554108F8015C063483E7042D20D139
:10572000F01C07F1470202214844D8470546701D86
:1057300007F1470202214844D8470446F01D07F10B
:10574000470202214844EDB2D847642D7FF419AFD7
:10575000E4B2652C7FF415AFC1B2104B10489847E6
:105760000FE7022D3FF40DAFFB6B0E4903F1280448
:10577000FB6A1C442A46074B20469847064B2046A6
:105780009847FB6B1844C3B2FB63FAE6BD73000095
:1057900068DE0000B5D600000DD70000A17400003F
:1057A0009C1C0020AEDE00002DE9F04100F59B645A
:1057B00020460B4B9847064680B12046094B0A4FBE
:1057C00098470025EBB29E42204605F1010503D81B
:1057D000064BBDE8F0411847B847F3E7BDE8F08154
:1057E000F94F000045500000A1500000C5500000D6
:1057F0002DE9F84384890646ECB900F59B673846E5
:10580000114B9847054608B9BDE8F8830F4BDFF800
:10581000489038469847B5812346DCB2A54203F14B
:105820000108384609D80A4B9847B2897068094B75
:1058300006F128019847BDE8F883C847331983F873
:1058400028004346E9E700BFF94F0000455000003B
:10585000C5500000A17D0000A1500000014B0122B5
:105860001A7070473012002010B544788C4211D95C
:105870000C246143084CC06854F823304350014461
:1058800054F822304B609DF8083054F823308B6078
:10589000002010BDFF2010BD3C1D002010B5064C9F
:1058A000064B00F11401204698472046044A054B58
:1058B0000021BDE810401847C0100020A180000062
:1058C0005D5800009580000040787047F0B547783B
:1058D00000230D26DAB297420FD9056906FB035162
:1058E000CC7A0A7B1444FA1806FB0252CC72D17AA5
:1058F000147B2144D1720133ECE7F0BD10B544783C
:10590000006904FB02120D246243811883549DF840
:1059100008304B709DF80C308B7010BD10B544787A
:1059200004FB021201690D2000FB0212D3709DF8E6
:10593000083013719DF80C30537110BD10B54478C8
:1059400004FB021201690D2000FB021293719DF805
:105950000830D3719DF80C30137210BD10B5447827
:1059600004FB021201690D2404FB0212D37210BD64
:1059700010B5447804FB021201690D2404FB0212E5
:10598000137310BD2DE9F04F05464170CCB20C20C9
:105990006043903085B068603D4FB847064600F1DF
:1059A0009003A8601A20EB606043B84706B100B9C5
:1059B000FEE7002328611946AA68D1540133902BD1
:1059C000FAD10024334F26466B789C4210D3002333
:1059D000DFF8C880DFF8C8900393039B9DF80C6044
:1059E000013303936B78B3420AD805B0BDE8F08F5A
:1059F0000023214600961A462846B8470134E3E7BB
:105A000000242346224631462846234F0194009421
:105A1000B8477F2300932246234631462846019407
:105A2000C047FF230093224623463146284601946F
:105A3000C847DFF870B0DFF870A023462246314631
:105A40002846D8472346224631462846D047234693
:105A500031462846019400940122B8472346314636
:105A60002846019400940122C04723463146284627
:105A7000019400940122C84723463146284601225A
:105A8000D8472346012231462846D047A5E700BF24
:105A900005D5000069580000FD5800001D590000A0
:105AA0003D590000715900005D5900002DE9F04F8B
:105AB00004694378DFF8A0A085B000254FF00D09F8
:105AC000039309FB014402262B462A46E77A94F801
:105AD00003C01AF807E094F800B05744013E97F865
:105AE000008197F800721CFB08FC0BFB0ECC94F8AD
:105AF00006B00BFB07CC624494F804C094F801B0E4
:105B00001CFB08FC0BFB0ECC94F807B00BFB07CC7E
:105B1000634494F805C094F802B01CFB08F80BFB32
:105B20000E8E94F808B00BFB07E73D44BDF80C70EF
:105B300016F0FF0619FB0744C8D1C5F347250095A9
:105B4000C3F34723C2F34722024CA04705B0BDE888
:105B5000F08F00BF695800000000002070B5064EAD
:105B6000054600246B789C4200D370BD2146284630
:105B7000B0470134F6E700BFAD5A000038B5084C15
:105B80000546002323700748074B9847AA88A96851
:105B90006869064B98472378012BFCD138BD00BFBC
:105BA00030120020C010002089800000A17D00007C
:105BB0002DE9F74F1A4BDFF874A01B78202B11BF8B
:105BC0000123022300274FF001081CBF1F464FF09E
:105BD00000080024814608FB03F85F432646FF25A2
:105BE000002105E00094002332464846D04759463C
:105BF00099F8013001F1010BC9B28B42F2D8484645
:105C0000084B9847013D0120074B984746443C44C8
:105C100015F0FF05F6B2E4B2E2D103B0BDE8F08FB3
:105C2000000C00407D5B00000D7C00006958000006
:105C300070B52A4E0446002293B213F0010F14BF30
:105C40004FF060604FF0006013F0020F0CBF4FF098
:105C500000454FF0604513F0040F45EA00050CBF06
:105C60004FF400204FF4602013F0080F40EA0500C5
:105C70000CBF4FF400054FF4600513F0100F40EA1D
:105C800005000CBF4FF400654FF4606513F0200F62
:105C900045EA00050CBF4FF400404FF4604013F09C
:105CA000400F45EA00050CBF08200E20DB0914BF99
:105CB000E02380232843034346F822300132B2F523
:105CC000807FB9D12046064B98472046054B984720
:105CD0002046054B9847002070BD00BF3C1D0020AA
:105CE000855900009D580000B15B000010B5074BBE
:105CF000044600221A700648064B9847A288A168FD
:105D00006069054BBDE81040184700BF3012002005
:105D1000C010002089800000A17D0000014B187890
:105D2000704700BF30120020114B4FF4804210B575
:105D3000C3F818210F4CA04710B90F480F4B9847D4
:105D4000A047802802D10C480D4B9847A047402817
:105D500002D109480B4B9847A047C02802D10648FA
:105D6000094B984709480A4BBDE81040184700BF47
:105D700000800041BD730000901C00200D6F0000EA
:105D80005D600000256B0000016600009C1C002087
:105D90006172000010B5044C0448A0472346044833
:105DA000BDE81040184700BFA57B0000F00F0020A1
:105DB000C41100202DE9F74F894A1378154633B9ED
:105DC00013780133DBB2137003B0BDE8F08F01A884
:105DD000844B854C9847854BD3F80011D3F820218C
:105DE000D3F81061824B56400E4001A856409847A8
:105DF0006368DB681F78C6F3C026BE4216D0002F4A
:105E000040F0EA8001221A707A4A537A013303F093
:105E100003035372537A527A63685868764B0221AF
:105E20000730984739462046744B98470023ADF811
:105E30000030ADF802306B78714A724E7248083308
:105E4000002112F803806B78DBB25FFA88F8D75C28
:105E50006B780133DBB26B706B7803F007036B7008
:105E60006B7813F0010F614B4FF4002214BFC3F89D
:105E70001821C3F814216B7813F0020F5B4B4FF419
:105E8000801214BFC3F81821C3F814216B7813F0E3
:105E9000040F564B4FF4001214BFC3F81821C3F877
:105EA000142102236A46B04702230DEB03020021AE
:105EB0005648B047BDF8002042F210739A428CBF9A
:105EC00000227F22ADF80020BDF80220BDF80010AE
:105ED0009A428CBF00237F23ADF8023008F1010BFA
:105EE00063684FEA0B163344FFB2DA6812789142C6
:105EF00030D05868DFF80091002A0CBF9022802231
:105F00004FF0020100F105000CBF4FF07F0A4FF087
:105F1000000AC84763683344424658680221073084
:105F2000C847636833445246586802210930C8475D
:105F300063683344022158684FEA4A021530C84763
:105F4000636829481E445FFA8BF1F36883F800A068
:105F50002A4B984707F1010A6368BDF802104FEA1F
:105F60000A163344DA681278914230D05868DFF864
:105F70008880002A0CBF902280224FF0020100F19D
:105F800005000CBF4FF07F094FF00009C047636860
:105F900033443A46586802210730C04763683344A7
:105FA0004A46586802210930C047636833440221D9
:105FB00058684FEA49021530C04763680A481E44D2
:105FC0005FFA8AF1F36883F800900C4B984700233E
:105FD0002B700F4B9847F7E600221A7026E700BF98
:105FE0004E060020B57B0000901C00200080004180
:105FF000C37B00009C1C0020897300001578000002
:1060000000030020317B0000F00F0020C4110020AD
:10601000955D00002DE9F0410B4F0C4C0C4E0D4DE1
:1060200000223B4611462046B04700223B4611461F
:106030002846B0472046084C0021A0472846234662
:106040000021BDE8F0411847B55D0000F00F0020C9
:10605000F57A0000C4110020E57A00002DE9F04F28
:10606000102106469BB0324B32489847324B1121E3
:10607000304698477368002B31D0DFF8E0802F4F0F
:1060800000245FFA84F90DAD002C2BD10323642288
:10609000039365238DE80C0002940423022228490F
:1060A00012A8B847DFF8B8A012A8D0472549264B58
:1060B0008346284698472846D047C0B201900095AD
:1060C0005FFA8BF312AA49463046204DA84730B9F3
:1060D0000134112CD5D11E4B98471E4B98471BB04D
:1060E000BDE8F08F1C4BAE4603F1100C18685968E0
:1060F000724603C2083363459646F7D10023032155
:106100002A190B910A9312F8012C09920691632225
:106110000491611E0892029102229021019107933D
:10612000059203930093414612A8B847BAE700BF0F
:10613000315C0000A835002051770000B5D6000082
:10614000D9DE00001FDF0000FDD6000069770000E7
:1061500015600000955D0000C9DE0000EEDE000065
:106160000DD7000010B5084B084C4FF400129A618F
:106170002046074B98472046064C074A0749A44645
:106180000823BDE81040604700800041A00E0020B9
:106190008D7F0000C97F00007117002010030020D0
:1061A000B54B2DE9F74F4FF40012B44C5A614FF044
:1061B00000095FFA89F35A08B1498E5C03F00102C5
:1061C00092001641AF4AF6B212F8092006F00F0706
:1061D000974200F00081AC4AAC4D1370237805EB78
:1061E0000312B90850788842C7F3400706F0010649
:1061F0003CD0DFF8C4825170012090701A18D8F892
:106200000430DFF8BCA203EB02130221DA685868FD
:106210001278002A0CBF9022802200F105000CBFEA
:106220004FF07F0B4FF0000BD0472278D8F80410C6
:1062300001EB0211486902210730D0472178D8F8D4
:10624000042002EB0112022150695A460930D0475E
:106250002278D8F8043003EB02134046DB6983F858
:1062600000B021788A4B0131C9B2984721780B01DF
:10627000EA18527BBA4200F0E680B74214BF4FF0F2
:10628000FF384FF001082B44824A5F739E73B8F1C8
:10629000000F00F01F8105EB01137F4899697F4EC5
:1062A00090470090009B7E48B3F5C87F84BF4FF4B1
:1062B000C8730093009B132B9CBF14230093009B77
:1062C000009A02FB1300774B984769A3D3E9002398
:1062D000B0470022744B754EB047754B98472678EF
:1062E000744BC7B26C48984705EB061607FB08834A
:1062F000B060B8F1FF3F9EB232B2217840F0A68084
:1063000005EB0113D878D04255BF80190022D87010
:10631000DA70694E694B1131C9B23046984722781C
:10632000736803EB0213D3F81C31002840F09C8003
:1063300018704023227808FB0738736802F11101B6
:1063400003EB01135FFA88F8D9680978414542D018
:1063500058685B4F05EB02150221B0220530ED783D
:10636000B8472278736803EB02130221D3F81401B3
:106370000730B8472278736803EB02130221D3F881
:10638000140142460930B847227873684A4803EB43
:1063900002136D00D3F81C3183F800802178DFF8F8
:1063A000F0801131C9B2C0472278736803EB021341
:1063B000EDB2D3F814022A4602210930B8472278F8
:1063C00073683D4803EB0213D3F81C321D7021782B
:1063D0002131C9B2C04709F10109B9F1100F04F127
:1063E00001047FF4E6AE01A8364B9847224BD3F860
:1063F0000011D3F82021D3F81041334B54400C4006
:1064000001A8544098472C4B5A68D2681178C4F3BD
:10641000C0248C420FD0002940F0B08001211170BF
:1064200081225B685868264B02210330984700217F
:106430002148174B9847254B00221A70244B984748
:1064400003B0BDE8F08F4FF000081CE7B8F1010F72
:106450007FF45FAF05EB0110C3781A447F2AD4BFE5
:106460009B197F23C37054E71B7863E7AFF3008069
:10647000000000000088E340008000411E0300206F
:10648000711700205C17002044170020D43700202B
:1064900015780000A97200009C1C0020ADD20000FD
:1064A000007102006DCF00000000F03FF5CC00004D
:1064B0007DD40000A5720000901C00200D78000023
:1064C00089730000B57B0000C37B0000D435002039
:1064D0006561000099682B489047C8287FF67BAF1C
:1064E000237805EB0312D678402E1CD9264F013EA7
:1064F000F6B2D6707A6802EB03137600D3F8140272
:10650000224BF6B2324602210930984722787B6846
:1065100003EB02133846D3F81C321E7021781C4B53
:106520002131C9B29847237805EB0312D6783F2E64
:106530001CD8154F0136F6B2D6707A6802EB0313F9
:106540007600D3F81402114BF6B23246022109301C
:10655000984722787B6803EB02133846D3F81C3245
:106560001E7021780A4B2131C9B298472678054818
:10657000084B984705EB0615A8602CE70021117021
:1065800080224EE79C1C0020901C00208973000094
:1065900015780000A57200000F4B4FF4001210B5E3
:1065A0005A610E4C9A604FF080429A620C4A9A628D
:1065B000032120460B4B98470B490C4B204698472C
:1065C0000B490C4B2046984720460B4A0B4B0021A9
:1065D000BDE81040184700BF00800041A00E002019
:1065E000200000C0B17F0000801A0600997F0000E3
:1065F000581700202D800000A161000011800000CC
:106600002DE9F04F31230370064697B04FF44470E4
:10661000314B324DDFF8E880DFF8E89098470024EE
:106620007060E7B20323002C35D1802183220393CD
:106630002B238DE80E000EA8012302224946A8470D
:10664000DFF8C4B00EA8D8470DF1240A2449254A22
:106650000790504690475046D847C0B201903946FF
:10666000CDF800A0079B204F0EAA30460134B84752
:10667000312CD6D11D4B00210A01D15401311029F2
:10668000FAD11B4B1B4898471B4B98471B4B98470D
:1066900017B0BDE8F08F102F04930BD8621E0023B3
:1066A00002929022039301920093022241460EA887
:1066B000A847C5E70022202F039206D8631E029345
:1066C00090238DE80C001346EFE7A4F1210102911D
:1066D000632101910092E8E705D50000B5D60000DE
:1066E0001FDF0000FDD6000069770000D4370020CE
:1066F000315C0000A835002099650000656100004C
:1067000006DF000022DF00000DD7000010B5044CAA
:106710000448A04723460448BDE81040184700BF7E
:10672000A57B0000F00F0020C41100200000000035
:106730002DE9F74F9E4A137833B913780133DBB252
:10674000137003B0BDE8F08F01A89A4B9A4C98479C
:106750009A4BD3F80011D3F82021D3F81051984B5D
:1067600055400D4001A8554098476368DB681E7886
:10677000C5F3C025B54216D0002E40F0118101228C
:106780001A70904A537A013303F003035372537A19
:10679000527A636858688C4B02210730984731461B
:1067A00020468A4B98470023ADF80030ADF8023000
:1067B000874B88491A78884F8848DFF82CB2DFF871
:1067C0002CA2DFF82C9208324FF6FF788E5C1A78F4
:1067D000D2B2F6B28D5C1A780132D2B21A701A783F
:1067E00002F007021A701A7812F0010F734A4FF480
:1067F000002114BFC2F81811C2F814111A7812F04F
:10680000020F6E4A4FF4801114BFC2F81811C2F87B
:1068100014111B7813F0040F684B4FF4001214BFCF
:10682000C3F81821C3F81421002102236A46B8478F
:1068300002230DEB030200216948B847BDF80000B0
:10684000D84759A3D3E90023D047C847404528BFBC
:106850004046ADF800000746BDF80200D84752A3F5
:10686000D3E90023D047C847EDB24045A5F108035E
:1068700028BF4046012BADF8020040F28B800D2E60
:1068800040F2B88042F210739F428CBF00227F22F8
:1068900098428CBF00237F2306F18057ADF8023069
:1068A000033F6368ADF800203F013B44BDF8001092
:1068B000DA681278914230D05868DFF80C81002AEB
:1068C0000CBF902280224FF0020100F105000CBFA6
:1068D0004FF07F094FF00009C04763683B443246E0
:1068E000586802210730C04763683B444A465868ED
:1068F00002210930C04763683B44022158684FEACF
:1069000049021530C04763682B481F44F11EFB68DD
:10691000C9B283F800902D4B984705F18057033F8B
:106920006368BDF802103F013B44DA681278914277
:1069300030D05868DFF89080002A0CBF9022802267
:106940004FF0020100F105000CBF4FF07F094FF03E
:106950000009C04763683B4432465868022107304B
:10696000C04763683B444A46586802210930C04723
:1069700063683B44022158684FEA49021530C0471A
:1069800063681F44E91EFB68C9B283F800900A4897
:106990000E4B9847064A00231370124B9847D0E6D7
:1069A00000221A70FFE600BF7B14AE47E17AF03F89
:1069B00070170020B57B0000901C00200080004173
:1069C000C37B00009C1C0020897300001578000028
:1069D000A43500202F030020317B0000F00F0020A1
:1069E000C41100200D6700008DCF000059D00000B9
:1069F0007DD40000012DDFF8E0905CD8A8EB070102
:106A00003046C847BDF80210A8EB01012846C84728
:106A10002C4F3046B84740B3072130462A4B9847A1
:106A200006F1010A63684FEA0A194B448046586828
:106A300032460221254E0730B04763684B445FFA67
:106A400088F2586802210930B047636899444FEAD8
:106A50004802D9F80400022102F0FE021530B047C6
:106A60005FFA8AF11A481B4B98472846B847002816
:106A700090D007212846144B98476F1C63684FEA53
:106A800007184344064658682A4602210F4D07302E
:106A9000A84763684344F2B2586802210930A84706
:106AA0006368434472005868022102F0FE02153008
:106AB000A847F9B26BE739463046C847BDF802101F
:106AC000A4E700BF114F0000214F000089730000B0
:106AD000901C002015780000414E00002DE9F04187
:106AE0000B4F0C4C0C4E0D4D00223B4611462046E0
:106AF000B04700223B4611462846B0472046084C86
:106B00000021A047284623460021BDE8F041184750
:106B100031670000F00F0020F57A0000C41100205A
:106B2000E57A00002DE9F04F0D219BB02F4B304E40
:106B3000DFF8E4800746984700253B78ECB2A34293
:106B400010D80E22072305212A4C1020A0470C2123
:106B5000294B2A4898472A4B98472A4B98471BB0FD
:106B6000BDE8F08F2CBB03236422039365238DE8DB
:106B70000C00029404230222234912A8B047DFF834
:106B80009CB012A8D8470DF1340A2049204A81460A
:106B9000504690475046D847C0B201902146CDF8A4
:106BA00000A05FFA89F312AA38461A4CA0470135B3
:106BB000C3E70321082C4FF063024FF0000304F1F8
:106BC000FF300B9106910491089294BFB02190215F
:106BD00002220990029001910A9307930592039370
:106BE0000093414612A8B047C9E700BF51770000A3
:106BF000B5D60000FD4D0000315C0000A835002036
:106C0000DD6A00000D670000D9DE00001FDF000014
:106C1000FDD6000069770000EEDE00000DD7000011
:106C200010B5044C0448A04723460448BDE8104072
:106C3000184700BFA57B0000F00F0020C411002002
:106C40002DE9F74F8C4A1378154633B91378013381
:106C5000DBB2137003B0BDE8F08F01A8874B884CFE
:106C60009847884BD3F80011D3F82021D3F810614E
:106C7000854B56400E4001A8564098476368DB6834
:106C80001F78C6F3C026BE4216D0002F40F0EC801D
:106C900001221A707D4A537A013303F003035372C1
:106CA000537A527A63685868794B022107309847C3
:106CB00039462046774B98470023ADF80030ADF8B1
:106CC00002306B78744ADFF8E8817448DFF8E4B189
:106CD000DFF8E4A108330021D75C6B78DBB2FFB2A8
:106CE000D65C6B780133DBB26B706B7803F0070313
:106CF0006B706B7813F0010F624B4FF4002214BFDE
:106D0000C3F81821C3F814216B7813F0020F5D4B00
:106D10004FF4801214BFC3F81821C3F814216B7804
:106D200013F0040F574B4FF4001214BFC3F818218F
:106D3000C3F8142102236A46C04702230DEB030265
:106D400000215748C047BDF80000D84748A3D3E901
:106D50000023D047534B98474FF6FF78404528BF54
:106D600040468146ADF80000BDF80200D84740A378
:106D7000D3E90023D0474B4B9847404528BF4046B6
:106D8000ADF80200DFF834814946F6B23846C04714
:106D9000BDF802103046C0473846DFF82481C047AE
:106DA00068B307213846404B984707F1010B6368E9
:106DB0004FEA0B194B445FFA80FA58683A460221B1
:106DC000334F0730B84763684B4452465868022136
:106DD0000930B84763684B444FEA4A02586802F0EA
:106DE000FE0202211530B8472A4B25485FFA8BF185
:106DF000984763689944D9F80C3083F800A030466E
:106E0000C04760B307213046274B984706F1010978
:106E100063684FEA09173B445FFA80F858683246C6
:106E200002211B4E0730B04763683B444246586816
:106E300002210930B04763683B444FEA4802586872
:106E400002F0FE0202211530B047124B0C485FFAE7
:106E500089F1984763681F44FB6883F8008000232A
:106E60002B70124B9847F5E600221A7024E700BFFA
:106E70007B14AE47E17AF03F50060020B57B00005E
:106E8000901C002000800041C37B00009C1C00205F
:106E900089730000157800003F030020F00F0020E8
:106EA000C41100207DD40000214F0000216C00009F
:106EB000317B00008DCF000059D00000414E000012
:106EC000114F00002DE9F0410B4F0C4C0C4E0D4DB5
:106ED00000223B4611462046B04700223B46114661
:106EE0002846B0472046084C0021A04728462346A4
:106EF0000021BDE8F0411847416C0000F00F002070
:106F0000F57A0000C4110020E57A00002DE9F04F69
:106F100011219BB02B4B2C4DDFF8D490064698479F
:106F20000024E7B20321002C36D1642265238DE8CA
:106F30000C000391029404230222494612A8A84798
:106F4000DFF8B0B012A8D8470DF1340A1F49204A23
:106F50008046504690475046D847C0B201903946C7
:106F6000CDF800A05FFA88F312AA3046194F013419
:106F7000B847112CD5D10E2207230521164C10201D
:106F8000A0471021154B16489847164B9847164BAB
:106F900098471BB0BDE8F08F63220023601E0B9161
:106FA0000892069102220491B02109900290019169
:106FB0000A9307930592039300930C4912A8A847DC
:106FC000BEE700BF51770000B5D600001FDF00000C
:106FD000FDD6000069770000FD4D0000315C000027
:106FE000A8350020C56E0000216C0000EEDE000018
:106FF000D9DE00000DD7000000F01F034009C001DA
:1070000000F1824000F5004001229A4003444260B2
:1070100093F8401041F0040183F8401082617047FA
:107020008389283300F12802034400219A4201D1C8
:107030008181704702F8011BF8E700000148024B0C
:10704000184700BF4C210020217000000148024B6E
:10705000184700BF70260020217000000148024B35
:10706000184700BF94300020217000000148024BF7
:10707000184700BF3412002021700000807A0301FD
:1070800003F1824303F5204300211A6C22F002022F
:107090001A64014B184700BFD98E00000148024B0B
:1070A000184700BF341200207D7000000148024BD9
:1070B000184700BF943000207D7000000148024B4B
:1070C000184700BF702600207D7000000148024B69
:1070D000184700BF4C2100207D7000002DE9F041D1
:1070E0005C201B4CDFF8A4801A4F1B4E1B4DA047A1
:1070F0005020A0474C20A0472920A047184C194AEF
:1071000001214046A047184A01213846A047174AA6
:1071100001213046A047164A01212846A047154CB8
:1071200015494046A04715493846A04714493046FE
:10713000A04714492846A047134C4046A04738466C
:10714000A0473046A04728462346BDE8F0411847EF
:10715000F96F00001C100020741100202411002081
:107160008D8300006D7000005D7000004D700000A8
:107170003D70000085830000981C00205C260020E4
:10718000802B0020D0350020758300007010002077
:10719000F7B54368847A0F46196A104B05462831C3
:1071A00020461646984705F5207120460C4B984717
:1071B000394620460B4B9847214601A80A4B984771
:1071C000019B01221E6020460021084B98470021A8
:1071D0002046074B984703B0F0BD00BF698E000002
:1071E000598E0000958E0000158F0000318E000032
:1071F000D98E000010B5104A104C11484FF416718A
:10720000A047104A10484FF41671A0470F4A104883
:107210004FF41671A0470F4A0F484FF41671A0475C
:107220000E4B002283F81F2383F8202383F82123A9
:1072300083F8222310BD00BF9D70000091710000F3
:1072400034120020AD70000094300020BD700000AA
:1072500070260020CD7000004C21002000E100E0ED
:1072600010B5642300223221C8248373C37396238C
:107270008472C37404744373437542728274C1721E
:10728000017301754274044B9847044B9847044BB3
:10729000BDE81040184700BF95510000DD700000A8
:1072A000F5710000806970478069884296BFC943C4
:1072B000401A401870478369013383617047007A30
:1072C0007047002303727047837963B98088400850
:1072D0007D380028B8BF4042C0F17D00022390FBFA
:1072E000F3F0C0B27047012B06D18088FA23B0FBBF
:1072F000F3F040F30000F4E7022B05D18088642806
:107300008CBFFF2000207047704710B5C370BDF8D8
:107310000C30838001249DF8083004724170827023
:10732000837110BD4078704780787047C07870478F
:10733000A0F130030246D8B209280CD9A2F16103AA
:10734000052B03D8A2F15700C0B2704711B10A70E3
:1073500000207047084670472DE9F0410139DFF8F9
:107360002480174606468C000025231D02D128469E
:10737000BDE8F081394616F8010BC047A04005442E
:10738000043CF2E73173000030B585B0094B054687
:107390000C4601A8084998470023DAB2944201D864
:1073A00005B030BD1A1B01A90A44127AEA54013310
:1073B000F3E700BFB5D6000038DF00002DE9F74F36
:1073C000304E3368013358D12F4C304B304FDFF8FB
:1073D000CC904FF40055C4F888504FF48042C4F864
:1073E000A8304FF04043C4F8A830C4F888204FF0CC
:1073F0004022C4F8A820C4F8A8304FF40043C4F8D1
:107400008430244BC4F8A830A3F18023C4F8A830FA
:107410000120C4F89450B8474FF0000AD346A8465C
:107420000120C4F89880B84701A8C847D4F8802044
:10743000D4F8A030D4F890505D4015405D4001A8CC
:10744000154B98472B0441BF012303FA0AF343EA83
:107450000B0B5FFA8BFBBAF1070F07D04FF4804597
:10746000C4F898500120B847C4F894500AF1010AB2
:10747000BAF1080FD4D1C6F800B0306803B0BDE847
:10748000F08F00BF5003002000800041002000402A
:107490000D7C000000800240C37B0000B57B000033
:1074A0002DE9F04F01F0030185B02F4B41720746E3
:1074B00098472E4D03900023029328462C4B9DF8AD
:1074C00008409847A04202D805B0BDE8F08F039B62
:1074D000DFF8A8B0C02B22D14FF000084FF0FF0911
:1074E00043464246214628468DE80003214EB047D8
:1074F00005230093CDF804804346424621462846A2
:10750000D847CDF80480CDF800804B4621460022B4
:107510002846194CA047029B01330293CDE77B7AA2
:10752000144E3B44002293F812A093F80E9093F867
:107530000A804FEA9A1301934FEA99130093214668
:107540004FEA98132846B0474FEA5A0301934FEA8F
:107550005903009300224FEA580321462846D84792
:107560008DE800064346D1E7BD730000A835002032
:10757000C9580000FD5800003D5900001D59000089
:1075800010B5024600230339141AA14201D8184647
:1075900010BD12F8014B6340F6E70000CB1E184403
:1075A0000221014B184700BF8973000007B502AAEA
:1075B000002302F8013D0221034B04309847C0B27A
:1075C00003B05DF804FB00BF5973000007B502AAC1
:1075D000002302F8013D0221034B06309847C0B258
:1075E00003B05DF804FB00BF5973000007B502AAA1
:1075F000002302F8013D0221034B08309847C0B236
:1076000003B05DF804FB00BF5973000007B502AA80
:10761000002302F8013D0221034B0A309847C0B213
:1076200003B05DF804FB00BF597300000A46043044
:107630000221014B184700BF897300000A4606303B
:107640000221014B184700BF897300000A46083029
:107650000221014B184700BF897300000A460A3017
:107660000221014B184700BF8973000000F11C0381
:107670009C3053F8042B8A4203D08342F9D1002076
:1076800070470120704790F89C30013303F01F03CE
:1076900080F89C3000EB8300C16170477FB5264BBA
:1076A000264D0446984701238DF800300E238DF8AF
:1076B000013007238DF80230637A8DF803300422FD
:1076C00030238DF804308DF805308DF806308DF8B4
:1076D00007308DF808308DF809308DF80A308DF8B4
:1076E0000B308DF80C208DF80D3002468DF80E30E1
:1076F00008210A2301A88DF80F30A847104B10214C
:107700006846984704F59B64024602210DF10D007E
:10771000A847102120460B4B984758B10A4E002528
:107720001DF8051020460135B047102DF8D1204630
:10773000064B984704B070BDBD730000897300000C
:1077400081750000A14F0000CD4F0000E94F0000FF
:1077500038B50446034B08010D4698472570606014
:1077600038BD00BF05D500002DE9F84F90464268AE
:10777000DDF82CB0DFF870A00F0102EB0709002440
:10778000D455064689F80130184689F808B0D04724
:10779000C9F8040005465846D047C9F80C00FDB1A9
:1077A000F0B1234671683944581C4A78DBB29A42DA
:1077B0000AD8002372683A44581C117ADBB2994205
:1077C00008D80020BDE8F88F4A6818F80340D45460
:1077D0000346E7E70A99D268C95CD1540346E9E752
:1077E000FF20BDE8F88F00BF05D5000010B5436845
:1077F00003EB0111002348785C1CDBB2834200D309
:1078000010BD4868C05CD0542346F4E709014368C2
:10781000585C70470901436801225A5470470901B6
:10782000436800225A5470472DE9F04F03680F2B2C
:10783000CDB0804604D9013B03604DB0BDE8F08F68
:107840000BB1013B0360484FDFF858A197F89D202A
:107850003B7804930CAD7F231721002605910393F9
:10786000029301920F230122404900962846DFF837
:1078700038B1D0472846D84706975F46DFF82CB185
:10788000CDF81CA00446B1469BF800305FFA86FA9A
:107890009A4544D3B9F1000FCFD0D8F80030069AFA
:1078A00033495B000A33C8F80030069B93F89D30DB
:1078B00001332E19DBB282F89D3030460422079B3B
:1078C00098473046B847044422462A49079B0AA8ED
:1078D00098479DF82830AB709DF82930EB702B1934
:1078E000254A264918469047B84704442146244B68
:1078F000284698472146C2B2224B28469847A1B253
:107900002148224B9847002897D01F4FDFF8A080CE
:107910000026A64223D11E4B1B4898478DE7C82C52
:107920001BD81C4B09A89847DBF804204FEA0A1320
:10793000D35C7BB12A195146174B5846984751469C
:107940005846164B98472819B84709F101095FFABC
:1079500089F9044409A8124B9847013694E7A95DB8
:107960003846C0470136D4E79C1C002004DF0000E5
:10797000EBDE00003DDF0000FDD6000042DF00002E
:10798000817500009D750000701C0020A14F000053
:10799000E94F0000B57B0000ED7700001F78000084
:1079A000C37B0000B5D600000DD70000901C00205E
:1079B000CD4F0000836903B118477047C36903B115
:1079C000184770472DE9F14F036AD0F828805C5CB6
:1079D000DFF8549004EB4404E40008EB040505F1DF
:1079E000040A06460F465046D1B29346C847304671
:1079F0000C4B9847012806D94FEA1B215046C8472F
:107A0000AB8A0133AB82AB8A0133AB8258F80430C6
:107A10002BB13946304601B0BDE8F04F184701B0F0
:107A2000BDE8F08F098C00004189000070B5044664
:107A3000FF260020C5B201305655C5B2AB42F9D27F
:107A400084F824309DF8103084F82530059BA3621B
:107A500022622046044B984728B9044BA360044B8C
:107A60002360044B636070BD498B0000C579000042
:107A7000B5790000BD790000F8B50F46D0F820E0D8
:107A800011461EF80720FF2A05461AD190F8242037
:107A900000200446C6B2964216D995F82520A24287
:107AA0001AD304EB4406A86AF60030441A460430A0
:107AB0000B4B984728B92B6ADC55AB6A1E44B08241
:107AC000F8BD6FF00C00F8BD1EF80660FF2E1CBF5D
:107AD0000134E4B20130DDE76FF01B00F8BD00BFF8
:107AE0000789000008B5024B9847002008BD00BF79
:107AF000FD8B0000012A38B513D004D3022A12D01E
:107B00006FF00C0038BD046A856A645C04EB4404C1
:107B100045F83430003318BF0123044CA04700203F
:107B200038BD8361F6E7C361F4E700BF358C000020
:107B30002DE9F34704461F46154BDFF864A00D46B8
:107B400090469847236A5D5DA36A05EB450503EB04
:107B5000C50501A80F4B2E1D98470F4B304698477F
:107B60000E4B814601A898470024A145A2B201D03E
:107B7000BC4206D1AB8AA0B29B1AAB8202B0BDE870
:107B8000F08708EB04013046D0470134EDE700BF31
:107B9000098C0000B57B000067890000C37B0000F2
:107BA0001F89000008B5024B9847002008BD00BFA0
:107BB0001D8C0000EFF31083036072B6BFF35F8F7C
:107BC0007047BFF35F8F036883F31088704700002E
:107BD000004B1847518F0000014B1860014B1847AC
:107BE000540600202DA10000054B10B51C68054B64
:107BF0009847054B01462046BDE81040184700BF96
:107C000054060020A18C000041A10000054B10B5D6
:107C10001C68054B9847054B01462046BDE81040BF
:107C2000184700BF54060020A98C000041A10000A5
:107C3000004B1847598F0000436903B1184770473C
:107C4000836903B11847704710B5044B0446984741
:107C500018B9034B2360034B636010BD29900000EB
:107C6000397C0000417C00002DE9F047DFF850909E
:107C70000F4606461546C8470F4B04463046984700
:107C800080463046C847013838420FD06FF00D00AB
:107C9000BDE8F087B7FBF4F42C44A04508D32A468E
:107CA00039463046054BBDE8F0471847A845F1D2A4
:107CB0006FF00C00BDE8F0877B900000839000001F
:107CC00075900000004B18477B9000001FB5838A19
:107CD000ADF804304FF40043ADF806300391054B86
:107CE000029201A9283814469847002808BF204668
:107CF00004B010BD9D9A00001FB5838AADF8043012
:107D000048F20103ADF806300391054B029201A938
:107D1000283814469847002808BF204604B010BDF4
:107D20009D9A00004288D20502D4436B03B11847E4
:107D300070474288D20502D4836B03B1184770475D
:107D40004288D20502D4036B03B118477047000084
:107D500070B50C4B04469847054680B90A4BE36260
:107D60000A4BA3620A4A0B4E01212046B0470A4A39
:107D700002212046B047094A29462046B0472846F6
:107D800070BD00BF399A0000F97C0000CD7C000076
:107D9000257D00005D9B0000337D0000417D0000DB
:107DA0000368184710B51023002484614161C26143
:107DB000046203720121024B20389847204610BD0F
:107DC000A59E000038B50025A0F120041023C26153
:107DD000816145610562037201212046044B984789
:107DE00040F2FF112046034B9847284638BD00BF9C
:107DF000B59E0000D59E000070B50C4B04460E46A3
:107E00000021051F98470021094B20469847094B40
:107E1000002120469847002384F82830236B23B1A3
:107E200031462846BDE87040184770BDA59E000049
:107E3000B59E0000C59E0000026CC36B9A4210B54F
:107E400004460BD3064B00219847002384F82830C2
:107E5000E36A1BB1201FBDE81040184710BD00BFEA
:107E6000C59E000070B5866B1A4B0446EEB10279D0
:107E7000056C012A05F10102026412D89847705579
:107E8000216CE36B994217D2626B134B92B120794C
:107E9000012894BF515C32F811102046BDE87040B3
:107EA0001847984726F81500EAE79847236C0133EE
:107EB0002364E5E7E188F0E7084B00212046984776
:107EC000002384F82830E36A1BB1201FBDE870400E
:107ED000184770BDDD9E0000D59E0000B59E0000D5
:107EE00070B50379416B0D4A012B036C03F1010559
:107EF0000446056494BFC95C31F813109047226CA6
:107F0000E36B9A4209D100212046054B9847204651
:107F10000121044BBDE87040184770BDD59E00009C
:107F2000A59E0000C59E000070B50446064644F8B4
:107F3000041F0E4B20469847002815DB0C4D0D4AB8
:107F400000212046A8470C4A01212046A8470B4A99
:107F500002212046A8470A4A03212046A847094B88
:107F6000B362094B7362002070BD00BFE99D000041
:107F7000E59E0000E17E0000657E0000397E000085
:107F8000F97D0000C57D0000A57D00000430014B97
:107F9000184700BF759E000090F82C30DB0602D415
:107FA0000430024B18476FF003007047919E0000A9
:107FB00090F82C30DB0602D40430024B18476FF0E7
:107FC00003007047899E000070B50446C263A16338
:107FD000036400234364051D102380F82C300E46F3
:107FE000094B012128469847084B56B1227A012AAD
:107FF000626C94BFB15C36F8121028469847002096
:1080000070BD6189F9E700BFB59E0000D59E0000F4
:1080100009B9026370474263003218BF012203218D
:108020000430014B184700BFEF9E00002430086069
:108030000020704710B4044C1346A44600221C389C
:108040005DF8044B604700BF35A0000010B4044C3D
:108050001346A4460A461C3800215DF8044B6047CD
:1080600035A0000010B5054B044640F8041F9847A2
:1080700018B9034B6362034B236210BD019F0000DC
:108080004D800000358000000430014B184700BFD0
:10809000C59F00000430014B184700BFD19F00006E
:1080A0002030086000207047F0B505681DB90F4BFF
:1080B000BDE8F0401847D1F808E02C460026C2F190
:1080C000010C6368A768934295BFDB1963449B1A50
:1080D000DB19734507D22368264613B93046044B93
:1080E000E6E71C46EDE7A542F8D1E0E7D3880000BB
:1080F000DB8800002DE9F0470669037E44690136FC
:10810000DA070546066110D4037E9B070DD4DFF81D
:108110004880DFF8489000F1140724B16368A26832
:10812000F31A934207D2BDE8F0872B7E43F0020397
:108130002B76BDE8F0873846C047237C012B04D15D
:108140006660324621463846C847D5F814A0E36831
:10815000204698475446E0E7FB880000A9800000CD
:1081600010B51368044640F8042B98470020024BD2
:108170006061636010BD00BFF5800000036870B5EA
:10818000061D05469B6930469847044628B92B686A
:1081900030469B689847204670BD6FF0100070BD58
:1081A000F7B5037F00F1180643F001030377044697
:1081B000154B30460F469847054638B1237F03F0EC
:1081C000FE0323776FF0110003B0F0BD62690F4B1F
:1081D0007A60304639469847237F03F0FE032377C1
:1081E000207F10F00200EFD001A8094B9847237FB1
:1081F00003F0FD0323772368201DDB69984701A85E
:10820000044B98472846DFE7C5880000A980000096
:10821000B57B0000C37B0000034600229A62DB6945
:10822000083803B118477047034600229A625B6A18
:10823000083803B11847704770B50446054BA0F1E4
:1082400008052C309847236A1BB12846BDE87040CA
:10825000184770BD4189000010B5B0F84C30144685
:10826000B0F844209A420CD10023A0F844300123F6
:108270008164A0F84C4003630830034B98472046C4
:1082800010BD6FF01B0010BDF7990000838FB0F890
:1082900044209A4210B504460AD0026C591C8187CA
:1082A000D15C044B9847044B2046BDE8104018476A
:1082B000024BFAE7F1990000F7990000FF990000DE
:1082C0002DE9F74305460F4BDFF8449001A83435FC
:1082D0008846164698470C4B284698470B4B07464E
:1082E00001A898470024A74201D0B44203D1A0B20C
:1082F00003B0BDE8F08308EB04012846C847013409
:10830000F1E700BFB57B000067890000C37B000078
:108310001F89000038B504460D46343011461A4610
:108320000C4B984790B9294604F108000A4B98472E
:1083300070B90A4B63600A4B23600A4BA3600A4B77
:10834000E3600A4B23610A4B636138BD6FF00C0098
:1083500038BD00BF0789000079990000C182000084
:10836000598200008D8200003982000019820000CD
:108370002982000008B50830014B9847002008BD4D
:10838000DD9900000860002070470000012908B551
:108390000FD004D3022912D06FF00C0008BD826206
:1083A000003218BF012201210830084B98470020F5
:1083B00008BD4262003218BF01220221F4E7C26206
:1083C000003218BF01220321EEE700BF079A000028
:1083D0000A4970B5002300F00F065D014C195AB22E
:1083E0006478844208D06D5C0DB9A64204D0013394
:1083F0000D2BF2D14FF0FF32104670BD5806002011
:108400000020704770B5094B04460D469847084B4D
:1084100003EB40108378032B05D18369294620465E
:10842000BDE870401847002070BD00BFD183000038
:10843000580600202DE9F0433C4B3D4C85B080466A
:108440000F469146984703464601002F49D1A5198A
:10845000A15DEF7000293BD1AA786878EE69032A04
:108460004FF00C0E4FF020022BD112FB03E22244FE
:10847000012195F90C70B0476B7878B10522002F77
:10848000AA704FF00202B4BF184643F08000EA70B1
:108490000121284B984705B0BDE8F083002FACBF01
:1084A00043F0800303F00F0304228DF80C30012306
:1084B000019002908DF80D30AA7001A81E4B9847CC
:1084C000E9E712FB03E22244B0470223AB70E2E784
:1084D0000123AB7034444A46E369E178404698474B
:1084E000D9E7012F04EB06030BD1A15D0222DA705C
:1084F00021B99A7040460F4B9847EBE705229A70D6
:10850000E8E7022F07D10422DA70A25D0AB99F7052
:10851000C1E70122F3E7032F09BF002206229A7068
:10852000052218BF9A70DA70D4E700BFD18300002B
:1085300058060020C5B00000FDB100002DE9F0474D
:108540001D4B1E4E1E4C0546984720270C2317FB3B
:10855000003737448146394628461A4B9847C0B2FF
:10856000082865F07F0809D001212846A04701218D
:108570005FFA88F02346BDE8F047184706EB491636
:10858000002128465FFA88F8A0474FF00109002132
:108590004046A04786F802907369394628469847B6
:1085A00038B905234946B3702846A0474946404696
:1085B000E0E7BDE8F08700BFD18300005806002047
:1085C000C5B00000A9B1000010B5114B98470028B4
:1085D0001CDB4FF4D07200210E4B0F4898470E4B16
:1085E0000E4A03F5D071FF2058705A619A61DA6122
:1085F00020338B42F8D10A4C0A490020A0470A498F
:108600000120A04702200949A047002010BD00BF5B
:10861000A1AC00002BD5000058060020018400000A
:1086200029B300003D85000005840000358400006A
:10863000004B184705B30000004B184789AD0000F8
:10864000004B1847E5AD0000004B1847F7AD0000A0
:10865000F8B5104C06460D461746A047002813DA19
:10866000FF20A047041E12DB3A46294630460A4B3B
:10867000984700280DDB094B60011A1805F0030527
:108680001D5456700020F8BD6FF01300F8BD6FF058
:108690001400F8BDD183000005AE0000580600208C
:1086A00000210246014B0846184700BF51860000D2
:1086B00038B5074B05469847041E07DB2846054B8F
:1086C0009847054800EB4410FF23437038BD00BFB6
:1086D000D1830000C5AE00005806002038B50C4B11
:1086E00005469847002810DB40010A4C235C0444EF
:1086F000002B0CBF02230123A3702846064B98478A
:10870000002804DA0023A37038BD6FF0110038BDD3
:10871000D18300005806002049AF00002DE9F04F3A
:1087200090F808A0364B074687B050469847B0F1FE
:10873000000897F809907E685DDBDFF8D4B0314B14
:108740004FEA48180BEB080502A89847AB788DF85C
:1087500007309DF807002C4BC4B2012C1CD103221A
:10876000AA7002A898471BF808304BB319F1000310
:108770004FEADA1418BF012339683A7A0391049654
:10878000002C35D042F080028DF8153003A81F4B25
:108790008DF8142098470DE002A898479DF80730FF
:1087A000DBB2052B2AD0062B07D0002B0CBF6FF0B5
:1087B0001200012007B0BDE8F08F6FF00F00F9E75D
:1087C000E97CAA7C02EB012292B22AB90423AB70A5
:1087D000164623461C46CFE795F90C10964228BF53
:1087E00016460029F6DAB24294BF00230123C3E7FC
:1087F00002F00F02C8E76FF01100DBE70220D9E7B3
:10880000D1830000B57B0000C37B0000FDB10000F8
:10881000580600202DE9F04105460C46D9B9134B06
:108820009847071E1EDB02212846114EB047D8B1DB
:1088300021462846B047002816DB0E4800EB4710BB
:10884000032101238370C170C369224628469847DB
:108850002046BDE8F0810129054B18BF0221BDE883
:10886000F04118476FF01100BDE8F081D18300009E
:10887000C5B000005806002038B50F4B14460D4611
:1088800098470E4A002C08BF1446002813DB012D20
:1088900008D002D3022D0AD038BD094B03EB40109B
:1088A000446138BD064B03EB4010846138BD044B76
:1088B00003EB4010C46138BDD18300000184000087
:1088C00058060020006800B970478842FAD101209C
:1088D000704703680B600160704703680B600160BC
:1088E000704703681BB901600B60704713461A6834
:1088F000002AFBD119600A60704703680BB11A683F
:10890000026018467047531E1A4001BF43608260E0
:10891000C26001600CBF10466FF00C0070478368A6
:10892000C2689A4209D0426813400268D35C0B7057
:10893000836801338360002070476FF0090070473F
:10894000C368426813400268D154C36881684268B2
:10895000591A914288BF9A1A03F1010388BF8260B5
:10896000C36000207047C2688068101A704700001A
:10897000044B1968024609B9034919601868024492
:108980001A607047F8070020103D012000280DDB19
:108990004309012200F01F0002FA00F02033044ACC
:1089A00042F82300BFF34F8FBFF36F8F704700BFB4
:1089B00000E100E0002809DB4309012200F01F006C
:1089C00002FA00F06033024A42F82300704700BF09
:1089D00000E100E0036B0B42FCD1704703889BB2BF
:1089E00043F0020303800321004B1847D5890000A0
:1089F000038823F002031B041B0C03800321014B9B
:108A0000184700BFD589000000F13D40A0F5E050B7
:108A1000C0F38720431E58425841704730B4426922
:108A200092F82E1092F82D300B4013F0010509D06A
:108A3000012382F82E30B2F84020836892B20021E0
:108A400030BC184713F0020106D0022382F82E3002
:108A50004368294630BC18475B0704D5042382F8D5
:108A60002E300368F6E730BC704700F13D40A0F5BA
:108A7000E050800A4000763000F0FE0070470000B1
:108A800038B5036B2D4C13F0010F02460D460DD186
:108A90000321A04703889B0703D5294B9847022150
:108AA000A0470123138003211046A047104601214F
:108AB000A047244B162101FB05351046AB88D38017
:108AC00040F6FF71A047AB791372104640F6FF7174
:108AD000A047EB7993702B899380104640F6FF7185
:108AE000A047AB7A9372104640F6FF71A047EB7A2D
:108AF000D372104640F6FF71A047AB8993811046B0
:108B00008021A047EB89D38110464FF48071A047A4
:108B10002B8A138210464FF40071A0476B8A538250
:108B200010464FF48061A0472B7DD3706B88138073
:108B300010460321A047002038BD00BFD5890000A2
:108B4000F189000046DF00002DE9F843224B04467E
:108B500008460D469847214B014628469847064649
:108B6000002830D11E4B65619D422FD11D4B1C60EA
:108B70001D49DFF88090DFF880801C4F2846884729
:108B800000B2C8476069884700B2C047606988473B
:108B90000125420900F01F0305FA03F3284447F8B2
:108BA000223000B2C84760698847284400B2C047F5
:108BB00060698847284480B2430900F01F0005FA25
:108BC00000F047F823003046BDE8F883084B9D428B
:108BD00004BF044B5C60CBE7098A0000818A000077
:108BE000001C0043FC0700206B8A000000E100E04D
:108BF000002000438D890000B58900004069014BC9
:108C0000184700BFDD8900004369DB88C3F3C10357
:108C1000032B0CBF01200220704700004069037D38
:108C200043F00203037540F6FF71014B184700BF84
:108C3000D5890000012A416904D104223BB981F899
:108C40002C207047022AF9D01AB90122F6E781F8E0
:108C50002D207047014B1868014B1847FC07002076
:108C60001D8A0000004B1847558C0000014B5868C6
:108C7000014B1847FC0700201D8A0000004B1847D5
:108C80006D8C00004309012200F01F0002FA00F081
:108C90004033024A42F82300704700BF00E100E081
:108CA0007823584370470000014B5843704700BF7A
:108CB000C0D4010010B50E4A0E4C13889BB243F489
:108CC000A06313800C4B98470C4B98470C4B98476C
:108CD0000420A0470B4B984740F6FB70A0470A4A78
:108CE000136943F400731361BDE81040074B184744
:108CF00000400041C58F0000E1900000F5900000A9
:108D00001D900000F990000000080040618D0000F7
:108D100010B4114B114C198C01F01F0103EB01131E
:108D20000C224A4393F84E10C90704EB020006D503
:108D3000012283F84E2043685DF8044B184793F8EE
:108D40004E10890704D5022183F84E10A358F3E78B
:108D50005DF8044B704700BF00A0004104080020EC
:108D600070B52F4B1A8822F002021204120C1A80DE
:108D70005A8822F47C521204120C5A801A8892B239
:108D800042F001021A801A8812F00102FBD14FF45E
:108D900070611980597B234801F0FE0141F0010107
:108DA000597321495A615863996313461F49024612
:108DB0001D461C0104F1824000F520400E68066447
:108DC0000E7980F845604E7980F8466001331019BD
:108DD000CE881653202BC56001F10801E9D11F226E
:108DE000012053099B0003F1604302F01F0103F5CA
:108DF000614300FA01F1C3F88010BFF34F8FBFF356
:108E00006F8F0132242AC3F880111960E9D1044A16
:108E100013889BB243F002031380002070BD00BF93
:108E200000A00041F0380020F03A002074DF00007C
:108E300039B9084B0001022118443AB980F84C10A6
:108E40007047012904D1034B0001F5E780F84D106C
:108E5000704700BF00A00041024B03EB001081608F
:108E600000207047F0380020024B03EB00104160F7
:108E700000207047F0380020054A0001135A9BB2C9
:108E800023F4806343EA812189B2115200207047A4
:108E9000F038002070B50F4B00011D18AE681A5A4B
:108EA0001C5AC2F30122240542BF01FA02F4A4199C
:108EB000AC601C1865681E5A760548BF01FA02F2BC
:108EC000034448BF521989B248BF626059800020EC
:108ED00070BD00BFF038002010B502010B4CA35A42
:108EE0009BB243F00103A35202F1824303F52043F6
:108EF0001A6C42F002021A6431B1054A0123116969
:108F000003FA00F008431061002010BDF038002083
:108F100000A00041034B01EB410103EB8101016023
:108F20000020704704080020004B1847118D0000F6
:108F3000004B1847118D0000004B1847118D0000A1
:108F4000004B1847118D0000004B1847118D000091
:108F5000016000207047000010B5124A124C002337
:108F6000185D03F148010133432B42F82100F7D18A
:108F70000E48002200F14004D30003F1824303F5C0
:108F8000604330F81210196214F8221083F825108B
:108F90000132C943C9B2202A83F82410ECD1002041
:108FA00010BD00BF00E0004174E00000B8E0000028
:108FB000034943F6FD734A681A42FCD1704700BF6B
:108FC000001C004010B5C40704D50E4B0E4A1A62AF
:108FD0000E4B9847810704D50A4B0D4A5A620B4B3A
:108FE0009847420704D5074B0A4A9A62074B9847AD
:108FF000030706D5034B084ADA62BDE81040034B6D
:10900000184710BD001C004008010100B18F00008E
:10901000060101000601100004010100014B0122BC
:109020005A7170470008004001610B8823F0C003AB
:109030009B049B0C0B800D4B18600D4B4FF00051A7
:10904000C3F88010BFF34F8FBFF36F8F4FF0804294
:10905000C3F88020BFF34F8FBFF36F8F0020C3F89A
:109060008011C3F8802119601A60704784090020BC
:1090700000E100E04FF4007070470369986880B227
:10908000704721F4FF53402A23F01F030BD199426C
:1090900009D103695A8AD207FCD54AF211525961A3
:1090A00040209A8070476FF00C007047094B186899
:1090B00003691A8AD20704D501221A82036843B1D0
:1090C00018471A8A92B222B140F25E221A8243688D
:1090D000F5E7704784090020004B1847AD90000069
:1090E000034BDA6902F47C52DA6101221A74704788
:1090F00000140040704700003B4B1A6A22F00F0238
:1091000042F004021A6243F6FD7259681142FCD122
:109110005A6812F00402FBD1344B1A77344A9A622F
:1091200093F82C2012F01002FAD183F820202F4A55
:10913000134692F82C104907FBD40221117793F8BB
:109140002C209207FBD45A6A5A62284B1A4693F88D
:109150002C100807FBD4882183F8201092F82C30BB
:109160005907FBD4204B4221C3F88810272393646E
:109170001E4B1A46196D11F0060FFBD14FF400611A
:10918000D964022183F84410136D9B07FCD492F834
:109190002030164A13F0010F21D0136903F4106335
:1091A000B3F5106FF9D1114B5A6DD10702D45A6D36
:1091B0009207F9D50C4A11465368002BFCD1136A6B
:1091C00023F00F0343F00803136243F6FD734A686C
:1091D0001A42FCD1044A53685B07FCD470471369F8
:1091E000D805FCD5DFE700BF001C004000100040A0
:1091F0000000010407B50C4A9378DBB20193019B90
:10920000990707D5094B1B6823B15068984703B0ED
:109210005DF804FB019BDB07F9D5044B5B68002B71
:10922000F5D0014AF1E700BF00000241F03C002008
:1092300003690B42FCD17047C068038823F0020326
:109240001B041B0C038048F20301014B184700BFAD
:1092500031920000C068024B01626021184700BFD4
:1092600031920000C26808B510466021014B984752
:10927000106A08BD31920000C26808B5104648F275
:109280000301034B98471088C0F3400008BD00BF9E
:1092900031920000704700000C4B10B54FF4006293
:1092A0000446C0681A60002383610821084A904779
:1092B000E06808219047E06803889BB243F002030E
:1092C000038048F20301BDE81040104700E100E0D0
:1092D00031920000074B4FF40062C3F88020BFF3C7
:1092E0004F8FBFF36F8FC0680123038048F20301E3
:1092F000014B184700E100E031920000024638B50A
:109300000125D1600D4C0D80084648F20301A047AD
:109310002946D068A047D06848F28003038048F20D
:109320000301A047D06860210562A047D3684FF4CD
:1093300080715981024B00201A6038BD31920000C3
:10934000880900200048704754030020074B10B5DF
:109350001C68E3689B89DB0507D523680BB12046B1
:109360009847E3684FF480729A8110BD8809002005
:10937000002808DB4209012300F01F0003FA00F077
:10938000014B43F82200704700E100E000280DDBAC
:109390004309012200F01F0002FA00F02033044AC2
:1093A00042F82300BFF34F8FBFF36F8F704700BFAA
:1093B00000E100E0002809DB4309012200F01F0062
:1093C00002FA00F06033024A42F82300704700BFFF
:1093D00000E100E0C3690B42FCD17047C3690B4256
:1093E000FCD17047C3690B42FCD17047036823F07E
:1093F000020303600321014B184700BFD59300000F
:10940000036823F0020303600321014B184700BFE8
:10941000DD930000036823F0020303600321014B86
:10942000184700BFE593000070B50B4D06460FCD01
:1094300088B06C460FC495E80F0084E80F00002048
:109440005DF82030B34202D1C0B208B070BD013027
:109450000828F5D10020F8E778E1000010B584690C
:10946000227ED107034608D5A27DD20705D5012269
:1094700022750368BDE810401847227E900709D581
:10948000A27D910706D5022222759A681846BDE88A
:1094900010401047227E52070DD5628B02F0370232
:1094A00012B1FF23638310BDA16A5A68C9B218467E
:1094B000BDE810401047227ED209F4D080222276E7
:1094C000DA6818469047638B9BB2EBE7134B9842E0
:1094D00007D1134B1960134B98420DD1104B5961B2
:1094E0007047114B984202D10D4B5960F3E70F4B77
:1094F000984207D10A4B99600D4B984204BF084B24
:10950000996170470B4B984202D1054BD960704767
:10951000B0F1864FDFD1024B196170470030004037
:109520008C09002000040043003400400020014169
:10953000000800430040014108B5034B9847053837
:1095400018BF4FF0FF3008BD2994000008B5034B49
:10955000984780002E3000F0FE0008BD29940000DE
:1095600008B5C26912F0010208D1036843F0020392
:1095700003600321034B9847104608BD6FF00300BA
:1095800008BD00BFDD93000008B5084B98470328CD
:1095900007D0072807D10123054800EB0310184422
:1095A00008BD0023F8E7002008BD00BF2994000093
:1095B00098E1000008B5034B984707280CBF082026
:1095C000002008BD2994000008B5034B98470728E0
:1095D0008CBF0020012008BD2994000083689B688F
:1095E00003B11847704783685B6803B11847704739
:1095F0008368DB6803B1184770470000436843F491
:10960000403343600421014B184700BFD59300004D
:109610002DE9F0410D46574ED0F800800421044654
:10962000B047438B15F0010F9BB2374664D09907C2
:1096300017D501210176518889B241F480515180BA
:10964000518821F48071090413F0010F4FEA114190
:10965000518014BF6FF004056FF003052846BDE884
:10966000F08113F0040515D05368002BC1BF538857
:109670009BB243F48053538053881F0401D53E4B63
:109680009847538823F480731B041B0C53806FF09E
:109690000105E3E7538813F4806715D0138804218C
:1096A000DB0903F00607B047436A03F4804343F045
:1096B000F1033B4343620421B047538823F48063A2
:1096C0001B041B0C5380C9E7556845B953881E0419
:1096D00001D5294B9847538823F48073F0E79368AA
:1096E0001B7883620421B047936801339360536809
:1096F000013B53600025B1E715F00205AED051687B
:10970000002933D0580731D40139C8F3C060516003
:1097100041B958B9636843F480236360042120464B
:10972000B84703E0012901D10028F3D1536893B968
:1097300053881B0409D5636823F480736360204653
:109740000421B84720460C4B9847538823F4807374
:109750001B041B0C538095686B1C936004212046EE
:10976000B847A36A2B7002232376C3E7022323762C
:109770008DE700BFD5930000FD95000038B50B685C
:109780000C4D23F481730C4623F001030360032185
:10979000A847636823F4383323F4107343F4003389
:1097A00043601721A847237B0373637B80F8303025
:1097B00038BD00BFDD93000070B5C26912F003022E
:1097C0000C460ED1084E0321B0470368240723F04E
:1097D000405304F040541C4304600321B04710463A
:1097E00070BD6FF0030070BDDD9300002DE9F04106
:1097F0000C46264B264E074608469847E369254AFD
:1098000013F0010F5FFA80F817D1182303FB0863E8
:10981000032120469D6C904723689B0705F01C059B
:1098200005D520461C4B984702212046904745F01D
:1098300001052560032120469047204601219047DD
:10984000182303FB08662046B56C2560032190476A
:10985000F36C6360204604219047C5F30165336DC6
:10986000E360BD81636A012D23F4804394BF00252A
:10987000012543EA85352046656204219047B6F804
:109880005630FB810020BDE8F08100BF3995000013
:1098900078E10000D5930000ED9300002DE9F04140
:1098A000314B04469847054648B1012807D00228A5
:1098B00005D0042856D0062814BF00250425E369E6
:1098C0002A4F2B4E13F0010F17D1182303FB0573FA
:1098D00003211A6E204602F01C02B04723689B0742
:1098E00005D52046234B984702212046B04742F039
:1098F0000102226003212046B04720460121B047E3
:10990000182202FB05722046D2F86080C4F800805D
:109910000321B047536E63601F212046B047936E0A
:10992000A36018F4C04F1DBFA389B2F86C1092F861
:109930006E20B2F86C301EBF61F30C03A381A389C3
:109940004FF0180000FB057018BF62F34F33A3817E
:1099500090F86F30A37390F8703084F830300020A6
:10996000BDE8F0810325AAE72994000078E1000012
:10997000E5930000159400002DE9F8430646114BCD
:1099800008460C4698470546C8B9B461314620469A
:109990000D4BDFF844800D4F0D4E984720460D4B80
:1099A00098472C46814609EB0401C9B20846C047D6
:1099B0000846B84701340846B047042CF3D128467E
:1099C000BDE8F8839D980000CD940000B593000099
:1099D000719300004D9500008D930000806903682D
:1099E00043F0020303600321004B1847E593000096
:1099F000836999627047836901229A757047836908
:109A000002229A75704711F0FD0F09D18369022176
:109A1000012012B9187519757047987599757047B6
:109A2000012904D183690421002AF7D1F3E703292E
:109A3000F5D183698021F7E72DE9F8430646114BFC
:109A400031610C4698470546C0B9314620460E4B59
:109A5000DFF844800D4F0E4E984720460D4B984737
:109A60002C46814609EB0401C9B20846C0470846A6
:109A7000B84701340846B047042CF3D12846BDE866
:109A8000F88300BFED970000CD940000B59300006F
:109A9000719300004D9500008D930000F8B50446C9
:109AA0004868002856D06388D80551D44B882A4E80
:109AB0009BB243F480734B8007C984E80700206998
:109AC000436843F4807343600421B04762682569AA
:109AD000012A2B6829D11A0127D56B6843F480230A
