:1040000010820120F5420000F1420000F142000060
:10401000F1420000F1420000F14200000000000007
:10402000000000000000000000000000F14200005D
:10403000F142000000000000F1420000F1420000E7
:10404000F1420000F1420000F1420000F1420000A4
:10405000F1420000F1420000F1420000F142000094
:10406000F1420000F1420000F1420000FDBB0000FF
:10407000F1420000F1420000F1420000F142000074
:10408000F1420000F1420000F1420000F142000064
:10409000F1420000F1420000F1420000F142000054
:1040A000F1420000F1420000F1420000F142000044
:1040B000F142000031B8000005B8000039B400003A
:1040C00041B4000049B4000051B4000059B40000EC
:1040D000F1420000F1420000F1420000F142000014
:1040E000F1420000F142000000000000000000006A
:1040F00000000000A5BA000045C500003DC5000055
:1041000035C5000025C500006DC5000065C500006F
:104110005DC500004DC50000F1420000F142000005
:10412000F1420000F1420000C9C50000C1C5000015
:10413000B9C5000075C50000F1C50000E9C5000063
:10414000E1C50000D1C500006DC6000065C60000D5
:104150005DC60000F9C5000095C600008DC60000D0
:1041600085C6000075C60000F1420000F142000063
:10417000F1420000F14200000000000000000000D9
:10418000E5DC0000EDDC0000F5DC0000FDDC0000FB
:1041900000000000F1420000F1420000F142000086
:1041A000F1420000F1420000F1420000F142000043
:1041B000F1420000F1420000F1420000F142000033
:1041C000F1420000F1420000F1420000F142000023
:1041D000F1420000F1420000F1420000F142000013
:1041E000F1420000F1420000F142000029CE00003F
:1041F00039CE000049CE000059CE0000F142000047
:10420000F1420000F1420000F1420000F1420000E2
:10421000F1420000F142000075B1000065B10000FC
:104220008DB100007DB10000F1420000F1420000BC
:10423000F1420000F1420000F1420000F1420000B2
:10424000F1420000F1420000F1420000F1420000A2
:10425000F1420000F1420000F1420000F142000092
:10426000F142000010B5054C237833B9044B13B16B
:104270000448AFF300800123237010BDB005002077
:10428000000000008C1D01000C4B43B10C480D498F
:1042900010B5AFF300800C48036823B910BD0A487D
:1042A000036833B97047094B002BF7D0BDE81040C5
:1042B0001847064B002BF5D0184700BF0000000040
:1042C0008C1D0100B40500208C1D010000000000C1
:1042D00010B5044B9847044B9847044BBDE8104079
:1042E000184700BF4D4C00007DF5000021E40000A0
:1042F000FEE7000008B5144A144B9A4218D1144B3B
:10430000144A002193421CD3134A144B22F07F021B
:104310009A60D3F8882042F47002C3F88820BFF373
:104320004F8FBFF36F8F0E4B98470E4B9847FEE7AA
:104330000D49043A8B42E2D252F8040F43F8040BC1
:10434000F8E743F8041BDDE78C1D010000000020A6
:10435000B0050020108200200040000000ED00E0C9
:1043600059FD0000C5DE0000AC05002030B54A1C38
:10437000C4B2C0F34712164804F01F0300EBC2108A
:1043800007D1184490F8403003F0FE0380F8403025
:1043900030BDC5185B0895F8402002F0FE021844B5
:1043A00042F0010285F8402090F8303014F0010FFF
:1043B00019BF03F00F0343EA011101F00F0103F0ED
:1043C000F00314BFC9B2194380F8301030BD00BFEC
:1043D0000080004101224309914200F01F0002FACF
:1043E00000F011D002D302291FD07047DB0103F186
:1043F000824303F50043586082B242F08042000CD1
:104400009A6240F040400EE0DB0182B203F1824349
:1044100003F5004342F0804242F4003258609A6251
:10442000054A42EA104098627047DB0103F182437B
:1044300003F500439860DFE7000002C0F0B5144ABE
:10444000144E136A144D1549154F43F0800313623F
:10445000144B85B04122C3F82021134B0193002453
:10446000012300933246234602942846B847721C23
:104470002146102328460D4DA847214607200C4B06
:1044800098470C490C4B072005B0BDE8F040184791
:1044900000080040CC05002044100020001C004310
:1044A000899D0000001C004040110020D59D0000A7
:1044B000D5430000010007006D430000F0B5154A28
:1044C000154E136A154D1649164F43F48073136247
:1044D000154B85B04122C3F82421144B01930024CD
:1044E0000123009306F11102234602942846B8479F
:1044F00006F112022146102328460D4DA8472146F9
:1045000042200C4B98470C490C4B422005B0BDE8AB
:10451000F040184700080040CC0500201812002089
:1045200000200043899D0000001C0040E00F002097
:10453000D59D0000D5430000010042006D430000FE
:10454000044A05499369054843F002039361044B0B
:10455000184700BF0008004000200041DC0F002089
:104560002D9F0000084B4022C3F8AC20C3F8B020B8
:10457000C3F8B420C3F8B820044A936943F0800319
:104580009361034B184700BF001C00400008004027
:104590008D9F0000024A136943F040031361704786
:1045A0000008004010B5044B984704490448054BE7
:1045B000BDE81040184700BF95450000004000418D
:1045C000C00F0020A59F000070B52D4C2D4E2E4D24
:1045D00001212B20B04794F8CB302C4903F0FB038A
:1045E00084F8CB302B20A84702210820B0474FF495
:1045F0008073636194F84830254903F0FB0384F825
:1046000048300820A84702210920B0474FF4007322
:10461000636194F849301F4903F0FB0384F8493083
:104620000920A84702210A20B0474FF48063636144
:1046300094F84A30184903F0FB0384F84A300A2002
:10464000A84702210B20B0474FF40063636194F840
:104650004B30124903F0FB0384F84B300B20A84782
:1046600001212A20B04794F8CA300D4903F0FB031A
:1046700084F8CA302A202B46BDE87040184700BF96
:1046800000800041D54300006D43000007002B006F
:10469000070008000700090007000A0007000B00D8
:1046A00007002A00064B1A6942F400521A611A697F
:1046B00042F400121A61DA6942F40052DA6170477A
:1046C0000008004010B5054B9847054B05490648C2
:1046D0009847064BBDE81040184700BFA5460000AC
:1046E000B1A100000034004284120020C94500003E
:1046F000064B4122C3F89C204222C3F88C20044A76
:10470000536943F480535361704700BF001C00405D
:104710000008004010B5054C05495120A04723462C
:1047200004495020BDE81040184700BF6D43000009
:10473000030051000300500013B5074B074C984786
:1047400000230093064A074907481023A047074B58
:1047500002B0BDE810401847F146000029A700004C
:10476000EE050020003000407010002015470000CA
:10477000064B4122C3F8A0204222C3F88C20044AF1
:10478000536943F400535361704700BF001C00405D
:104790000008004010B5054C05495B20A0472346A2
:1047A00004495C20BDE81040184700BF6D4300007D
:1047B00002005B0002005C0013B5074B074C9847F2
:1047C00000230093064A074907481023A047074BD8
:1047D00002B0BDE8104018477147000029A700004B
:1047E000FE05002000340040C41000209547000062
:1047F00010B5054C05493920A04723460449382007
:10480000BDE81040184700BF6D43000003003900A9
:1048100003003800064B4122C3F8DC204222C3F8D3
:104820008C20044A936943F400739361704700BF7E
:10483000001C00400008004010B5054B9847054B90
:104840000549064800229847054BBDE81040184727
:10485000154800008DA800000020014138100020FC
:10486000F147000070B5134C134E144D4FF48013F4
:10487000C4F8943002213420B04711493420A847AD
:104880004FF40013C4F8943002213520B0470D498D
:104890003520A84701211420B04794F854300A4924
:1048A00003F0FB0384F8543014202B46BDE870401D
:1048B000184700BF00800041D54300006D43000051
:1048C000020034000200350003001400064B4122B0
:1048D000C3F8E0204322C3F88C20044A936943F4D0
:1048E00080639361704700BF001C004000080040D7
:1048F00010B5054B9847054B054906489847064BA8
:10490000BDE81040184700BFCD4800003DA300009F
:1049100000400141380F002065480000064B41224D
:10492000C3F808214222C3F88C20044A136A43F0DA
:1049300001031362704700BF001C004000080040E4
:1049400010B5054C05492820A047234604492920D5
:10495000BDE81040184700BF6D4300000300280069
:104960000300290013B5084B084C98470023009317
:10497000074A084810234FF08641A047064B02B073
:10498000BDE81040184700BF1D49000029A70000DE
:104990000E060020781100204149000070B50B4C34
:1049A0000B4D94F857300B4903F0FB0384F8573054
:1049B0001720A84794F85630074903F0FB0384F802
:1049C000563016202B46BDE8704018470080004145
:1049D0006D4300000300170003001600064B412240
:1049E000C3F80C214222C3F88C20044A136A43F016
:1049F00002031362704700BF001C00400008004023
:104A000010B5054B9847054B054906489847064B96
:104A1000BDE81040184700BFDD49000059A1000063
:104A200000040043F80F00209D490000064B41227E
:104A3000C3F810214222C3F88C20044A136A43F0C1
:104A400004031362704700BF001C004000080040D0
:104A500010B5054C05494D20A047234604494C207C
:104A6000BDE81040184700BF6D43000003004D0033
:104A700003004C0013B5074B074C984700230093E5
:104A8000064A074907481023A047074B02B0BDE874
:104A9000104018472D4A000029A700001E060020DC
:104AA00000080043C8110020514A000070B5134CA3
:104AB000134E144D4FF08043C4F8943002213E2031
:104AC000B04711493E20A8474FF00043C4F8943046
:104AD00002213F20B0470D493F20A84701211E2059
:104AE000B04794F85E300A4903F0FB0384F85E3067
:104AF0001E202B46BDE87040184700BF00800041D3
:104B0000D54300006D43000002003E0002003F005C
:104B100002001E00064B4122C3F814214222C3F8B2
:104B20008C20044A136A43F008031362704700BFE5
:104B3000001C00400008004010B5054B9847054B8D
:104B4000054906489847064BBDE81040184700BF86
:104B5000154B000079A40000000C00431411002044
:104B6000AD4A00000148024B184700BF10E000E0CA
:104B7000359F000070B50221114C124E124D1820C5
:104B8000B0474FF08073636194F858300F4903F0D9
:104B9000FB0384F858301820A84702211920B04799
:104BA0004FF00073636194F85930094903F0FB0337
:104BB00084F8593019202B46BDE87040184700BFD3
:104BC00000800041D54300006D430000070018003D
:104BD00007001900074B4122C3F8A820A3F5A053F2
:104BE0001A6942F480621A619A6942F001029A617C
:104BF000704700BF001C004010B5044B9847044BA1
:104C00009847044BBDE81040184700BFD54B000043
:104C1000B9AA0000754B0000024A536943F480733F
:104C2000536170470008004010B5044B9847044892
:104C3000044B0360BDE81040034B1847194C0000BB
:104C4000C01000200020004005DD00002DE9F041EB
:104C5000854B864C864D874F984720236361022100
:104C60000520A84794F8453003F0FE0384F845304A
:104C700001211520A84794F8553003F0FB0384F870
:104C8000553094F8553003F0FE0384F85530012177
:104C90002720A84794F8C73003F0FB0384F8C730F7
:104CA00094F8C73003F0FE0384F8C7304FF4005384
:104CB000C4F8943002212D20A84794F8CD304FF449
:104CC000804603F0FE0384F8CD300221C4F89460DE
:104CD0002E20A84794F8CE3003F0FE0384F8CE309F
:104CE00001212F20A84794F8CF3003F0FB0384F86C
:104CF000CF3094F8CF3003F0FE0384F8CF30012199
:104D00004B20A8474FF40062C4F8042194F84B31BB
:104D100043F0040384F84B31C4F8182194F84B3164
:104D200003F0FE0384F84B310221C4F814614E20D5
:104D3000A84794F84E3103F0FE0384F84E31012168
:104D40005220A84794F8523103F0FB0384F8523103
:104D500094F8523103F0FE0384F852314FF40023EB
:104D6000C4F8143102215320A84794F8533103F0BA
:104D7000FE0384F853314FF48013C4F81431022138
:104D80005420A84794F8543103F0FE0384F85431BA
:104D90004FF4001302215520C4F81431A84794F8A9
:104DA0005531354D03F0FE0384F85531334B344C07
:104DB0009847344B9847344B9847344B9847344B7B
:104DC0009847344B9847636943F400736361324BEF
:104DD0009847324902463248A847324B9847324BEF
:104DE0009847324B9847324B9847324B9847324B53
:104DF0009847324B9847324B9847324B98476369F4
:104E00004FF04008334363612F4EC7F8A480B0478A
:104E10002E4902462E48A847636943F40043636164
:104E2000C7F8A480B0472B4902462B48A847A3697E
:104E300043F40053A361C7F8E880B047274902460E
:104E40002748A847A36943F48043A361C7F8E880D3
:104E5000B047244902462448A847244B9847244B8E
:104E6000BDE8F041184700BFC5B100000080004117
:104E7000D5430000001C004075A500003D44000023
:104E800000080040BD4400004145000065450000A9
:104E9000A5450000C5460000F5BB00000024004009
:104EA000800F002039470000B94700003948000052
:104EB000F148000065490000014A0000754A000001
:104EC000394B0000654B000021CE00000038004047
:104ED00064120020003C00405811002000A0014155
:104EE000A00F002000C0014144120020F94B000037
:104EF000294C000030B5CC0801F007015AB1055D1E
:104F000045FA01F2D20711D4012202FA01F1294334
:104F100001551A7030BD025D012505FA01F131EA33
:104F2000020E02BF22EA010101551D7030BD0000D2
:104F300070B50025ADF5027D4FF4007302AA554C03
:104F40005548564E8DF807502946A04754495548B4
:104F5000B0474FF4007302AA29464F48A047524970
:104F60005048524CB0470DF107032A46294602A883
:104F7000A047012211460DF1070302A8A0470DF139
:104F800007032A46022102A8A0470DF107032A467B
:104F9000032102A8A0470DF107032A46042102A815
:104FA000A0470DF107032A46052102A8A0470DF1ED
:104FB00007030122062102A8A0470DF107030122E1
:104FC000072102A8A04708210DEB01000DF10703FE
:104FD0000122A0470DF107030122092102A8A047E1
:104FE0000DF107032A460A2102A8A0470DF1070385
:104FF00001220B2102A8A0470DF1070301220C2179
:1050000002A8A0470DF1070301220D2102A8A04725
:105010000DF1070301220E2102A8A0470DF107039D
:1050200001221A2102A8A0470DF107032A461B21DD
:1050300002A8A0470DF1070301221C2102A8A047E6
:105040000DF1070301221D2102A8A0479DF807309A
:10505000012B19D116491348164CB0474FF4007371
:1050600002AA29460C48A04713490E48B047BFF38F
:105070004F8F1249124BCA6802F4E0621343CB60AF
:10508000BFF34F8F00BFFDE70E490648B0470DF54F
:10509000027D70BD39B800000040800031FF000083
:1050A000361201004712010068120100F54E00009F
:1050B0007B12010099B800008D12010000ED00E0A4
:1050C0000400FA059A12010070B50A4B0A4D0B4C08
:1050D000984701460A48A0470A492846A0470A4B74
:1050E00098470A492846A047284623460849BDE86C
:1050F00070401847F5890000DE12010031FF000002
:10510000AD120100CE120100314F00000313010067
:10511000101301001FB504AB002203F8012D022279
:105120000093034C0B461146A04704B010BD00BFCE
:10513000398B00001FB504AB002203F8012D044C8D
:10514000009302220B460421A04704B010BD00BF0B
:10515000398B00001FB504AB002203F8012D044C6D
:10516000009302220B460621A04704B010BD00BFE9
:10517000398B000013B502AB002203F8012D062184
:105180000222024CA047C0B202B010BD218B000029
:105190001FB504AB002203F8012D044C009302223A
:1051A0000B460821A04704B010BD00BF398B00009A
:1051B00013B502AB002203F8012D08210222024C94
:1051C000A047C0B202B010BD218B00001FB504ABD8
:1051D000002203F8012D044C009302220B460C21FF
:1051E000A04704B010BD00BF398B00001FB504AB51
:1051F000002203F8012D044C009302220B460A21E1
:10520000A04704B010BD00BF398B0000D0F890312A
:10521000D0F89421D0F89801134418447047D0F87E
:105220009401704770B500239342D0F8944103D1A4
:105230002344C0F8943170BDC5182C44CE5C26754B
:105240000133F1E7F0B5002483268227D0F89431AA
:105250009442234402D1C0F89431F0BD0D5D022D7B
:10526000034402D11F750134F0E7032D14BF1D75EF
:105270001E75F8E7143110B48C182044194600222A
:10528000014B5DF8044B184791890000143110B4AC
:105290008C182044019A5DF8044B1946004B1847BE
:1052A000C18900000023C0F89031C0F89431C0F8E3
:1052B0009831421E00F1130102F8013F8A42FBD1EE
:1052C00000F1140200F28B11002302F8013B91421D
:1052D000FBD180F88B3180F88C3180F88D3180F8EB
:1052E0008E3180F88F3170472DE9F7431E46172322
:1052F000044688461746009301220F49DFF8509074
:105300009DF828500F23C84720460C4B984741462C
:10531000C4F890010A4B2046984739462046094B6D
:10532000984731462046084B9847084B2946204667
:1053300003B0BDE8F0431847211301000D0201003E
:105340005551000091510000CD510000ED51000079
:10535000B5010100D0F894216AB9172915BFD0F81A
:1053600090310175C15401231ABF0133C0F8903147
:10537000C0F894317047D0F898316BB9042905D042
:10538000831801321975C0F89421704780F88B1189
:105390000123C0F898317047C218013382F88B118D
:1053A000F7E7D0F890318B4230B501D9405C30BD81
:1053B000D0F894411A19914203D2C91A0144087DC8
:1053C00030BDD0F898512A4491423FBFC91A091BF9
:1053D000091891F88B0128BFFF2030BDF8B50446AD
:1053E000D0F898012B492C4E2C4D00F28B10042242
:1053F0002044B047D4F8987107F28B102044A84796
:10540000D4F89411D4F8903138440B441918244F2F
:10541000C4F89801C9B22046224B984797F8A910C2
:10542000214B2046984797F8A9300133DBB287F823
:10543000A930D4F8903121462344002299421CD14E
:10544000D4F89431143304F114012344994218D14F
:10545000D4F8983103F28B1304F28B102344984252
:1054600013D11249B047D4F8986106F28B1020444A
:10547000A8473044C4F89801F8BD11F8010B424028
:10548000DCE711F8010B4240E0E710F8011B4A404D
:10549000E5E700BF31130100B50101000D02010075
:1054A000EC3200201551000035510000341301008A
:1054B00000F1090300F20922FF2103F8011B9342C6
:1054C000FBD1022380F810320023C0F80C324FF0D9
:1054D000FF33C0F81432704700F5067300F583629D
:1054E000FF2103F8011B9342FBD1022380F81C34F7
:1054F0000023C0F818344FF0FF33C0F82034704751
:1055000010B54FF4FE2380E80A0001230372002344
:1055100080F8103280F81C34024B9847024BBDE8EB
:1055200010401847B1540000D954000002EB820229
:105530005200A02000FB01201844704770B54D00B8
:10554000002683710446017142714681074B28464B
:105550009847334620600544A84203D1A3812381A4
:10556000002070BD20F8023BF6E700BFA1FD00005F
:105570002DE9F0470646994600010B4B0B4DDFF82D
:1055800030A00F469046984700242860A64202D1DA
:105590000020BDE8F08728684B4600EB0410424627
:1055A0003946D0470134F1E7A1FD0000BC220020BC
:1055B0003D550000324B2DE9F047D3F800804FEA0B
:1055C000001C08EB0C020024157920462646A24652
:1055D0004FF6FF7923465FFA84FEAE453FD3B3FB17
:1055E000F5F5ADB28D4238BF30B258F80C4028BF47
:1055F00000B20B4434F8105024F81010907954790C
:1056000011795789B2F808C05B1BC0F11005B3FBD4
:10561000F1F3EDB29EB246FA05F1201AC0B289B29A
:10562000BF1B8140002F1FFA81FEB8BF7F420126B9
:10563000F44506FA05F520D0AF4209DC06FA04F479
:1056400006FA00F0241AA64502D0BEF1000F14D1CC
:1056500001205381A2F808E09081BDE8F087176827
:1056600037F81470BA453CBF7046BA46B9453B445A
:1056700084BF7646B9460134ADE70020BDE8F08727
:10568000BC220020024B1B6803EB0010007B70471C
:10569000BC220020084B1A68CB1F02EB0012072B1C
:1056A0004FF0000090819FBF50791389401A43FA50
:1056B00000F080B2704700BFBC2200202DE9F0410D
:1056C0001C4B1D4E04464068984741F21B030025C1
:1056D0006562A56241F20107E55441F20203FF222F
:1056E00004F58050E2540221E2550B30B04704F536
:1056F0008050E25D02210930B04741F2170304F502
:105700008056E75C0D4B033639463046984739469C
:1057100002460B4B30469847E5612046094B9847B7
:10572000636A234483F8FC576068074BBDE8F04187
:10573000184700BF99A70000C1890000D98A00005E
:10574000118B00008185000089A7000038B5104B3F
:1057500000241C7005460180C48104814481848139
:105760000482448284820B4B08469847686000B9E3
:10577000FEE720462A88A3B29A4204F1010101D82B
:10578000012038BDA4B26B6818550C46F2E700BF83
:10579000B4220020A1FD00000389028A93429BBF2E
:1057A0000088C018981A801A80B270470389028A4C
:1057B000934210B59CBF04881B199B1A9BB28B4265
:1057C00008D904880A4492FBF4F304FB13224282B2
:1057D000084610BD034A13780133DBB21370002171
:1057E000F6E700BFB4220020838A4268D154838A3E
:1057F000018801339BB2B3FBF1F201FB12338382C8
:1058000001207047438A828A934217BF044A038269
:105810001378013317BFDBB20120137000207047EB
:10582000B42200202DE9F04FD31D8DB023F00703E3
:1058300002AFADEB030D0DF1080804469346414657
:105840004FF4FA600025A1EB08039AB2934500F2E9
:10585000E480002245464FF4FA60164693B29B4519
:10586000A36A00F2E8805B44B3FBF0F200FB123362
:10587000A3626362DFF85892DFF858A28B4A0023D4
:1058800023620126B34500F2E08095F80080B8F16C
:10589000010F40F0BE8005EB0B0313F8019CB9F13A
:1058A0000A0F40F0B6805946814B824E28469847F1
:1058B000594682462846B047824540F01D826B78A3
:1058C0000F2B40F00F8107F128064FF0000306F878
:1058D000013DDFF804823346022204212846C047F6
:1058E00049467861334602222846C047334638612C
:1058F000022206212846C047C3B2FB617F3BDBB2D0
:10590000FB60022233460821284697F90C90C047D5
:10591000C3B2BB617F3BDBB2BB60022233460C21CA
:10592000284697F908A0C04704F580531B7818440F
:1059300000F003027A6043B1012B40F09880BB690C
:10594000C3F17F08CA464FFA88F941F2190314F8E7
:10595000038041F21A0308F17F08C14414F8038060
:10596000FB6808F17F08D044812B5FFA89F95FFA60
:1059700088F802D1BB68812B1FD0DFF860A13B7D86
:105980000096022204212846D0474B4602220621D7
:1059900000962846D0474346022208210096284612
:1059A000D0473B7C009602220A212846D047009629
:1059B0007B6802220C212846D0473B7D3E4809EBFC
:1059C000032908EB092997F810803C4B08EB0928BC
:1059D00041469847E8B95946364B2846984704F659
:1059E000E474024659462846354B984759462046A6
:1059F000344B984768B1DFF8E8902E46731B9BB292
:105A00009B454ED8304B2046984741462A482F4B5D
:105A100098472C37BD46BDE8F08FA26A1A44B2FB06
:105A2000F0F300FB1323234493F8FC2701F8012B28
:105A300083F8FC5707E71344B3FBF0F100FB113385
:105A40002344013283F8FC6708E718F80630012B7D
:105A50000AD1ABEB06001FFA80FB49465046FA61BB
:105A60009047FA6908EB06050136B6B20AE7022B41
:105A70000AD1FB69C3F17F09BB69C3F17F0A4FFA01
:105A800089F94FFA8AFA60E7032B09BFFB694FF0E7
:105A9000000AC3F17F03D14614BFD1464FFA83FAFF
:105AA00053E716F8011B2046C847A7E731FF00005F
:105AB000F58A0000D98A0000EC3200204D8B0000EE
:105AC000118B0000AD57000005580000678B0000E7
:105AD0003A130100DE120100218B0000398B000017
:105AE000E95700000E2B40F0F980AB78072B90D1DE
:105AF00000220221DFF8289205F10800C8470022A1
:105B00005FFA80FA0221A81DC84741F21B035FFA21
:105B100080F8E35C002B7AD141F2010914F80930D6
:105B2000FF2B1DD17A4B7B48984700F07F0204F58C
:105B3000805004F809200221774B0930984741F240
:105B4000170304F58059E35CFB6109F10309194669
:105B50004846B047FB690246194648466F4B98478E
:105B600041F20203E25C424518D004F580504246FF
:105B700004F803800221684B0B30984741F2170369
:105B800004F5805814F8039008F10308494640468C
:105B9000B04749460246614B4046984741F20103EF
:105BA000E35C53452ED1617AEB785B1A0633594298
:105BB00004F5805201F0030103F00303ABF10A0086
:105BC00058BF4B421370022100222844544B514DC0
:105BD000984741F21B030122C4F8FC0FE254284607
:105BE0004B4B9847C0B228704E494F4B4F4898478F
:105BF0004FF4FA730193002328460093FF221946BD
:105C00004B4DA84741F218030122E25401E7627AA2
:105C1000EB789B1A06335A4202F0030203F00303A7
:105C200058BF534204F5805241F202001178205CC3
:105C300041F20102A25C524508BF40450CBF4FF043
:105C400001084FF00008ABF10A008B4214BF4FF07F
:105C5000000808F00108002202212844D4F8FCAF13
:105C6000C847504503D1B8F1000F7FF4D2AE41F2DE
:105C70001B034FF0000904F8039041F2010A41F2BE
:105C80000203FF2504F58050E554DFF88C8004F80A
:105C90000A502A4602210B30C04704F5805014F800
:105CA0000A2002210930C04741F2170304F5805849
:105CB000E45C08F1030821464046B047214602460D
:105CC000164B404698470221C8238DE80A004A46F1
:105CD0002B4629460F48164CA0479AE60222C823B5
:105CE0008DE80C0000231A46FF210A48104CA047FB
:105CF000104B114898478CE60E4B10489847C82324
:105D00000193CDF80080FF2300221421E2E700BFB9
:105D1000E3880000EC320020C1890000118B0000F4
:105D2000918900004D13010031FF0000DE120100D7
:105D30004189000019000100551301008B13010077
:105D4000F7B5037E012B044610D1002505764B4B99
:105D500098474FF4FA730193FF2300951A461946AA
:105D60004748484DA8474848484B9847256A25B1B9
:105D7000236A002B72D103B0F0BD6368CBB1E36935
:105D8000B3F57A7F35D941F21B03E35C012B23D1B4
:105D90003F49404B404898472046384B98474FF47E
:105DA000FA730193FF2300951A4619463448354D7E
:105DB000A8474FF4F57140F2CF764FF4FA6540F200
:105DC000CE77636AE21892F8FC270A2A14D10123DD
:105DD00023620023E361CEE7A36A13B9636A002B51
:105DE000E7D02E492B4B2C4898472046234B984709
:105DF000DFE70133E361DCE7002ABCD0A26A501E72
:105E000083420CD0B34200D14AB102F2CF72B2FB4E
:105E1000F5F005FB1022224492F8FC278AB12049B4
:105E20001C4B1D4898472046144B164C984702229D
:105E3000C8238DE80C0000231A46FF211048A04714
:105E400099E7BB4201F1FF3198BF013389B2E261AA
:105E500094BF636262620029B3D189E7626AA16A72
:105E6000104B914234BF013202F2D172521A92B2F7
:105E700089B220469847002323627CE7BD56000084
:105E8000EC32002041890000BE130100190001001E
:105E9000EB13010031FF0000DE1201000F140100BE
:105EA0002814010025580000F0B543898589AB42CC
:105EB00000D0FEE702899A4200D0FEE7068AB5428A
:105EC00016D00488002293B2A34200D3FEE7AF1895
:105ED00097FBF4F104FB11718FB2BE4208D0476802
:105EE000795C0A2902F10102EDD1581C80B2F0BDA3
:105EF0000020F0BDF0B543898589AB4200D0FEE7B4
:105F000002899A4200D0FEE7068AB5421ED0018877
:105F10000024A2B28A4200D3FEE72F1997FBF1F3C7
:105F200001FB13739FB2BE4210D04768FF5C0A2F7B
:105F300004F10104EDD1013393FBF1F401FB1433BF
:105F40004381531C9BB2C3811846F0BD0023FBE77D
:105F500083894189994210B5024600D1FEE7416824
:105F60001488C85C01339BB2B3FBF4F104FB11331A
:105F7000938110BD82894389934200D0FEE703815B
:105F8000012070472DE9F04387B0044617464C4D79
:105F90009DF8388000F6CC701E46A847394604F6B6
:105FA000E470A84700229DF840302260A3729DF85B
:105FB0003C30637211466660134684F80880A28103
:105FC0002262E2180133B3F5FA6F82F82C10F8D18F
:105FD00000231D46E2180133B3F5FA6F82F8FC572F
:105FE000F8D141F2010004F5805141F21B03012276
:105FF000FF260D70C4F8FC5FE254265441F2020003
:106000009045265441F21800255456D1E5540D70A0
:106010002C4B94F809900F469847042303375FFAF6
:1060200089F905930723424627490290CDF8049049
:106030000093DFF8A49004960E2303963846C847D1
:10604000224B3846984741F21703C0B2E054384615
:1060500014F80390E15C1E4B98475FFA89F90246F9
:106060001C4B494638469847637A112B09D141F2B7
:106070001903E55441F21A0304F8038007B0BDE8A0
:10608000F083637A122B07D141F2190304F80380DD
:1060900041F21A03E554F1E7637A132B06D141F27A
:1060A0001903E55441F21A03E654E7E7637A142B27
:1060B000E4D141F21903E654EAE7E254DEE700BF17
:1060C0004D570000F5890000411401000D02010048
:1060D000D98A0000118B0000B50101002DE9FF47AE
:1060E000012400264FF47A621123264D01931146B4
:1060F00002960094244B2548DFF8B080A8474FF45F
:106100007A6212230193114602940094204B214895
:10611000A8474FF002094FF47A6213230193114606
:10612000CDF8089000941C4B1C48A84703274FF457
:106130007A6214230297019311460094184B194870
:10614000A8474FF0FF0A4FF47A6200973346114692
:106150004046154FCDF808A00196A8474FF47A6243
:106160003346CDF808A00196CDF800901146384688
:10617000A84741F21B0308F80340FC5404B0BDE8F3
:10618000F08700BF855F0000C41000209812002037
:10619000701000203C6D0020C8110020004C002031
:1061A00078110020E03B0020205C0020C422002069
:1061B0002DE9F04F93B000F6E47802AF0646574B56
:1061C000F960404698470446002800F0A580544BEB
:1061D0003B61544B7B61544BBB61544BFB61544B53
:1061E0003B62544B7B620023C7F808D01D4607F181
:1061F000100141F21B0051F8232012F800E0BEF11B
:10620000000F07D007F1400E0EEB850E01354EF85A
:10621000182CEDB20133062BEDD1DFF834A10021AB
:1062200007F12809CBB29D4221D84046424B9847FE
:1062300084423AD1DFF81CB14FF0000907F1280A77
:106240005FFA89F39D4231D84FF0000A1FFA8AF3B2
:106250009C42404637D8394BDFF8FC80984707F11D
:1062600028040021CBB29D424BD8012015E059F8FB
:106270002100864201D1FB68ABB100F6CC70D0475B
:10628000844210D90222C8238DE80C0064222C48D5
:106290002C4C00231146A0470020D7F808D04437E3
:1062A000BD46BDE8F08F0131BCE7FEE75AF8290092
:1062B000864201D1FB681BB1214600F6CC70D8475D
:1062C00009F10109BCE7204B98474FF000098346CC
:1062D00007F128025FFA89F18D4202D80AF1010A1A
:1062E000B4E752F82900864201D1FB6833B1594620
:1062F00000F6CC70154B7A6098477A6809F101096D
:10630000E8E754F82100864201D1FB6813B100F69A
:10631000CC70C0470131A5E7C1E700BFA95E00000E
:10632000981200203C6D0020004C0020E03B002033
:10633000C4220020205C0020F55E0000755F000094
:10634000EC32002041890000515F0000E957000055
:1063500099570000AD570000055800002DE9F04F97
:1063600000F6CC76EDB08146694B3046984705463D
:1063700010B96DB0BDE8F08F09F12C03019309F25B
:10638000FC72002103F8011B9342FBD105AC2046AF
:10639000604BDFF8ACB1DFF8ACA1984730465E4BFC
:1063A00098472C35019F4D44AF42304626D15B4B78
:1063B0005B4D98475B4B204698477F3843B202932A
:1063C0002046594B98477F3843B24FF0000A039359
:1063D0005746D4F894211FFA8AF39A4216D82046D9
:1063E000524B534F984700250646B542294640F088
:1063F000878009F12C004F4B9847BAE7D847804671
:1064000001462046D04707F8018BCDE723441B7D8A
:10641000022B04D15FFA8AF70AF1010AD9E7032BAC
:10642000FAD10FB90027F7E7394601222046A847DD
:106430003E460123C7B2042231462046A847C0B2D7
:10644000002F39D10E28EDD13146022305222046F6
:10645000A8473146022307222046A84731468346F3
:10646000022309222046A8473146804602230B22F8
:106470002046A847BDF808602F4B5FFA88F210212C
:10648000E03211FB0622602192FBF1F801FB182299
:1064900003995B7A294EC1F5807101F0030101EB8C
:1064A0008301CBF3031B01F00F01C3B2D2B241EA67
:1064B0000B115846B047AFE7012FB3D10E28B1D129
:1064C0003146022305222046A847314607460223CB
:1064D00007222046A847314680460223092220464B
:1064E000A8473146834602230B222046A847134E75
:1064F000C3B25FFA8BF25FFA88F1F8B2B04791E766
:106500002046B847019B03F8010B013501936CE766
:10651000A95E0000A5520000F55E0000755F000056
:106520007552000075510000B15100000D5200007D
:10653000A3530000C5E60000EC320020CDED0000C2
:10654000515F0000555300002DE9F04F00F6CC7468
:10655000ADF50B7D20469D4B9847039018B90DF57E
:106560000B7DBDE8F08F26AD4FF4C8720021984B2B
:10657000984F284698472046974B98470026039AFD
:10658000B3B29A42204634D8944B954E9847002493
:106590000DF11E030222062128468DF81E40B04749
:1065A0000DF11E035FFA80F8022208212846B04749
:1065B000B8F17F0FC7B220D1A7F17F02D2F1000856
:1065C00048EB020827460023864E8DF81F300293C1
:1065D0001C4626AD029B595D022921D19DF8084039
:1065E000029B039A01330293BDF808309A42F0D817
:1065F000B5E7B847A8550136C1E7B8F1FF0F05D197
:10660000A7F1FF035F425F41A046DCE7B8F1000F4E
:1066100003D1B7FA87F77F09D5E72746A046D2E727
:106620000329DDD10CB90024DAE7601C0DF11F024B
:106630002844B0475FFA80FA201D0DF11F020121A6
:106640002844B047BAF1300F5FFA80F927D1601DB6
:106650000DF11F0202212844B047B9F10E0F044684
:106660000ED16148614B9847024620B901460C2380
:106670005F48604DA847E1B25B485F4B9847D2E75F
:10668000B9F10F0FCFD15848584B98470028CAD0BE
:1066900000225748574C09231146A047C3E7BAF1D7
:1066A000310F2ED1B9F10E0FBDD1601D0DF11F02BA
:1066B00002212844B0475FFA80F9E01D0DF11F0266
:1066C00002212844B047C4B2012C0AD149464B4BA1
:1066D0004548984744484A4B98478145A3D1494685
:1066E000CAE7002C9FD14048454B9847814503D1CC
:1066F000FF213D48404B98474946424B3A4898470E
:106700006EE7BAF1320F38D1B9F10E0F8BD1601D9F
:106710000DF11F0202212844B0475FFA80FBE01D03
:106720000DF11F0202212844B047814604F10900FF
:106730000DF11F0202212844B047824604F10B00EC
:106740000DF11F0202212844B0474FEA0A2A4FEAFE
:10675000094202F47F021FFA8AFA42EA0A0252FA56
:1067600080F25946284B204898471F48244B9847A9
:1067700083457FF458AF59467EE7BAF1400F49D1BF
:10678000B9F10E0F7FF44FAFB8F1000F3FF44BAFEC
:10679000601D0DF11F0202212844B0478146E01D13
:1067A0000DF11F0202212844B047824604F109007E
:1067B0000DF11F0202212844B047144CC3B25FFA06
:1067C0008AF25FFA89F1124867E700BFA95E00000C
:1067D000C7FD0000515F0000F55E0000755F00001E
:1067E000218B000091890000EC32002057880000C6
:1067F0005C7D002031960000A788000025880000FD
:1068000053880000318800003D880000116D0000B1
:10681000D07D0020BAF1410F3BD1B9F10E0F7FF4CA
:1068200002AFB8F1000F3FF4FEAE601D0DF11F0284
:1068300002212844B0478246E01D0DF11F020221CB
:106840002844B047834604F109000DF11F020221DC
:106850002844B047049004F10B000DF11F020221FF
:106860002844B047814604F10D000DF11F020221BA
:106870002844B047049B8E4C5FFA89F2C0B2019065
:106880000092DBB25FFA8BF25FFA8AF18948A04787
:10689000C9E6BAF1610F11D1B9F10E0F7FF4C3AEA1
:1068A000B8F1000F02D1002F3FF4BDAE82488349FA
:1068B000834B98478348844B9847B4E6BAF1600FFE
:1068C0000FD1B9F10E0F7FF4AEAEB8F1000F02D1C7
:1068D000002F3FF4A8AE784878497C4B98477C4815
:1068E000E9E7BAF1620F0FD1B9F10E0F7FF49BAE59
:1068F000B8F1000F02D1002F3FF495AE75486F49F3
:10690000754B98477548D6E7BAF1710F48D1B9F180
:106910000E0F7FF488AEB8F1000F02D1002F3FF4C4
:1069200082AE664C6E4D0023194604222046A847CD
:1069300000F580604002C4F814026A4B6A4D20469C
:1069400098474FF400734FF4002104F109022068C6
:10695000A84766480123002140F2012E81B9E518BD
:106960005A1E2D7A0A2D06D1024482F8FC57036282
:106970008162012104E0FF2DFBD0024482F8FC5724
:1069800001337345EAD164220021594B08A8984786
:10699000564B58491A6A584B08A8984708A88AE7DE
:1069A000BAF1700F0FD1B9F10E0F7FF43CAEB8F110
:1069B000000F02D1002F3FF436AE46483F494F4BFF
:1069C00098474F4877E7BAF1720F11D1B9F10E0F1E
:1069D0007FF429AEB8F1000F02D1002F3FF423AEAF
:1069E0004848394B984735493A48474B98471AE643
:1069F000BAF1800F7FF417AEB9F10E0F7FF413AE2A
:106A0000B8F1000F02D1002F3FF40DAE601D0DF163
:106A10001F0202212844B0470490E01D0DF11F021F
:106A200002212844B047059004F109000DF11F022E
:106A300002212844B0470DF1200A78222C4B5FFA3E
:106A400080FB0021504698479DF808301B1B0B3BEC
:106A5000002250469A4218D39DF810501A4ADFF887
:106A600074909DF814400493ABB128489047D9F82E
:106A70000420049B02EB05155946E868342505FB04
:106A800004005246224CA047CDE5A1182944C97AFA
:106A900011540132DEE71F489047D9F8043003EB68
:106AA00005153420EB68594600FB04301A4BE5E528
:106AB000A56C0000D07D0020EC320020983300202F
:106AC000218300005B140100A58300008981000080
:106AD0006B140100E03200208D8300007C14010063
:106AE0002D550000B1540000C59F0000C4220020B5
:106AF000C7FD00008D140100B5010100F18D0000FB
:106B00009C140100AC140100F18B0000BC140100C6
:106B1000C5980000CA140100D19900002DE9F8437E
:106B20008389054613BB00F6CC763046114B984757
:106B30000446D8B13046104BDFF84890984705F12D
:106B40002C07AC812C342C44B846A742304609D1DE
:106B50000A4B9847AA896868094B41469847012023
:106B6000BDE8F883C84707F8010BEEE70020BDE851
:106B7000F88300BFA95E0000F55E0000755F0000AD
:106B8000A9A10000515F0000014B01221A7070475B
:106B90009412002010B544788C421CD9FF2B4FF082
:106BA0000C0404FB01F128BFFF230C4CC06854F80F
:106BB00023304350FF2A28BFFF22014454F82230DB
:106BC0004B60BDF80830FF2B28BFFF23002054F88E
:106BD00023308B6010BDFF2010BD00BFBC370020EC
:106BE00010B5064C064B00F114012046984720468C
:106BF000044A054B0021BDE810401847141100203D
:106C0000B5A40000896B0000A9A40000407870477B
:106C1000F0B50D26457800213746CBB29D4210D9FC
:106C20000369032207FB0133DC7A93F80CE0013A95
:106C3000744412F0FF02DC7216FB0533F4D101310B
:106C4000EBE7F0BD10B54478006904FB02120D2497
:106C50006243811883549DF808304B709DF80C30C6
:106C60008B7010BD10B5447804FB021201690D2031
:106C700000FB0212D3709DF8083013719DF80C30A0
:106C8000537110BD10B5447804FB021201690D2048
:106C900000FB021293719DF80830D3719DF80C30FF
:106CA000137210BD2DE9F3479DF82C609DF8285014
:106CB000DFF854A01C461423B6FBF3FECDF804E025
:106CC000B5FBF3FEB4FBF3F3CDF800E007468846CE
:106CD0009146D047730801936B0800934A466308B6
:106CE00041463846DFF824A0D0472346054C0B9692
:106CF0004A4641463846A4460A9502B0BDE8F047E8
:106D0000604700BF856C0000456C0000656C0000AA
:106D100010B5447804FB021201690D2404FB021231
:106D2000D37210BD10B5447804FB021201690D2422
:106D300004FB0212137310BD2DE9F74F0546417095
:106D4000CCB20C206043903068604F4FB847064685
:106D500000F19003A8602720EB606043B84706B1BC
:106D600000B9FEE7002328611946AA68D15401330F
:106D7000902BFAD10024454F26466B789C420DD3C8
:106D8000DFF814B14FF0000A6B785FFA8AF6B3426D
:106D90000AF1010A0AD803B0BDE8F08F00232146AA
:106DA00000961A462846B8470134E6E700242346F1
:106DB00031462846019400940122D8477F2300934E
:106DC00031462346284601940122314FDFF8CC900A
:106DD000DFF8CC80B847FF2300933146234628468E
:106DE000019401222B4FB847234631462846012201
:106DF000C8472346314628460122C047234631462C
:106E00002846019400940222D8477F2300933146FC
:106E100023462846019402221D4FB847FF230093C2
:106E2000314623462846019402221A4FB84723468A
:106E3000314628460222C8472346314628460222C8
:106E4000C047234622463146284601940094D8473D
:106E50000F4F019423462246314628460094B847F6
:106E6000234622463146284601940094094FB847EC
:106E70002346224631462846C84723462246314605
:106E80002846C04780E700BFA1FD0000956B0000C9
:106E9000656C0000856C0000456C0000256D0000ED
:106EA000116D000070B5284E0546002293B213F014
:106EB000010F14BF4FF060604FF0006013F0020F3D
:106EC0000CBF4FF000444FF0604413F0040F44EA4D
:106ED00000040CBF4FF400204FF4602013F0080FA3
:106EE00040EA04000CBF4FF400044FF4600413F0B8
:106EF000100F40EA04000CBF4FF400644FF46064CC
:106F000013F0200F44EA00040CBF4FF400404FF48C
:106F1000604013F0400F44EA00040CBF08200E202C
:106F2000DB0914BFE02380232043034346F82230CB
:106F30000132B2F5807FB9D12846044B98472846E4
:106F4000034B9847002070BDBC370020396D00000E
:106F5000E16B00002DE9F04F04694378DFF8A0A051
:106F600085B000254FF00D09039309FB014403266A
:106F70002B462A46E77A94F803C01AF807E094F8FB
:106F800000B05744013E97F8008197F800721CFB4F
:106F900008FC0BFB0ECC94F806B00BFB07CC62444C
:106FA00094F804C094F801B01CFB08FC0BFB0ECC59
:106FB00094F807B00BFB07CC634494F805C094F831
:106FC00002B01CFB08F80BFB0E8E94F808B00BFB0C
:106FD00007E73D44BDF80C7016F0FF0619FB0744A7
:106FE000C8D1C5F34F250095C3F34F23C2F34F22F9
:106FF000024CA04705B0BDE8F08F00BF956B0000C4
:107000000000002070B5064E054600246B789C42B7
:1070100000D370BD21462846B0470134F6E700BFD3
:10702000556F000010B5074B044600221A70064841
:10703000064B9847A288A1686069054BBDE81040DF
:10704000184700BF94120020141100209DA40000D6
:10705000A9A100002DE9F04F704C714BDFF8489268
:10706000704F714DDFF844B2A3B02046012198471C
:107070002046012200216D4B9847002260686C4B2E
:10708000114698477822002104A8C84769496A4BED
:1070900004A8984704A8B84704AB53FA80F822AE76
:1070A00003234FF0000A0093022210236349404655
:1070B000A84706F879AD0E23012204210096604D01
:1070C0004046D847A847009603460222052140467D
:1070D000D84700960123022207214046D847009650
:1070E0000123022209214046D847032302220B2113
:1070F00000964046D84704A8B8476668C3B204AAB9
:10710000F068504E0C21B0477822514604A8C84779
:107110004D49494B04A8984704A8B847D4F804E05F
:10712000C3B204AADEF80C000721B047782251460A
:1071300004A8C8474549404B04A8984704A8B84745
:10714000D4F804E0C3B204AADEF80C000821B0476A
:107150007822514604A8C8473D49374B04A89847B0
:1071600004A8B847D4F804E0C3B204AADEF80C00BF
:107170000921B0477822514604A8C84735492E4B0B
:1071800004A8984704A8B8476468C3B204AAE06892
:10719000314C0A21B04731493148A047314B4FF4B7
:1071A0008042C3F818210A202F4B9847A84726464B
:1071B00070B92E492A48B0472D4B98472D4B2E4881
:1071C00098472E492E482F4B984723B0BDE8F08FA3
:1071D000A8470828EDD0A847802804D12A4920488C
:1071E000B0472A4BE9E7A8478828F7D0A8474028A6
:1071F00004D127491A48A047264BDEE7A847C028F4
:1072000004D125491648A047244BD6E72449144801
:10721000A04724491248A047D0E700BF5C7D00206A
:107220007D8B00000D020100B5010100B18B000053
:10723000559B0000D7140100FD010100E614010078
:10724000F5890000C5980000F81401000F15010031
:107250001E1501003515010031FF00004C1501001D
:107260004712010000800041699F00005C15010089
:10727000B1800000B5870000EC320020C00F002074
:1072800098330020015500006E15010019750000AB
:1072900080150100797D00009215010051790000F0
:1072A000A4150100C0150100C7FD0000398B0000C6
:1072B00010B5044C0448A04723460448BDE81040DC
:1072C000184700BF019F0000441000201812002042
:1072D0002DE9F047734A137888B0144633B9137810
:1072E0000133DBB2137008B0BDE8F0876E4DEB7A66
:1072F000002B40F0A3800023ADF80C30ADF80E3029
:1073000063786A4A0833D75C6378DBB2FFB2D65C35
:1073100063780133DBB26370637803F00703637053
:10732000637813F0010FF6B2614B4FF4002200F0C6
:10733000A480C3F818216378DFF88C815D4813F0CE
:10734000020F5B4B4FF4801214BFC3F81821C3F82F
:107350001421637813F0040F554B4FF4001214BF3F
:10736000C3F81821C3F814210021022303AAC0473F
:1073700002230DF10E0200214F48C0470023ADF853
:107380000430ADF80830BDF80C308DF800704EF6C2
:10739000602293428DF8016072D901238DF8083084
:1073A000BDF80E304EF6602293426FD901238DF85E
:1073B0000930424B04AE03F1100718685968324691
:1073C00003C20833BB421646F7D13D4FDFF8FCA09D
:1073D00000261DF8062001AB04EB020816F8039006
:1073E00098F802007B68697A8145C9B21ED00DF118
:1073F000080E16F80EE0BEF1010F17D103EB0113D2
:107400003421DB6802FB013308A91144DA6011F86A
:10741000101C196100283FD17F215962FF21996218
:10742000697A04233846D04788F802900136022E44
:10743000CFD100232370234B984754E70023204FDC
:10744000DFF88890EB724FF034087968687ADAB226
:107450005E1C01EB00135B7A93427FF64CAF7B68B6
:10746000697A03EB01133846DB68697A08FB02335B
:10747000DA600023C8473346E7E7C3F814215AE728
:10748000C72B8DD87F238DF8043086E7C72B90D883
:107490007F238DF8053089E7002159629962697A66
:1074A0000523BFE72E060020EC3200200003002059
:1074B000008000414410002018120020CF15010068
:1074C000E0320020B17200008D9E00003196000075
:1074D0002DE9F0410B4F0C4C0C4E0D4D00223B465C
:1074E00011462046B04700223B4611462846B04789
:1074F0002046084C0021A047284623460021BDE82D
:10750000F0411847D172000044100020519E000045
:1075100018120020419E00002DE9F0471021124B67
:107520001248134E134FDFF85C809847042110482F
:10753000114B984700241022E1B23046B8474FEA79
:10754000041900257068E9B2022248440135C04799
:10755000102DF7D10134042CEDD1084B9847084B7E
:10756000BDE8F047184700BFA56E0000D07D0020A1
:10757000E0320020B18B00007D8B0000D174000050
:10758000B1720000559B000010B5094B094C4FF437
:1075900000129A612046084B9847084A2046084C3A
:1075A0000823A44602F10E01BDE81040604700BF69
:1075B00000800041380F0020A1A3000040060020F9
:1075C000DDA30000000000002DE9F04FB04BB148F2
:1075D0004FF400125A6189B0AF4B98470346FF2819
:1075E00008BF00230093AB4BDA7A9A46002A40F09A
:1075F000F180DFF8F0820027FAB2530802F00101AF
:1076000018F8033089000B4108EB0701DBB291F851
:107610005C1003F00F068E4200F0D0809F497C5C26
:107620009F490A709F4A03F00103250101935319F2
:107630004FEA960C59786145C6F34006934630D020
:1076400001229A7083F801C0974B5B689AF8092071
:1076500003EB02133422DB6804FB0233934A0DF17F
:10766000100951681068CE46AEE803009049083210
:107670008A42F146F5D108AA2244DC6012F8102CA7
:107680001A61BCF1000F40F0E0807F225A629AF844
:107690000910FF229A62042322468348DFF83492BD
:1076A000C8470BEB05035B7BB34200F0D580019B21
:1076B0009E4214BF4FF0FF394FF001090BEB050359
:1076C0009DF804205E739A73B9F1000F76D0996823
:1076D0007048784B784E98470390039B7748B3F5F2
:1076E000C87F84BF4FF4C8730393039B132B9CBFC5
:1076F00014230393039B039A02FB1300704B9847D8
:1077000061A3D3E90023B04700226E4B6E4EB04711
:107710006E4B98476E4B86B25E489847721C5D442C
:1077200012FB09F292B2B9F1FF3FA86011B240F02A
:107730009980EB78CB4200F192801A44EA70009B6A
:107740001A0108EB02032344197F06FB0913002BDF
:10775000C0F293807F2B00F3928003F0FF038B42F3
:107760002CD042442244514D13774F4A52689AF824
:10777000091002EB01123421D2680DF1100E04FB46
:10778000012205F1100C28686968764603C60835A1
:107790006545B646F7D108A9214453615B0011F84D
:1077A000101C93610023D4601161D36113629AF8B5
:1077B00009103D4822460123464CA0470137102FAF
:1077C0007FF41AAF444B00221A70444B984709B01B
:1077D000BDE8F08F0024BDF90050DC72404BDFF8AB
:1077E000C8802D0103EB0509D8F8043019F804709E
:1077F0002B443426DA682D4B664332440DF1100ECB
:1078000003F1100B18685968F446ACE8030008331C
:107810005B45E646F6D104AB57611B5D13617F0003
:107820000023D4609761D36113621F4A52689AF8AB
:1078300009102A444046D2681644E2B2F460254E4C
:107840000134B047102CCFD1D3E600225A629A629D
:107850009AF8091005231FE74FF000092EE70023CF
:10786000EB706CE7B9F1010F7FF469AFEB78194465
:107870007F297FF762AF7F23F2E700236FE77F2343
:107880006DE700BFAFF3008000000000004CED404A
:1078900000800041EC3200205388000010030020DB
:1078A000B52200203C6C0020E0320020DF150100F2
:1078B000EF150100E788000049FB0000007102009D
:1078C00009F800000000F03F91F5000019FD0000EC
:1078D000E388000031960000EC7D002089750000EF
:1078E0005C060020400600200F4B4FF4001210B53C
:1078F0005A610E4C9A604FF080429A620C4A9A622A
:10790000032120460B4B98470B490C4B20469847C8
:107910000B490C4B2046984720460B4A0B4B002145
:10792000BDE81040184700BF00800041380F00201C
:10793000200000C0C5A30000801A0600ADA300000F
:10794000B822002041A40000C975000025A4000051
:107950002DE9F04710211C4B1C481D4E1D4FDFF830
:107960008880984704211A481B4B9847002410220E
:10797000E1B23046B8474FEA041900257068E9B211
:10798000032248440135C047102DF7D10134042C9F
:10799000EDD10022114B012110464FF0FF341A7037
:1079A0000132102A59709870D870197158719C6002
:1079B00018735973997303F11003F0D1084B98476A
:1079C000084BBDE8F0471847A56E0000D07D0020A9
:1079D000E0320020B18B00007D8B00003C6C002069
:1079E000E978000089750000559B000010B5044C33
:1079F0000448A04723460448BDE81040184700BF8C
:107A0000019F000044100020181200200000000018
:107A10002DE9F04FB24A137889B033B913780133A6
:107A2000DBB2137009B0BDE8F08FAE4CE37A002BE7
:107A300040F0CA800023ADF80C30ADF80E30AA4BF0
:107A4000AA491A7808328E5C1A78D2B2F6B28D5CE6
:107A50001A780132D2B21A701A7802F007021A703C
:107A60001A7812F0010FEDB2A14A4FF4002100F094
:107A7000C980C2F818111A789E4F9F48DFF890B25B
:107A8000DFF890A2DFF8909212F0020F984A4FF4BC
:107A9000801114BFC2F81811C2F814111B7813F02A
:107AA000040F934B4FF4001214BFC3F81821C3F80E
:107AB00014210021022303AAB84702230DF10E026C
:107AC00000218E48B847BDF80C00D84782A3D3E9FF
:107AD0000023D047C8474FF6FF78404528BF4046AF
:107AE000ADF80C000746BDF80E00D8477AA3D3E9DD
:107AF0000023D047C847A5F10803404528BF4046AA
:107B0000012BADF80E0059D90D2EDFF8109240F27E
:107B10008E800023ADF80430ADF808304EF66023B7
:107B2000043E043D9F428DF800608DF801506CD9F1
:107B300001238DF808304EF6602398426BD901235B
:107B40008DF809306E4B04AD186859682A4603C297
:107B500008334B451546F7D16A4FDFF8C481DFF88B
:107B6000ACA1002601AB1DF8065016F8039018F8DA
:107B700005107B68627A8945D2B21CD002A8305CBD
:107B8000012818D103EB02133422DB6805FB023312
:107B900008AA2A44DD6012F8102C1A61002940D18D
:107BA0007F225A62617AFF229A6204232A4638466B
:107BB000D04708F805900136022ED3D1484A002359
:107BC0001370514B98472DE700234E4EDFF83C8150
:107BD000E37234277168607ADAB25D1C01EB00133E
:107BE0005B7A93427FF626AF7368617A03EB0113E9
:107BF0003046DB68617A07FB0233DA600023C04756
:107C00002B46E7E7C2F8141135E7C72F93D87F2337
:107C10008DF804308CE7C72894D87F238DF8053081
:107C20008DE700225A629A62617A0523BEE7012D30
:107C3000DFF8F0A04AD8A8EB07013046D047BDF8DE
:107C40000E10A8EB01012846D0472D4A8DF8086098
:107C50008DF8095004AB106851681D4603C5083201
:107C60004A452B46F7D1DFF89C90DFF8BCA0DFF83F
:107C7000BC80002702ABFD5CD9F80430627A03EBCC
:107C800002132846DE68D047E0B134230721284696
:107C900005FB0366C04708AB2B44F56013F8103CA6
:107CA000336107212846C047082170612846C04734
:107CB0000023B061F36133622A46617A134D0123D8
:107CC0004846A8470137022FD4D177E739463046D6
:107CD000D047BDF80E10B6E77B14AE47E17AF03F0F
:107CE000C0220020EC320020647D0020210300200F
:107CF000008000418D9E00004410002018120020DA
:107D0000EF150100E0320020ED790000319600000F
:107D100029F80000F5F8000019FD0000FF1501002A
:107D2000AD060020B55500008556000095560000B0
:107D30002DE9F0410B4F0C4C0C4E0D4D00223B46F3
:107D400011462046B04700223B4611462846B04720
:107D50002046084C0021A047284623460021BDE8C4
:107D6000F0411847117A000044100020519E000095
:107D700018120020419E00002DE9F0470E22072333
:107D80000521154C154EDFF87090154F1020A047B7
:107D90000C21144B1448984704211048134B984762
:107DA00000240C22E1B23046C8474FEA04180025EF
:107DB0007068072DE9B294BF0122022240440135C8
:107DC000B8470C2DF4D10134042CEAD1084B984764
:107DD000084BBDE8F047184771550000E03200201D
:107DE000559B0000A56E0000D07D00207D8B00001B
:107DF000317D0000ED790000B18B000010B5044C1E
:107E00000448A04723460448BDE81040184700BF77
:107E1000019F000044100020181200200000000004
:107E20002DE9F04F7E4A137887B0144633B91378A2
:107E30000133DBB2137007B0BDE8F08F794DEB7AF8
:107E4000002B40F0C4800023ADF80430ADF80630BC
:107E50006378754A0833D75C6378DBB2FFB2D65CCF
:107E600063780133DBB26370637803F007036370F8
:107E7000637813F0010FF6B26C4B4FF4002200F060
:107E8000C580C3F818216378DFF8C0816848DFF83F
:107E9000C0B1DFF8C0A1DFF8C09113F0020F634B4F
:107EA0004FF4801214BFC3F81821C3F8142163786B
:107EB00013F0040F5D4B4FF4001214BFC3F81821E8
:107EC000C3F814210021022301AAC04702230DF1A7
:107ED000060200215748C047BDF80400D8474EA30A
:107EE000D3E90023D047C8474FF6FF78404528BF65
:107EF0004046ADF80400BDF80600D84746A3D3E9D4
:107F00000023D047C847404528BF40464A4BADF8FC
:107F100006009847082809D1BDF80430DB43ADF8C6
:107F20000430BDF80630DB43ADF80630BDF8041070
:107F3000DFF828813846C0473046BDF80610C047F4
:107F40003E4B8DF800708DF8016003F1100702AE12
:107F500018685968324603C20833BB421646F7D147
:107F6000DFF8E490DFF8F8B0DFF8F8A04FF0000891
:107F7000D9F804306A7A1DF8087003EB021338460A
:107F8000DE68D847C8B1342307FB036606AB3B4421
:107F9000F76013F8103C336107213846D0470821B9
:107FA00070613846D0470023B061F3613362697A6B
:107FB000234E01233A464846B04708F10108B8F17C
:107FC000020FD5D1002323701E4B984733E70023BF
:107FD0001D4FDFF86C90EB724FF034087968687AC7
:107FE000DAB25E1C01EB00135B7A93427FF62BAF93
:107FF0007B68697A03EB01133846DB68697A08FB12
:108000000233DA600023C8473346E7E7C3F8142198
:1080100039E700BFAFF300807B14AE47E17AF03F51
:10802000BF060020EC320020310300200080004118
:108030004410002018120020F5890000FF150100EF
:1080400031960000FD7D0000E03200208D9E000092
:1080500029F80000F5F8000019FD0000B5550000F2
:1080600085560000955600002DE9F0410B4F0C4C51
:108070000C4E0D4D00223B4611462046B0470022D3
:108080003B4611462846B0472046084C0021A047F1
:10809000284623460021BDE8F0411847217E000014
:1080A00044100020519E000018120020419E000044
:1080B0002DE9F0470E2207230521144C144E154FCD
:1080C000DFF868801020A0471021134B1348984711
:1080D00004210F48124B984700241022E1B2304689
:1080E000B8474FEA041900257068E9B201224844F4
:1080F0000135C047102DF7D10134042CEDD1094BC7
:108100009847094BBDE8F047184700BF715500007C
:10811000E0320020B18B0000A56E0000D07D002071
:108120007D8B000069800000FD7D0000559B0000F4
:1081300000F01F034009C00100F1824000F500403B
:1081400001229A400344426093F8401041F0040138
:1081500083F8401082617047034640785970704739
:10816000437800EB83004368013343607047031D8D
:108170000022243043F8042B8342FBD1704700EBEC
:1081800081014868704700002DE9F04FADF5517D41
:108190000646544B544D69A800240F469847FF22C9
:1081A0001146234669A80094A8474FF4C872214697
:1081B00005A84E4B98470D3603944D4B4D4DDFF8B7
:1081C00058B14C4C69A898474FF0030A80460222E8
:1081D0004949CDF800A0312305A8A847474B484D91
:1081E00005A898474FF00E09C2B205A969A8D8475B
:1081F00041460123042269A8CDF80090A847039BBB
:10820000009341460223052269A8A84716F8013BBE
:10821000009341460722022369A8A847344B69A866
:108220009847022280463749CDF800A0322305A89E
:10823000A047324B05A8984705A9C2B269A8D847FC
:1082400001230422414669A8CDF80090A847039B6A
:10825000009305220223414669A8A847F3780093BA
:1082600007220223414669A8A847F379009309220F
:108270000223414669A8A847F37A00930B22022300
:10828000414669A8A847039B0133042B039394D16B
:108290001D4B69A8984738461C4B984769A81C4B4A
:1082A000984707F50676054668B94FF4FE21C7F8EA
:1082B0002014D7F818343868164C3246A0470DF50C
:1082C000517DBDE8F08FDFF85490C7F81804B04630
:1082D0000024214669A8C8470134A54208F8010BCB
:1082E000F7D1E2E7A5520000E9520000C7FD000007
:1082F0001F520000B50101000F1601000D02010020
:108300008D520000E6140100DD530000D954000036
:108310000D52000011A0000025520000A3530000E0
:1083200010B5ADF5007D0C464FF400720021144BE2
:10833000684698474FF4FE21C4F814124FF40073B6
:108340006A4620680F4CA04700230F491A465C1C60
:108350007AB91DF803000A2806D10B4483F8FC07FC
:108360000C628A62012204E0FF28FBD00B4483F8F0
:10837000FC07B4F5007F2346E9D10DF5007D10BD63
:10838000C7FD0000C59F0000C42200200B464FF42B
:10839000FE21C3F814121868014B0122184700BFD0
:1083A00075A000002DE9F047384E394C394F3A4D51
:1083B000ADF54E7D8146B047384B804667A898475B
:1083C0004FF0000A7F221146534667A8CDF800A05F
:1083D000A0474FF4C8725146314B03A89847022278
:1083E0002023304903A8B84703A8B04703AB034490
:1083F00004462D491846A847B04703AA04445346EB
:108400002244434505D019F80310D1541919C8293D
:1084100031D903AB1819B04703AB044423442349B3
:108420001846A847B04703AB04441D19032220494E
:108430002846B8472846B04703A922181D4B67A80D
:1084400098471D4B67A898471C4B67A898471C4B3B
:10845000054681B21B48984748B11B4E194FDFF8BB
:1084600070800024AC4208D11648184B98470DF58F
:108470004E7DBDE8F0870133C3E7214667A8B047CA
:1084800001463846C0470134ECE700BF0D02010049
:10849000E9520000B5010100FD010100A5520000F4
:1084A000C7FD00001D160100251601002816010059
:1084B0003113010025520000DD5300000D52000071
:1084C000AD570000A8320020A3530000055800005B
:1084D000E957000083892C3300F12C02034400216A
:1084E0009A4201D18181704702F8011BF8E7000030
:1084F0000148024B184700BFE03B0020D584000034
:108500000148024B184700BF004C0020D5840000F2
:108510000148024B184700BF3C6D0020D584000085
:108520000148024B184700BF98120020D584000074
:10853000012303764068014B184700BF99A700004C
:108540000148024B184700BFE03B00203185000086
:108550000148024B184700BF004C00203185000045
:108560000148024B184700BF3C6D002031850000D8
:108570000148024B184700BF9812002031850000C7
:10858000807A030103F1824303F5204300211A6C32
:1085900022F002021A64014B184700BFE9B3000041
:1085A0000148024B184700BF981200208185000047
:1085B0000148024B184700BF3C6D00208185000038
:1085C0000148024B184700BF004C00208185000085
:1085D0000148024B184700BFE03B002081850000A6
:1085E0002DE9F0475C202A4CDFF8F080294F2A4E15
:1085F0002A4DDFF8EC90A0475020A0474C20A04720
:108600002920A047264C274A01214046A047264A58
:1086100001213846A047254A01213046A047244A77
:1086200001212846A04701214046C847012138467C
:10863000C84701213046C84701212846C8471D4A7E
:1086400002214046A0471C4A02213846A0471B4A47
:1086500002213046A0471A4A02212846A047194C59
:1086600019494046A04719493846A047184930469D
:10867000A04718492846A047174C4046A04738460F
:10868000A0473046A04728462346BDE8F047184794
:108690003181000070100020C811002078110020E6
:1086A000B1A70000218500001185000001850000B0
:1086B000F184000071850000618500005185000093
:1086C00041850000A9A70000E8320020FC4B0020F3
:1086D0001C5C0020E87D002089A70000C410002059
:1086E000F5A70000F7B54368847A0F46196A104B66
:1086F0000546283120461646984705F2FC7120466B
:108700000C4B9847394620460B4B9847214601A809
:108710000A4B9847019B01221E6020460021084B0E
:10872000984700212046074B984703B0F0BD00BF93
:1087300079B3000069B30000A5B3000025B40000C0
:1087400041B30000E9B3000010B5104A104C1148C5
:108750004FF4FA61A047104A10484FF4FA61A0475D
:108760000F4A10484FF4FA61A0470F4A0F484FF4E0
:10877000FA61A0470E4B002283F81F2383F82023C1
:1087800083F8212383F8222310BD00BFA1850000B8
:10879000E586000098120020B18500003C6D0020A5
:1087A000C1850000004C0020D1850000E03B002086
:1087B00000E100E0642110B5417581750175C822A2
:1087C0001449427600238274C27502773224012252
:1087D000C372437243748376C474C4760376827220
:1087E000037342738273C273027483774B77C377C8
:1087F00080F8203080F821307F23CA728B77CB77C6
:1088000081F82030044B9847044B9847044BBDE84F
:1088100010401847EC320020DD600000E1850000C8
:108820004987000003299EBF401801234373704706
:1088300003299EBF4018002343737047042901D9C0
:10884000002070470844130C4374130A43754276A2
:108850007047407A7047407F7047807F7047C07F85
:10886000704790F82000704730B5417A00234C1CC7
:10887000E21802F0030285186D7B012D02D1D1B2FE
:10888000084630BD0133042BF2D1F9E700F10D02A7
:10889000002312F8011B0129D8B203D00133042BA5
:1088A000F7D1FF207047FF2909D100234377012327
:1088B000C3727F238377C37780F820307047032902
:1088C000FCD8012380F8213043185A7B012AF5D1C6
:1088D00041724277C2725A7C82775A7DC2775B7E40
:1088E000EAE7406A7047406A401A7047436A0133BA
:1088F00043627047007A70470023037270478379A0
:1089000063B980884008FA380028B8BF4042C0F1F7
:10891000FA00022390FBF3F0C0B27047012B06D19E
:108920008088FA23B0FBF3F040F30000F4E7022B59
:1089300005D1808864288CBFFF20002070477047D5
:1089400010B5C370BDF80C30838001249DF8083049
:10895000047241708270837110BD407870478078D6
:108960007047C0787047A0F130030246D8B209289A
:108970000CD9A2F16103052B03D8A2F15700C0B2B4
:10898000704711B10A700020704708467047000018
:108990002DE9F0410139DFF82480174606468C00A6
:1089A0000025231D02D12846BDE8F081394616F87E
:1089B000010BC047A0400544043CF2E76789000072
:1089C00030B585B0094B05460C4601A808499847C3
:1089D0000023DAB2944201D805B030BD1A1B01A9B8
:1089E0000A44127AEA540133F3E700BFB5010100EB
:1089F0002B1601002DE9F74F304E3368013358D163
:108A00002F4C304B304FDFF8CC904FF40055C4F86A
:108A100088504FF48042C4F8A8304FF04043C4F867
:108A2000A830C4F888204FF04022C4F8A820C4F829
:108A3000A8304FF40043C4F88430244BC4F8A83065
:108A4000A3F18023C4F8A8300120C4F89450B8479B
:108A50004FF0000AD346A8460120C4F89880B847D2
:108A600001A8C847D4F88020D4F8A030D4F890509A
:108A70005D4015405D4001A8154B98472B0441BF50
:108A8000012303FA0AF343EA0B0B5FFA8BFBBAF1FB
:108A9000070F07D04FF48045C4F898500120B8471D
:108AA000C4F894500AF1010ABAF1080FD4D1C6F8FB
:108AB00000B0306803B0BDE8F08F00BF4403002071
:108AC0000080004100200040699F000000800240BB
:108AD0001F9F0000119F000010B5024600230339BC
:108AE000141AA14201D8184610BD12F8014B634078
:108AF000F6E7000007B5CB1E0DF10702022118446E
:108B0000024B9847C0B203B05DF804FB91890000A6
:108B1000CB1E18440221014B184700BFC189000039
:108B200010B4144608441A462146024B5DF8044B23
:108B3000184700BF9189000010B5144608441A4632
:108B40002146014B984710BDC189000000F1280360
:108B5000A83053F8042B8A4203D08342F9D1002075
:108B600070470120704790F8A830013303F01F03CD
:108B700080F8A8300A3340F82310704738B50C014C
:108B80000123037005464170084B2046984719346D
:108B9000686000F10903044400221033A34200D1AD
:108BA00038BD03F8192C03F8102CF6E7A1FD0000DE
:108BB00070B5164642680B01D5183424297201217C
:108BC0006860D15406FB04F0084B6E72984706FBB0
:108BD0000444E860044400233430A04200D170BD56
:108BE00000F8343C00F8083CF6E700BFA1FD0000A7
:108BF000704700002DE9F04FADF20C4D9BA8684B7B
:108C0000684DDFF8DCB1DFF8DC91DFF8DCA1144659
:108C100000270E469847FF223B46114600979BA827
:108C2000A84739464FF4C87237A8D8479BA8C84709
:108C3000022280465C495D4D802337A8D0475C4BBB
:108C400037A8984737A9C2B25A4B9BA898470E231A
:108C500041460093042201239BA8A84763685B68F0
:108C60001B7A00934146022305229BA8A84763680C
:108C70001B7A00934146022307229BA8A847A37AA8
:108C800000934146022309229BA8A8479BA8C847F6
:108C900004F148018146484B626CDFF814819BA8BF
:108CA00098479BAB3946CDF80CB0574603EB090B00
:108CB00094F8C03001F1010AC9B28B4247D80322AF
:108CC0003E4937A8B84737A8C04737A9C2B2394B81
:108CD0009BA898473A4B9BA898473046394B9847F2
:108CE0009BA8394B984706F506798046002847D15E
:108CF0006268237A5168354D127A097A3448A84758
:108D000000F580635B020546C6F820344A464FF4FE
:108D100000734FF4002130682E4EB047039BC822E9
:108D2000002105A898476268217A137A526805A83D
:108D3000127A009101952849B84705A8274B984712
:108D4000002384F807310DF20C4DBDE8F08F01EBE4
:108D50008101214491F8C52091F8C43091F8C300F5
:108D600091F8C2100BEB020E013B01328EF8141089
:108D7000DBB200904946D2B29BA8A847514697E77C
:108D8000DFF868B0C6F81804CA46002529469BA833
:108D9000D8470135A8450AF8010BF7D1A8E700BF6D
:108DA000A5520000E9520000E41601008D520000B7
:108DB0000D02010025520000455200003113010050
:108DC000DD530000D95400000D5200002D55000065
:108DD0009833002011A00000F2160100A5830000C6
:108DE000C7FD00001F520000B5010100A3530000A1
:108DF0002DE9F74F07468A4600267B78F4B2A34256
:108E000002D803B0BDE8F08F7B684FF0000803EB99
:108E100004144FF0340B637A5FFA88F5AB4201D843
:108E20000136EAE7E3684FF000090BFB05354FF424
:108E3000847395F82C105FFA89F2914202D808F1F8
:108E40000108E8E7296B03FB021292F807110129D8
:108E500005D101935146034B38469847019B09F1D0
:108E60000109E6E7F58B0000F0B590F82C600023CF
:108E7000FF224FF48477DDB2B54201D31046F0BD36
:108E8000046B07FB03440133A47A8C4208BF2A46D3
:108E9000F1E7FF2906D0036B4FF4847202FB013126
:108EA00005234B72704730B50A4600F11004C568BF
:108EB000531A9D4208D80B44C568446C5A1A2C4476
:108EC000944206D8E0B230BD14F8013B02F8013BF1
:108ED000EDE7521B024492F8482003F8012BEBE720
:108EE0002DE9F04FDFF810E3ADF5737D002103901D
:108EF0000E468A4675464FF0340C4FF484789EF83F
:108F00000120CBB293423CD3AA4C002234274FF429
:108F1000847E6368597AD3B299424FD97B4300214A
:108F200040E0D5F804909944D9F80C909144D9F8D0
:108F3000309008FB079999F80990B9F1050F07D10E
:108F400027B10AF101075FFA87FA01E00136F6B2AC
:108F50000134D5F804909944E7B2D9F80C909144C3
:108F600099F82C90B945DCD801306A681A44547AD3
:108F7000C2B2944203D90CFB02F20024E9E70131AA
:108F8000BDE71B010020F0E78A484068C06800EB9D
:108F9000030CDCF830000EFB0800407A052800F0D6
:108FA000DA81013183484068C06818445FFA81F86B
:108FB00090F82C004045E7D80132AAE77E4B0FCB52
:108FC0000DAC84E80F0000270DAB41F2180953F8EF
:108FD000274014F80930012B19D141F2170304F688
:108FE000CC7BE218E15C754B04925846984758B127
:108FF00004F5805808F103080023049A127893427C
:1090000026D358466E4B9847002304F809300137A1
:10901000042FD9D1002E5DD075A86A4B6A4EDFF8B7
:10902000DCB1984700247F221146234675A800949E
:10903000B0474FF4C872214611A8644B9847A14627
:109040006B78E6B29E422AD236014FF000081DE04E
:10905000059318F8011B5E4B58469847059B013352
:10906000CBE7B9F1C80F0FD80BA8D8476B683344CA
:109070003421DB684F433B441B6B5B7A052B00F0CC
:109080006F810BA8534B984708F101086B68334474
:109090005FFA88F75B7ABB42E3D80134D0E711A9C5
:1090A0004A4675A84C4B98474C4B75A898474C4B73
:1090B00075A89847414B054681B24A48984748B140
:1090C000494E484FDFF808810024AC420DD1454895
:1090D0003B4B9847039B1B680F2B0ED9039A013B10
:1090E00013600DF5737DBDE8F08F214675A8B0477C
:1090F00001463846C0470134E7E7BAF1000FF0D027
:1091000075AD4FF4FA720021304BDFF8F490DFF8C0
:10911000F480364F284698471723009301220F23E7
:1091200033492846C8470DF12A0400260222114679
:109130000094334628468DF82A60B84798F8A9303D
:109140000094022204212846B84700947F2302227B
:1091500006212846B84700947F230222082128468A
:10916000B84798F80030009402220A212846B847F0
:109170000094334602220C212846B84728461D4B4E
:109180009847B24684B2CDF818900797CDF814806E
:10919000084B5B685A7AF3B29A4259D84FF0000BE9
:1091A000154F7B785FFA8BF69E4280F08C803601FB
:1091B000002376E05C7D0020D4160100AD5700004E
:1091C00005580000A5520000E9520000C7FD00004C
:1091D000E95700001F9F000025520000DD530000EA
:1091E0000D52000090320020A3530000398B000084
:1091F000211301000D020100E0320020119F000048
:10920000B5010100EC320020C82C13D87F4B0CA80C
:1092100098477F4B5A68D2683A444FF48471126B76
:1092200001FB0BFB5A44527A052A00F0B1800CA8CE
:10923000784B984708F10108754B5B68DB683B4445
:109240005FFA88FB93F82C205A45DDD801369FE75A
:1092500034275F434FF00008EEE7C82C13D86B4B60
:1092600011A898477A6832444FF48473D268424414
:1092700003FB09F3126B1A44527A052A00F0A58009
:1092800011A8644B984709F101095FFA89F97B68D5
:109290003344DB68434493F82C304B45DDD8049BC2
:1092A000013304937B6833445A7A9DF810309A4214
:1092B00006D94FF0340808FB03F84FF00109E6E740
:1092C0000BF1010B6CE7BAF1000F3FF40AAF039BFF
:1092D000039A1B68079F5B000A331360059B059A7E
:1092E00093F8A9300133DBB282F8A93002220DF1E4
:1092F0002B03114600930026631C28468DF82B6033
:10930000B8472F1904224449069B38469847434BD7
:10931000384698470444A4B22146414B2846984712
:10932000214602463F4B2846984721463E483F4B40
:10933000984700283FF4D5AE3B4FDFF8FC80B3B22E
:10934000A34203D33A4B38489847CAE6A95D38464A
:10935000C0470136F3E70AF101005FFA80FA20E620
:109360006968314411ABC86838444B4419460493CA
:10937000006B304B9847049B1846284B98476B6806
:1093800033440421DB681F4481443B6B597278E607
:109390001F4B5968274BC968394405EB0409086B12
:1093A0000AF10102494658445FFA82FA98471B4B7A
:1093B00048469847164B5A68D2683A440444136B9F
:1093C0005B440422A4B25A7231E7796808933144AD
:1093D0000AF10102C96841445FFA82FA086B75AA72
:1093E000224411461844134B09929847099A104693
:1093F0000A4A90477A68089B32440444D26842443F
:10940000A4B2126B134404225A7239E7119F000070
:109410005C7D00201F9F0000281701000D02010045
:10942000D98A0000118B0000A8320020AD5700003F
:1094300005580000A78E0000E95700002DE9F04F05
:10944000FF2985B005461ED04FF48474DFF8D8811B
:109450006E4EDFF8D8914C4300272B6B23445FFA04
:1094600087FB93F82E205A4511D8DFF8BC81674E50
:10947000DFF8B89100272B6B23445FFA87FB93F842
:10948000C0205A4562D8002005B0BDE8F08F4FEAF1
:109490008B0A0AEB0B02134493F83020412A20D1A7
:1094A00093F83130082B02D959485A4B9847286B0A
:1094B0000AEB0B02204402440DF1100E92F83130F9
:1094C00092F8331092F832204FF0000C05EB830332
:1094D0000EF801CDDB68CDF800E01030C047013751
:1094E000BBE7422AFBD193F833A093F832B093F84C
:1094F000313083B9484B3046984704AA002302F81C
:10950000013D2B6B009203EB040E5A460346514675
:109510000EF11000E2E7012B02D130463F4BEBE7A2
:10952000022B02D130463E4BE6E7032B02D13046F8
:109530003C4BE1E7042B02D1B07AC0B2DDE7052B4A
:1095400002D13046C847D8E70020D6E74FEA8B0A59
:109550000AEB0B02134493F8C220412A20D193F85E
:10956000C330082B02D92A482A4B9847286B0AEBAC
:109570000B02204402440DF1100E92F8C33092F811
:10958000C51092F8C4204FF0000C05EB83030EF8D1
:1095900001CDDB68CDF800E04830C04701376AE70D
:1095A000422AFBD193F8C5A093F8C4B093F8C33016
:1095B00083B9194B3046984704AA002302F8013DAD
:1095C0002B6B009203EB040E5A46034651460EF1F4
:1095D0004800E2E7012B02D13046104BEBE7022BAB
:1095E00002D130460E4BE6E7032B02D130460D4B3D
:1095F000E1E7042B02D1B07AC0B2DDE7052B02D13E
:109600003046C847D8E70020D6E700BFEC3200203C
:109610002E17010019000100538800005B8800002C
:109620005F88000063880000398B000069880000B3
:109630002DE9F0413424544342680F013A4419465D
:10964000D5680C4B2544804628469847FF28064697
:109650000DD00146084B28469847D8F80410074B10
:109660003944C86831462044BDE8F0411847BDE898
:10967000F08100BF698E00003D940000938E0000D1
:109680002DE9F04F0746524C524885B015469B468F
:109690008A46A04797F82C60A1460022FF234FF48A
:1096A0008474D0B2B04207D3FF2B0ED14A484B4648
:1096B00005B0BDE8F04F1847396B04FB02110132C9
:1096C000897A514508BF0346EBE74FF4847808FBDD
:1096D00003F83B6B434403F1100203F12E00002119
:1096E00002F8011B8242FBD1D96003F11402194632
:1096F000002081F82F0081F8310081F8300081F8D6
:10970000320081F8330005318A42F2D10026334914
:1097100083F82E00013D3446012302225E45386B5A
:109720000FD18044534688F82E407868C8F80C6002
:109730002B4C017A3A7A4068A44605B0BDE8F04F58
:10974000604715F801EF304440441EF0800F80F868
:1097500010E010D00846039202930191C847386B7D
:10976000039A029B01994044304490F810E0AEF116
:10977000800E80F810E015F801EC386BBEF1410F57
:109780001ED195F800E0BEF1370F17DC04EB840E14
:1097900040447044013480F82F3015F801EC80F813
:1097A00030E095F800E080F83220AEF1300E80F81D
:1097B00031E006F1FF3E80F833E0E4B20136ADE778
:1097C000BEF1420FFAD195F800E0BEF1350FDCE7AB
:1097D000A58300003417010044170100541701004D
:1097E00031960000F0B590F82C6089B005460C4623
:1097F0000023FF224FF48477D8B2B04219D3FF2A56
:1098000015D0274B1E220021684698476B7A022B01
:1098100032D1BCB92349244B68469847234B68464C
:1098200098476A46034600212846214CA04709B0C4
:10983000F0BD296B07FB03110133897AA14208BFF0
:109840000246D9E7042C0AD11A49174B68469847B3
:10985000164B684698476A4603460421E4E7052C00
:10986000E5D11549104B68469847104B6846984714
:109870006A4603462146D7E7012B05D1002CC9D003
:10988000012CD4D10D49EDE7032BD0D1054B9C42DF
:1098900001D12146E6E7012CD4D10949E2E700BF16
:1098A000C7FD000069170100FD0101000D02010064
:1098B00081960000781701008717010096170100B4
:1098C000A51701002DE9F0474FF4847C074690F876
:1098D0002CE00024FF20E6B276453FD3FF283BD0A2
:1098E0004FF484783C6B08FB00F8444404F1480EC4
:1098F00004F1C0067046002500F8015BB042FBD1C0
:109900006564204604F14606002580F8C15080F8C1
:10991000C35080F8C25080F8C45080F8C55005305C
:10992000B042F2D184F8C0500025013A28464FF0E9
:10993000010C4FF002099D4219D184F8C0007868EB
:1099400065640B463A7A017A204C4068A0473B6B2D
:109950009844012388F80731BDE8F0873D6B0CFB84
:1099600004550134AD7A8D4208BF3046B3E712F892
:10997000016F16F0800F18BF803E8EF8006012F85D
:10998000016C412E1DD11678372E16DC00EB8006B7
:109990002644013086F8C1C012F801AC86F8C2A096
:1099A00092F800A086F8C490AAF1300A86F8C3A005
:1099B00005F1FF3A86F8C5A0C0B201350EF1010EDF
:1099C000B9E7422EF9D11678352EDEE73196000040
:1099D000F0B5064690F82C009FB00C460023FF25FA
:1099E0004FF48477D9B2814213D3FF2D34D0284B62
:1099F0007822002168469847737A022B12D1042CF2
:109A000042D0052C42D09CB92249234B6846984746
:109A10000EE0326B07FB03220133927AA24208BFA9
:109A20000D46DFE7012B19D1002CEDD0012C29D0F8
:109A30009DF8003043B1194B6846984721460346CC
:109A40006A463046164CA047336B4FF4847202FBD3
:109A50000535002385F807311FB0F0BD032BE7D192
:109A6000052CE5D801A353F824F000BF099A0000A3
:109A7000859A0000319A0000319A0000899A00000E
:109A80008D9A00000749C0E70749BEE70749BCE7D0
:109A9000C7FD0000B4170100FD0101000D02010027
:109AA000C59800000B180100D5170100F017010040
:109AB00070B516464FF48475026B4D43541900235C
:109AC00021720421606084F80731A672515504F1B7
:109AD000100204F12E0102F8013B8A42FBD1E3603F
