S0150000677269645F746F706C6576656C2E737265639F
S1134000300F0120ED420000E9420000E9420000C7
S1134010E9420000E9420000E9420000000000001B
S1134020000000000000000000000000E942000061
S1134030E942000000000000E9420000E9420000FB
S1134040E9420000E9420000E9420000E9420000C0
S1134050E9420000E9420000E9420000E9420000B0
S1134060E9420000E9420000E9420000E95D000085
S1134070E9420000E9420000E9420000E942000090
S1134080E9420000E9420000E9420000E942000080
S1134090E9420000E9420000E9420000E942000070
S11340A0E9420000E9420000E9420000E942000060
S11340B0E9420000355C0000095C0000155B00006B
S11340C01D5B0000255B00002D5B0000355B0000DC
S11340D0E9420000E9420000E9420000E942000030
S11340E0E9420000E9420000000000000000000076
S11340F000000000595D0000616500005965000082
S1134100516500004165000089650000816500007B
S11341107965000069650000B1650000A9650000CB
S1134120A165000091650000E9420000E942000039
S1134130E9420000E9420000D9650000D1650000B1
S1134140C9650000B9650000556600004D660000B1
S113415045660000E16500007D66000075660000AC
S11341606D6600005D660000E9420000E94200005F
S1134170E9420000E94200000000000000000000E5
S1134180B1760000B9760000C1760000C97600005F
S113419000000000E9420000E9420000E94200009A
S11341A0E9420000E9420000E9420000E94200005F
S11341B0E9420000E9420000E9420000E94200004F
S11341C0E9420000E9420000E9420000E94200003F
S11341D0E9420000E9420000E9420000E94200002F
S11341E0E9420000E9420000E9420000E94200001F
S11341F0E9420000E9420000E9420000E94200000F
S1134200E9420000E9420000E9420000E9420000FE
S1134210E9420000E9420000AD5800009D5800004A
S1134220C5580000B5580000E9420000E94200000A
S1134230E9420000E9420000E9420000E9420000CE
S1134240E9420000E9420000E9420000E9420000BE
S1134250E9420000E9420000E9420000E9420000AE
S1134260E942000010B5054C237833B9044B13B16F
S11342700448AFF300800123237010BD70000020B8
S113428000000000448200000C4B43B10C480D496F
S113429010B5AFF300800C48036823B910BD0A4879
S11342A0036833B97047094B002BF7D0BDE81040C1
S11342B01847064B002BF5D0184700BF000000003C
S11342C044820000740000204482000000000000CA
S11342D010B5034B9847034BBDE81040184700BF87
S11342E00D4A0000997F0000FEE7000008B5144A5B
S11342F0144B9A4218D1144B144A002193421CD3F4
S1134300134A144B22F07F029A60D3F8882042F4B7
S11343107002C3F88820BFF34F8FBFF36F8F0E4B2B
S113432098470E4B9847FEE70D49043A8B42E2D278
S113433052F8040F43F8040BF8E743F8041BDDE7D5
S1134340448200000000002070000020300F002094
S11343500040000000ED00E0A17F0000D1760000E5
S11343606800002030B54A1CC4B2C0F34712164896
S113437004F01F0300EBC21007D1184490F840303A
S113438003F0FE0380F8403030BDC5185B0895F893
S1134390402002F0FE02184442F0010285F8402059
S11343A090F8303014F0010F19BF03F00F0343EA03
S11343B0011101F00F0103F0F00314BFC9B2194356
S11343C080F8301030BD00BF008000410122430955
S11343D0914200F01F0002FA00F011D002D302292A
S11343E01FD07047DB0103F1824303F5004358609B
S11343F082B242F08042000C9A6240F040400EE0EB
S1134400DB0182B203F1824303F5004342F08042B0
S113441042F4003258609A62054A42EA10409862B7
S11344207047DB0103F1824303F500439860DFE743
S1134430000002C0F0B5144A144E136A144D154915
S1134440154F43F080031362144B85B04122C3F827
S11344502021134B01930024012300933246234669
S113446002942846B847721C2146102328460D4D55
S1134470A847214607200C4B98470C490C4B0720B2
S113448005B0BDE8F0401847000800408C0000204B
S113449044090020001C0043294C0000001C00407B
S11344A03C0A0020754C0000CD43000001000700C9
S11344B065430000F0B5154A154E136A154D1649AB
S11344C0164F43F480731362154B85B04122C3F831
S11344D02421144B019300240123009306F11102BB
S11344E0234602942846B84706F1120221461023B7
S11344F028460D4DA847214642200C4B98470C49AD
S11345000C4B422005B0BDE8F040184700080040BD
S11345108C000020F40A002000200043294C0000F5
S1134520001C00409C080020754C0000CD43000096
S11345300100420065430000044A054993690548A7
S113454043F002039361044B184700BF0008004086
S11345500020004198080020FD4C0000024A136925
S113456043F04003136170470008004010B5044B4A
S1134570984704490448054BBDE81040184700BF5C
S11345805D450000004000417C080020254D0000EE
S1134590064B4122C3F89C204222C3F88C20044AD3
S11345A0536943F480535361704700BF001C0040BB
S11345B00008004010B5054C05495120A04723468A
S11345C004495020BDE81040184700BF654300006F
S11345D0030051000300500013B5074B074C9847E4
S11345E000230093064A074907481023A047074BB6
S11345F002B0BDE810401847914500003D5000004E
S1134600AE0000200030004070090020B5450000D5
S1134610064B4122C3F8A0204222C3F88C20044A4E
S1134620536943F400535361704700BF001C0040BA
S11346300008004010B5054C05495B20A0472346FF
S113464004495C20BDE81040184700BF65430000E2
S113465002005B0002005C0013B5074B074C98474F
S113466000230093064A074907481023A047074B35
S113467002B0BDE810401847114600003D5000004C
S1134680BE00002000340040C00900203546000070
S1134690064B4122C3F8DC204222C3F88C20044A92
S11346A0936943F400739361704700BF001C00409A
S11346B00008004010B5054C05493920A0472346A1
S11346C004493820BDE81040184700BF6543000086
S11346D0030039000300380013B5074B074C984713
S11346E000230093064A074907481023A047074BB5
S11346F002B0BDE810401847914600003D5000004C
S1134700CE00002000200141F4080020B54600003E
S1134710064B4122C3F808214222C3F88C20044AE4
S1134720136A43F001031362704700BF001C00408A
S11347300008004010B5054C05492820A047234631
S113474004492920BDE81040184700BF6543000014
S1134750030028000300290013B5084B084C9847B0
S113476000230093074A084810234FF08641A047CE
S1134770064B02B0BDE81040184700BF11470000C7
S11347803D500000DE000020540A002035470000A0
S113479070B50B4C0B4D94F857300B4903F0FB03E9
S11347A084F857301720A84794F85630074903F087
S11347B0FB0384F8563016202B46BDE8704018479A
S11347C00080004165430000030017000300160049
S11347D0064B4122C3F80C214222C3F88C20044A20
S11347E0136A43F002031362704700BF001C0040C9
S11347F00008004010B5054B9847054B054906488D
S11348009847064BBDE81040184700BFD147000049
S1134810C94D000000040043B40800209147000083
S1134820064B4122C3F810214222C3F88C20044ACB
S1134830136A43F004031362704700BF001C004076
S11348400008004010B5054C05494D20A0472346FB
S113485004494C20BDE81040184700BF65430000E0
S113486003004D0003004C0013B5074B074C984759
S113487000230093064A074907481023A047074B23
S113488002B0BDE810401847214800003D50000028
S1134890EE00002000080043A40A00204548000060
S11348A070B5134C134E144D4FF08043C4F894303C
S11348B002213E20B04711493E20A8474FF0004353
S11348C0C4F8943002213F20B0470D493F20A84747
S11348D001211E20B04794F85E300A4903F0FB031F
S11348E084F85E301E202B46BDE87040184700BF98
S11348F000800041CD4300006543000002003E00FB
S113490002003F0002001E00064B4122C3F814219E
S11349104222C3F88C20044A136A43F0080313624A
S1134920704700BF001C00400008004010B5054B54
S11349309847054B054906489847064BBDE8104083
S1134940184700BF09490000494E0000000C00430D
S1134950100A0020A14800000148024B184700BF7C
S113496010E000E0054D000070B50221114C124E1C
S1134970124D1820B0474FF08073636194F858309B
S11349800F4903F0FB0384F858301820A84702218C
S11349901920B0474FF00073636194F85930094906
S11349A003F0FB0384F8593019202B46BDE870400E
S11349B0184700BF00800041CD430000654300005C
S11349C00700180007001900074B4122C3F8A8206C
S11349D0A3F5A0531A6942F480621A619A6942F0FD
S11349E001029A61704700BF001C004010B5044BDF
S11349F09847044B9847044BBDE81040184700BF44
S1134A00C9490000955200006949000070B5534B34
S1134A10534C544D98472023636102210520A84735
S1134A2094F8453003F0FE0384F845304FF4005306
S1134A30C4F8943002212D20A84794F8CD304FF4C7
S1134A40804603F0FE0384F8CD300221C4F894605C
S1134A502E20A84794F8CE3003F0FE0384F8CE301D
S1134A6001212F20A84794F8CF3003F0FB0384F8EA
S1134A70CF3094F8CF3003F0FE0384F8CF30012117
S1134A804B20A8474FF40062C4F8042194F84B313A
S1134A9043F0040384F84B31C4F8182194F84B31E3
S1134AA003F0FE0384F84B310221C4F814614E2054
S1134AB0A84794F84E3103F0FE0384F84E314FF4C6
S1134AC00023C4F8143102215320A84794F8533129
S1134AD003F0FE0384F853314FF48013C4F8143107
S1134AE002215420A84794F8543103F0FE0384F8BB
S1134AF054314FF4001302215520C4F81431A8474F
S1134B0094F8553103F0FE0384F85531164B984759
S1134B10164B9847164B9847164B9847164A5369B5
S1134B2043F400735361154B98471549154B0246DE
S1134B3015489847154B9847154B9847154B984778
S1134B40154B9847154B9847154B9847154B984765
S1134B50154B9847154BBDE870401847CD580000D9
S1134B6000800041CD43000035440000B5440000FE
S1134B70394500006D45000000080040E55D000077
S1134B8000240040254F000060080020D9450000A3
S1134B9059460000D946000059470000F547000077
S1134BA0694800002D49000059490000ED49000002
S1134BB0836903B118477047C36903B11847704745
S1134BC02DE9F14F036AD0F828805C5CDFF854903B
S1134BD004EB4404E40008EB040505F1040A06466A
S1134BE00F465046D1B29346C84730460C4B9847BF
S1134BF0012806D94FEA1B215046C847AB8A013326
S1134C00AB82AB8A0133AB8258F804302BB13946FE
S1134C10304601B0BDE8F04F184701B0BDE8F08F51
S1134C2089580000FF55000070B50446FF26002097
S1134C30C5B201305655C5B2AB42F9D284F824301E
S1134C409DF8103084F82530059BA362226220462B
S1134C50044B984728B9044BA360044B2360044BCE
S1134C60636070BDD5570000C14B0000B14B00001C
S1134C70B94B0000F8B50F46D0F820E011461EF8F5
S1134C800720FF2A05461AD190F824200020044664
S1134C90C6B2964216D995F82520A2421AD304EB3F
S1134CA04406A86AF60030441A4604300B4B984771
S1134CB028B92B6ADC55AB6A1E44B082F8BD6FF08C
S1134CC00C00F8BD1EF80660FF2E1CBF0134E4B2D0
S1134CD00130DDE76FF01B00F8BD00BFC5550000D3
S1134CE0EFF31083036072B6BFF35F8F7047BFF3B7
S1134CF05F8F036883F3108870470000004B1847E8
S1134D003D5B0000014B1860014B18470001002077
S1134D1025680000436903B118477047836903B1EC
S1134D201847704710B5044B0446984718B9034B0D
S1134D302360034B636010BDBD5B0000154D000094
S1134D401D4D00001FB5838AADF804304FF40043B5
S1134D50ADF806300391054B029201A92838144698
S1134D609847002808BF204604B010BD65640000C1
S1134D701FB5838AADF8043048F20103ADF806305C
S1134D800391054B029201A928381446984700283C
S1134D9008BF204604B010BD656400004288D205F7
S1134DA002D4436B03B1184770474288D20502D43A
S1134DB0836B03B1184770474288D20502D4036B52
S1134DC003B118477047000070B50C4B0446984770
S1134DD0054680B90A4BE3620A4BA3620A4A0B4EAA
S1134DE001212046B0470A4A02212046B047094A19
S1134DF029462046B047284670BD00BF0164000024
S1134E00714D0000454D00009D4D000025650000DA
S1134E10AB4D0000B94D000010B4044C1346A44639
S1134E2000221C385DF8044B604700BF396700005E
S1134E3010B4044C1346A4460A461C3800215DF8FD
S1134E40044B60473967000010B5054B044640F831
S1134E50041F984718B9034B6362034B236210BDC8
S1134E6085660000314E0000194E0000F0B505685B
S1134E701DB90F4BBDE8F0401847D1F808E02C46A7
S1134E800026C2F1010C6368A768934295BFDB1941
S1134E9063449B1ADB19734507D22368264613B96A
S1134EA03046044BE6E71C46EDE7A542F8D1E0E7BF
S1134EB091550000995500002DE9F0470669037EDD
S1134EC044690136DA070546066110D4037E9B0760
S1134ED00DD4DFF84880DFF8489000F1140724B1BE
S1134EE06368A268F31A934207D2BDE8F0872B7E69
S1134EF043F002032B76BDE8F0873846C047237C95
S1134F00012B04D16660324621463846C847D5F89D
S1134F1014A0E368204698475446E0E7B9550000DA
S1134F206D4E000010B5044B044698470020034B17
S1134F302061236010BD00BF9D5D0000B94E0000DC
S1134F40034600229A62DB69083803B118477047A8
S1134F50034600229A625B6A083803B11847704717
S1134F6070B50446054BA0F108052C309847236A18
S1134F701BB12846BDE87040184770BDFF550000BE
S1134F8010B5B0F84C301446B0F844209A420CD115
S1134F900023A0F8443001238164A0F84C4003634B
S1134FA00830034B9847204610BD6FF01B0010BD1E
S1134FB0EF630000838FB0F844209A4210B5044692
S1134FC00AD0026C591C8187D15C044B9847044B6E
S1134FD02046BDE810401847024BFAE7E963000099
S1134FE0EF630000F76300002DE9F74305460F4B1C
S1134FF0DFF8449001A834358846164698470C4B90
S1135000284698470B4B074601A898470024A74217
S113501001D0B44203D1A0B203B0BDE8F08308EBE1
S113502004012846C8470134F1E700BFE14C000001
S113503025560000EF4C0000DD55000038B504464D
S11350400D46343011461A460C4B984790B9294600
S113505004F108000A4B984770B90A4B63600A4B85
S113506023600A4BA3600A4BE3600A4B23610A4B9B
S1135070636138BD6FF00C0038BD00BFC55500003A
S113508085630000E94F0000814F0000B54F000028
S1135090614F0000414F0000514F00000A4970B5B4
S11350A0002300F00F065D014C195AB26478844263
S11350B008D06D5C0DB9A64204D001330D2BF2D19A
S11350C04FF0FF32104670BD0401002000207047ED
S11350D070B5094B04460D469847084B03EB401046
S11350E08378032B05D1836929462046BDE87040A7
S11350F01847002070BD00BF9D500000040100202F
S11351002DE9F0433C4B3D4C85B080460F4691461B
S1135110984703464601002F49D1A519A15DEF70B8
S113512000293BD1AA786878EE69032A4FF00C0E67
S11351304FF020022BD112FB03E22244012195F906
S11351400C70B0476B7878B10522002FAA704FF02D
S11351500202B4BF184643F08000EA700121284BD4
S1135160984705B0BDE8F083002FACBF43F080033F
S113517003F00F0304228DF80C30012301900290F8
S11351808DF80D30AA7001A81E4B9847E9E712FB71
S113519003E22244B0470223AB70E2E70123AB7081
S11351A034444A46E369E17840469847D9E7012FF9
S11351B004EB06030BD1A15D0222DA7021B99A70C7
S11351C040460F4B9847EBE705229A70E8E7022F19
S11351D007D10422DA70A25D0AB99F70C1E70122E7
S11351E0F3E7032F09BF002206229A70052218BF95
S11351F09A70DA70D4E700BF9D50000004010020CB
S113520021740000597500002DE9F0471D4B1E4E16
S11352101E4C0546984720270C2317FB00373744BC
S11352208146394628461A4B9847C0B2082865F08B
S11352307F0809D001212846A04701215FFA88F0A0
S11352402346BDE8F047184706EB491600212846D7
S11352505FFA88F8A0474FF0010900214046A047B3
S113526086F80290736939462846984738B9052369
S11352704946B3702846A04749464046E0E7BDE8A2
S1135280F08700BF9D50000004010020217400003D
S11352900575000010B5114B984700281CDB4FF42E
S11352A0D07200210E4B0F4898470E4B0E4A03F55F
S11352B0D071FF2058705A619A61DA6120338B42B1
S11352C0F8D10A4C0A490020A0470A490120A04706
S11352D002200949A047002010BD00BFFD6F000057
S11352E0FF7F000004010020CD50000085760000FF
S11352F009520000D150000001510000004B184732
S113530061760000004B1847E5700000004B184719
S113531041710000004B184753710000F8B5104C60
S113532006460D461746A047002813DAFF20A0477B
S1135330041E12DB3A46294630460A4B9847002899
S11353400DDB094B60011A1805F003051D54567056
S11353500020F8BD6FF01300F8BD6FF01400F8BD25
S11353609D500000617100000401002000210246EC
S1135370014B0846184700BF1D53000038B5074BC2
S113538005469847041E07DB2846054B9847054801
S113539000EB4410FF23437038BD00BF9D50000054
S11353A0217200000401002038B50C4B05469847D3
S11353B0002810DB40010A4C235C0444002B0CBF82
S11353C002230123A3702846064B9847002804DAD9
S11353D00023A37038BD6FF0110038BD9D5000004C
S11353E004010020A57200002DE9F04F90F808A0F8
S11353F0364B074687B050469847B0F1000897F8F7
S113540009907E685DDBDFF8D4B0314B4FEA481871
S11354100BEB080502A89847AB788DF807309DF888
S113542007002C4BC4B2012C1CD10322AA7002A881
S113543098471BF808304BB319F100034FEADA140C
S113544018BF012339683A7A03910496002C35D0A9
S113545042F080028DF8153003A81F4B8DF81420FC
S113546098470DE002A898479DF80730DBB2052B5A
S11354702AD0062B07D0002B0CBF6FF0120001209E
S113548007B0BDE8F08F6FF00F00F9E7E97CAA7C64
S113549002EB012292B22AB90423AB7016462346CA
S11354A01C46CFE795F90C10964228BF16460029F2
S11354B0F6DAB24294BF00230123C3E702F00F02DD
S11354C0C8E76FF01100DBE70220D9E79D50000028
S11354D0E14C0000EF4C000059750000040100206D
S11354E02DE9F04105460C46D9B9134B9847071EE0
S11354F01EDB02212846114EB047D8B1214628466A
S1135500B047002816DB0E4800EB471003210123A7
S11355108370C170C3692246284698472046BDE877
S1135520F0810129054B18BF0221BDE8F04118475D
S11355306FF01100BDE8F0819D500000217400005F
S11355400401002038B50F4B14460D4698470E4A07
S1135550002C08BF1446002813DB012D08D002D309
S1135560022D0AD038BD094B03EB4010446138BD0D
S1135570064B03EB4010846138BD044B03EB401031
S1135580C46138BD9D500000CD50000004010020CE
S113559003680B600160704703680B60016070472B
S11355A003681BB901600B60704713461A68002A30
S11355B0FBD119600A60704703680BB11A68026076
S11355C018467047531E1A4001BF43608260C26090
S11355D001600CBF10466FF00C0070478368C2680E
S11355E09A4209D0426813400268D35C0B70836806
S11355F001338360002070476FF009007047C3686F
S1135600426813400268D154C36881684268591AD9
S1135610914288BF9A1A03F1010388BF8260C36074
S113562000207047C2688068101A704700280DDB9C
S11356304309012200F01F0002FA00F02033044A5B
S113564042F82300BFF34F8FBFF36F8F704700BF43
S113565000E100E0002809DB4309012200F01F00FB
S113566002FA00F06033024A42F82300704700BF98
S113567000E100E0036B0B42FCD17047038823F088
S113568002031B041B0C03800321014B184700BFBA
S11356907556000000F13D40A0F5E050C0F38720AE
S11356A0431E58425841704730B4426992F82E1054
S11356B092F82D300B4013F0010509D0012382F834
S11356C02E30B2F84020836892B2002130BC1847D3
S11356D013F0020106D0022382F82E3043682946D3
S11356E030BC18475B0704D5042382F82E300368C6
S11356F0F6E730BC704700F13D40A0F5E050800A69
S11357004000763000F0FE007047000038B5036BAF
S11357102D4C13F0010F02460D460DD10321A04775
S113572003889B0703D5294B98470221A0470123EF
S1135730138003211046A04710460121A047244BA3
S1135740162101FB05351046AB88D38040F6FF7166
S1135750A047AB791372104640F6FF71A047EB796E
S113576093702B899380104640F6FF71A047AB7A63
S11357709372104640F6FF71A047EB7AD37210463D
S113578040F6FF71A047AB89938110468021A04762
S1135790EB89D38110464FF48071A0472B8A138282
S11357A010464FF40071A0476B8A538210464FF4A1
S11357B08061A0472B7DD3706B8813801046032132
S11357C0A047002038BD00BF755600007D5600007C
S11357D00E8000002DE9F843224B044608460D468E
S11357E09847214B0146284698470646002830D161
S11357F01E4B65619D422FD11D4B1C601D49DFF876
S11358008090DFF880801C4F2846884700B2C84744
S11358106069884700B2C04760698847012542092A
S113582000F01F0305FA03F3284447F8223000B2BE
S1135830C84760698847284400B2C0476069884700
S1135840284480B2430900F01F0005FA00F047F82D
S113585023003046BDE8F883084B9D4204BF044B47
S11358605C60CBE7955600000D570000001C004318
S1135870A4020020F756000000E100E000200043ED
S11358802D560000555600004369DB88C3F3C1035D
S1135890032B0CBF0120022070470000014B186845
S11358A0014B1847A4020020A9560000004B1847DA
S11358B09D580000014B5868014B1847A402002072
S11358C0A9560000004B1847B558000010B50E4A01
S11358D00E4C13889BB243F4A06313800C4B98477F
S11358E00C4B98470C4B98470820A0470B4B984704
S11358F040F6F770A0470A4A136943F40073136132
S1135900BDE81040074B184700400041595B0000B8
S11359103D5C00005D5C0000B15B0000615C000068
S1135920000800407959000010B4114B114C198C37
S113593001F01F0103EB01130C224A4393F84E10AC
S1135940C90704EB020006D5012283F84E20436800
S11359505DF8044B184793F84E10890704D50221CB
S113596083F84E10A358F3E75DF8044B704700BF6B
S113597000A00041AC02002070B52E4B1A8822F022
S113598002021204120C1A805A8822F47C52120465
S1135990120C5A801A8892B242F001021A801A88B4
S11359A012F00102FBD14FF470611980597B224837
S11359B001F0FE01597321495A61586399631346F2
S11359C01F4902461D461C0104F1824000F5204097
S11359D00E6806640E7980F845604E7980F846605A
S11359E001331019CE881653202BC56001F108012C
S11359F0E9D11F22012053099B0003F1604302F007
S1135A001F0103F5614300FA01F1C3F88010BFF3ED
S1135A104F8FBFF36F8F0132242AC3F880111960AE
S1135A20E9D1044A13889BB243F002031380002097
S1135A3070BD00BF00A00041200B0020200D0020FD
S1135A403C800000024B03EB001081600020704793
S1135A50200B0020024B03EB001041600020704734
S1135A60200B0020054A0001135A9BB223F48063E3
S1135A7043EA812189B2115200207047200B002093
S1135A8070B50F4B00011D18AE681A5A1C5AC2F3A8
S1135A900122240542BF01FA02F4A419AC601C18C7
S1135AA065681E5A760548BF01FA02F2034448BFEE
S1135AB0521989B248BF62605980002070BD00BF8E
S1135AC0200B002010B502010B4CA35A9BB243F0EB
S1135AD00103A35202F1824303F520431A6C42F0FE
S1135AE002021A6431B1054A0123116903FA00F074
S1135AF008431061002010BD200B002000A00041CD
S1135B00034B01EB410103EB81010160002070476D
S1135B10AC020020004B184729590000004B1847DD
S1135B2029590000004B184729590000004B184719
S1135B3029590000004B1847295900000160002032
S1135B4070470000034943F6FD734A681A42FCD1CA
S1135B50704700BF001C004010B5C40704D50E4BAD
S1135B600E4A1A620E4B9847810704D50A4B0D4A18
S1135B705A620B4B9847420704D5074B0A4A9A626C
S1135B80074B9847030706D5034B084ADA62BDE87A
S1135B901040034B184710BD001C004007010100D2
S1135BA0455B00000601010006011000050101002B
S1135BB0014B01225A7170470008004001610B88B3
S1135BC023F0C0039B049B0C0B800D4B18600D4B02
S1135BD04FF00051C3F88010BFF34F8FBFF36F8FA6
S1135BE04FF08042C3F88020BFF34F8FBFF36F8F15
S1135BF00020C3F88011C3F8802119601A6070472F
S1135C002C04002000E100E0094B186803691A8A9B
S1135C10D20704D501221A82036843B118471A8AAD
S1135C2092B222B140F25E221A824368F5E77047CD
S1135C302C040020004B1847095C0000064B42F27C
S1135C408E329A8200229A75DA75DA6902F47C52ED
S1135C50DA6101221A747047001400407047000092
S1135C60394B1A6A22F00F0242F004021A6243F618
S1135C70FD7259681142FCD15A6812F00402FBD13A
S1135C80324B1A77324A9A6293F82C2012F010029F
S1135C90FAD183F820202D4A134692F82C10490794
S1135CA0FBD40221117793F82C209207FBD45A6A73
S1135CB05A62264B1A4693F82C100807FBD480210D
S1135CC083F8201092F82C305907FBD4214B5363EE
S1135CD01E4B1A46D96B11F0060FFBD14FF402612B
S1135CE09963022183F83010D36B9B07FCD492F89C
S1135CF02030164A13F0010F21D0136903F4106306
S1135D00B3F5106FF9D1114B1A6CD10702D41A6C88
S1135D109207F9D50C4A11465368002BFCD1136A3B
S1135D2023F00F0343F00703136243F6FD734A683D
S1135D301A42FCD1044A53685B07FCD470471369C8
S1135D40D805FCD5DFE700BF001C00400010004070
S1135D50000001044E0E0D0007B50C4A9378DBB227
S1135D600193019B990707D5094B1B6823B1506820
S1135D70984703B05DF804FB019BDB07F9D5044B9E
S1135D805B68002BF5D0014AF1E700BF0000024137
S1135D90200F002003690B42FCD17047024638B53E
S1135DA00125D1600D4C0D80084648F20301A0473F
S1135DB02946D068A047D06848F28003038048F29F
S1135DC00301A047D06860210562A047D3684FF45F
S1135DD080715981024B00201A6038BD955D000026
S1135DE03004002000207047074B10B51C68E3689E
S1135DF09B89DB0507D523680BB120469847E368E8
S1135E004FF480729A8110BD30040020002808DB12
S1135E104209012300F01F0003FA00F0014B43F88C
S1135E202200704700E100E000280DDB4309012255
S1135E3000F01F0002FA00F02033044A42F8230065
S1135E40BFF34F8FBFF36F8F704700BF00E100E0D7
S1135E50002809DB4309012200F01F0002FA00F0C8
S1135E606033024A42F82300704700BF00E100E0BB
S1135E70C3690B42FCD17047C3690B42FCD1704724
S1135E80C3690B42FCD17047036823F0020303602B
S1135E900321014B184700BF715E0000036823F023
S1135EA0020303600321014B184700BF795E000021
S1135EB0036823F0020303600321014B184700BF6A
S1135EC0815E000070B50B4D06460FCD88B06C4660
S1135ED00FC495E80F0084E80F0000205DF820301F
S1135EE0B34202D1C0B208B070BD01300828F5D168
S1135EF00020F8E73C81000010B58469227ED107B8
S1135F00034608D5A27DD20705D501222275036870
S1135F10BDE810401847227E900709D5A27D91075D
S1135F2006D5022222759A681846BDE8104010472B
S1135F30227E52070DD5628B02F0370212B1FF2385
S1135F40638310BDA16A5A68C9B21846BDE81040FF
S1135F501047227ED209F4D080222276DA681846CD
S1135F609047638B9BB2EBE7114B984207D1114BDF
S1135F701960114B984204BF0E4B596170470F4B87
S1135F80984202D10B4B5960F3E70D4B984202D172
S1135F90084B99607047B0F1864F02D1054BD96028
S1135FA07047084B9842E4D1024B1961704700BF17
S1135FB00030004034040020000800430034004056
S1135FC0002001410004004308B5034B98470538FD
S1135FD018BF4FF0FF3008BDC55E000008B5034B85
S1135FE0984780002E3000F0FE0008BDC55E00001A
S1135FF008B5034B98470728024818BF002008BD7E
S1136000C55E00005C81000008B5034B9847072873
S11360108CBF0020012008BDC55E000083689B681A
S113602003B11847704783685B6803B1184770472A
S11360308368DB6803B1184770470000436843F482
S1136040403343600421014B184700BF715E0000D8
S11360502DE9F0410D46574ED0F800800421044646
S1136060B047438B15F0010F9BB2374664D09907B4
S113607017D501210176518889B241F480515180AC
S1136080518821F48071090413F0010F4FEA114182
S1136090518014BF6FF004056FF003052846BDE876
S11360A0F08113F0040515D05368002BC1BF538849
S11360B09BB243F48053538053881F0401D53E4B55
S11360C09847538823F480731B041B0C53806FF090
S11360D00105E3E7538813F4806715D0138804217E
S11360E0DB0903F00607B047436A03F4804343F037
S11360F0F1033B4343620421B047538823F4806394
S11361001B041B0C5380C9E7556845B953881E040A
S113611001D5294B9847538823F48073F0E793689B
S11361201B7883620421B0479368013393605368FA
S1136130013B53600025B1E715F00205AED051686C
S1136140002933D0580731D40139C8F3C0605160F5
S113615041B958B9636843F480236360042120463D
S1136160B84703E0012901D10028F3D1536893B95A
S113617053881B0409D5636823F480736360204645
S11361800421B84720460C4B9847538823F4807366
S11361901B041B0C538095686B1C936004212046E0
S11361A0B847A36A2B7002232376C3E7022323761E
S11361B08DE700BF715E00003D60000038B50B68DC
S11361C00C4D23F481730C4623F001030360032177
S11361D0A847636823F4383323F4107343F400337B
S11361E043601721A847237B0373637B80F8303017
S11361F038BD00BF795E00002DE9F0410C46264B06
S1136200264E074608469847E369254A13F0010FCE
S11362105FFA80F817D1182303FB08630321204693
S11362209D6B904723689B0705F01C0505D5204608
S11362301C4B984702212046904745F001052560F4
S1136240032120469047204601219047182303FB51
S113625008662046B56B256003219047F36B6360A5
S1136260204604219047C5F30165336CE360BD818A
S1136270636A012D23F4804394BF0025012543EA7A
S113628085352046656204219047B6F84630FB8187
S11362900020BDE8F08100BFC95F00003C81000020
S11362A0715E0000895E00002DE9F041314B044627
S11362B09847054648B1012807D0022805D004288C
S11362C056D0062814BF00250425E3692A4F2B4E17
S11362D013F0010F17D1182303FB057303211A6D63
S11362E0204602F01C02B04723689B0705D52046D0
S11362F0234B984702212046B04742F00102226016
S113630003212046B04720460121B047182202FB52
S113631005722046D2F85080C4F800800321B047AB
S1136320536D63601F212046B047936DA36018F43A
S1136330C04F1DBFA389B2F85C1092F85E20B2F87A
S11363405C301EBF61F30C03A381A3894FF01800D6
S113635000FB057018BF62F34F33A38190F85F30E0
S1136360A37390F8603084F830300020BDE8F081E9
S11363700325AAE7C55E00003C810000815E0000A1
S1136380B15E00002DE9F8430646114B08460C4661
S113639098470546C8B9B461314620460D4BDFF82D
S11363A044800D4F0D4E984720460D4B98472C4680
S11363B0814609EB0401C9B20846C0470846B847FC
S11363C001340846B047042CF3D12846BDE8F883CD
S11363D0A9620000695F0000515E00000D5E0000CC
S11363E0DD5F0000295E000083699962704783695C
S11363F001229A757047836902229A7570470000DA
S11364002DE9F8430646114B31610C469847054681
S1136410C0B9314620460E4BDFF844800D4F0E4E76
S1136420984720460D4B98472C46814609EB0401BA
S1136430C9B20846C0470846B84701340846B047C1
S1136440042CF3D12846BDE8F88300BFF9610000AD
S1136450695F0000515E00000D5E0000DD5F00001A
S1136460295E0000F8B504464868002856D06388C1
S1136470D80551D44B882A4E9BB243F480734B8089
S113648007C984E807002069436843F480734360C4
S11364900421B04762682569012A2B6829D11A01B1
S11364A027D56B6843F480236B6004212846B047EA
S11364B0228812F480674FEA42021ED06388DB0709
S11364C041BF63889BB243F4806363800421284600
S11364D0B0476B6A22F00102520503F48043520D67
S11364E043F4004313436B6228460421B047002061
S11364F0F8BD6B6823F48023D6E70421284664881A
S1136500B047A4B26B6AD2B204F00104224303F48C
S113651080431A436A62E7E76FF00300F8BD00BFE7
S1136520715E0000012906D003D3022905D00020A2
S113653070474261FBE78261F9E7C261F7E7000057
S1136540014B1868014B184734040020F95E000021
S1136550004B184741650000004B18474165000097
S1136560004B184741650000014B5868014B184720
S113657034040020F95E0000004B184769650000F0
S1136580004B184769650000004B18476965000017
S1136590014B9868014B184734040020F95E000051
S11365A0004B184791650000004B184791650000A7
S11365B0004B184791650000014BD868014B184700
S11365C034040020F95E0000004B1847B965000050
S11365D0004B1847B9650000004B1847B965000027
S11365E0164B70B51C692069057EEDB2290613D4DB
S11365F029462246124B9847014670B9EA0705D549
S1136600A3691BB12046BDE870401847AB0702D50B
S1136610E369002BF6D170BD0021638823F48073F5
S11366201B041B0C63806369002BF4D019B1204652
S1136630BDE8704018476FF00401F8E73404002007
S113664051600000004B1847E1650000004B1847FB
S1136650E1650000004B1847E1650000014B5869F3
S1136660014B184734040020F95E0000004B184722
S11366705D660000004B18475D660000004B18473C
S11366805D660000F8B50546224B08460C4698475F
S1136690074600283AD0E3691F4E13F0010F14D1C6
S11366A002680321204602F01C02B04723689B07BE
S11366B005D52046194B984702212046B04742F0A1
S11366C00102226003212046B04720460121B04741
S11366D02E46394646F8184B2046114B114F984721
S11366E0114B2046984701463046B847AB690F4ADC
S11366F00F4C9D601A605C6000213046B847AB695E
S11367000C4A9D6083E814000020F8BD6FF00C0073
S1136710F8BD00BFF15F0000795E00009D5E0000DF
S1136720BD610000015B0000096000001D60000005
S113673031600000276000002DE9F74FD0F800B069
S1136740009205462F4ADFF8D4A0DFF8D4902E4FEC
S1136750584698460C4690472C4A01905846904714
S1136760009BDBF81C200646002B30D0520709D4CE
S1136770DBF80420264B42F40032CBF80420172126
S113678058469847296830462831D0470099304602
S1136790C84741463046B847002130461D4B98470C
S11367A01D4E0CB321460020D04729680020283113
S11367B0C84701210020B04741460020B8470021C6
S11367C00846144B9847002003B0BDE8F08F5307E8
S11367D0E6D4DBF804200E4B22F40032CBF804207C
S11367E0172158469847DBE7019920460E31D047D8
S11367F0296820462831C84721462046B0474146EB
S11368002046DBE7F15F0000815A000009600000C8
S1136810795E0000C55A0000655A0000555A000010
S1136820455A0000034B6FF07F425A6005221A60FC
S1136830704700BF10E000E000207047074B93F85A
S11368402020D10706D51A6902F41062B2F5106F40
S1136850F9D170471A69D205FCD570470010004081
S113686010B109B10230C0B2142300FB0330014B54
S1136870184470474C04002030B4C17C857C01F07E
S1136880070305F00F02012B4FEA421402F108033B
S11368900AD05A0102F1824204F182431021D171DB
S11368A083F8081130BC704711F0400F0BD052012F
S11368B06FF3861102F18242C174802182F80411BF
S11368C0402182F80511C27C6FF3C302C2740A4AE4
S11368D05B011119002003F1824381F83A0281F827
S11368E04A026F21D97104F18243284683F80811C2
S11368F0936830BC184700BF4C0400200246807CDB
S1136900202303FA01F100F00F035B0103F182433A
S1136910C9B283F80811024B92681B690121184718
S11369204C0400200246807CFF280AD0D37C13F05C
S1136930400F06D06FF38613D374024B92681B6921
S1136940184770474C04002077B4837C25248DF8C5
S11369500440FF2B4FF04A048DF8054021D0C47C3D
S113696064061ED503F00F0303F10804650105F165
S1136970824599B180262E7102AD0D4464015B01FC
S113698004F1824403F1824315F8041CE17183F895
S11369900811054B114603B070BC184740266E71B0
S11369A0EAE703B070BC704725690000F3B4867C45
S11369B0042306F00F068DF8043008238DF8053003
S11369C0F3185A0102F182427501127839B3C2F305
S11369D002122E4C05EB01152544022AAC7A02AAB8
S11369E002EB0107E4B24FEA46121BD114F0010F87
S11369F018D0AC7A5B016FF3000402F1824203F118
S1136A008243AC72003117F8044CDC7118BF0121C9
S1136A1082F8084104221E4B02B0F0BC184702F071
S1136A200702D6E714F002041BD0AC7AC67C5B01E3
S1136A306FF3410403F18243AC7217F8044CDC7128
S1136A4002F1824206F00703012B82F8084119D1B2
S1136A50730617D5C37CDB09994213D0002219466B
S1136A60D9E70C4801EB460100EB01115B0103F18E
S1136A70824302F1824281F83A4217F8041CD97128
S1136A8082F8081102B0F0BC704700BF7C060020F9
S1136A90496900004C0400202DE9F041094C0A4FDB
S1136AA004F50775FF2603212046B8470021A67484
S1136AB0E1741434AC42F6D160220448044BBDE8BE
S1136AC0F041184760040020256900007C0600207E
S1136AD0FF7F00002DE9F0470446807C894600F0E2
S1136AE00F0800295AD04C4B03EB48135E69C6F3D8
S1136AF00D06B4F810E094F813C040F2FF339E453D
S1136B001ABF0EF1FF3292B272460CF0070AB9F1C5
S1136B10000F06D04FEA481303F18243022183F8A1
S1136B200711A168636831449942A1604FEA48158E
S1136B3040D25B1A1CF0200F9FB2384E23682FD02E
S1136B40774528BF77463A461944E068344B98475E
S1136B507319E268C3F840227219D2F8443267F319
S1136B600D03C2F84432D2F844326FF39B33C2F8B7
S1136B704432B9F1000F08D1BAF1010F05F1824591
S1136B800CBF4E234A2385F809314FEA481303F119
S1136B908243802283F80521BDE8F0870E46A8E7EA
S1136BA019447319B7F5005F28BF4FF40057C3F8B1
S1136BB04012D1E71CF0100F0ED0E37C6FF30413E6
S1136BC0E374184B2B445A686FF30D025A605A68E9
S1136BD06FF39B325A60CCE7BAF1010F05F182459D
S1136BE002EA06020CBF4B234A23964585F8083176
S1136BF00CD1E37C6FF38613E374084BDB6898478E
S1136C000028C9D1E37C43F04003E374204600210B
S1136C10054BBDE8F04718477C0600204C040020D3
S1136C20E97F00008C060020256900002DE9F74F5C
S1136C30867C06F00F0604460F467501002962D0D3
S1136C40614B2B445A685B68C2F38D39C3F30D0A58
S1136C50B4F81080E27C40F2FF3398451CBF08F181
S1136C60FF381FFA88F802F007030AEA080B0193B9
S1136C702FB1730103F18243012183F807119006B8
S1136C800CD5626852B1A0682368E168121A92B206
S1136C905A45184428BF5A464C4B98476268002A04
S1136CA034D1E37CD90640F1898062F30413484867
S1136CB0E168DBB2284443F02003E37400F50C736D
S1136CC0C0F830125968208A60F39B3159605968C2
S1136CD062F30D0159606FB9019B012B04BF3C4B5A
S1136CE05B1905F182450ABF83F84A7225232D23D7
S1136CF085F80931760106F18246402386F804318D
S1136D0003B0BDE8F08F89468A46A1E7F7B1238A2C
S1136D105B451BD9E37C6FF30413E374A36853440A
S1136D20A360019B05F18245012B0CBF2D23252374
S1136D3085F808311EB9264BE268C3F83022254B8A
S1136D400021204603B0BDE8F04F1847A16849442C
S1136D508A42A160E5D9E07C1D4BB4F810E0521AD8
S1136D6010F0200F92B214D059197245E068C1F89E
S1136D70300228BF72462B44D3F8341262F39B319D
S1136D80C3F83412D3F834226FF30D02C3F834225B
S1136D90A1E772450AD9B2F5005F0CD822EA0802CD
S1136DA0206801445819C0F83012E4E7F8D240F0E2
S1136DB02000E074F4E74FF40052F1E7002FA6D16D
S1136DC0A3684B44ACE700BF7C060020E97F0000C9
S1136DD04C040020256900002DE9F0474FF0824360
S1136DE01D8CADB2002D6ED1998B1A8B92B20A40D4
S1136DF012F0040006D004229A83674BBDE8F047E2
S1136E001B68184712F4007125D040F201229A83BE
S1136E109A8270221A83604BB3F8382202F00F0270
S1136E20032A14D0B3F8582202F00F02032A10D117
S1136E30012103EB41100022B0F83812A0F83822E7
S1136E40C1F30A115B680320BDE8F0471847014607
S1136E50EFE70146F6E712F0800005D080229A831E
S1136E604D4B05205B68EFE712F070040CD07022E4
S1136E709A839A8240F201221A83484B9847464BE0
S1136E8001465B680220DFE712F008010FD00822F8
S1136E9083F800419A8370229A8240F201221A8375
S1136EA03F4B98473C4B21465B680120CCE7D00719
S1136EB009D540F201229A839A8270221A83364BB2
S1136EC004205B68C0E7374CDFF8EC80364F0026BF
S1136ED0A4F11409A27CFF2A29D002F00F02012197
S1136EE001FA02F32B4222D05301520103F18243EF
S1136EF002F1824293F8070192F80931034016D057
S1136F00142202FB069292F8272002F047008842DE
S1136F1014D1DA0602D52046C04708E013F0400138
S1136F2003D001462046214B15E09B06FAD40136D6
S1136F301B2E04F11404CDD1BDE8F087100614D53E
S1136F405806EFD4180702D52046B847EFE798074C
S1136F5003D5174B20469847E9E702F00702012AB8
S1136F60E5D15A0715D50021EEE713F0200001D032
S1136F700021D7E75807F6D4D80702D520460D4B91
S1136F80E9E702F00702012AD1D11A0701D501214C
S1136F90DAE7DB06CBD5BEE74C0400203D680000F1
S1136FA0996A000060040020AD690000FD680000DB
S1136FB0D56A00002D6C000079680000B0F5007FF0
S1136FC00FD8B0F5807F0ED880280ED840280ED870
S1136FD020280ED810280ED8082894BF002001209D
S1136FE0704707207047062070470520704704202B
S1136FF070470320704702207047000008B54FF027
S113700082439A78D00740D54FF082429378DB07C9
S1137010FCD42F4B2F4A1A605A609A60DA601A61C6
S11370202D4B98472D4B1968C1F34413C1F38222A9
S113703011F01F0146D01F2908BF0921002B43D09E
S11370401F2B08BF1923002A40D0072A08BF062295
S1137050120302F4E04243EA811313434FF08242E5
S11370609BB21385D37843F00303D370D37843F0F2
S11370700C03D37004231370907810F00300FBD139
S1137080174B53620123138108BD9A789107FCD1F1
S11370901A78920707D44FF0824301221A709A7823
S11370A09207FCD1B0E71A7802F0FD021A704FF093
S11370B0824293789807FCD14FF0824293789907E3
S11370C0FCD4E8E70921B9E71923BCE70622BFE7A6
S11370D04C04002039680000996A00008400800094
S11370E07C0600204FF082439A78920723D19A7845
S11370F09007FCD11A78D2B2910713D50F4B4FF4F5
S113710080329A604FF400329A604FF480229A6081
S11371104FF400229A604FF0824340F28D221A838A
S11371200020704742F002021A704FF082429378B6
S11371309B07FCD1E2E76FF01000704700E100E02C
S11371404FF08242138923F001031B041B0C1381AB
S113715070474FF0824340F08000987270470000FF
S11371602DE9F84300F00F0447B20D468046F90FAD
S11371702046DFF8A890C847022C064605F0030510
S11371803FD8837CFF2B40D185B9F943C90F2046F2
S1137190C847837CFF2B38D10C2363431E49CB584B
S11371A0002B36D16FF01200BDE8F883002F18DAF7
S11371B019490C2303FB04135968F1B9164986F8DD
S11371C012800C235C430B1909595B683282013528
S11371D013EA270338BF0B46F574F3600020BDE8BB
S11371E0F8830C2363430C49CB58002BE6D00A499F
S11371F00C2303FB04131B8900E05B899342DDDA53
S1137200D0E76FF01100BDE8F8836FF01300BDE81C
S1137210F883002FEBDACBE70082000061680000FE
S11372202DE9F04147B200F00F054FEAD778044644
S113723041462846194B9847022D064615D8837CAB
S1137240FF2B12D0164B032241469847F37C03F0E0
S11372500703012B0BD1640104F18244002384F859
S113726000310023F374FF23B374BDE8F081002FD1
S113727009DA680100F1824090F8003103F08F03CD
S113728080F80031EDE7640104F1824494F80031A0
S113729003F0F80384F80031E3E700BF61680000FD
S11372A0496900002DE9F84300F00F054FFA80F911
S11372B0574B4FEAD971284698476F0107F1824628
S11372C0804696F80001022DC3B200F2988098F827
S11372D01220FF2A00F093804E4C04F50C710F44E9
S11372E098F8131001F00700012848D113F0770330
S11372F040F08980112186F80011B8F81010DFF8E9
S113730018910846C847DFF814E1000700F0E04090
S11373100EEA813EC1F30D014EEA000E0843C7F8A0
S113732004E004EB4515786102F00F024027802049
S113733086F8057186F80401500185F83A32044450
S113734085F84A32D8F80C60C4F8306204F50C753C
S1137350D4F8344261F39B346C60696800F1824272
S113736063F30D0169601046B02182F8041182F8BC
S11373700571102280F809211846BDE8F883B9F197
S1137380000F1EDA13F070023DD1080100F0700006
S11373901843B8F8103086F800011F49184688478A
S11373A00007C3F30D0300F0E04004EB4514184359
S11373B08023786186F8043184F84A221046BDE8B7
S11373C0F88313F007021ED101F0070141EA03001C
S11373D0B8F8101086F800010F4B084698470F4B79
S11373E0000703EA813300F0E040034304EB451453
S11373F07B60402386F8053184F83A22DEE76FF09B
S11374001100BDE8F8836FF01300BDE8F88300BFF6
S1137410616800004C040020BD6F000000C0FF0F35
S113742038B5C20900F00F050C4628461146344B06
S11374309847022D61D8012C19D1837C03F00F03E6
S113744059011024944001F18241E4B281F80541CC
S11374505B01202103F1824301FA02F2D2B283F8E4
S11374600921C37C43F00803C374002038BD9CBBCE
S1137470817C01F00F014B0103F18243102493F846
S1137480065194402542F0D0E4B283F80441490106
S11374902024944001F18241E5B281F8085193F827
S11374A00711214207D0012101FA02F2D2B283F876
S11374B0075183F80421C27C02F00701012908D195
S11374C093F8063113F03003CFD163F3C302C274CF
S11374D0CBE76FF3C302FAE7837C03F00F035B018E
S11374E003F1824303F5807310209B7900FA02F2C2
S11374F01A4214BF0120002038BD6FF0110038BDBE
S11375006168000030B500F00F00124B42019C1876
S11375109D5864680228C4F30D0414D899B102F18B
S1137520824292F80031112B10D192F8073113F0F6
S113753010000DD02B680B606B684B60102382F831
S11375400731204630BD6FF0110030BD6FF01200DE
S113755030BD00BF7C0600202DE9F347077A3A4B83
S113756007F00F057FB24FEAD7798046494628468F
S11375709847028AD8F8041040F2FF339A421ABF9F
S113758002F1FF339BB21346022D044603EA0106BF
S113759028D8D8F80050B5F1005F0AD32B4B48190E
S11375A0984206D815F0030503D1002F05DB91425C
S11375B014D2E368002B41D00125E37C1B0740D49F
S11375C0234B01A89847E37C224A13F0400A0ED0CB
S11375D001A89047012002B0BDE8F0872EB1E3680E
S11375E0002BEAD16FF01100F5E73546E5E743F0EB
S11375F04003E37401A89047D8F800302360D8F81A
S113760004306360E37CC4F808A069F3C71365F32E
S11376104513E37498F8093013B1B6FA86F35B099D
S1137620E27C002F63F304122046E2744FF0000161
S1137630B4BF094B094B98470020CCE76FF0120008
S1137640C9E70220C7E700BF61680000FF1F0420EC
S1137650E14C0000EF4C0000D56A00002D6C0000E6
S1137660064B002908BF1946012802D1044B596072
S1137670704708B9024B1960704700BF39680000B1
S11376804C040020084B002908BF194610B9074BC9
S113769099607047012802D1044BD96070470228D1
S11376A004BF024B19617047396800004C04002084
S11376B0004B1847D96D0000004B1847D96D0000E6
S11376C0004B1847D96D0000004B1847D96D0000D6
S11376D008B5014B9847FEE7D14200002DE9F3417C
S11376E016460A78C2F34113012B07460C4655D1BE
S11376F02D4B8988187888421D4602D05B788B42CE
S11377004CD113060FD5012E35D06378212B14D11B
S1137710E288072A45D1254900233846244CA0474E
S113772002B0BDE8F081234BB4F806809847637833
S1137730202B014604D0222B24D06FF00C00EFE75D
S1137740B8F1070F2DD116B933464246E5E7006874
S113775000908B798A888DF806302B69ADF8042067
S11377605BB9124B0098BDF804109DF80620C5F8CB
S1137770060099809A710020D2E76846984700284D
S1137780EFD1F8E700231A4619461846084EB047C9
S11377906B69002BEFD060889847ECE76FF0090025
S11377A0BEE74FF0FF30BBE79C070020A207002094
S11377B09D7A0000A17E000001292DE9F84F1546AD
S11377C054D007D302290CBF6FF01A006FF00C00DD
S11377D0BDE8F88F8768DFF8108110687E1E07F116
S11377E0010A18B96FF00900BDE8F88F437982786F
S11377F003F0F703022BF5D116F8013F9A425FD04C
S1137800FF2B61D132706968DFF8E0900522C04730
S113781004466CB92B686968187804221844C04778
S1137820B245DED12C4B01225A712046BDE8F88FB7
S11378306179227994F802B0284B02EB012292B2CA
S1137840E17858469847002842D11BF0800F14BFB6
S113785086F802B087F804B05846C8472C602078F0
S113786069681F4B204498470446D2E784682AB1CC
S113787013685B7903F0F703022BB3D12378FF2B52
S113788007D0A078FF25A842257002D0154B984751
S1137890A5706378FF2B07D0E078FF25A8426570B8
S11378A002D0104B9847E5702079FF2803D00D4B88
S11378B09847FF232371084B00205871BDE8F88FC7
S11378C06FF01100BDE8F88F6FF01B00BDE8F88F72
S11378D06FF01300BDE8F88F9C0700201D530000D3
S11378E0DB7E00007D530000C17E0000A953000030
S11378F008B50A4B984701280CD80948094BC361BD
S11379000062094B183098470849094B01209847F1
S1137910002008BD6FF0100008BD00BFAD7E000060
S11379209C070020B9770000557E0000000000206D
S1137930E57D0000054B10B51C6904B910BD6368F2
S113794020460022012198472468F6E7C00700205A
S1137950064B70B5DC6805460E4604B970BD636815
S113796013B13146284698472468F6E7C00700203B
S1137970F8B50C4B9C6805460E4617460CB92046D4
S1137980F8BD63680BB92468F8E73A4631462846DF
S1137990984720B10A30F6D04FF0FF30F8BD0120EF
S11379A0F8BD00BFC0070020044B10B55C6804B9E3
S11379B010BD636803B198472468F8E7C007002046
S11379C010B514460A4619B1012920D0002010BD73
S11379D02378002BFAD16378052B0DD0092BF5D130
S11379E062880D4B002ADA7614BF042103219976AC
S11379F001200A4B9847E9E76088094BC0B29847D1
S1137A006388002B14BF03210221034BEFE72146B7
S1137A10044B00209847D9E7C007002051790000A3
S1137A20155300007179000070B50E4B0E4D002403
S1137A309847022620460D4BAE76EC766C77984735
S1137A400B4B287F0B4D9847214620460A4AA847EE
S1137A5020463146094AA8472046094BBDE87040F4
S1137A60184700BF35790000C00700207D5300008F
S1137A706D53000045550000BD7A0000C179000037
S1137A80A953000010B1012802D07047014B1847D8
S1137A90014B184751790000297A00001FB58DF871
S1137AA00C008DF80D3001A8034B01910292984708
S1137AB005B05DF804FB00BFE95300002DE9F7436E
S1137AC0AA4B002205460C469847431C08D00128BF
S1137AD075D0217811F0E00304D0802B00F0C4802D
S1137AE000206CE06378013B0A2BF9D801A252F81C
S1137AF023F000BF9D7B0000E17A0000C57B0000FD
S1137B00E17A00002B7B0000E17A0000E17A0000BA
S1137B10E17A0000217B0000E17A0000D57B0000BF
S1137B206288D2B22AB9924B9847002201231146A7
S1137B30ECE0904C236893E803008F4B98470028AF
S1137B40CED0C27883788D4F03EB022310FA83F1F1
S1137B5004220191B8470DF10808FF2348F8080DE5
S1137B60009A002AE1D092F80290994514D026692F
S1137B704EB9009801990378042218440090B8473C
S1137B804B460090ECE77368424600213046984724
S1137B900028EED03668EBE79946EAE702299FD140
S1137BA0E688002E9CD1A0883146754BC0B2984718
S1137BB00123324631462846724CA047012003B0C7
S1137BC0BDE8F08302298BD1E688002E88D1A088F5
S1137BD00121EAE7674D66882B68EA7EA78893E867
S1137BE00300654B984700283FF47AAF0090C278B1
S1137BF08178624C01EB022110FA81F10191042297
S1137C00A04700283FF46CAF8378BB4213D1C378FC
S1137C10B34210D10DF108082C6948F8080D002C66
S1137C203FF45EAF0121636842462046984701460F
S1137C3040B12468F3E70098019903781844009050
S1137C400422DDE7636842462046984700287FF413
S1137C5047AF26B10123BB406F7F1F436F770023DB
S1137C601A4619461846A7E763780A2B3FF638AF39
S1137C7001A252F823F000BF477D0000E17A000022
S1137C80E17A0000E17A0000E17A0000E17A000084
S1137C90A57C0000E17A0000377D0000E17A000055
S1137CA0A17D000063881A0A022A14D0032A34D062
S1137CB0012A7FF415AF2F4BE4881B68122C93E83C
S1137CC003002E4B28BF12249847014600283FF496
S1137CD007AF002319E0274AE4881068167F5A1C6E
S1137CE003C8D2B2244B9847014600283FF4F8AEAB
S1137CF0C378827802EB032292B29442E9D9013E1E
S1137D0026420CBF012300231446224628461D4C5C
S1137D10A047B0FA80F0400951E7164AE488106899
S1137D20167F03C8DAB2184B9847014600283FF47F
S1137D30D7AE0278E1E70F494B69CA7E1A70002377
S1137D400122496937E701F01F0101291ED90229DF
S1137D507FF4C6AEA0880A4BC0B298470028FFF64D
S1137D60BFAE00F00100009012E000BF7179000086
S1137D7035790000C0070020F97E0000C17E0000B4
S1137D80E15400009D7A0000357F00000023009339
S1137D901349BDF800204B691A8000230222D0E762
S1137DA00F49A2884B7F134113F001030E4615D1EE
S1137DB04A6913704969012254E76B68224602211B
S1137DC028469847002803DA2D68002DF5D187E668
S1137DD07369187001220023716943E70D69F4E7A0
S1137DE0C0070020012806D002D3022805D070471E
S1137DF00348044B18470448FBE70448F9E700BF6D
S1137E00C4070020A1550000C8070020CC070020AB
S1137E1038B50A4B0546984700280EDB084C094B39
S1137E20202200212046984765610749074C00201D
S1137E30A04701200649A047002038BD9552000004
S1137E40C0070020FF7F0000A9790000FD52000058
S1137E50857A00000146014B01481847A1550000EE
S1137E60D007002010B50A4B9C7E54B960B102685B
S1137E701860D2791A7701229A76064B98472046E1
S1137E8010BD6FF0030010BD6FF0080010BD00BFFF
S1137E90C007002005530000004B18470D53000095
S1137EA0014B5869704700BFC0070020034B987E00
S1137EB010F0100F18BF1020704700BFC00700203B
S1137EC010B5884201D3002010BD0378012BFAD9E4
S1137ED044789442F8D01844F3E7884201D3002050
S1137EE070470378012BFAD94278042AF7D0052A7F
S1137EF0F6D01844F1E7000038B515460C4B0222C1
S1137F000C46984778B938BD0378012B0DD94378CE
S1137F10022B0AD14379AB4208D0C278837803EBB1
S1137F20022310FA83F0A042EED3002038BD00BF34
S1137F30C17E0000F8B50A4F0D4616460024A8423B
S1137F4001D30020F8BD03222946B8470028F9D000
S1137F500378012BF5D9B442F4D018440134EEE788
S1137F60C17E000010B5064B06489847064B98475B
S1137F70064B07489847074BBDE81040184700BF19
S1137F80117E000020080020F1780000657E0000CA
S1137F9008000020997E0000004B1847657F000010
S1137FA070B50D4E0D4CA41BA4100025A54209D19B
S1137FB00B4E0C4C00F036F9A41BA4100025A5426E
S1137FC005D170BD56F8253098470135EEE756F8CF
S1137FD0253098470135F2E73082000030820000F6
S1137FE0308200003482000010B5431E0A449142DE
S1137FF000D110BD11F8014B03F8014FF7E702441B
S11380000346934200D1704703F8011BF9E70000CF
S113801000010C00030007180400000000000B0816
S113802014000000010000010C0003000418040007
S1138030000000000B0814000000000000132000E2
S11380400000001400000000000000000000000018
S1138050000000000000000000000000000000001C
S1138060000000000000000000000000000000000C
S113807000000000000000000000000000000000FC
S113808000000000000000000000000000000000EC
S113809000000000000000000000000000000000DC
S11380A000000000000000000000000000000000CC
S11380B000000000000000000000000000000000BC
S11380C000000000000000000000000000000000AC
S11380D0000000000000000000000000000000009C
S11380E0000000000000000000000000000000008C
S11380F0000000000000000000000000000000007C
S1138100000000000000000000000000000000006B
S1138110000000000000000000000000000000005B
S1138120000000000000000000000000000000004B
S113813000000000000000000000000000300040CB
S11381400034004000200141004001410000004390
S11381500004004300080043000C00430C0020000E
S113816000000000000000000600FF0107000000FE
S1138170050000001400200000010000E5E60000F6
S11381800000D700006CDC02000000000400104076
S11381900000030002007000AAAA00000000000012
S11381A00100000004001040000003000200700001
S11381B0AAAA000000000000020000000400104011
S11381C000000300020070002BF600000000000015
S11381D004000000040010400000030002007000CE
S11381E0AAAA0000000000000600000004001040DD
S11381F00000030002007000AAAA000000000000B2
S11382005C07002000000000400000001C07002064
S11382100000000040000000DC0600200000000018
S113822040000000F8B500BFF8BC08BC9E4670478B
S113823089420000F8B500BFF8BC08BC9E467047F0
S1078240654200008F
S113824400000000DD76000010000020650000201E
S11382541201000202000040EB03042400010000A8
S113826400010902430002010080320904000001F4
S11382740202000005240001100524010100042465
S1138284020205240600010705820340000A0904CA
S11382940100020A0000000705010240000007056E
S10B82A481024000000000000B
S9034000BC
