:10400000E07D0120F5420000F1420000F142000095
:10401000F1420000F1420000F14200000000000007
:10402000000000000000000000000000F14200005D
:10403000F142000000000000F1420000F1420000E7
:10404000F1420000F1420000F1420000F1420000A4
:10405000F1420000F1420000F1420000F142000094
:10406000F1420000F1420000F1420000F99A000024
:10407000F1420000F1420000F1420000F142000074
:10408000F1420000F1420000F1420000F142000064
:10409000F1420000F1420000F1420000F142000054
:1040A000F1420000F1420000F1420000F142000044
:1040B000F142000005980000D99700008D9600009D
:1040C000959600009D960000A5960000AD96000014
:1040D000F1420000F1420000F1420000F142000014
:1040E000F1420000F142000000000000000000006A
:1040F00000000000A199000041A4000039A40000C4
:1041000031A4000021A4000069A4000061A4000003
:1041100059A4000049A40000F1420000F14200004F
:10412000F1420000F1420000C5A40000BDA400005F
:10413000B5A4000071A40000EDA40000E5A40000F7
:10414000DDA40000CDA4000069A5000061A5000069
:1041500059A50000F5A4000091A5000089A5000064
:1041600081A5000071A50000F1420000F1420000AD
:10417000F1420000F14200000000000000000000D9
:10418000E1BB0000E9BB0000F1BB0000F9BB00008F
:1041900000000000F1420000F1420000F142000086
:1041A000F1420000F1420000F1420000F142000043
:1041B000F1420000F1420000F1420000F142000033
:1041C000F1420000F1420000F1420000F142000023
:1041D000F1420000F1420000F1420000F142000013
:1041E000F1420000F1420000F142000025AD000064
:1041F00035AD000045AD000055AD0000F1420000B6
:10420000F1420000F1420000F1420000F1420000E2
:10421000F1420000F1420000C9930000B993000090
:10422000E1930000D1930000F1420000F142000050
:10423000F1420000F1420000F1420000F1420000B2
:10424000F1420000F1420000F1420000F1420000A2
:10425000F1420000F1420000F1420000F142000092
:10426000F142000010B5054C237833B9044B13B16B
:104270000448AFF300800123237010BDC005002067
:10428000000000004C0101000C4B43B10C480D49EB
:1042900010B5AFF300800C48036823B910BD0A487D
:1042A000036833B97047094B002BF7D0BDE81040C5
:1042B0001847064B002BF5D0184700BF0000000040
:1042C0004C010100C40500204C0101000000000069
:1042D00010B5044B9847044B9847044BBDE8104079
:1042E000184700BF4D4C0000E5D9000019C9000077
:1042F000FEE7000008B5144A144B9A4218D1144B3B
:10430000144A002193421CD3134A144B22F07F021B
:104310009A60D3F8882042F47002C3F88820BFF373
:104320004F8FBFF36F8F0E4B98470E4B9847FEE7AA
:104330000D49043A8B42E2D252F8040F43F8040BC1
:10434000F8E743F8041BDDE74C0101000000002002
:10435000C0050020DC7D00200040000000ED00E0F2
:10436000C1E1000089C40000B805002030B54A1C36
:10437000C4B2C0F34712164804F01F0300EBC2108A
:1043800007D1184490F8403003F0FE0380F8403025
:1043900030BDC5185B0895F8402002F0FE021844B5
:1043A00042F0010285F8402090F8303014F0010FFF
:1043B00019BF03F00F0343EA011101F00F0103F0ED
:1043C000F00314BFC9B2194380F8301030BD00BFEC
:1043D0000080004101224309914200F01F0002FACF
:1043E00000F011D002D302291FD07047DB0103F186
:1043F000824303F50043586082B242F08042000CD1
:104400009A6240F040400EE0DB0182B203F1824349
:1044100003F5004342F0804242F4003258609A6251
:10442000054A42EA104098627047DB0103F182437B
:1044300003F500439860DFE7000002C0F0B5144ABE
:10444000144E136A144D1549154F43F0800313623F
:10445000144B85B04122C3F82021134B0193002453
:10446000012300933246234602942846B847721C23
:104470002146102328460D4DA847214607200C4B06
:1044800098470C490C4B072005B0BDE8F040184791
:1044900000080040DC05002054100020001C0043F0
:1044A000ED800000001C0040501100203981000008
:1044B000D5430000010007006D430000F0B5154A28
:1044C000154E136A154D1649164F43F48073136247
:1044D000154B85B04122C3F82421144B01930024CD
:1044E0000123009306F11102234602942846B8479F
:1044F00006F112022146102328460D4DA8472146F9
:1045000042200C4B98470C490C4B422005B0BDE8AB
:10451000F040184700080040DC0500202812002069
:1045200000200043ED800000001C0040F00F002040
:1045300039810000D5430000010042006D430000B6
:10454000044A05499369054843F002039361044B0B
:10455000184700BF0008004000200041EC0F002079
:1045600091820000084B4022C3F8AC20C3F8B02071
:10457000C3F8B420C3F8B820044A936943F0800319
:104580009361034B184700BF001C00400008004027
:10459000F1820000024A136943F04003136170473F
:1045A0000008004010B5044B984704490448054BE7
:1045B000BDE81040184700BF95450000004000418D
:1045C000D00F00200983000070B52D4C2D4E2E4DCC
:1045D00001212B20B04794F8CB302C4903F0FB038A
:1045E00084F8CB302B20A84702210820B0474FF495
:1045F0008073636194F84830254903F0FB0384F825
:1046000048300820A84702210920B0474FF4007322
:10461000636194F849301F4903F0FB0384F8493083
:104620000920A84702210A20B0474FF48063636144
:1046300094F84A30184903F0FB0384F84A300A2002
:10464000A84702210B20B0474FF40063636194F840
:104650004B30124903F0FB0384F84B300B20A84782
:1046600001212A20B04794F8CA300D4903F0FB031A
:1046700084F8CA302A202B46BDE87040184700BF96
:1046800000800041D54300006D43000007002B006F
:10469000070008000700090007000A0007000B00D8
:1046A00007002A00064B1A6942F400521A611A697F
:1046B00042F400121A61DA6942F40052DA6170477A
:1046C0000008004010B5054B9847054B05490648C2
:1046D0009847064BBDE81040184700BFA5460000AC
:1046E000058400000034004294120020C9450000F7
:1046F000064B4122C3F89C204222C3F88C20044A76
:10470000536943F480535361704700BF001C00405D
:104710000008004010B5054C05495120A04723462C
:1047200004495020BDE81040184700BF6D43000009
:10473000030051000300500013B5074B074C984786
:1047400000230093064A074907481023A047074B58
:1047500002B0BDE810401847F14600007D89000016
:10476000FE050020003000408010002015470000AA
:10477000064B4122C3F8A0204222C3F88C20044AF1
:10478000536943F400535361704700BF001C00405D
:104790000008004010B5054C05495B20A0472346A2
:1047A00004495C20BDE81040184700BF6D4300007D
:1047B00002005B0002005C0013B5074B074C9847F2
:1047C00000230093064A074907481023A047074BD8
:1047D00002B0BDE810401847714700007D89000015
:1047E0000E06002000340040D41000209547000041
:1047F00010B5054C05493920A04723460449382007
:10480000BDE81040184700BF6D43000003003900A9
:1048100003003800064B4122C3F8DC204222C3F8D3
:104820008C20044A936943F400739361704700BF7E
:10483000001C00400008004010B5054B9847054B90
:104840000549064800229847054BBDE81040184727
:1048500015480000E18A00000020014148100020B6
:10486000F147000070B5134C134E144D4FF48013F4
:10487000C4F8943002213420B04711493420A847AD
:104880004FF40013C4F8943002213520B0470D498D
:104890003520A84701211420B04794F854300A4924
:1048A00003F0FB0384F8543014202B46BDE870401D
:1048B000184700BF00800041D54300006D43000051
:1048C000020034000200350003001400064B4122B0
:1048D000C3F8E0204322C3F88C20044A936943F4D0
:1048E00080639361704700BF001C004000080040D7
:1048F00010B5054B9847054B054906489847064BA8
:10490000BDE81040184700BFCD4800009185000069
:1049100000400141480F002065480000064B41223D
:10492000C3F808214222C3F88C20044A136A43F0DA
:1049300001031362704700BF001C004000080040E4
:1049400010B5054C05492820A047234604492920D5
:10495000BDE81040184700BF6D4300000300280069
:104960000300290013B5084B084C98470023009317
:10497000074A084810234FF08641A047064B02B073
:10498000BDE81040184700BF1D4900007D890000A8
:104990001E060020881100204149000070B50B4C14
:1049A0000B4D94F857300B4903F0FB0384F8573054
:1049B0001720A84794F85630074903F0FB0384F802
:1049C000563016202B46BDE8704018470080004145
:1049D0006D4300000300170003001600064B412240
:1049E000C3F80C214222C3F88C20044A136A43F016
:1049F00002031362704700BF001C00400008004023
:104A000010B5054B9847054B054906489847064B96
:104A1000BDE81040184700BFDD490000AD8300002D
:104A200000040043081000209D490000064B41226D
:104A3000C3F810214222C3F88C20044A136A43F0C1
:104A400004031362704700BF001C004000080040D0
:104A500010B5054C05494D20A047234604494C207C
:104A6000BDE81040184700BF6D43000003004D0033
:104A700003004C0013B5074B074C984700230093E5
:104A8000064A074907481023A047074B02B0BDE874
:104A9000104018472D4A00007D8900002E06002096
:104AA00000080043D8110020514A000070B5134C93
:104AB000134E144D4FF08043C4F8943002213E2031
:104AC000B04711493E20A8474FF00043C4F8943046
:104AD00002213F20B0470D493F20A84701211E2059
:104AE000B04794F85E300A4903F0FB0384F85E3067
:104AF0001E202B46BDE87040184700BF00800041D3
:104B0000D54300006D43000002003E0002003F005C
:104B100002001E00064B4122C3F814214222C3F8B2
:104B20008C20044A136A43F008031362704700BFE5
:104B3000001C00400008004010B5054B9847054B8D
:104B4000054906489847064BBDE81040184700BF86
:104B5000154B0000CD860000000C004324110020FE
:104B6000AD4A00000148024B184700BF10E000E0CA
:104B70009982000070B50221114C124E124D18207E
:104B8000B0474FF08073636194F858300F4903F0D9
:104B9000FB0384F858301820A84702211920B04799
:104BA0004FF00073636194F85930094903F0FB0337
:104BB00084F8593019202B46BDE87040184700BFD3
:104BC00000800041D54300006D430000070018003D
:104BD00007001900074B4122C3F8A820A3F5A053F2
:104BE0001A6942F480621A619A6942F001029A617C
:104BF000704700BF001C004010B5044B9847044BA1
:104C00009847044BBDE81040184700BFD54B000043
:104C10000D8D0000754B0000024A536943F4807308
:104C2000536170470008004010B5044B9847044892
:104C3000044B0360BDE81040034B1847194C0000BB
:104C4000D01000200020004001BC00002DE9F04100
:104C5000854B864C864D874F984720236361022100
:104C60000520A84794F8453003F0FE0384F845304A
:104C700001211520A84794F8553003F0FB0384F870
:104C8000553094F8553003F0FE0384F85530012177
:104C90002720A84794F8C73003F0FB0384F8C730F7
:104CA00094F8C73003F0FE0384F8C7304FF4005384
:104CB000C4F8943002212D20A84794F8CD304FF449
:104CC000804603F0FE0384F8CD300221C4F89460DE
:104CD0002E20A84794F8CE3003F0FE0384F8CE309F
:104CE00001212F20A84794F8CF3003F0FB0384F86C
:104CF000CF3094F8CF3003F0FE0384F8CF30012199
:104D00004B20A8474FF40062C4F8042194F84B31BB
:104D100043F0040384F84B31C4F8182194F84B3164
:104D200003F0FE0384F84B310221C4F814614E20D5
:104D3000A84794F84E3103F0FE0384F84E31012168
:104D40005220A84794F8523103F0FB0384F8523103
:104D500094F8523103F0FE0384F852314FF40023EB
:104D6000C4F8143102215320A84794F8533103F0BA
:104D7000FE0384F853314FF48013C4F81431022138
:104D80005420A84794F8543103F0FE0384F85431BA
:104D90004FF4001302215520C4F81431A84794F8A9
:104DA0005531354D03F0FE0384F85531334B344C07
:104DB0009847344B9847344B9847344B9847344B7B
:104DC0009847344B9847636943F400736361324BEF
:104DD0009847324902463248A847324B9847324BEF
:104DE0009847324B9847324B9847324B9847324B53
:104DF0009847324B9847324B9847324B98476369F4
:104E00004FF04008334363612F4EC7F8A480B0478A
:104E10002E4902462E48A847636943F40043636164
:104E2000C7F8A480B0472B4902462B48A847A3697E
:104E300043F40053A361C7F8E880B047274902460E
:104E40002748A847A36943F48043A361C7F8E880D3
:104E5000B047244902462448A847244B9847244B8E
:104E6000BDE8F041184700BF1994000000800041E0
:104E7000D5430000001C0040C98700003D440000ED
:104E800000080040BD4400004145000065450000A9
:104E9000A5450000C5460000F19A0000002400402E
:104EA000900F002039470000B94700003948000042
:104EB000F148000065490000014A0000754A000001
:104EC000394B0000654B00001DAD0000003800406C
:104ED00074120020003C00406811002000A0014135
:104EE000B00F002000C0014154120020F94B000017
:104EF000294C000070B54D000026837104460171F5
:104F000042714681074B2846984733462060054446
:104F1000A84203D1A3812381002070BD20F8023B69
:104F2000F6E700BF09E200002DE9F0470646994682
:104F300000010B4B0B4DDFF830A00F469046984711
:104F400000242860A64202D10020BDE8F08728682E
:104F50004B4600EB041042463946D0470134F1E796
:104F600009E20000D8220020F54E0000324B2DE966
:104F7000F047D3F800804FEA001C08EB0C02002435
:104F8000157920462646A2464FF6FF7923465FFA5A
:104F900084FEAE453FD3B3FBF5F5ADB28D4238BFCD
:104FA00030B258F80C4028BF00B20B4434F810500F
:104FB00024F810109079547911795789B2F808C003
:104FC0005B1BC0F11005B3FBF1F3EDB29EB246FAE4
:104FD00005F1201AC0B289B2BF1B8140002F1FFA11
:104FE00081FEB8BF7F420126F44506FA05F520D0C0
:104FF000AF4209DC06FA04F406FA00F0241AA645CA
:1050000002D0BEF1000F14D101205381A2F808E0B4
:105010009081BDE8F087176837F81470BA453CBF37
:105020007046BA46B9453B4484BF7646B94601341A
:10503000ADE70020BDE8F087D8220020024B1B68B6
:1050400003EB0010007B7047D8220020084B1A6841
:10505000CB1F02EB0012072B4FF0000090819FBF87
:1050600050791389401A43FA00F080B2704700BFAC
:10507000D822002038B5002405460180C48104816F
:10508000448184810482448284820A4B0846984782
:10509000686000B9FEE720462A88A3B29A4204F16C
:1050A000010101D8012038BDA4B26B6818550C4627
:1050B000F2E700BF09E200000389028A93429BBF26
:1050C0000088C018981A801A80B27047028A038933
:1050D000934210B59CBF04881B199B1A9BB28B424C
:1050E00085BF04885218002192FBF4F384BF04FBAF
:1050F00013224282084610BD838A4268D154838AB3
:10510000018801339BB2B3FBF1F201FB12338382BE
:1051100001207047828A438A934200D0FEE70382CF
:1051200001207047F0B543898589AB4200D0FEE786
:1051300002899A4200D0FEE7068AB54216D004885A
:10514000002293B2A34200D3FEE7AF1897FBF4F11D
:1051500004FB11718FB2BE4208D04768795C0A29FE
:1051600002F10102EDD1581C80B2F0BD0020F0BD6B
:10517000F0B543898589AB4200D0FEE702899A42A7
:1051800000D0FEE7068AB5421ED001880024A2B2F4
:105190008A4200D3FEE72F1997FBF1F301FB13734B
:1051A0009FB2BE4210D04768FF5C0A2F04F1010491
:1051B000EDD1013393FBF1F401FB14334381531C14
:1051C0009BB2C3811846F0BD0023FBE78389418968
:1051D000994210B5024600D1FEE741681488C85CC8
:1051E00001339BB2B3FBF4F104FB1133938110BD87
:1051F00082894389934200D0FEE7038101207047F2
:105200002DE9F04104469046324E9DF8185000F5C5
:105210007D601F46B047414604F6E870B047099BE1
:10522000636000229DF820302260A3739DF81C303B
:1052300063731146A7601346257322826262E218E7
:105240000133B3F5FA6F82F83010F8D1002213461B
:10525000A1180132B2F5FA6F81F80038F8D104F5DF
:10526000805241F2040001212354136041F20702ED
:105270008D42A1542BD1A3542354627B112A07D110
:1052800041F20502A35441F20603E554BDE8F08162
:10529000627B122A07D141F20502A55441F20602AF
:1052A000A354BDE8F081627B132A08D141F20502C4
:1052B000A35441F20603FF22E254BDE8F081627B71
:1052C000142A05D141F20502FF21A154E6E7A154B9
:1052D000BDE8F081755000002DE9FF472F4F304E9B
:1052E0007B683048DFF8E0901033002501240393F9
:1052F0004FF47A62112301931146029500942A4BD0
:10530000B0477B6829480294203303934FF47A62B4
:105310001223019311460094254BB0477B68254822
:105320000094303303934FF002084FF47A62132352
:1053300001931146CDF808801F4BB0477B681F488A
:1053400000944033039303274FF47A6214230297A7
:10535000019311461A4BB0474FF0FF0A4FF47A629F
:1053600000972B4611464846164F0395CDF808A0E6
:105370000195B0474FF47A622B460395CDF808A00B
:105380000195CDF8008011463846B04741F2070339
:1053900009F80340FC5404B0BDE8F087F432002063
:1053A00001520000A8120020D4100020E467002061
:1053B00080100020D0470020D8110020B4370020F2
:1053C00088110020DC570020EC2200202DE9F04F4E
:1053D00091B000F6E87802AF0546544B796040463C
:1053E00098470646002866D0514BBB60514BFB6086
:1053F000514B3B61514B7B61514BBB61514BFB614D
:105400000023E9461C4607F1080141F2070051F864
:10541000232012F800E0BEF1000F07D007F1380E8C
:105420000EEB840E01344EF8182CE4B20133062B37
:10543000EDD1DFF82CB1002107F1200ACBB29C425C
:1054400023D84046404B9847864238D1DFF814B104
:105450004FF0000907F1200A5FFA89F39C422FD828
:105460004FF0000A1FFA8AF39E42404635D8374B68
:10547000DFF8F480984707F120060021CBB29C4268
:1054800049D83C37BD46BDE8F08F5AF82100854227
:1054900001D17B688BB100F57D60D84786420CD97D
:1054A0000222C8238DE80C006422002311462848FC
:1054B000284CA047CD460020E3E70131BEE7FEE7D8
:1054C0005AF82900854201D17B681BB1314600F5AD
:1054D0007D60D84709F10109BEE71F4B98474FF09F
:1054E0000009834607F120025FFA89F18C4202D855
:1054F0000AF1010AB6E752F82900854201D17B681A
:1055000033B1594600F57D60144B3A6098473A68CC
:1055100009F10109E8E756F82100854201D17B68CD
:1055200013B100F57D60C0470131A7E725510000A8
:10553000A8120020E4670020D0470020B4370020E4
:10554000EC220020DC57002071510000F1510000D6
:1055500004330020BB740000CD510000F95000005E
:10556000B9500000CD500000155100002DE9F04F5A
:1055700000F57D66ADF5117D834606AF3046A04B44
:105580009847386220B907F50B77BD46BDE8F08F24
:105590000BF130030BF50062002103F8011B93426D
:1055A000FBD107F134044FF4FA720021954BDFF878
:1055B000989220469847944B304698470023DDB296
:1055C00003F101083B6A9D42304637D38F4B984721
:1055D00020468F4B98478F4BF861204698477F387D
:1055E00043B2BB6220468C4B98477F3843B27B6204
:1055F00020468A4B98477B6AB861C3F180035B0001
:10560000002203F0070387F83320FB60FA6292461A
:10561000144607F13405FB6A5B5D022B12D197F843
:105620002C40FB6A3A6A0133FB62BB8D9A42F0D888
:1056300051460BF130007A4B9847A4E7C8474346E0
:105640006055BCE7032BECD1002CEAD0601C07F1BD
:10565000330202212844734B9847C6B2002E67D10B
:10566000E01C07F13302022128446E4B9847601D6D
:1056700007F13302022128446A4B98475FFA80F809
:10568000E01D07F1330202212844664B984781460A
:1056900004F1090007F1330202212844614B9847C5
:1056A000614B3A8D5C7AFB6803EBC40404F00F0392
:1056B0005FFA89F93B6109F1E009102313FB0299B4
:1056C000602399FBF3F503FB1595EDB2C3B27B6143
:1056D00002930195CDF800803B697A6AB96ADFF8D8
:1056E0006C915248524CC8477B6905930495CDF89C
:1056F0000C803B690293BB6901937B6A00930AF1BA
:105700003009D944FA694B49BB6A4846A0474A4B1D
:105710004A4C4846984739697B6982442A4648EA98
:1057200001014FEA18105FFA8AFAA047002478E7CF
:10573000012E40F08D80FB6AC7F808D01B1B0621A4
:10574000033B93FBF1F3DBB203EB4302E01C0732B4
:1057500022F0070201FB0303ADEB020DEB182C183E
:105760000DF118087B607B689C4208F1030802D1A8
:10577000D7F808D0DAE707F1330202212046294B97
:1057800098470221054607F133026018254B9847D8
:1057900007F1330202210646224B201D9847284B71
:1057A00078619847F6B2EBB205903B61039604939B
:1057B0003B7D0293BB6901937B6A00930AF1300938
:1057C000D944FA69BB6A1F49194D4846A8471A4B84
:1057D000484698473B7D08F8033CA6F182035E42A9
:1057E0005E413B6908F8026CA3F180025542824495
:1057F00055415FFA8AFA08F8015C0634B3E700BF46
:10580000255100002FE2000071510000F15100000D
:10581000557800007578000095780000B578000094
:1058200091CB00000975000004330020A6F60000AB
:105830001DE60000E6F6000075E6000085D20000D7
:105840006D7500002CF70000CD51000099E30000B9
:10585000042E49D1E01C07F133020221294B2844D0
:105860009847C6B2601D07F133020221254B284438
:1058700098475FFA80F8E01D07F1330202212844BF
:10588000204B9847642E20D1B8F1650F7FF44EAFBE
:10589000C4B221461C481D4B98470494CDF80C8097
:1058A0000296BB6901937B6A00930AF130055D445F
:1058B000BB6AFA691649174C2846A0472846164B7A
:1058C000984782445FFA8AFA30E7662E7FF42EAF5B
:1058D000B8F1670F7FF42AAFC4B223467A6AB96A77
:1058E0000E4D0F48A847D8E7022E3FF41FAF0AF12C
:1058F00030045C4432460B49064B2046984720460C
:10590000DDE700BF09750000043300205176000078
:1059100072F700001DE6000075E6000099E3000044
:105920009BF70000CEF700002DE9F04F00F57D66F3
:10593000ADF5017D30463D4B9847074618B90DF54A
:10594000017DBDE8F08F03AC4FF4FA720021384BB3
:10595000DFF8009120469847364B304698470023A1
:10596000DDB2BD4203F1010830461ED3324BDFF8F1
:10597000E8809847314B20469847314B204698475E
:10598000304B009020469847002681462E4B2046FB
:10599000984735468DF80B60A35D022B09D1F5B20F
:1059A0000136B3B29F42F7D8C9E7C84743466055AE
:1059B000D6E7032BF4D10DB90025F1E7681C0DF1F2
:1059C0000B0202212044C047C0B20328F4D1009B3F
:1059D0007F2BF1D1B9F17F0FEED1E81C0DF10B0255
:1059E00002212044C0478346681D0DF10B020221AD
:1059F0002044C0470190E81D0DF10B020221204414
:105A0000C047824605F109000DF10B020221204436
:105A1000C0479DF80420632ACED1C3B25FFA8BF24F
:105A20005FFA8AF109480A4DA847C5E725510000E9
:105A30002FE2000071510000F15100005578000084
:105A40007578000095780000B5780000587800203F
:105A5000E55B0000CD510000097500002DE9F84319
:105A6000048A0646ECB900F57D673846114B984725
:105A7000054608B9BDE8F8830F4BDFF84890384673
:105A8000984735822346DCB2A54203F10108384627
:105A900009D80A4B9847328AB068094B06F13001A1
:105AA0009847BDE8F883C847331983F83000434668
:105AB000E9E700BF2551000071510000F1510000DD
:105AC000FD830000CD510000014B01221A70704788
:105AD000A412002010B544788C421CD9FF2B4FF043
:105AE0000C0404FB01F128BFFF230C4CC06854F8E0
:105AF00023304350FF2A28BFFF22014454F82230AC
:105B00004B60BDF80830FF2B28BFFF23002054F85E
:105B100023308B6010BDFF2010BD00BFA4330020D8
:105B200010B5064C064B00F114012046984720465C
:105B3000044A054B0021BDE81040184724110020FD
:105B400009870000C95A0000FD86000040787047B0
:105B5000F0B50D26457800213746CBB29D4210D9CD
:105B60000369032207FB0133DC7A93F80CE0013A66
:105B7000744412F0FF02DC7216FB0533F4D10131DC
:105B8000EBE7F0BD10B54478006904FB02120D2468
:105B90006243811883549DF808304B709DF80C3097
:105BA0008B7010BD10B5447804FB021201690D2002
:105BB00000FB0212D3709DF8083013719DF80C3071
:105BC000537110BD10B5447804FB021201690D2019
:105BD00000FB021293719DF80830D3719DF80C30D0
:105BE000137210BD10B5447804FB021201690D2434
:105BF00004FB0212D37210BD10B5447804FB0212EC
:105C000001690D2404FB0212137310BD2DE9F74F37
:105C100005464170CCB20C206043903068604F4F15
:105C2000B847064600F19003A8602720EB60604368
:105C3000B84706B100B9FEE7002328611946AA68F3
:105C4000D1540133902BFAD10024454F26466B786E
:105C50009C420DD3DFF814B14FF0000A6B785FFA65
:105C60008AF6B3420AF1010A0AD803B0BDE8F08F00
:105C70000023214600961A462846B8470134E6E735
:105C80000024234631462846019400940122D84737
:105C90007F23009331462346284601940122314F49
:105CA000DFF8CC90DFF8CC80B847FF230093314673
:105CB00023462846019401222B4FB84723463146FC
:105CC00028460122C8472346314628460122C047BC
:105CD000234631462846019400940222D8477F2368
:105CE0000093314623462846019402221D4FB847AF
:105CF000FF230093314623462846019402221A4F7F
:105D0000B8472346314628460222C8472346314633
:105D100028460222C047234622463146284601949F
:105D20000094D8470F4F0194234622463146284617
:105D30000094B847234622463146284601940094F1
:105D4000094FB8472346224631462846C8472346CE
:105D5000224631462846C04780E700BF09E20000DE
:105D6000D55A0000A55B0000C55B0000855B000004
:105D7000F95B0000E55B00002DE9F04F0469437812
:105D8000DFF8A0A085B000254FF00D09039309FBB3
:105D9000014403262B462A46E77A94F803C01AF8F2
:105DA00007E094F800B05744013E97F8008197F857
:105DB00000721CFB08FC0BFB0ECC94F806B00BFB2E
:105DC00007CC624494F804C094F801B01CFB08FCB2
:105DD0000BFB0ECC94F807B00BFB07CC634494F894
:105DE00005C094F802B01CFB08F80BFB0E8E94F86B
:105DF00008B00BFB07E73D44BDF80C7016F0FF063A
:105E000019FB0744C8D1C5F34F250095C3F34F23B1
:105E1000C2F34F22024CA04705B0BDE8F08F00BF8F
:105E2000D55A00000000002070B5064E054600243B
:105E30006B789C4200D370BD21462846B0470134A0
:105E4000F6E700BF795D000038B5084C0546002331
:105E500023700748074B9847AA88A9686869064BCA
:105E600098472378012BFCD138BD00BFA412002035
:105E700024110020F1860000FD8300002DE9F04F81
:105E80001C4B1B78202B14BF0125022585B0AAB21C
:105E90000CBF00232B4653430024804602920393F9
:105EA0002646FF275FFA86FA5FFA84F9002107E0A9
:105EB000CDF800904B46524640460F4DA8475946F4
:105EC00098F8013001F1010BC9B28B42F0D840467D
:105ED0000A4B98470A4B01209847029B1E44039B9C
:105EE000013F1C4417F0FF07B6B2A4B2DAD105B0E7
:105EF000BDE8F08F000C0040D55A0000495E00005C
:105F0000CD82000070B52A4E0446002293B213F0F1
:105F1000010F14BF4FF060604FF0006013F0020FEC
:105F20000CBF4FF000454FF0604513F0040F45EAF9
:105F300000050CBF4FF400204FF4602013F0080F51
:105F400040EA05000CBF4FF400054FF4600513F064
:105F5000100F40EA05000CBF4FF400654FF4606578
:105F600013F0200F45EA00050CBF4FF400404FF43A
:105F7000604013F0400F45EA00050CBF08200E20DA
:105F8000DB0914BFE02380232843034346F8223073
:105F90000132B2F5807FB9D12046064B98472046A2
:105FA000054B98472046054B9847002070BD00BF21
:105FB000A43300200D5C0000215B00007D5E00002A
:105FC00010B5074B044600221A700648064B984746
:105FD000A288A1686069054BBDE81040184700BF62
:105FE000A412002024110020F1860000FD8300008F
:105FF000114B4FF4804210B5C3F818210F4CA04745
:1060000010B90F480F4B9847A047802802D10C4881
:106010000D4B9847A047402802D109480B4B9847A1
:10602000A047C02802D10648094B984709480A4BA7
:10603000BDE81040184700BF008000416D750000AA
:10604000F432002071700000F5620000ED6C000079
:10605000A967000004330020BD77000010B5044C90
:106060000448A04723460448BDE81040184700BF35
:106070006582000054100020281200202DE9F04F06
:10608000804A137885B0154633B913780133DBB2F3
:10609000137005B0BDE8F08F0023ADF80C30ADF8FB
:1060A0000E305378784A794C794808330021D75C10
:1060B0006B78DBB2FFB2D65C6B780133DBB26B700E
:1060C0006B7803F007036B706B7813F0010F714B63
:1060D0004FF4002214BFC3F81821C3F814216B78C1
:1060E00013F0020F6B4B4FF4801214BFC3F818214A
:1060F000C3F814216B7813F0040F664B4FF40012B1
:1061000014BFC3F81821C3F81421022303AAA0471F
:1061100002230DF10E0200215F48A047BDF80C20BC
:106120004EF660239A42F6B24FF0000340F29D8093
:10613000ADF80C300123BDF80E204EF660218A42E6
:106140004FF0000840F29680ADF80E804FF0010845
:10615000524CBDF80C00A2684FEA07194A44D168B6
:106160000978884239D0002B37D05068DFF838A141
:1061700000290CBF902280224FF0020100F105009F
:106180000CBF4FF07F0B4FF0000BD047A3684B4480
:106190003A46586802210730D047A3684B445A4614
:1061A000586802210930D047A3684B443946DB6860
:1061B000204683F800B03A4B01939847A268914477
:1061C0000221D9F804014FEA4B020930D04707F108
:1061D0001001C9B22046019B9847A368BDF80E1074
:1061E00037013B44DA681278914239D0B8F1000F98
:1061F00036D05868DFF8B080DFF8A4A0002A0CBFC2
:10620000902280224FF0020100F105000CBF4FF0F8
:106210007F094FF00009C047A3683B4432465868E5
:1062200002210730C047A3683B444A465868022110
:106230000930C047A36819483B443146DB6883F8FE
:106240000090D047A3681F440221D7F804014FEA09
:1062500049020930C04706F11001C9B20F48D047C2
:1062600000232B700F4B984713E7C72A3FF663AF05
:106270007F235DE7C72A3FF66BAF7F22ADF80E2084
:1062800064E700BF3E06002000030020F18100000B
:10629000541000200080004128120020F432002019
:1062A000E17B00005D600000397500002DE9F041E0
:1062B0000B4F0C4C0C4E0D4D00223B461146204618
:1062C000B04700223B4611462846B0472046084CBE
:1062D0000021A047284623460021BDE8F041184789
:1062E0007D60000054100020B581000028120020BD
:1062F000A58100002DE9F047102194B00646304BEF
:106300003048DFF8E490304F9847202130462F4B3B
:106310009847002425461E2200210CA8C8472C4B74
:1063200008AA5FFA84F803F1100A944618685968BD
:106330009646AEE80300083353457246F6D1032370
:106340000F2C049303952BD890230193029400956E
:10635000002302221F490CA8B8474FF0020A1E4B27
:106360000CA8984702230293C0B207AB0193009098
:1063700041460CAB52463046DFF870808DF81C5019
:1063800001348DF81D50C047202CC4D13046134B2A
:106390009847134B9847134B984714B0BDE8F087C4
:1063A000A4444FF0010A1CF8102C029263220192BF
:1063B000CDF800A0022207490CA8B847CFE700BFDC
:1063C000055F0000587800201DE6000045790000B8
:1063D000E9F70000E3F8000075E60000017A00002C
:1063E000AD6200005D6000002FE20000E97900006E
:1063F00010B5084B084C4FF400129A612046074B29
:1064000098472046064C074A0749A4460823BDE89A
:106410001040604700800041480F0020F5850000D3
:1064200031860000DD220020100300200000000063
:106430002DE9F04FAE4B4FF400125A61AD4B5A7A32
:10644000511E9A7A9A7AD1F1000B87B04BEB010B6F
:10645000002A40F0BD804FF000085FFA88F2A6499C
:106460005308CB5C02F0010189000B41A349DBB268
:1064700011F8081003F00F078F4200F01481A049B3
:1064800018F801409F490A709F4903F001030193E6
:1064900001EB0413BA0858789042C7F340078946C5
:1064A00048D0002A4FF00101984E99705A700CBFE5
:1064B0007F23002303FA01F20292B268DFF874A28C
:1064C00003934FEA04152A444FF0020150680CBFB1
:1064D000902280220530D047B2682A4402215068B9
:1064E00022460730D047B268039B2A4402215068F5
:1064F0001A460930D047B268039B2A442146D26825
:1065000030461370824B03939847B26805F5407587
:106510002A4402215068029A0930D047B2689DF897
:106520000830154404F13001EA68C9B213703046EE
:10653000039B9847260109EB06035B7BBB4264D0B3
:10654000019B9F4214BF4FF0FF35012509EB060365
:106550009DF804205F739A73002D00F0A480996861
:1065600064486C4B6C4F98470590059B6B48B3F59E
:10657000C87F84BF4FF4C8730593059B132B9CBF42
:1065800014230593059B059A02FB1300644B98475F
:1065900055A3D3E90023B8470022624B624FB847A6
:1065A000624B9847624B1FFA80FA524898470AF1AB
:1065B0000103B14413FB05F39BB26A1CC9F8080040
:1065C00019B27ED199F80320CA4220D413441FE0A7
:1065D0000022DFF83881574F4D4E9A7220244FF435
:1065E0000075D8F808302B440221DA68586812F890
:1065F0000B200930B847103521464448B0470134D4
:10660000B5F5407FE4B2ECD125E700259EE70023F5
:1066100089F803303D4F04F11009BA684FEA0916B2
:106620003244D36813F80B300AFB0531002952DBE2
:106630007F2953DC01F0FF0A9A4534D050683D4D64
:10664000B02202210530A847BB683344224658686F
:1066500002210730A847BB683344524658680221DC
:106660000930A847BB68294833445FFA89F1DB68E1
:10667000DFF89C9003F80BA0C847BB6806F580764E
:1066800033444FEA4A02586802210930A847BB68E0
:106690001E481E444FEA4A0AF36804F1200103F839
:1066A0000BA0C9B2C84708F10108B8F1100F7FF478
:1066B000D4AE214B00221A70204B984707B0BDE89A
:1066C000F08F012DA6D199F8032011447F297FF77F
:1066D0007DAF7F239CE74FF0000AADE74FF07F0AC4
:1066E000AAE700BFAFF3008000000000004CED40BF
:1066F0000080004104330020DD220020C822002059
:106700001E030020B022002088780020F4320020F0
:10671000E17B000061740000B1DF00000071020045
:1067200071DC00000000F03FF9D9000081E10000B9
:106730005D7400003975000084780020F16300006A
:106740000F4B4FF4001210B55A610E4C9A604FF087
:1067500080429A620C4A9A62032120460B4B98476A
:106760000B490C4B204698470B490C4B2046984749
:1067700020460B4A0B4B0021BDE81040184700BFD4
:1067800000800041480F0020200000C01986000052
:10679000801A060001860000C422002095860000B1
:1067A00031640000798600002DE9F047102190B097
:1067B00080463B4B3B48DFF814A13B4F98474021B4
:1067C00040463A4B9847002425461E22002108A83F
:1067D000D0470F2C5FFA84F94FF003033FD804939E
:1067E00090230193039502940095002302223049DF
:1067F00008A8B84702262F4B08A8984702230293FF
:1068000007AB8DE80900324608AB494640462A4EA0
:106810008DF81C5001348DF81D50B047402CD4D158
:10682000264B404698470022254B114601204FF049
:10683000FF341A700132102A59709970D97018718A
:1068400059719C6019735873987303F11003F0D158
:106850001C4B98471C4B984710B0BDE8F087B9F126
:106860001F0FBCD9B9F12F0F049303950BD8A4F1D6
:1068700020020292012663220192009602220C4914
:1068800008A8B847B7E7A4F1300202926322019248
:1068900002220092064908A8B8470126ABE700BFCC
:1068A000055F0000587800201DE6000045790000D3
:1068B000E3F8000075E60000E9790000017A0000C5
:1068C0008878002041670000F16300002FE200009B
:1068D00010B5044C0448A04723460448BDE81040C6
:1068E000184700BF658200005410002028120020C5
:1068F0002DE9F04F9A4A137885B0174633B91378CB
:106900000133DBB2137005B0BDE8F08F0023ADF8A2
:106910000C30ADF80E30934B93481A78934EDFF855
:1069200068B2DFF868A2DFF8688208324FF400210D
:10693000855C1A78D2B24FF6FF79845C1A788C485D
:106940000132D2B21A701A7802F007021A701A785D
:1069500012F0010F874A14BFC2F81811C2F81411BF
:106960001A7812F0020F834A4FF4801114BFC2F854
:106970001811C2F814111B7813F0040F7D4B4FF45B
:10698000001214BFC3F81821C3F8142100210223F8
:1069900003AAB04702230DF10E0200217648B0474A
:1069A000BDF80C00D8476CA3D3E90023D047C047FB
:1069B000484528BF4846ADF80C000646BDF80E0015
:1069C000D84765A3D3E90023D047C047E4B2484580
:1069D000A4F1080328BF4846012BEDB2ADF80E0024
:1069E00040F2A7800D2D40F2D7804EF660229642ED
:1069F0004FF0000340F2A280ADF80C30012390422A
:106A00004FF0000940F29F80ADF80E904FF0010961
:106A10005A4EBDF80C00B26805F18058A8F1040880
:106A20004FEA08184244D168097888423AD0002BCE
:106A300038D05068DFF85CA100290CBF902280227A
:106A40004FF0020100F105000CBF4FF07F0B4FF03B
:106A5000000BD047B36843442A46586802210730E8
:106A6000D047B36843445A46586802210930D0479A
:106A7000B3684344291FDB68C9B283F800B03046CD
:106A80003F4B01939847B26890440221D8F8C40064
:106A90004FEA4B020930D04705F10801C9B2304630
:106AA000019B984704F18055043DB368BDF80E1072
:106AB0002D012B44DA68127891423AD0B9F1000FD7
:106AC00037D05868DFF8CC80DFF8B4A0002A0CBFBC
:106AD000902280224FF0020100F105000CBF4FF020
:106AE0007F094FF00009C047B3682B44224658681D
:106AF00002210730C047B3682B444A465868022138
:106B00000930C047B3681D482B44211FDB68C9B258
:106B100083F80090D047B3681D440221D5F8C40023
:106B20004FEA49020930C04704F10801C9B21348CD
:106B3000D04700233B70134B9847E4E6C72E3FF63F
:106B40005EAF7F2358E7C7283FF662AF7F22ADF8DC
:106B50000E205BE7AFF300807B14AE47E17AF03F95
:106B6000DC220020ED7700202F030020F1810000BF
:106B7000541000200080004128120020F432002030
:106B8000E17B0000D168000091DC00005DDD0000C9
:106B900081E1000039750000012CDFF8FC806ED81F
:106BA000A9EB06012846C047BDF80E10A9EB01016C
:106BB0002046C047354E2846B047019668B3344E4C
:106BC000344BDFF8D8A0DFF8D8B007212846984723
:106BD000B2684FEA051842448146506802212A46AD
:106BE0000730D047B2684244022150685FFA89F208
:106BF0000930D04729463046D847B36843444FEA66
:106C00004902D3F8C400022102F0FE020930D04745
:106C100005F10C01C9B23046D8472046019B984780
:106C2000002886D01A4D1B4BDFF87080DFF870907B
:106C3000072120469847AB684FEA041A534406469A
:106C40005868224602210730C047AB685344F2B26D
:106C5000586802210930C04721462846C847AB681A
:106C600053447200D3F8C40002F0FE02022109303E
:106C7000C04704F10C01C9B22846C84759E731465C
:106C80002846C047BDF80E1092E700BF3D500000F7
:106C9000F43200204D5000006D4F000039750000A7
:106CA000E17B00002DE9F0410B4F0C4C0C4E0D4DDB
:106CB00000223B4611462046B04700223B46114683
:106CC0002846B0472046084C0021A04728462346C6
:106CD0000021BDE8F0411847F16800005410002081
:106CE000B581000028120020A58100002DE9F047A1
:106CF0000E2290B00746072305212C4CDFF8D4A0C4
:106D0000DFF8D4801020A0470C21294B2948984750
:106D100018213846284B9847002425461E2200217A
:106D200008A8D0470323072C5FFA84F9049303953E
:106D300029D80294B02301930095002302221F4911
:106D400008A8C04702261E4B08A8984702230293B2
:106D5000C0B207AB01930090324608AB49463846B3
:106D6000184E8DF81C5001348DF81D50B047182C6A
:106D7000D4D13846144B9847144B9847144B984736
:106D800010B0BDE8F087B9F10B0F03D8231D0293B3
:106D90009023D0E7A4F10C02029201266322019213
:106DA00000960222054908A8C047CCE7294F0000F9
:106DB000055F00005878002045790000E3F80000E6
:106DC00075E60000E9790000017A0000A56C00007A
:106DD000D16800002FE200001DE6000010B5044C51
:106DE0000448A04723460448BDE81040184700BFA8
:106DF00065820000541000202812002000000000CE
:106E00002DE9F04F784A137885B0164633B91378D8
:106E10000133DBB2137005B0BDE8F08F0023ADF88D
:106E20000C30ADF80E305378704A714F7148DFF86E
:106E3000E4B1DFF8E4A1DFF8E49108330021D55C88
:106E40007378DBB2EDB2D45C73780133DBB273706C
:106E5000737803F007037370737813F0010F664BB8
:106E60004FF4002214BFC3F81821C3F8142173781B
:106E700013F0020F604B4FF4801214BFC3F81821B7
:106E8000C3F81421737813F0040F5B4B4FF4001216
:106E900014BFC3F81821C3F81421022303AAB8476A
:106EA00002230DF10E0200215448B847BDF80C0032
:106EB000D8474BA3D3E90023D047C8474FF6FF7705
:106EC000B84228BF38468046ADF80C00BDF80E0029
:106ED000D84743A3D3E90023D047C847B84228BFC7
:106EE0003846ADF80E00464F4146E4B22846B84752
:106EF000BDF80E102046B847424F2846B8470197C4
:106F0000002831D0404F414BDFF814A1072128461B
:106F10009847BB684FEA05194B44834658682A4690
:106F200002210730D047BA684A445FFA8BF85068AC
:106F3000022142460930D047BA684A442946D268FD
:106F4000384682F800B0DFF8DCB0D847BA68914420
:106F50000221D9F804014FEA48020930D04705F16F
:106F60001001C9B23846D8472046019B98470028EF
:106F700030D0254D254BDFF8A880072120469847C3
:106F8000AB6827013B4481465868224602210730FE
:106F9000C047AB683B445FFA89FA58685246022101
:106FA0000930C047AB683B442146DB68284683F87C
:106FB0000090DFF87090C847AB681F440221D7F8F3
:106FC00004014FEA4A020930C04704F11001C9B276
:106FD0002846C847002333700D4B98471BE700BF76
:106FE0007B14AE47E17AF03F400600203F030020CB
:106FF000F181000054100020008000412812002080
:107000006D4F00003D500000F43200204D50000054
:10701000DD6D000091DC00005DDD000081E100001D
:1070200039750000E17B00002DE9F0410B4F0C4C5D
:107030000C4E0D4D00223B4611462046B047002223
:107040003B4611462846B0472046084C0021A04741
:10705000284623460021BDE8F0411847016E000094
:1070600054100020B581000028120020A5810000E6
:107070002DE9F0470E2290B0074607230521294C41
:10708000DFF8C8A0DFF8C8801020A0471021264BE9
:107090002648984720213846254B98470024264605
:1070A0001E22002108A8D04703230F2C5FFA84F981
:1070B0000493039629D8B0230193029400960023E9
:1070C00002221C4908A8C04702251B4B08A8984764
:1070D00002230293C0B207AB019300902A4608AB8B
:1070E00049463846154D8DF81C6001348DF81D60F9
:1070F000A847202CD4D13846114B9847114B9847BC
:10710000114B984710B0BDE8F087A4F1100202922D
:1071100001256322019200950222064908A8C04772
:10712000D3E700BF294F0000055F0000587800201A
:1071300045790000E3F8000075E60000E9790000F9
:10714000017A000029700000DD6D00002FE20000D0
:107150001DE6000000F01F034009C00100F182405D
:1071600000F5004001229A400344426093F8401029
:1071700041F0040183F8401082617047038A303384
:1071800000F13002034400219A4201D1018270478C
:1071900002F8011BF8E700000148024B184700BF46
:1071A000B43700207D7100000148024B184700BF32
:1071B000D04700207D7100000148024B184700BFF6
:1071C000E46700207D7100000148024B184700BFB2
:1071D000A81200207D710000012303778068014B15
:1071E000184700BFED8900000148024B184700BF57
:1071F000B4370020D97100000148024B184700BF86
:10720000D0470020D97100000148024B184700BF49
:10721000E4670020D97100000148024B184700BF05
:10722000A8120020D9710000807B030103F1824382
:1072300003F5204300211A6C22F002021A64014B6C
:10724000184700BF3D9600000148024B184700BF99
:10725000A8120020297200000148024B184700BF05
:10726000E4670020297200000148024B184700BF64
:10727000D0470020297200000148024B184700BF88
:10728000B4370020297200002DE9F0475C202A4C19
:10729000DFF8F080294F2A4E2A4DDFF8EC90A04706
:1072A0005020A0474C20A0472920A047264C274A21
:1072B00001214046A047264A01213846A047254AD9
:1072C00001213046A047244A01212846A047012138
:1072D0004046C84701213846C84701213046C847C3
:1072E00001212846C8471D4A02214046A0471C4AA2
:1072F00002213846A0471B4A02213046A0471A4ABD
:1073000002212846A047194C19494046A04719496F
:107310003846A04718493046A04718492846A04794
:10732000174C4046A0473846A0473046A04728465D
:107330002346BDE8F0471847557100008010002033
:10734000D811002088110020058A0000C9710000B2
:10735000B9710000A9710000997100001972000054
:1073600009720000F9710000E9710000FD89000058
:1073700000330020BC470020D85700208078002030
:10738000DD890000D4100020498A0000F7B5836829
:10739000847B0F46196A104B054628312046164655
:1073A000984705F5006120460C4B98473946204622
:1073B0000B4B9847214601A80A4B9847019B012295
:1073C0001E6020460021084B984700212046074BAD
:1073D000984703B0F0BD00BFCD950000BD950000FB
:1073E000F995000079960000959500003D96000003
:1073F00010B5104A104C11484FF4FA61A047104ADA
:1074000010484FF4FA61A0470F4A10484FF4FA6150
:10741000A0470F4A0F484FF4FA61A0470E4B0022D5
:1074200083F81F2383F8202383F8212383F8222362
:1074300010BD00BF497200008D730000A81200202B
:1074400059720000E467002069720000D0470020F4
:1074500079720000B437002000E100E080697047D5
:107460008069401A70478369013383617047007AED
:107470007047002303727047837963B9808840089E
:107480007D380028B8BF4042C0F17D00022390FB48
:10749000F3F0C0B27047012B06D18088FA23B0FB0D
:1074A000F3F040F30000F4E7022B05D18088642854
:1074B0008CBFFF2000207047704710B5C370BDF827
:1074C0000C30838001249DF8083004724170827072
:1074D000837110BD4078704780787047C0787047DE
:1074E000A0F130030246D8B209280CD9A2F16103F9
:1074F000052B03D8A2F15700C0B2704711B10A7032
:1075000000207047084670472DE9F0410139DFF847
:107510002480174606468C000025231D02D12846EC
:10752000BDE8F081394616F8010BC047A04005447C
:10753000043CF2E7E174000030B585B0094B054624
:107540000C4601A8084998470023DAB2944201D8B2
:1075500005B030BD1A1B01A90A44127AEA5401335E
:10756000F3E700BF1DE60000F9F700002DE9F74F33
:10757000304E3368013358D12F4C304B304FDFF849
:10758000CC904FF40055C4F888504FF48042C4F8B2
:10759000A8304FF04043C4F8A830C4F888204FF01A
:1075A0004022C4F8A820C4F8A8304FF40043C4F81F
:1075B0008430244BC4F8A830A3F18023C4F8A83049
:1075C0000120C4F89450B8474FF0000AD346A846AB
:1075D0000120C4F89880B84701A8C847D4F8802093
:1075E000D4F8A030D4F890505D4015405D4001A81B
:1075F000154B98472B0441BF012303FA0AF343EAD2
:107600000B0B5FFA8BFBBAF1070F07D04FF48045E5
:10761000C4F898500120B847C4F894500AF1010A00
:10762000BAF1080FD4D1C6F800B0306803B0BDE895
:10763000F08F00BF50030020008000410020004078
:10764000CD8200000080024083820000758200002D
:107650002DE9F04F01230C46837287B0514B06464B
:107660009847FF2C42D1504DDFF8449174724FF08F
:10767000000828464D4B98475FFA88F4A04208F16D
:10768000010802D807B0BDE8F08F06233F27019319
:107690000093214628460122C8477F263B462146C3
:1076A0002846DFF810B1019700970122D847DFF88C
:1076B00008A1019633462146284600960122D0476C
:1076C000002301930093214628460222C8473B46E7
:1076D00021462846019700970222D8470196009636
:1076E0003346022221462846D047C2E704F003046D
:1076F0002D4D74724FF0000A28462C4B98475FFAC4
:107700008AF4A0420AF1010ABCD9737A284F3344A3
:10771000214693F813B0DA7B93F80B8003924FEA7B
:107720005B1301935309009328464FEA5813012233
:10773000B847039B1F4F5B0804934FEA5B034FEA74
:10774000580905930193049B009321464B46284614
:107750000122B847039B0093214643462846CDF8B3
:1077600004B00122144FB84700230193009321462F
:10777000284602220E4FB847059B0193049B0093B5
:1077800021464B46284602220A4FB847039B0093E6
:107790002146CDF804B0434602222846064CA047B5
:1077A000AAE700BF6D750000587800204D5B00000F
:1077B000855B0000A55B0000C55B000010B50022E2
:1077C000C823642132244272C27202758274C1736A
:1077D000C374037301744473437444758173837574
:1077E000FF21054B05489847054B9847054B98479F
:1077F000054BBDE8104018475176000004330020C7
:10780000D952000089720000F173000010B50246E1
:1078100000230339141AA14201D8184610BD12F8EA
:10782000014B6340F6E7000007B5CB1E0DF10702E0
:1078300002211844024B9847C0B203B05DF804FB24
:1078400009750000CB1E18440221014B184700BFE8
:107850003975000007B502AA002302F8013D022194
:10786000034B04309847C0B203B05DF804FB00BF7F
:107870000975000007B502AA002302F8013D0221A4
:10788000034B06309847C0B203B05DF804FB00BF5D
:107890000975000007B502AA002302F8013D022184
:1078A000034B08309847C0B203B05DF804FB00BF3B
:1078B0000975000007B502AA002302F8013D022164
:1078C000034B0A309847C0B203B05DF804FB00BF19
:1078D000097500000A4604300221014B184700BF19
:1078E000397500000A4606300221014B184700BFD7
:1078F000397500000A4608300221014B184700BFC5
:10790000397500000A460A300221014B184700BFB2
:107910003975000000F11C039C3053F8042B8A4297
:1079200003D08342F9D1002070470120704790F8BE
:107930009C30013303F01F0380F89C3000EB830080
:10794000C1617047072310B5194404464370C8B29B
:107950002070034B0001984760607030A06010BD3C
:1079600009E200002DE9F84F074699467B68DDF8EB
:1079700030B00A98DFF86CA04FEA011803EB080654
:10798000002403F808407270B07086F808B0D04741
:10799000706005465846D047F060FDB1F0B1224610
:1079A00079684144501C8B78D2B293420AD80023A4
:1079B0007A684244581C117ADBB2994208D80020F8
:1079C000BDE8F88F4B6819F802409C540246E7E77F
:1079D0000B99D268C95CD1540346E9E7FF20BDE8A2
:1079E000F88F00BF09E2000010B444782144034C32
:1079F000C9B2A4465DF8044B604700BF657900003A
:107A00002DE9F04FDFF8B4A1634E644F91B0814689
:107A10004FF0000899F801305FFA88F5AB423CD985
:107A20001E22002108A8D047052D0FD10323039360
:107A3000002302936523019364230093584C594912
:107A40000423022208A8A04702240FE0062D27D114
:107A5000682303244FF0690C8DE808100294042376
:107A600002225149DFF838B108A8D84708A8B04722
:107A700000238DF81C308DF81D3002230293C0B214
:107A800007AB01930090224608AB29464846474C75
:107A9000A04708F101080028BCD011B0BDE8F08F64
:107AA0003DB9B847032303936723019302906623EC
:107AB000C3E7012D1ED1B847FF230493039302901F
:107AC000112307208DE809000424059401220E23C8
:107AD0003749DFF8CCB008A8D84708A8B047354BDD
:107AE0008346014608A8984759460246324B08A8E3
:107AF0009847BBE7022D1ED1B84704230593FF2307
:107B0000049303930721122301228DE80A000290B7
:107B10000E232749224C08A8A04708A8B047254BA8
:107B20000446014608A8984721460246224B08A869
:107B3000984705249AE7032D1ED1B84704230593DF
:107B4000FF2304930393072213238DE80C001849A5
:107B5000029001220E23124C08A8A04708A8B047A3
:107B6000144B0446014608A8984721460246124B8A
:107B700008A89847062479E7042D0AD1B847FF23BF
:107B80000493039307241423059502900193009412
:107B90009CE700246AE700BF75E600006D750000F1
:107BA0001DE60000A1F80000B6F8000065790000AD
:107BB000C7F800000D780000457800002FE20000B3
:107BC00010B5436803EB0111002388785C1CDBB21D
:107BD000834200D310BD4868C05CD0542346F4E70C
:107BE000437819440901436801225A547047090136
:107BF000436801225A5470470901436800225A54CD
:107C0000704700002DE9F04F994FD1B07E68069083
:107C100000200790034605463978C2B28A4215D340
:107C20003BB1934E4FF0000933785FFA89F79F42DA
:107C30002BD3002D7ED1069B1B680F2B40F24A816F
:107C4000069A013B136051B0BDE8F08F1201B118E4
:107C5000B25C32B14A78022A05D1079A0132D2B217
:107C600007920130D8E7032A02D10133DBB2F8E7EB
:107C7000042AFAD0052AF8D0062AF6D0072AF4D02A
:107C8000012A04BF0135EDB2EBE74FEA071B72682A
:107C900002EB0B0112F80B20002A39D04A78033A84
:107CA000042A35D80DF140080021724B4FF4807240
:107CB000404698470BA8704A9047704B3946424659
:107CC000304698476E4A404690476E4A82460BA817
:107CD000904773685B445B78032B1CD0042B1CD04B
:107CE000052B1CD0062B1CD0674A072B08BF144657
:107CF0001FFA8AF12046654B984748B1394630460D
:107D0000634B9847002757450DD12046614B984754
:107D100009F1010988E7604CEAE7604CE8E7604C4C
:107D2000E6E7604CE4E718F807105F4B20469847F9
:107D30000137E8E7069B1B68132B3FF67CAF10ADBD
:107D4000DFF888814B4BDFF88891DFF834B14FF4CE
:107D5000807200212846984798F89D2098F80030B6
:107D6000049317217F230026059103930293019228
:107D70000F2301224D4900962846C8472846D84778
:107D8000CDF82490DFF8E890CDF8208004463746FF
:107D900099F800305FFA86F898453FD3002F3FF4FA
:107DA0004AAF089B089A93F89D30414901332E1938
:107DB000DBB282F89D3030460422099B984730465A
:107DC000D847044422463B49099B0EA898479DF892
:107DD0003830AB709DF83930EB702B19364A374983
:107DE00018469047D84704442146354B28469847C3
:107DF00021460246334B28469847A1B23248234BCE
:107E0000984700283FF417AF2F4FDFF89C800026DB
:107E1000A64227D11F4B2C4898470CE7C82C1FD8E7
:107E2000154B0CA898474FEA0813D9F80420D1182D
:107E3000D35C93B14B78012B0FD105EB040A52466A
:107E400041460E4B4846984741464846104B984796
:107E50005046D8470137FFB204440CA8094B984755
:107E6000013695E7A95D3846C0470136D0E700BF27
:107E7000F43200202FE2000075820000C17B000078
:107E800075E600008382000084470020CD5000008A
:107E9000F97B000015510000D43200207822002028
:107EA000B4770020A0570020F9500000E1F800004E
:107EB000C4F80000FCF8000065E60000DDF80000F2
:107EC0000D78000045780000BC320020043300200B
:107ED0001DE6000013B1069A013B1360079B002BBF
:107EE0003FF4B1AEDFF87CA14E4BDFF87C914E4FF2
:107EF00010AD4FF480720021284698479AF89D20D3
:107F00009AF80030049317217F23002605910393EC
:107F1000029301920F230122444900962846C84744
:107F20002846B847CDF81CA0DFF840A1CDF8209036
:107F30000446B0469AF800305FFA86F9994546D370
:107F4000B8F1000F3FF47FAE069B069A1B683849D4
:107F50005B000A331360079B079A93F89D30013347
:107F60002E19DBB282F89D3030460422089B9847D8
:107F70003046B847044422462E49089B0EA898472D
:107F80009DF83830AB709DF83930EB702B192A4AC8
:107F90002A4918469047B84704442146284B2846AA
:107FA000984721460246274B28469847A1B22648C3
:107FB000264B984700283FF446AE234FDFF8B080A9
:107FC0000026A64229D1224B1F4898473BE6C82CE1
:107FD00021D8204B0DA898474FEA0913DAF804205E
:107FE000D118D35CA3B14B78022B11D105EB040B54
:107FF0005A464946184B5046984749465046174BF3
:1080000098475846B84708F101085FFA88F80444D1
:108010000DA8134B984701368CE7A95D3846C04739
:108020000136CEE72FE2000075E60000E1F800001F
:10803000C4F80000FCF8000065E60000DDF8000070
:108040000D78000045780000D4320020CD500000AB
:108050001551000075820000C17B0000F97B000013
:1080600083820000043300201DE60000F43200206B
:10807000F9500000836903B118477047C36903B121
:10808000184770472DE9F14F036AD0F828805C5CEF
:10809000DFF8549004EB4404E40008EB040505F118
:1080A000040A06460F465046D1B29346C8473046AA
:1080B0000C4B9847012806D94FEA1B215046C84768
:1080C000AB8A0133AB82AB8A0133AB8258F8043000
:1080D0002BB13946304601B0BDE8F04F184701B02A
:1080E000BDE8F08F6D9300008D90000070B50446E0
:1080F000FF260020C5B201305655C5B2AB42F9D2B9
:1081000084F824309DF8103084F82530059BA36254
:1081100022622046044B984728B9044BA360044BC5
:108120002360044B636070BDAD9200008580000049
:10813000758000007D800000F8B50F46D0F820E083
:1081400011461EF80720FF2A05461AD190F8242070
:1081500000200446C6B2964216D995F82520A242C0
:108160001AD304EB4406A86AF60030441A460430D9
:108170000B4B984728B92B6ADC55AB6A1E44B0827A
:10818000F8BD6FF00C00F8BD1EF80660FF2E1CBF96
:108190000134E4B20130DDE76FF01B00F8BD00BF31
:1081A0005390000008B5024B9847002008BD00BF5F
:1081B00061930000012A38B513D004D3022A12D0EB
:1081C0006FF00C0038BD046A856A645C04EB4404FB
:1081D00045F83430003318BF0123044CA047002079
:1081E00038BD8361F6E7C361F4E700BF99930000EF
:1081F0002DE9F34704461F46154BDFF864A00D46F2
:1082000090469847236A5D5DA36A05EB450503EB3D
:10821000C50501A80F4B2E1D98470F4B30469847B8
:108220000E4B814601A898470024A145A2B201D077
:10823000BC4206D1AB8AA0B29B1AAB8202B0BDE8A9
:10824000F08708EB04013046D0470134EDE700BF6A
:108250006D93000075820000B390000083820000DF
:108260006B90000008B5024B9847002008BD00BF86
:1082700081930000EFF31083036072B6BFF35F8F4A
:108280007047BFF35F8F036883F310887047000067
:10829000004B1847B5960000014B1860014B18477A
:1082A00044060020ADA90000054B10B51C68054B25
:1082B0009847054B01462046BDE81040184700BFCF
:1082C0004406002005940000C1A90000054B10B52C
:1082D0001C68054B9847054B01462046BDE81040F9
:1082E000184700BF440600200D940000C1A90000FB
:1082F000004B1847BD960000436903B1184770470B
:10830000836903B11847704710B5044B044698477A
:1083100018B9034B2360034B636010BD8D970000B9
:10832000F9820000018300001FB5838AADF8043094
:108330004FF40043ADF806300391054B029201A9BA
:10834000283814469847002808BF204604B010BDBE
:1083500045A300001FB5838AADF8043048F201033D
:10836000ADF806300391054B029201A92838144656
:108370009847002808BF204604B010BD45A3000060
:108380004288D20502D4436B03B118477047428834
:10839000D20502D4836B03B1184770474288D205D7
:1083A00002D4036B03B118477047000070B50C4B43
:1083B00004469847054680B90A4BE3620A4BA3621C
:1083C0000A4A0B4E01212046B0470A4A02212046A4
:1083D000B047094A29462046B047284670BD00BF2D
:1083E000E1A2000055830000298300008183000082
:1083F00005A400008F8300009D83000003681847D8
:1084000043681847004B18474999000010B51023DE
:10841000002484614161C261046203720121024B44
:1084200020389847204610BD25A7000038B5002504
:10843000A0F120041023C2618161456105620372CD
:1084400001212046044B984740F2FF112046034B80
:108450009847284638BD00BF35A7000055A7000043
:1084600070B50C4B04460E460021051F98470021AD
:10847000094B20469847094B002120469847002386
:1084800084F82830236B23B131462846BDE870407C
:10849000184770BD25A7000035A7000045A70000BC
:1084A000026CC36B9A4210B504460BD3064B0021F5
:1084B0009847002384F82830E36A1BB1201FBDE8E9
:1084C0001040184710BD00BF45A7000070B5866B6F
:1084D0001A4B0446EEB10279056C012A05F101023E
:1084E000026412D898477055216CE36B994217D2F9
:1084F000626B134B92B12079012894BF515C32F822
:1085000011102046BDE870401847984726F815001E
:10851000EAE79847236C01332364E5E7E188F0E755
:10852000084B002120469847002384F82830E36A4E
:108530001BB1201FBDE87040184770BD5DA700004B
:1085400055A7000035A7000070B50379416B0D4AAF
:10855000012B036C03F101050446056494BFC95C5B
:1085600031F813109047226CE36B9A4209D1002135
:108570002046054B984720460121044BBDE870403A
:10858000184770BD55A7000025A7000045A70000AB
:1085900070B50446064644F8041F0E4B2046984723
:1085A000002815DB0C4D0D4A00212046A8470C4A37
:1085B00001212046A8470B4A02212046A8470A4A23
:1085C00003212046A847094BB362094B7362002080
:1085D00070BD00BF69A6000065A7000049850000C6
:1085E000CD840000A1840000618400002D8400007F
:1085F0000D8400000430014B184700BFF5A60000B1
:1086000090F82C30DB0602D40430024B18476FF090
:108610000300704711A7000090F82C30DB0602D44D
:108620000430024B18476FF00300704709A70000A1
:1086300070B50446C263A163036400234364051D4F
:10864000102380F82C300E46094B0121284698470C
:10865000084B56B1227A012A626C94BFB15C36F89D
:10866000121028469847002070BD6189F9E700BFC5
:1086700035A7000055A7000009B90263704742639F
:10868000003218BF012203210430014B184700BFFC
:108690006FA70000243008600020704710B4044C1D
:1086A0001346A44600221C385DF8044B604700BF07
:1086B000B5A8000010B4044C1346A4460A461C3862
:1086C00000215DF8044B6047B5A8000010B5054BCC
:1086D000044640F8041F984718B9034B6362034BE4
:1086E000236210BD81A70000B58600009D860000B2
:1086F0000430014B184700BF45A800000430014B6F
:10870000184700BF51A800002030086000207047C3
:10871000F0B505681DB90F4BBDE8F0401847D1F81A
:1087200008E02C460026C2F1010C6368A76893425A
:1087300095BFDB1963449B1ADB19734507D2236885
:10874000264613B93046044BE6E71C46EDE7A54242
:10875000F8D1E0E71F900000279000002DE9F047D6
:108760000669037E44690136DA070546066110D4BE
:10877000037E9B070DD4DFF84880DFF8489000F1B6
:10878000140724B16368A268F31A934207D2BDE8C4
:10879000F0872B7E43F002032B76BDE8F087384646
:1087A000C047237C012B04D16660324621463846FF
:1087B000C847D5F814A0E368204698475446E0E738
:1087C000479000001187000010B51368044640F878
:1087D000042B98470020024B6061636010BD00BF0E
:1087E0005D870000036870B5061D05469B6930462D
:1087F0009847044628B92B6830469B68984720461E
:1088000070BD6FF0100070BDF7B5037F00F1180662
:1088100043F0010303770446154B30460F46984753
:10882000054638B1237F03F0FE0323776FF0110074
:1088300003B0F0BD62690F4B7A6030463946984705
:10884000237F03F0FE032377207F10F00200EFD098
:1088500001A8094B9847237F03F0FD032377236882
:10886000201DDB69984701A8044B98472846DFE79D
:1088700011900000118700007582000083820000C3
:10888000034600229A62DB69083803B11847704733
:10889000034600229A625B6A083803B118477047A2
:1088A00070B50446054BA0F108052C309847236AA3
:1088B0001BB12846BDE87040184770BD8D90000080
:1088C00010B5B0F84C301446B0F844209A420CD1A0
:1088D0000023A0F8443001238164A0F84C400363D6
:1088E0000830034B9847204610BD6FF01B0010BDA9
:1088F0009FA20000838FB0F844209A4210B504462E
:108900000AD0026C591C8187D15C044B9847044BF8
:108910002046BDE810401847024BFAE773A200005A
:108920009FA20000A7A200002DE9F74305460F4BC8
:10893000DFF8449001A834358846164698470C4B1A
:10894000284698470B4B074601A898470024A742A2
:1089500001D0B44203D1A0B203B0BDE8F08308EB6C
:1089600004012846C8470134F1E700BF75820000C2
:10897000B3900000838200006B90000038B504467D
:108980000D46343011461A460C4B984790B929468B
:1089900004F108000A4B984770B90A4B63600A4B10
:1089A00023600A4BA3600A4BE3600A4B23610A4B26
:1089B000636138BD6FF00C0038BD00BF53900000FC
:1089C000C9A1000029890000C1880000F5880000C5
:1089D000A1880000818800009188000008B5083057
:1089E000014B9847002008BD41A2000008B508309F
:1089F000014B9847002008BD55A2000008600020E8
:108A000070470000012908B50FD004D3022912D005
:108A10006FF00C0008BD8262003218BF01220121F4
:108A20000830084B9847002008BD4262003218BF4A
:108A300001220221F4E7C262003218BF01220321A1
:108A4000EEE700BFAFA2000008B50830014B984721
:108A5000002008BD61A200002DE9F8430F4C0F462D
:108A6000164600F10805A1462846A0470028FBD07D
:108A7000DFF830800024395D2846C0472846C847C3
:108A80000028FBD00134B442F5D3054E2846B04748
:108A90000028FBD02046BDE8F88300BF81A200007B
:108AA0008BA200006DA200002DE9F843DFF82890AA
:108AB000DFF828800F461646002400F108052846F6
:108AC000C8470028FBD02846C04738550134B44277
:108AD000F5D32046BDE8F88395A2000079A20000F6
:108AE00010B5054B04460830984718B9034B63602E
:108AF000034B236010BD00BFBDA10000A98A000088
:108B0000598A000008B50830014B9847002008BD7D
:108B10002DA200000A4970B5002300F00F065D0188
:108B20004C195AB26478844208D06D5C0DB9A642E3
:108B300004D001330D2BF2D14FF0FF32104670BD3F
:108B4000480600200020704770B5094B04460D46CA
:108B50009847084B03EB40108378032B05D18369BA
:108B600029462046BDE870401847002070BD00BF70
:108B7000158B0000480600202DE9F0433C4B3D4C8E
:108B800085B080460F469146984703464601002F20
:108B900049D1A519A15DEF7000293BD1AA78687869
:108BA000EE69032A4FF00C0E4FF020022BD112FB7E
:108BB00003E22244012195F90C70B0476B7878B13B
:108BC0000522002FAA704FF00202B4BF184643F0EE
:108BD0008000EA700121284B984705B0BDE8F0837A
:108BE000002FACBF43F0800303F00F0304228DF885
:108BF0000C300123019002908DF80D30AA7001A86D
:108C00001E4B9847E9E712FB03E22244B0470223D8
:108C1000AB70E2E70123AB7034444A46E369E17884
:108C200040469847D9E7012F04EB06030BD1A15D1D
:108C30000222DA7021B99A7040460F4B9847EBE751
:108C400005229A70E8E7022F07D10422DA70A25DAC
:108C50000AB99F70C1E70122F3E7032F09BF002281
:108C600006229A70052218BF9A70DA70D4E700BF06
:108C7000158B00004806002051B9000089BA000099
:108C80002DE9F0471D4B1E4E1E4C054698472027E8
:108C90000C2317FB003737448146394628461A4BC8
:108CA0009847C0B2082865F07F0809D001212846FE
:108CB000A04701215FFA88F02346BDE8F047184736
:108CC00006EB4916002128465FFA88F8A0474FF0C6
:108CD000010900214046A04786F802907369394691
:108CE0002846984738B905234946B3702846A04717
:108CF00049464046E0E7BDE8F08700BF158B00001D
:108D00004806002051B9000035BA000010B5114BDB
:108D1000984700281CDB4FF4D07200210E4B0F48FF
:108D200098470E4B0E4A03F5D071FF2058705A61D8
:108D30009A61DA6120338B42F8D10A4C0A4900204B
:108D4000A0470A490120A04702200949A047002066
:108D500010BD00BF21B500002FE200004806002032
:108D6000458B0000B5BB0000818C0000498B0000E2
:108D7000798B0000004B184791BB0000004B18474F
:108D800009B60000004B184765B60000004B1847B5
:108D900083B60000004B184777B60000F8B5104CBA
:108DA00006460D461746A047002813DAFF20A047C5
:108DB000041E12DB3A46294630460A4B98470028E3
:108DC0000DDB094B60011A1805F003051D545670A0
:108DD0000020F8BD6FF01300F8BD6FF01400F8BD6F
:108DE000158B000091B600004806002000210246C5
:108DF000014B0846184700BF9D8D000038B5074B52
:108E000005469847041E07DB2846054B984705484A
:108E100000EB4410FF23437038BD00BF158B0000EA
:108E200051B700004806002038B50C4B054698475E
:108E3000002810DB40010A4C235C0444002B0CBFCB
:108E400002230123A3702846064B9847002804DA22
:108E50000023A37038BD6FF0110038BD158B0000E2
:108E600048060020D5B700002DE9F04F90F808A083
:108E7000364B074687B050469847B0F1000897F840
:108E800009907E685DDBDFF8D4B0314B4FEA4818BB
:108E90000BEB080502A89847AB788DF807309DF8D2
:108EA00007002C4BC4B2012C1CD10322AA7002A8CB
:108EB00098471BF808304BB319F100034FEADA1456
:108EC00018BF012339683A7A03910496002C35D0F3
:108ED00042F080028DF8153003A81F4B8DF8142046
:108EE00098470DE002A898479DF80730DBB2052BA4
:108EF0002AD0062B07D0002B0CBF6FF012000120E8
:108F000007B0BDE8F08F6FF00F00F9E7E97CAA7CAD
:108F100002EB012292B22AB90423AB701646234613
:108F20001C46CFE795F90C10964228BF164600293B
:108F3000F6DAB24294BF00230123C3E702F00F0226
:108F4000C8E76FF01100DBE70220D9E7158B0000BE
:108F5000758200008382000089BA00004806002064
:108F60002DE9F04105460C46D9B9134B9847071E29
:108F70001EDB02212846114EB047D8B121462846B3
:108F8000B047002816DB0E4800EB471003210123F1
:108F90008370C170C3692246284698472046BDE8C1
:108FA000F0810129054B18BF0221BDE8F0411847A7
:108FB0006FF01100BDE8F081158B000051B9000081
:108FC0004806002038B50F4B14460D4698470E4A08
:108FD000002C08BF1446002813DB012D08D002D353
:108FE000022D0AD038BD094B03EB4010446138BD57
:108FF000064B03EB4010846138BD044B03EB40107B
:10900000C46138BD158B0000458B00004806002068
:10901000006800B970478842FAD1012070470368A0
:109020000B600160704703680B6001607047036864
:109030001BB901600B60704713461A68002AFBD108
:1090400019600A60704703680BB11A68026018461D
:109050007047531E1A4001BF43608260C2600160C6
:109060000CBF10466FF00C0070478368C2689A42CC
:1090700009D0426813400268D35C0B7083680133E7
:109080008360002070476FF009007047C368426832
:1090900013400268D154C36881684268591A9142EA
:1090A00088BF9A1A03F1010388BF8260C360002061
:1090B0007047C2688068101A70470000044B196836
:1090C000024609B903491960186802441A607047DA
:1090D000E8070020E07D01204FF0FF3070474FF49B
:1090E00000534B60002070470120704700207047FC
:1090F00000280DDB4309012200F01F0002FA00F0F6
:109100002033044A42F82300BFF34F8FBFF36F8F21
:10911000704700BF00E100E0002809DB430901229D
:1091200000F01F0002FA00F06033024A42F8230008
:10913000704700BF00E100E0036B0B42FCD17047B9
:1091400003889BB243F0020303800321004B1847BE
:1091500039910000038823F002031B041B0C0380D9
:109160000321014B184700BF3991000000F13D4039
:10917000A0F5E050C0F38720431E58425841704785
:1091800030B4426992F82E1092F82D300B4013F053
:10919000010509D0012382F82E30B2F840208368FF
:1091A00092B2002130BC184713F0020106D002230E
:1091B00082F82E304368294630BC18475B0704D537
:1091C000042382F82E300368F6E730BC704700F1C4
:1091D0003D40A0F5E050800A4000763000F0FE00EF
:1091E0007047000038B5036B2D4C13F0010F024699
:1091F0000D460DD10321A04703889B0703D5294BBA
:1092000098470221A0470123138003211046A0475D
:1092100010460121A047244B162101FB05351046BD
:10922000AB88D38040F6FF71A047AB79137210462C
:1092300040F6FF71A047EB7993702B89938010461D
:1092400040F6FF71A047AB7A9372104640F6FF716B
:10925000A047EB7AD372104640F6FF71A047AB8966
:10926000938110468021A047EB89D38110464FF4AB
:109270008071A0472B8A138210464FF40071A047DB
:109280006B8A538210464FF48061A0472B7DD370C8
:109290006B88138010460321A047002038BD00BF13
:1092A000399100005591000002F900002DE9F843C2
:1092B000224B044608460D469847214B0146284656
:1092C00098470646002830D11E4B65619D422FD13C
:1092D0001D4B1C601D49DFF88090DFF880801C4F1B
:1092E0002846884700B2C8476069884700B2C0472F
:1092F000606988470125420900F01F0305FA03F35E
:10930000284447F8223000B2C8476069884728449B
:1093100000B2C04760698847284480B2430900F022
:109320001F0005FA00F047F823003046BDE8F88337
:10933000084B9D4204BF044B5C60CBE76D9100007D
:10934000E5910000001C0043EC070020CF910000D5
:1093500000E100E000200043F190000019910000BE
:109360004069014B184700BF419100004369DB8809
:10937000C3F3C103032B0CBF012002207047000080
:109380004069037D43F00203037540F6FF71014B12
:10939000184700BF39910000012A416904D1042215
:1093A0003BB981F82C207047022AF9D01AB9012262
:1093B000F6E781F82D207047014B1868014B1847DC
:1093C000EC07002081910000004B1847B993000082
:1093D000014B5868014B1847EC07002081910000B1
:1093E000004B1847D19300004309012200F01F00F1
:1093F00002FA00F04033024A42F82300704700BFEF
:1094000000E100E07823584370470000014B5843C7
:10941000704700BFC0D4010010B50E4A0E4C13882F
:109420009BB243F4A06313800C4B98470C4B9847B6
:109430000C4B98470420A0470B4B984740F6FB7015
:10944000A0470A4A136943F400731361BDE8104052
:10945000074B184700400041299700000D98000075
:109460002198000081970000259800000008004026
:10947000C594000010B4114B114C198C01F01F0160
:1094800003EB01130C224A4393F84E10C90704EB77
:10949000020006D5012283F84E2043685DF8044B94
:1094A000184793F84E10890704D5022183F84E100F
:1094B000A358F3E75DF8044B704700BF00A00041DC
:1094C000F407002070B52F4B1A8822F00202120414
:1094D000120C1A805A8822F47C521204120C5A8000
:1094E0001A8892B242F001021A801A8812F0010220
:1094F000FBD14FF470611980597B234801F0FE01C4
:1095000041F00101597321495A6158639963134627
:109510001F4902461D461C0104F1824000F520400F
:109520000E6806640E7980F845604E7980F84660D2
:1095300001331019CE881653202BC56001F10801A4
:10954000E9D11F22012053099B0003F1604302F07F
:109550001F0103F5614300FA01F1C3F88010BFF366
:109560004F8FBFF36F8F0132242AC3F88011196027
:10957000E9D1044A13889BB243F002031380002010
:1095800070BD00BF00A0004190790020907B0020BA
:1095900030F9000039B9084B0001022118443AB9EA
:1095A00080F84C107047012904D1034B0001F5E706
:1095B00080F84D10704700BF00A00041024B03EB44
:1095C000001081600020704790790020024B03EB6F
:1095D000001041600020704790790020054A00018A
:1095E000135A9BB223F4806343EA812189B211525A
:1095F000002070479079002070B50F4B00011D18B6
:10960000AE681A5A1C5AC2F30122240542BF01FA5D
:1096100002F4A419AC601C1865681E5A760548BF90
:1096200001FA02F2034448BF521989B248BF62608E
:109630005980002070BD00BF9079002010B5020154
:109640000B4CA35A9BB243F00103A35202F1824395
:1096500003F520431A6C42F002021A6431B1054A44
:109660000123116903FA00F008431061002010BDC6
:109670009079002000A00041034B01EB410103EB76
:109680008101016000207047F4070020004B18475B
:1096900075940000004B184775940000004B184764
:1096A00075940000004B184775940000004B184754
:1096B00075940000016000207047000010B5124A48
:1096C000124C0023185D03F148010133432B42F88B
:1096D0002100F7D10E48002200F14004D30003F12D
:1096E000824303F5604330F81210196214F8221017
:1096F00083F825100132C943C9B2202A83F8241007
:10970000ECD1002010BD00BF00E0004130FA0000A5
:1097100074FA0000034943F6FD734A681A42FCD10B
:10972000704700BF001C004010B5C40704D50E4BA5
:109730000E4A1A620E4B9847810704D50A4B0D4A10
:109740005A620B4B9847420704D5074B0A4A9A6264
:10975000074B9847030706D5034B084ADA62BDE872
:109760001040034B184710BD001C004008010100C9
:109770001597000006010100060110000401010018
:10978000014B01225A7170470008004001610B88AB
:1097900023F0C0039B049B0C0B800D4B18600D4BFA
:1097A0004FF00051C3F88010BFF34F8FBFF36F8F9E
:1097B0004FF08042C3F88020BFF34F8FBFF36F8F0D
:1097C0000020C3F88011C3F8802119601A60704727
:1097D0007409002000E100E0094B186803691A8A47
:1097E000D20704D501221A82036843B118471A8AA6
:1097F00092B222B140F25E221A824368F5E77047C6
:1098000074090020004B1847D9970000034BDA6910
:1098100002F47C52DA6101221A747047001400408D
:10982000704700003B4B1A6A22F00F0242F004021C
:109830001A6243F6FD7259681142FCD15A6812F05F
:109840000402FBD1344B1A77344A9A6293F82C20E5
:1098500012F01002FAD183F820202F4A134692F812
:109860002C104907FBD40221117793F82C20920782
:10987000FBD45A6A5A62284B1A4693F82C100807F0
:10988000FBD4882183F8201092F82C305907FBD4A0
:10989000204B4221C3F88810272393641E4B1A469D
:1098A000196D11F0060FFBD14FF40061D96402214C
:1098B00083F84410136D9B07FCD492F82030164AAD
:1098C00013F0010F21D0136903F41063B3F5106F87
:1098D000F9D1114B5A6DD10702D45A6D9207F9D5BF
:1098E0000C4A11465368002BFCD1136A23F00F0376
:1098F00043F00803136243F6FD734A681A42FCD131
:10990000044A53685B07FCD470471369D805FCD53B
:10991000DFE700BF001C0040001000400000010411
:10992000836803491A6811605B6803B11847704780
:1099300002000001004B18472199000083689B68D2
:1099400003B1184770470000F8B50546012345F8F4
:109950000C1B0B600C4B4B6004460C4B8B600C4F8C
:109960000C4E1F212846B847E3680B4A9C601A60DA
:109970005E601E212846B847E368084A9C6083E879
:1099800044000020F8BD00BF11000006003B240089
:10999000799600003D99000035990000219900005A
:1099A00007B50C4A9378DBB20193019B990707D561
:1099B000094B1B6823B15068984703B05DF804FB5E
:1099C000019BDB07F9D5044B5B68002BF5D0014AFE
:1099D000F1E700BF00000241907D002003690B42C7
:1099E000FCD17047C068038823F002031B041B0CE2
:1099F000038048F20301014B184700BFDD990000C6
:109A0000C068024B01626021184700BFDD99000069
:109A1000C26808B510466021014B9847106A08BD1E
:109A2000DD990000C26808B5104648F20301034BF7
:109A300098471088C0F3400008BD00BFDD990000C2
:109A4000704700000C4B10B54FF400620446C0682C
:109A50001A60002383610821084A9047E0680821C2
:109A60009047E06803889BB243F00203038048F20A
:109A70000301BDE81040104700E100E0DD9900005F
:109A8000074B4FF40062C3F88020BFF34F8FBFF342
:109A90006F8FC0680123038048F20301014B184710
:109AA00000E100E0DD990000024638B50125D160F3
:109AB0000D4C0D80084648F20301A0472946D068A6
:109AC000A047D06848F28003038048F20301A04712
:109AD000D06860210562A047D3684FF48071598136
