:10400000A0170120ED420000E9420000E942000053
:10401000E9420000E9420000E9420000000000001F
:10402000000000000000000000000000E942000065
:10403000E942000000000000E9420000E9420000FF
:10404000E9420000E9420000E9420000E9420000C4
:10405000E9420000E9420000E9420000E9420000B4
:10406000E9420000E9420000E94200005561000019
:10407000E9420000E9420000E9420000E942000094
:10408000E9420000E9420000E9420000E942000084
:10409000E9420000E9420000E9420000E942000074
:1040A000E9420000E9420000E9420000E942000064
:1040B000E9420000455F0000195F0000255E000036
:1040C0002D5E0000355E00003D5E0000455E000094
:1040D000E9420000E9420000E9420000E942000034
:1040E000E9420000E942000000000000000000007A
:1040F00000000000696000003969000031690000BB
:10410000296900001969000061690000596900000F
:10411000516900004169000089690000816900005F
:104120007969000069690000E9420000E942000085
:10413000E9420000E9420000B1690000A9690000FD
:10414000A1690000916900002D6A0000256A000045
:104150001D6A0000B9690000556A00004D6A000040
:10416000456A0000356A0000E9420000E9420000AB
:10417000E9420000E94200000000000000000000E9
:104180002D7B0000357B00003D7B0000457B00005F
:1041900000000000E9420000E9420000E94200009E
:1041A000E9420000E9420000E9420000E942000063
:1041B000E9420000E9420000E9420000E942000053
:1041C000E9420000E9420000E9420000E942000043
:1041D000E9420000E9420000E9420000E942000033
:1041E000E9420000E9420000E9420000E942000023
:1041F000E9420000E9420000E9420000E942000013
:10420000E9420000E9420000E9420000E942000002
:10421000E9420000E9420000815B0000715B0000A0
:10422000995B0000895B0000E9420000E942000060
:10423000E9420000E9420000E9420000E9420000D2
:10424000E9420000E9420000E9420000E9420000C2
:10425000E9420000E9420000E9420000E9420000B2
:10426000E942000010B5054C237833B9044B13B173
:104270000448AFF300800123237010BDE003002049
:1042800000000000989F00000C4B43B10C480D4902
:1042900010B5AFF300800C48036823B910BD0A487D
:1042A000036833B97047094B002BF7D0BDE81040C5
:1042B0001847064B002BF5D0184700BF0000000040
:1042C000989F0000E4030020989F00000000000079
:1042D00010B5034B9847034BBDE81040184700BF8B
:1042E0000D4A000099920000FEE7000008B5144A4C
:1042F000144B9A4218D1144B144A002193421CD3F8
:10430000134A144B22F07F029A60D3F8882042F4BB
:104310007002C3F88820BFF34F8FBFF36F8F0E4B2F
:1043200098470E4B9847FEE70D49043A8B42E2D27C
:1043300052F8040F43F8040BF8E743F8041BDDE7D9
:10434000989F000000000020E0030020A01700203C
:104350000040000000ED00E0A19200006186000036
:10436000D803002030B54A1CC4B2C0F34712164827
:1043700004F01F0300EBC21007D1184490F840303E
:1043800003F0FE0380F8403030BDC5185B0895F897
:10439000402002F0FE02184442F0010285F840205D
:1043A00090F8303014F0010F19BF03F00F0343EA07
:1043B000011101F00F0103F0F00314BFC9B219435A
:1043C00080F8301030BD00BF008000410122430959
:1043D000914200F01F0002FA00F011D002D302292E
:1043E0001FD07047DB0103F1824303F5004358609F
:1043F00082B242F08042000C9A6240F040400EE0EF
:10440000DB0182B203F1824303F5004342F08042B4
:1044100042F4003258609A62054A42EA10409862BB
:104420007047DB0103F1824303F500439860DFE747
:10443000000002C0F0B5144A144E136A144D154919
:10444000154F43F080031362144B85B04122C3F82B
:104450002021134B0193002401230093324623466D
:1044600002942846B847721C2146102328460D4D59
:10447000A847214607200C4B98470C490C4B0720B6
:1044800005B0BDE8F040184700080040FC030020DC
:1044900090110020001C0043294C0000001C00402B
:1044A00088120020754C0000CD4300000100070079
:1044B00065430000F0B5154A154E136A154D1649AF
:1044C000164F43F480731362154B85B04122C3F835
:1044D0002421144B019300240123009306F11102BF
:1044E000234602942846B84706F1120221461023BB
:1044F00028460D4DA847214642200C4B98470C49B1
:104500000C4B422005B0BDE8F040184700080040C1
:10451000FC0300204013002000200043294C000031
:10452000001C0040E8100020754C0000CD43000046
:104530000100420065430000044A054993690548AB
:1045400043F002039361044B184700BF000800408A
:1045500000200041E4100020CD4D0000024A136904
:1045600043F04003136170470008004010B5044B4E
:10457000984704490448054BBDE81040184700BF60
:104580005D45000000400041C81000203D4E000085
:10459000064B4122C3F89C204222C3F88C20044AD7
:1045A000536943F480535361704700BF001C0040BF
:1045B0000008004010B5054C05495120A04723468E
:1045C00004495020BDE81040184700BF6543000073
:1045D000030051000300500013B5074B074C9847E8
:1045E00000230093064A074907481023A047074BBA
:1045F00002B0BDE810401847914500001D52000070
:104600001E04002000300040BC110020B545000011
:10461000064B4122C3F8A0204222C3F88C20044A52
:10462000536943F400535361704700BF001C0040BE
:104630000008004010B5054C05495B20A047234603
:1046400004495C20BDE81040184700BF65430000E6
:1046500002005B0002005C0013B5074B074C984753
:1046600000230093064A074907481023A047074B39
:1046700002B0BDE810401847114600001D5200006E
:104680002E040020003400400C12002035460000AB
:10469000064B4122C3F8DC204222C3F88C20044A96
:1046A000936943F400739361704700BF001C00409E
:1046B0000008004010B5054C05493920A0472346A5
:1046C00004493820BDE81040184700BF654300008A
:1046D000030039000300380013B5074B074C984717
:1046E00000230093064A074907481023A047074BB9
:1046F00002B0BDE810401847914600001D5200006E
:104700003E0400200020014140110020B546000079
:10471000064B4122C3F808214222C3F88C20044AE8
:10472000136A43F001031362704700BF001C00408E
:104730000008004010B5054C05492820A047234635
:1047400004492920BDE81040184700BF6543000018
:10475000030028000300290013B5084B084C9847B4
:1047600000230093074A084810234FF08641A047D2
:10477000064B02B0BDE81040184700BF11470000CB
:104780001D5200004E040020A012002035470000FA
:1047900070B50B4C0B4D94F857300B4903F0FB03ED
:1047A00084F857301720A84794F85630074903F08B
:1047B000FB0384F8563016202B46BDE8704018479E
:1047C000008000416543000003001700030016004D
:1047D000064B4122C3F80C214222C3F88C20044A24
:1047E000136A43F002031362704700BF001C0040CD
:1047F0000008004010B5054B9847054B0549064891
:104800009847064BBDE81040184700BFD14700004D
:10481000E14E000000040043001100209147000019
:10482000064B4122C3F810214222C3F88C20044ACF
:10483000136A43F004031362704700BF001C00407A
:104840000008004010B5054C05494D20A0472346FF
:1048500004494C20BDE81040184700BF65430000E4
:1048600003004D0003004C0013B5074B074C98475D
:1048700000230093064A074907481023A047074B27
:1048800002B0BDE810401847214800001D5200004A
:104890005E04002000080043F0120020454800009C
:1048A00070B5134C134E144D4FF08043C4F8943040
:1048B00002213E20B04711493E20A8474FF0004357
:1048C000C4F8943002213F20B0470D493F20A8474B
:1048D00001211E20B04794F85E300A4903F0FB0323
:1048E00084F85E301E202B46BDE87040184700BF9C
:1048F00000800041CD4300006543000002003E00FF
:1049000002003F0002001E00064B4122C3F81421A2
:104910004222C3F88C20044A136A43F0080313624E
:10492000704700BF001C00400008004010B5054B58
:104930009847054B054906489847064BBDE8104087
:10494000184700BF09490000694F0000000C0043F0
:104950005C120020A14800000148024B184700BF2C
:1049600010E000E0D54D000070B50221114C124E50
:10497000124D1820B0474FF08073636194F858309F
:104980000F4903F0FB0384F858301820A847022190
:104990001920B0474FF00073636194F8593009490A
:1049A00003F0FB0384F8593019202B46BDE8704012
:1049B000184700BF00800041CD4300006543000060
:1049C0000700180007001900074B4122C3F8A82070
:1049D000A3F5A0531A6942F480621A619A6942F001
:1049E00001029A61704700BF001C004010B5044BE3
:1049F0009847044B9847044BBDE81040184700BF48
:104A0000C9490000E55400006949000070B5534BE6
:104A1000534C544D98472023636102210520A84739
:104A200094F8453003F0FE0384F845304FF400530A
:104A3000C4F8943002212D20A84794F8CD304FF4CB
:104A4000804603F0FE0384F8CD300221C4F8946060
:104A50002E20A84794F8CE3003F0FE0384F8CE3021
:104A600001212F20A84794F8CF3003F0FB0384F8EE
:104A7000CF3094F8CF3003F0FE0384F8CF3001211B
:104A80004B20A8474FF40062C4F8042194F84B313E
:104A900043F0040384F84B31C4F8182194F84B31E7
:104AA00003F0FE0384F84B310221C4F814614E2058
:104AB000A84794F84E3103F0FE0384F84E314FF4CA
:104AC0000023C4F8143102215320A84794F853312D
:104AD00003F0FE0384F853314FF48013C4F814310B
:104AE00002215420A84794F8543103F0FE0384F8BF
:104AF00054314FF4001302215520C4F81431A84753
:104B000094F8553103F0FE0384F85531164B98475D
:104B1000164B9847164B9847164B9847164A5369B9
:104B200043F400735361154B98471549154B0246E2
:104B300015489847154B9847154B9847154B98477C
:104B4000154B9847154B9847154B9847154B984769
:104B5000154B9847154BBDE870401847B55B0000F2
:104B600000800041CD43000035440000B544000002
:104B7000394500006D450000000800404F6100000D
:104B80000024004065500000AC100020D945000012
:104B900059460000D946000059470000F54700007B
:104BA000694800002D49000059490000ED49000006
:104BB000836903B118477047C36903B11847704749
:104BC0002DE9F14F036AD0F828805C5CDFF854903F
:104BD00004EB4404E40008EB040505F1040A06466E
:104BE0000F465046D1B29346C84730460C4B9847C3
:104BF000012806D94FEA1B215046C847AB8A01332A
:104C0000AB82AB8A0133AB8258F804302BB1394602
:104C1000304601B0BDE8F04F184701B0BDE8F08F55
:104C2000255B00005D58000070B50446FF2600209B
:104C3000C5B201305655C5B2AB42F9D284F8243022
:104C40009DF8103084F82530059BA362226220462F
:104C5000044B984728B9044BA360044B2360044BD2
:104C6000636070BD655A0000C14B0000B14B00008D
:104C7000B94B0000F8B50F46D0F820E011461EF8F9
:104C80000720FF2A05461AD190F824200020044668
:104C9000C6B2964216D995F82520A2421AD304EB43
:104CA0004406A86AF60030441A4604300B4B984775
:104CB00028B92B6ADC55AB6A1E44B082F8BD6FF090
:104CC0000C00F8BD1EF80660FF2E1CBF0134E4B2D4
:104CD0000130DDE76FF01B00F8BD00BF2358000076
:104CE00008B5024B9847002008BD00BF195B0000C3
:104CF000012A38B513D004D3022A12D06FF00C0069
:104D000038BD046A856A645C04EB440445F83430B9
:104D1000003318BF0123044CA047002038BD836135
:104D2000F6E7C361F4E700BF515B00002DE9F347EC
:104D300004461F46154BDFF864A00D469046984781
:104D4000236A5D5DA36A05EB450503EBC50501A874
:104D50000F4B2E1D98470F4B304698470E4B814600
:104D600001A898470024A145A2B201D0BC4206D1B7
:104D7000AB8AA0B29B1AAB8202B0BDE8F08708EB09
:104D800004013046D0470134EDE700BF255B000049
:104D9000B14D000083580000BF4D00003B5800009B
:104DA00008B5024B9847002008BD00BF395B0000E2
:104DB000EFF31083036072B6BFF35F8F7047BFF3EA
:104DC0005F8F036883F3108870470000004B18471B
:104DD0004D5E0000014B1860014B18477004002025
:104DE000696C0000054B10B51C68054B9847054BD6
:104DF00001462046BDE81040184700BF700400205F
:104E0000A15B00007D6C0000054B10B51C68054BD4
:104E10009847054B01462046BDE81040184700BFA3
:104E200070040020A95B00007D6C0000436903B1A1
:104E300018477047836903B11847704710B5044B92
:104E40000446984718B9034B2360034B636010BDB9
:104E5000CD5E00002D4E0000354E00001FB5838A48
:104E6000ADF804304FF40043ADF806300391054B24
:104E7000029201A9283814469847002808BF204606
:104E800004B010BD3D6800001FB5838AADF8043042
:104E900048F20103ADF806300391054B029201A9D7
:104EA000283814469847002808BF204604B010BD93
:104EB0003D6800004288D20502D4436B03B1184715
:104EC00070474288D20502D4836B03B118477047FC
:104ED0004288D20502D4036B03B118477047000023
:104EE00070B50C4B04469847054680B90A4BE362FF
:104EF0000A4BA3620A4A0B4E01212046B0470A4AD8
:104F000002212046B047094A29462046B047284694
:104F100070BD00BFD9670000894E00005D4E0000E3
:104F2000B54E0000FD680000C34E0000D14E0000E9
:104F3000036818474368184710B4044C1346A44646
:104F400000221C385DF8044B604700BF7D6B0000F9
:104F500010B4044C1346A4460A461C3800215DF8E0
:104F6000044B60477D6B000010B5054B044640F8CC
:104F7000041F984718B9034B6362034B236210BDAB
:104F80005D6A0000514F0000394F00000430014BB2
:104F9000184700BF116B00000430014B184700BFD9
:104FA0001D6B00002030086000207047F0B50568D8
:104FB0001DB90F4BBDE8F0401847D1F808E02C466A
:104FC0000026C2F1010C6368A768934295BFDB1904
:104FD00063449B1ADB19734507D22368264613B92D
:104FE0003046044BE6E71C46EDE7A542F8D1E0E782
:104FF000EF570000F75700002DE9F0470669037EE0
:1050000044690136DA070546066110D4037E9B0722
:105010000DD4DFF84880DFF8489000F1140724B180
:105020006368A268F31A934207D2BDE8F0872B7E2B
:1050300043F002032B76BDE8F0873846C047237C57
:10504000012B04D16660324621463846C847D5F860
:1050500014A0E368204698475446E0E7175800003C
:10506000AD4F000010B5044B044698470020034B99
:105070002061236010BD00BFAD600000F94F00004B
:1050800038B5064B05469847044620B92846044BD8
:105090009847204638BD6FF0100038BD31610000E0
:1050A000F5600000F7B5037E00F1140643F001033C
:1050B00003760446154B30460F469847054638B1EF
:1050C000237E03F0FE0323766FF0110003B0F0BDE2
:1050D00022690F4B7A60304639469847237E03F0A9
:1050E000FE032376207E10F00200EFD001A8094BCA
:1050F0009847237E03F0FD0323762046064B98470E
:1051000001A8064B98472846E0E700BFE15700009A
:10511000AD4F0000B14D00004D610000BF4D0000DB
:10512000034600229A62DB69083803B118477047CA
:10513000034600229A625B6A083803B11847704739
:1051400070B50446054BA0F108052C309847236A3A
:105150001BB12846BDE87040184770BD5D5800007F
:1051600010B5B0F84C301446B0F844209A420CD137
:105170000023A0F8443001238164A0F84C4003636D
:105180000830034B9847204610BD6FF01B0010BD40
:1051900097670000838FB0F844209A4210B5044608
:1051A0000AD0026C591C8187D15C044B9847044B90
:1051B0002046BDE810401847024BFAE7916700000F
:1051C000976700009F6700002DE9F74305460F4BE6
:1051D000DFF8449001A834358846164698470C4BB2
:1051E000284698470B4B074601A898470024A7423A
:1051F00001D0B44203D1A0B203B0BDE8F08308EB04
:1052000004012846C8470134F1E700BFB14D000052
:1052100083580000BF4D00003B58000038B50446DD
:105220000D46343011461A460C4B984790B9294622
:1052300004F108000A4B984770B90A4B63600A4BA7
:1052400023600A4BA3600A4BE3600A4B23610A4BBD
:10525000636138BD6FF00C0038BD00BF23580000FB
:1052600019670000C951000061510000955100000C
:1052700041510000215100003151000008B50830B3
:10528000014B9847002008BD7D67000008600020A2
:1052900070470000012908B50FD004D3022912D0AD
:1052A0006FF00C0008BD8262003218BF012201219C
:1052B0000830084B9847002008BD4262003218BFF2
:1052C00001220221F4E7C262003218BF0122032149
:1052D000EEE700BFA767000008B53430024B9847DF
:1052E000003018BF012008BD835800000A4970B57E
:1052F000002300F00F065D014C195AB26478844215
:1053000008D06D5C0DB9A64204D001330D2BF2D14B
:105310004FF0FF32104670BD74040020002070472B
:1053200070B5094B04460D469847084B03EB4010F7
:105330008378032B05D1836929462046BDE8704058
:105340001847002070BD00BFED520000740400201B
:105350002DE9F0433C4B3D4C85B080460F469146CD
:10536000984703464601002F49D1A519A15DEF706A
:1053700000293BD1AA786878EE69032A4FF00C0E19
:105380004FF020022BD112FB03E22244012195F9B8
:105390000C70B0476B7878B10522002FAA704FF0DF
:1053A0000202B4BF184643F08000EA700121284B86
:1053B000984705B0BDE8F083002FACBF43F08003F1
:1053C00003F00F0304228DF80C30012301900290AA
:1053D0008DF80D30AA7001A81E4B9847E9E712FB23
:1053E00003E22244B0470223AB70E2E70123AB7033
:1053F00034444A46E369E17840469847D9E7012FAB
:1054000004EB06030BD1A15D0222DA7021B99A7078
:1054100040460F4B9847EBE705229A70E8E7022FCA
:1054200007D10422DA70A25D0AB99F70C1E7012298
:10543000F3E7032F09BF002206229A70052218BF46
:105440009A70DA70D4E700BFED52000074040020B7
:105450009D780000D57900002DE9F0471D4B1E4EC8
:105460001E4C0546984720270C2317FB003737446E
:105470008146394628461A4B9847C0B2082865F03D
:105480007F0809D001212846A04701215FFA88F052
:105490002346BDE8F047184706EB49160021284689
:1054A0005FFA88F8A0474FF0010900214046A04765
:1054B00086F80290736939462846984738B905231B
:1054C0004946B3702846A04749464046E0E7BDE854
:1054D000F08700BFED520000740400209D780000AA
:1054E0008179000010B5114B984700281CDB4FF460
:1054F000D07200210E4B0F4898470E4B0E4A03F511
:10550000D071FF2058705A619A61DA6120338B4262
:10551000F8D10A4C0A490020A0470A490120A047B7
:1055200002200949A047002010BD00BF7974000087
:105530000F930000740400201D530000017B000045
:10554000595400002153000051530000004B1847EC
:10555000DD7A0000004B184761750000004B1847CA
:10556000BD750000004B1847CF750000F8B5104C12
:1055700006460D461746A047002813DAFF20A0472D
:10558000041E12DB3A46294630460A4B984700284B
:105590000DDB094B60011A1805F003051D54567008
:1055A0000020F8BD6FF01300F8BD6FF01400F8BDD7
:1055B000ED520000DD750000740400200021024659
:1055C000014B0846184700BF6D55000038B5074B22
:1055D00005469847041E07DB2846054B98470548B3
:1055E00000EB4410FF23437038BD00BFED520000B4
:1055F0009D7600007404002038B50C4B0546984792
:10560000002810DB40010A4C235C0444002B0CBF33
:1056100002230123A3702846064B9847002804DA8A
:105620000023A37038BD6FF0110038BDED520000AB
:1056300074040020217700002DE9F04F90F808A0B5
:10564000364B074687B050469847B0F1000897F8A8
:1056500009907E685DDBDFF8D4B0314B4FEA481823
:105660000BEB080502A89847AB788DF807309DF83A
:1056700007002C4BC4B2012C1CD10322AA7002A833
:1056800098471BF808304BB319F100034FEADA14BE
:1056900018BF012339683A7A03910496002C35D05B
:1056A00042F080028DF8153003A81F4B8DF81420AE
:1056B00098470DE002A898479DF80730DBB2052B0C
:1056C0002AD0062B07D0002B0CBF6FF01200012050
:1056D00007B0BDE8F08F6FF00F00F9E7E97CAA7C16
:1056E00002EB012292B22AB90423AB70164623467C
:1056F0001C46CFE795F90C10964228BF16460029A4
:10570000F6DAB24294BF00230123C3E702F00F028E
:10571000C8E76FF01100DBE70220D9E7ED52000087
:10572000B14D0000BF4D0000D57900007404002089
:105730002DE9F04105460C46D9B9134B9847071E91
:105740001EDB02212846114EB047D8B1214628461B
:10575000B047002816DB0E4800EB47100321012359
:105760008370C170C3692246284698472046BDE829
:10577000F0810129054B18BF0221BDE8F04118470F
:105780006FF01100BDE8F081ED5200009D7800003F
:105790007404002038B50F4B14460D4698470E4A46
:1057A000002C08BF1446002813DB012D08D002D3BB
:1057B000022D0AD038BD094B03EB4010446138BDBF
:1057C000064B03EB4010846138BD044B03EB4010E3
:1057D000C46138BDED5200001D5300007404002068
:1057E000006800B970478842FAD101207047036809
:1057F0000B600160704703680B60016070470368CD
:105800001BB901600B60704713461A68002AFBD170
:1058100019600A60704703680BB11A680260184685
:105820007047531E1A4001BF43608260C26001602E
:105830000CBF10466FF00C0070478368C2689A4234
:1058400009D0426813400268D35C0B70836801334F
:105850008360002070476FF009007047C36842689A
:1058600013400268D154C36881684268591A914252
:1058700088BF9A1A03F1010388BF8260C3600020C9
:105880007047C2688068101A70470000044B19689E
:10589000024609B903491960186802441A60704742
:1058A00014060020A017012000280DDB4309012267
:1058B00000F01F0002FA00F02033044A42F82300EF
:1058C000BFF34F8FBFF36F8F704700BF00E100E061
:1058D000002809DB4309012200F01F0002FA00F052
:1058E0006033024A42F82300704700BF00E100E045
:1058F000036B0B42FCD1704703889BB243F0020359
:1059000003800321004B1847F1580000038823F05F
:1059100002031B041B0C03800321014B184700BF2B
:10592000F158000000F13D40A0F5E050C0F38720A1
:10593000431E58425841704730B4426992F82E10C5
:1059400092F82D300B4013F0010509D0012382F8A5
:105950002E30B2F84020836892B2002130BC184744
:1059600013F0020106D0022382F82E304368294644
:1059700030BC18475B0704D5042382F82E30036837
:10598000F6E730BC704700F13D40A0F5E050800ADA
:105990004000763000F0FE007047000038B5036B21
:1059A0002D4C13F0010F02460D460DD10321A047E7
:1059B00003889B0703D5294B98470221A047012361
:1059C000138003211046A04710460121A047244B15
:1059D000162101FB05351046AB88D38040F6FF71D8
:1059E000A047AB791372104640F6FF71A047EB79E0
:1059F00093702B899380104640F6FF71A047AB7AD5
:105A00009372104640F6FF71A047EB7AD3721046AE
:105A100040F6FF71A047AB89938110468021A047D3
:105A2000EB89D38110464FF48071A0472B8A1382F3
:105A300010464FF40071A0476B8A538210464FF412
:105A40008061A0472B7DD3706B88138010460321A3
:105A5000A047002038BD00BFF15800000D590000DC
:105A6000029C00002DE9F843224B044608460D46EF
:105A70009847214B0146284698470646002830D1D2
:105A80001E4B65619D422FD11D4B1C601D49DFF8E7
:105A90008090DFF880801C4F2846884700B2C847B6
:105AA0006069884700B2C04760698847012542099C
:105AB00000F01F0305FA03F3284447F8223000B230
:105AC000C84760698847284400B2C0476069884772
:105AD000284480B2430900F01F0005FA00F047F89F
:105AE00023003046BDE8F883084B9D4204BF044BB9
:105AF0005C60CBE7255900009D590000001C004365
:105B0000180600208759000000E100E00020004353
:105B1000A9580000D15800004069014B184700BF48
:105B2000F95800004369DB88C3F3C103032B0CBFA2
:105B300001200220704700004069037D43F002030A
:105B4000037540F6FF71014B184700BFF158000084
:105B5000012A416904D104223BB981F82C20704705
:105B6000022AF9D01AB90122F6E781F82D207047F0
:105B7000014B1868014B18471806002039590000DE
:105B8000004B1847715B0000014B5868014B1847E8
:105B90001806002039590000004B1847895B0000A7
:105BA0007823584370470000014B5843704700BFAB
:105BB000C0D4010010B50E4A0E4C13889BB243F4BA
:105BC000A06313800C4B98470C4B98470C4B98479D
:105BD0000820A0470B4B984740F6F770A0470A4AA9
:105BE000136943F400731361BDE81040074B184775
:105BF00000400041695E00004D5F00006D5F0000E5
:105C0000C15E0000715F000000080040615C0000A0
:105C100010B4114B114C198C01F01F0103EB01134F
:105C20000C224A4393F84E10C90704EB020006D534
:105C3000012283F84E2043685DF8044B184793F81F
:105C40004E10890704D5022183F84E10A358F3E7BC
:105C50005DF8044B704700BF00A000412006002003
:105C600070B52E4B1A8822F002021204120C1A8010
:105C70005A8822F47C521204120C5A801A8892B26A
:105C800042F001021A801A8812F00102FBD14FF48F
:105C900070611980597B224801F0FE015973214936
:105CA0005A615863996313461F4902461D461C01F9
:105CB00004F1824000F520400E6806640E7980F8F9
:105CC00045604E7980F8466001331019CE8816532E
:105CD000202BC56001F10801E9D11F2201205309E1
:105CE0009B0003F1604302F01F0103F5614300FADA
:105CF00001F1C3F88010BFF34F8FBFF36F8F0132F4
:105D0000242AC3F880111960E9D1044A13889BB290
:105D100043F002031380002070BD00BF00A00041CB
:105D20007013002070150020309C000039B9084B1A
:105D30000001022118443AB980F84C10704701293B
:105D400004D1034B0001F5E780F84D10704700BF08
:105D500000A00041024B03EB00108160002070475F
:105D600070130020024B03EB0010416000207047CD
:105D700070130020054A0001135A9BB223F480637C
:105D800043EA812189B2115200207047701300202C
:105D900070B50F4B00011D18AE681A5A1C5AC2F399
:105DA0000122240542BF01FA02F4A419AC601C18B8
:105DB00065681E5A760548BF01FA02F2034448BFDF
:105DC000521989B248BF62605980002070BD00BF7F
:105DD0007013002010B502010B4CA35A9BB243F084
:105DE0000103A35202F1824303F520431A6C42F0EF
:105DF00002021A6431B1054A0123116903FA00F065
:105E000008431061002010BD7013002000A0004165
:105E1000034B01EB410103EB81010160002070475E
:105E200020060020004B1847115C0000004B18476B
:105E3000115C0000004B1847115C0000004B184734
:105E4000115C0000004B1847115C0000016000204D
:105E500070470000034943F6FD734A681A42FCD1BB
:105E6000704700BF001C004010B5C40704D50E4B9E
:105E70000E4A1A620E4B9847810704D50A4B0D4A09
:105E80005A620B4B9847420704D5074B0A4A9A625D
:105E9000074B9847030706D5034B084ADA62BDE86B
:105EA0001040034B184710BD001C004007010100C3
:105EB000555E000006010100060110000501010009
:105EC000014B01225A7170470008004001610B88A4
:105ED00023F0C0039B049B0C0B800D4B18600D4BF3
:105EE0004FF00051C3F88010BFF34F8FBFF36F8F97
:105EF0004FF08042C3F88020BFF34F8FBFF36F8F06
:105F00000020C3F88011C3F8802119601A6070471F
:105F1000A007002000E100E0094B186803691A8A15
:105F2000D20704D501221A82036843B118471A8A9E
:105F300092B222B140F25E221A824368F5E77047BE
:105F4000A0070020004B1847195F0000064B42F2E3
:105F50008E329A8200229A75DA75DA6902F47C52DE
:105F6000DA6101221A747047001400407047000083
:105F7000394B1A6A22F00F0242F004021A6243F609
:105F8000FD7259681142FCD15A6812F00402FBD12B
:105F9000324B1A77324A9A6293F82C2012F0100290
:105FA000FAD183F820202D4A134692F82C10490785
:105FB000FBD40221117793F82C209207FBD45A6A64
:105FC0005A62264B1A4693F82C100807FBD48021FE
:105FD00083F8201092F82C305907FBD4214B5363DF
:105FE0001E4B1A46D96B11F0060FFBD14FF402611C
:105FF0009963022183F83010D36B9B07FCD492F88D
:106000002030164A13F0010F21D0136903F41063F6
:10601000B3F5106FF9D1114B1A6CD10702D41A6C79
:106020009207F9D50C4A11465368002BFCD1136A2C
:1060300023F00F0343F00703136243F6FD734A682E
:106040001A42FCD1044A53685B07FCD470471369B9
:10605000D805FCD5DFE700BF001C00400010004061
:10606000000001044E0E0D0007B50C4A9378DBB218
:106070000193019B990707D5094B1B6823B1506811
:10608000984703B05DF804FB019BDB07F9D5044B8F
:106090005B68002BF5D0014AF1E700BF0000024128
:1060A0007017002003690B42FCD17047024638B5D7
:1060B0000125D1600D4C0D80084648F20301A04730
:1060C0002946D068A047D06848F28003038048F290
:1060D0000301A047D06860210562A047D3684FF450
:1060E00080715981024B00201A6038BDA560000004
:1060F000A40700200C4B10B54FF400620446C068A2
:106100001A60002383610821084A9047E06808214B
:106110009047E06803889BB243F00203038048F293
:106120000301BDE81040104700E100E0A560000059
:10613000C26808B5104648F20301034B984710881F
:10614000C0F3400008BD00BFA560000070470020FC
:1061500070470000074B10B51C68E3689B89DB059E
:1061600007D523680BB120469847E3684FF4807247
:106170009A8110BDA4070020002808DB42090123F2
:1061800000F01F0003FA00F0014B43F822007047B3
:1061900000E100E000280DDB4309012200F01F00B0
:1061A00002FA00F02033044A42F82300BFF34F8F75
:1061B000BFF36F8F704700BF00E100E0002809DBEC
:1061C0004309012200F01F0002FA00F06033024A86
:1061D00042F82300704700BF00E100E0C3690B42B2
:1061E000FCD17047C3690B42FCD17047C3690B42B5
:1061F000FCD17047036823F0020303600321014BC5
:10620000184700BFDD610000036823F0020303604C
:106210000321014B184700BFE5610000036823F02C
:10622000020303600321014B184700BFED6100002A
:1062300070B50B4D06460FCD88B06C460FC495E87F
:106240000F0084E80F0000205DF82030B34202D137
:10625000C0B208B070BD01300828F5D10020F8E7C1
:10626000309D000010B58469227ED107034608D511
:10627000A27DD20705D5012222750368BDE8104032
:106280001847227E900709D5A27D910706D50222E4
:1062900022759A681846BDE810401047227E5207C2
:1062A0000DD5628B02F0370212B1FF23638310BD5C
:1062B000A16A5A68C9B21846BDE810401047227E4C
:1062C000D209F4D080222276DA6818469047638B90
:1062D0009BB2EBE7114B984207D1114B1960114B60
:1062E000984204BF0E4B596170470F4B984202D140
:1062F0000B4B5960F3E70D4B984202D1084B996064
:106300007047B0F1864F02D1054BD9607047084BFA
:106310009842E4D1024B1961704700BF0030004041
:10632000A80700200008004300340040002001417D
:106330000004004308B5034B9847053818BF4FF0D9
:10634000FF3008BD3162000008B5034B984780005C
:106350002E3000F0FE0008BD3162000008B5C269B1
:1063600012F0010208D1036843F002030360032125
:10637000034B9847104608BD6FF0030008BD00BFEF
:10638000E561000008B5034B98470728024818BF8D
:10639000002008BD31620000509D000008B5034B8D
:1063A000984707288CBF0020012008BD31620000FB
:1063B00083689B6803B11847704783685B6803B1C3
:1063C000184770478368DB6803B1184770470000BF
:1063D000436843F4403343600421014B184700BF36
:1063E000DD6100002DE9F0410D46574ED0F80080E8
:1063F00004210446B047438B15F0010F9BB237468A
:1064000064D0990717D501210176518889B241F4EA
:1064100080515180518821F48071090413F0010FDB
:106420004FEA1141518014BF6FF004056FF003056E
:106430002846BDE8F08113F0040515D05368002B01
:10644000C1BF53889BB243F48053538053881F04C9
:1064500001D53E4B9847538823F480731B041B0CD3
:1064600053806FF00105E3E7538813F4806715D07C
:1064700013880421DB0903F00607B047436A03F4DD
:10648000804343F0F1033B4343620421B047538808
:1064900023F480631B041B0C5380C9E7556845B97E
:1064A00053881E0401D5294B9847538823F48073E1
:1064B000F0E793681B7883620421B0479368013347
:1064C00093605368013B53600025B1E715F0020566
:1064D000AED05168002933D0580731D40139C8F300
:1064E000C060516041B958B9636843F48023636068
:1064F00004212046B84703E0012901D10028F3D147
:10650000536893B953881B0409D5636823F48073D7
:10651000636020460421B84720460C4B98475388B7
:1065200023F480731B041B0C538095686B1C9360D1
:1065300004212046B847A36A2B7002232376C3E7C1
:10654000022323768DE700BFDD610000D1630000E8
:1065500038B50B680C4D23F481730C4623F001030E
:1065600003600321A847636823F4383323F41073CE
:1065700043F4003343601721A847237B0373637BF5
:1065800080F8303038BD00BFE56100002DE9F041F2
:106590000C46264B264E074608469847E369254A8F
:1065A00013F0010F5FFA80F817D1182303FB08637B
:1065B000032120469D6B904723689B0705F01C052F
:1065C00005D520461C4B984702212046904745F0B0
:1065D0000105256003212046904720460121904770
:1065E000182303FB08662046B56B256003219047FE
:1065F000F36B6360204604219047C5F30165336C5B
:10660000E360BD81636A012D23F4804394BF0025BC
:10661000012543EA85352046656204219047B6F896
:106620004630FB810020BDE8F08100BF35630000EB
:10663000309D0000DD610000F56100002DE9F041B2
:10664000314B04469847054648B1012807D0022837
:1066500005D0042856D0062814BF00250425E36978
:106660002A4F2B4E13F0010F17D1182303FB05738C
:1066700003211A6D204602F01C02B04723689B07D5
:1066800005D52046234B984702212046B04742F0CB
:106690000102226003212046B04720460121B04775
:1066A000182202FB05722046D2F85080C4F8008000
:1066B0000321B047536D63601F212046B047936D9F
:1066C000A36018F4C04F1DBFA389B2F85C1092F804
:1066D0005E20B2F85C301EBF61F30C03A381A38976
:1066E0004FF0180000FB057018BF62F34F33A38111
:1066F00090F85F30A37390F8603084F83030002059
:10670000BDE8F0810325AAE731620000309D00005A
:10671000ED6100001D6200002DE9F8430646114BB3
:1067200008460C4698470546C8B9B461314620462C
:106730000D4BDFF844800D4F0D4E984720460D4B12
:1067400098472C46814609EB0401C9B20846C04768
:106750000846B84701340846B047042CF3D1284610
:10676000BDE8F8833D660000D5620000BD61000011
:106770007961000049630000956100008069036849
:1067800043F0020303600321004B1847ED61000052
:10679000836999627047836901229A75704783699A
:1067A00002229A75704711F0FD0F09D18369022109
:1067B000012012B918751975704798759975704749
:1067C000012904D183690421002AF7D1F3E70329C1
:1067D000F5D183698021F7E72DE9F8430646114B8F
:1067E00031610C4698470546C0B9314620460E4BEC
:1067F000DFF844800D4F0E4E984720460D4B9847CA
:106800002C46814609EB0401C9B20846C047084638
:10681000B84701340846B047042CF3D12846BDE8F8
:10682000F88300BF8D650000D5620000BD610000E7
:10683000796100004963000095610000F8B50446E5
:106840004868002856D06388D80551D44B882A4E12
:106850009BB243F480734B8007C984E8070020692A
:10686000436843F4807343600421B047626825693C
:10687000012A2B6829D11A0127D56B6843F480239C
:106880006B6004212846B047228812F480674FEAE3
:1068900042021ED06388DB0741BF63889BB243F48A
:1068A0008063638004212846B0476B6A22F00102AE
:1068B000520503F48043520D43F4004313436B62CB
:1068C00028460421B0470020F8BD6B6823F48023DC
:1068D000D6E7042128466488B047A4B26B6AD2B2D6
:1068E00004F00104224303F480431A436A62E7E799
:1068F0006FF00300F8BD00BFDD610000012906D084
:1069000003D3022905D0002070474261FBE7826172
:10691000F9E7C261F7E70000014B1868014B18471F
:10692000A807002065620000004B184719690000A5
:10693000004B184719690000004B184719690000FF
:10694000014B5868014B1847A807002065620000FA
:10695000004B184741690000004B1847416900008F
:10696000004B184741690000014B9868014B1847DC
:10697000A807002065620000004B18476969000005
:10698000004B184769690000004B1847696900000F
:10699000014BD868014B1847A8070020656200002A
:1069A000004B184791690000004B1847916900009F
:1069B000004B184791690000164B70B51C6920699F
:1069C000057EEDB2290613D429462246124B98477C
:1069D000014670B9EA0705D5A3691BB12046BDE899
:1069E00070401847AB0702D5E369002BF6D170BDA4
:1069F0000021638823F480731B041B0C638063698C
:106A0000002BF4D019B12046BDE8704018476FF054
:106A10000401F8E7A8070020E5630000004B1847D1
:106A2000B9690000004B1847B9690000004B1847CE
:106A3000B9690000014B5869014B1847A8070020AD
:106A400065620000004B1847356A0000004B18478C
:106A5000356A0000004B1847356A0000F8B5054656
:106A6000224B08460C469847074600283AD0E3696F
:106A70001F4E13F0010F14D102680321204602F0CB
:106A80001C02B04723689B0705D52046194B984741
:106A900002212046B04742F0010222600321204635
:106AA000B04720460121B0472E46394646F8184BDC
:106AB0002046114B114F9847114B204698470146ED
:106AC0003046B847AB690F4A0F4C9D601A605C6056
:106AD00000213046B847AB690C4A9D6083E814003A
:106AE0000020F8BD6FF00C00F8BD00BF856300000A
:106AF000E56100000962000051650000115E0000C0
:106B00009D630000B1630000C5630000BB6300002B
:106B10000068014B184700BF5D630000012970B594
:106B200014460DD002D3022913D070BD426000215B
:106B3000003218BF012208460E4BBDE870401847CE
:106B400082600D4B00689847221C18BF012200216B
:106B5000F2E7C260084B0068064D9847003418BF42
:106B6000012422460121A8472246012100202B466C
:106B7000E3E700BF2D5D00009D6300002DE9F74FA6
:106B8000D0F800B0009205462F4ADFF8D4A0DFF815
:106B9000D4902E4F584698460C4690472C4A019068
:106BA00058469047009BDBF81C200646002B30D04F
:106BB000520709D4DBF80420264B42F40032CBF80C
:106BC0000420172158469847296830462831D04775
:106BD00000993046C84741463046B8470021304604
:106BE0001D4B98471D4E0CB321460020D047296805
:106BF00000202831C84701210020B047414600202D
:106C0000B84700210846144B9847002003B0BDE860
:106C1000F08F5307E6D4DBF804200E4B22F4003249
:106C2000CBF80420172158469847DBE70199204606
:106C30000E31D047296820462831C84721462046D2
:106C4000B04741462046DBE785630000915D0000C8
:106C50009D630000E5610000D55D0000755D0000EA
:106C6000655D0000555D0000034B6FF07F425A6088
:106C700005221A60704700BF10E000E00B0E0C4ABE
:106C800030B5D8B26FF07F440138C0B2FF2808D1C8
:106C9000A3EB03631944516091601368DB03FCD5D7
:106CA00030BD546094601568ED03FCD5ECE700BF7F
:106CB00010E000E000207047074B93F82020D10738
:106CC00006D51A6902F41062B2F5106FF9D1704757
:106CD0001A69D205FCD570470010004010B109B107
:106CE0000230C0B2142300FB0330014B184470473C
:106CF000C007002030B4C17C857C01F0070305F09B
:106D00000F02012B4FEA421402F108030AD05A0184
:106D100002F1824204F182431021D17183F80811FB
:106D200030BC704711F0400F0BD052016FF3861149
:106D300002F18242C174802182F80411402182F85C
:106D40000511C27C6FF3C302C2740A4A5B011119B8
:106D5000002003F1824381F83A0281F84A026F2150
:106D6000D97104F18243284683F80811936830BC36
:106D7000184700BFC00700200246807C202303FA8A
:106D800001F100F00F035B0103F18243C9B283F804
:106D90000811024B92681B6901211847C0070020A7
:106DA0000246807CFF280AD0D37C13F0400F06D027
:106DB0006FF38613D374024B92681B6918477047B0
:106DC000C007002077B4837C25248DF80440FF2B76
:106DD0004FF04A048DF8054021D0C47C64061ED5CE
:106DE00003F00F0303F10804650105F1824599B131
:106DF00080262E7102AD0D4464015B0104F18244D2
:106E000003F1824315F8041CE17183F80811054B66
:106E1000114603B070BC184740266E71EAE703B014
:106E200070BC7047A16D0000F3B4867C042306F0AB
:106E30000F068DF8043008238DF80530F3185A0139
:106E400002F182427501127839B3C2F302122E4C5C
:106E500005EB01152544022AAC7A02AA02EB0107D0
:106E6000E4B24FEA46121BD114F0010F18D0AC7AED
:106E70005B016FF3000402F1824203F18243AC72C2
:106E8000003117F8044CDC7118BF012182F8084169
:106E900004221E4B02B0F0BC184702F00702D6E7EE
:106EA00014F002041BD0AC7AC67C5B016FF3410482
:106EB00003F18243AC7217F8044CDC7102F1824298
:106EC00006F00703012B82F8084119D1730617D584
:106ED000C37CDB09994213D000221946D9E70C483C
:106EE00001EB460100EB01115B0103F1824302F16A
:106EF000824281F83A4217F8041CD97182F80811CD
:106F000002B0F0BC704700BFF0090020C56D000062
:106F1000C00700202DE9F041094C0A4F04F5077520
:106F2000FF2603212046B8470021A674E1741434DB
:106F3000AC42F6D160220448044BBDE8F04118474A
:106F4000D4070020A16D0000F00900200F9300007D
:106F50002DE9F0470446807C894600F00F0800299F
:106F60005AD04C4B03EB48135E69C6F30D06B4F8D8
:106F700010E094F813C040F2FF339E451ABF0EF1A3
:106F8000FF3292B272460CF0070AB9F1000F06D038
:106F90004FEA481303F18243022183F80711A168E5
:106FA000636831449942A1604FEA481540D25B1AA8
:106FB0001CF0200F9FB2384E23682FD0774528BF92
:106FC00077463A461944E068344B98477319E268AB
:106FD000C3F840227219D2F8443267F30D03C2F8A5
:106FE0004432D2F844326FF39B33C2F84432B9F1E1
:106FF000000F08D1BAF1010F05F182450CBF4E23F5
:107000004A2385F809314FEA481303F1824380226D
:1070100083F80521BDE8F0870E46A8E719447319E7
:10702000B7F5005F28BF4FF40057C3F84012D1E70F
:107030001CF0100F0ED0E37C6FF30413E374184BB5
:107040002B445A686FF30D025A605A686FF39B32F3
:107050005A60CCE7BAF1010F05F1824502EA060257
:107060000CBF4B234A23964585F808310CD1E37CAD
:107070006FF38613E374084BDB6898470028C9D187
:10708000E37C43F04003E37420460021054BBDE858
:10709000F0471847F0090020C0070020F9920000CF
:1070A000000A0020A16D00002DE9F74F867C06F054
:1070B0000F0604460F467501002962D0614B2B4430
:1070C0005A685B68C2F38D39C3F30D0AB4F81080B7
:1070D000E27C40F2FF3398451CBF08F1FF381FFAED
:1070E00088F802F007030AEA080B01932FB1730135
:1070F00003F18243012183F8071190060CD56268E1
:1071000052B1A0682368E168121A92B25A45184435
:1071100028BF5A464C4B98476268002A34D1E37C1A
:10712000D90640F1898062F304134848E168DBB274
:10713000284443F02003E37400F50C73C0F83012C8
:107140005968208A60F39B315960596862F30D01D8
:1071500059606FB9019B012B04BF3C4B5B1905F1D2
:1071600082450ABF83F84A7225232D2385F8093109
:10717000760106F18246402386F8043103B0BDE86B
:10718000F08F89468A46A1E7F7B1238A5B451BD970
:10719000E37C6FF30413E374A3685344A360019B7F
:1071A00005F18245012B0CBF2D23252385F80831DD
:1071B0001EB9264BE268C3F83022254B0021204639
:1071C00003B0BDE8F04F1847A16849448A42A16066
:1071D000E5D9E07C1D4BB4F810E0521A10F0200FF6
:1071E00092B214D059197245E068C1F8300228BF34
:1071F00072462B44D3F8341262F39B31C3F8341235
:10720000D3F834226FF30D02C3F83422A1E772459C
:107210000AD9B2F5005F0CD822EA080220680144BE
:107220005819C0F83012E4E7F8D240F02000E074BA
:10723000F4E74FF40052F1E7002FA6D1A3684B44C6
:10724000ACE700BFF0090020F9920000C007002061
:10725000A16D00002DE9F0474FF082431D8CADB2C7
:10726000002D6ED1998B1A8B92B20A4012F0040055
:1072700006D004229A83674BBDE8F0471B68184785
:1072800012F4007125D040F201229A839A82702272
:107290001A83604BB3F8382202F00F02032A14D08D
:1072A000B3F8582202F00F02032A10D1012103EB98
:1072B00041100022B0F83812A0F83822C1F30A11A8
:1072C0005B680320BDE8F04718470146EFE7014639
:1072D000F6E712F0800005D080229A834D4B0520FE
:1072E0005B68EFE712F070040CD070229A839A82E8
:1072F00040F201221A83484B9847464B01465B688F
:107300000220DFE712F008010FD0082283F80041C5
:107310009A8370229A8240F201221A833F4B984747
:107320003C4B21465B680120CCE7D00709D540F2F1
:1073300001229A839A8270221A83364B04205B685A
:10734000C0E7374CDFF8EC80364F0026A4F1140973
:10735000A27CFF2A29D002F00F02012101FA02F3D8
:107360002B4222D05301520103F1824302F18242A7
:1073700093F8070192F80931034016D0142202FB5A
:10738000069292F8272002F04700884214D1DA06CC
:1073900002D52046C04708E013F0400103D0014663
:1073A0002046214B15E09B06FAD401361B2E04F132
:1073B0001404CDD1BDE8F087100614D55806EFD4DB
:1073C000180702D52046B847EFE7980703D5174BB3
:1073D00020469847E9E702F00702012AE5D15A075B
:1073E00015D50021EEE713F0200001D00021D7E7EA
:1073F0005807F6D4D80702D520460D4BE9E702F02E
:107400000702012AD1D11A0701D50121DAE7DB06EB
:10741000CBD5BEE7C0070020B96C0000156F000097
:10742000D4070020296E0000796D0000516F000024
:10743000A9700000F56C0000B0F5007F0FD8B0F522
:10744000807F0ED880280ED840280ED820280ED84D
:1074500010280ED8082894BF00200120704707206C
:1074600070470620704705207047042070470320AE
:10747000704702207047000008B54FF082439A78A9
:10748000D00740D54FF082429378DB07FCD42F4BD6
:107490002F4A1A605A609A60DA601A612D4B984739
:1074A0002D4B1968C1F34413C1F3822211F01F015F
:1074B00046D01F2908BF0921002B43D01F2B08BF2E
:1074C0001923002A40D0072A08BF0622120302F41B
:1074D000E04243EA811313434FF082429BB213858B
:1074E000D37843F00303D370D37843F00C03D37005
:1074F00004231370907810F00300FBD1174B5362F4
:107500000123138108BD9A789107FCD11A7892075C
:1075100007D44FF0824301221A709A789207FCD167
:10752000B0E71A7802F0FD021A704FF082429378A9
:107530009807FCD14FF0824293789907FCD4E8E792
:107540000921B9E71923BCE70622BFE7C0070020DD
:10755000B56C0000156F000084008000F009002069
:107560004FF082439A78920723D19A789007FCD102
:107570001A78D2B2910713D50F4B4FF480329A602C
:107580004FF400329A604FF480229A604FF4002248
:107590009A604FF0824340F28D221A830020704798
:1075A00042F002021A704FF0824293789B07FCD19E
:1075B000E2E76FF01000704700E100E04FF0824218
:1075C000138923F001031B041B0C138170474FF038
:1075D000824340F080009872704700002DE9F84324
:1075E00000F00F0447B20D468046F90F2046DFF841
:1075F000A890C847022C064605F003053FD8837CB7
:10760000FF2B40D185B9F943C90F2046C847837C79
:10761000FF2B38D10C2363431E49CB58002B36D1A6
:107620006FF01200BDE8F883002F18DA19490C2317
:1076300003FB04135968F1B9164986F812800C232C
:107640005C430B1909595B683282013513EA270341
:1076500038BF0B46F574F3600020BDE8F8830C23B7
:1076600063430C49CB58002BE6D00A490C2303FB9B
:1076700004131B8900E05B899342DDDAD0E76FF0E9
:107680001100BDE8F8836FF01300BDE8F883002F08
:10769000EBDACBE7F49D0000DD6C00002DE9F04152
:1076A00047B200F00F054FEAD77804464146284616
:1076B000194B9847022D064615D8837CFF2B12D014
:1076C000164B032241469847F37C03F00703012B36
:1076D0000BD1640104F18244002384F800310023BB
:1076E000F374FF23B374BDE8F081002F09DA680159
:1076F00000F1824090F8003103F08F0380F80031F0
:10770000EDE7640104F1824494F8003103F0F803DA
:1077100084F80031E3E700BFDD6C0000C56D0000B8
:107720002DE9F84300F00F054FFA80F9574B4FEA67
:10773000D971284698476F0107F18246804696F82E
:107740000001022DC3B200F2988098F81220FF2A9F
:1077500000F093804E4C04F50C710F4498F8131010
:1077600001F00700012848D113F0770340F0898029
:10777000112186F80011B8F81010DFF818910846AA
:10778000C847DFF814E1000700F0E0400EEA813E50
:10779000C1F30D014EEA000E0843C7F804E004EB04
:1077A0004515786102F00F024027802086F80571A8
:1077B00086F80401500185F83A32044485F84A32CB
:1077C000D8F80C60C4F8306204F50C75D4F8344273
:1077D00061F39B346C60696800F1824263F30D01D0
:1077E00069601046B02182F8041182F805711022F8
:1077F00080F809211846BDE8F883B9F1000F1EDAB8
:1078000013F070023DD1080100F070001843B8F881
:10781000103086F800011F49184688470007C3F357
:107820000D0300F0E04004EB451418438023786119
:1078300086F8043184F84A221046BDE8F88313F034
:1078400007021ED101F0070141EA0300B8F8101049
:1078500086F800010F4B084698470F4B000703EAD4
:10786000813300F0E040034304EB45147B60402388
:1078700086F8053184F83A22DEE76FF01100BDE8A2
:10788000F8836FF01300BDE8F88300BFDD6C0000E3
:10789000C00700203974000000C0FF0F38B5C209CE
:1078A00000F00F050C4628461146344B9847022D30
:1078B00061D8012C19D1837C03F00F0359011024E6
:1078C000944001F18241E4B281F805415B0120213D
:1078D00003F1824301FA02F2D2B283F80921C37C98
:1078E00043F00803C374002038BD9CBB817C01F0C9
:1078F0000F014B0103F18243102493F80651944089
:107900002542F0D0E4B283F8044149012024944098
:1079100001F18241E5B281F8085193F80711214243
:1079200007D0012101FA02F2D2B283F8075183F89D
:107930000421C27C02F00701012908D193F8063125
:1079400013F03003CFD163F3C302C274CBE76FF3FC
:10795000C302FAE7837C03F00F035B0103F1824368
:1079600003F5807310209B7900FA02F21A4214BFCB
:107970000120002038BD6FF0110038BDDD6C000023
:1079800030B500F00F00124B42019C189D586468FE
:107990000228C4F30D0414D899B102F1824292F87E
:1079A0000031112B10D192F8073113F010000DD0D7
:1079B0002B680B606B684B60102382F80731204600
:1079C00030BD6FF0110030BD6FF0120030BD00BF50
:1079D000F00900202DE9F347077A3A4B07F00F052D
:1079E0007FB24FEAD7798046494628469847028AAF
:1079F000D8F8041040F2FF339A421ABF02F1FF3365
:107A00009BB21346022D044603EA010628D8D8F893
:107A10000050B5F1005F0AD32B4B4819984206D8A5
:107A200015F0030503D1002F05DB914214D2E36862
:107A3000002B41D00125E37C1B0740D4234B01A838
:107A40009847E37C224A13F0400A0ED001A89047E1
:107A5000012002B0BDE8F0872EB1E368002BEAD127
:107A60006FF01100F5E73546E5E743F04003E374B6
:107A700001A89047D8F800302360D8F8043063603C
:107A8000E37CC4F808A069F3C71365F34513E374F6
:107A900098F8093013B1B6FA86F35B09E27C002F3F
:107AA00063F304122046E2744FF00001B4BF094BA7
:107AB000094B98470020CCE76FF01200C9E702207D
:107AC000C7E700BFDD6C0000FF1F0420B14D0000C0
:107AD000BF4D0000516F0000A9700000064B002947
:107AE00008BF1946012802D1044B5960704708B9F4
:107AF000024B1960704700BFB56C0000C007002042
:107B0000084B002908BF194610B9074B9960704708
:107B1000012802D1044BD9607047022804BF024BF0
:107B200019617047B56C0000C0070020004B184772
:107B300055720000004B184755720000004B184763
:107B400055720000004B184755720000014B01228E
:107B50001A707047100B0020014B01225A607047C9
:107B6000100B0020054B9A6801329A601A7B03EBD8
:107B700082031A6901321A61704700BF100B00209E
:107B8000054A92F83030FF2B1FBF92F83030013396
:107B9000DBB282F830307047100B0020054A92F8B3
:107BA0003130FF2B1FBF92F831300133DBB282F846
:107BB00031307047100B002013B5094B044601A863
:107BC0009847084BE0011A181958136A14695C4069
:107BD0000C405C4001A8044B9847204602B010BD01
:107BE000B14D000000800041BF4D0000074B98429E
:107BF00001BF074A936B01339363064B984201BF61
:107C0000034A136C01331364704700BFBC1100209A
:107C1000100B0020A0120020074B984201BF074A1A
:107C2000936C01339364064B984201BF034A136D72
:107C300001331365704700BFBC110020100B0020FA
:107C4000A012002070B50C4CE56D854211D90C26B0
:107C500004EB8202256E526E704304EB810104EB4B
:107C600083042A5028444A6E636E42608360002079
:107C700070BDFF2070BD00BF100B00200D4BF0B594
:107C8000DE6D0D4B1C6800200D25C3B29E4200F135
:107C900001000DD905FB03423344D77A117B05FB64
:107CA00003433944D172DA7A197B0A44DA72ECE779
:107CB000F0BD00BF100B00208017002010B5074C4E
:107CC000E46D04FB010106480D246143046860185B
:107CD000625443709DF80830837010BD100B002073
:107CE0008017002010B5074CE46D04FB0101064825
:107CF00000680D2404FB01010B719DF80830CA7067
:107D00004B7110BD100B00208017002010B5074CE0
:107D1000E46D04FB0101064800680D2404FB010129
:107D2000CB719DF808308A710B7210BD100B0020CA
:107D300080170020054BDB6D03FB0101044B1B6822
:107D40000D2000FB0131CA72704700BF100B0020EC
:107D500080170020054BDB6D03FB0101044B1B6802
:107D60000D2000FB01310A73704700BF100B00208B
:107D7000801700202DE9F04F5F4C604FE06506460C
:107D800090230C2010FB063085B0A065B84700F1A9
:107D90009003606505461A2070432366B847584B28
:107DA00000221860643493B213F0010F14BF4FF037
:107DB00060614FF0006113F0020F0CBF4FF0004004
:107DC0004FF0604013F0040F40EA01000CBF4FF485
:107DD00000214FF4602113F0080F41EA00010CBFAD
:107DE0004FF400004FF4600013F0100F41EA00015F
:107DF0000CBF4FF400604FF4606013F0200F40EAB6
:107E000001000CBF4FF400414FF4604113F0400FEC
:107E100040EA01000CBF08210E21DB0914BFE0235A
:107E2000802301430B4344F822300132B2F5807FB6
:107E3000B9D16B1E05F18F00002203F8012F984283
:107E4000FBD1304D0024B4424FF0000310D3DFF8D3
:107E5000BC80DFF8BC9003939DF80C50039BAE42AE
:107E600003F10103039309D8002005B0BDE8F08FAA
:107E700020461A461946A8470134E4E70024234661
:107E8000224621462846204F0094B8477F2300937E
:107E90002246234621462846C047FF230093224618
:107EA000234621462846C847DFF868B0DFF868A0B7
:107EB000224621462846D847224621462846D04712
:107EC000022300931A4628460121B847234622463A
:107ED000284600940121C0472346224628460094A4
:107EE0000121C847224628460121D84722460121C0
:107EF0002846D047B0E700BF100B0020E9920000F1
:107F000080170020457C0000BD7C0000E57C00005F
:107F10000D7D0000557D0000357D0000284BDB6D98
:107F20002DE9F0470D2404FB03FC264BDFF89C8071
:107F30001B6804FB0034002302251A46194694F8F6
:107F40000BE094F803A018F80E70C644013D9EF8AB
:107F500000919EF8006294F800E01AFB09FA0EFB0B
:107F600007AA94F806E00EFB06AE94F804A071444C
:107F700094F801E01AFB09FA0EFB07AA94F807E04F
:107F80000EFB06AE724494F805E094F802A01EFBC6
:107F900009FE0AFB07E794F808E015F0FF050EFB61
:107FA000067633446444CAD1074CC3F34723A4463E
:107FB000C2F34722C1F34721BDE8F047604700BF45
:107FC000100B002080170020457C000000000020DE
:107FD00070B5054D054E0024EB6D9C4200D370BD7D
:107FE0002046B0470134F7E7100B00201D7F00004A
:107FF00070B54D00002683710446017142714681BF
:10800000074B28469847334620600544A84203D1D1
:10801000A3812381002070BD20F8023BF6E700BF5A
:10802000E99200002DE9F8430E4CDFF8409084F807
:1080300064040501284698460B4B84F865140E46E7
:1080400017469847C4F8680405440446AC4202D178
:108050000020BDE8F883204643463A463146C847EB
:108060001034F3E7100B0020E9920000F17F0000CC
:10807000324B2DE9F047D3F868844FEA001C08EB37
:108080000C020024157920462646A2464FF6FF79B9
:1080900023465FFA84FEAE453FD3B3FBF5F5ADB2A0
:1080A0008D4238BF30B258F80C4028BF00B20B44A4
:1080B00034F8105024F810109079547911795789B8
:1080C000B2F808C05B1BC0F11005B3FBF1F3EDB2D1
:1080D0009EB246FA05F1201AC0B289B2BF1B814098
:1080E000002F1FFA81FEB8BF7F420126F44506FA31
:1080F00005F520D0AF4209DC06FA04F406FA00F0D8
:10810000241AA64502D0BEF1000F14D101205381DC
:10811000A2F808E09081BDE8F087176837F814707E
:10812000BA453CBF7046BA46B9453B4484BF764623
:10813000B9460134ADE70020BDE8F087100B002000
:108140002DE9F3412D4C012384F86C342378002B66
:10815000FCD094F86C34002BFBD002AA002522F846
:10816000045D2946DFF8B0802548264F264E0223BD
:10817000C04794F86D34BDF804103B44187AB047FA
:1081800002AA294622F8025D02232048C04794F83B
:108190006D34BDF80610F85CB04794F86D3418489B
:1081A0000133DBB203F0070213F0010F184B84F820
:1081B0006D244FF4002114BFC3F81811C3F8141133
:1081C000134B4FF4801112F0020F14BFC3F81811B3
:1081D000C3F8141192084FF4001214BFC3F8182109
:1081E000C3F814210023237084F86C34094CA04791
:1081F0000648A04702B0BDE8F08100BF100B002088
:1082000090110020189E0000718000004013002093
:1082100000800041A14D00002D4D0000034BD3F81C
:10822000683403EB0010007B704700BF100B002088
:10823000044BD3F8683403EB0010002383810089DA
:10824000704700BF100B002080B10368591C1CBF91
:108250000133036043685A1C1CBF01334360436809
:10826000C068834294BF00200120704701207047FE
:1082700038B504460C4B18200D46984790B10B4A70
:10828000C56000234361036003614360D2F870342A
:1082900084601BB9C2F8700438BD13465A69002ABD
:1082A000FBD1586138BD00BFE9920000100B0020DF
:1082B00043688268036193422CBF9B1A002343608A
:1082C0004268C068824294BF0020012070470000CD
:1082D000054B10B5D3F87014044C01B910BD084615
:1082E000A0474969F9E700BF100B0020B1820000E8
:1082F000064B1B680360064B1B684360054B1B68FD
:108300008360054B1B68C36001207047FC618000DF
:108310001060800014608000186080002DE9F84F24
:10832000284ED6F80033013347D1274C274B284F2E
:108330004FF40058C4F888804FF48042C4F8A83045
:108340004FF04043C4F8A830C4F888204FF04022D2
:10835000C4F8A820C4F8A8304FF40043C4F884300F
:108360001C4BC4F8A830A3F18023C4F8A830012026
:10837000C4F89480B8470025A9464FF0010A0120AF
:10838000C4F89880B847144B01209847030442BFB3
:108390000AFA05F343EA09095FFA89F9072D07D0BC
:1083A0004FF4804BC4F898B00120B847C4F894B09B
:1083B0000135082DE3D1C6F80093D6F80003BDE8D7
:1083C000F88F00BF00000020008000410020004026
:1083D000094E000000800240B97B00002DE9F04703
:1083E000134CDFF86890DFF86880124D124F134E7F
:1083F0004A4601212046A847424600212046A84778
:108400000F4B20461968B84720460E4CB0474A46E5
:1084100001212046A847424600212046A8470A4B92
:1084200020461968B84720463346BDE8F04718474C
:10843000BC110020955200008D5200007D520000BA
:108440008C170020A012002094170020ED7B000064
:10845000197C0000F7B50E4B06460F46984798B9B1
:1084600003B0F0BD9DF80730502B05D194F874345B
:108470000133DBB284F8743401220DF10701304678
:10848000A8470128EED0EBE7024C034D3C44F3E74C
:10849000D9520000100B0020354F000010B5054CDC
:1084A00005480121A047234603210448BDE81040A8
:1084B000184700BF55840000BC110020A012002006
:1084C00001220149014B184704030020314F0000ED
:1084D00010B5044C0448A04723460448BDE81040AA
:1084E000184700BFC1840000BC110020A01200206A
:1084F000004B1847D18400002DE9F0410E220321E2
:108500000A231D4C1D4F1E4E1E4D1020A0471E4C11
:108510001E4B102098471E491E4B20469847204668
:108520001D4A1E4B1E4C002198471E4B98471E4B60
:108530004FF48042C3F81821002211461B4B2046FD
:10854000B84700212046B0472046194CA8470022D2
:108550001146184B2046B84700212046B047204618
:10856000154CA8472046154B154998472046154BF2
:10857000BDE8F041184700BF25800000F14C000025
:10858000E14C0000A14D00005C120020757D000050
:1085900098170020A54F0000597B0000994F00005C
:1085A00090110020DD830000008000414D7B000021
:1085B0004013002041810000401100208D52000036
:1085C000881700207D52000070B51D4C1D4AC4F86C
:1085D00084244FF48042C4F894241B4AC4F898249D
:1085E00040F26662194DC4F8A824194AC4F8AC24B4
:1085F0004FF4A0220123174EC4F8BC2404F58F6168
:10860000154AC4F88034284684F8883484F89C34A9
:1086100084F8B03484F8C434C4F8C024B04704F2F9
:108620008C412846B04704F2B4412846B04704F5CF
:1086300094612846B0472846084BBDE8704018476B
:10864000100B0020657B0000817B0000AC10002037
:10865000F1840000A55000009D7B000081500000C7
:108660002DE9F04F8B4BB7B098478B4B98478B4B0E
:108670009847322105208A4B98470E9000B9FEE7B3
:10868000884C00260D960127B2460B960C9625467F
:1086900094F83030002B4AD0A3680A9322696169AC
:1086A000A069D4F81CE0D4F820C0D4F84880D4F8ED
:1086B0005090A36BD4F840B0CDF810C0CDF80CE0CA
:1086C000079302900191009277490A9BCDF820B060
:1086D0003246CDF81890CDF814801DA8734EB047DF
:1086E000734B1DA89847734B01461DA8984700235C
:1086F0006364A364E36423656363A363E363236444
:1087000084F8743484F8753484F8763484F87734D3
:10871000A36094F83020013AD2B284F83020194690
:1087200004EB83020133082B1161F9D1002694F880
:10873000313001366BB16049604B1DA898475D4BE5
:108740000B211DA8984794F83130013BDBB284F827
:108750003130AB6811930220594B9847C0F3C02BBE
:108760005F4531D01FB90D9B83F001030D93554B2D
:1087700014A89847544B9847B7FA87FB13A90746A4
:10878000524B53489847534B51489847179B029375
:10879000169B0193159B00933A46149B4E49434FF9
:1087A0001DA8B8474D4B139841221DA998474C4925
:1087B000324618A8B8473E4B18A898473D4B01468B
:1087C00018A84FEA5B1B98470C9B642B03D9454BB9
:1087D000984700230C930C9B01330C9304232373C1
:1087E000414B98470027032327730A972373B84602
:1087F0009DF828903D4B48469847D8B13C4B0E9881
:108800002A4F98473B4B484698471DAB43440F932C
:108810000A9A39491090C0F38F130F98B847244B28
:108820000F989847109B8044C3F387120021484655
:10883000324B98470A9B0133102B0A93D8D11C4B1B
:108840001DA898471B4B01461DA898470D9B002764
:10885000012B27735CD102232373294B9847294BA3
:108860009847294BB4F858201868616D1B4B277343
:1088700098476B68002BFCD0119FDFF89080012394
:108880002B731037AB689F4200F2828000232B735A
:108890005F46FDE6D1420000F9840000C985000072
:1088A00071820000100B0020289E000099940000A7
:1088B000F1940000098C0000929E0000E1940000F9
:1088C000B97B0000F18200001D8300008D52000082
:1088D000401100207D5200009E9E0000314F00009C
:1088E000CC9E0000D18200009D8400001D8200000B
:1088F0004982000031820000D89E0000357D0000D2
:108900007D7C0000D17F000098170020E54D00001D
:108910000B9B0A97BAF1000F18BF002399460B9BD7
:10892000BAF1010F18BF002398460B9BBAF1020F52
:1089300018BF00230F930F9B0A98174F42464946D2
:10894000B8470A9B0133102B0A93F4D10B9B0133D8
:1089500013F0FF030B9304BF0AF101035FFA83FADC
:108960000D9B0220BAF1020F88BF9A460B4B984725
:1089700000236B600A480B4B98470B4BB5F8582007
:108980001868696D094B98476B68002BFCD073E73A
:108990000A20C04776E700BF457C0000094E000072
:1089A0005C1200208D4F000098170020314F00000E
:1089B0002DE9F34116460A78C2F34113012B07460D
:1089C0000C4655D12D4B8988187888421D4602D017
:1089D0005B788B424CD113060FD5012E35D06378CE
:1089E000212B14D1E288072A45D125490023384696
:1089F000244CA04702B0BDE8F081234BB4F80680B8
:108A000098476378202B014604D0222B24D06FF0A6
:108A10000C00EFE7B8F1070F2DD116B933464246E7
:108A2000E5E7006800908B798A888DF806302B691D
:108A3000ADF804205BB9124B0098BDF804109DF806
:108A40000620C5F8060099809A710020D2E7684692
:108A500098470028EFD1F8E700231A461946184630
:108A6000084EB0476B69002BEFD060889847ECE761
:108A70006FF00900BEE74FF0FF30BBE7E00F0020CA
:108A8000E60F00209D8D0000A191000001292DE935
:108A9000F84F154654D007D302290CBF6FF01A00C7
:108AA0006FF00C00BDE8F88F8768DFF81081106860
:108AB0007E1E07F1010A18B96FF00900BDE8F88FB2
:108AC0004379827803F0F703022BF5D116F8013FC2
:108AD0009A425FD0FF2B61D132706968DFF8E09075
:108AE0000522C04704466CB92B68696818780422CF
:108AF0001844C047B245DED12C4B01225A712046A2
:108B0000BDE8F88F6179227994F802B0284B02EB26
:108B1000012292B2E17858469847002842D11BF0D2
:108B2000800F14BF86F802B087F804B05846C847D3
:108B30002C60207869681F4B204498470446D2E790
:108B400084682AB113685B7903F0F703022BB3D171
:108B50002378FF2B07D0A078FF25A842257002D0EC
:108B6000154B9847A5706378FF2B07D0E078FF2559
:108B7000A842657002D0104B9847E5702079FF2815
:108B800003D00D4B9847FF232371084B00205871E9
:108B9000BDE8F88F6FF01100BDE8F88F6FF01B0093
:108BA000BDE8F88F6FF01300BDE8F88FE00F0020EC
:108BB0006D550000DB910000CD550000C191000013
:108BC000F955000008B50A4B984701280CD8094808
:108BD000094BC3610062094B183098470849094B9B
:108BE00001209847002008BD6FF0100008BD00BFAD
:108BF000AD910000E00F00208D8A0000559100002B
:108C00000C030020E590000010B4084C63790A467C
:108C10003BB10146E078064C0123A4465DF8044BC5
:108C200060476FF010005DF8044B7047E00F0020C4
:108C30009D8D0000054B10B51C6904B910BD63681B
:108C400020460022012198472468F6E704100020FE
:108C5000064B70B5DC6805460E4604B970BD636806
:108C600013B13146284698472468F6E704100020DF
:108C7000F8B50C4B9C6805460E4617460CB92046C5
:108C8000F8BD63680BB92468F8E73A4631462846D0
:108C9000984720B10A30F6D04FF0FF30F8BD0120E0
:108CA000F8BD00BF04100020044B10B55C6804B987
:108CB00010BD636803B198472468F8E704100020EA
:108CC00010B514460A4619B1012920D0002010BD64
:108CD0002378002BFAD16378052B0DD0092BF5D121
:108CE00062880D4B002ADA7614BF0421032199769D
:108CF00001200A4B9847E9E76088094BC0B29847C2
:108D00006388002B14BF03210221034BEFE72146A8
:108D1000044B00209847D9E704100020518C000034
:108D200065550000718C000070B50E4B0E4D00248F
:108D30009847022620460D4BAE76EC766C77984726
:108D40000B4B287F0B4D9847214620460A4AA847DF
:108D500020463146094AA8472046094BBDE87040E5
:108D6000184700BF358C000004100020CD550000CE
:108D7000BD55000095570000BD8D0000C18C00005E
:108D8000F955000010B1012802D07047014B184777
:108D9000014B1847518C0000298D00001FB58DF83C
:108DA0000C008DF80D3001A8034B019102929847F9
:108DB00005B05DF804FB00BF395600002DE9F7430C
:108DC000AA4B002205460C469847431C08D00128B0
:108DD00075D0217811F0E00304D0802B00F0C4801E
:108DE00000206CE06378013B0A2BF9D801A252F80D
:108DF00023F000BF9D8E0000E18D0000C58E0000B5
:108E0000E18D00002B8E0000E18D0000E18D00005F
:108E1000E18D0000218E0000E18D0000D58E000064
:108E20006288D2B22AB9924B984700220123114698
:108E3000ECE0904C236893E803008F4B98470028A0
:108E4000CED0C27883788D4F03EB022310FA83F1E2
:108E500004220191B8470DF10808FF2348F8080DD6
:108E6000009A002AE1D092F80290994514D0266920
:108E70004EB9009801990378042218440090B8472D
:108E80004B460090ECE77368424600213046984715
:108E90000028EED03668EBE79946EAE702299FD131
:108EA000E688002E9CD1A0883146754BC0B2984709
:108EB0000123324631462846724CA047012003B0B8
:108EC000BDE8F08302298BD1E688002E88D1A088E6
:108ED0000121EAE7674D66882B68EA7EA78893E858
:108EE0000300654B984700283FF47AAF0090C278A2
:108EF0008178624C01EB022110FA81F10191042288
:108F0000A04700283FF46CAF8378BB4213D1C378ED
:108F1000B34210D10DF108082C6948F8080D002C57
:108F20003FF45EAF01216368424620469847014600
:108F300040B12468F3E70098019903781844009041
:108F40000422DDE7636842462046984700287FF404
:108F500047AF26B10123BB406F7F1F436F770023CC
:108F60001A4619461846A7E763780A2B3FF638AF2A
:108F700001A252F823F000BF47900000E18D0000ED
:108F8000E18D0000E18D0000E18D0000E18D000029
:108F9000A58F0000E18D000037900000E18D0000FA
:108FA000A190000063881A0A022A14D0032A34D040
:108FB000012A7FF415AF2F4BE4881B68122C93E82D
:108FC00003002E4B28BF12249847014600283FF487
:108FD00007AF002319E0274AE4881068167F5A1C5F
:108FE00003C8D2B2244B9847014600283FF4F8AE9C
:108FF000C378827802EB032292B29442E9D9013E0F
:1090000026420CBF012300231446224628461D4C4D
:10901000A047B0FA80F0400951E7164AE48810688A
:10902000167F03C8DAB2184B9847014600283FF470
:10903000D7AE0278E1E70F494B69CA7E1A70002368
:109040000122496937E701F01F0101291ED90229D0
:109050007FF4C6AEA0880A4BC0B298470028FFF63E
:10906000BFAE00F00100009012E000BF718C000064
:10907000358C000004100020F9910000C19100001F
:10908000315700009D8D00003592000000230093B1
:109090001349BDF800204B691A8000230222D0E753
:1090A0000F49A2884B7F134113F001030E4615D1DF
:1090B0004A6913704969012254E76B68224602210C
:1090C00028469847002803DA2D68002DF5D187E659
:1090D0007369187001220023716943E70D69F4E791
:1090E00004100020012806D002D3022805D07047C2
:1090F0000348044B18470448FBE70448F9E700BF5E
:1091000008100020FF5700000C1000201010002055
:1091100038B50A4B0546984700280EDB084C094B2A
:10912000202200212046984765610749074C00200E
:10913000A04701200649A047002038BDE5540000A3
:10914000041000200F930000A98C00004D55000072
:10915000858D00000146014B01481847FF5700006C
:109160001410002010B50A4B9C7E54B960B10268FF
:109170001860D2791A7701229A76064B98472046D2
:1091800010BD6FF0030010BD6FF0080010BD00BFF0
:109190000410002055550000004B18475D55000095
:1091A000014B5869704700BF04100020034B987EA4
:1091B00010F0100F18BF1020704700BF04100020DF
:1091C00010B5884201D3002010BD0378012BFAD9D5
:1091D00044789442F8D01844F3E7884201D3002041
:1091E00070470378012BFAD94278042AF7D0052A70
:1091F000F6D01844F1E7000038B515460C4B0222B2
:109200000C46984778B938BD0378012B0DD94378BF
:10921000022B0AD14379AB4208D0C278837803EBA2
:10922000022310FA83F0A042EED3002038BD00BF25
:10923000C1910000F8B50A4F0D4616460024A84219
:1092400001D30020F8BD03222946B8470028F9D0F1
:109250000378012BF5D9B442F4D018440134EEE779
:10926000C191000010B5064B06489847064B984739
:10927000064B07489847074BBDE81040184700BF0A
:109280001191000064100020C58B00006591000062
:109290001403002099910000004B184765920000CC
:1092A00070B50D4E0D4CA41BA4100025A54209D18C
:1092B0000B4E0C4C00F060FEA41BA4100025A54230
:1092C00005D170BD56F8253098470135EEE756F8C0
:1092D000253098470135F2E7849F0000849F000005
:1092E000849F0000889F0000024B0146186800F030
:1092F00065B800BF7403002010B5431E0A449142B4
:1093000000D110BD11F8014B03F8014FF7E70244FB
:109310000346934200D1704703F8011BF9E70000B0
:1093200038B50546002945D051F8043C0C1F002BE8
:10933000B8BFE41800F0E4F81F4A1368104633B9C8
:10934000636014602846BDE8384000F0DAB8A342F4
:109350000CD921686218934204BF1A685B68636085
:1093600004BF521822600460ECE713465A680AB141
:10937000A242FAD919685818A0420BD120680144BA
:10938000581882421960DDD1106852685A60014451
:109390001960D7E702D90C232B60D3E72068211886
:1093A0008A4204BF11685268626004BF09182160D4
:1093B0005C60C7E738BD00BFA410002070B5CD1CAD
:1093C00025F0030508350C2D38BF0C25002D064669
:1093D00001DBA94203D90C233360002070BD00F0EB
:1093E0008FF8234A1468214691B9224C23681BB98F
:1093F000304600F041F820602946304600F03CF845
:10940000431C26D10C233360304600F07AF8E4E7A1
:109410000B685B1B1AD40B2B0FD90B60CD50CC18EB
:10942000304600F06EF804F10B00231D20F0070019
:10943000C31A1BD05A42E25070BD8C420DBF636804
:109440004B686360136018BF0C46E9E70C46496837
:10945000CAE7C41C24F00304A04205D0211A3046F8
:1094600000F00AF80130CDD02560D9E770BD00BF0B
:10947000A4100020A810002038B5064C0023054693
:1094800008462360FCF702FA431C02D1236803B1AB
:109490002B6038BD9C1700200EB400B59CB04FF473
:1094A00002711DABADF81410029006906FF00041F0
:1094B0000A48049107914FF6FF7153F8042BADF859
:1094C00016100068019302A900F078F8029B0022B0
:1094D0001A701CB05DF804EB03B0704774030020F1
:1094E000034611F8012B03F8012B002AF9D170472C
:1094F000034613F8012B002AFBD1181A01387047D4
:10950000704770472DE9F0478E689E4282460C46B0
:109510009146984635D88A8912F4906F31D02568E3
:1095200009696F1A6569022305EB450595FBF3F59B
:1095300008F101033B449D4238BF1D46530531D518
:109540002946FFF73BFF064650B90C23CAF8003006
:10955000A38943F04003A3814FF0FF30BDE8F087BB
:109560003A462169FFF7C8FEA38923F4906343F0CC
:109570008003A381266165613E44ED1B2660A560E2
:109580004646464528BF464632464946206800F0D2
:10959000EFFAA3689B1BA36023681E44266000208B
:1095A000BDE8F0872A4600F0FDFA06460028E1D122
:1095B00021695046FFF7B4FEC7E700002DE9F04FE0
:1095C0009DB0804603938B891C060D4616460FD529
:1095D0000B696BB94021FFF7F1FE2860286128B9BB
:1095E0000C23C8F800304FF0FF30C5E040236B611A
:1095F0000023099320238DF8293030238DF82A3059
:109600004FF0010B37463C4614F8013B002B3CD190
:10961000B7EB060A0BD05346324629464046FFF7C1
:1096200071FF013000F0A380099B534409933B78FC
:10963000002B00F09C8000234FF0FF32049307932F
:10964000059206938DF853301A93052221785048DD
:1096500000F03EFA671C049BD8B9D90644BF20220B
:109660008DF853201A0744BF2B228DF853202278FF
:109670002A2A16D0079A00210A20274601343B786F
:10968000303B092B51D9C9B111E0252BC0D0274659
:10969000B9E73F4A801A0BFA00F0184304903C46A1
:1096A000D3E7039A111D12680391002A01DB079288
:1096B00004E0524243F00203079204933B782E2BBE
:1096C0000ED17B782A2B07F1010132D1039B1A1DA1
:1096D0001B680392002BB8BF4FF0FF33023705938E
:1096E0002C4C39780322204600F0F2F938B140239F
:1096F000001B03FA00F0049B0343049301373978FD
:1097000025488DF8281006227E1C00F0E1F900287B
:1097100035D0224BFBB9039B073323F007030833F3
:109720000393099B4B4409936CE700FB0232012130
:10973000A3E70023059318460A240F4601313A781F
:10974000303A092A03D9002BCAD00590C8E704FB98
:1097500000200123F1E703AB00932A46104B04A934
:109760004046AFF30080B0F1FF3F8146D9D1AB89CD
:109770005B063FF538AF09981DB0BDE8F08F03AB2D
:1097800000932A46064B04A9404600F081F8EAE718
:10979000449F00004A9F00004E9F00000000000010
:1097A000059500002DE9F04791461F468A680B6930
:1097B000DDF820809342B8BF1346C9F8003091F815
:1097C000432006460C4612B10133C9F80030236825
:1097D000990642BFD9F800300233C9F80030256835
:1097E00015F0060507D104F1190AE368D9F800203D
:1097F0009B1A9D4229DB94F843302268003318BF3E
:10980000012392062ED404F1430239463046C04764
:10981000013021D02368E568D9F8002003F0060361
:10982000042B08BFAD1AA36822690CBF25EAE575B1
:1098300000259342C4BF9B1AED184FF000091A345B
:109840004D451BD10020BDE8F08701235246394623
:109850003046C047013003D14FF0FF30BDE8F087FC
:109860000135C2E7E1185A1C302081F84300224438
:1098700094F8451082F843100233C4E701232246CE
:1098800039463046C0470130E6D009F10109D7E733
:109890002DE9F04317460A7E85B06E2A98460646A3
:1098A0000C460C9B01F1430E00F0BC801AD8632AD1
:1098B0002ED00AD8002A00F0C880582A00F08A80EA
:1098C00004F1420584F842202AE0642A01D0692A82
:1098D000F6D121681A6811F0800F23D0111D19608C
:1098E000136827E0732A00F0B48008D86F2A2AD0C2
:1098F000702AE5D10A6842F020020A6003E0752A66
:1099000021D0782ADCD1782284F845206E4964E0A1
:109910001A6801F14205111D1960136884F842307C
:109920000123A3E011F0400F02F104011960D7D028
:10993000B2F90030002B03DA2D225B4284F8432079
:1099400062490A2217E02068196810F0800F03D0DE
:10995000081D18600B6806E010F0400F01F10400CC
:109960001860F7D00B8859496F2A14BF0A220822C1
:10997000002084F843006568A560002DC0F29C803B
:10998000206820F004002060002B3FD1002D40F023
:1099900095807546082A0BD12368DA0708D5236914
:1099A00062689A42DEBF302305F8013C05F1FF35BD
:1099B000AEEB05032361CDF800803B4603AA2146A8
:1099C0003046FFF7EFFE013055D14FF0FF3005B0C4
:1099D000BDE8F08381F845203C492268186812F000
:1099E000800F00F104051D6001D0036802E05506F8
:1099F000FBD50388D00744BF42F0200222601BB988
:109A0000226822F0200222601022B1E77546B3FBE3
:109A1000F2F002FB1033CB5C05F8013D0346002851
:109A2000F5D1B7E708681A68496910F0800F04D0CB
:109A3000101D18601368196007E010F0400F02F164
:109A4000040018601368F6D019800023236175465E
:109A5000B1E71A68111D196015686268002128466F
:109A600000F036F808B1401B606063682361002392
:109A700084F843309FE723692A4639463046C04779
:109A80000130A2D023689B0707D5002504F11909EE
:109A9000E368039A9B1A9D4205DBE068039B9842AA
:109AA000B8BF184693E701234A4639463046C047B7
:109AB00001308AD00135EBE7002BA7D10B7884F871
:109AC000423004F1420565E7669F0000559F0000A3
:109AD00001F0FF01102A2BDB10F0070F08D010F85F
