:1040000010820120F5420000F1420000F142000060
:10401000F1420000F1420000F14200000000000007
:10402000000000000000000000000000F14200005D
:10403000F142000000000000F1420000F1420000E7
:10404000F1420000F1420000F1420000F1420000A4
:10405000F1420000F1420000F1420000F142000094
:10406000F1420000F1420000F14200003DAD0000CD
:10407000F1420000F1420000F1420000F142000074
:10408000F1420000F1420000F1420000F142000064
:10409000F1420000F1420000F1420000F142000054
:1040A000F1420000F1420000F1420000F142000044
:1040B000F142000071A9000045A9000079A50000A7
:1040C00081A5000089A5000091A5000099A5000028
:1040D000F1420000F1420000F1420000F142000014
:1040E000F1420000F142000000000000000000006A
:1040F00000000000E5AB000085B600007DB60000C2
:1041000075B6000065B60000ADB60000A5B60000AB
:104110009DB600008DB60000F1420000F1420000A3
:10412000F1420000F142000009B7000001B70000B1
:10413000F9B60000B5B6000031B7000029B700009D
:1041400021B7000011B70000ADB70000A5B700000F
:104150009DB7000039B70000D5B70000CDB700000B
:10416000C5B70000B5B70000F1420000F142000001
:10417000F1420000F14200000000000000000000D9
:1041800025CE00002DCE000035CE00003DCE000033
:1041900000000000F1420000F1420000F142000086
:1041A000F1420000F1420000F1420000F142000043
:1041B000F1420000F1420000F1420000F142000033
:1041C000F1420000F1420000F1420000F142000023
:1041D000F1420000F1420000F1420000F142000013
:1041E000F1420000F1420000F142000069BF00000E
:1041F00079BF000089BF000099BF0000F1420000B4
:10420000F1420000F1420000F1420000F1420000E2
:10421000F1420000F1420000B5A20000A5A200009A
:10422000CDA20000BDA20000F1420000F14200005A
:10423000F1420000F1420000F1420000F1420000B2
:10424000F1420000F1420000F1420000F1420000A2
:10425000F1420000F1420000F1420000F142000092
:10426000F142000010B5054C237833B9044B13B16B
:104270000448AFF300800123237010BDB005002077
:1042800000000000B00F01000C4B43B10C480D4979
:1042900010B5AFF300800C48036823B910BD0A487D
:1042A000036833B97047094B002BF7D0BDE81040C5
:1042B0001847064B002BF5D0184700BF0000000040
:1042C000B00F0100B4050020B00F01000000000095
:1042D00010B5044B9847044B9847044BBDE8104079
:1042E000184700BF4D4C000081E7000025D60000B4
:1042F000FEE7000008B5144A144B9A4218D1144B3B
:10430000144A002193421CD3134A144B22F07F021B
:104310009A60D3F8882042F47002C3F88820BFF373
:104320004F8FBFF36F8F0E4B98470E4B9847FEE7AA
:104330000D49043A8B42E2D252F8040F43F8040BC1
:10434000F8E743F8041BDDE7B00F01000000002090
:10435000B0050020108200200040000000ED00E0C9
:104360005DEF000045D00000AC05002030B54A1CD0
:10437000C4B2C0F34712164804F01F0300EBC2108A
:1043800007D1184490F8403003F0FE0380F8403025
:1043900030BDC5185B0895F8402002F0FE021844B5
:1043A00042F0010285F8402090F8303014F0010FFF
:1043B00019BF03F00F0343EA011101F00F0103F0ED
:1043C000F00314BFC9B2194380F8301030BD00BFEC
:1043D0000080004101224309914200F01F0002FACF
:1043E00000F011D002D302291FD07047DB0103F186
:1043F000824303F50043586082B242F08042000CD1
:104400009A6240F040400EE0DB0182B203F1824349
:1044100003F5004342F0804242F4003258609A6251
:10442000054A42EA104098627047DB0103F182437B
:1044300003F500439860DFE7000002C0F0B5144ABE
:10444000144E136A144D1549154F43F0800313623F
:10445000144B85B04122C3F82021134B0193002453
:10446000012300933246234602942846B847721C23
:104470002146102328460D4DA847214607200C4B06
:1044800098470C490C4B072005B0BDE8F040184791
:1044900000080040CC05002044100020001C004310
:1044A000C98E0000001C004040110020158F000044
:1044B000D5430000010007006D430000F0B5154A28
:1044C000154E136A154D1649164F43F48073136247
:1044D000154B85B04122C3F82421144B01930024CD
:1044E0000123009306F11102234602942846B8479F
:1044F00006F112022146102328460D4DA8472146F9
:1045000042200C4B98470C490C4B422005B0BDE8AB
:10451000F040184700080040CC0500201812002089
:1045200000200043C98E0000001C0040E00F002066
:10453000158F0000D5430000010042006D430000CC
:10454000044A05499369054843F002039361044B0B
:10455000184700BF0008004000200041DC0F002089
:104560006D900000084B4022C3F8AC20C3F8B02087
:10457000C3F8B420C3F8B820044A936943F0800319
:104580009361034B184700BF001C00400008004027
:10459000CD900000024A136943F040031361704755
:1045A0000008004010B5044B984704490448054BE7
:1045B000BDE81040184700BF95450000004000418D
:1045C000C00F0020E590000070B52D4C2D4E2E4DF3
:1045D00001212B20B04794F8CB302C4903F0FB038A
:1045E00084F8CB302B20A84702210820B0474FF495
:1045F0008073636194F84830254903F0FB0384F825
:1046000048300820A84702210920B0474FF4007322
:10461000636194F849301F4903F0FB0384F8493083
:104620000920A84702210A20B0474FF48063636144
:1046300094F84A30184903F0FB0384F84A300A2002
:10464000A84702210B20B0474FF40063636194F840
:104650004B30124903F0FB0384F84B300B20A84782
:1046600001212A20B04794F8CA300D4903F0FB031A
:1046700084F8CA302A202B46BDE87040184700BF96
:1046800000800041D54300006D43000007002B006F
:10469000070008000700090007000A0007000B00D8
:1046A00007002A00064B1A6942F400521A611A697F
:1046B00042F400121A61DA6942F40052DA6170477A
:1046C0000008004010B5054B9847054B05490648C2
:1046D0009847064BBDE81040184700BFA5460000AC
:1046E000F19200000034004284120020C94500000D
:1046F000064B4122C3F89C204222C3F88C20044A76
:10470000536943F480535361704700BF001C00405D
:104710000008004010B5054C05495120A04723462C
:1047200004495020BDE81040184700BF6D43000009
:10473000030051000300500013B5074B074C984786
:1047400000230093064A074907481023A047074B58
:1047500002B0BDE810401847F1460000699800001B
:10476000EE050020003000407010002015470000CA
:10477000064B4122C3F8A0204222C3F88C20044AF1
:10478000536943F400535361704700BF001C00405D
:104790000008004010B5054C05495B20A0472346A2
:1047A00004495C20BDE81040184700BF6D4300007D
:1047B00002005B0002005C0013B5074B074C9847F2
:1047C00000230093064A074907481023A047074BD8
:1047D00002B0BDE81040184771470000699800001A
:1047E000FE05002000340040C41000209547000062
:1047F00010B5054C05493920A04723460449382007
:10480000BDE81040184700BF6D43000003003900A9
:1048100003003800064B4122C3F8DC204222C3F8D3
:104820008C20044A936943F400739361704700BF7E
:10483000001C00400008004010B5054B9847054B90
:104840000549064800229847054BBDE81040184727
:1048500015480000CD9900000020014138100020CB
:10486000F147000070B5134C134E144D4FF48013F4
:10487000C4F8943002213420B04711493420A847AD
:104880004FF40013C4F8943002213520B0470D498D
:104890003520A84701211420B04794F854300A4924
:1048A00003F0FB0384F8543014202B46BDE870401D
:1048B000184700BF00800041D54300006D43000051
:1048C000020034000200350003001400064B4122B0
:1048D000C3F8E0204322C3F88C20044A936943F4D0
:1048E00080639361704700BF001C004000080040D7
:1048F00010B5054B9847054B054906489847064BA8
:10490000BDE81040184700BFCD4800007D9400006E
:1049100000400141380F002065480000064B41224D
:10492000C3F808214222C3F88C20044A136A43F0DA
:1049300001031362704700BF001C004000080040E4
:1049400010B5054C05492820A047234604492920D5
:10495000BDE81040184700BF6D4300000300280069
:104960000300290013B5084B084C98470023009317
:10497000074A084810234FF08641A047064B02B073
:10498000BDE81040184700BF1D49000069980000AD
:104990000E060020781100204149000070B50B4C34
:1049A0000B4D94F857300B4903F0FB0384F8573054
:1049B0001720A84794F85630074903F0FB0384F802
:1049C000563016202B46BDE8704018470080004145
:1049D0006D4300000300170003001600064B412240
:1049E000C3F80C214222C3F88C20044A136A43F016
:1049F00002031362704700BF001C00400008004023
:104A000010B5054B9847054B054906489847064B96
:104A1000BDE81040184700BFDD4900009992000032
:104A200000040043F80F00209D490000064B41227E
:104A3000C3F810214222C3F88C20044A136A43F0C1
:104A400004031362704700BF001C004000080040D0
:104A500010B5054C05494D20A047234604494C207C
:104A6000BDE81040184700BF6D43000003004D0033
:104A700003004C0013B5074B074C984700230093E5
:104A8000064A074907481023A047074B02B0BDE874
:104A9000104018472D4A0000699800001E060020AB
:104AA00000080043C8110020514A000070B5134CA3
:104AB000134E144D4FF08043C4F8943002213E2031
:104AC000B04711493E20A8474FF00043C4F8943046
:104AD00002213F20B0470D493F20A84701211E2059
:104AE000B04794F85E300A4903F0FB0384F85E3067
:104AF0001E202B46BDE87040184700BF00800041D3
:104B0000D54300006D43000002003E0002003F005C
:104B100002001E00064B4122C3F814214222C3F8B2
:104B20008C20044A136A43F008031362704700BFE5
:104B3000001C00400008004010B5054B9847054B8D
:104B4000054906489847064BBDE81040184700BF86
:104B5000154B0000B9950000000C00431411002013
:104B6000AD4A00000148024B184700BF10E000E0CA
:104B70007590000070B50221114C124E124D182094
:104B8000B0474FF08073636194F858300F4903F0D9
:104B9000FB0384F858301820A84702211920B04799
:104BA0004FF00073636194F85930094903F0FB0337
:104BB00084F8593019202B46BDE87040184700BFD3
:104BC00000800041D54300006D430000070018003D
:104BD00007001900074B4122C3F8A820A3F5A053F2
:104BE0001A6942F480621A619A6942F001029A617C
:104BF000704700BF001C004010B5044B9847044BA1
:104C00009847044BBDE81040184700BFD54B000043
:104C1000F99B0000754B0000024A536943F480730E
:104C2000536170470008004010B5044B9847044892
:104C3000044B0360BDE81040034B1847194C0000BB
:104C4000C01000200020004045CE00002DE9F041BA
:104C5000854B864C864D874F984720236361022100
:104C60000520A84794F8453003F0FE0384F845304A
:104C700001211520A84794F8553003F0FB0384F870
:104C8000553094F8553003F0FE0384F85530012177
:104C90002720A84794F8C73003F0FB0384F8C730F7
:104CA00094F8C73003F0FE0384F8C7304FF4005384
:104CB000C4F8943002212D20A84794F8CD304FF449
:104CC000804603F0FE0384F8CD300221C4F89460DE
:104CD0002E20A84794F8CE3003F0FE0384F8CE309F
:104CE00001212F20A84794F8CF3003F0FB0384F86C
:104CF000CF3094F8CF3003F0FE0384F8CF30012199
:104D00004B20A8474FF40062C4F8042194F84B31BB
:104D100043F0040384F84B31C4F8182194F84B3164
:104D200003F0FE0384F84B310221C4F814614E20D5
:104D3000A84794F84E3103F0FE0384F84E31012168
:104D40005220A84794F8523103F0FB0384F8523103
:104D500094F8523103F0FE0384F852314FF40023EB
:104D6000C4F8143102215320A84794F8533103F0BA
:104D7000FE0384F853314FF48013C4F81431022138
:104D80005420A84794F8543103F0FE0384F85431BA
:104D90004FF4001302215520C4F81431A84794F8A9
:104DA0005531354D03F0FE0384F85531334B344C07
:104DB0009847344B9847344B9847344B9847344B7B
:104DC0009847344B9847636943F400736361324BEF
:104DD0009847324902463248A847324B9847324BEF
:104DE0009847324B9847324B9847324B9847324B53
:104DF0009847324B9847324B9847324B98476369F4
:104E00004FF04008334363612F4EC7F8A480B0478A
:104E10002E4902462E48A847636943F40043636164
:104E2000C7F8A480B0472B4902462B48A847A3697E
:104E300043F40053A361C7F8E880B047274902460E
:104E40002748A847A36943F48043A361C7F8E880D3
:104E5000B047244902462448A847244B9847244B8E
:104E6000BDE8F041184700BF05A3000000800041E5
:104E7000D5430000001C0040B59600003D440000F2
:104E800000080040BD4400004145000065450000A9
:104E9000A5450000C546000035AD000000240040D7
:104EA000800F002039470000B94700003948000052
:104EB000F148000065490000014A0000754A000001
:104EC000394B0000654B000061BF00000038004016
:104ED00064120020003C00405811002000A0014155
:104EE000A00F002000C0014144120020F94B000037
:104EF000294C000030B5CC0801F007015AB1055D1E
:104F000045FA01F2D20711D4012202FA01F1294334
:104F100001551A7030BD025D012505FA01F131EA33
:104F2000020E02BF22EA010101551D7030BD0000D2
:104F300070B50025ADF5027D4FF4007302AA554C03
:104F40005548564E8DF807502946A04754495548B4
:104F5000B0474FF4007302AA29464F48A047524970
:104F60005048524CB0470DF107032A46294602A883
:104F7000A047012211460DF1070302A8A0470DF139
:104F800007032A46022102A8A0470DF107032A467B
:104F9000032102A8A0470DF107032A46042102A815
:104FA000A0470DF107032A46052102A8A0470DF1ED
:104FB00007030122062102A8A0470DF107030122E1
:104FC000072102A8A04708210DEB01000DF10703FE
:104FD0000122A0470DF107030122092102A8A047E1
:104FE0000DF107032A460A2102A8A0470DF1070385
:104FF00001220B2102A8A0470DF1070301220C2179
:1050000002A8A0470DF1070301220D2102A8A04725
:105010000DF1070301220E2102A8A0470DF107039D
:1050200001221A2102A8A0470DF107032A461B21DD
:1050300002A8A0470DF1070301221C2102A8A047E6
:105040000DF1070301221D2102A8A0479DF807309A
:10505000012B19D116491348164CB0474FF4007371
:1050600002AA29460C48A04713490E48B047BFF38F
:105070004F8F1249124BCA6802F4E0621343CB60AF
:10508000BFF34F8F00BFFDE70E490648B0470DF54F
:10509000027D70BD79A900000040800035F100005C
:1050A000360401004704010068040100F54E0000C9
:1050B0007B040100D9A900008D04010000ED00E08F
:1050C0000400FA059A04010070B50A4B0A4D0B4C16
:1050D000984701460A48A0470A492846A0470A4B74
:1050E00098470A492846A047284623460849BDE86C
:1050F0007040184781830000DE04010035F1000094
:10510000AD040100CE040100314F00000305010091
:105110001005010000F1090300F20921002203F843
:10512000012B8B42FBD1022380F810324FF0FF336A
:10513000C0F80C22C0F81432704700F5067300F571
:105140008361002203F8012B8B42FBD1022380F8FC
:105150001C344FF0FF33C0F81824C0F820347047D7
:1051600010B54FF4FE2380E80A00012303720023E8
:1051700080F8103280F81C34024B9847024BBDE88F
:1051800010401847155100003B51000070B54D000C
:10519000002683710446017142714681074B2846FF
:1051A0009847334620600544A84203D1A381238158
:1051B000002070BD20F8023BF6E700BFA5EF00001D
:1051C0002DE9F0470646994600010B4B0B4DDFF8E1
:1051D00030A00F469046984700242860A64202D18E
:1051E0000020BDE8F08728684B4600EB04104246DB
:1051F0003946D0470134F1E7A5EF0000BC2200207A
:105200008D510000324B2DE9F047D3F800804FEA72
:10521000001C08EB0C020024157920462646A24605
:105220004FF6FF7923465FFA84FEAE453FD3B3FBCA
:10523000F5F5ADB28D4238BF30B258F80C4028BFFA
:1052400000B20B4434F8105024F8101090795479BF
:1052500011795789B2F808C05B1BC0F11005B3FB88
:10526000F1F3EDB29EB246FA05F1201AC0B289B24E
:10527000BF1B8140002F1FFA81FEB8BF7F4201266D
:10528000F44506FA05F520D0AF4209DC06FA04F42D
:1052900006FA00F0241AA64502D0BEF1000F14D180
:1052A00001205381A2F808E09081BDE8F0871768DB
:1052B00037F81470BA453CBF7046BA46B9453B440E
:1052C00084BF7646B9460134ADE70020BDE8F087DB
:1052D000BC220020024B1B6803EB0010007B7047D0
:1052E000BC220020084B1A68CB1F02EB0012072BD0
:1052F0004FF0000090819FBF50791389401A43FA04
:1053000000F080B2704700BFBC2200202DE9F041C0
:105310001C4B1D4E04464068984741F21B03002574
:105320006562A56241F20107E55441F20203FF22E2
:1053300004F58050E2540221E2550B30B04704F5E9
:105340008050E25D02210930B04741F2170304F5B5
:105350008056E75C0D4B0336394630469847394650
:1053600002460B4B30469847E5612046094B98476B
:10537000636A234483F8FC576068074BBDE8F0413B
:10538000184700BFD99800004D83000065840000D5
:105390009D840000DD7E0000C9980000F7B5056A15
:1053A00004465DBBC369B3F57A7F36D941F21B036E
:1053B000C35C012B24D13549354B364898472046EC
:1053C000354B98474FF4FA730193FF2300951A4623
:1053D00019463248324DA8474FF4F57140F2CF7666
:1053E0004FF4FA6040F2CE77626AA31893F8FC3764
:1053F0000A2B15D1012323620023E36103B0F0BD22
:10540000836A13B9436A002BE6D02649204B214812
:1054100098472046204B9847DEE70133C361DBE71E
:10542000002BEBD0A56A6B1E9A4211D11E49184B76
:10543000184898472046184B194C98470222C82311
:105440008DE80C0000231A46FF211448A047D5E739
:10545000B24202D10DB91549E9E705F2CF75B5FBA6
:10546000F0F300FB1355254495F8FC370BB11049B8
:10547000DDE7BA4201F1FF3198BF013289B2E36141
:1054800094BF626263620029AED1B7E721050100D3
:1054900035F10000DE0401000D530000EC32002065
:1054A000CF820000450501005E050100790501007D
:1054B0009405010038B5002405460180C4810481AB
:1054C000448184810482448284820A4B084698473E
:1054D000686000B9FEE720462A88A3B29A4204F128
:1054E000010101D8012038BDA4B26B6818550C46E3
:1054F000F2E700BFA5EF00000389028A93429BBF39
:105500000088C018981A801A80B27047028A0389EE
:10551000934210B59CBF04881B199B1A9BB28B4207
:1055200085BF04885218002192FBF4F384BF04FB6A
:1055300013224282084610BD838A4268D154838A6E
:10554000018801339BB2B3FBF1F201FB123383827A
:1055500001207047828A438A934200D0FEE703828B
:10556000012070472DE9F04FD31D8DB023F00703C4
:1055700002AFADEB030D0DF108080446934641461A
:105580004FF4FA600025A1EB08039AB2934500F2AC
:10559000E480002245464FF4FA60164693B29B45DC
:1055A000A36A00F2E8805B44B3FBF0F200FB123325
:1055B000A3626362DFF85892DFF858A28B4A002397
:1055C00023620126B34500F2E08095F80080B8F12F
:1055D000010F40F03C8205EB0B0313F8019CB9F17D
:1055E0000A0F40F034825946814B824E2846984734
:1055F000594682462846B047824540F01D826B7866
:105600000F2B40F00F8107F128064FF0000306F83A
:10561000013DDFF804823346022204212846C047B8
:1056200049467861334602222846C04733463861EE
:10563000022206212846C047C3B2FB617F3BDBB292
:10564000FB60022233460821284697F90C90C04798
:10565000C3B2BB617F3BDBB2BB60022233460C218D
:10566000284697F908A0C04704F580531B781844D2
:1056700000F003027A6043B1012B40F09880BB69CF
:10568000C3F17F08CA464FFA88F941F2190314F8AA
:10569000038041F21A0308F17F08C14414F8038023
:1056A000FB6808F17F08D044812B5FFA89F95FFA23
:1056B00088F802D1BB68812B1FD0DFF860A13B7D49
:1056C0000096022204212846D0474B46022206219A
:1056D00000962846D04743460222082100962846D5
:1056E000D0473B7C009602220A212846D0470096EC
:1056F0007B6802220C212846D0473B7D3E4809EBBF
:10570000032908EB092997F810803C4B08EB09287E
:1057100041469847E8B95946364B2846984704F61B
:10572000E474024659462846354B98475946204668
:10573000344B984768B1DFF8E8902E46731B9BB254
:105740009B454ED8304B2046984741462A482F4B20
:1057500098472C37BD46BDE8F08FA26A1A44B2FBC9
:10576000F0F300FB1323234493F8FC2701F8012BEB
:1057700083F8FC5707E71344B3FBF0F100FB113348
:105780002344013283F8FC6708E718F80630012B40
:105790000AD1ABEB06001FFA80FB49465046FA617E
:1057A0009047FA6908EB06050136B6B20AE7022B04
:1057B0000AD1FB69C3F17F09BB69C3F17F0A4FFAC4
:1057C00089F94FFA8AFA60E7032B09BFFB694FF0AA
:1057D000000AC3F17F03D14614BFD1464FFA83FAC2
:1057E00053E716F8011B2046C847A7E735F100002C
:1057F0008184000065840000EC320020698600008E
:105800009D8400000D550000555500008386000062
:10581000AF050100DE0401003D8600005586000052
:10582000395500000E2B40F0F980AB78072B90D152
:1058300000220221DFF82C9205F10800C84700225F
:105840005FFA80FA0221A81DC84741F21B035FFAE4
:1058500080F8E35C002B7AD141F2010914F8093099
:10586000FF2B1DD17B4B7C48984700F07F0204F54D
:10587000805004F809200221784B0930984741F202
:10588000170304F58059E35CFB6109F1030919462C
:105890004846B047FB69024619464846704B984750
:1058A00041F20203E25C424518D004F580504246C2
:1058B00004F803800221694B0B30984741F217032B
:1058C00004F5805814F8039008F10308494640464F
:1058D000B04749460246624B4046984741F20103B1
:1058E000E35C53452ED1617AEB785B1A063359425B
:1058F00004F5805201F0030103F00303ABF10A0049
:1059000058BF4B421370022100222844554B524D80
:10591000984741F21B030122C4F8FC0FE2542846C9
:105920004C4B9847C0B228704F49504B504898474D
:105930004FF4FA730193002328460093FF2219467F
:105940004C4DA84741F218030122E25401E7627A64
:10595000EB789B1A06335A4202F0030203F003036A
:1059600058BF534204F5805241F202001178205C86
:1059700041F20102A25C524508BF40450CBF4FF006
:1059800001084FF00008ABF10A008B4214BF4FF042
:10599000000808F00108002202212844D4F8FCAFD6
:1059A000C847504503D1B8F1000F7FF4D2AE41F2A1
:1059B0001B034FF0000904F8039041F2010A41F281
:1059C0000203FF2504F58050E554DFF8908004F8C9
:1059D0000A502A4602210B30C04704F5805014F8C3
:1059E0000A2002210930C04741F2170304F580580C
:1059F000E45C08F1030821464046B04721460246D0
:105A0000174B404698470221C8238DE80A004A46B2
:105A10002B4629461048174CA0479AE60222C82375
:105A20008DE80C0000230C48124C1A46FF21A047B9
:105A30001148124B98478CE6104B11489847C823E1
:105A40000193CDF80080FF2300221421E2E70D48E6
:105A5000EFE700BF71820000EC3200204D830000B0
:105A60009D8400001D830000C205010035F1000087
:105A7000DE040100CF820000CA0501001DF2000013
:105A8000000601003306010037B5037E012B0446F2
:105A900010D100250576124B98474FF4FA73019305
:105AA000FF2300951A4619460E480F4DA8470F4888
:105AB0000F4B98470F4B20469847236A73B1626A91
:105AC000A16A0D4B914234BF013202F2D172521AD7
:105AD00092B289B2204698470023236203B030BDBA
:105AE0000D530000EC320020CF8200005F06010061
:105AF0001DF200009D53000065550000F0B543897C
:105B00008589AB4200D0FEE702899A4200D0FEE7C9
:105B1000068AB54216D00488002293B2A34200D36D
:105B2000FEE7AF1897FBF4F104FB11718FB2BE4290
:105B300008D04768795C0A2902F10102EDD1581CAE
:105B400080B2F0BD0020F0BDF0B543898589AB423D
:105B500000D0FEE702899A4200D0FEE7068AB542ED
:105B60001ED001880024A2B28A4200D3FEE72F197A
:105B700097FBF1F301FB13739FB2BE4210D047684D
:105B8000FF5C0A2F04F10104EDD1013393FBF1F422
:105B900001FB14334381531C9BB2C3811846F0BDF3
:105BA0000023FBE783894189994210B5024600D161
:105BB000FEE741681488C85C01339BB2B3FBF4F183
:105BC00004FB1133938110BD82894389934200D035
:105BD000FEE70381012070472DE9F04387B00446BA
:105BE00017464C4D9DF8388000F6CC701E46A847ED
:105BF000394604F6E470A84700229DF84030226040
:105C0000A3729DF83C30637211466660134684F8B7
:105C10000880A2812262E2180133B3F5FA6F82F89C
:105C20002C10F8D100231D46E2180133B3F5FA6FAA
:105C300082F8FC57F8D141F2010004F5805141F29D
:105C40001B030122FF260D70C4F8FC5FE2542654AA
:105C500041F202009045265441F21800255456D1D5
:105C6000E5540D702C4B94F809900F469847042387
:105C700003375FFA89F905930723424627490290C3
:105C8000CDF804900093DFF8A49004960E230396B9
:105C90003846C847224B3846984741F21703C0B2EE
:105CA000E054384614F80390E15C1E4B98475FFAC5
:105CB00089F902461C4B494638469847637A112BAE
:105CC00009D141F21903E55441F21A0304F80380A3
:105CD00007B0BDE8F083637A122B07D141F21903B4
:105CE00004F8038041F21A03E554F1E7637A132BB9
:105CF00006D141F21903E55441F21A03E654E7E7ED
:105D0000637A142BE4D141F21903E654EAE7E25432
:105D1000DEE700BFB5540000818300008C0601005F
:105D200011F40000658400009D840000B9F30000B8
:105D30002DE9FF47012400264FF47A621123264DF6
:105D40000193114602960094244B2548DFF8B08059
:105D5000A8474FF47A6212230193114602940094EB
:105D6000204B2148A8474FF002094FF47A621323D1
:105D700001931146CDF8089000941C4B1C48A8478D
:105D800003274FF47A62142302970193114600947B
:105D9000184B1948A8474FF0FF0A4FF47A62009752
:105DA000334611464046154FCDF808A00196A84746
:105DB0004FF47A623346CDF808A00196CDF80090F2
:105DC00011463846A84741F21B0308F80340FC542B
:105DD00004B0BDE8F08700BFD95B0000C41000200C
:105DE0009812002070100020386D0020C81100208B
:105DF000FC4B002078110020DC3B00201C5C0020C4
:105E0000C42200202DE9F04F93B000F6E47802AFF1
:105E10000646574BF960404698470446002800F074
:105E2000A580544B3B61544B7B61544BBB61544B3D
:105E3000FB61544B3B62544B7B620023C7F808D094
:105E40001D4607F1100141F21B0051F8232012F802
:105E500000E0BEF1000F07D007F1400E0EEB850EFB
:105E600001354EF8182CEDB20133062BEDD1DFF8D9
:105E700034A1002107F12809CBB29D4221D8404628
:105E8000424B984784423AD1DFF81CB14FF00009E9
:105E900007F1280A5FFA89F39D4231D84FF0000AD2
:105EA0001FFA8AF39C42404637D8394BDFF8FC8012
:105EB000984707F128040021CBB29D424BD801201E
:105EC00015E059F82100864201D1FB68ABB100F61C
:105ED000CC70D047844210D90222C8238DE80C0030
:105EE00064222C482C4C00231146A0470020D7F8F0
:105EF00008D04437BD46BDE8F08F0131BCE7FEE76E
:105F00005AF82900864201D1FB681BB1214600F6F0
:105F1000CC70D84709F10109BCE7204B98474FF0F6
:105F20000009834607F128025FFA89F18D4202D801
:105F30000AF1010AB4E752F82900864201D1FB6850
:105F400033B1594600F6CC70154B7A6098477A68A1
:105F500009F10109E8E754F82100864201D1FB6804
:105F600013B100F6CC70C0470131A5E7C1E700BF0F
:105F7000FD5A000098120020386D0020FC4B0020D4
:105F8000DC3B0020C42200201C5C0020495B000098
:105F9000C95B0000EC320020CF820000A55B00004E
:105FA00039550000F95400000D550000555500000A
:105FB0002DE9F04F00F6CC75CFB08146564B284600
:105FC0009847064610B94FB0BDE8F08F09F12C088C
:105FD00009F2FC724346002103F8011B9342FBD1F6
:105FE00003AC4FF4967200214C4BDFF850A12046D1
:105FF000984728464A4B98470027BBB29E422846FE
:106000002BD8484B484F984700250DF10A03022230
:10601000062120468DF80A50B8477F3843B20093D6
:1060200020460DF10A0302220821B8477F3843B207
:1060300001938DF80B502C460DF10C0815F8081043
:10604000022910D1ECB20135ABB2B342F4D33146E0
:1060500009F12C00354B9847B5E7D047E05508F8D3
:10606000010B0137C9E70329EDD10CB90024EAE798
:10607000601C0DF10B022E4B404498475FFA80FAEA
:10608000201D0DF10B0201214044294B9847BAF124
:10609000000FEBD1C0B20F28E8D144440DF10A0340
:1060A000022205212046B8470DF10A0302220721EA
:1060B0002046B8470DF10A035FFA80FB022209214E
:1060C0002046B8470DF10A03804602220B212046E4
:1060D000B847BDF80040174B5FFA88F21021E03254
:1060E00011FB0422602192FBF1F801FB18220199B7
:1060F0005B7A114CC1F5807101F0030101EB830162
:1061000001F00F01C3B2D2B24BEA01014FEA1B10FA
:10611000A047544697E700BFFD5A0000CBEF0000B0
:10612000495B0000C95B00003D860000C9D8000043
:106130001D830000EC320020D1DF0000A55B0000D1
:106140002DE9F04F00F6CC74D7B02046A94B984704
:10615000039010B957B0BDE8F08F0BAD4FF49672B5
:106160000021A54BA54F284698472046A44B9847A9
:106170000026039AB3B29A42204633D8A14BA24ECE
:10618000984700240DF11A030222062128468DF8B3
:106190001A40B0470DF11A035FFA80F80222082175
:1061A0002846B047B8F17F0FC7B21FD1A7F17F02D1
:1061B000D2F1000848EB020827464FF00009934E41
:1061C0008DF81B904C460BAD19F80510022920D113
:1061D0005FFA89F409F10109039A1FFA89F39A42D7
:1061E000F1D8B7E7B847A8550136C2E7B8F1FF0FB5
:1061F00005D1A7F1FF035F425F41A046DDE7B8F19B
:10620000000F03D1B7FA87F77F09D6E72746A046E4
:10621000D3E70329DED10CB90024DBE7601C0DF1C4
:106220001B022844B0475FFA80FB201D0DF11B02C2
:1062300001212844B047BBF1300F5FFA80FA46D104
:10624000601D0DF11B0202212844B047BAF10F0F67
:10625000044620D16E486F4B9847FF2816D1DFF8CF
:10626000C8A16D4BDAF8040001219847054629467C
:106270006A4BDAF804009847DAF804302DB2D8688F
:10628000674B05EB450500EBC5009847E1B2604858
:10629000644B9847C0E7BAF10E0FBDD15C485D4B27
:1062A0009847FF28B8D0604D5B4B68680A21984733
:1062B000044621466868594B98476B6824B2D868F1
:1062C000574B04EB440400EBC4009847A4E7BBF130
:1062D000310F28D1BAF10F0F9ED1601D0DF11B02B5
:1062E00002212844B0475FFA80FAE01D0DF11B023D
:1062F00002212844B047C4B2012C04D151464B4B73
:106300004348984788E7002C86D14148414B98473D
:10631000824503D1FF213E48424B98475146444BAA
:106320003B48984756E7BBF1320F39D1BAF10F0F0E
:106330007FF472AF601D0DF11B0202212844B047AB
:106340005FFA80FAE01D0DF11B0202212844B047DC
:10635000049004F109000DF11B0202212844B0470A
:10636000834604F10B000DF11B0202212844B047C3
:10637000049B304C1A044FEA0B2B02F47F021FFAE5
:106380008BFB42EA0B0252FA80F251462048A047AA
:106390001F48204A904782457FF43EAF514676E73A
:1063A000BBF1400F4CD1BAF10F0F7FF435AFB8F10C
:1063B000000F3FF431AF601D0DF11B020221284494
:1063C000B0478246E01D0DF11B0202212844B04770
:1063D000834604F109000DF11B0202212844B04755
:1063E000154CC3B25FFA8BF25FFA8AF11348A047EB
:1063F00012E700BFFD5A0000CBEF0000A55B0000D4
:10640000495B0000C95B00003D8600001D83000061
:10641000EC32002049810000BF880000C18C0000E0
:10642000E58800007D810000587D0020118100007A
:1064300021810000338100007D670000CC7D0020B9
:10644000BBF1410F3BD1BAF10F0F7FF4E5AEB8F1CC
:10645000000F3FF4E1AE601D0DF11B020221284444
:10646000B0470490E01D0DF11B0202212844B04703
:10647000059004F109000DF11B0202212844B047E8
:10648000834604F10B000DF11B0202212844B047A2
:10649000824604F10D000DF11B0202212844B04791
:1064A0005FFA8AF3C0B2019000939DF814209DF822
:1064B00010102A482A4C5FFA8BF3A047ACE6BBF1D8
:1064C000700F0ED1BAF10F0F7FF4A6AEB8F1000F26
:1064D00002D1002F3FF4A0AE22492348234B984716
:1064E0009AE6BBF1600F0DD1BAF10F0F7FF494AEB5
:1064F000B8F1000F02D1002F3FF48EAE19491A48AF
:106500001B4BECE7BBF1800F7FF486AEBAF10F0FA7
:106510007FF482AEB8F1000F02D1002F3FF47CAEC1
:10652000144B07AA03F1080518685968144603C4F8
:106530000833AB422246F7D118681B7920602371DB
:1065400007A80D4B98470D4B014607A89847012017
:106550000B4B9847034904480A4BC0E7CC7D002009
:106560001167000094330020EC320020A17D000070
:10657000AD840000A606010011F40000C9D8000097
:10658000A9900000197E00002DE9F8438389054693
:1065900013BB00F6CC763046114B98470446D8B171
:1065A0003046104BDFF84890984705F12C07AC8136
:1065B0002C342C44B846A742304609D10A4B9847A0
:1065C000AA896868094B414698470120BDE8F883CD
:1065D000C84707F8010BEEE70020BDE8F88300BFCD
:1065E000FD5A0000495B0000C95B0000E992000011
:1065F000A55B0000014B01221A7070479412002025
:1066000010B544788C421CD9FF2B4FF00C0404FBCE
:1066100001F128BFFF230C4CC06854F823304350CD
:10662000FF2A28BFFF22014454F822304B60BDF8F6
:106630000830FF2B28BFFF23002054F823308B6045
:1066400010BDFF2010BD00BFB837002010B5064CAC
:10665000064B00F11401204698472046044A054B9A
:106660000021BDE81040184714110020F5950000E6
:10667000F5650000E995000040787047F0B50D26FB
:10668000457800213746CBB29D4210D903690322D9
:1066900007FB0133DC7A93F80CE0013A744412F002
:1066A000FF02DC7216FB0533F4D10131EBE7F0BDDC
:1066B00010B54478006904FB02120D24624381186E
:1066C00083549DF808304B709DF80C308B7010BDD2
:1066D00010B5447804FB021201690D2000FB021280
:1066E000D3709DF8083013719DF80C30537110BDB4
:1066F00010B5447804FB021201690D2000FB021260
:1067000093719DF80830D3719DF80C30137210BD51
:106710002DE9F3479DF82C609DF82850DFF854A030
:106720001C461423B6FBF3FECDF804E0B5FBF3FEE4
:10673000B4FBF3F3CDF800E0074688469146D04716
:10674000730801936B0800934A4663084146384634
:10675000DFF824A0D0472346054C0B964A46414615
:106760003846A4460A9502B0BDE8F047604700BF2E
:10677000F1660000B1660000D166000010B54478F3
:1067800004FB021201690D2404FB0212D37210BD36
:1067900010B5447804FB021201690D2404FB0212B7
:1067A000137310BD2DE9F74F05464170CCB20C2094
:1067B0006043903068604F4FB847064600F1900341
:1067C000A8602720EB606043B84706B100B9FEE738
:1067D000002328611946AA68D1540133902BFAD1BD
:1067E0000024454F26466B789C420DD3DFF814B148
:1067F0004FF0000A6B785FFA8AF6B3420AF1010A99
:106800000AD803B0BDE8F08F0023214600961A464F
:106810002846B8470134E6E7002423463146284697
:10682000019400940122D8477F23009331462346E8
:10683000284601940122314FDFF8CC90DFF8CC805C
:10684000B847FF230093314623462846019401228E
:106850002B4FB8472346314628460122C8472346D6
:10686000314628460122C047234631462846019436
:1068700000940222D8477F230093314623462846BE
:10688000019402221D4FB847FF230093314623464F
:106890002846019402221A4FB8472346314628461B
:1068A0000222C8472346314628460222C0472346D3
:1068B00022463146284601940094D8470F4F019450
:1068C00023462246314628460094B84723462246AE
:1068D0003146284601940094094FB8472346224682
:1068E00031462846C8472346224631462846C047F7
:1068F00080E700BFA5EF000001660000D166000040
:10690000F1660000B1660000916700007D6700003D
:1069100070B5284E0546002293B213F0010F14BF44
:106920004FF060604FF0006013F0020F0CBF4FF0AB
:1069300000444FF0604413F0040F44EA00040CBF1D
:106940004FF400204FF4602013F0080F40EA0400D9
:106950000CBF4FF400044FF4600413F0100F40EA32
:1069600004000CBF4FF400644FF4606413F0200F78
:1069700044EA00040CBF4FF400404FF4604013F0B1
:10698000400F44EA00040CBF08200E20DB0914BFAE
:10699000E02380232043034346F822300132B2F53E
:1069A000807FB9D12846044B98472846034B984727
:1069B000002070BDB8370020A56700004D660000BC
:1069C0002DE9F04F04694378DFF8A0A085B00025D9
:1069D0004FF00D09039309FB014403262B462A4679
:1069E000E77A94F803C01AF807E094F800B0574427
:1069F000013E97F8008197F800721CFB08FC0BFB26
:106A00000ECC94F806B00BFB07CC624494F804C09B
:106A100094F801B01CFB08FC0BFB0ECC94F807B0FB
:106A20000BFB07CC634494F805C094F802B01CFB40
:106A300008F80BFB0E8E94F808B00BFB07E73D44FB
:106A4000BDF80C7016F0FF0619FB0744C8D1C5F35A
:106A50004F250095C3F34F23C2F34F22024CA047AA
:106A600005B0BDE8F08F00BF016600000000002007
:106A700070B5064E054600246B789C4200D370BD6D
:106A800021462846B0470134F6E700BFC16900003F
:106A900010B5074B044600221A700648064B98476B
:106AA000A288A1686069054BBDE81040184700BF87
:106AB0009412002014110020DD950000E9920000DE
:106AC0002DE9F04F6A4D6B4BDFF828926A4F6B4C03
:106AD000DFF824B2A3B02846012198476868684BC4
:106AE000002198477822002104A8C8476549664BD1
:106AF00004A8984704A8B84704AB53FA80F822AE1C
:106B000003234FF0000A0093022210235F494046FE
:106B1000A04706F879AD0F230122042100965C4CB2
:106B20004046D847A047009603460222052140462A
:106B3000D84700960123022207214046D8470096F5
:106B40000123022209214046D84702231A460B217D
:106B500000964046D84704A8B8476E68C3B204AA56
:106B6000304601214B4EB0477822514604A8C84711
:106B70004949454B04A8984704A8B847D5F804E00C
:106B8000C3B204AA70460821B0477822514604A82F
:106B9000C84742493C4B04A8984704A8B847D5F8D1
:106BA00004E0C3B204AA70460921B04778225146D6
:106BB00004A8C8473A49344B04A8984704A8B847E2
:106BC000D5F804E0C3B204AA70460A21B04778227F
:106BD000514604A8C84733492B4B04A8984704A83A
:106BE000B8476D68C3B204AA28460B21B0472E4DA2
:106BF0002E492F48A8472F4B4FF48042C3F8182145
:106C0000A0472E4670B92C492948B0472B4B9847CE
:106C10002B4B2C4898472C492C482D4B984723B098
:106C2000BDE8F08FA0470828EDD0A047802804D108
:106C300028491F48B047284BE9E7A0478828F7D0E4
:106C4000A047402804D125491948A847244BDEE72E
:106C5000A047C02804D123491548A847224BD6E7AE
:106C600022491348A84722491148A847D0E700BF46
:106C7000587D00209986000011F40000B9F300004F
:106C800011870000B306010001F40000C4060100F2
:106C900081830000E9870000D6060100EF060100AD
:106CA000000701001907010035F10000320701005B
:106CB0004704010000800041420701007D7C000084
:106CC0000D820000EC320020C00F00209433002021
:106CD0006151000054070100316F00006607010098
:106CE000E578000078070100317400008A07010090
:106CF000A6070100CBEF00005586000010B5044C3C
:106D00000448A04723460448BDE81040184700BF88
:106D10004190000044100020181200202DE9F04F8F
:106D2000654A13788BB0144633B913780133DBB25C
:106D300013700BB0BDE8F08F0023ADF81430ADF840
:106D4000163053785D4A5E4F5E4808330021D65CAA
:106D50006378DBB2F6B2D55C63780133DBB2637083
:106D6000637803F007036370637813F0010F564BE9
:106D70004FF4002214BFC3F81821C3F8142163781C
:106D800013F0020F504B4FF4801214BFC3F81821B8
:106D9000C3F81421637813F0040F4B4B4FF4001227
:106DA00014BFC3F81821C3F81421022305AAB84759
:106DB00002230DF1160200214448B8470023ADF824
:106DC0000C30ADF81030BDF814308DF808604EF678
:106DD0006022EDB293428DF809505BD901238DF802
:106DE0001030BDF816304EF66022934258D9012378
:106DF0008DF81130364B06AD03F11006186859684E
:106E00002A4603C20833B3421546F7D1314DDFF8A5
:106E1000D090002702ABD95D03AB04EB010B17F850
:106E200003809BF802006B6880452BD004AEBE5DEA
:106E3000012E27D10E0133440AAA5B68DFF8A4A013
:106E4000196002EB010E1EF8101C596070BB7F2107
:106E500099616868FF21D961052130441E4B98472C
:106E600003466868019319463044C8476968019B26
:106E70000E441BB2F06803EB430300EBC300D047A2
:106E80008BF802800137022FC4D100232370134BEB
:106E900098474EE7C72BA4D87F238DF80C309DE789
:106EA000C72BA7D87F238DF80D30A0E7002199616B
:106EB000D96168680621D0E72E0600200003002073
:106EC000CD8F0000441000200080004118120020E7
:106ED000B5070100E0320020BF880000FD6C000013
:106EE000C18C0000E58800002DE9F0410B4F0C4CEF
:106EF0000C4E0D4D00223B4611462046B047002265
:106F00003B4611462846B0472046084C0021A04782
:106F1000284623460021BDE8F04118471D6D0000BA
:106F200044100020918F000018120020818F000073
:106F30002DE9F04F1021BDB0274B2848284E984727
:106F400010212748274B984700247068264BDFF80C
:106F5000B4A0DFF8B480DFF8B49025010221284402
:106F6000984773682B4478225B6800211C60684650
:106F7000D0471E496846C0476846C84777685FFAE9
:106F800080FB5B466A4678190521194FB8471949B5
:106F90006846C04770685B466A4606212844B84781
:106FA00078220DEB02000021D04713491EA8C047EC
:106FB0001EA8C847D6F804E0C3B21EAA00210EEBF3
:106FC00005000134B847102CBFD10C4B98470C4B2F
:106FD00098473DB0BDE8F08F11690000CC7D0020DE
:106FE000E03200209986000011870000C5070100EB
:106FF000E9870000F00701001B080100E96E0000AE
:10700000FD6C0000CBEF000001F4000011F4000063
:1070100010B5094B094C4FF400129A612046084BF9
:107020009847084A2046084C0823A44602F10E015E
:10703000BDE81040604700BF00800041380F0020CD
:10704000E1940000400600201D95000000000000B3
:107050002DE9F04F8E4B8F484FF400125A618BB0E0
:107060008D4B98470346FF2808BF00230293894BA6
:10707000DA7A002A40F0B880DFF864924FF0000816
:107080005FFA88F2530802F0010119F80330890011
:107090000B4109EB0801DBB291F85C1003F00F061D
:1070A0008E4200F068817D4918F801407C490A70E1
:1070B0007C4A019203F001032501039353194FEA1F
:1070C000960C59786145C6F340063FD001229A706C
:1070D00083F801C0744B754A5B682B442F465B688C
:1070E0000DF1180A02F1100B10685168D646AEE88F
:1070F000030008325A45F246F6D10AAA22441C601F
:1071000012F8102C5A60BCF1000F40F0B280DFF88A
:1071100098B17F229A61DBF80400FF22DA61052131
:107120003844634B98478246DBF80400614B514674
:1071300038449847DBF804301F440FFA8AFAF8689D
:107140005D4B0AEB4A0A00EBCA009847019B2B44AF
:107150005B7BB34200F09680039B9E4214BF4FF0CE
:10716000FF370127019B9DF80C202B445E739A7317
:10717000002F00F0008199684648504B504E9847C8
:107180000590059B4F48B3F5C87F84BF4FF4C87383
:107190000593059B132B9CBF14230593059B059A10
:1071A00002FB1300484B984737A3D3E90023B047AD
:1071B0000022464B464EB047464B9847464B86B258
:1071C00034489847019B2B441D469860731C13FB61
:1071D00007F39BB27A1C19B240F0DB80EA78CA420E
:1071E00000F1808013447EE00024DC72BDF9089039
:1071F0003A4BDFF8B4A003EB0919D046DAF80430B3
:107200002A4A19F8046025012B4406AF5B6802F195
:10721000100BBC4610685168BE46AEE80300083249
:107220005A457746F6D11CF80420D8F804005A6075
:107230009E60002276001A615A611C60DE600221A5
:1072400028441B4B98470646D8F80400194B314692
:1072500028449847D8F804301D4436B2E868164BE5
:1072600006EB460600EBC60001349847102CC5D14A
:1072700002E7DFF834B000229A61DA61DBF804003B
:1072800006214DE700276DE700000000004CED40AF
:1072900000800041EC3200204981000010030020F2
:1072A000B4220020386C0020E03200203C080100AD
:1072B000BF880000C18C0000E588000075820000D6
:1072C0004DED0000007102000DEA00000000F03FEB
:1072D00095E700001DEF0000718200005C060020B1
:1072E000400600200023EB70029B1B0109EB030208
:1072F0002244127F06FB0721002953DB7F2953DC40
:1073000001F0FF07974236D04B442344274E1F77A6
:107310007368274A25012B440DF1180C5B6802F1B4
:10732000100A10685168E646AEE80300083252457C
:10733000F446F6D10AAA1C601444706814F8102CA4
:107340005A609F6000227F001A615A61DF6002214B
:107350002844184B984704467068174B2146284428
:10736000984773681D4424B2E868144B04EB440446
:1073700000EBC400984708F10108B8F1100F7FF442
:107380007FAE0F4B00221A700E4B98470BB0BDE832
:10739000F08F012FA8D1EA7811447F297FF722AF1F
:1073A0007F23A0E70027ADE77F27ABE7E03200208F
:1073B0003C080100BF880000C18C0000E588000087
:1073C000E87D0020117000000F4B4FF4001210B543
:1073D0005A610E4C9A604FF080429A620C4A9A624F
:1073E000032120460B4B98470B490C4B20469847EE
:1073F0000B490C4B2046984720460B4A0B4B00216B
:10740000BDE81040184700BF00800041380F002041
:10741000200000C005950000801A0600ED940000D1
:10742000B822002081950000517000006595000091
:107430002DE9F04710219EB0364B3748374D98471D
:1074400010213648364B984700246868354BDFF8E2
:10745000FC90354FDFF8F8802044032198477822CC
:1074600000216846C84731496846B8476846C04762
:107470006E68C3B26A46301902212D4EB047782299
:1074800000216846C8472B496846B8476846C04748
:10749000D5F804E05FFA80FA53460EEB04006A4622
:1074A0000521B04724496846B847686853462044D8
:1074B0006A460621B047782200216846C8471F491E
:1074C0006846B8476846C0476F68C3B26A4638190D
:1074D00000211034B047B4F5807FB6D10022184B9C
:1074E000012110464FF0FF341A700132102A5970F2
:1074F0009870D870197158719C601873597399738A
:1075000003F11003F0D10F4B98470F4B98471EB073
:10751000BDE8F08711690000CC7D0020E03200203A
:10752000998600001187000001F400004C0801005A
:10753000E987000077080100A20801001B0801008C
:10754000386C0020C973000011700000CBEF000000
:1075500011F4000010B5044C0448A0472346044829
:10756000BDE81040184700BF4190000044100020C3
:1075700018120020000000002DE9F04FB24A1378E5
:107580008BB033B913780133DBB213700BB0BDE8A5
:10759000F08F0023ADF81430ADF81630AB4BAC498A
:1075A0001A78AC4FAC48DFF8DCB2DFF8DC92AB4EB7
:1075B00008324FF6FF7A8D5C1A78D2B2EDB28C5C4D
:1075C0001A780132D2B21A701A7802F007021A70D1
:1075D0001A7812F0010FA24A4FF4002114BFC2F82A
:1075E0001811C2F814111A7812F0020F9C4A4FF4C5
:1075F000801114BFC2F81811C2F814111B7813F0CF
:10760000040F974B4FF4001214BFC3F81821C3F8AE
:1076100014210021022305AAB84702230DF1160206
:1076200000219048B847BDF81400D84784A3D3E997
:107630000023C847B047504528BF5046ADF8140056
:107640000746BDF81600D8477DA3D3E90023C847F5
:10765000B047E4B25045A4F1080328BF5046012BBF
:10766000ADF816006AD90D2DDFF820827ED90023EF
:10767000ADF80C30ADF810304EF66023043D043CFC
:107680009F428DF808508DF809405DD901238DF88F
:1076900010304EF6602398425CD901238DF81130EA
:1076A000714B06AC18685968224603C2083343453B
:1076B0001446F7D16D4CDFF8D8B1DFF8C0914FF028
:1076C000000802AB13F8085003AB1BF8050018F8CC
:1076D0000360636886422CD004A918F801100129C0
:1076E00027D12F013B440AAA51195B6811F8101CDD
:1076F000DFF88CA11D605960002831D17F2199618C
:107700006068FF21D96105213844C8470346606895
:10771000019319463844D0476168019B0F441BB25E
:10772000F86803EB430300EBC300514B98470BF899
:10773000056008F10108B8F1020FC2D1424A0023E6
:1077400013704C4B984721E7C72FA2D87F238DF8A1
:107750000C309BE7C728A3D87F238DF80D309CE71A
:1077600000219961D96160680621CDE7012CDFF81D
:1077700024915FD8AAEB07012846C847BDF8161028
:10778000AAEB01012046C847374A8DF810508DF802
:10779000114006AB106851681C4603C408324245CC
:1077A0002346F7D1314DDFF8F080334F4FF0000919
:1077B00004AB19F803406B684FEA041A534420469F
:1077C000D3F804B0C04778B307212046B8470AABC6
:1077D0002344CBF8004013F8103CCBF804300721C9
:1077E0002046B8470821CBF808002046B847CBF818
:1077F0000C0068680023CBF81030CBF8143002215D
:1078000050441E4B9847044668681D4B214650441F
:1078100098476B689A4424B2DAF80C00144B04EBD6
:10782000440400EBC400984709F10109B9F1020FC3
:10783000BED183E739462846C847BDF81610A1E7F0
:107840007B14AE47E17AF03FC0220020607D00202B
:1078500021030020CD8F0000441000201DEF000008
:107860000080004118120020CD080100E032002005
:10787000E588000055750000E5520000BF88000053
:10788000C18C00002DEA0000F9EA0000DD080100CB
:10789000AD06002005520000D55200002DE9F04150
:1078A0000B4F0C4C0C4E0D4D00223B461146204612
:1078B000B04700223B4611462846B0472046084CB8
:1078C0000021A047284623460021BDE8F041184783
:1078D0007975000044100020918F000018120020DC
:1078E000818F00002DE9F04F0E229FB00723052164
:1078F000344CDFF80891344FDFF804811020A047A2
:107900000C21324B324898470C213248324B984771
:10791000002426462F4D314B6868072E31D80121AF
:1079200020449847642200216846C8472C49DFF864
:10793000B8A06846B8476846C047D5F804E0C3B267
:107940006A4602210EEB0400D047782200216846E7
:10795000C84724496846B8476846C0476D68C3B2FF
:107960006A4628190021204D0136A8470C2E04F143
:107970001004CFD11D4B98471D4B98471FB0BDE851
:10798000F08F022120449847642200216846C847AE
:107990001849DFF854A06846B8476846C047D5F88C
:1079A00004E05FFA80FB5B466A460EEB04000521AB
:1079B000D04711496846B84768685B466A46062161
:1079C0002044C1E7C151000001F40000116900002A
:1079D000CC7D0020E0320020998600001187000055
:1079E000DD0801001B080100E98700009D78000008
:1079F00055750000C5070100F0070100CBEF00003E
:107A000011F4000010B5044C0448A0472346044874
:107A1000BDE81040184700BF41900000441000200E
:107A200018120020000000002DE9F04F6E4A137874
:107A300087B0144633B913780133DBB2137007B043
:107A4000BDE8F08F0023ADF80430ADF80630537870
:107A5000664A674F6748DFF8CCA1DFF8CC91DFF8C2
:107A6000CC8108330021D65C6378DBB2F6B2D55CFA
:107A700063780133DBB26370637803F007036370EC
:107A8000637813F0010F5C4B4FF4002214BFC3F86E
:107A90001821C3F81421637813F0020F564B4FF4EA
:107AA000801214BFC3F81821C3F81421637813F0AF
:107AB000040F514B4FF4001214BFC3F81821C3F840
:107AC0001421022301AAB84702230DF10602002166
:107AD0004A48B847BDF80400D04741A3D3E9002382
:107AE000C847C0474FF6FF77B84228BF3846ADF8C1
:107AF0000400BDF80600D04739A3D3E90023C847E6
:107B0000C047B84228BF38463D4BADF806009847FD
:107B10000828EDB209D1BDF80430DB43ADF80430DC
:107B2000BDF80630DB43ADF80630BDF80410354F24
:107B30003046B8472846BDF80610B847324B8DF896
:107B400000608DF8015003F1100602AD1868596805
:107B50002A4603C20833B3421546F7D12B4EDFF84D
:107B6000D0802B4F4FF000091DF809B073684FEA21
:107B70000B1A534458465D68C04738B306AB5B44A4
:107B8000C5F800B013F8103C6B6007215846B847A1
:107B90000821A8605846B847E860706800232B6148
:107BA0006B61022150441B4B9847054670681A4B85
:107BB00029465044984773689A442DB2DAF80C006D
:107BC000164B05EB450500EBC500984709F1010987
:107BD000B9F1020FC8D100232370114B98472EE74B
:107BE0007B14AE47E17AF03FBF060020310300204E
:107BF000CD8F0000441000200080004118120020AA
:107C0000818300000552000008090100E0320020D5
:107C1000E5520000BF880000C18C0000E58800002C
:107C2000057A00002DEA0000F9EA00001DEF0000CF
:107C3000D55200002DE9F0410B4F0C4C0C4E0D4D70
:107C400000223B4611462046B04700223B461146E3
:107C50002846B0472046084C0021A0472846234626
:107C60000021BDE8F0411847297A000044100020A7
:107C7000918F000018120020818F00002DE9F0473D
:107C80000E22BCB007230521214C224DDFF8ACA009
:107C90001020A0471021204B2048984710211D4854
:107CA0001F4B984700246868DFF89490DFF89480B1
:107CB0001C4F20440121D047782200216846C84744
:107CC00019496846C0476846B8476E68C3B26A46F5
:107CD00030190221154EB04778220DEB0200002129
:107CE000C84713491EA8C0471EA8B8476F68C3B24B
:107CF0001EAA381900211034B047B4F5807FD2D1C4
:107D00000C4B98470C4B98473CB0BDE8F08700BF40
:107D1000C1510000E032002011690000CC7D00203C
:107D20009986000011F40000DD080100E9870000D9
:107D30001B080100357C0000057A00001187000057
:107D4000CBEF000001F4000000F01F034009C00168
:107D500000F1824000F5004001229A400344426055
:107D600093F8401041F0040183F84010826170479D
:107D70000346407859707047437800EB83004368AE
:107D8000013343607047031D0022243043F8042B65
:107D90008342FBD1704700EB8101486870470000C7
:107DA00030B5ADF5017D0C464FF400720021164B45
:107DB000164D684698474FF4FE21C4F814124FF44C
:107DC00000732068124C6A46A047002311481946E8
:107DD000EC181DF8032084F82C205C1C69B90A2AD1
:107DE00006D1034483F8FC2704628162012104E088
:107DF000FF2AFBD0034483F8FC27B4F5007F234619
:107E0000E6D10DF5017D30BDCBEF00001C5C0020FC
:107E100005910000C42200200B464FF4FE21C3F858
:107E200014121868014B0122184700BFB5910000D9
:107E300083892C3300F12C02034400219A4201D1A2
:107E40008181704702F8011BF8E700000148024BEE
:107E5000184700BFDC3B0020317E00000148024B88
:107E6000184700BFFC4B0020317E00000148024B48
:107E7000184700BF386D0020317E00000148024BDA
:107E8000184700BF98120020317E000001230376BE
:107E90004068014B184700BFD99800000148024BC9
:107EA000184700BFDC3B00208D7E00000148024BDC
:107EB000184700BFFC4B00208D7E00000148024B9C
:107EC000184700BF386D00208D7E00000148024B2E
:107ED000184700BF981200208D7E0000807A0301B1
:107EE00003F1824303F5204300211A6C22F00202C1
:107EF0001A64014B184700BF29A500000148024B36
:107F0000184700BF98120020DD7E00000148024B98
:107F1000184700BF386D0020DD7E00000148024B8D
:107F2000184700BFFC4B0020DD7E00000148024BDB
:107F3000184700BFDC3B0020DD7E00002DE9F04744
:107F40005C202A4CDFF8F080294F2A4E2A4DDFF8BA
:107F5000EC90A0475020A0474C20A0472920A047E4
:107F6000264C274A01214046A047264A012138468F
:107F7000A047254A01213046A047244A012128462E
:107F8000A04701214046C84701213846C847012182
:107F90003046C84701212846C8471D4A02214046AD
:107FA000A0471C4A02213846A0471B4A02213046FE
:107FB000A0471A4A02212846A047194C19494046B1
:107FC000A04719493846A04718493046A0471849E4
:107FD0002846A047174C4046A0473846A0473046A1
:107FE000A04728462346BDE8F0471847497D0000D2
:107FF00070100020C811002078110020F1980000B6
:108000007D7E00006D7E00005D7E00004D7E0000E4
:10801000CD7E0000BD7E0000AD7E00009D7E000094
:10802000E9980000E8320020F84B0020185C00209E
:10803000E47D0020C9980000C4100020359900009C
:10804000F7B54368847A0F46196A104B0546283104
:1080500020461646984705F2FC7120460C4B98477F
:10806000394620460B4B9847214601A80A4B9847B2
:10807000019B01221E6020460021084B98470021E9
:108080002046074B984703B0F0BD00BFB9A40000DD
:10809000A9A40000E5A4000065A5000081A40000DB
:1080A00029A5000010B5104A104C11484FF4FA6190
:1080B000A047104A10484FF4FA61A0470F4A1048F1
:1080C0004FF4FA61A0470F4A0F484FF4FA61A047F6
:1080D0000E4B002283F81F2383F8202383F82123EB
:1080E00083F8222310BD00BFFD7E00004180000008
:1080F000981200200D7F0000386D00201D7F0000C9
:10810000FC4B00202D7F0000DC3B002000E100E064
:10811000042901D9002070470844012343737047A4
:1081200004294FF0000301D91846704708444373EF
:108130007047042901D9002070470844130C437488
:10814000130A437542767047407A7047407F704704
:10815000807F7047C07F704730B5417A00234C1C48
:10816000E21802F0030285186D7B012D02D1D1B215
:10817000084630BD0133042BF2D1F9E72DE9F8436D
:10818000FF294FF00103C37211D17F23417243775E
:108190008377C377194E1A4FDFF86C804FF00009D0
:1081A00073785FFA89F59D420ED3BDE8F88301F03C
:1081B000030143185A7B012AECD141725A7C427761
:1081C0005A7D82775B7EE4E770682D0100212844A8
:1081D000B847FF2804460DD0706821462844C047A0
:1081E00073681D4424B2E868064B04EB440400EBBA
:1081F000C400984709F10109D2E700BFE03200202E
:10820000BF880000E5880000C18C000010B5C822BE
:108210006421002341754276827481753224C275CF
:1082200001750277FF21012242738273C2730274C7
:1082300041778177C177417243748376C474C47681
:108240000376C37203730548054B9847054B98475F
:10825000054B9847054BBDE810401847EC3200200D
:108260007D810000315D00003D7F0000A5800000A1
:10827000006A7047006A401A7047036A013303625C
:108280007047007A7047002303727047837963B99F
:1082900080884008FA380028B8BF4042C0F1FA0090
:1082A000022390FBF3F0C0B27047012B06D1808807
:1082B000FA23B0FBF3F040F30000F4E7022B05D102
:1082C000808864288CBFFF2000207047704710B55D
:1082D000C370BDF80C30838001249DF8083004720F
:1082E00041708270837110BD40787047807870470C
:1082F000C0787047A0F130030246D8B209280CD9E3
:10830000A2F16103052B03D8A2F15700C0B2704758
:1083100011B10A7000207047084670472DE9F041FE
:108320000139DFF82480174606468C000025231DFE
:1083300002D12846BDE8F081394616F8010BC04746
:10834000A0400544043CF2E7F582000030B585B05A
:10835000094B05460C4601A8084998470023DAB2A4
:10836000944201D805B030BD1A1B01A90A44127A03
:10837000EA540133F3E700BFB9F300001809010024
:108380002DE9F74F304E3368013358D12F4C304B25
:10839000304FDFF8CC904FF40055C4F888504FF4BC
:1083A0008042C4F8A8304FF04043C4F8A830C4F865
:1083B00088204FF04022C4F8A820C4F8A8304FF419
:1083C0000043C4F88430244BC4F8A830A3F18023C0
:1083D000C4F8A8300120C4F89450B8474FF0000A00
:1083E000D346A8460120C4F89880B84701A8C847DA
:1083F000D4F88020D4F8A030D4F890505D401540D7
:108400005D4001A8154B98472B0441BF012303FA97
:108410000AF343EA0B0B5FFA8BFBBAF1070F07D0A5
:108420004FF48045C4F898500120B847C4F89450E0
:108430000AF1010ABAF1080FD4D1C6F800B03068C9
:1084400003B0BDE8F08F00BF44030020008000416E
:1084500000200040A9900000008002405F900000D2
:108460005190000010B5024600230339141AA142AE
:1084700001D8184610BD12F8014B6340F6E7000022
:1084800007B5CB1E0DF1070202211844024B984795
:10849000C0B203B05DF804FB1D830000CB1E18447E
:1084A0000221014B184700BF4D8300002DE9F04F1A
:1084B000574B584F584C85B00E4681460846984752
:1084C000032306F5067586F81C3417230093012252
:1084D0000F2352492846B84706F21A2318460022AD
:1084E00002210393A0470022022106F50770A0474E
:1084F000FF22022106F21E20A047FF22022106F5DC
:108500000870A0470022022106F22220A047002284
:10851000022106F50970A0472846414B984709F10A
:108520000D0904464FF00008BB4605EB040A03237F
:108530000093022231233B49374F5046D847201D34
:108540000F2201212844B847601D424602212844D9
:10855000B847E01D19F8012B02212844B8475046BE
:10856000DFF8BCA0D0470323044400930222322347
:108570002D492819D847201D0F2201212844B8472A
:10858000601D424602212844B847E01D99F80320A7
:1085900002212844B84704F1090099F80720022174
:1085A0002844B84704F10B0099F80B200221284415
:1085B000B8472819D04708F10108B8F1040F04445E
:1085C000B3D1621C03980221B8472F1942461749BC
:1085D0003846D8473846D047044421462846144BED
:1085E000984721460246134B28469847C6F8184438
:1085F0002346114C306886F81C844FF4FE212A462D
:10860000A446C6F8201405B0BDE8F04F604700BF8F
:108610003B510000B9F300004D830000C009010088
:1086200011F40000D3090100C4060100E1090100B2
:10863000658400009D8400005191000010B4144630
:1086400008441A462146024B5DF8044B184700BF08
:108650001D83000010B5144608441A462146014BFC
:10866000984710BD4D83000000F12403A43053F857
:10867000042B8A4203D08342F9D1002070470120A5
:10868000704790F8A430013303F01F0380F8A43042
:1086900000EB83004162704738B50C010123037081
:1086A00005464170084B204698471834686000F131
:1086B0000803044400221033A34200D138BD03F85C
:1086C000182C03F8102CF6E7A5EF000038B50123AD
:1086D0000370044681700D4D7820A8470023E060A8
:1086E0001A46E168CA540133782BFAD162602274C9
:1086F0004620A8470023606100F1460203708370A2
:108700000371C37005309042F8D138BDA5EF000069
:1087100070B5044601230370314D617020200E4670
:10872000A84700216060021F1C3042F8041F8242EB
:10873000FBD1F6B9062222729020A847294DE060AD
:108740003146A847E06801211830A847E0680821B1
:108750003030A847E06809214830A847E0680A217E
:108760006030A847E0680B2178302B46BDE87040A8
:108770001847012E0BD1022626723020A84700216F
:10878000E060184DA847E06831461830EDE7022E4A
:108790000FD1032222724820A8470021E060114D2A
:1087A000A847E06805211830A847E0680621303066
:1087B000DBE7032E13D1042222726020A847094D63
:1087C000E0600021A847E06805211830A847E0686C
:1087D00006213030A847E06802214830C5E770BD67
:1087E000A5EF0000CD8600002DE9F04790F808E0E5
:1087F00092B00025FF244FF0180CEFB277451CD340
:10880000FF2C17D00025174629464FF0010C4FF0DA
:1088100002089D421AD124B204EB4404E40000266D
:10882000B542C36839D11C4400236560DAB2914275
:1088300039D8217412B0BDE8F087C6680CFB056614
:108840000135B6788E4208BF3C46D6E717F801EBF3
:10885000BEF1410F19D197F80090B9F1370F12DC32
:1088600001EB81060DF1480A5644A9F130090131A6
:1088700006F848CC06F847EC06F8469C06F8445C37
:1088800006F8458CC9B20135C3E7BEF1420FFAD1F3
:1088900097F80090B9F1350FE1E72344975DDB6865
:1088A0009F550136BCE703EB830265690DEB0200BF
:1088B000AE180768AF50027932710133B6E7F0B5F0
:1088C000067A0023FF221827DDB2B54201D31046F5
:1088D000F0BDC46807FB03440133A4788C4208BF91
:1088E0002A46F1E7037A0BB102234370704710B5B3
:1088F00000224468D3B29C4202F1010201D8E0B2E6
:1089000010BDC468E45CCC54F3E700002DE9F04FDF
:108910008F4EDBB0002203901446B34618277178BF
:10892000D3B28B421DD38B4E002018277278C3B26E
:1089300093422DD21B01002121E0DBF804501D449D
:10894000ED6807FB01514978022900F0658101308B
:10895000DBF8041019440D7AC1B28D42EDD8013212
:10896000DDE71B010020F3E77A4D6D681D44ED68DB
:1089700007FB02525278022A00F051810131754AF8
:1089800052681A44157ACAB29542EDD80130CDE743
:10899000714B0FCB0BAE86E80F00002756F827501F
:1089A00041F2180915F80930012B19D141F21702CB
:1089B000AB1805F6CC7A0493A95C684B50469847EF
:1089C00058B105F5805808F103080022049B197876
:1089D0008A4212D35046624B9847002305F809306B
:1089E0000137042FDAD1039B1B680F2B0ED9039A92
:1089F000013B13605BB0BDE8F08F18F8011B594BC9
:108A0000059250469847059A0132DFE713B1039A61
:108A1000013B1360002CEDD00FAD4FF49672002196
:108A2000514BDFF85C91DFF85C81504F2846984746
:108A30001723009301220F234D492846C8470DF103
:108A400022040026022211460094334628468DF85F
:108A50002260B84798F8A5300094022204212846E5
:108A6000B84700947F23022206212846B847009485
:108A70007F23022208212846B84798F80030009446
:108A800002220A212846B8470094334602220C21CC
:108A90002846B8472846374B9847B24684B2CDF8A7
:108AA00018900797CDF814802A4B5B78F7B29F4255
:108AB00029D300279BF80130FEB29E4264D23601D2
:108AC0004FF000083AE0C82C11D82B4B09A8984762
:108AD000204B5A683A441821D26801FB09F94A44EC
:108AE0005278022A00F09E8009A8244B984708F18A
:108AF0000108184B5B683B445FFA88F91A7A4A45CB
:108B0000E1D80136D0E73F014FF00008F1E7C82C6B
:108B100012D8194B0AA89847DBF8042032441821D0
:108B2000D26801FB09F31A4404935278022A00F038
:108B300096800AA8114B984708F10108DBF8043029
:108B400033445FFA88F91A7A4A45E0D80137B1E729
:108B5000E0320020587D0020E80901000D5500009A
:108B60005555000039550000CBEF00005586000038
:108B7000C009010011F40000519000005F90000056
:108B8000B9F30000EC320020BAF1000F3FF432AF2D
:108B9000039B039A1B68079F5B000A331360059BC6
:108BA000059A93F8A5300133DBB282F8A530022292
:108BB0000DF12303114600930026631C28468DF80F
:108BC0002360B8472F1904223349069B384698473B
:108BD000324B384698470444A4B22146304B2846CD
:108BE0009847214602462F4B2846984721462E4853
:108BF0002E4B984700283FF4FDAE2B4FDFF8BC808A
:108C0000B3B29C4203D82A4B27489847F2E6A95DA5
:108C10003846C0470136F3E70134E4B297E6013441
:108C2000E4B2ABE6234B596839440FABC8681A1954
:108C30001146214B049248449847049A174B10461A
:108C400098471C4B5A683A440AF1010AD3684B44CE
:108C5000044401225FFA8AFAA4B25A7044E7DBF8AE
:108C60000410049B314405EB0409C86849461844C4
:108C7000114B9847094B48469847DBF8042032448B
:108C80000AF1010AD368049A1344044401225FFAEA
:108C90008AFAA4B25A704CE7E109010011F400000D
:108CA000658400009D840000A83200200D5500005E
:108CB00055550000587D0020EF8800003955000010
:108CC0002DE9F04FFF2985B006460CD001EB41019C
:108CD0002B4F2C4C4FEAC1090025F1684944EAB2F8
:108CE0000B7C934203D8002005B0BDE8F08F02EB67
:108CF00082034A69D1F80C801A445378412B0FD172
:108D00009178736804A84FF0000E53F82130117960
:108D1000D27800F801ED00904046B8470135DCE715
:108D2000422BFBD1937892F804A092F803B05BB980
:108D3000154B2046984704AB002203F8012D5146FD
:108D400000935A460346E7E7012B02D120460F4B1A
:108D5000F0E7022B02D120460D4BEBE7032B02D1AB
:108D600020460C4BE6E7042B02D1A07AC0B2E2E722
:108D7000052B02D12046084BDCE70020DBE700BFD3
:108D800055860000EC320020498100004D81000032
:108D9000518100005581000059810000002070477A
:108DA00013B5064CADF8040005490020A04705495D
:108DB0000120A047002002B010BD00BFF5D8000080
:108DC000198E00009D8D000013B502224FF496739A
:108DD0008DE80C00FF23002219460348034CA047EE
:108DE000002002B010BD00BFEC320020CF82000096
:108DF00013B502224FF496738DE80C00FF22002376
:108E000011460348034CA047002002B010BD00BF2C
:108E1000EC320020CF820000002070470149024B55
:108E200003201847A18D0000F5D8000010B5054CAF
:108E300005490020A047234604490120BDE8104011
:108E4000184700BF19E00000F18D0000C98D000037
:108E5000836903B118477047C36903B11847704766
:108E60002DE9F14F036AD0F828805C5CDFF854905C
:108E700004EB4404E40008EB040505F1040A06468B
:108E80000F465046D1B29346C84730460C4B9847E0
:108E9000012806D94FEA1B215046C847AB8A013347
:108EA000AB82AB8A0133AB8258F804302BB1394620
:108EB000304601B0BDE8F04F184701B0BDE8F08F73
:108EC00059A20000799F000070B50446FF260020DB
:108ED000C5B201305655C5B2AB42F9D284F8243040
:108EE0009DF8103084F82530059BA362226220464D
:108EF000044B984728B9044BA360044B2360044BF0
:108F0000636070BD99A10000618E0000518E000069
:108F1000598E0000F8B50F46D0F820E011461EF833
:108F20000720FF2A05461AD190F824200020044685
:108F3000C6B2964216D995F82520A2421AD304EB60
:108F40004406A86AF60030441A4604300B4B984792
:108F500028B92B6ADC55AB6A1E44B082F8BD6FF0AD
:108F60000C00F8BD1EF80660FF2E1CBF0134E4B2F1
:108F70000130DDE76FF01B00F8BD00BF3F9F000030
:108F800008B5024B9847002008BD00BF4DA2000065
:108F9000012A38B513D004D3022A12D06FF00C0086
:108FA00038BD046A856A645C04EB440445F83430D7
:108FB000003318BF0123044CA047002038BD836153
:108FC000F6E7C361F4E700BF85A200002DE9F3478F
:108FD00004461F46154BDFF864A00D46904698479F
:108FE000236A5D5DA36A05EB450503EBC50501A892
:108FF0000F4B2E1D98470F4B304698470E4B81461E
:1090000001A898470024A145A2B201D0BC4206D1D4
:10901000AB8AA0B29B1AAB8202B0BDE8F08708EB26
:1090200004013046D0470134EDE700BF59A20000EB
:10903000519000009F9F00005F900000579F00002C
:1090400008B5024B9847002008BD00BF6DA2000084
:10905000EFF31083036072B6BFF35F8F7047BFF307
:109060005F8F036883F3108870470000004B184738
:10907000A1A50000014B1860014B1847C406002051
:10908000F1BB0000054B10B51C68054B9847054B1C
:1090900001462046BDE81040184700BFC406002026
:1090A000F1A2000005BC0000054B10B51C68054B83
:1090B0009847054B01462046BDE81040184700BFC1
:1090C000C4060020F9A2000005BC0000004B1847B0
:1090D000A9A50000436903B118477047836903B12C
:1090E0001847704710B5044B0446984718B9034B0E
:1090F0002360034B636010BD3DA70000D5900000C6
:10910000DD9000002DE9F0411F460E4B0D4606464E
:10911000904698470C4B0446304698476043A84217
:109120000BD3EB19984208D330463B4642462946BA
:10913000064CA0470020BDE8F0816FF00D00BDE8AF
:10914000F08100BF89A700008FA7000097A700004B
:109150002DE9F0411F46134B0D46064690469847B1
:10916000114B0446304698476043A84211D3EB198F
:1091700098420ED3294630460C4B9847044660B9B6
:10918000294630463B464246094DA8472046BDE8A1
:10919000F0816FF00D00BDE8F0816FF01000BDE8C8
:1091A000F08100BF89A700008FA700002DA9000053
:1091B000B5A700002DE9F843134C0E46804617462C
:1091C000A047124B05464046984781464046A04777
:1091D000013810EA060410D06FF00D00BDE8F883E6
:1091E000B6FBF5F53D44A94509D340463A4631461C
:1091F000074B98472046BDE8F883B945F0D26FF099
:109200000C00BDE8F88300BF89A700008FA700000D
:1092100085A800001FB5838AADF804304FF40043E1
:10922000ADF806300391054B029201A92838144687
:109230009847002808BF204604B010BD89B500003B
:109240001FB5838AADF8043048F20103ADF806304B
:109250000391054B029201A928381446984700282B
:1092600008BF204604B010BD89B500004288D20571
:1092700002D4436B03B1184770474288D20502D429
:10928000836B03B1184770474288D20502D4036B41
:1092900003B118477047000070B50C4B044698475F
:1092A000054680B90A4BE3620A4BA3620A4A0B4E99
:1092B00001212046B0470A4A02212046B047094A08
:1092C00029462046B047284670BD00BF25B500009E
:1092D00041920000159200006D92000049B6000016
:1092E0007B92000089920000036818474368184782
:1092F000004B18478DAB000010B51023002484618B
:109300004161C261046203720121024B2038984717
:10931000204610BD69B9000038B50025A0F1200431
:109320001023C261816145610562037201212046FB
:10933000044B984740F2FF112046034B98472846BC
:1093400038BD00BF79B9000099B9000070B50C4B69
:1093500004460E460021051F98470021094B204670
:109360009847094B002120469847002384F828306D
:10937000236B23B131462846BDE87040184770BDC5
:1093800069B9000079B9000089B90000026CC36BAB
:109390009A4210B504460BD3064B00219847002390
:1093A00084F82830E36A1BB1201FBDE8104018473D
:1093B00010BD00BF89B9000070B5866B1A4B04461A
:1093C000EEB10279056C012A05F10102026412D89E
:1093D00098477055216CE36B994217D2626B134B1F
:1093E00092B12079012894BF515C32F811102046C7
:1093F000BDE870401847984726F81500EAE79847F7
:10940000236C01332364E5E7E188F0E7084B002192
:1094100020469847002384F82830E36A1BB1201FB8
:10942000BDE87040184770BDA1B9000099B90000AF
:1094300079B9000070B50379416B0D4A012B036CBB
:1094400003F101050446056494BFC95C31F81310AB
:109450009047226CE36B9A4209D100212046054BCC
:10946000984720460121044BBDE87040184770BD65
:1094700099B9000069B9000089B9000070B50446C7
:10948000064644F8041F0E4B20469847002815DB7B
:109490000C4D0D4A00212046A8470C4A01212046C8
:1094A000A8470B4A02212046A8470A4A0321204622
:1094B000A847094BB362094B7362002070BD00BF1F
:1094C000ADB80000A9B9000035940000B9930000C0
:1094D0008D9300004D93000019930000F992000055
:1094E0000430014B184700BF39B9000090F82C3008
:1094F000DB0602D40430024B18476FF003007047BC
:1095000055B9000090F82C30DB0602D40430024B31
:1095100018476FF0030070474DB9000070B504465E
:10952000C263A163036400234364051D102380F814
:109530002C300E46094B012128469847084B56B15E
:10954000227A012A626C94BFB15C36F81210284668
:109550009847002070BD6189F9E700BF79B9000024
:1095600099B9000009B9026370474263003218BF1D
:10957000012203210430014B184700BFB3B900009A
:10958000243008600020704710B4044C1346A446F1
:1095900000221C385DF8044B604700BFF9BA000098
:1095A00010B4044C1346A4460A461C3800215DF84A
:1095B000044B6047F9BA000010B5054B044640F86B
:1095C000041F984718B9034B6362034B236210BD15
:1095D000C5B90000A1950000899500000430014B39
:1095E000184700BF89BA00000430014B184700BF7C
:1095F00095BA00002030086000207047F0B505687B
:109600001DB90F4BBDE8F0401847D1F808E02C46D3
:109610000026C2F1010C6368A768934295BFDB196D
:1096200063449B1ADB19734507D22368264613B996
:109630003046044BE6E71C46EDE7A542F8D1E0E7EB
:109640000B9F0000139F00002DE9F0470669037E81
:1096500044690136DA070546066110D4037E9B078C
:109660000DD4DFF84880DFF8489000F1140724B1EA
:109670006368A268F31A934207D2BDE8F0872B7E95
:1096800043F002032B76BDE8F0873846C047237CC1
:10969000012B04D16660324621463846C847D5F8CA
:1096A00014A0E368204698475446E0E7339F000043
:1096B000FD95000010B51368044640F8042B984748
:1096C0000020024B6061636010BD00BF499600003E
:1096D000036870B5061D05469B69304698470446E9
:1096E00028B92B6830469B689847204670BD6FF0BC
:1096F000100070BDF7B5037F00F1180643F00103B9
:1097000003770446154B30460F469847054638B157
:10971000237F03F0FE0323776FF0110003B0F0BD49
:1097200062690F4B7A60304639469847237F03F0D1
:10973000FE032377207F10F00200EFD001A8094B31
:109740009847237F03F0FD0323772368201DDB69FF
:10975000984701A8044B98472846DFE7FD9E000084
:10976000FD950000519000005F900000034600222C
:109770009A62DB69083803B1184770470346002234
:109780009A625B6A083803B11847704770B504469F
:10979000054BA0F108052C309847236A1BB12846D9
:1097A000BDE87040184770BD799F000010B5B0F853
:1097B0004C301446B0F844209A420CD10023A0F853
:1097C000443001238164A0F84C4003630830034B0C
:1097D0009847204610BD6FF01B0010BDE3B4000099
:1097E000838FB0F844209A4210B504460AD0026C28
:1097F000591C8187D15C044B9847044B2046BDE837
:1098000010401847024BFAE7B7B40000E3B4000079
:10981000EBB400002DE9F74305460F4BDFF8449009
:1098200001A834358846164698470C4B2846984779
:109830000B4B074601A898470024A74201D0B44229
:1098400003D1A0B203B0BDE8F08308EB04012846C1
:10985000C8470134F1E700BF519000009F9F00000E
:109860005F900000579F000038B504460D46343025
:1098700011461A460C4B984790B9294604F1080046
:109880000A4B984770B90A4B63600A4B23600A4B36
:10989000A3600A4BE3600A4B23610A4B636138BD46
:1098A0006FF00C0038BD00BF3F9F00000DB40000FA
:1098B00015980000AD970000E19700008D9700001B
:1098C0006D9700007D97000008B50830014B984760
:1098D000002008BD85B4000008B50830014B98474A
:1098E000002008BD99B40000086000207047000007
:1098F000012908B50FD004D3022912D06FF00C0053
:1099000008BD8262003218BF012201210830084BD5
:109910009847002008BD4262003218BF0122022190
:10992000F4E7C262003218BF01220321EEE700BF54
:10993000F3B4000008B50830014B9847002008BD7B
:10994000A5B400002DE9F8430F4C0F46164600F170
:109950000805A1462846A0470028FBD0DFF8308044
:109960000024395D2846C0472846C8470028FBD058
:109970000134B442F5D3054E2846B0470028FBD049
:109980002046BDE8F88300BFC5B40000CFB4000096
:10999000B1B400002DE9F843DFF82890DFF8288003
:1099A0000F461646002400F108052846C84700283F
:1099B000FBD02846C04738550134B442F5D3204681
:1099C000BDE8F883D9B40000BDB4000010B5054B64
:1099D00004460830984718B9034B6360034B236073
:1099E00010BD00BF01B4000095990000459900002A
:1099F00008B50830014B9847002008BD71B400003D
:109A00000A4970B5002300F00F065D014C195AB2E7
:109A10006478844208D06D5C0DB9A64204D001334D
:109A20000D2BF2D14FF0FF32104670BDC80600205A
:109A30000020704770B5094B04460D469847084B07
:109A400003EB40108378032B05D183692946204618
:109A5000BDE870401847002070BD00BF019A0000AB
:109A6000C80600202DE9F0433C4B3D4C85B08046B4
:109A70000F469146984703464601002F49D1A51944
:109A8000A15DEF7000293BD1AA786878EE69032ABE
:109A90004FF00C0E4FF020022BD112FB03E22244B8
:109AA000012195F90C70B0476B7878B10522002F31
:109AB000AA704FF00202B4BF184643F08000EA706B
:109AC0000121284B984705B0BDE8F083002FACBFBB
:109AD00043F0800303F00F0304228DF80C300123C0
