S0150000677269645F746F706C6576656C2E737265639F
S214004000487D0120F5420000F1420000F142000028
S214004010F1420000F1420000F14200000000000002
S214004020000000000000000000000000F142000058
S214004030F142000000000000F1420000F1420000E2
S214004040F1420000F1420000F1420000F14200009F
S214004050F1420000F1420000F1420000F14200008F
S214004060F1420000F1420000F1420000959F00007E
S214004070F1420000F1420000F1420000F14200006F
S214004080F1420000F1420000F1420000F14200005F
S214004090F1420000F1420000F1420000F14200004F
S2140040A0F1420000F1420000F1420000F14200003F
S2140040B0F1420000C99B00009D9B0000C9990000CA
S2140040C0D1990000D9990000E1990000E999000013
S2140040D0F1420000F1420000F1420000F14200000F
S2140040E0F1420000F1420000000000000000000065
S2140040F0000000003D9E0000DDA80000D5A80000DE
S214004100CDA80000BDA8000005A90000FDA800007D
S214004110F5A80000E5A80000F1420000F14200000A
S214004120F1420000F142000061A9000059A9000018
S21400413051A900000DA9000089A9000081A900006E
S21400414079A9000069A9000005AA0000FDA90000E1
S214004150F5A9000091A900002DAA000025AA0000DC
S2140041601DAA00000DAA0000F1420000F142000066
S214004170F1420000F14200000000000000000000D4
S2140041807DC0000085C000008DC0000095C0000006
S21400419000000000F1420000F1420000F142000081
S2140041A0F1420000F1420000F1420000F14200003E
S2140041B0F1420000F1420000F1420000F14200002E
S2140041C0F1420000F1420000F1420000F14200001E
S2140041D0F1420000F1420000F1420000F14200000E
S2140041E0F1420000F1420000F1420000C1B10000BF
S2140041F0D1B10000E1B10000F1B10000F1420000D1
S214004200F1420000F1420000F1420000F1420000DD
S214004210F1420000F142000005970000F59600000C
S2140042201D9700000D970000F1420000F1420000CB
S214004230F1420000F1420000F1420000F1420000AD
S214004240F1420000F1420000F1420000F14200009D
S214004250F1420000F1420000F1420000F14200008D
S214004260F142000010B5054C237833B9044B13B166
S2140042700448AFF300800123237010BDC005002062
S21400428000000000A00501000C4B43B10C480D498E
S21400429010B5AFF300800C48036823B910BD0A4878
S2140042A0036833B97047094B002BF7D0BDE81040C0
S2140042B01847064B002BF5D0184700BF000000003B
S2140042C0A0050100C4050020A005010000000000B4
S2140042D010B5044B9847044B9847044BBDE8104074
S2140042E0184700BF4D4C0000EDDE000021CE000058
S2140042F0FEE7000008B5144A144B9A4218D1144B36
S214004300144A002193421CD3134A144B22F07F0216
S2140043109A60D3F8882042F47002C3F88820BFF36E
S2140043204F8FBFF36F8F0E4B98470E4B9847FEE7A5
S2140043300D49043A8B42E2D252F8040F43F8040BBC
S214004340F8E743F8041BDDE7A005010000000020A5
S214004350C0050020447D00200040000000ED00E085
S214004360C9E60000A1C90000B805002030B54A1C07
S214004370C4B2C0F34712164804F01F0300EBC21085
S21400438007D1184490F8403003F0FE0380F8403020
S21400439030BDC5185B0895F8402002F0FE021844B0
S2140043A042F0010285F8402090F8303014F0010FFA
S2140043B019BF03F00F0343EA011101F00F0103F0E8
S2140043C0F00314BFC9B2194380F8301030BD00BFE7
S2140043D00080004101224309914200F01F0002FACA
S2140043E000F011D002D302291FD07047DB0103F181
S2140043F0824303F50043586082B242F08042000CCC
S2140044009A6240F040400EE0DB0182B203F1824344
S21400441003F5004342F0804242F4003258609A624C
S214004420054A42EA104098627047DB0103F1824376
S21400443003F500439860DFE7000002C0F0B5144AB9
S214004440144E136A144D1549154F43F0800313623A
S214004450144B85B04122C3F82021134B019300244E
S214004460012300933246234602942846B847721C1E
S2140044702146102328460D4DA847214607200C4B01
S21400448098470C490C4B072005B0BDE8F04018478C
S21400449000080040DC050020C40F0020001C00437C
S2140044A029840000001C0040C01000207584000015
S2140044B0D5430000010007006D430000F0B5154A23
S2140044C0154E136A154D1649164F43F48073136242
S2140044D0154B85B04122C3F82421144B01930024C8
S2140044E00123009306F11102234602942846B8479A
S2140044F006F112022146102328460D4DA8472146F4
S21400450042200C4B98470C490C4B422005B0BDE8A6
S214004510F040184700080040DC05002098110020F5
S2140045200020004329840000001C0040600F00208B
S21400453075840000D5430000010042006D43000072
S214004540044A05499369054843F002039361044B06
S214004550184700BF00080040002000415C0F002004
S214004560CD850000084B4022C3F8AC20C3F8B0202D
S214004570C3F8B420C3F8B820044A936943F0800314
S2140045809361034B184700BF001C00400008004022
S2140045902D860000024A136943F0400313617047FA
S2140045A00008004010B5044B984704490448054BE2
S2140045B0BDE81040184700BF954500000040004188
S2140045C0400F00204586000070B52D4C2D4E2E4D18
S2140045D001212B20B04794F8CB302C4903F0FB0385
S2140045E084F8CB302B20A84702210820B0474FF490
S2140045F08073636194F84830254903F0FB0384F820
S21400460048300820A84702210920B0474FF400731D
S214004610636194F849301F4903F0FB0384F849307E
S2140046200920A84702210A20B0474FF4806363613F
S21400463094F84A30184903F0FB0384F84A300A20FD
S214004640A84702210B20B0474FF40063636194F83B
S2140046504B30124903F0FB0384F84B300B20A8477D
S21400466001212A20B04794F8CA300D4903F0FB0315
S21400467084F8CA302A202B46BDE87040184700BF91
S21400468000800041D54300006D43000007002B006A
S214004690070008000700090007000A0007000B00D3
S2140046A007002A00064B1A6942F400521A611A697A
S2140046B042F400121A61DA6942F40052DA61704775
S2140046C00008004010B5054B9847054B05490648BD
S2140046D09847064BBDE81040184700BFA5460000A7
S2140046E0418700000034004204120020C945000043
S2140046F0064B4122C3F89C204222C3F88C20044A71
S214004700536943F480535361704700BF001C004058
S2140047100008004010B5054C05495120A047234627
S21400472004495020BDE81040184700BF6D43000004
S214004730030051000300500013B5074B074C984781
S21400474000230093064A074907481023A047074B53
S21400475002B0BDE810401847F1460000B98C0000D2
S214004760FE05002000300040F00F00201547000036
S214004770064B4122C3F8A0204222C3F88C20044AEC
S214004780536943F400535361704700BF001C004058
S2140047900008004010B5054C05495B20A04723469D
S2140047A004495C20BDE81040184700BF6D43000078
S2140047B002005B0002005C0013B5074B074C9847ED
S2140047C000230093064A074907481023A047074BD3
S2140047D002B0BDE81040184771470000B98C0000D1
S2140047E00E060020003400404410002095470000CC
S2140047F010B5054C05493920A04723460449382002
S214004800BDE81040184700BF6D43000003003900A4
S21400481003003800064B4122C3F8DC204222C3F8CE
S2140048208C20044A936943F400739361704700BF79
S214004830001C00400008004010B5054B9847054B8B
S2140048400549064800229847054BBDE81040184722
S214004850154800001D8E000000200141B80F002002
S214004860F147000070B5134C134E144D4FF48013EF
S214004870C4F8943002213420B04711493420A847A8
S2140048804FF40013C4F8943002213520B0470D4988
S2140048903520A84701211420B04794F854300A491F
S2140048A003F0FB0384F8543014202B46BDE8704018
S2140048B0184700BF00800041D54300006D4300004C
S2140048C0020034000200350003001400064B4122AB
S2140048D0C3F8E0204322C3F88C20044A936943F4CB
S2140048E080639361704700BF001C004000080040D2
S2140048F010B5054B9847054B054906489847064BA3
S214004900BDE81040184700BFCD480000CD88000025
S21400491000400141B80E002065480000064B4122C9
S214004920C3F808214222C3F88C20044A136A43F0D5
S21400493001031362704700BF001C004000080040DF
S21400494010B5054C05492820A047234604492920D0
S214004950BDE81040184700BF6D4300000300280064
S2140049600300290013B5084B084C98470023009312
S214004970074A084810234FF08641A047064B02B06E
S214004980BDE81040184700BF1D490000B98C000064
S2140049901E060020F81000204149000070B50B4CA0
S2140049A00B4D94F857300B4903F0FB0384F857304F
S2140049B01720A84794F85630074903F0FB0384F8FD
S2140049C0563016202B46BDE8704018470080004140
S2140049D06D4300000300170003001600064B41223B
S2140049E0C3F80C214222C3F88C20044A136A43F011
S2140049F002031362704700BF001C0040000800401E
S214004A0010B5054B9847054B054906489847064B91
S214004A10BDE81040184700BFDD490000E9860000E9
S214004A2000040043780F00209D490000064B4122F9
S214004A30C3F810214222C3F88C20044A136A43F0BC
S214004A4004031362704700BF001C004000080040CB
S214004A5010B5054C05494D20A047234604494C2077
S214004A60BDE81040184700BF6D43000003004D002E
S214004A7003004C0013B5074B074C984700230093E0
S214004A80064A074907481023A047074B02B0BDE86F
S214004A90104018472D4A0000B98C00002E06002052
S214004AA00008004348110020514A000070B5134C1E
S214004AB0134E144D4FF08043C4F8943002213E202C
S214004AC0B04711493E20A8474FF00043C4F8943041
S214004AD002213F20B0470D493F20A84701211E2054
S214004AE0B04794F85E300A4903F0FB0384F85E3062
S214004AF01E202B46BDE87040184700BF00800041CE
S214004B00D54300006D43000002003E0002003F0057
S214004B1002001E00064B4122C3F814214222C3F8AD
S214004B208C20044A136A43F008031362704700BFE0
S214004B30001C00400008004010B5054B9847054B88
S214004B40054906489847064BBDE81040184700BF81
S214004B50154B0000098A0000000C0043941000204A
S214004B60AD4A00000148024B184700BF10E000E0C5
S214004B70D585000070B50221114C124E124D18203A
S214004B80B0474FF08073636194F858300F4903F0D4
S214004B90FB0384F858301820A84702211920B04794
S214004BA04FF00073636194F85930094903F0FB0332
S214004BB084F8593019202B46BDE87040184700BFCE
S214004BC000800041D54300006D4300000700180038
S214004BD007001900074B4122C3F8A820A3F5A053ED
S214004BE01A6942F480621A619A6942F001029A6177
S214004BF0704700BF001C004010B5044B9847044B9C
S214004C009847044BBDE81040184700BFD54B00003E
S214004C1049900000754B0000024A536943F48073C4
S214004C20536170470008004010B5044B984704488D
S214004C30044B0360BDE81040034B1847194C0000B6
S214004C4040100020002000409DC000002DE9F041EB
S214004C50854B864C864D874F9847202363610221FB
S214004C600520A84794F8453003F0FE0384F8453045
S214004C7001211520A84794F8553003F0FB0384F86B
S214004C80553094F8553003F0FE0384F85530012172
S214004C902720A84794F8C73003F0FB0384F8C730F2
S214004CA094F8C73003F0FE0384F8C7304FF400537F
S214004CB0C4F8943002212D20A84794F8CD304FF444
S214004CC0804603F0FE0384F8CD300221C4F89460D9
S214004CD02E20A84794F8CE3003F0FE0384F8CE309A
S214004CE001212F20A84794F8CF3003F0FB0384F867
S214004CF0CF3094F8CF3003F0FE0384F8CF30012194
S214004D004B20A8474FF40062C4F8042194F84B31B6
S214004D1043F0040384F84B31C4F8182194F84B315F
S214004D2003F0FE0384F84B310221C4F814614E20D0
S214004D30A84794F84E3103F0FE0384F84E31012163
S214004D405220A84794F8523103F0FB0384F85231FE
S214004D5094F8523103F0FE0384F852314FF40023E6
S214004D60C4F8143102215320A84794F8533103F0B5
S214004D70FE0384F853314FF48013C4F81431022133
S214004D805420A84794F8543103F0FE0384F85431B5
S214004D904FF4001302215520C4F81431A84794F8A4
S214004DA05531354D03F0FE0384F85531334B344C02
S214004DB09847344B9847344B9847344B9847344B76
S214004DC09847344B9847636943F400736361324BEA
S214004DD09847324902463248A847324B9847324BEA
S214004DE09847324B9847324B9847324B9847324B4E
S214004DF09847324B9847324B9847324B98476369EF
S214004E004FF04008334363612F4EC7F8A480B04785
S214004E102E4902462E48A847636943F4004363615F
S214004E20C7F8A480B0472B4902462B48A847A36979
S214004E3043F40053A361C7F8E880B0472749024609
S214004E402748A847A36943F48043A361C7F8E880CE
S214004E50B047244902462448A847244B9847244B89
S214004E60BDE8F041184700BF55970000008000419C
S214004E70D5430000001C0040058B00003D440000A8
S214004E8000080040BD4400004145000065450000A4
S214004E90A5450000C54600008D9F00000024004088
S214004EA0000F002039470000B947000039480000CD
S214004EB0F148000065490000014A0000754A0000FC
S214004EC0394B0000654B0000B9B1000000380040C7
S214004ED0E4110020003C0040D810002000A0014152
S214004EE0200F002000C00141C4110020F94B000033
S214004EF0294C000030B5CC0801F007015AB1055D19
S214004F0045FA01F2D20711D4012202FA01F129432F
S214004F1001551A7030BD025D012505FA01F131EA2E
S214004F20020E02BF22EA010101551D7030BD0000CD
S214004F3070B50025ADF5027D4FF4007302AA554CFE
S214004F405548564E8DF807502946A04754495548AF
S214004F50B0474FF4007302AA29464F48A04752496B
S214004F605048524CB0470DF107032A46294602A87E
S214004F70A047012211460DF1070302A8A0470DF134
S214004F8007032A46022102A8A0470DF107032A4676
S214004F90032102A8A0470DF107032A46042102A810
S214004FA0A0470DF107032A46052102A8A0470DF1E8
S214004FB007030122062102A8A0470DF107030122DC
S214004FC0072102A8A04708210DEB01000DF10703F9
S214004FD00122A0470DF107030122092102A8A047DC
S214004FE00DF107032A460A2102A8A0470DF1070380
S214004FF001220B2102A8A0470DF1070301220C2174
S21400500002A8A0470DF1070301220D2102A8A04720
S2140050100DF1070301220E2102A8A0470DF1070398
S21400502001221A2102A8A0470DF107032A461B21D8
S21400503002A8A0470DF1070301221C2102A8A047E1
S2140050400DF1070301221D2102A8A0479DF8073095
S214005050012B19D116491348164CB0474FF400736C
S21400506002AA29460C48A04713490E48B047BFF38A
S2140050704F8F1249124BCA6802F4E0621343CB60AA
S214005080BFF34F8F00BFFDE70E490648B0470DF54A
S214005090027D70BDD19B000000408000A1E80000AA
S2140050A0A6FB0000B7FB0000D8FB0000F54E000092
S2140050B0EBFB0000319C0000FDFB000000ED00E073
S2140050C00400FA050AFC000070B50A4B0A4D0B4CAA
S2140050D0984701460A48A0470A492846A0470A4B6F
S2140050E098470A492846A047284623460849BDE867
S2140050F070401847097900004EFC0000A1E8000047
S2140051001DFC00003EFC0000314F000073FC000058
S21400511080FC000070B54D000026837104460171C6
S21400512042714681074B284698473346206005441F
S214005130A84203D1A3812381002070BD20F8023B42
S214005140F6E700BF11E700002DE9F047064699464E
S21400515000010B4B0B4DDFF830A00F4690469847EA
S21400516000242860A64202D10020BDE8F087286807
S2140051704B4600EB041042463946D0470134F1E76F
S21400518011E700004822002015510000324B2DE99F
S214005190F047D3F800804FEA001C08EB0C0200240E
S2140051A0157920462646A2464FF6FF7923465FFA33
S2140051B084FEAE453FD3B3FBF5F5ADB28D4238BFA6
S2140051C030B258F80C4028BF00B20B4434F81050E8
S2140051D024F810109079547911795789B2F808C0DC
S2140051E05B1BC0F11005B3FBF1F3EDB29EB246FABD
S2140051F005F1201AC0B289B2BF1B8140002F1FFAEA
S21400520081FEB8BF7F420126F44506FA05F520D098
S214005210AF4209DC06FA04F406FA00F0241AA645A2
S21400522002D0BEF1000F14D101205381A2F808E08D
S2140052309081BDE8F087176837F81470BA453CBF10
S2140052407046BA46B9453B4484BF7646B9460134F3
S214005250ADE70020BDE8F08748220020024B1B681F
S21400526003EB0010007B704748220020084B1A68AA
S214005270CB1F02EB0012072B4FF0000090819FBF60
S21400528050791389401A43FA00F080B2704700BF85
S2140052904822002038B5002405460180C4810481D8
S2140052A0448184810482448284820A4B084698475B
S2140052B0686000B9FEE720462A88A3B29A4204F145
S2140052C0010101D8012038BDA4B26B6818550C4600
S2140052D0F2E700BF11E700000389028A93429BBFF2
S2140052E00088C018981A801A80B27047028A03890C
S2140052F0934210B59CBF04881B199B1A9BB28B4225
S21400530085BF04885218002192FBF4F384BF04FB87
S21400531013224282084610BD838A4268D154838A8B
S214005320018801339BB2B3FBF1F201FB1233838297
S21400533001207047828A438A934200D0FEE70382A8
S21400534001207047F0B543898589AB4200D0FEE75F
S21400535002899A4200D0FEE7068AB54216D0048833
S214005360002293B2A34200D3FEE7AF1897FBF4F1F6
S21400537004FB11718FB2BE4208D04768795C0A29D7
S21400538002F10102EDD1581C80B2F0BD0020F0BD44
S214005390F0B543898589AB4200D0FEE702899A4280
S2140053A000D0FEE7068AB5421ED001880024A2B2CD
S2140053B08A4200D3FEE72F1997FBF1F301FB137324
S2140053C09FB2BE4210D04768FF5C0A2F04F101046A
S2140053D0EDD1013393FBF1F401FB14334381531CED
S2140053E09BB2C3811846F0BD0023FBE78389418941
S2140053F0994210B5024600D1FEE741681488C85CA1
S21400540001339BB2B3FBF4F104FB1133938110BD5F
S21400541082894389934200D0FEE7038101207047CA
S2140054202DE9F04104469046324E9DF8185000F59E
S2140054307D601F46B047414604F6E870B047099BBA
S214005440636000229DF820302260A3739DF81C3014
S21400545063731146A7601346257322826262E218C0
S2140054600133B3F5FA6F82F83010F8D100221346F4
S214005470A1180132B2F5FA6F81F80038F8D104F5B8
S214005480805241F2040001212354136041F20702C6
S2140054908D42A1542BD1A3542354627B112A07D1E9
S2140054A041F20502A35441F20603E554BDE8F0813B
S2140054B0627B122A07D141F20502A55441F2060288
S2140054C0A354BDE8F081627B132A08D141F205029D
S2140054D0A35441F20603FF22E254BDE8F081627B4A
S2140054E0142A05D141F20502FF21A154E6E7A15492
S2140054F0BDE8F081955200002DE9FF472F4F304E52
S2140055007B683048DFF8E0901033002501240393D1
S2140055104FF47A62112301931146029500942A4BA8
S214005520B0477B6829480294203303934FF47A628D
S2140055301223019311460094254BB0477B682548FB
S2140055400094303303934FF002084FF47A6213232B
S21400555001931146CDF808801F4BB0477B681F4863
S21400556000944033039303274FF47A621423029780
S214005570019311461A4BB0474FF0FF0A4FF47A6278
S21400558000972B4611464846164F0395CDF808A0BF
S2140055900195B0474FF47A622B460395CDF808A0E4
S2140055A00195CDF8008011463846B04741F2070312
S2140055B009F80340FC5404B0BDE8F08764320020CC
S2140055C021540000181200204410002054680020C7
S2140055D0F00F00204047002048110020243700200C
S2140055E0F81000204C5700205C2200202DE9F04FD8
S2140055F093B000F6E87802AF0646574BF96040468F
S21400560098470446002800F0A580544B3B61544B55
S2140056107B61544BBB61544BFB61544B3B62544B18
S2140056207B620023C7F808D01D4607F1100141F23F
S214005630070051F8232012F800E0BEF1000F07D053
S21400564007F1400E0EEB850E01354EF8182CEDB224
S2140056500133062BEDD1DFF834A1002107F128092C
S214005660CBB29D4221D84046424B984784423AD11D
S214005670DFF81CB14FF0000907F1280A5FFA89F33A
S2140056809D4231D84FF0000A1FFA8AF39C424046EA
S21400569037D8394BDFF8FC80984707F128040021FB
S2140056A0CBB29D424BD8012015E059F82100864226
S2140056B001D1FB68ABB100F57D60D047844210D9BC
S2140056C00222C8238DE80C0064222C482C4C0023B0
S2140056D01146A0470020D7F808D04437BD46BDE89D
S2140056E0F08F0131BCE7FEE75AF82900864201D167
S2140056F0FB681BB1214600F57D60D84709F101091A
S214005700BCE7204B98474FF00009834607F1280274
S2140057105FFA89F18D4202D80AF1010AB4E752F81D
S2140057202900864201D1FB6833B1594600F57D60F9
S214005730154B7A6098477A6809F10109E8E754F84A
S2140057402100864201D1FB6813B100F57D60C04799
S2140057500131A5E7C1E700BF45530000181200203D
S2140057605468002040470020243700205C22002098
S2140057704C57002091530000115400007432002052
S21400578057780000ED53000019530000D95200006E
S214005790ED520000355300002DE9F04FADF5057DC4
S2140057A000AF00F57D6538618C4B284698477861D8
S2140057B020B907F50577BD46BDE8F08F3B693A6925
S2140057C0303302F50062002103F8011B9342FBD13F
S2140057D007F11C064FF4FA720021814BDFF8209285
S2140057E03046984728467F4B984700247B6904F14B
S2140057F00108E4B29C42284631D37B4B7B4CDFF851
S21400580004829847002507F11A0302220621304633
S214005810BD76A0477F3843B2FB60304607F11A03D7
S21400582002220821A0477F3840B2C0F18000400025
S21400583000F00703FD76BB602E4607F11C0B15F83B
S2140058400B30022B13D1EEB201357A69ABB29A4215
S214005850F3D83869664B114630309847A9E7C847F1
S2140058603B6930551C4484F830004446BEE7032BA1
S214005870EAD10EB90026E7E707F11B0A701C52466C
S21400588002215844C0475FFA80F9B9F1000F39D1B8
S2140058900BEB0604DFF854A107F11A0302220521D8
S2140058A02046D04707F11A03022207212046D04798
S2140058B007F11A035FFA80FB022209212046D0472F
S2140058C007F11A03064602220B212046D047494B11
S2140058D0BC89597AF2B21023E03213FB042260230B
S2140058E092FBF3F603FB1622BB68434C03EBC101A5
S2140058F001F00F01C3B2D2B24BEA01014FEA1B100E
S214005900A047B7E7B9F1010F44D1AB1B0621033B13
S21400591093FBF1F3DBB203EB43020732F41C22F0F5
S2140059200702C7F804D001FB0343ADEB020D0BEBF7
S21400593004096E465B44994506F1030602D1D7F882
S21400594004D097E75246022148463B60C0470221F2
S2140059508346524609EB0100C0470446524609F109
S2140059600400E4B20221C0475FFA8BFBA4F1820375
S2140059705C42ABF180025C41D2F1000B4BEB020BB8
S21400598006F8030C06F8024C06F801BC09F10609F5
S2140059903B68D0E7B9F1040F7FF46CAFF01C5246B9
S2140059A002215844C0470446701D524602215844FE
S2140059B0C0478146F01D524602215844E4B2C04713
S2140059C0642C7FF457AF5FFA89F9B9F1650F7FF45D
S2140059D051AFC1B2094B074898474BE74553000003
S2140059E037E700009153000011540000F17B0000DF
S2140059F099D00000743200208DD70000ED790000A9
S214005A00ED530000A57800002DE9F04F00F57D6508
S214005A10ADF5017D2846404B9847074618B90DF569
S214005A20017DBDE8F08F03AE4FF4FA7200213B4BC8
S214005A30DFF8009130469847394B284698470023B0
S214005A40DCB2BC4203F10108284623D3354B364C62
S214005A50DFF8E480984700250DF10A0302220621AC
S214005A6030468DF80A50A047C3B2009302220DF1CB
S214005A700A0308213046A0478DF80B505FFA80F9DC
S214005A802C46735D022B09D1ECB20135ABB29F42B6
S214005A90F7D8C4E7C84743463055D1E7032BF4D1BF
S214005AA00CB90024F1E7601C0DF10B020221304412
S214005AB0C047C0B20328F4D1009B7F2BF1D1B9F1C7
S214005AC07F0FEED1E01C0DF10B0202213044C047DF
S214005AD08346601D0DF10B0202213044C047019041
S214005AE0E01D0DF10B0202213044C047824604F14E
S214005AF009000DF10B0202213044C0479DF8042036
S214005B00632ACED1C3B25FFA8BF25FFA8AF10748F6
S214005B10074CA047C5E700BF4553000037E7000025
S214005B209153000011540000F17B0000C87800205B
S214005B30C95C0000ED530000A57800002DE9F8438D
S214005B40048A064624BB00F57D673846124B984704
S214005B500546E8B1114BDFF8509038469847358235
S214005B602346DCB2A54203F1010838460AD80C4B9E
S214005B709847328AB0680B4B06F1300198470120EF
S214005B80BDE8F883C847331983F830004346E8E792
S214005B900020BDE8F88300BF455300009153000085
S214005BA01154000039870000ED530000014B01221C
S214005BB01A7070471412002010B544788C421CD915
S214005BC0FF2B4FF00C0404FB01F128BFFF230C4C05
S214005BD0C06854F823304350FF2A28BFFF220144F0
S214005BE054F822304B60BDF80830FF2B28BFFF2347
S214005BF0002054F823308B6010BDFF2010BD00BF7E
S214005C001433002010B5064C064B00F11401204654
S214005C1098472046044A054B0021BDE81040184727
S214005C2094100020458A0000AD5B0000398A000011
S214005C3040787047F0B50D26457800213746CBB240
S214005C409D4210D90369032207FB0133DC7A93F8DF
S214005C500CE0013A744412F0FF02DC7216FB0533C6
S214005C60F4D10131EBE7F0BD10B54478006904FBD0
S214005C7002120D246243811883549DF808304B703D
S214005C809DF80C308B7010BD10B5447804FB0212E2
S214005C9001690D2000FB0212D3709DF808301371C5
S214005CA09DF80C30537110BD10B5447804FB0212F9
S214005CB001690D2000FB021293719DF80830D37124
S214005CC09DF80C30137210BD10B5447804FB021218
S214005CD001690D2404FB0212D37210BD10B544787E
S214005CE004FB021201690D2404FB0212137310BD9B
S214005CF02DE9F74F05464170CCB20C20604390303A
S214005D0068604F4FB847064600F19003A86027200A
S214005D10EB606043B84706B100B9FEE70023286190
S214005D201946AA68D1540133902BFAD10024454F66
S214005D3026466B789C420DD3DFF814B14FF0000A6C
S214005D406B785FFA8AF6B3420AF1010A0AD803B002
S214005D50BDE8F08F0023214600961A462846B8472D
S214005D600134E6E700242346314628460194009491
S214005D700122D8477F2300933146234628460194C4
S214005D800122314FDFF8CC90DFF8CC80B847FF23F4
S214005D900093314623462846019401222B4FB847EC
S214005DA02346314628460122C84723463146284620
S214005DB00122C04723463146284601940094022219
S214005DC0D8477F2300933146234628460194022273
S214005DD01D4FB847FF2300933146234628460194BB
S214005DE002221A4FB8472346314628460222C847A1
S214005DF02346314628460222C047234622463146DD
S214005E00284601940094D8470F4F01942346224613
S214005E10314628460094B84723462246314628464F
S214005E2001940094094FB847234622463146284637
S214005E30C8472346224631462846C04780E700BF6B
S214005E4011E70000B95B0000895C0000A95C000057
S214005E50695C0000DD5C0000C95C00002DE9F04FC5
S214005E6004694378DFF8A0A085B000254FF00D093F
S214005E70039309FB014403262B462A46E77A94F847
S214005E8003C01AF807E094F800B05744013E97F8AC
S214005E90008197F800721CFB08FC0BFB0ECC94F8F4
S214005EA006B00BFB07CC624494F804C094F801B02B
S214005EB01CFB08FC0BFB0ECC94F807B00BFB07CCC6
S214005EC0634494F805C094F802B01CFB08F80BFB7A
S214005ED00E8E94F808B00BFB07E73D44BDF80C7037
S214005EE016F0FF0619FB0744C8D1C5F34F250095E9
S214005EF0C3F34F23C2F34F22024CA04705B0BDE8C0
S214005F00F08F00BFB95B00000000002070B5064EA1
S214005F10054600246B789C4200D370BD2146284677
S214005F20B0470134F6E700BF5D5E000038B5084CA8
S214005F300546002323700748074B9847AA88A96898
S214005F406869064B98472378012BFCD138BD00BF03
S214005F5014120020941000202D8A000039870000BB
S214005F602DE9F04F284B1B78DBB2202B89B08046FA
S214005F7019D0402B1CD100210223012208469BB2D7
S214005F8058435943534300240493FF230790069134
S214005F90254626460393E3B25FFA86FA5FFA85F94A
S214005FA00593002111E00022022311460120E6E7B6
S214005FB001231A4619461846E1E7059B0093524608
S214005FC04B464046114FB847594698F8013001F104
S214005FD0010BC9B28B42F0D840460D4B98470D4B8B
S214005FE001209847039B5F1E079B1E44069B1D448B
S214005FF0049B1C4417F0FF03B6B2ADB2A4B20393E1
S214006000C9D109B0BDE8F08F000C0040B95B0000B4
S2140060102D5F00000986000070B52A4E0446002257
S21400602093B213F0010F14BF4FF060604FF00060A2
S21400603013F0020F0CBF4FF000454FF0604513F011
S214006040040F45EA00050CBF4FF400204FF4602013
S21400605013F0080F40EA05000CBF4FF400054FF49C
S214006060600513F0100F40EA05000CBF4FF4006502
S2140060704FF4606513F0200F45EA00050CBF4FF49F
S21400608000404FF4604013F0400F45EA00050CBF97
S21400609008200E20DB0914BFE02380232843034397
S2140060A046F822300132B2F5807FB9D12046064B41
S2140060B098472046054B98472046054B98470020B2
S2140060C070BD00BF14330020F15C0000055C0000CA
S2140060D0615F000010B5074B044600221A700648A0
S2140060E0064B9847A288A1686069054BBDE810403A
S2140060F0184700BF14120020941000202D8A0000BC
S2140061003987000070B52049204C2148214DA04712
S214006110214B4FF48042C3F81821A847264650B9B1
S2140061201E491B48B0471E481E4B98471E481F4B2B
S214006130BDE870401847A8470828F1D0A84780282F
S21400614005D11B491248B04715481A4BEDE7A8473A
S2140061508828F6D0A847402805D117490C48A047FC
S2140061600F48164BE1E7A847C02805D11449084850
S214006170A0470B48134BD8E713490548A0471349D7
S2140061800348A047D2E700BF91FC0000A1E800004A
S214006190B7FB00000979000000800041A1FC000068
S2140061A064320020D173000074320020597B000056
S2140061B0B3FC000099640000C5FC0000AD6F000051
S2140061C0D7FC0000B9690000E9FC000005FD0000EE
S2140061D010B5044C0448A04723460448BDE81040C8
S2140061E0184700BFA1850000C40F002098110020AA
S2140061F02DE9F04F8B4A137889B0144633B91378DB
S2140062000133DBB2137009B0BDE8F08F0023ADF8A0
S2140062101C30ADF81E305378834A844E84480833C9
S214006220D55C6378DBB2EDB2D15CCBB20393637816
S2140062300133DBB26370637803F00703637063783F
S21400624013F0010F7B4B4FF4002214BFC3F8182144
S214006250C3F81421637813F0020F764B4FF48012C4
S21400626014BFC3F81821C3F81421637813F0040F81
S214006270704B4FF4001214BFC3F81821C3F8142152
S2140062800021022307AAB04702230DF11E020021B7
S2140062906948B047BDF81C204EF660239A424FF07E
S2140062A0000340F2B580ADF81C300123BDF81E1087
S2140062B04EF6602291424FF0000240F2AE80ADF8FA
S2140062C01E2001225D4F0492BA68BDF81C004FEAFA
S2140062D0051B5A44D1680978884243D0002B41D028
S2140062E008AE00239942D2F8049006F8053D0CBF8C
S2140062F090218021DFF85081059100964FF0020230
S2140063004FF00501484614BF9A464FF07F0AC04733
S2140063100096059B022207214846C04700962B465A
S214006320022209214846C0470222009653460B2106
S2140063304846C047BB68424E5B442946DB68384641
S21400634083F800A0B047BB689B440221DBF8040139
S2140063503C4B4FEA4A020930984705F11001C9B292
S2140063603846B047354E039BB2684FEA031A52448C
S214006370D3681978BDF81E308B4244D0049B002B9E
S21400638041D008AD0023D2F8048005F8053D9942B7
S2140063900CBF4FF0900B4FF0800B2B4F00954FF03B
S2140063A002024FF00501404614BF99464FF07F09A0
S2140063B0B84700955B46022207214046B84700953D
S2140063C0039B022209214046B847022200954B460D
S2140063D00B214046B847B3680399194D53443046DD
S2140063E0DB6883F80090A847B3689A440221DAF87D
S2140063F00401144B4FEA49020930984703991031BB
S214006400C9B23046A84700232370104B9847FAE6D7
S214006410C72A3FF64BAF7F2345E7C7293FF652AF63
S2140064207F224CE73E060020000300202D8500005A
S214006430C40F002000800041981100206432002024
S214006440097F0000D5780000097C0000D1610000BB
S2140064502DE9F0410B4F0C4C0C4E0D4D00223B46E7
S21400646011462046B04700223B4611462846B04714
S2140064702046084C0021A047284623460021BDE8B8
S214006480F0411847F1610000C40F0020F1840000BD
S21400649098110020E18400002DE9F04F102195B0FE
S2140064A007463E4B3E48DFF824A1DFF82481984794
S2140064B0202138463B4B9847002426461E220021C2
S2140064C00CA8D047384B08AA5FFA84F903F1100CE1
S2140064D0964618685968154603C5083363452A4624
S2140064E0F7D10F2C4FF003030DF11C0B47D8019387
S2140064F064230093022200232C492D4D0CA8C0478C
S214006500002302220521CDF800B00CA88DF81C60EF
S214006510A847002302220721CDF800B00CA8A84700
S214006520002302220921CDF800B00CA8A847CDF818
S21400653000B0002302220B210CA8A84702251D4B01
S2140065400CA898470223C0B2029300902A46CDF8C2
S21400655004B00CAB49463846174D8DF81C60013424
S2140065608DF81D60A847202CA8D13846134B9847B5
S214006570134B9847134B984715B0BDE8F08FA644C9
S214006580049303961EF8102C0292012563220192B2
S214006590009502220C490CA8C047D0E719600000FD
S2140065A0C87800204D7C000014FD000024FD00008B
S2140065B0097C00007DEB0000F17C0000097D0000F6
S2140065C051640000D161000039FD000037E700008B
S2140065D025EB000010B5084B084C4FF400129A61EA
S2140065E02046074B98472046064C074A0749A446CC
S2140065F00823BDE81040604700800041B80E002028
S214006600318900006D8900004D2200201003002013
S2140066102DE9F04FB24B4FF400125A61B14B5A7A43
S214006620511E8BB04A424A4103929A7A9A7A002ABD
S21400663040F0CA804FF0000B5FFA8BF2AA49AB48D5
S214006640530810F80B00CB5C02F0010189000B41E7
S214006650DBB203F00F01814200F03081A44803F062
S21400666001031BF800400593A24BA34803EB041359
S21400667002708A08C1F3400104915978914251D0C2
S214006680002A4FF001010CBF4FF07F0A4FF0000ABE
S21400669099705A70994EDFF890820CBF9023802331
S2140066A007930AFA01F30693B36825012B440AAF51
S2140066B0D3F80490002307F8053D02220097052131
S2140066C04846C0470097079B022207214846C04716
S2140066D000972346022209214846C0470222009717
S2140066E053460B214846C047B368854F2B44214686
S2140066F0DB68304683F800A0B847B368069A05F50D
S21400670040752B44022158687E4B09309847B36881
S2140067109DF818201D4404F13001EB68C9B21A70C8
S2140067203046B847734F049A2601BB195B7B9342E9
S21400673067D01346059A934214BF4FF0FF350125E4
S214006740BB199DF810205A739DF814209A73002DDB
S21400675000F0B480996863486B4BDFF8D0819847A7
S2140067600990099B6948B3F5C87F84BF4FF4C87386
S2140067700993099B132B9CBF14230993099B099A21
S21400678002FB1300624B984753A3D3E90023C0478C
S2140067900022604BDFF89881C0475F4B98475F4BFD
S2140067A01FFA80F94F48984709F101033E4413FB4E
S2140067B005F39BB26A1CB06019B240F0BB80F27859
S2140067C0CA4220D413441FE00022DFF830814D4F28
S2140067D04B4E9A7220244FF40075D8F808302B449C
S2140067E00221DA685868039B0930D25CB847103536
S2140067F021464248B0470134B5F5407FE4B2ECD1BB
S21400680018E700259CE70023F370DFF8F080039973
S21400681004F110031E010493D8F808303344DA68F4
S214006820525C09FB05210029C0F28E807F2900F307
S2140068308D8001F0FF05954240D00AAFD3F804A042
S214006840DFF8E490002307F8053D022200970521B3
S2140068505046C8470097B023022207215046C84733
S21400686000972346022209215046C8472B46009728
S21400687002220B215046C847D8F80830039A9DF8E4
S21400688010101E481E4F334406F58076DB689D5474
S214006890B847D8F8083033446A005868194B0221C4
S2140068A009309847D8F80830039A14481E446D00FB
S2140068B0F36804F120019D54C9B2B8470BF1010BEF
S2140068C0BBF1100F7FF4B8AE154B00221A70154BB3
S2140068D098470BB0BDE8F08F00000000004CED407C
S2140068E000800041743200204D2200203822002013
S2140068F01E0300205467002020220020643200205F
S214006900097F0000D5780000FD77000000710200C6
S21400691079E100000000F03F89E60000F97700000A
S214006920F4780020D5650000097C0000B9E400007A
S21400693001DF0000012D7FF468AFF27811447F2953
S2140069407FF740AF7F235FE7002574E77F2572E778
S2140069500F4B4FF4001210B55A610E4C9A604FF070
S21400696080429A620C4A9A62032120460B4B984753
S2140069700B490C4B204698470B490C4B2046984732
S21400698020460B4A0B4B0021BDE81040184700BFBD
S21400699000800041B80E0020200000C0558900008D
S2140069A0801A06003D89000034220020D1890000AC
S2140069B011660000B58900002DE9F04F102191B056
S2140069C08146474B4748DFF848B1DFF8488198478B
S2140069D040214846444B984700252F461E2200215A
S2140069E008A8D8470F2D5FFA85FA4FF0030307ACC7
S2140069F056D8019364230093022200233B493C4E61
S214006A0008A8C0470023022205218DF81C700094B8
S214006A1008A8B047002302220721009408A8B04720
S214006A20002302220921009408A8B04700940023FE
S214006A3002220B2108A8B04702262E4B08A898472A
S214006A4002238DE811000293324608AB51464846B1
S214006A50294C8DF81C7001358DF81D70A047402D0F
S214006A60BCD1264B484698470022254B11460120AC
S214006A704FF0FF341A700132102A59709970D9708D
S214006A80187159719C6019735873987303F1100349
S214006A90F0D11C4B98471C4B984711B0BDE8F08FBF
S214006AA0BAF11F0FA5D9BAF12F0F049303970BD88D
S214006AB0A5F120020292012663220192009602228C
S214006AC0124908A8C047B8E7A5F13002029263222F
S214006AD00192022200920D4908A8C0470126ACE7A1
S214006AE019600000C87800204D7C000024FD0000DE
S214006AF0097C00007DEB0000F17C0000097D0000B1
S214006B005467002051690000D565000039FD00007B
S214006B1037E7000025EB000010B5044C0448A047FA
S214006B2023460448BDE81040184700BFA185000072
S214006B30C40F0020981100202DE9F04FA44A1378C6
S214006B4087B033B913780133DBB2137007B0BDE8F2
S214006B50F08F0023ADF81430ADF816309D4B9E48EC
S214006B601A789E4EDFF898A2DFF898929C4F08326B
S214006B704FF40021855C1A78D2B24FF6FF78845C19
S214006B801A7898480132D2B21A701A7802F00702C0
S214006B901A701A7812F0010F934A14BFC2F818112F
S214006BA0C2F814111A7812F0020F8F4A4FF48011AF
S214006BB014BFC2F81811C2F814111B7813F0040F92
S214006BC0894B4FF4001214BFC3F81821C3F81421E0
S214006BD00021022305AAB04702230DF11602002168
S214006BE08248B047BDF81400D04777A3D3E9002306
S214006BF0C847B847404528BF4046ADF8140006468B
S214006C00BDF81600D04770A3D3E90023C847B8479D
S214006C10E4B24045A4F1080328BF4046012BEDB27C
S214006C20ADF8160040F2C0800D2D40F2EF804EF613
S214006C30602296424FF0000340F2BC80ADF814305C
S214006C40012390424FF0000240F2B980ADF81620C2
S214006C500122DFF8A481029205F18056043ED8F89E
S214006C600820BDF8140036013244D16809788842FD
S214006C7046D0002B44D006AF00239942D2F804A099
S214006C8007F8053D0CBF90218021DFF87C91039129
S214006C9000974FF002024FF00501504614BF9B4686
S214006CA04FF07F0BC8470097039B022207215046F0
S214006CB0C84700972B46022209215046C8470222A1
S214006CC000975B460B215046C847D8F80830484F17
S214006CD03344291FDB68C9B283F800B04046B84782
S214006CE0D8F808301E440221D6F8C400414B4FEABB
S214006CF04B020930984705F10801C9B24046B8472B
S214006D003D4F04F18055043DBA682D012A44D368EE
S214006D101978BDF816308B4246D0029B002B43D024
S214006D2006AE0023D2F8049006F8053D99420CBF43
S214006D304FF0900B4FF0800BDFF8CC8000964FF0B2
S214006D4002024FF00501484614BF9A464FF07F0AEC
S214006D50C04700965B46022207214846C047009679
S214006D602346022209214846C0470222009653467F
S214006D700B214846C047BB681D4E2B44211FDB68CD
S214006D80C9B283F800A03846B047BB681D4402214C
S214006D90D5F8C400174B4FEA4A020930984704F169
S214006DA00801C9B23846B047094A00231370134B8E
S214006DB09847CBE6C72E3FF644AF7F233EE7C7286B
S214006DC03FF647AF7F2241E77B14AE47E17AF03FBC
S214006DD04C2200205D7800202F0300202D85000027
S214006DE089E60000C40F00200080004198110020B2
S214006DF0097F0000D578000064320020196B00007F
S214006E0099E1000065E20000097C0000012C4E4F6D
S214006E1000F29380A8EB06012846B847BDF8161086
S214006E20A8EB01012046B847484E2846B0470296D0
S214006E3000283ED0464F474BDFF8249107212846CE
S214006E409847BB684FEA051B5B4406AED3F804A020
S214006E50002306F8053D804600960222052150468E
S214006E60C8470096B023022207215046C84700961E
S214006E702B46022209215046C8475FFA88F30222B1
S214006E8000960B215046C847334E29463846B04731
S214006E90BB689B444FEA4802DBF8C4002F4B022134
S214006EA002F0FE020930984705F10C01C9B23846D7
S214006EB0B0472046029B984700283FF475AF244E03
S214006EC0244BDFF89C80072120469847B3684FEA9A
S214006ED004194B4406ADD3F804A0002305F8053D7D
S214006EE007460095022205215046C0470095B0236C
S214006EF0022207215046C047009523460222092158
S214006F005046C047FBB2009502220B215046C047B0
S214006F10114D21463046A847B36899447A00D9F8FF
S214006F20C4000E4B02F0FE0202210930984704F11D
S214006F300C01C9B23046A84736E731462846B8475E
S214006F40BDF816106EE700BF8D5100005D520000C0
S214006F50643200206D520000097F0000D5780000E2
S214006F60097C00002DE9F0410B4F0C4C0C4E0D4DEA
S214006F7000223B4611462046B04700223B461146BB
S214006F802846B0472046084C0021A04728462346FE
S214006F900021BDE8F0411847396B0000C40F0020FF
S214006FA0F184000098110020E18400002DE9F04FE4
S214006FB00E2291B08046072305211020374CDFF8BB
S214006FC00CB1DFF80C91A0470C21354B354898479B
S214006FD018214046344B984700252F461E22002194
S214006FE008A8D847072D5FFA85FA4FF0030307ACC9
S214006FF042D8019364230093022200232B492C4E8F
S21400700008A8C8470023022205218DF81C700094AA
S21400701008A8B047002302220721009408A8B0471A
S214007020002302220921009408A8B04700940023F8
S21400703002220B2108A8B04702261E4B08A8984734
S2140070400223C0B202930194009008AB3246514628
S2140070504046194C8DF81C7001358DF81D70A04700
S214007060182DBBD14046154B9847154B9847154BE6
S214007070984711B0BDE8F08FBAF10B0FB9D9A5F15A
S2140070800C02029201266322019204930397009653
S21400709002220D4908A8C847CFE700BF49510000A3
S2140070A019600000C87800204D7C000024FD000018
S2140070B0097C00007DEB0000F17C0000097D0000EB
S2140070C0656F0000196B000039FD000037E700000F
S2140070D025EB000010B5044C0448A047234604489E
S2140070E0BDE81040184700BFA1850000C40F00206F
S2140070F098110020000000002DE9F04F904A137808
S21400710089B0144633B913780133DBB2137009B073
S214007110BDE8F08F0023ADF81C30ADF81E30537874
S214007120884A894E8948DFF85892DFF85882884F97
S2140071300833D55C6378DBB2EDB2D15C637801339B
S214007140DBB26370637803F007036370637813F051
S214007150010F804B4FF4002214BFC3F81821C3F868
S2140071601421637813F0020F7A4B4FF4801214BF89
S214007170C3F81821C3F81421637813F0040F754B75
S2140071804FF4001214BFC3F81821C3F814215FFA95
S21400719081FA022307AA0021B04702230DF11E023E
S2140071A000216D48B047BDF81C00C84762A3D3E96C
S2140071B00023C047B8474FF6FF76B04228BF304698
S2140071C0ADF81C00BDF81E00C8475BA3D3E900233A
S2140071D0C047B847B04228BF3046604BADF81E00E7
S2140071E09847082809D1BDF81C30DB43ADF81C30A1
S2140071F0BDF81E30DB43ADF81E30594EBDF81C10EE
S2140072002846B047BDF81E105046B047554E284693
S214007210B0470596002843D0534F544BDFF85881AB
S214007220072128469847BB6803904FEA051B5B4436
S21400723008AED3F80490002306F8053D0222009617
S21400724005214846C0470096B0230222072148463B
S214007250C04700962B46022209214846C0479DF8A3
S2140072600C30009602220B2148460493C047BB68A8
S2140072709DF80C203E4E5B442946DB6838461A7063
S214007280B047BB689B44049BDBF804015A0002210C
S2140072900930384B984705F11001C9B23846B04757
S2140072A05046059B9847002841D02F4E2F4B324F13
S2140072B0072150469847B3684FEA0A194B4408AD71
S2140072C0D3F80480002305F8053D83460095022286
S2140072D005214046B8470095B023022207214046C4
S2140072E0B84700955346022209214046B8475FFA40
S2140072F08BF3022200950B2140460393B847B368F0
S2140073001B4D4B445146DB68304683F800B0A84717
S214007310B3689944039BD9F804015A000221093046
S214007320144B98470AF11001C9B23046A84700230B
S2140073302370124B9847EAE67B14AE47E17AF03F9B
S214007340400600203F0300202D850000C40F0020CB
S21400735089E60000008000419811002009790000AD
S2140073608D5100005D520000643200206D52000016
S214007370097F0000D5780000097C0000D570000069
S21400738099E1000065E200002DE9F0410B4F0C4C3E
S2140073900C4E0D4D00223B4611462046B0470022BB
S2140073A03B4611462846B0472046084C0021A047D9
S2140073B0284623460021BDE8F0411847F970000032
S2140073C0C40F0020F184000098110020E184000022
S2140073D02DE9F04F0E2291B0804607230521364C4A
S2140073E0DFF804B1DFF804911020A0471021334BDA
S2140073F03348984720214046324B9847002427467A
S2140074001E22002108A8D8470F2C5FFA84FA4FF0F6
S214007410030307AE42D8019364230093022200239D
S21400742029492A4D08A8C8470023022205210096AC
S21400743008A88DF81C70A847002302220721009692
S21400744008A8A847002302220921009608A8A847F2
S2140074500096002302220B2108A8A84702251C4BF1
S21400746008A898470223C0B2029300902A460196C5
S21400747008AB51464046174D8DF81C7001348DF808
S2140074801D70A847202CBBD14046134B9847134B82
S2140074909847134B984711B0BDE8F08FA4F110023F
S2140074A0029201256322019204930397009502221B
S2140074B00C4908A8C847D2E74951000019600000E7
S2140074C0C87800204D7C000024FD0000097C0000E8
S2140074D07DEB0000F17C0000097D00008973000050
S2140074E0D570000039FD000037E7000025EB0000EE
S2140074F000F01F034009C00100F1824000F5004083
S21400750001229A400344426093F8401041F004017F
S21400751083F8401082617047038A303300F13002EE
S214007520034400219A4201D10182704702F8011BF0
S214007530F8E700000148024B184700BF2437002038
S214007540197500000148024B184700BF404700204D
S214007550197500000148024B184700BF5468002008
S214007560197500000148024B184700BF181200208A
S21400757019750000012303778068014B184700BF88
S214007580298D00000148024B184700BF2437002011
S214007590757500000148024B184700BF40470020A1
S2140075A0757500000148024B184700BF546800205C
S2140075B0757500000148024B184700BF18120020DE
S2140075C075750000807B030103F1824303F52043B9
S2140075D000211A6C22F002021A64014B184700BF01
S2140075E0799900000148024B184700BF1812002086
S2140075F0C57500000148024B184700BF54680020BC
S214007600C57500000148024B184700BF40470020E0
S214007610C57500000148024B184700BF24370020FC
S214007620C57500002DE9F0475C202A4CDFF8F08095
S214007630294F2A4E2A4DDFF8EC90A0475020A0474D
S2140076404C20A0472920A047264C274A0121404627
S214007650A047264A01213846A047254A0121304640
S214007660A047244A01212846A04701214046C84792
S21400767001213846C84701213046C847012128461F
S214007680C8471D4A02214046A0471C4A02213846E8
S214007690A0471B4A02213046A0471A4A0221284624
S2140076A0A047194C19494046A04719493846A047F3
S2140076B018493046A04718492846A047174C404668
S2140076C0A0473846A0473046A04728462346BDE890
S2140076D0F0471847F1740000F00F00204811002012
S2140076E0F8100020418D00006575000055750000FB
S2140076F04575000035750000B5750000A5750000DD
S2140077009575000085750000398D000070320020E8
S2140077102C47002048570020F0780020198D0000E4
S21400772044100020858D0000F7B58368847B0F46E3
S214007730196A104B0546283120461646984705F527
S214007740006120460C4B9847394620460B4B98471D
S214007750214601A80A4B9847019B01221E6020463D
S2140077600021084B984700212046074B984703B056
S214007770F0BD00BF09990000F99800003599000097
S214007780B5990000D19800007999000010B5104A0C
S214007790104C11484FF4FA61A047104A10484FF4B5
S2140077A0FA61A0470F4A10484FF4FA61A0470F4A03
S2140077B00F484FF4FA61A0470E4B002283F81F23B0
S2140077C083F8202383F8212383F8222310BD00BFEB
S2140077D0E57500002977000018120020F5750000F6
S2140077E0546800200576000040470020157600000B
S2140077F02437002000E100E0806970478069401A65
S21400780070478369013383617047007A70470023AD
S21400781003727047837963B9808840087D380028F2
S214007820B8BF4042C0F17D00022390FBF3F0C0B227
S2140078307047012B06D18088FA23B0FBF3F040F3A3
S2140078400000F4E7022B05D1808864288CBFFF2057
S21400785000207047704710B5C370BDF80C308380A9
S21400786001249DF80830047241708270837110BD47
S2140078704078704780787047C0787047A0F1300332
S2140078800246D8B209280CD9A2F16103052B03D809
S214007890A2F15700C0B2704711B10A7000207047BD
S2140078A0084670472DE9F0410139DFF82480174675
S2140078B006468C000025231D02D12846BDE8F0812F
S2140078C0394616F8010BC047A0400544043CF2E7D1
S2140078D07D78000030B585B0094B05460C4601A8FA
S2140078E0084998470023DAB2944201D805B030BD63
S2140078F01A1B01A90A44127AEA540133F3E700BFBF
S21400790025EB000052FD00002DE9F74F304E33689E
S214007910013358D12F4C304B304FDFF8CC904FF41A
S2140079200055C4F888504FF48042C4F8A8304FF091
S2140079304043C4F8A830C4F888204FF04022C4F86A
S214007940A820C4F8A8304FF40043C4F88430244B71
S214007950C4F8A830A3F18023C4F8A8300120C4F8E6
S2140079609450B8474FF0000AD346A8460120C4F802
S2140079709880B84701A8C847D4F88020D4F8A0302B
S214007980D4F890505D4015405D4001A8154B9847CF
S2140079902B0441BF012303FA0AF343EA0B0B5FFAF9
S2140079A08BFBBAF1070F07D04FF48045C4F8985008
S2140079B00120B847C4F894500AF1010ABAF1080F3A
S2140079C0D4D1C6F800B0306803B0BDE8F08F00BF71
S2140079D0500300200080004100200040098600007F
S2140079E000800240BF850000B18500002DE9F04F01
S2140079F001230C46837287B0514B06469847FF2CEE
S214007A0042D1504DDFF8449174724FF0000828467A
S214007A104D4B98475FFA88F4A04208F1010802D857
S214007A2007B0BDE8F08F06233F2701930093214659
S214007A3028460122C8477F263B4621462846DFF8CF
S214007A4010B1019700970122D847DFF808A10196E8
S214007A5033462146284600960122D047002301934C
S214007A600093214628460222C8473B462146284620
S214007A70019700970222D8470196009633460222C5
S214007A8021462846D047C2E704F003042D4D747201
S214007A904FF0000A28462C4B98475FFA8AF4A0421B
S214007AA00AF1010ABCD9737A284F3344214693F869
S214007AB013B0DA7B93F80B8003924FEA5B130193C3
S214007AC05309009328464FEA58130122B847039BF0
S214007AD01F4F5B0804934FEA5B034FEA5809059370
S214007AE00193049B009321464B4628460122B84743
S214007AF0039B0093214643462846CDF804B0012256
S214007B00144FB847002301930093214628460222CB
S214007B100E4FB847059B0193049B009321464B46A6
S214007B20284602220A4FB847039B00932146CDF809
S214007B3004B0434602222846064CA047AAE700BFE8
S214007B4009790000C8780020315C0000695C0000FC
S214007B50895C0000A95C000010B50022C8236421DF
S214007B6032244272C27202758274C173C374037384
S214007B70017444734374447581738375FF21054B08
S214007B8005489847054B9847054B9847054BBDE871
S214007B9010401847ED79000074320020F9540000B8
S214007BA0257600008D77000010B5024600230339C5
S214007BB0141AA14201D8184610BD12F8014B6340B2
S214007BC0F6E7000007B5CB1E0DF1070202211844A8
S214007BD0024B9847C0B203B05DF804FBA5780000DE
S214007BE0CB1E18440221014B184700BFD578000071
S214007BF010B4144608441A462146024B5DF8044B5E
S214007C00184700BFA578000010B5144608441A4669
S214007C102146014B984710BDD578000000F11C03A3
S214007C209C3053F8042B8A4203D08342F9D10020BB
S214007C3070470120704790F89C30013303F01F0313
S214007C4080F89C3000EB8300C1617047072310B5B5
S214007C50194404464370C8B22070034B000198478D
S214007C6060607030A06010BD11E700002DE9F84F8D
S214007C70074699467B68DDF830B00A98DFF86CA0B6
S214007C804FEA011803EB0806002403F80840727058
S214007C90B07086F808B0D047706005465846D047A2
S214007CA0F060FDB1F0B1224679684144501C8B78F3
S214007CB0D2B293420AD800237A684244581C117AFA
S214007CC0DBB2994208D80020BDE8F88F4B6819F857
S214007CD002409C540246E7E70B99D268C95CD1542F
S214007CE00346E9E7FF20BDE8F88F00BF11E7000074
S214007CF010B444782144034CC9B2A4465DF8044B42
S214007D00604700BF6D7C00002DE9F04F6A4FDFF83A
S214007D10D48191B082464FF000099AF801305FFA9C
S214007D2089F5AB423CD91E22002108A8634B984730
S214007D30052D07AE0ED16421652200234FF0030BFC
S214007D408DE80E0808A8042302225D495D4CA04772
S214007D5002240FE0062D26D1682303244FF0690C79
S214007D608DE808100294042302225749DFF854B124
S214007D7008A8D84708A8B84700238DF81C308DF807
S214007D801D30C0B20223029300902246019608AB33
S214007D90294650464D4CA04709F101090028BCD0A1
S214007DA011B0BDE8F08FA5B9662303248DE818004E
S214007DB0022204234649434C08A8A0478DF81C50CD
S214007DC0C047444C009603460222052108A8A04757
S214007DD0BEE7012D1ED1C047FF23049303930290F4
S214007DE0112307208DE809000424059401220E23A0
S214007DF03949DFF8D0B008A8D84708A8B847374BA5
S214007E008346014608A8984759460246344B08A8B8
S214007E109847AFE7022D1ED1C04704230593FF23E2
S214007E20049303930721122301228DE80A0002908F
S214007E300E232949234C08A8A04708A8B847274B73
S214007E400446014608A8984721460246244B08A83F
S214007E50984705248EE7032D1ED1C04704230593BB
S214007E60FF2304930393072213238DE80C001A497B
S214007E70029001220E23134C08A8A04708A8B84772
S214007E80164B0446014608A8984721460246144B5E
S214007E9008A8984706246DE7042D0AD1C047FF239B
S214007EA004930393072414230595029001930094EA
S214007EB09CE700245EE700BF7DEB000037E700008C
S214007EC0FAFD000025EB00000FFE00006D7C0000B0
S214007ED020FE0000097C000030FE0000A97B0000A8
S214007EE0E17B00000979000010B5436803EB01113F
S214007EF0002388785C1CDBB2834200D310BD486840
S214007F00C05CD0542346F4E743781944090143681B
S214007F1001225A5470470901436801225A54704797
S214007F200901436800225A54704700002DE9F04FBB
S214007F309B4FD5B07E680A9000200B9003460546FE
S214007F403978C2B28A4215D33BB1954E4FF000093C
S214007F5033785FFA89F79F422BD3002D7ED10A9B98
S214007F601B680F2B40F24E810A9A013B136055B0F6
S214007F70BDE8F08F1201B118B25C32B14A78022A1D
S214007F8005D10B9A0132D2B20B920130D8E7032A00
S214007F9002D10133DBB2F8E7042AFAD0052AF8D07A
S214007FA0062AF6D0072AF4D0012A04BF0135EDB21E
S214007FB0EBE74FEA071B726802EB0B0112F80B2087
S214007FC0002A39D04A78033A042A35D80DF15008E9
S214007FD00021744B4FF48072404698470FA8724AAF
S214007FE09047724B3946424630469847704A40465C
S214007FF09047704A82460FA8904773685B445B7848
S214008000032B1CD0042B1CD0052B1CD0062B1CD0FD
S214008010694A072B08BF14461FFA8AF12046674BA9
S214008020984748B139463046654B9847002757452C
S2140080300DD12046634B984709F1010988E7624C49
S214008040EAE7624CE8E7624CE6E7624CE4E718F8D9
S2140080500710614B204698470137E8E70A9B1B68E4
S214008060132B3FF67CAF14ADDFF890814D4BDFF855
S2140080709091DFF83CB14FF4807200212846984773
S214008080172298F89D1098F80030099203220026CF
S2140080900892049301227F23069203930293019190
S2140080A00F234E490796059600962846C847284649
S2140080B0D847CDF83490DFF8E890CDF83080044605
S2140080C0374699F800305FFA86F898453FD3002F78
S2140080D03FF445AF0C9B0C9A93F89D304049013312
S2140080E02E19DBB282F89D30304604220D9B98474D
S2140080F03046D847044422463A490D9B12A8984772
S2140081009DF84830AB709DF84930EB702B19364A15
S214008110364918469047D84704442146344B2846EB
S214008120984721460246334B28469847A1B2324824
S214008130224B984700283FF412AF2F4FDFF8988065
S2140081400026A64227D11F4B2B48984707E7C82C86
S2140081501FD8154B10A898474FEA0813D9F80420E3
S214008160D118D35C93B14B78012B0FD105EB040AE1
S214008170524641460D4B4846984741464846104BA6
S21400818098475046D8470137FFB2044410A8094B19
S2140081909847013695E7A95D3846C0470136D0E7CF
S2140081A06432002037E70000B1850000E97E000059
S2140081B07DEB0000BF850000F4460020ED52000075
S2140081C0217F00003553000044320020E8210020C3
S2140081D02478002010570020195300004AFE0000A3
S2140081E036FD000075FE00006DEB000046FE000048
S2140081F0A97B0000E17B00002C32002074320020B6
S21400820025EB000013B10A9A013B13600B9B002B71
S2140082103FF4ADAE14ADDFF888A1514BDFF8849182
S214008220504F4FF4807200212846984717229AF83C
S2140082309D109AF8003009920322002608920493B3
S21400824001227F2306920393029301910F2346494E
S2140082500796059600962846C8472846B847CDF89C
S2140082602CA0DFF844A1CDF830900446B0469AF82A
S21400827000305FFA86F9994546D3B8F1000F3FF40F
S21400828076AE0A9B0A9A1B6838495B000A3313606D
S2140082900B9B0B9A93F89D3001332E19DBB282F8B4
S2140082A09D30304604220C9B98473046B84704441D
S2140082B022462F490C9B12A898479DF84830AB7071
S2140082C09DF84930EB702B192A4A2B4918469047DF
S2140082D0B84704442146294B28469847214602467B
S2140082E0274B28469847A1B22648274B9847002890
S2140082F03FF43DAE234FDFF8B4800026A64229D1D6
S214008300224B2048984732E6C82C21D8204B11A88B
S21400831098474FEA0913DAF80420D118D35CA3B1C2
S2140083204B78022B11D105EB040B5A464946194BE4
S2140083305046984749465046174B98475846B847C0
S21400834008F101085FFA88F8044411A8134B98470F
S21400835001368CE7A95D3846C0470136CEE700BF38
S21400836037E700007DEB00004AFE000036FD000007
S21400837075FE00006DEB000046FE0000A97B0000C5
S214008380E17B000044320020ED520000355300002F
S214008390B1850000E97E0000217F0000BF85000057
S2140083A07432002025EB00006432002019530000D0
S2140083B0836903B118477047C36903B1184770470C
S2140083C02DE9F14F036AD0F828805C5CDFF8549002
S2140083D004EB4404E40008EB040505F1040A064631
S2140083E00F465046D1B29346C84730460C4B984786
S2140083F0012806D94FEA1B215046C847AB8A0133ED
S214008400AB82AB8A0133AB8258F804302BB13946C5
S214008410304601B0BDE8F04F184701B0BDE8F08F18
S214008420A9960000C993000070B50446FF260020F8
S214008430C5B201305655C5B2AB42F9D284F82430E5
S2140084409DF8103084F82530059BA36222622046F2
S214008450044B984728B9044BA360044B2360044B95
S214008460636070BDE9950000C1830000B183000021
S214008470B9830000F8B50F46D0F820E011461EF884
S2140084800720FF2A05461AD190F82420002004462B
S214008490C6B2964216D995F82520A2421AD304EB06
S2140084A04406A86AF60030441A4604300B4B984738
S2140084B028B92B6ADC55AB6A1E44B082F8BD6FF053
S2140084C00C00F8BD1EF80660FF2E1CBF0134E4B297
S2140084D00130DDE76FF01B00F8BD00BF8F93000092
S2140084E008B5024B9847002008BD00BF9D960000C7
S2140084F0012A38B513D004D3022A12D06FF00C002C
S21400850038BD046A856A645C04EB440445F834307C
S214008510003318BF0123044CA047002038BD8361F8
S214008520F6E7C361F4E700BFD59600002DE9F347F0
S21400853004461F46154BDFF864A00D469046984744
S214008540236A5D5DA36A05EB450503EBC50501A837
S2140085500F4B2E1D98470F4B304698470E4B8146C3
S21400856001A898470024A145A2B201D0BC4206D17A
S214008570AB8AA0B29B1AAB8202B0BDE8F08708EBCC
S21400858004013046D0470134EDE700BFA99600004D
S214008590B1850000EF930000BF850000A7930000A0
S2140085A008B5024B9847002008BD00BFBD960000E6
S2140085B0EFF31083036072B6BFF35F8F7047BFF3AD
S2140085C05F8F036883F3108870470000004B1847DE
S2140085D0F1990000014B1860014B18474406002033
S2140085E049AE0000054B10B51C68054B9847054B77
S2140085F001462046BDE81040184700BF440600204C
S214008600419700005DAE0000054B10B51C68054B99
S2140086109847054B01462046BDE81040184700BF66
S21400862044060020499700005DAE0000004B184746
S214008630F9990000436903B118477047836903B18D
S2140086401847704710B5044B0446984718B9034BB3
S2140086502360034B636010BD519B0000358600000D
S2140086603D8600001FB5838AADF804304FF4004302
S214008670ADF806300391054B029201A9283814463E
S2140086809847002808BF204604B010BDE1A70000A8
S2140086901FB5838AADF8043048F20103ADF8063002
S2140086A00391054B029201A92838144698470028E2
S2140086B008BF204604B010BDE1A700004288D205DE
S2140086C002D4436B03B1184770474288D20502D4E0
S2140086D0836B03B1184770474288D20502D4036BF8
S2140086E003B118477047000070B50C4B0446984716
S2140086F0054680B90A4BE3620A4BA3620A4A0B4E50
S21400870001212046B0470A4A02212046B047094ABE
S21400871029462046B047284670BD00BF7DA700000A
S2140087209186000065860000BD860000A1A80000B6
S214008730CB860000D98600000368184743681847B0
S214008740004B1847E59D000010B5102300248461F7
S2140087504161C261046203720121024B20389847CE
S214008760204610BDC1AB000038B50025A0F120049E
S2140087701023C261816145610562037201212046B2
S214008780044B984740F2FF112046034B9847284673
S21400879038BD00BFD1AB0000F1AB000070B50C4B8C
S2140087A004460E460021051F98470021094B204627
S2140087B09847094B002120469847002384F8283024
S2140087C0236B23B131462846BDE87040184770BD7C
S2140087D0C1AB0000D1AB0000E1AB0000026CC36B84
S2140087E09A4210B504460BD3064B00219847002347
S2140087F084F82830E36A1BB1201FBDE810401847F4
S21400880010BD00BFE1AB000070B5866B1A4B044686
S214008810EEB10279056C012A05F10102026412D854
S21400882098477055216CE36B994217D2626B134BD5
S21400883092B12079012894BF515C32F8111020467D
S214008840BDE870401847984726F81500EAE79847AD
S214008850236C01332364E5E7E188F0E7084B002149
S21400886020469847002384F82830E36A1BB1201F6F
S214008870BDE87040184770BDF9AB0000F1AB0000D2
S214008880D1AB000070B50379416B0D4A012B036C28
S21400889003F101050446056494BFC95C31F8131062
S2140088A09047226CE36B9A4209D100212046054B83
S2140088B0984720460121044BBDE87040184770BD1C
S2140088C0F1AB0000C1AB0000E1AB000070B50446A0
S2140088D0064644F8041F0E4B20469847002815DB32
S2140088E00C4D0D4A00212046A8470C4A012120467F
S2140088F0A8470B4A02212046A8470A4A03212046D9
S214008900A847094BB362094B7362002070BD00BFD5
S21400891005AB000001AC0000858800000988000057
S214008920DD8700009D8700006987000049870000FA
S2140089300430014B184700BF91AB000090F82C3074
S214008940DB0602D40430024B18476FF00300704772
S214008950ADAB000090F82C30DB0602D40430024B9E
S21400896018476FF003007047A5AB000070B50446CB
S214008970C263A163036400234364051D102380F8CB
S2140089802C300E46094B012128469847084B56B115
S214008990227A012A626C94BFB15C36F8121028461F
S2140089A09847002070BD6189F9E700BFD1AB000091
S2140089B0F1AB000009B9026370474263003218BF8A
S2140089C0012203210430014B184700BF0BAC000006
S2140089D0243008600020704710B4044C1346A446A8
S2140089E000221C385DF8044B604700BF51AD000004
S2140089F010B4044C1346A4460A461C3800215DF801
S214008A00044B604751AD000010B5054B044640F8D6
S214008A10041F984718B9034B6362034B236210BDCB
S214008A201DAC0000F1890000D98900000430014B1C
S214008A30184700BFE1AC00000430014B184700BFE8
S214008A40EDAC00002030086000207047F0B50568E7
S214008A501DB90F4BBDE8F0401847D1F808E02C468A
S214008A600026C2F1010C6368A768934295BFDB1924
S214008A7063449B1ADB19734507D22368264613B94D
S214008A803046044BE6E71C46EDE7A542F8D1E0E7A2
S214008A905B930000639300002DE9F0470669037EB0
S214008AA044690136DA070546066110D4037E9B0743
S214008AB00DD4DFF84880DFF8489000F1140724B1A1
S214008AC06368A268F31A934207D2BDE8F0872B7E4C
S214008AD043F002032B76BDE8F0873846C047237C78
S214008AE0012B04D16660324621463846C847D5F881
S214008AF014A0E368204698475446E0E783930000B6
S214008B004D8A000010B51368044640F8042B9847B9
S214008B100020024B6061636010BD00BF998A0000B0
S214008B20036870B5061D05469B693046984704469F
S214008B3028B92B6830469B689847204670BD6FF072
S214008B40100070BDF7B5037F00F1180643F001036F
S214008B5003770446154B30460F469847054638B10E
S214008B60237F03F0FE0323776FF0110003B0F0BD00
S214008B7062690F4B7A60304639469847237F03F088
S214008B80FE032377207F10F00200EFD001A8094BE8
S214008B909847237F03F0FD0323772368201DDB69B6
S214008BA0984701A8044B98472846DFE74D930000F6
S214008BB04D8A0000B1850000BF85000003460022F4
S214008BC09A62DB69083803B11847704703460022EB
S214008BD09A625B6A083803B11847704770B5044656
S214008BE0054BA0F108052C309847236A1BB1284690
S214008BF0BDE87040184770BDC993000010B5B0F8C6
S214008C004C301446B0F844209A420CD10023A0F809
S214008C10443001238164A0F84C4003630830034BC2
S214008C209847204610BD6FF01B0010BD3BA7000004
S214008C30838FB0F844209A4210B504460AD0026CDE
S214008C40591C8187D15C044B9847044B2046BDE8ED
S214008C5010401847024BFAE70FA700003BA700009A
S214008C6043A700002DE9F74305460F4BDFF8449075
S214008C7001A834358846164698470C4B2846984730
S214008C800B4B074601A898470024A74201D0B442E0
S214008C9003D1A0B203B0BDE8F08308EB0401284678
S214008CA0C8470134F1E700BFB1850000EF9300002C
S214008CB0BF850000A793000038B504460D46343043
S214008CC011461A460C4B984790B9294604F10800FD
S214008CD00A4B984770B90A4B63600A4B23600A4BED
S214008CE0A3600A4BE3600A4B23610A4B636138BDFD
S214008CF06FF00C0038BD00BF8F93000065A6000023
S214008D00658C0000FD8B0000318C0000DD8B0000C0
S214008D10BD8B0000CD8B000008B50830014B98478E
S214008D20002008BDDDA6000008B50830014B9847B6
S214008D30002008BDF1A60000086000207047000073
S214008D40012908B50FD004D3022912D06FF00C0009
S214008D5008BD8262003218BF012201210830084B8C
S214008D609847002008BD4262003218BF0122022147
S214008D70F4E7C262003218BF01220321EEE700BF0B
S214008D804BA7000008B50830014B9847002008BDE7
S214008D90FDA600002DE9F8430F4C0F46164600F1DD
S214008DA00805A1462846A0470028FBD0DFF83080FB
S214008DB00024395D2846C0472846C8470028FBD00F
S214008DC00134B442F5D3054E2846B0470028FBD000
S214008DD02046BDE8F88300BF1DA7000027A70000B7
S214008DE009A700002DE9F843DFF82890DFF828806F
S214008DF00F461646002400F108052846C8470028F6
S214008E00FBD02846C04738550134B442F5D3204637
S214008E10BDE8F88331A7000015A7000010B5054B84
S214008E2004460830984718B9034B6360034B236029
S214008E3010BD00BF59A60000E58D0000958D00000E
S214008E4008B50830014B9847002008BDC9A60000A9
S214008E500A4970B5002300F00F065D014C195AB29E
S214008E606478844208D06D5C0DB9A64204D0013304
S214008E700D2BF2D14FF0FF32104670BD4806002091
S214008E800020704770B5094B04460D469847084BBE
S214008E9003EB40108378032B05D1836929462046CF
S214008EA0BDE870401847002070BD00BF518E00001E
S214008EB0480600202DE9F0433C4B3D4C85B08046EB
S214008EC00F469146984703464601002F49D1A519FB
S214008ED0A15DEF7000293BD1AA786878EE69032A75
S214008EE04FF00C0E4FF020022BD112FB03E222446F
S214008EF0012195F90C70B0476B7878B10522002FE8
S214008F00AA704FF00202B4BF184643F08000EA7021
S214008F100121284B984705B0BDE8F083002FACBF71
S214008F2043F0800303F00F0304228DF80C30012376
S214008F30019002908DF80D30AA7001A81E4B98473C
S214008F40E9E712FB03E22244B0470223AB70E2E7F4
S214008F500123AB7034444A46E369E17840469847BB
S214008F60D9E7012F04EB06030BD1A15D0222DA70CC
S214008F7021B99A7040460F4B9847EBE705229A7046
S214008F80E8E7022F07D10422DA70A25D0AB99F70C3
S214008F90C1E70122F3E7032F09BF002206229A70D9
S214008FA0052218BF9A70DA70D4E700BF518E000011
S214008FB048060020EDBD000025BF00002DE9F04763
S214008FC01D4B1E4E1E4C0546984720270C2317FBAC
S214008FD0003737448146394628461A4B9847C0B270
S214008FE0082865F07F0809D001212846A0470121FE
S214008FF05FFA88F02346BDE8F047184706EB4916A7
S214009000002128465FFA88F8A0474FF001090021A2
S2140090104046A04786F80290736939462846984726
S21400902038B905234946B3702846A0474946404606
S214009030E0E7BDE8F08700BF518E0000480600203C
S214009040EDBD0000D1BE000010B5114B98470028BA
S2140090501CDB4FF4D07200210E4B0F4898470E4B86
S2140090600E4A03F5D071FF2058705A619A61DA6192
S21400907020338B42F8D10A4C0A490020A0470A49FF
S2140090800120A04702200949A047002010BD00BFCC
S214009090BDB9000037E7000048060020818E0000BA
S2140090A051C00000BD8F0000858E0000B58E000008
S2140090B0004B18472DC00000004B1847A5BA00000B
S2140090C0004B184701BB0000004B18471FBB0000B1
S2140090D0004B184713BB0000F8B5104C06460D466B
S2140090E01746A047002813DAFF20A047041E12DB0D
S2140090F03A46294630460A4B984700280DDB094B6E
S21400910060011A1805F003051D5456700020F8BDBE
S2140091106FF01300F8BD6FF01400F8BD518E00001C
S2140091202DBB00004806002000210246014B0846E1
S214009130184700BFD990000038B5074B054698473A
S214009140041E07DB2846054B9847054800EB4410ED
S214009150FF23437038BD00BF518E0000EDBB0000FA
S2140091604806002038B50C4B05469847002810DB0B
S21400917040010A4C235C0444002B0CBF022301234D
S214009180A3702846064B9847002804DA0023A370ED
S21400919038BD6FF0110038BD518E00004806002023
S2140091A071BC00002DE9F04F90F808A0364B07463A
S2140091B087B050469847B0F1000897F809907E6847
S2140091C05DDBDFF8D4B0314B4FEA48180BEB0805EF
S2140091D002A89847AB788DF807309DF807002C4B0F
S2140091E0C4B2012C1CD10322AA7002A898471BF80F
S2140091F008304BB319F100034FEADA1418BF012305
S21400920039683A7A03910496002C35D042F08002F1
S2140092108DF8153003A81F4B8DF8142098470DE0E5
S21400922002A898479DF80730DBB2052B2AD0062BFC
S21400923007D0002B0CBF6FF01200012007B0BDE86E
S214009240F08F6FF00F00F9E7E97CAA7C02EB0122B1
S21400925092B22AB90423AB70164623461C46CFE7C3
S21400926095F90C10964228BF16460029F6DAB24247
S21400927094BF00230123C3E702F00F02C8E76FF094
S2140092801100DBE70220D9E7518E0000B18500000F
S214009290BF85000025BF0000480600202DE9F041EC
S2140092A005460C46D9B9134B9847071E1EDB02210C
S2140092B02846114EB047D8B121462846B047002868
S2140092C016DB0E4800EB4710032101238370C170A4
S2140092D0C3692246284698472046BDE8F081012902
S2140092E0054B18BF0221BDE8F04118476FF011008A
S2140092F0BDE8F081518E0000EDBD0000480600205C
S21400930038B50F4B14460D4698470E4A002C08BF3A
S2140093101446002813DB012D08D002D3022D0AD0F4
S21400932038BD094B03EB4010446138BD064B03EBD8
S2140093304010846138BD044B03EB4010C46138BD57
S214009340518E0000818E000048060020006800B99B
S21400935070478842FAD10120704703680B600160AD
S214009360704703680B600160704703681BB90160B3
S2140093700B60704713461A68002AFBD119600A6012
S214009380704703680BB11A68026018467047531E90
S2140093901A4001BF43608260C26001600CBF104685
S2140093A06FF00C0070478368C2689A4209D0426822
S2140093B013400268D35C0B7083680133836000201F
S2140093C070476FF009007047C36842681340026830
S2140093D0D154C36881684268591A914288BF9A1A64
S2140093E003F1010388BF8260C36000207047C26833
S2140093F08068101A70470000044B1968024609B9C5
S21400940003491960186802441A607047E80700208C
S214009410487D01204FF0FF3070474FF400534B60FB
S21400942000207047012070470020704700280DDBA1
S2140094304309012200F01F0002FA00F02033044A1C
S21400944042F82300BFF34F8FBFF36F8F704700BF04
S21400945000E100E0002809DB4309012200F01F00BC
S21400946002FA00F06033024A42F82300704700BF59
S21400947000E100E0036B0B42FCD1704703889BB20F
S21400948043F0020303800321004B18477594000045
S214009490038823F002031B041B0C03800321014BEB
S2140094A0184700BF7594000000F13D40A0F5E0505D
S2140094B0C0F38720431E58425841704730B4426973
S2140094C092F82E1092F82D300B4013F0010509D0BB
S2140094D0012382F82E30B2F84020836892B2002131
S2140094E030BC184713F0020106D0022382F82E3053
S2140094F04368294630BC18475B0704D5042382F826
S2140095002E300368F6E730BC704700F13D40A0F50A
S214009510E050800A4000763000F0FE007047000001
S21400952038B5036B2D4C13F0010F02460D460DD1D6
S2140095300321A04703889B0703D5294B98470221A0
S214009540A0470123138003211046A047104601219F
S214009550A047244B162101FB05351046AB88D38067
S21400956040F6FF71A047AB791372104640F6FF71C4
S214009570A047EB7993702B899380104640F6FF71D5
S214009580A047AB7A9372104640F6FF71A047EB7A7D
S214009590D372104640F6FF71A047AB899381104600
S2140095A08021A047EB89D38110464FF48071A047F5
S2140095B02B8A138210464FF40071A0476B8A5382A1
S2140095C010464FF48061A0472B7DD3706B881380C4
S2140095D010460321A047002038BD00BF7594000048
S2140095E0919400007AFE00002DE9F843224B0446D1
S2140095F008460D469847214B01462846984706469A
S214009600002830D11E4B65619D422FD11D4B1C603A
S2140096101D49DFF88090DFF880801C4F2846884779
S21400962000B2C8476069884700B2C047606988478B
S2140096300125420900F01F0305FA03F3284447F802
S214009640223000B2C84760698847284400B2C04745
S21400965060698847284480B2430900F01F0005FA75
S21400966000F047F823003046BDE8F883084B9D42DB
S21400967004BF044B5C60CBE7A99400002195000072
S214009680001C0043EC0700200B95000000E100E002
S214009690002000432D940000559400004069014BC3
S2140096A0184700BF7D9400004369DB88C3F3C103FD
S2140096B0032B0CBF01200220704700004069037D89
S2140096C043F00203037540F6FF71014B184700BFD5
S2140096D075940000012A416904D104223BB981F83F
S2140096E02C207047022AF9D01AB90122F6E781F831
S2140096F02D207047014B1868014B1847EC070020D7
S214009700BD940000004B1847F5960000014B5868C2
S214009710014B1847EC070020BD940000004B18478B
S2140097200D9700004309012200F01F0002FA00F026
S2140097304033024A42F82300704700BF00E100E0D1
S2140097407823584370470000014B5843704700BFCA
S214009750C0D4010010B50E4A0E4C13889BB243F4D9
S214009760A06313800C4B98470C4B98470C4B9847BC
S2140097700420A0470B4B984740F6FB70A0470A4AC8
S214009780136943F400731361BDE81040074B184794
S21400979000400041659A0000A99C0000BD9C0000A6
S2140097A0BD9A0000C19C000000080040019800001F
S2140097B010B4114B114C198C01F01F0103EB01136F
S2140097C00C224A4393F84E10C90704EB020006D554
S2140097D0012283F84E2043685DF8044B184793F83F
S2140097E04E10890704D5022183F84E10A358F3E7DC
S2140097F05DF8044B704700BF00A00041F40700204E
S21400980070B52F4B1A8822F002021204120C1A802E
S2140098105A8822F47C521204120C5A801A8892B289
S21400982042F001021A801A8812F00102FBD14FF4AE
S21400983070611980597B234801F0FE0141F0010157
S214009840597321495A615863996313461F49024662
S2140098501D461C0104F1824000F520400E68066497
S2140098600E7980F845604E7980F84660013310190D
S214009870CE881653202BC56001F10801E9D11F22BE
S214009880012053099B0003F1604302F01F0103F51A
S214009890614300FA01F1C3F88010BFF34F8FBFF3A6
S2140098A06F8F0132242AC3F880111960E9D1044A67
S2140098B013889BB243F002031380002070BD00BFE4
S2140098C000A0004100790020007B0020A8FE0000D8
